:100000000C9494120C94C5120C94C5120C94C51245
:100010000C94C5120C94C5120C94C5120C94C51204
:100020000C94C5120C94C5120C94C5120C94C512F4
:100030000C94C5120C94C5120C94C5120C94C512E4
:100040000C94C5120C94E0590C94C5120C94C51272
:100050000C94C5120C94C5120C9417530C9409A659
:100060000C94C5120C946A390C94C5120C94C512E8
:100070000C94C5120C94C5120C94C5120C94C512A4
:100080000C94C5120C94C5120C94C5120C94C51294
:100090000C94C5120C94C5120C94C5120C941D50EE
:1000A0000C94C5120C94C5120C94C5120C94C51274
:1000B0000C94C5120C94C5120C94C5120C94C51264
:1000C0000C94C5120C94C5120C94C5120C94C51254
:1000D0000C94C5120C94C5120C94C5120C94C51244
:1000E0000C94C5129D39A439B839C539CF39EA39CC
:1000F000D439EA39D939DE39EA39E639018B048B4A
:10010000F38AF78AFD8A3B8B088B0C8B128B168B3C
:100110001A8B208B248B288B3B8B2E8B328B368B30
:10012000BF8EC48EC98ED38EDD8E568FE78EEF8E36
:10013000F78E018F0B8F158F248F2E8F568F388F50
:10014000428F4C8F084AD73B3BCE016E84BCBFFD2B
:10015000C12F3D6C74319ABD56833DDA3D00C77F97
:1001600011BED9E4BB4C3E916BAAAABE0000008030
:100170003F05A84CCDB2D44EB93836A9020C50B9BF
:10018000918688083CA6AAAA2ABE000000803F00EB
:100190000C94E78E0C94288B0C94A4390C94018B4E
:1001A0000C941E4D0C942E8F0C9488AD0C940C8BDB
:1001B0000C94F78E0C94248F0C94428F0C94F24C78
:1001C0000C941A8B0C942E8B0C94168B0C94024D61
:1001D0000C94388F0C94FD8A0C94328B0C94568FAF
:1001E0000C94D4390C94128B0C94F38A0C944E4DCD
:1001F0000C94C5390C940B8F0C94248B0C94F78AB7
:100200000C94018F0C94C98E0C94E6390C94164D05
:100210000C94368B0C94088B0C94BB2F0C94C48ECE
:100220000C94B8390C94D9390C94CF390C94EF8EC6
:100230000C949D390C94BF8E0C94D38E0C94DE39A3
:100240000C94EA390C94048B0C94DD8E0C944C8F36
:100250000C943B8B0C94158F0C94208B0C947E4D3E
:100260000C94F34C4E414E494E495459494E46CD9B
:10027000CCCC3D0AD7233C17B7D13877CC2B32955D
:1002800095E6241FB14F0A000020410000C842003B
:10029000401C4620BCBE4CCA1B0E5AAEC59D744CB9
:1002A0004556454C494E4700434F4D4D554E4943E9
:1002B0004154494F4E0044525952554E00455252F6
:1002C0004F525300494E464F004543484F00205A75
:1002D0003A200020593A200042656420583A200014
:1002E0004D65736820706F696E742063616E6E6F08
:1002F00074206265207265736F6C7665640A0025F0
:1003000069730025696D20256973002569682025BA
:10031000696D202569730025696420256968202599
:10032000696D202569730025697920256964202578
:1003300069682025696D20256973005072696E74A3
:100340002074696D653A200050726F74656374653E
:10035000642050696E0A00C902C402BD02B602A838
:10036000029F026F66660044454255473A004D3190
:1003700031332053006F6B0020573A004361703ACD
:10038000454D455247454E43595F504152534552A2
:100390003A310A004361703A434153455F4C494743
:1003A00048545F4252494748544E4553533A310AE4
:1003B000004361703A544F47474C455F4C494748AA
:1003C00054533A310A004361703A534F46545741EF
:1003D00052455F504F5745523A300A004361703AD8
:1003E0004C4556454C494E475F444154413A310AC9
:1003F000004361703A5A5F50524F42453A310A0009
:100400004361703A4155544F4C4556454C3A310A78
:10041000004361703A5052494E545F4A4F423A315C
:100420000A004361703A50524F47524553533A3095
:100430000A004361703A4155544F5245504F52544F
:100440005F54454D503A310A004361703A4545507A
:10045000524F4D3A310A004649524D574152455F7D
:100460004E414D453A4D61726C696E204D61726C22
:10047000696E5F312E312E365F526F626F56657234
:1004800073696F6E5F312E322E3420526F626F208F
:10049000523220534F555243455F434F44455F55B9
:1004A000524C3A68747470733A2F2F676974687588
:1004B000622E636F6D2F526F626F33442F4D6172E6
:1004C0006C696E2050524F544F434F4C5F5645520B
:1004D00053494F4E3A312E30204D414348494E4505
:1004E0005F545950453A20526F626F205232204576
:1004F000585452554445525F434F554E543A31205B
:10050000555549443A63656465326132662D34312C
:1005100061322D343734382D396231322D6335351F
:100520006336326633363766660A002F2F20007A2C
:100530005F6D61783A20007A5F6D696E3A200079CC
:100540005F6D61783A2000785F6D696E3A200052E5
:1005500065706F7274696E6720656E6473746F7016
:10056000207374617475730A0053657474696E67DF
:100570002054726176656C20416363656C657261BD
:1005800074696F6E3A200053657474696E67205207
:1005900065747261637420416363656C6572617434
:1005A000696F6E3A200053657474696E67205072EB
:1005B000696E7420416363656C65726174696F6E06
:1005C0003A200053657474696E67205072696E74C6
:1005D00020616E642054726176656C2041636365AE
:1005E0006C65726174696F6E3A2000205A00205960
:1005F00000580020204D61783A2000205A002059F0
:1006000000580020204D696E3A20004F6E20004FA8
:10061000666600536F667420656E6473746F7073E2
:100620003A2000000136372603FF3C3D38FF0E2EEE
:10063000303E1312FFFF080706FF061A1C18FFFFC3
:1006400008440A0B43FFFFFFFFFFFF20643A00202E
:10065000693A0020703A0020643A0020693A00208C
:10066000703A0043757272656E743A200043290A2D
:100670000061626C656420286D696E2074656D7020
:100680002000436F6C642065787472756465732014
:1006900061726520004B64200023646566696E65A5
:1006A000202044454641554C545F004B69200023AF
:1006B000646566696E65202044454641554C545F2B
:1006C000004B70200023646566696E6520204445F8
:1006D0004641554C545F00504944204175746F7435
:1006E000756E652066696E69736865642120507552
:1006F0007420746865206C617374204B702C204BDF
:100700006920616E64204B6420636F6E7374616E48
:1007100074732066726F6D2062656C6F7720696EEE
:10072000746F20436F6E66696775726174696F6E6E
:100730002E680A00504944204175746F74756E65C7
:10074000206661696C6564212074696D656F7574DC
:100750000A00504944204175746F74756E652066B7
:1007600061696C6564212054656D70657261747592
:10077000726520746F6F20686967680A00204B6497
:100780003A2000204B693A2000204B703A20000AA2
:1007900020436C617373696320504944200A002030
:1007A00054753A2000204B753A2000206D61783A4C
:1007B0002000206D696E3A200020643A20002062FB
:1007C0006961733A2000426564204C6576656C6906
:1007D0006E6720004661696C656420746F20656EE9
:1007E00061626C6520426564204C6576656C696E5B
:1007F000670A004D65736820706F696E74206361CD
:100800006E6E6F74206265207265736F6C766564BE
:100810000A004D34323120696E636F727265637401
:1008200020706172616D65746572207573616765B2
:100830000A00546F6F206661722066726F6D2072BD
:1008400065666572656E636520706F696E740A0017
:100850004163746976652045787472756465723A8F
:1008600020003C3C3C2067636F64655F540A0020B5
:100870003A2041465445520A002020637572726541
:100880006E745F706F736974696F6E3D00203A20FB
:100890004245464F52450A00202063757272656ECC
:1008A000745F706F736974696F6E3D003E3E3E20E9
:1008B00067636F64655F542800556E6B6E6F776E6B
:1008C00020636F6D6D616E643A2022004B494C4C81
:1008D00045442E20002C20002C2000203A20737943
:1008E0006E635F706C616E5F706F736974696F6E59
:1008F0000A00202063757272656E745F706F736991
:1009000074696F6E3D00656E7175657565696E67BA
:100910002022004E6F204C696E65204E756D626519
:1009200072207769746820636865636B73756D2CDA
:10093000204C617374204C696E653A2000507269D6
:100940006E7465722073746F707065642064756571
:1009500020746F206572726F72732E204669782042
:10096000746865206572726F7220616E64207573A1
:1009700065204D39393920746F2072657374617246
:10098000742E202854656D706572617475726520CF
:1009900069732072657365742E20536574206974C1
:1009A0002061667465722072657374617274696E19
:1009B00067290A004E6F20436865636B73756D206D
:1009C00077697468206C696E65206E756D626572FA
:1009D0002C204C617374204C696E653A200063686A
:1009E00065636B73756D206D69736D617463682CDD
:1009F000204C617374204C696E653A20004C696E1E
:100A000065204E756D626572206973206E6F74206B
:100A10004C617374204C696E65204E756D62657211
:100A20002B312C204C617374204C696E653A200088
:100A30004D3131300020496E76616C6964206578F3
:100A400074727564657220000000000000000000F0
:100A500000000000000045430000454300008243C1
:100A60000A20736F66745F656E6473746F705F6D78
:100A70006178203D20000A20736F66745F656E64A4
:100A800073746F705F6D696E203D20000A20706F77
:100A9000736974696F6E5F7368696674203D2000C6
:100AA00020617869733A0A20686F6D655F6F6666CA
:100AB000736574203D2000466F7220003C3C3C2052
:100AC000646F5F626C6F636B696E675F6D6F766595
:100AD0005F746F0A003E3E3E20646F5F626C6F631E
:100AE0006B696E675F6D6F76655F746F00203A208B
:100AF00073657475705F666F725F656E6473746F33
:100B0000705F6F725F70726F62655F6D6F76650A9E
:100B100000202063757272656E745F706F73697404
:100B2000696F6E3D00203A20636C65616E5F757081
:100B30005F61667465725F656E6473746F705F6F1A
:100B4000725F70726F62655F6D6F76650A0020205C
:100B500063757272656E745F706F736974696F6EBE
:100B60003D00646F5F70726F62655F72616973658B
:100B700028006465706C6F793A2000203A20736514
:100B8000745F70726F62655F6465706C6F796564C5
:100B90000A00202063757272656E745F706F7369EE
:100BA00074696F6E3D00203A203C3C3C20646F5FCE
:100BB00070726F62655F6D6F76650A0020206375E5
:100BC0007272656E745F706F736974696F6E3D00E9
:100BD000203A203E3E3E20646F5F70726F62655F18
:100BE0006D6F76650A00202063757272656E745FA2
:100BF000706F736974696F6E3D0072657365745FC1
:100C00006265645F6C6576656C0A002028646F6EAF
:100C100065290A004578747261706F6C6174652093
:100C20005B0020746F6F206C6F6E67206578747244
:100C30007573696F6E2070726576656E7465640A8F
:100C40000020636F6C6420657874727573696F6ED1
:100C50002070726576656E7465640A0070012C01FF
:100C600090012701B0012201C0011D01F00118010E
:100C70001002130130020E0160020901900204010A
:100C8000C002FF000003FA004003F5008003F000FB
:100C9000D003EB002004E6007004E100E004DC0077
:100CA0004005D700C005D2004006CD00D006C800E0
:100CB0008007C3003008BE00F008B900C009B400C6
:100CC000B00AAF00B00BAA00D00CA500000EA00027
:100CD000500F9B00C01096005012910000148C0021
:100CE000C0158700B0178200B0197D00D01B7800B6
:100CF000001E730040206E0090226900F024640002
:100D000040275F0090295A00E02B5500102E50001C
:100D100020304B0010324600E033410090353C005B
:100D20001037370070383200A0392D00B03A280053
:100D3000A03B2300603C1E00103D1900903D1400B4
:100D4000103E0F00703E0A00C03E0500003F00004C
:100D5000403FFBFF803FF6FFC03FF1FF6265640A42
:100D6000002C2073797374656D2073746F707065D7
:100D70006421204865617465725F49443A200048E7
:100D8000656174696E67206661696C6564004865B9
:100D90006174696E67206661696C656400486561AD
:100DA00074696E67206661696C656400486561748A
:100DB000696E67206661696C6564003002B400305A
:100DC0000D8C00900E87005010820020127D008054
:100DD000147800A016730060196E00E01B69000013
:100DE0001F6400B0215F0090245A00502755003046
:100DF0002A5000E02C4B00602F46009031410060EB
:100E0000333C0090343700B036320030382D00E0EB
:100E1000392800203B2300203C1E00103D1900B063
:100E20003D1400303E0F00903E0A00203F0000F0CD
:100E30003FD8FF544845524D414C2052554E4157E2
:100E4000415900546865726D616C2052756E61770E
:100E50006179004572723A204D494E54454D5020FB
:100E6000424544004572723A204D494E54454D501A
:100E7000004D494E54454D50207472696767657244
:100E80006564004572723A204D415854454D5020DA
:100E9000424544004572723A204D415854454D50E8
:100EA000004D415854454D50207472696767657212
:100EB00065640024F4D43050C38E20C2A24017824F
:100EC0008B7011127A910D816CD90AA861E108C763
:100ED000586607615143061E4B5D05C145A7041ABC
:100EE000411104093D9803713931034036DB026535
:100EF000339102D4305402802E1D02632CEE017512
:100F00002AC501B028A001102781018F2564012B7B
:100F1000244B01E0223401AC211F018D200D018002
:100F20001FFC00841EED00971DDF00B81CD200E6F8
:100F30001BC600201BBC00641AB200B219A8000A2C
:100F400019A0006A189900D117910040178B00B5BD
:100F500016840031167E00B31579003A157300C768
:100F6000146F0058146A00EE13660088136300259E
:100F7000135E00C7125B006C12570015125400C1BB
:100F800011510070114F0021114B00D61049008DF6
:100F90001047004610440002104200C00F4000807D
:100FA0000F3E00420F3C00060F3B00CB0E38009373
:100FB0000E37005C0E3500270E3400F30D3200C1F1
:100FC0000D3100900D3000600D2E00320D2D00050A
:100FD0000D2C00D90C2B00AE0C2900850C29005CCF
:100FE0000C2700350C27000E0C2600E80B2400C44B
:100FF0000B2400A00B23007D0B23005A0B2100398A
:101000000B2100180B2000F80A1F00D90A1E00BB94
:101010000A1E009D0A1D00800A1D00630A1C00476D
:101020000A1B002C0A1B00110A1A00F7091A00DD1E
:10103000091900C4091900AB091900920917007BAE
:10104000091800630917004C09160036091600201C
:101050000916000A091500F5081500E0081400CC6F
:10106000081400B8081400A4081400900813007DA8
:101070000812006B081300580812004608120034CA
:10108000081100230811001208110001081100F0D6
:10109000071000E0071000D0071000C0071000B0D4
:1010A000070F00A107100091070E0083070F0074BF
:1010B000070F0065070E0057070E0049070E003B9B
:1010C000070D002E070E0020070D0013070D000668
:1010D000070D00F9060C00ED060D00E0060C00D42B
:1010E000060C00C8060C00BC060C00B0060C00A4E0
:1010F000060B0099060C008D060B0082060B00778C
:10110000060B006C060B0061060A0057060B004C2C
:10111000060A0042060A0038060A002E060A0024C3
:10112000060A001A060A001006090007060A00FD52
:10113000050900F4050900EB050900E2050900D9DD
:10114000050900D0050900C7050900BE050900B55D
:10115000050800AD050800A50509009C05080094D8
:101160000508008C050800840508007C050800744B
:101170000508006C050700650508005D05070056B9
:101180000508004E05070047050700400508003820
:10119000050700310507002A050700230507001C85
:1011A000050600160507000F0507000805060002E2
:1011B000050700FB040600F5040700EE040600E83E
:1011C000040600E2040700DB040600D5040600CF95
:1011D000040600C9040600C3040600BD040600B7E7
:1011E000040600B1040500AC040600A6040600A035
:1011F0000405009B04060095040500900406008A7F
:1012000004050085040500800406007A04050075C5
:10121000040500700405006B040500660405006108
:101220000405005C04050057040500520405004D48
:1012300004050048040500430405003E0404003A88
:1012400004050035040500300404002C04050027C3
:10125000040400230405001E0404001A04040016FC
:10126000040500110404000D040400090405000431
:1012700004040000040400FC030400F8030400F468
:10128000030400F0030400EC030400E8030400E49A
:10129000030400E0030400DC030400D8030400D4CA
:1012A000030400D0030400CC030400C8030300C5FA
:1012B00003030024F404D9201BC40C5C0E9804C45E
:1012C000095F0265077101F405F900FB04B30048EA
:1012D000048700C10369005803550003034500BE9D
:1012E000023A008402310053022A00290225000438
:1012F000022000E4011C00C8011900AF011700988A
:1013000001140084011300710110006101100051EB
:10131000010E0043010D0036010B002B010B0020D4
:10132000010B00150109000C01090003010800FB75
:10133000000800F3000800EB000700E4000600DEF0
:10134000000600D8000600D2000600CC000500C749
:10135000000500C2000500BD000400B9000400B58E
:10136000000400B1000400AD000400A9000400A5C1
:10137000000300A20003009F0004009B00030098EC
:101380000003009500020093000300900003008D0D
:101390000002008B00030088000200860002008427
:1013A000000300810002007F0002007D0002007B3C
:1013B000000200790002007700010076000200744C
:1013C00000020072000100710002006F0002006D57
:1013D0000001006C0002006A000100690002006761
:1013E0000001006600010065000100640002006267
:1013F00000010061000100600001005F0002005D6B
:101400000001005C0001005B0001005A000100596E
:10141000000100580001005700010056000100556E
:10142000000100540001005300000053000100526D
:1014300000010051000100500001004F0001004E6A
:101440000000004E0001004D0001004C0001004B67
:101450000000004B0001004A000100490001004863
:10146000000000480001004700010046000000465F
:101470000001004500000045000100440001004358
:101480000000004300010042000000420001004152
:1014900000000041000100400001003F0000003F4B
:1014A0000001003E0000003E0001003D0000003D44
:1014B0000001003C0000003C0000003C0001003B3B
:1014C0000000003B0001003A0000003A0001003932
:1014D000000000390001003800000038000000382A
:1014E0000001003700000037000100360000003620
:1014F0000000003600010035000000350000003516
:10150000000100340000003400000034000100330A
:101510000000003300000033000100320000003200
:1015200000000032000100310000003100000031F5
:101530000001003000000030000000300001002FEA
:101540000000002F0000002F0000002F0001002EDF
:101550000000002E0000002E0001002D0000002DD4
:101560000000002D0000002D0001002C0000002CC8
:101570000000002C0000002C0001002B0000002BBC
:101580000000002B0000002B0001002A0000002AB0
:101590000000002A0000002A0001002900000029A4
:1015A0000000002900000029000000290001002897
:1015B000000000280000002800000028000000288B
:1015C000000100270000002700000027000000277E
:1015D0000000002700010026000000260000002671
:1015E0000000002600000026000100250000002564
:1015F0000000002500000025000000250000002557
:101600000001002400000024000000240000002449
:10161000000000240001002300000023000000233C
:10162000000000230000002300000023000000232E
:101630000001002200000022000000220000002221
:101640000000002200000022000100210000002113
:101650000000002100000021000000210000002106
:1016600000000021000100200000002000000020F8
:1016700000000020000000200000002000000020EA
:10168000000000200001001F0000001F0000001FDC
:101690000000001F0000001F0000001F0000001FCE
:1016A0000001001E0000001E0000001E0000001EC1
:1016B0000000002028002920453A00202800292089
:1016C0005A3A002028002920593A002028002058A2
:1016D0003A00537465707065722063757272656E3E
:1016E000742076616C75657320696E202520284111
:1016F0006D7073293A0A000B0BFFFFFF0000020216
:101700000220520020204D393030204B004C696EB1
:1017100065617220416476616E63653A0A0020203B
:101720004D383531205A005A2D50726F6265204F66
:10173000666673657420286D6D293A0A002044009E
:1017400020490020204D3330342050002044002018
:10175000490020204D33303120500050494420733F
:10176000657474696E67733A0A0020204D34323014
:101770002053004175746F20426564204C65766586
:101780006C696E673A0A00205A0020590020204DEB
:10179000323036205800486F6D65206F666673657D
:1017A000743A0A00204500205A00205900205800B1
:1017B00020420020540020204D323035205300417B
:1017C0006476616E6365643A20533C6D696E5F6652
:1017D000656564726174653E20543C6D696E5F742A
:1017E000726176656C5F66656564726174653E20E2
:1017F000423C6D696E5F7365676D656E745F746999
:101800006D655F6D733E20583C6D61785F78795FE0
:101810006A65726B3E205A3C6D61785F7A5F6A65DB
:10182000726B3E20453C6D61785F655F6A65726BE7
:101830003E0A0020540020520020204D3230342037
:101840005000416363656C65726174696F6E202836
:10185000756E6974732F7332293A20503C70726927
:101860006E745F616363656C3E20523C7265747296
:101870006163745F616363656C3E20543C747261A4
:1018800076656C5F616363656C3E0A0020450020ED
:101890005A0020590020204D3230312058004D612F
:1018A00078696D756D20416363656C6572617469FB
:1018B0006F6E2028756E6974732F7332293A0A008F
:1018C000204500205A0020590020204D323033207E
:1018D00058004D6178696D756D206665656472614B
:1018E0007465732028756E6974732F73293A0A0022
:1018F000204500205A0020590020204D3932205820
:101900000053746570732070657220756E69743A47
:101910000A0020204D3230302044300A0020204D73
:101920003230302044002044697361626C65640A7F
:101930000046696C616D656E742073657474696EC0
:1019400067733A002020473231202020203B205569
:101950006E69747320696E206D6D0A004B494C4CA2
:1019600045442E2000202D20496E76616C6964204C
:101970006578747275646572206E756D626572202B
:10198000210A002020506C616E6E65724275666699
:10199000657242797465733A20002046726565204D
:1019A0004D656D6F72793A2000436F6D70696C659B
:1019B000643A2041756720203920323031380A00DE
:1019C000207C20417574686F723A20526F626F0AF2
:1019D00000313420464542203230313800204C61FD
:1019E000737420557064617465643A20004D6172AF
:1019F0006C696E5F312E312E365F526F626F5665A5
:101A00007273696F6E5F312E322E340A004D61722F
:101A10006C696E0020536F66747761726520526541
:101A20007365740A00205761746368646F6720529D
:101A3000657365740A002042726F776E206F75744B
:101A40002052657365740A002045787465726E6172
:101A50006C2052657365740A00506F77657255701B
:101A60000A0073746172740A00205A3A0020593ACD
:101A70000020583A00656E6473746F707320686953
:101A8000743A20005374616E646172642044657618
:101A9000696174696F6E3A20002052616E67653A21
:101AA0002000204D61783A2000204D696E3A2000D8
:101AB0004D65616E3A200046696E69736865642100
:101AC0000A002072616E67653A2000206D61783AE5
:101AD0002000206D696E3A2000207369676D613ABD
:101AE0002000206D65616E3A20003A207A3A20008D
:101AF000206F662000205A00205900205800476FB0
:101B0000696E6720746F3A00436C6F636B7769731B
:101B1000650A00436F756E7465722D00204469720A
:101B2000656374696F6E3A2000202020616E676CD7
:101B3000653A20005374617274696E672072616443
:101B40006975733A2000506F736974696F6E696EBE
:101B500067207468652070726F62652E2E2E0A00F1
:101B60003F4E756D626572206F66206C65677320ED
:101B7000696E206D6F76656D656E74206E6F742072
:101B8000706C61757369626C652028302D31352960
:101B90002E0A00590058003F53616D706C65207328
:101BA000697A65206E6F7420706C61757369626C00
:101BB000652028342D3530292E0A004D3438205A1E
:101BC0002D50726F62652052657065617461626943
:101BD0006C69747920546573740A003F285629652E
:101BE00072626F7365206C6576656C20697320691D
:101BF0006D706C61757369626C652028302D3429B5
:101C00002E0A00202F002042403A0020403A0020B7
:101C1000573A003C3C3C2067636F64655F4732384D
:101C20000A00203A203E20686F6D65590A00202086
:101C300063757272656E745F706F736974696F6ECD
:101C40003D00203A203E20686F6D65580A00202034
:101C500063757272656E745F706F736974696F6EAD
:101C60003D00203A203E20484F4D454158495328D9
:101C70005A290A00202063757272656E745F706F56
:101C8000736974696F6E3D003E20656E6473746F96
:101C900070732E656E61626C652874727565290AB1
:101CA000003E3E3E2067636F64655F4732380A003E
:101CB00020706F736974696F6E206F7574206F6622
:101CC0002072616E67652E0A003F50726F62652058
:101CD000003C3C3C2067636F64655F4732390A0013
:101CE00020636F72726563746564205A3A004732EC
:101CF0003920756E636F72726563746564205A3A39
:101D000000203A203E2070726F62696E6720636F18
:101D10006D706C6574650A00202063757272656E63
:101D2000745F706F736974696F6E3D0052756E6E8B
:101D3000696E6720696E204452592D52554E206DB0
:101D40006F64650A00473239204175746F2042651F
:101D500064204C6576656C696E670A0028422961CB
:101D6000636B00284629726F6E74002852296967D8
:101D7000687400284C29656674003F2856296572EE
:101D8000626F7365206C6576656C20697320696D80
:101D9000706C61757369626C652028302D34292E52
:101DA0000A00426164205A2076616C75650A004E13
:101DB0006F2062696C696E65617220677269640A7E
:101DC00000203A203E3E3E2067636F64655F4732E5
:101DD000390A00202063757272656E745F706F73CC
:101DE0006974696F6E3D0050726F6265204F666660
:101DF000736574206973205A3A200020746F6F2035
:101E00006C6F6E6720657874727573696F6E207081
:101E1000726576656E7465640A0020636F6C642079
:101E2000657874727573696F6E2070726576656E11
:101E30007465640A00627573793A20706175736520
:101E40006420666F7220696E7075740A0062757323
:101E5000793A2070617573656420666F72207573BE
:101E600065720A00627573793A2070726F636573E8
:101E700073696E670A004B494C4C45442E20004B59
:101E8000494C4C20636175736564206279204B492D
:101E90004C4C20627574746F6E2F70696E0A004B23
:101EA000494C4C45442E20004B494C4C20636175F5
:101EB00073656420627920746F6F206D756368208C
:101EC000696E6163746976652074696D65202D2083
:101ED00063757272656E7420636F6D6D616E643AC6
:101EE00020005072696E7465722068616C7465645C
:101EF0002E206B696C6C28292063616C6C656421F1
:101F00000A000000000000004543000082433C3C02
:101F10003C207365745F617869735F69735F617496
:101F20005F686F6D652800203A200A0020206375E5
:101F30007272656E745F706F736974696F6E3D0065
:101F40005D203D20003E20686F6D655F6F666673A3
:101F500065745B003E3E3E207365745F6178697313
:101F60005F69735F61745F686F6D65280000005C76
:101F70004200005C420000404100000000576172D6
:101F80006E696E673A20486F6D696E672042756DA5
:101F9000702044697669736F72203C20310A000218
:101FA00002040000A0400000A0400000004000002B
:101FB000454300004543000082433C3C3C20686FA1
:101FC0006D65617869732800203A203E20414654AF
:101FD0004552207365745F617869735F69735F61EF
:101FE000745F686F6D650A00202063757272656E9C
:101FF000745F706F736974696F6E3D00486F6D65D3
:10200000203220536C6F773A0A004D6F766520417D
:102010007761793A0A00486F6D6520312046617317
:10202000743A0A00FF01013E3E3E20686F6D656113
:1020300078697328004572726F72207772697469CB
:102040006E6720746F20454550524F4D210A00297C
:102050000A002062797465733B2063726320005329
:10206000657474696E67732053746F726564202899
:102070000000002100240027002A002D003000333A
:102080000001010000040107010A010000220025EF
:102090000028002B002E0031003400020100000552
:1020A0000108010B01000020002300260029002C5C
:1020B000002F0032000001000003010601090105A4
:1020C000050505070508080808020202020A0A08B1
:1020D00008040404040101010101010101030303D7
:1020E0000303030303040707070C0C0C0C0C0C0C74
:1020F0000C0202020206060606060606060B0B0B7B
:102100000B0B0B0B0B0102102020080810204010B5
:1021100020408002010201080402010102040810AB
:1021200020408080402010080402018004020180C9
:1021300040201008040201080402010102040810F2
:10214000204080010204081020408000000A0B0299
:10215000090C0D0E08070304010000000000000038
:10216000000000000000000000000000000000006F
:10217000000000000000001211100000000000002C
:10218000000000000000000000000000000000004F
:10219000002044697363726570616E63793A00323E
:1021A0006E642050726F6265205A3A00203A203CDB
:1021B0003C3C2072756E5F7A5F70726F62650A00D8
:1021C000202063757272656E745F706F73697469D5
:1021D0006F6E3D003173742050726F6265205A3A01
:1021E00000203A203E3E3E2072756E5F7A5F70722C
:1021F0006F62650A00202063757272656E745F708D
:102200006F736974696F6E3D0050726F62696E67BB
:10221000206661696C65640A004572726F723A00EB
:102220003C3C3C2070726F62655F70740A00205AFB
:102230003A200020593A200042656420583A200094
:10224000203A200A00202063757272656E745F70F8
:102250006F736974696F6E3D0073746F77290A003C
:102260002C20002C20003E3E3E2070726F62655F85
:1022700070742800202863616C63756C61746564F8
:1022800029210A0020213D2000454550524F4D2074
:10229000435243206D69736D61746368202D20285B
:1022A00073746F726564292000290A0020627974B2
:1022B00065733B2063726320002073746F726564E2
:1022C0002073657474696E677320726574726965D2
:1022D000766564202800204D61726C696E3D56342D
:1022E00031290A0028454550524F4D3D0045455083
:1022F000524F4D2076657273696F6E206D69736DF4
:1023000061746368200048617264636F646564206F
:1023100044656661756C742053657474696E677387
:10232000204C6F616465640A00B80B0000B80B00B4
:102330000064000000E803000000009643000096DF
:1023400043000070410000C8410000A0420000A00E
:1023500042000048440080114342696C696E656127
:1023600072204C6576656C696E6720477269643AC5
:102370000A003C3C3C20646F5F686F6D696E675F6C
:102380006D6F766528002C20002C20003E3E3E20FC
:10239000646F5F686F6D696E675F6D6F766528004B
:1023A00047322F47332062616420706172616D652E
:1023B000746572730A0047322F47332062616420CC
:1023C000706172616D65746572730A0041424C20E0
:1023D00041646A7573746D656E74205A00202865B7
:1023E0006E61626C6564290A002028646973616209
:1023F0006C6564290A0042494C494E4541520041EE
:1024000075746F20426564204C6576656C696E67F3
:102410003A2000204E6F7A7A6C65290A0020262027
:1024200041626F76650020262053616D65205A2039
:1024300061730020262042656C6F77002D42616336
:102440006B002028526967687400205A3A002059AE
:102450003A0050726F6265204F666673657420584B
:102460003A004649585F4D4F554E5445445F5052CF
:102470004F42450A0050726F62653A200043617214
:1024800074657369616E0A004D616368696E6520E9
:10249000547970653A2000205A3A0020593A0020B9
:1024A000436F756E7420583A0020453A00205A3A1E
:1024B0000020593A00583A003A20007A5F6D696E60
:1024C0003A20202D3230207A5F6D61783A20203218
:1024D00030005A204F666673657420004175746F32
:1024E0000020452F443D00416476616E6365204BBA
:1024F0003D0043617365206C696768743A20002071
:1025000066697273740A005A0059005800486F6D6A
:102510006520006563686F3A00526573656E643AC2
:1025200020006F6B000088AD11241FBECFEFD1E2F9
:10253000DEBFCDBF00E00CBF13E0A0E0B2E0E0E9F9
:10254000F4E701E00BBF02C007900D92AE34B10773
:10255000D9F723E1AEE4B3E001C01D92AA35B2077A
:10256000E1F712E1C4E9D2E100E006C021970109D8
:10257000802FFE010E94FFB6C339D10780E0080713
:10258000A9F70E9463A80C9446BA0C9400002F92FD
:102590003F924F925F926F927F928F929F92AF92F3
:1025A000BF92CF92DF92EF92FF920F931F93CF9340
:1025B000DF93CDB7DEB7CD57D1090FB6F894DEBFA4
:1025C0000FBECDBF0091271120E6029F800111248C
:1025D0000D581C4F8091851180FF1AC0E3E1F5E290
:1025E00084917F013FEFE31AF30A811102C0780161
:1025F00004C00E948332F701F3CFD7018D917D0192
:10260000882319F00E948332F8CF8AE00E94833237
:1026100081E090E090932B1180932A11109274091D
:10262000109273098FE380937709109276091092C4
:102630007509109268031092690310926A03109250
:102640006B03F80180810F5F1F4F8032D1F38E340E
:10265000B1F4818190ED980F9A3020F08D3211F015
:102660008B3269F43296DF0131962C9120532A3057
:10267000D0F3CD01FC01019620812032D9F3F093F3
:102680003211E09331117F01BFEFEB1AFB0A108189
:102690006AE270E0C7010E9426BA009731F0FC019F
:1026A000319780818032E1F311821D3429F0143595
:1026B00019F0173409F0CFC0F70180812FEFE21A2B
:1026C000F20A8032C9F380538A3008F0C4C01093F4
:1026D000770920917509309176094AE03196429F39
:1026E000C001439F900D1124DF0111972C91022E00
:1026F000000C330B20533109280F391F8081805380
:102700008A3060F33093760920937509DF013196A2
:102710008C918032D9F31D3449F0009131114091F0
:1027200073095091740961E070E058C02E31310591
:1027300091F03CF42731310571F02C31310569F706
:102740000AC0253731054CF32737310524F0203AEC
:1027500043E0340711F7B0937409A09373097BC069
:10276000813209F445C09FEBB92EB80E89E1A82E3D
:10277000AB1408F45EC0DF01FD0190811196903228
:10278000D9F3A0EDA90FAA3008F047C04F01EB2CF8
:10279000F12C6701A3E0D594C794AA95E1F7C6018F
:1027A00088599C4F6C018B2D8770DB0102C0AA0FEA
:1027B000BB1F8A95E2F7CD01D6019C91892B8C93A2
:1027C00081149104A1F1801AC701825B9C4FDC0146
:1027D0008C92808181548A3188F5DF01FD01319628
:1027E0008C918111BDCF509374094093730933C00C
:1027F0001D3409F0B8CF2032310509F0B4CFF09381
:102800007409E093730963E270E0CF010E9426BA75
:10281000009709F1DC011C921EC0A3EDA90FA230A4
:1028200008F4B4CF9B3211F00C94FC2BAFCF812C69
:10283000CBCF4115510569F6AD01CBCFDF01319604
:102840009C9190539A30D0F3CD01FC010196A08168
:10285000A032D9F3C2CF809177098D3409F43CC7F7
:10286000843511F40C946E2B873411F00C94DB2B0F
:1028700020917509309176092D31310509F4F2C4A2
:10288000DCF42430310544F4223031050CF044C02E
:1028900037FF36C00C94F52B2530310509F482C082
:1028A0000CF443C02C31310511F00C94F52B80E071
:1028B0000E94D9790C94F52B2A32310509F420C6EF
:1028C00074F42332310509F459C52432310509F471
:1028D00059C52E31310511F00C94F52BC7C42B3599
:1028E000310509F458C52C35310509F459C52A3587
:1028F000310511F00C94F52B109272030C94F52B0A
:1029000080911102882311F40C94F52B0E94E0961B
:102910000E942C830C94F52B81E02230310509F0C4
:1029200080E00E9454970C94F52B80E50E941D32A4
:10293000882329F00E9477316B017C0103C0C12CF0
:10294000D12C760183E50E941D32882361F00E941C
:10295000BB3120E030E04AE754E40E94E6B20E9436
:1029600082B86B017C010E94A7590E942A32809193
:10297000331190913411A0913511B0913611C80ED8
:10298000D91EEA1EFB1E0E94FDA5DC01CB018C199D
:102990009D09AE09BF09B7FD02C00C94F52B0E943A
:1029A000BD7BF1CF80911102882311F40C94F52B9B
:1029B0000E94E09689E40E941D32882329F00E943B
:1029C000BB312B013C0103C0412C512C32018AE464
:1029D0000E941D32882329F00E94BB314B015C010B
:1029E00003C0812C912C540180E50E941D32882364
:1029F00029F00E94BB316B017C0103C0C12CD12C9A
:102A0000760181E50E941D32882339F00E94BB3196
:102A10006AA37BA38CA39DA304C01AA21BA21CA221
:102A20001DA2B0912911E696BFAFE69760912902E9
:102A300070912A02072E000C880B990B0E9487B216
:102A40002091350230913602409137025091380280
:102A50000E94E6B22AE037ED43E25CE30E94E6B270
:102A6000EA966CAF7DAF8EAF9FAFEA9720910F12C1
:102A70003091101240911112509112122EA33FA3C7
:102A800048A759A7A30192016EA17FA188A599A586
:102A90000E940FB722966CAF7DAF8EAF9FAF22978B
:102AA00040901312509014126090151270901612EC
:102AB000A5019401C301B2010E940FB726966CAF25
:102AC0007DAF8EAF9FAF269720915D1130915E1143
:102AD00040915F1150916011C701B6010E940FB77C
:102AE0002A966CAF7DAF8EAF9FAF2A972091611170
:102AF0003091621140916311509164116AA17BA1E0
:102B00008CA19DA10E940FB72E966CAF7DAF8EAFAA
:102B10009FAF2E97AEA0BFA0C8A4D9A4A982BA82A5
:102B2000CB82DC824D825E826F8278860E94FDA518
:102B30009B01AC0128533F4F4F4F5F4FE2962CAFA4
:102B40003DAF4EAF5FAFE297FDEC8F2EFCEC9F2EBA
:102B5000A92CFDE3BF2E1AA21EA21AA61BA60E9434
:102B600069560E94FDA58B019C01E296CCACDDACC0
:102B7000EEACFFACE2970C191D092E093F0937FD99
:102B80000EC09B01AC0128533F4F4F4F5F4FE29661
:102B90002CAF3DAF4EAF5FAFE2970E94BD7BA5016A
:102BA0009401BAA1AEA1FAA5EBA56B2F7A2F8F2FB6
:102BB0009E2F0E940FB72B011C0120E030E040E85F
:102BC0005FE30E946FB9181634F4412C512C70E861
:102BD000272EEFE33E2E80915D1190915E11A09122
:102BE0005F11B091601162968CAF9DAFAEAFBFAF79
:102BF0006297A0900F12B0901012C0901112D09056
:102C000012126696ACAEBDAECEAEDFAE66973F9208
:102C10002F925F924F926296ACACBDACCEACDFAC63
:102C200062972A96ECACFDAC0EAD1FAD2A972296AA
:102C30002CAD3DAD4EAD5FAD229766966CAD7DADD2
:102C40008EAD9FAD66970E94003B0F900F900F9046
:102C50000F906FA779AB8DAB99AFC0906111D090F9
:102C60006211E0906311F09064116A96CCAEDDAE13
:102C7000EEAEFFAE6A97209113123091141240917C
:102C8000151250911612A6962CAF3DAF4EAF5FAF06
:102C9000A6973F922F925F924F926A96ACACBDACD2
:102CA000CEACDFAC6A972E96ECACFDAC0EAD1FAD92
:102CB0002E9726962CAD3DAD4EAD5FAD2697A696D0
:102CC0006CAD7DAD8EAD9FADA6970E94003B0F9081
:102CD0000F900F900F906AAF7BAF8CAF9DAF898143
:102CE0009A81AB81BC81AA968CAF9DAFAEAFBFAFCE
:102CF000AA97AD80BE80CF80D884AE96ACAEBDAE74
:102D0000CEAEDFAEAE976B961FAE6B977AA16EA17B
:102D10009AA58BA5272F362F492F582F642D752D57
:102D2000822D932D0E940EB72FE632E143E05BE344
:102D30000E9480B287FF06C06B96BFAC6B97B11044
:102D4000C6C1ACC1242D352D422D532DBAA1AEA143
:102D5000FAA5EBA56B2F7A2F8F2F9E2F0E940FB70E
:102D600020E030E040E05FE30E94E6B23B014C012E
:102D70009F928F937F926F936296ACACBDACCEACBA
:102D8000DFAC62972A96ECACFDAC0EAD1FAD2A9776
:102D900022962CAD3DAD4EAD5FAD229766966CADE3
:102DA0007DAD8EAD9FAD66970E94003B0F900F905A
:102DB0000F900F906F966FAF6F97E3967FAFE3978B
:102DC000E4968FAFE497E5969FAFE5979F928F9239
:102DD0007F926F926A96ACACBDACCEACDFAC6A971A
:102DE0002E96ECACFDAC0EAD1FAD2E9726962CADFD
:102DF0003DAD4EAD5FAD2697A6966CAD7DAD8EAD6B
:102E00009FADA6970E94003B0F900F900F900F90E0
:102E10005B018C012FA539A94DA959ADAA966CADBE
:102E20007DAD8EAD9FADAA970E940FB720E030E038
:102E300040E05FE30E94E6B29B01AC016F966FAD8C
:102E40006F97E3967FADE397E4968FADE497E596B1
:102E50009FADE5970E940EB76B017C01E894F7F8EF
:102E60002AAD3BAD4CAD5DADAE966CAD7DAD8EADDE
:102E70009FADAE970E940FB720E030E040E05FE3E7
:102E80000E94E6B29B01AC01B501C8010E940EB7D9
:102E90009B01AC015F77C701B6010E940FB72DEC13
:102EA0003CEC4CEC5DE30E9480B218160CF044CF71
:102EB000AAAEBBAE0CAF1DAF6F96CFAC6F97CFA6CF
:102EC000E396DFACE397D9AAE496EFACE497EDAADA
:102ED000E596FFACE597F9AE2301140121E06B966E
:102EE0002FAF6B9713CFA7019601C701B6010E94C0
:102EF0000FB79B01AC01BAA1AEA1FAA5EBA56B2F50
:102F00007A2F8F2F9E2F0E940FB7962E872E782E06
:102F1000692E20E030E040E85FE3D401F3016B2F3D
:102F20007A2F8F2F9E2F0E946FB987FFD0C06F928C
:102F30007F928F929F926296ACACBDACCEACDFAC70
:102F400062972A96ECACFDAC0EAD1FAD2A97229687
:102F50002CAD3DAD4EAD5FAD229766966CAD7DADAF
:102F60008EAD9FAD66970E94003B0F900F900F9023
:102F70000F906B966FAF6B976F967FAF6F97E396DF
:102F80008FAFE397E4969FAFE4976F927F928F9213
:102F90009F926A96ACACBDACCEACDFAC6A972E9675
:102FA000ECACFDAC0EAD1FAD2E9726962CAD3DAD15
:102FB0004EAD5FAD2697A6966CAD7DAD8EAD9FAD47
:102FC000A6970E94003B0F900F900F900F905B010F
:102FD0008C016B962FAD6B976F963FAD6F97E39615
:102FE0004FADE397E4965FADE497AA966CAD7DADE7
:102FF0008EAD9FADAA970E940FB720E030E040E071
:103000005FE30E94E6B29B01AC016FA579A98DA98F
:1030100099AD0E940EB76B017C01E894F7F8950119
:10302000A801AE966CAD7DAD8EAD9FADAE970E9402
:103030000FB720E030E040E05FE30E94E6B29B0182
:10304000AC016AAD7BAD8CAD9DAD0E940EB79B010E
:10305000AC015F77C701B6010E940FB72DEC3CECC5
:103060004CEC5DE30E946FB918168CF1AAAEBBAEB2
:103070000CAF1DAF6B963FAD6B973FA76F964FADF3
:103080006F9749ABE3965FADE3975DABE4968FAD89
:10309000E49789AF492C582C272C362C7AA16EA1A5
:1030A0009AA58BA5272F362F492F582F642D752DC4
:1030B000822D932D0E940EB76B017C012DEC3CEC10
:1030C0004CEC5DE30E946FB918160CF00CCF7AA19E
:1030D0006EA19AA58BA5272F362F492F582F642D27
:1030E000752D822D932D0E940EB74B015C018FA58B
:1030F00099A9ADA9B9AD89839A83AB83BC838AAD05
:103100009BADACADBDAD8D839E83AF83B887242DC1
:10311000352D422D532D60E070E080E89FE30E9442
:103120000EB76B017C01209117123091181240915B
:10313000191250911A120E94E6B26AA37BA38CA3C3
:103140009DA32091651130916611409167115091B6
:103150006811642D752D822D932D0E94E6B29B017E
:10316000AC016AA17BA18CA19DA10E940FB76987C8
:103170007A878B879C8720911B1230911C1240917B
:103180001D1250911E12C701B6010E94E6B26B01DA
:103190007C012091691130916A1140916B1150911D
:1031A0006C11642D752D822D932D0E94E6B29B012A
:1031B000AC01C701B6010E940FB76D877E878F876C
:1031C000988BCE0101960E94F7A489819A81AB81E8
:1031D000BC818E8B9F8BA88FB98F8D819E81AF8193
:1031E000B8858A8F9B8FAC8FBD8F89859A85AB857B
:1031F000BC858E8F9F8FA8A3B9A3AE01425E5F4F9F
:10320000BE01665E7F4FCE0146960E94FF4BE6965A
:10321000CFACE697EA96ECACFDAC0EAD1FADEA97ED
:103220009E01235F3F4FAE01425E5F4FBE01665E6F
:103230007F4FCE0146960E946D3D20E030E040E891
:103240005FE3642D752D822D932D0E9480B287FF40
:1032500005C04AA25EA22AA63BA681CC0E9460308D
:103260000C94F52B0E94E1730C94F52B20E030E0D8
:1032700040E050E460910F12709110128091111291
:10328000909112120E940FB76B017C0188E50E9499
:103290001D32882321F00E94BB316B017C01CE8A54
:1032A000DF8AE88EF98E20E030E040EF51E4609153
:1032B00013127091141280911512909116120E949F
:1032C0000FB76B017C0189E50E941D32882321F034
:1032D0000E94BB316B017C01C982DA82EB82FC82E5
:1032E00040907D1150907E1160907F117090801100
:1032F0002091791130917A1140917B1150917C117C
:103300006E897F89888D998D0E940EB74B015C0173
:103310002BE33FED4FEF5FE30E946FB987FF02C0E1
:103320000C94F52B22E430E045E453E4C501B401EC
:103330000E9480B2181614F40C94F52BA30192018C
:10334000C701B6010E940EB76B017C0124EF3DEF6F
:103350004FEE51E40E946FB987FF02C00C94F52B29
:1033600022E430E045E453E4C701B6010E9480B294
:10337000181614F40C94F52B0C94062C0E9457721A
:103380000C94F52B81E00E94D9790E9457720E941B
:10339000E1730C94F52B81E0809372030C94F52B70
:1033A00085E40E941D32B82E811102C00E94A759E7
:1033B00047E6842E42E0942E5FE0C52E52E1D52EE2
:1033C00061E5E62E61E1F62E00E010E0A12CD401CB
:1033D0008D914D010E941D328823F1F1F60120816B
:1033E000318142815381EB962FAFEB97EC963FAF43
:1033F000EC97ED964FAFED97EE965FAFEE970E948C
:10340000BB31D6016D937D938D939C931397EB966F
:103410002FADEB97EC963FADEC97ED964FADED975A
:10342000EE965FADEE9703301105B1F00E940EB736
:103430009B01AC01F70160817181828193810E94BF
:103440000FB7D7016D937D938D939C931397C8010C
:103450000E94FD32AA24A3940F5F1F4FB4E0CB0E4D
:10346000D11CE4E0EE0EF11C0430110509F0AFCFE1
:10347000AA2019F00E941C313FC0BB20E9F1C09086
:103480001B12D0901C12E0901D12F0901E12209181
:10349000600A3091610A4091620A5091630AC70143
:1034A000B6010E94E6B20E947CB960935B127093F1
:1034B0005C1280935D1290935E12C0924B12D09278
:1034C0004C12E0924D12F0924E12C701B6010E94CA
:1034D0007BB82FB7F89460937B1070937C10809327
:1034E0007D1090937E102FBF10923B1210923C12D1
:1034F00010923D1210923E120E94E39C0C94F52B08
:1035000080911102882311F40C94F52B89E40E9418
:103510001D32182F882321F00E948731F62E01C01A
:10352000F12C8AE40E941D32082F882331F00E947A
:103530008731E62E111104C00BC0E12C1123C9F014
:10354000F2E0FF1510F00C94282FE0EEF2E005C039
:1035500032E0A32EAE14C8F30CC084918F010F5F2C
:103560001F4F882311F40C94F52B0E948332F8012D
:10357000F4CF0E945630112341F1209194113091E3
:1035800095114F2D4203B001439F700D112480917E
:10359000901190919111680F791F072E000C880BE4
:1035A000990B0E9487B22091791130917A11409144
:1035B0007B1150917C110E940FB760935D11709345
:1035C0005E1180935F1190936011002341F120916F
:1035D0009611309197115E2D5203B001539F700DDB
:1035E00011242091921130919311620F731F072EB5
:1035F000000C880B990B0E9487B220917D113091AD
:103600007E1140917F11509180110E940FB76093FD
:10361000611170936211809363119093641180E53E
:103620000E94EE318823A1F10E94AB31882381F101
:103630001123B1F020E030E040E050E460915D11F2
:1036400070915E1180915F11909160110E940EB790
:1036500060935D1170935E1180935F119093601180
:103660000023B1F020E030E040EF51E460916111BF
:103670007091621180916311909164110E940EB754
:103680006093611170936211809363119093641140
:1036900086E40E941D328823D9F00E94BB316B0161
:1036A0007C0120E030E0A9010E946FB9181684F473
:1036B00020E030E040E752E4C701B6010E9409B8BB
:1036C00060933502709336028093370290933802EC
:1036D0000E942C830C94F52B8091750990917609AA
:1036E000883C910509F4A1C60CF0B2C0883691055A
:1036F00009F44EC30CF05DC08B34910509F426C368
:103700005CF58231910509F499C4CCF497FF02C0AD
:103710000C94F52B823091050CF47DC1419711F08A
:103720000C94F52B5F988A989FB7F89480910801C4
:103730008E7F809308019FBF12980C94F52B8A32DC
:10374000910509F4BFC28033910509F4FBC24F977C
:1037500011F00C94F52BE4C18235910509F465C490
:103760007CF48D34910509F40FC30CF4F3C2813558
:10377000910511F00C94F52B0E94FB9D0C94F52BF8
:103780008435910509F45AC40CF453C48535910568
:1037900009F458C48C35910511F00C94F52BF7E61B
:1037A000CF2EF2E0DF2EA4E5EA2EAAE0FA2E10E0FA
:1037B00064C48237910509F4E0C4ECF48D369105B8
:1037C00009F404C464F48A36910509F418C40CF4AD
:1037D000DCC38B36910509F416C40C94F52B8F3697
:1037E000910509F417C30CF402C38137910509F45C
:1037F00082C30C94F52B8837910509F40FC674F435
:103800008637910509F44FC50CF084C583379105BF
:1038100011F00C94F52BE7E5F4E0B5C48C38910574
:1038200009F495C35CF48937910511F00C94F52BDC
:103830001092B810109298110C94F52B8B399105B9
:1038400009F4C0C38E3B910509F4C4C30C94F52B55
:103850008039A1E09A0711F40C9467290CF06FC02D
:103860008D3D910511F40C945124BCF58D3C9105CE
:1038700009F4CAC6ACF48B3C910509F43AC60CF0C5
:1038800057C6893C910511F00C94F52B64E4E62EA3
:103890006AE0F62E07E612E074E0D72ED00E0FC6CF
:1038A000833D910509F457C78C3D910511F40C94A3
:1038B00044248E3C910511F00C94F52B97E6A92E2B
:1038C00092E0B92E2FE0C22E22E1D22E3EEEE32E60
:1038D00030E1F32E00E010E004C78D32E1E09E07F6
:1038E00011F40C94BD249CF48E3021E0920711F465
:1038F0000C94D8258C3231E0930711F40C94942465
:10390000823E910511F00C94F52B0C946A248F32B1
:1039100041E0940711F40C945F2614F40C940B26E8
:103920008033A1E09A0711F40C945B258336914013
:1039300011F00C94F52B0E948F9A0C94F52B863F76
:10394000E1E09E0711F40C94362BACF5853A21E0AA
:10395000920711F40C94CA2984F4823941E0940747
:1039600011F40C946E2914F40C946A29843A914051
:1039700011F40C9472290C94F52B843FB1E09B0751
:1039800011F40C94302B14F00C94332B8C3A91409E
:1039900011F00C94F52B8EEEC82E80E1D82E9FE00E
:1039A000E92E92E1F92E2CE0222E22E1322E00E0C7
:1039B00010E00C945E2A8B3823E0920711F40C94EB
:1039C0004D2B9CF4833543E0940711F40C94472B62
:1039D000843853E0950711F40C944A2B873F9140AB
:1039E00011F00C94F52B0C94392B8D38B3E09B0718
:1039F00011F40C94532B14F40C94502B8E38F3E0E8
:103A00009F0711F40C94562B873E934011F40C94AD
:103A10005E2B0C94F52BE0907309F090740980E50F
:103A20000E941D32882359F00E9477314B015C01BE
:103A300011E0672B682B692B31F410E004C010E013
:103A4000812C912C540183E50E941D32882399F02A
:103A50000E94BB3120E030E04AE754E40E94E6B225
:103A60000E9482B84B015C0111110CC0672B682BBE
:103A7000692B41F43CC0111105C0E114F10411F0AF
:103A80000C945C2C83E090E090932B1180932A118E
:103A900081E080936C030E94A7590E942A3281140E
:103AA0009104A104B104A9F18091331190913411D2
:103AB000A0913511B091361175016401C80ED91E5F
:103AC000EA1EFB1E0E94FDA5DC01CB018C199D099D
:103AD000AE09BF09B7FD04C010926C030C94F52B1E
:103AE00080916C038823C1F30E94BD7BEBCFE1146E
:103AF000F10411F00C945C2C83E090E090932B1176
:103B000080932A1181E080936C030E94A7590E9440
:103B10002A3280916C038823F9F20E94BD7BF9CF91
:103B200080917F1290918012019719F40E94FDA557
:103B300008C06091891270918A1280918B129091C5
:103B40008C1200918512109186122091871230916B
:103B50008812601B710B820B930B28EE33E040E060
:103B600050E00E9474B68091811290918212A091CF
:103B70008312B0918412BC01CD01620F731F841FA8
:103B8000951F2CE3C22ED12CE12CF12CA70196011C
:103B90000E9474B6762E672ECA01B901A70196015C
:103BA0000E9474B66B017C01CA01B90128E130E0C2
:103BB00040E050E00E9474B64B015C01C9016DE623
:103BC00071E00E94D7B68E010F5F1F4F611571051E
:103BD00099F06F927F92DF92CF929F928F929F93F4
:103BE0008F937F936F9387E293E09F938F931F93BD
:103BF0000F930E9450B226C0009789F06F927F9277
:103C0000DF92CF929F928F929F938F9387E193E061
:103C10009F938F931F930F930E9450B213C08114F0
:103C20009104A104B104B1F06F927F92DF92CF9220
:103C30009F928F928BE093E09F938F931F930F93AC
:103C40000E9450B20FB6F894DEBF0FBECDBFE3E1C5
:103C5000F5E223C0C114D104E104F10469F06F92CC
:103C60007F92DF92CF9283E093E09F938F931F9395
:103C70000F930E9450B2E6CF6F927F928FEF92E047
:103C80009F938F931F930F930E9450B20F900F90AA
:103C90000F900F900F900F90DACF84917F01BFEFBC
:103CA000EB1AFB0A882321F00E948332F701F5CF3B
:103CB000B8018BE393E00E94D83A8AE00E948332F5
:103CC0000C94F52B83E50E941D32882311F40C948B
:103CD000F52B0E949731E82E80E50E941D32882343
:103CE00011F40C94F52B0E948731162FC62ED72E77
:103CF000D7FE02C00C94F52BE3E2F6E088E28E0FCB
:103D00009491191729F031968E13FACF0C947B2CCD
:103D1000E9E1F2E284918F010F5F1F4F882321F0C8
:103D20000E948332F801F6CFE8E4F3E084918F013A
:103D30000F5F1F4F882311F40C94F52B0E948332E0
:103D4000F801F4CF0E94B86C0C94F52B0E94D19E20
:103D50000C94F52B80917F1290918012019711F0B5
:103D60000C94F52B82E090E09093801280937F1268
:103D70000E94FDA56093891270938A1280938B1222
:103D800090938C120C94F52B0E941F9E0C94F52B93
:103D900088E690E00E940F3481110C94F52B8091FD
:103DA000851183FF02C00C94F52B83E50E941D3220
:103DB0008823C9F00E94BB310E947BB87093910A9E
:103DC0006093900A80E00E9439520E94BB3120E04B
:103DD00030E04AEA52E40E9480B2181614F00E94C1
:103DE0001F9E0E94BB310E94D73B0C94F52B8EE4A2
:103DF0000E941D32882311F40C94F52B0E94873108
:103E000060930F13709310138093111390931213F8
:103E10000C94F52B83E50E94EE31882359F083E55D
:103E20000E941D32882319F00E94973101C080E062
:103E300080938511E3E1F5E284918F010F5F1F4FBD
:103E4000882321F00E948332F801F6CFE7E6F3E001
:103E500084918F010F5F1F4F882321F00E948332CE
:103E6000F801F6CF809185118823A1F107E5C02ED6
:103E700003E0D02EE12CF12C20E08091851190E020
:103E80000E2C02C0959587950A94E2F780FF17C023
:103E9000BB24B394B20E222319F08CE20E94833229
:103EA000F60125913491F901849189010F5F1F4F2B
:103EB000882321F00E9483329801F5CF2B2DFFEF4C
:103EC000EF1AFF0A32E0C30ED11C46E0E416F104FB
:103ED000A1F60CC0E3E6F3E084918F010F5F1F4F62
:103EE000882321F00E948332F801F6CF8AE00E94F5
:103EF00083320C94F52B83E50E941D32882369F0F0
:103F00000E94973180932B028D3310F40C94F52B83
:103F10008CE380932B020C94F52BE3E1F5E2849182
:103F20008F010F5F1F4F882321F00E948332F80119
:103F3000F6CF40912B0250E060E070E08EE693E017
:103F40000E944C3A8AE00E9483320C94F52B8091B7
:103F5000851183FF02C00C94F52B83E50E941D326E
:103F6000882311F40C94F52B0E94BB310E947BB87E
:103F70006E37710514F06DE770E070938F0A6093EF
:103F80008E0A0E94EE510C94F52B89E690E00E9477
:103F90000F34811111C0E5E7F3E084918F010F5FC9
:103FA0001F4F882321F00E948332F801F6CF0E9430
:103FB000B56A8AE00E94833210922B1110922A1166
:103FC0000C94562F0E94876A0C94F52B0E94416B2B
:103FD0000C94F52B8091851183FF02C00C94F52B76
:103FE00083E50E941D328AA781110C94922C82E5F0
:103FF0000E941D3281110C94922C0C94F52B0E947E
:10400000666A0C94F52B80E50E941D32811106C072
:1040100010922F0A10922E0A0C94F52B0E948731D1
:10402000672B11F00C94F52BF3CF109271030C94C5
:10403000F52B81E0809371030C94F52B0E94A29DD7
:104040000C94F52B83E50E94EE31882311F40C9437
:10405000F52B0E94BB3120E030E04AE754E40E9497
:10406000E6B20E9482B86093371170933811809342
:10407000391190933A110C94F52BD6018D916D0165
:104080000E94EE31882309F46DC0133009F063C03B
:104090000E94BB314B015C0120E030E040EA51E47A
:1040A0000E9480B287FF4EC0A50194016091600A12
:1040B0007091610A8091620A9091630A0E9409B826
:1040C0002B013C019B01AC016091020A7091030A33
:1040D0008091040A9091050A0E94E6B26093020A58
:1040E0007093030A8093040A9093050AA301920136
:1040F00060911E0A70911F0A8091200A9091210AF6
:104100000E94E6B260931E0A70931F0A8093200AF1
:104110009093210A6091400A7091410A8091420A6D
:104120009091430A0E9485B2A30192010E94E6B2D7
:104130000E9482B86093400A7093410A8093420AB9
:104140009093430A8092600A9092610AA092620A58
:10415000B092630A07C00E94BB31F701608371838C
:10416000828393831F5FF4E0EF0EF11C143009F09B
:1041700084CF0E944D4C0C94F52B0E94A7590E94AD
:10418000E39C0C94F52B84918F010F5F1F4F8823C4
:1041900021F00E948332F801F6CFE9E4F4E0849143
:1041A0008F010F5F1F4F882321F00E948332F80197
:1041B000F6CFE2E3F4E084918F010F5F1F4F882375
:1041C00021F00E948332F801F6CFE2E2F4E084911C
:1041D0008F010F5F1F4F882321F00E948332F80167
:1041E000F6CFE1E1F4E084918F010F5F1F4F882348
:1041F00021F00E948332F801F6CFE0E0F4E08491F0
:104200008F010F5F1F4F882321F00E948332F80136
:10421000F6CFE1EFF3E084918F010F5F1F4F88230A
:1042200021F00E948332F801F6CFECEDF3E08491A7
:104230008F010F5F1F4F882321F00E948332F80106
:10424000F6CFE6ECF3E084918F010F5F1F4F8823D8
:1042500021F00E948332F801F6CFE1EBF3E0849184
:104260008F010F5F1F4F882321F00E948332F801D6
:10427000F6CFE4E9F3E084918F010F5F1F4F8823AD
:1042800021F00E948332F801F6CFECE7F3E084914D
:104290008F010F5F1F4F882311F40C94F52B0E94A0
:1042A0008332F801F4CF85E40E94EE31882381F057
:1042B0000E94AB31882361F0E3E1F5E284918F0144
:1042C0000F5F1F4F882321F00E948332F801F6CF41
:1042D00081E40E94EE31882381F00E94AB31882373
:1042E00061F0EBE2F5E084918F010F5F1F4F8823AF
:1042F00021F00E948332F801F6CF009173091091EA
:104300007409D8018D918D01882309F4EFCD0E94A5
:104310008332F7CFEFE4F5E084918F010F5F1F4FF9
:10432000882321F00E948332F801F6CFE7E4F5E01C
:1043300084918F010F5F1F4F882321F00E948332E9
:10434000F801F6CF659903C007EB12E002C00CEB51
:1043500012E0F80181918F01882319F00E948332C5
:10436000F8CF8AE00E948332EFE3F5E084918F0179
:104370000F5F1F4F882321F00E948332F801F6CF90
:104380008091030181FD03C007EB12E002C00CEB3A
:1043900012E0D8018D918D01882319F00E9483329B
:1043A000F8CF8AE00E948332E7E3F5E084918F0141
:1043B0000F5F1F4F882321F00E948332F801F6CF50
:1043C0004A9903C007EB12E002C00CEB12E0F801BF
:1043D00081918F01882319F00E948332F8CF8AE0FF
:1043E0000E948332EFE2F5E084918F010F5F1F4F4F
:1043F000882321F00E948332F801F6CF4B9903C045
:1044000007EB12E002C00CEB12E0D8018D918D0198
:10441000882309F46BCD0E948332F7CF81E080932B
:10442000B810809398110C94F52B88EC90E00E94C2
:104430000F3481110C94F52B84E40E94EE31882313
:10444000D1F10E94BB3111E020E030E0A9010E94CF
:1044500080B2811101C010E01093AF10112359F107
:1044600000916D0310E00E94BB31000F111F000F7F
:10447000111FF801E555FF4E60837183828393839A
:1044800020E030E0A9016091AB107091AC108091F8
:10449000AD109091AE100E9480B281110CC080E0EE
:1044A00090E0A0E4B0E48093AB109093AC10A093A4
:1044B000AD10B093AE100E94027F0C94F52BF80162
:1044C00081918F010E94EE31882351F00E94BB310F
:1044D0000E9482B8D7016D937D938D939C9313971F
:1044E000B4E0EB0EF11CD012EACF0E94073C0C9412
:1044F000F52B42E1E42E4AE0F42E07E612E054E008
:10450000D52ED00EF80181918F010E94EE318823C3
:1045100041F00E94BB31D7016D937D938D939C93A5
:104520001397B4E0EB0EF11CD012ECCF0C94F52BEA
:1045300083E50E94EE318823D9F00E94BB31AB01A4
:10454000BC0140930A0A50930B0A60930C0A7093C3
:104550000D0A4093060A5093070A6093080A709365
:10456000090A83EC95E00E94863A8AE00E94833231
:1045700080E50E94EE31882399F00E94BB31AB01A7
:10458000BC0140930A0A50930B0A60930C0A709383
:104590000D0A86EA95E00E94863A8AE00E948332FC
:1045A00082E50E94EE31882399F00E94BB31AB0175
:1045B000BC0140930E0A50930F0A6093100A709347
:1045C000110A87E895E00E94863A8AE00E948332C9
:1045D00084E50E94EE31882311F40C94F52B0E949F
:1045E000BB31AB01BC014093060A5093070A6093AC
:1045F000080A7093090A89E695E00E94863A8AE0E3
:104600000E9483320C94F52B83E50E94EE318823BF
:1046100051F00E94BB3160932A0A70932B0A809359
:104620002C0A90932D0A84E50E94EE31882351F0E4
:104630000E94BB316093260A7093270A8093280A50
:104640009093290A82E40E94EE31882351F00E945F
:1046500077316093220A7093230A8093240A9093FF
:10466000250A88E50E94EE31882351F00E94BB3173
:104670006093F6097093F7098093F8099093F9090C
:1046800089E50E94EE31882351F00E94BB3160938E
:10469000FA097093FB098093FC099093FD098AE560
:1046A0000E94EE31882351F00E94BB316093FE09D5
:1046B0007093FF098093000A9093010A85E40E9499
:1046C000EE31882311F40C94F52B0E94BB316093DA
:1046D000020A7093030A8093040A9093050A0C94CB
:1046E000F52BF50181915F010E94EE31882311F1D4
:1046F0000E94BB312B013C01D7012D913D914D9181
:104700005C910E940EB79B01AC01F6016081718142
:10471000828193810E940FB7D6016D937D938D9313
:104720009C931397F7014082518262827382C80181
:104730000E94FD320F5F1F4FF4E0CF0ED11C24E02A
:10474000E20EF11C0330110561F60E941C310E943B
:10475000E39C0C94F52BE3E1F5E284918F010F5F6C
:104760001F4F882321F00E948332F801F6CF83E5A2
:104770000E94EE31882321F00E94AB3180933402F5
:10478000E3E1F6E084918F010F5F1F4F882321F052
:104790000E948332F801F6CF80913402811103C068
:1047A000EFE0F6E002C0EBE0F6E084918F010F5FEE
:1047B0001F4F882321F00E948332F801F6CFE3E0F7
:1047C000F6E084918F010F5F1F4F882321F00E9434
:1047D0008332F801F6CF4091131350911413609176
:1047E00015137091161381E096E00E94863A40916D
:1047F0001713509118136091191370911A138EEFBB
:1048000095E00E94863A40911B1350911C136091D1
:104810001D1370911E138BEF95E00E94863AE3EF13
:10482000F5E084918F010F5F1F4F882321F00E94D4
:104830008332F801F6CF40913D0250913E026091E3
:104840003F027091400281EF95E00E94863A4091CC
:1048500041025091420260914302709144028EEEF7
:1048600095E00E94863A409145025091460260913F
:104870004702709148028BEE95E00E94863A8AE0EA
:104880000E9483320C94F52B83E50E941D3288230D
:1048900009F4ABC70E94873170932A026093290202
:1048A000A4C78DED90E00E940F3481119EC783E56F
:1048B0000E941D32882309F498C700916D0310E00F
:1048C0000E948731000F111FF801ED5FFD4F7183CA
:1048D00060838BC780E50E94EE31882309F485C789
:1048E0000E948731F62EC62ED72E83E50E941D32F8
:1048F000882321F00E9487318B0102C00FEF1FEF48
:10490000C8010196039708F070C7D7FC6EC7E3E2B1
:10491000F6E088E28E0F9491F91609F466C7319695
:104920008E13F9CF0C942F2F83E50E941D3288231C
:1049300019F00E94873102C064E071E07F8B6E8BBA
:1049400080E50E941D32882339F00E948731693842
:1049500033E1730730F402C068EE73E07A83698351
:1049600004C088E893E19A838983BE016A5E7F4F21
:10497000CE0101960E94CD8D38C785E40E941D327C
:10498000811110C080E50E94EE31882391F00E94D1
:10499000BB316093710A7093720A8093730A90938B
:1049A000740A07C00E949731882361F3E9E1F2E2BB
:1049B00071C089E40E94EE31882381F00E94BB31EE
:1049C0002CEA35EC47E25EE30E94E6B260936D0AA2
:1049D00070936E0A80936F0A9093700A84E40E9429
:1049E000EE31882381F00E94BB312CEA35EC47E29E
:1049F0005EE30E9409B86093750A7093760A80930B
:104A0000770A9093780AE3E1F5E284918F010F5FD2
:104A10001F4F882321F00E948332F801F6CF409186
:104A2000710A5091720A6091730A7091740A83E559
:104A300096E00E94863A2CEA35EC47E25EE360910C
:104A40006D0A70916E0A80916F0A9091700A0E94AF
:104A500009B8AB01BC018FE496E00E94693A2CEAE8
:104A600035EC47E25EE36091750A7091760A8091B9
:104A7000770A9091780A0E94E6B2AB01BC018BE400
:104A800096E00E94693A8AE00E948332AEC60E9494
:104A90008332F80184918F010F5F1F4F8111F7CF8F
:104AA00006ED12E0D8018D918D01882309F41ECA0C
:104AB0000E948332F7CF80E50E94EE31882351F0C7
:104AC0000E94BB316093810A7093820A8093830AAB
:104AD0009093840A89E40E94EE31882381F00E9439
:104AE000BB312CEA35EC47E25EE30E94E6B260930C
:104AF0007D0A70937E0A80937F0A9093800A84E4F3
:104B00000E94EE31882381F00E94BB312CEA35EC03
:104B100047E25EE30E9409B86093790A70937A0ACB
:104B200080937B0A90937C0AE3E1F5E284918F0104
:104B30000F5F1F4F882321F00E948332F801F6CFC8
:104B40004091810A5091820A6091830A7091840A8F
:104B50008FE596E00E94863A2CEA35EC47E25EE368
:104B600060917D0A70917E0A80917F0A9091800AFF
:104B70000E9409B8AB01BC018BE596E00E94693A3E
:104B80002CEA35EC47E25EE36091790A70917A0A8B
:104B900080917B0A90917C0A0E94E6B2AB01BC0135
:104BA00087E596E00E94693A8AE00E9483321DC63A
:104BB00080917B00886080937B0081E480937C00FF
:104BC00080917A00806480937A0080917A0086FDDB
:104BD000FCCF609178008091790070E0782B072EEF
:104BE000000C880B990B0E9487B222EC35EF48E24B
:104BF0005FE30E9409B82CEA35EC47E257E30E94D4
:104C00000FB7AB01BC0183E696E00E94693A8AE0E7
:104C10000E948332EAC583E50E94EE31182F882373
:104C200071F00E94BB310E947BB8709302026093C6
:104C3000010221E0672B09F020E02093ED0980E5D7
:104C40000E94EE31882359F0209101023091020236
:104C5000232B11F00E94AB318093ED09C6C51111D1
:104C6000C4C5E3E1F5E284918F010F5F1F4F8823F4
:104C700021F00E948332F801F6CF8091ED09811175
:104C800003C066EC72E002C069EB72E082E896E075
:104C90000E94D83A609101027091020281E796E089
:104CA0000E94A33AEDE6F6E084918F010F5F1F4F5B
:104CB000882309F49AC50E948332F801F5CF85E470
:104CC0000E941D32882321F00E9487311B0102C0FF
:104CD000212C312C83E40E941D32882339F00E945C
:104CE0008731E0967FAF6EAFE09706C0E5E0F0E079
:104CF000E096FFAFEEAFE09785E50E94EE31A39618
:104D00008FAFA397882329F00E94AB31A3968FAF72
:104D1000A39737FC07C0C12CD12CB6E1EB2EB3E42E
:104D2000FB2E06C0C12CD12CACE8EA2EA2E4FA2E50
:104D300083E50E941D32882321F00E94BB316B0164
:104D40007C012114310411F410926D030E94FDA521
:104D50002B013C01DC01CB018C53964FAF4FBF4F71
:104D60008093850A9093860AA093870AB093880A55
:104D7000C1010196029718F407EE12E00BC00AEF8A
:104D800012E0D8018D918D01882309F4AFC80E94EB
:104D90008332F7CFF80181918F01882319F00E94A7
:104DA0008332F8CF8AE00E9483320E9484528FE7D8
:104DB000FFEF2F163F0619F48093940A02C08093E8
:104DC000950AC701B6010E947BB8072E000C880B1C
:104DD000990B0E9487B269AF7AAF8BAF9CAF81E02D
:104DE00080930002AE964CAE5DAE6EAE7FAEAE97D7
:104DF000A2964CAE5DAE6EAE7FAEA2971DAE20E425
:104E00002EAF3CE123963FAF239746E427964FAF62
:104E100027972B961FAE2B972F961FAE2F97639633
:104E20001FAE639767961FAE67971DAA1EAA1FAA9B
:104E300018AE19AA1AAA1BAA1CAAC12CD12C760139
:104E4000FFE78F2E912CA12CB12C8FE790E0A0E0F2
:104E5000B0E08BA79CA7ADA7BEA76E961CAE1DAEFB
:104E60001EAE1FAE6E9791E0A7969FAFA79718AAA8
:104E70001FA61EA21AA600E010E08091000288235F
:104E800009F41EC20E94FDA56AA37BA38CA39DA367
:104E90008091920A882309F4F4C00E944556AFEF2E
:104EA0002A163A0659F4B091890ABEA3E0918A0AFB
:104EB000EAA700918B0A10918C0A0AC0F091970A18
:104EC000FEA32091980A2AA70091990A10919A0AA4
:104ED0002EA13AA5A8012B966FAD2B972F967FADEB
:104EE0002F9763968FAD639767969FAD67970E94E4
:104EF00080B287FF0EC03EA12B963FAF2B974AA5ED
:104F00002F964FAF2F9763960FAF639767961FAF9C
:104F100067972EA13AA5A8016DAD7EAD23968FAD02
:104F2000239727969FAD27970E946FB9181654F4C0
:104F30005EA15DAF8AA58EAF23960FAF239727960C
:104F40001FAF27978091850A9091860AA091870AC2
:104F5000B091880A2AA13BA14CA15DA1281B390B65
:104F60004A0B5B0B57FD12C00E94E3578AA19BA11D
:104F7000ACA1BDA18C53964FAF4FBF4F8093850A14
:104F80009093860AA093870AB093880AA7963FADAC
:104F9000A79729AD332309F454C03AAD4BAD5CADAE
:104FA0006EA17AA5C8010E946FB918160CF069C0ED
:104FB0004AA15BA16CA17DA1441955096609770935
:104FC000DB01CA0188589341A109B109B7FD59C055
:104FD0008BA59CA5ADA5BEA588199909AA09BB09F1
:104FE000B595A79597958795EFEF2E163E0619F480
:104FF0008093940A02C08093950A6E964CAF5DAF81
:105000006EAF7FAF6E97F9AD2B96FFAF2B972AADA2
:105010002F962FAF2F973BAD63963FAF63974CAD65
:1050200067964FAF67978AA19BA1ACA1BDA1AE9631
:105030008CAF9DAFAEAFBFAFAE97A7961FAEA79791
:1050400020C03AAD4BAD5CAD6EA17AA5C8010E94FF
:1050500080B287FF16C08AA19BA1ACA1BDA1AE966C
:105060002CAD3DAD4EAD5FADAE97821B930BA40B47
:10507000B50BAC01BD01485853416109710977FF77
:1050800088C520E030E040EA51E469AD7AAD8BADEF
:105090009CAD0E940FB79B01AC016EA17AA5C8011F
:1050A0000E946FB918166CF4E2E5F7E084918F0165
:1050B0000F5F1F4F882309F498C30E948332F801C1
:1050C000F5CF80E398EFAFEFBFEFA2962CAD3DADEB
:1050D0004EAD5FADA297821B930BA40BB50B2AA11B
:1050E0003BA14CA15DA1820F931FA41FB51FB7FD6B
:1050F0000FC00E94B56A8AE00E9483328AA19BA1F8
:10510000ACA1BDA1A2968CAF9DAFAEAFBFAFA29731
:105110008AA19BA1ACA1BDA1880F991FAA1FBB1F8B
:10512000AE962CAD3DAD4EAD5FADAE97821B930BF1
:10513000A40BB50B84199509A609B70981389F44BA
:10514000A241B10568F0E4E3F7E084918F010F5FBD
:105150001F4F882309F449C30E948332F801F5CF19
:105160004FA558A9E0968EAD9FADE097841795079F
:105170000CF083CEE7EDF6E084918F010F5F1F4FB7
:10518000882321F00E948332F801F6CF9FEF291681
:10519000390619F008E313E002C00AEC12E0B80186
:1051A00085EC96E00E94D83AB701A60181EC96E022
:1051B0000E94863A8AE00E948332B8018FEA96E024
:1051C0000E94D83A49A95AA96BA97CA98BEA96E012
:1051D0000E94863A8AE00E948332B80189E996E00B
:1051E0000E94D83A4DA95EA96FA978AD85E996E0ED
:1051F0000E94863A8AE00E948332A396AFACA397BE
:10520000AA2009F4F2C22320209469F5C092810AF1
:10521000D092820AE092830AF092840A2CEA35EC5A
:1052200047E25EE369A97AA98BA99CA90E94E6B22C
:1052300060937D0A70937E0A80937F0A9093800A20
:105240002CEA35EC47E25EE36DA97EA98FA998AD03
:105250000E9409B86093790A70937A0A80937B0A56
:1052600090937C0AC2C2C092710AD092720AE092F4
:10527000730AF092740A2CEA35EC47E25EE369A9FE
:105280007AA98BA99CA90E94E6B260936D0A7093DB
:105290006E0A80936F0A9093700A2CEA35EC47E20D
:1052A0005EE36DA97EA98FA998AD0E9409B86093AD
:1052B000750A7093760A8093770A9093780A95C25C
:1052C00080910002811191C20E9484528EC20E947C
:1052D000A7598BC281E00E94B23887C280E00E9449
:1052E000B23883C286E50E94EE31882341F0809176
:1052F000941190919511892B11F00E94F5AC83E5E2
:105300000E94EE31182F882319F00E94AB31182F1C
:1053100083E50E94EE31882319F0812F0E94083026
:10532000F090EC09111103C0E3E1F5E21AC0F110AD
:10533000FBCFE9E1F2E284918F010F5F1F4F8823D9
:1053400021F00E948332F801F6CFE4EDF7E084917A
:105350008F010F5F1F4F882339F30E948332F801BA
:10536000F6CF84918F010F5F1F4F882321F00E9499
:105370008332F801F6CFF11003C062ED72E002C093
:105380006EEC72E086EC97E00E94D83A8AE00E94C8
:1053900083322BC289E40E941D32882321F00E94AF
:1053A0008731062F01C00FEF8AE40E941D32882347
:1053B00021F00E948731162F01C01FEF8AE50E945D
:1053C000EE31F82E811105C081E50E94EE31D82E14
:1053D00001C0D12C07FD02C017FF03C0E9E1F2E2D2
:1053E00005C0F1101AC0D11018C0F8CF84918F01F8
:1053F0000F5F1F4F882321F00E948332F801F6CF00
:10540000E2E1F8E084918F010F5F1F4F882309F4D8
:10541000ECC10E948332F801F5CF033018F0E9E1C6
:10542000F2E206C01330D8F716C00E948332F801AA
:1054300084918F010F5F1F4F8111F7CFE3EFF7E0EA
:1054400084918F010F5F1F4F882309F4CEC10E9402
:105450008332F801F5CFE02E000FFF08012F110F66
:10546000110B0E94BB31D701AA0FBB1FDD2081F0B9
:10547000FD01EE0DFF1DE00FF11FEE0FFF1FEE0F00
:10548000FF1FEC51FE4E208131814281538103C0C8
:1054900020E030E0A901EA0EFB1E0E0D1F1D000FDB
:1054A000111F000F111F0C511E4E0E940FB7D80183
:1054B0006D937D938D939C93139797C1F101EC505D
:1054C000F241FBA3EAA3D1018D911D01882309F4C8
:1054D0009AC0F7014080518062807380F801E35CDC
:1054E000FD4F2081318142815381F801ED5EFC4EF8
:1054F00060817181828193810E940FB720E030E04A
:1055000040E05FE30E94E6B29B01AC01C301B2013F
:105510000E946FB9181644F4F801EE5FF04E8590C2
:105520009590A590B49003C0812C912C5401F80162
:10553000E758FE4E2081318142815381C301B2017F
:105540000E940EB79B01AC01C501B4010E940EB7C9
:105550004B015C0120E030E040EA51EC0E946FB961
:1055600087FD29C020E030E040EA51E4C501B401E4
:105570000E9480B21816FCF0D6012D913D914D91FC
:105580005C91C501B4010E940EB79B01AC01C3013F
:10559000B2010E940FB7F701608371838283938306
:1055A000D6018D929D92AD92BC9213978AA19BA138
:1055B0000E94FD3228C0E9E1F2E284918F010F5F81
:1055C0001F4F882321F00E948332F801F6CFE2E3D7
:1055D000F8E084918F010F5F1F4F882321F00E9414
:1055E0008332F801F6CF88E290E09A83898388ECD1
:1055F00090E09F8B8E8BBE016F5F7F4FCE014696F2
:105600000E94CD8DF2C0B4E0CB0ED11C0C5F1F4FB9
:10561000E4E0EE0EF11C0C30110509F04FCF0E94B2
:105620001C310E94E39C83E992E09F8B8E8B04E601
:1056300010E01A830983BE016A5E7F4FCE01019696
:105640000E94CD8D8AEB92E09F8B8E8B1A8309830B
:10565000BE016A5E7F4FCE0101960E94CD8DC5C00E
:105660000E949984C2C00E94D590BFC00E94998FA9
:10567000BCC083E50E94EE31882319F00E94AB3153
:1056800001C081E091E089270E941E66AEC00E94A1
:10569000769CABC00E943D9BA8C00E94069BA5C003
:1056A0000E94CD9AA2C00E9457589FC08091EA10D4
:1056B000882309F49AC00E94F26597C081E0809324
:1056C000110283E50E94EE31811103C00E94ADA555
:1056D0008CC00E94AB31811188C0F8CF60917509F0
:1056E00070917609F62E8091851185FF11C077277C
:1056F0008CEA98E00E94A33A89E20E9483328AE011
:105700000E9483326DE878E088E998E00E94389E34
:10571000FF2019F1E3E1F5E284918F010F5F1F4F44
:10572000882321F00E948332F801F6CF84E50E949D
:1057300083326F2D70E080E090E04AE00E94A73352
:1057400080E20E94833206ED12E0D8018D918D0136
:105750008823C1F00E948332F8CF10922911E3E12F
:10576000F5E284918F010F5F1F4F882321F00E9483
:105770008332F801F6CF6091291170E080E598E05E
:105780000E94A33A8AE00E9483328091851185FFAE
:105790002CC06FE678E089E798E00E94389EE2E648
:1057A000F8E084918F010F5F1F4F8823F1F00E9472
:1057B0008332F801F6CFE3E1F5E284918F010F5FC8
:1057C0001F4F882321F00E948332F801F6CF6091A9
:1057D00031117091321189EB98E00E94D83A82E23F
:1057E0000E9483328AE00E94833210922B11109221
:1057F0002A110E948EA55AC34115510519F4AF0113
:1058000041505109812C912C0C94C71380E00E94C7
:1058100008300E94593283E50E94EE31882309F452
:1058200049C00E94AB3121E0482FBE016F5F7F4F1E
:10583000CE0146960E943C8B6B017C019B01AC0122
:105840000E9401BA811131C02CEA35EC47E257E3DE
:105850006E897F89888D998D0E940FB7AB01BC013D
:1058600088ED92E00E94693A2CEA35EC47E257E372
:1058700069817A818B819C810E940FB7AB01BC0149
:1058800083ED92E00E94693A2CEA35EC47E257E357
:10589000C701B6010E940FB7AB01BC018EEC92E0CC
:1058A0000E94693A8AE00E9483320E9435320E9447
:1058B000E39C9BCF81E0B7CFD7018C91882311F473
:1058C0000C94421DE3E1F5E284918F010F5F1F4FBD
:1058D000882321F00E948332F801F6CFF7018191ED
:1058E0007F01882319F00E948332F8CF8AE00E945A
:1058F00083320C94421D61E0812F0E945A8E6E2DDE
:10590000812F0E942A8EF12CB701812F0E94968E42
:10591000B7E0CB16D10409F068CFF0922F0AE092DD
:105920002E0A63CF0E94BB310E947BB86E3771058F
:1059300014F06DE770E070938F0A60938E0A0E94F6
:10594000EE510E94BB3120E030E040EA50E40E947A
:105950006FB9181614F40E94D19E81E08093000262
:105960008091291180936D031EA21FA218A619A66B
:105970001BA61CA61DA61EA61AA21FA65CE359AB59
:105980008CE18DAB96E499AFC12CD12CB0E8EB2E15
:105990001FEBF12E812C912C540160918E0A709195
:1059A0008F0A072E000C880B990B0E9487B2162FC6
:1059B000072F782E692E262F372F482F592FB60103
:1059C000C7010E9480B28823D1F02091890A3091CA
:1059D0008A0A40918B0A50918C0A612F702F872D73
:1059E000962D0E9480B2881F8827881F8AA3CAA488
:1059F000CC2049F0882339F080910002F6CE1C2D8E
:105A00000D2D7E2C6F2C0E94FDA56B017C01DC010D
:105A1000CB012BA53CA54DA55EA5821B930BA40B2A
:105A2000B50BB7FD3BC0D701C60188519C4FAF4FA6
:105A3000BF4F8BA79CA7ADA7BEA70E94B56AE8E79A
:105A4000F3E084912F019FEF491A590A882321F02E
:105A50000E948332F201F5CF81149104A104B104B4
:105A6000B9F0D501C401805F984DAF4FBF4FBC0165
:105A7000CD016C197D098E099F0928EE33E040E0C5
:105A800050E00E9474B6CA01B9010E94513403C0AB
:105A90008FE30E9483328AE00E9483320E94BD7BA2
:105AA0000E942A322090890A30908A0A40908B0AFC
:105AB00050908C0A9101A201612F702F872D962D95
:105AC0000E940EB79F7781149104A104B10449F498
:105AD00020E030E040E85FE30E9480B287FF0BC027
