:100000000C947F0F0C94B00F0C94B00F0C94B00FA5
:100010000C94B00F0C94B00F0C94B00F0C94B00F64
:100020000C94B00F0C94B00F0C94B00F0C94B00F54
:100030000C94B00F0C94B00F0C94B00F0C94B00F44
:100040000C94B00F0C9496560C94B00F0C94B00F07
:100050000C94B00F0C94B00F0C94F2400C949B9243
:100060000C94B00F0C94D0380C94A5390C94B00FAC
:100070000C94B00F0C94B00F0C94B00F0C94B00F04
:100080000C94B00F0C94B00F0C94B00F0C94B00FF4
:100090000C94B00F0C94B00F0C94B00F0C94353D31
:1000A0000C94B00F0C94B00F0C94B00F0C94B00FD4
:1000B0000C94B00F0C94B00F0C94B00F0C94B00FC4
:1000C0000C94B00F0C94B00F0C94B00F0C94B00FB4
:1000D0000C94B00F0C94B00F0C94B00F0C94B00FA4
:1000E0000C94B00F03390A391E392B393539503980
:1000F0003A3950393F39443950394C396390669018
:10010000559059905F909D906A906E907490789001
:100110007C90829086908A909D90909094909890F8
:10012000B591BA91BF91C991D3914C92DD91E5916E
:10013000ED91F79101920B921A9224924C922E9289
:1001400038924292084AD73B3BCE016E84BCBFFD39
:10015000C12F3D6C74319ABD56833DDA3D00C77F97
:1001600011BED9E4BB4C3E916BAAAABE0000008030
:100170003F05A84CCDB2D44EB93836A9020C50B9BF
:10018000918688083CA6AAAA2ABE000000803F00EB
:100190000C945F900C94F7910C9442920C94019201
:1001A0000C941A920C944C920C949D900C94639025
:1001B0000C9486900C94B5910C943F390C942E922B
:1001C0000C9498900C941E390C940A390C94D39189
:1001D0000C947C900C9494900C944C390C94663A4A
:1001E0000C9474900C9403390C9466900C9438928F
:1001F0000C9455900C940B920C9424920C943A39D4
:100200000C94C69F0C9490900C94363A0C940B3A34
:100210000C9444390C946A900C9478900C942B397B
:100220000C94BF910C946C2C0C948A900C941A3AF8
:100230000C94BA910C940A3A0C94E5910C942E3AD1
:100240000C9459900C94C9910C94DD910C946E907F
:100250000C94963A0C9450390C9482900C94353945
:100260000C94ED914E414E494E495459494E46CD5C
:10027000CCCC3D0AD7233C17B7D13877CC2B32955D
:1002800095E6241FB14F0A000020410000C842003B
:10029000401C4620BCBE4CCA1B0E5AAEC59D7420E5
:1002A0005A3A200020593A200042656420583A20EA
:1002B000004D65736820706F696E742063616E6EA7
:1002C0006F74206265207265736F6C7665640A00D6
:1002D0002569730025696D202569730025696820EB
:1002E00025696D20256973002569642025696820CA
:1002F00025696D20256973002569792025696420A9
:100300002569682025696D20256973005072696E22
:10031000742074696D653A200050726F746563745F
:1003200065642050696E0A0020573A004361703AB4
:10033000454D455247454E43595F504152534552F2
:100340003A310A004361703A434153455F4C494793
:1003500048545F4252494748544E4553533A310A34
:10036000004361703A544F47474C455F4C494748FA
:1003700054533A310A004361703A534F465457413F
:1003800052455F504F5745523A300A004361703A28
:100390004C4556454C494E475F444154413A310A19
:1003A000004361703A5A5F50524F42453A310A0059
:1003B0004361703A4155544F4C4556454C3A310AC9
:1003C000004361703A5052494E545F4A4F423A31AD
:1003D0000A004361703A50524F47524553533A30E6
:1003E0000A004361703A4155544F5245504F5254A0
:1003F0005F54454D503A310A004361703A454550CB
:10040000524F4D3A310A004649524D574152455FCD
:100410004E414D453A4D61726C696E204D61726C72
:10042000696E5F312E312E365F526F626F56657284
:1004300073696F6E5F312E322E3420526F626F20DF
:10044000523220534F555243455F434F44455F5509
:10045000524C3A68747470733A2F2F6769746875D8
:10046000622E636F6D2F526F626F33442F4D617236
:100470006C696E2050524F544F434F4C5F5645525B
:1004800053494F4E3A312E30204D414348494E4555
:100490005F545950453A20526F626F2052322045C6
:1004A000585452554445525F434F554E543A3120AB
:1004B000555549443A63656465326132662D34317D
:1004C00061322D343734382D396231322D63353570
:1004D0006336326633363766660A002F2F20007A7D
:1004E0005F6D61783A20007A5F6D696E3A2000791D
:1004F0005F6D61783A2000785F6D696E3A20005236
:1005000065706F7274696E6720656E6473746F7066
:10051000207374617475730A0053657474696E672F
:100520002054726176656C20416363656C6572610D
:1005300074696F6E3A200053657474696E67205257
:1005400065747261637420416363656C6572617484
:10055000696F6E3A200053657474696E672050723B
:10056000696E7420416363656C65726174696F6E56
:100570003A200053657474696E67205072696E7416
:1005800020616E642054726176656C2041636365FE
:100590006C65726174696F6E3A2000205A002059B0
:1005A00000580020204D61783A2000205A00205940
:1005B00000580020204D696E3A20004F6E20004FF9
:1005C000666600536F667420656E6473746F707333
:1005D0003A2000000136372603FF3C3D38FF0E2E3F
:1005E000303E1312FFFF080706FF061A1C18FFFF14
:1005F00008440A0B43FFFFFFFFFFFF20643A00207F
:10060000693A0020703A0020643A0020693A0020DC
:10061000703A0043757272656E743A200043290A7D
:100620000061626C656420286D696E2074656D7070
:100630002000436F6C642065787472756465732064
:1006400061726520004B64200023646566696E65F5
:10065000202044454641554C545F004B69200023FF
:10066000646566696E65202044454641554C545F7B
:10067000004B70200023646566696E652020444548
:100680004641554C545F00504944204175746F7485
:10069000756E652066696E697368656421205075A2
:1006A0007420746865206C617374204B702C204B2F
:1006B0006920616E64204B6420636F6E7374616E99
:1006C00074732066726F6D2062656C6F7720696E3F
:1006D000746F20436F6E66696775726174696F6EBF
:1006E0002E680A00504944204175746F74756E6518
:1006F000206661696C6564212074696D656F75742D
:100700000A00504944204175746F74756E65206607
:1007100061696C6564212054656D706572617475E2
:10072000726520746F6F20686967680A00204B64E7
:100730003A2000204B693A2000204B703A20000AF2
:1007400020436C617373696320504944200A002080
:1007500054753A2000204B753A2000206D61783A9C
:100760002000206D696E3A200020643A200020624B
:100770006961733A2000426564204C6576656C6956
:100780006E6720004661696C656420746F20656E39
:1007900061626C6520426564204C6576656C696EAB
:1007A000670A004D65736820706F696E742063611D
:1007B0006E6E6F74206265207265736F6C7665640F
:1007C0000A004D34323120696E636F727265637452
:1007D00020706172616D6574657220757361676503
:1007E0000A00546F6F206661722066726F6D20720E
:1007F00065666572656E636520706F696E740A0068
:100800003A20007A5F6D696E3A20202D3230207ACE
:100810005F6D61783A20203230005A204F6666734F
:10082000657420002028002920453A00202800294E
:10083000205A3A002028002920593A002028002078
:10084000583A0053746570706572206375727265F2
:100850006E742076616C75657320696E2025202882
:10086000416D7073293A0A0043617365206C6967B2
:1008700068743A2000416374697665204578747223
:10088000756465723A2000556E6B6E6F776E2063EB
:100890006F6D6D616E643A2022004B494C4C4544AB
:1008A0002E2000656E7175657565696E6720220082
:1008B0004E6F204C696E65204E756D6265722077B3
:1008C00069746820636865636B73756D2C204C6177
:1008D0007374204C696E653A20005072696E7465BD
:1008E000722073746F707065642064756520746F16
:1008F000206572726F72732E204669782074686565
:10090000206572726F7220616E6420757365204D70
:1009100039393920746F20726573746172742E20B6
:100920002854656D706572617475726520697320F5
:1009300072657365742E2053657420697420616636
:100940007465722072657374617274696E67290AC6
:10095000004E6F20436865636B73756D2077697413
:1009600068206C696E65206E756D6265722C204C16
:10097000617374204C696E653A2000636865636B2F
:1009800073756D206D69736D617463682C204C61A3
:100990007374204C696E653A20004C696E65204E78
:1009A000756D626572206973206E6F74204C61737F
:1009B00074204C696E65204E756D6265722B312C0A
:1009C000204C617374204C696E653A20004D3131C2
:1009D0003000776169740A0020496E76616C696441
:1009E0002065787472756465722000000000000054
:1009F00000000000000000000045430000454300E7
:100A000000824342696C696E656172204C6576654F
:100A10006C696E6720477269643A0A0047322F4753
:100A2000332062616420706172616D6574657273F8
:100A30000A0047322F47332062616420706172617F
:100A40006D65746572730A0070012C0190012701B5
:100A5000B0012201C0011D01F001180110021301B3
:100A600030020E016002090190020401C002FF0081
:100A70000003FA004003F5008003F000D003EB0010
:100A80002004E6007004E100E004DC004005D7002B
:100A9000C005D2004006CD00D006C8008007C300C4
:100AA0003008BE00F008B900C009B400B00AAF00B9
:100AB000B00BAA00D00CA500000EA000500F9B00A8
:100AC000C01096005012910000148C00C0158700D1
:100AD000B0178200B0197D00D01B7800001E730093
:100AE00040206E0090226900F024640040275F00DF
:100AF00090295A00E02B5500102E500020304B005A
:100B000010324600E033410090353C00103737008A
:100B100070383200A0392D00B03A2800A03B2300E5
:100B2000603C1E00103D1900903D1400103E0F0067
:100B3000703E0A00C03E0500003F0000403FFBFF42
:100B4000803FF6FFC03FF1FF0B0BFFFFFF000002ED
:100B500002026265640A002C2073797374656D204B
:100B600073746F7070656421204865617465725F8D
:100B700049443A200048656174696E67206661697E
:100B80006C65640048656174696E67206661696CB4
:100B900065640048656174696E67206661696C65AB
:100BA000640048656174696E67206661696C65649C
:100BB000003002B400300D8C00900E87005010827F
:100BC0000020127D0080147800A016730060196E5A
:100BD00000E01B6900001F6400B0215F0090245AF0
:100BE0000050275500302A5000E02C4B00602F4663
:100BF000009031410060333C0090343700B0363211
:100C00000030382D00E0392800203B2300203C1E16
:100C100000103D1900B03D1400303E0F00903E0A18
:100C200000203F0000F03FD8FF4572723A204D4946
:100C30004E54454D5020424544004572723A204D75
:100C4000494E54454D50004D494E54454D50207429
:100C50007269676765726564004572723A204D413A
:100C60005854454D5020424544004572723A204D3B
:100C7000415854454D50004D415854454D502074F5
:100C800072696767657265640020746F6F206C6FAE
:100C90006E6720657874727573696F6E2070726507
:100CA00076656E7465640A0020636F6C64206578F5
:100CB00074727573696F6E2070726576656E746597
:100CC000640A004B494C4C45442E2000202D2049FD
:100CD0006E76616C696420657874727564657220E3
:100CE0006E756D62657220210A002020506C616E65
:100CF0006E657242756666657242797465733A20F4
:100D0000002046726565204D656D6F72793A20004E
:100D1000436F6D70696C65643A20417567203139A5
:100D200020323031380A00207C20417574686F729F
:100D30003A20526F626F0A00313420464542203219
:100D400030313800204C61737420557064617465D3
:100D5000643A20004D61726C696E5F312E312E361F
:100D60005F526F626F56657273696F6E5F312E32BC
:100D70002E340A004D61726C696E0020536F6674E8
:100D8000776172652052657365740A00205761743B
:100D90006368646F672052657365740A002042724D
:100DA0006F776E206F75742052657365740A00202A
:100DB00045787465726E616C2052657365740A00C3
:100DC000506F77657255700A0073746172740A000F
:100DD000205A3A0020593A0020583A00656E647350
:100DE000746F7073206869743A200024F4D4305012
:100DF000C38E20C2A24017828B7011127A910D818E
:100E00006CD90AA861E108C7586607615143061EFC
:100E10004B5D05C145A7041A411104093D980371B2
:100E20003931034036DB0265339102D430540280FD
:100E30002E1D02632CEE01752AC501B028A00110F9
:100E40002781018F2564012B244B01E0223401AC62
:100E5000211F018D200D01801FFC00841EED0097D5
:100E60001DDF00B81CD200E61BC600201BBC0064BE
:100E70001AB200B219A8000A19A0006A189900D184
:100E800017910040178B00B516840031167E00B311
:100E90001579003A157300C7146F0058146A00EEF4
:100EA0001366008813630025135E00C7125B006C95
:100EB00012570015125400C111510070114F00213A
:100EC000114B00D61049008D104700461044000217
:100ED000104200C00F4000800F3E00420F3C000651
:100EE0000F3B00CB0E3800930E37005C0E35002709
:100EF0000E3400F30D3200C10D3100900D30006052
:100F00000D2E00320D2D00050D2C00D90C2B00AE3E
:100F10000C2900850C29005C0C2700350C27000EDD
:100F20000C2600E80B2400C40B2400A00B23007D3A
:100F30000B23005A0B2100390B2100180B2000F85D
:100F40000A1F00D90A1E00BB0A1E009D0A1D008050
:100F50000A1D00630A1C00470A1B002C0A1B001113
:100F60000A1A00F7091A00DD091900C4091900ABB3
:100F7000091900920917007B091800630917004C32
:100F800009160036091600200916000A091500F591
:100F9000081500E0081400CC081400B8081400A4D8
:100FA000081400900813007D0812006B0813005805
:100FB000081200460812003408110023081100121C
:100FC00008110001081100F0071000E0071000D020
:100FD000071000C0071000B0070F00A10710009114
:100FE000070E0083070F0074070F0065070E0057F8
:100FF000070E0049070E003B070D002E070E0020CC
:10100000070D0013070D0006070D00F9060C00ED93
:10101000060D00E0060C00D4060C00C8060C00BC4F
:10102000060C00B0060C00A4060B0099060C008DFF
:10103000060B0082060B0077060B006C060B0061A6
:10104000060A0057060B004C060A0042060A003842
:10105000060A002E060A0024060A001A060A0010D4
:1010600006090007060A00FD050900F4050900EB62
:10107000050900E2050900D9050900D0050900C7E6
:10108000050900BE050900B5050800AD050800A565
:101090000509009C050800940508008C05080084DB
:1010A0000508007C050800740508006C050700654C
:1010B0000508005D050700560508004E05070047B6
:1010C0000507004005080038050700310507002A1C
:1010D000050700230507001C050600160507000F7D
:1010E0000507000805060002050700FB040600F5D9
:1010F000040700EE040600E8040600E2040700DB33
:10110000040600D5040600CF040600C9040600C387
:10111000040600BD040600B7040600B1040500ACD7
:10112000040600A6040600A00405009B0406009522
:10113000040500900406008A04050085040500806B
:101140000406007A04050075040500700405006BB0
:1011500004050066040500610405005C04050057F1
:10116000040500520405004D040500480405004331
:101170000405003E0404003A04050035040500306F
:101180000404002C04050027040400230405001EA9
:101190000404001A04040016040500110404000DE0
:1011A000040400090405000404040000040400FC15
:1011B000030400F8030400F4030400F0030400EC4B
:1011C000030400E8030400E4030400E0030400DC7B
:1011D000030400D8030400D4030400D0030400CCAB
:1011E000030400C8030300C503030024F404D9204A
:1011F0001BC40C5C0E9804C4095F0265077101F4FE
:1012000005F900FB04B30048048700C103690058D6
:1012100003550003034500BE023A00840231005327
:10122000022A002902250004022000E4011C00C853
:10123000011900AF01170098011400840113007117
:101240000110006101100051010E0043010D003634
:10125000010B002B010B0020010B00150109000CF4
:1012600001090003010800FB000800F3000800EB7F
:10127000000700E4000600DE000600D8000600D2E9
:10128000000600CC000500C7000500C2000500BD37
:10129000000400B9000400B5000400B1000400AD72
:1012A000000400A9000400A5000300A20003009FA1
:1012B0000004009B000300980003009500020093C7
:1012C000000300900003008D0002008B00030088E3
:1012D0000002008600020084000300810002007FFB
:1012E0000002007D0002007B00020079000200770E
:1012F000000100760002007400020072000100711B
:101300000002006F0002006D0001006C0002006A24
:10131000000100690002006700010066000100652D
:101320000001006400020062000100610001006031
:101330000001005F0002005D0001005C0001005B35
:101340000001005A00010059000100580001005737
:101350000001005600010055000100540001005337
:101360000000005300010052000100510001005034
:101370000001004F0001004E0000004E0001004D32
:101380000001004C0001004B0000004B0001004A2E
:10139000000100490001004800000048000100472A
:1013A0000001004600000046000100450000004525
:1013B000000100440001004300000043000100421E
:1013C0000000004200010041000000410001004017
:1013D0000001003F0000003F0001003E0000003E11
:1013E0000001003D0000003D0001003C0000003C09
:1013F0000000003C0001003B0000003B0001003AFF
:101400000000003A000100390000003900010038F6
:1014100000000038000000380001003700000037ED
:1014200000010036000000360000003600010035E3
:1014300000000035000000350001003400000034D9
:1014400000000034000100330000003300000033CE
:1014500000010032000000320000003200010031C3
:1014600000000031000000310001003000000030B9
:10147000000000300001002F0000002F0000002FAE
:101480000000002F0001002E0000002E0000002EA2
:101490000001002D0000002D0000002D0000002D97
:1014A0000001002C0000002C0000002C0000002C8B
:1014B0000001002B0000002B0000002B0000002B7F
:1014C0000001002A0000002A0000002A0000002A73
:1014D0000001002900000029000000290000002967
:1014E000000000290001002800000028000000285A
:1014F000000000280000002800010027000000274D
:10150000000000270000002700000027000100263F
:101510000000002600000026000000260000002633
:101520000001002500000025000000250000002526
:101530000000002500000025000100240000002418
:10154000000000240000002400000024000100230B
:1015500000000023000000230000002300000023FF
:1015600000000023000000230001002200000022F0
:1015700000000022000000220000002200000022E3
:1015800000010021000000210000002100000021D6
:1015900000000021000000210000002100010020C7
:1015A00000000020000000200000002000000020BB
:1015B0000000002000000020000000200001001FAB
:1015C0000000001F0000001F0000001F0000001F9F
:1015D0000000001F0000001F0001001E0000001E90
:1015E0000000001E0000001E000000290A0020620A
:1015F000797465733B20637263200053657474696A
:101600006E67732053746F7265642028002028630E
:10161000616C63756C6174656429210A0020213D49
:101620002000454550524F4D20435243206D697371
:101630006D61746368202D202873746F726564294E
:101640002000290A002062797465733B206372636D
:1016500020002073746F7265642073657474696E02
:10166000677320726574726965766564202800204E
:101670004D61726C696E3D563431290A002845452A
:1016800050524F4D3D00454550524F4D20766572AA
:1016900073696F6E206D69736D61746368200020DB
:1016A000746F6F206C6F6E672065787472757369E4
:1016B0006F6E2070726576656E7465640A002063D3
:1016C0006F6C6420657874727573696F6E207072C8
:1016D0006576656E7465640A00627573793A207088
:1016E000617573656420666F7220696E7075740A27
:1016F00000627573793A2070617573656420666F56
:101700007220757365720A00627573793A2070727F
:101710006F63657373696E670A004B494C4C4544AF
:101720002E20004B494C4C20636175736564206228
:1017300079204B494C4C20627574746F6E2F706920
:101740006E0A004B494C4C45442E20004B494C4CF2
:101750002063617573656420627920746F6F206DFA
:1017600075636820696E6163746976652074696D5C
:1017700065202D2063757272656E7420636F6D6DC8
:10178000616E643A20005072696E746572206861FF
:101790006C7465642E206B696C6C28292063616C05
:1017A0006C6564210A000000000000004543000051
:1017B000824300005C4200005C4200007041000077
:1017C00000005761726E696E673A20486F6D696EEE
:1017D000672042756D702044697669736F72203C92
:1017E00020310A000202030000A0400000A04000D7
:1017F000000040000045430000454300008243FFD5
:1018000001014572726F722077726974696E672088
:10181000746F20454550524F4D210A00434F4D4DA6
:10182000554E49434154494F4E0044525952554E2A
:10183000004552524F525300494E464F00454348CF
:101840004F00202F002042403A0020403A006F6BAA
:101850000020573A003D18381831182A181C186F04
:1018600066660044454255473A004D3131332053B6
:1018700000205A3A0020593A0020436F756E7420B8
:10188000583A0020453A00205A3A0020593A005868
:101890003A0050726F6265204F6666736574206906
:1018A00073205A3A20005374616E6461726420445C
:1018B0006576696174696F6E3A20002052616E67C7
:1018C000653A2000204D61783A2000204D696E3A3B
:1018D00020004D65616E3A200046696E6973686547
:1018E00064210A002072616E67653A2000206D61F4
:1018F000783A2000206D696E3A2000207369676D88
:10190000613A2000206D65616E3A20003A207A3AF3
:101910002000206F662000205A0020590020580027
:10192000476F696E6720746F3A00436C6F636B7723
:101930006973650A00436F756E7465722D002044EB
:101940006972656374696F6E3A2000202020616EB1
:10195000676C653A20005374617274696E67207217
:1019600061646975733A2000506F736974696F6EB2
:10197000696E67207468652070726F62652E2E2E06
:101980000A003F4E756D626572206F66206C656758
:101990007320696E206D6F76656D656E74206E6F55
:1019A0007420706C61757369626C652028302D310C
:1019B00035292E0A00590058003F53616D706C653F
:1019C0002073697A65206E6F7420706C617573691D
:1019D000626C652028342D3530292E0A004D3438AC
:1019E000205A2D50726F6265205265706561746176
:1019F00062696C69747920546573740A003F2856D3
:101A0000296572626F7365206C6576656C206973F9
:101A100020696D706C61757369626C652028302D6A
:101A200034292E0A0048617264636F64656420443F
:101A3000656661756C742053657474696E67732094
:101A40004C6F616465640A00B80B0000B80B0000BD
:101A500064000000E8030000000096430000964385
:101A6000000070410000C8410000A0420000A042F8
:101A7000000048440080114320204D383531205A61
:101A8000005A2D50726F6265204F66667365742030
:101A9000286D6D293A0A0020440020490020204D7D
:101AA00033303420500020440020490020204D33A2
:101AB00030312050005049442073657474696E675A
:101AC000733A0A0020204D3432302053004175749F
:101AD0006F20426564204C6576656C696E673A0AD2
:101AE00000205A0020590020204D32303620580066
:101AF000486F6D65206F66667365743A0A0020450D
:101B000000205A0020590020580020420020540094
:101B100020204D323035205300416476616E63657C
:101B2000643A20533C6D696E5F66656564726174EA
:101B3000653E20543C6D696E5F74726176656C5FC2
:101B400066656564726174653E20423C6D696E5FD6
:101B50007365676D656E745F74696D655F6D733E07
:101B600020583C6D61785F78795F6A65726B3E20C2
:101B70005A3C6D61785F7A5F6A65726B3E20453CC6
:101B80006D61785F655F6A65726B3E0A0020540084
:101B900020520020204D32303420500041636365D4
:101BA0006C65726174696F6E2028756E6974732F2D
:101BB0007332293A20503C7072696E745F616363BE
:101BC000656C3E20523C726574726163745F616340
:101BD00063656C3E20543C74726176656C5F616332
:101BE00063656C3E0A00204500205A002059002001
:101BF000204D3230312058004D6178696D756D206F
:101C0000416363656C65726174696F6E2028756EDF
:101C10006974732F7332293A0A00204500205A0054
:101C200020590020204D3230332058004D61786912
:101C30006D756D20666565647261746573202875C5
:101C40006E6974732F73293A0A00204500205A00E8
:101C500020590020204D393220580053746570738C
:101C60002070657220756E69743A0A0020204D322A
:101C700030302044300A0020204D323030204400E3
:101C80002044697361626C65640A0046696C616D29
:101C9000656E742073657474696E67733A002020F2
:101CA000473231202020203B20556E697473206913
:101CB0006E206D6D0A0050726F62696E67206661FA
:101CC000696C65640A004572726F723A00205A3A74
:101CD000200020593A200042656420583A20002014
:101CE00066697273740A005A0059005800486F6D93
:101CF0006520006563686F3A00544845524D414C79
:101D00002052554E4157415900546865726D616CBF
:101D10002052756E617761790020706F7369746904
:101D20006F6E206F7574206F662072616E67652E0E
:101D30000A003F50726F6265200052756E6E696EC8
:101D40006720696E204452592D52554E206D6F64A4
:101D5000650A00473239204175746F20426564205E
:101D60004C6576656C696E670A0028422961636B71
:101D700000284629726F6E740028522969676874BA
:101D800000284C29656674003F2856296572626FE9
:101D90007365206C6576656C20697320696D706C65
:101DA00061757369626C652028302D34292E0A0014
:101DB000426164205A2076616C75650A004E6F207E
:101DC00062696C696E65617220677269640A0000FD
:101DD000002100240027002A002D003000330001DC
:101DE000010000040107010A01000022002500286B
:101DF000002B002E00310034000201000005010814
:101E0000010B01000020002300260029002C002FD8
:101E1000003200000100000301060109010505056B
:101E200005070508080808020202020A0A08080451
:101E3000040404010101010101010103030303037F
:101E4000030303040707070C0C0C0C0C0C0C0C020E
:101E500002020206060606060606060B0B0B0B0B15
:101E60000B0B0B010210202008081020401020400E
:101E7000800201020108040201010204081020404E
:101E8000808040201008040201800402018040206C
:101E90001008040201080402010102040810204095
:101EA00080010204081020408000000A0B02090C87
:101EB0000D0E0807030401000000000000000000F0
:101EC0000000000000000000000000000000000012
:101ED00000000000001211100000000000000000CF
:101EE00000000000000000000000000000000052A0
:101EF0006573656E643A20006F6B0000C69F112405
:101F00001FBECFEFD1E2DEBFCDBF00E00CBF13E0BC
:101F1000A0E0B2E0E6EEF8E501E00BBF02C00790FA
:101F20000D92A634B107D9F72CE1A6E4B3E001C0C5
:101F30001D92AB3EB207E1F71FE0CFE7DFE000E024
:101F400006C021970109802FFE010E9436A9CE37D5
:101F5000D10780E00807A9F70E940D9B0C9471AC93
:101F60000C9400002F923F924F925F926F927F925B
:101F70008F929F92AF92BF92CF92DF92EF92FF9299
:101F80000F931F93CF93DF93CDB7DEB7CD57D10912
:101F90000FB6F894DEBF0FBECDBF00910D0720E64F
:101FA000029F8001112405591C4F80919F0680FFDC
:101FB0001AC0E3EFFCE184917F013FEFE31AF30ADB
:101FC000811102C0780104C00E943333F701F3CFBE
:101FD000D7018D917D01882319F00E943333F8CF0A
:101FE0008AE00E94333381E090E09093C91A809395
:101FF000C81A1092EC041092EB048FE38093EF0464
:102000001092EE041092ED0410926003109261039E
:102010001092620310926303F80180810F5F1F4FDB
:102020008032D1F38E34B1F4818190ED980F9A30E3
:1020300020F08D3211F08B3269F43296DF01319647
:102040002C9120532A30D0F3CD01FC010196208140
:102050002032D9F3F093D01AE093CF1A7F01BFEF6B
:10206000EB1AFB0A10816AE270E0C7010E9451ACD2
:10207000009731F0FC01319780818032E1F31182C9
:102080001D3429F0143519F0173409F0CFC0F701C9
:1020900080812FEFE21AF20A8032C9F380538A302E
:1020A00008F0C4C01093EF042091ED043091EE04C9
:1020B0004AE03196429FC001439F900D1124DF01F9
:1020C00011972C91022E000C330B20533109280F4D
:1020D000391F808180538A3060F33093EE0420935F
:1020E000ED04DF0131968C918032D9F31D3449F033
:1020F0004091EB045091EC040091CF1A61E070E044
:1021000058C02E31310591F03CF42731310571F082
:102110002C31310569F70AC0253731054CF32737D3
:10212000310524F0203A43E0340711F7B093EC0472
:10213000A093EB047BC0813209F445C09FEBB92E1C
:10214000B80E89E1A82EAB1408F45EC0DF01FD01D2
:10215000908111969032D9F3A0EDA90FAA3008F022
:1021600047C04F01EB2CF12C6701A3E0D594C79435
:10217000AA95E1F7C601805A9C4F6C018B2D8770A0
:10218000DB0102C0AA0FBB1F8A95E2F7CD01D60181
:102190009C91892B8C9381149104A1F1801AC70121
:1021A0008A5B9C4FDC018C92808181548A3188F556
:1021B000DF01FD0131968C918111BDCF5093EC046C
:1021C0004093EB0433C01D3409F0B8CF2032310501
:1021D00009F0B4CFF093EC04E093EB0463E270E019
:1021E000CF010E9451AC009709F1DC011C921EC086
:1021F000A3EDA90FA23008F4B4CF9B3211F00C94D8
:10220000DF28AFCF812CCBCF4115510569F6AD0149
:10221000CBCFDF0131969C9190539A30D0F3CD0112
:10222000FC010196A081A032D9F3C2CF8091EF04C6
:102230008D3409F434C7843511F40C947C28873428
:1022400011F00C94BE282091ED043091EE042D3154
:10225000310509F4F2C4DCF42430310544F42230B1
:1022600031050CF044C037FF36C00C94D828253017
:10227000310509F482C00CF443C02C31310511F052
:102280000C94D82880E00E94F38E0C94D8282A322F
:10229000310509F418C674F42332310509F459C51F
:1022A0002432310509F459C52E31310511F00C9451
:1022B000D828C7C42B35310509F458C52C3531054C
:1022C00009F459C52A35310511F00C94D82810921B
:1022D0006A030C94D82880910102882311F40C948D
:1022E000D8280E947A320E9499720C94D82881E0F2
:1022F0002230310509F080E00E948C330C94D828FC
:1023000080E50E946D32882329F00E94C7316B015D
:102310007C0103C0C12CD12C760183E50E946D3273
:10232000882361F00E940B3220E030E04AE754E459
:102330000E941DA50E94B2AA6B017C010E94455615
:102340000E94EE328091D11A9091D21AA091D31AA4
:10235000B091D41AC80ED91EEA1EFB1E0E948F929D
:10236000DC01CB018C199D09AE09BF09B7FD02C084
:102370000C94D8280E94146BF1CF8091010288231D
:1023800011F40C94D8280E947A3289E40E946D32AC
:10239000882329F00E940B322B013C0103C0412C01
:1023A000512C32018AE40E946D32882329F00E9468
:1023B0000B324B015C0103C0812C912C540180E550
:1023C0000E946D32882329F00E940B326B017C0140
:1023D00003C0C12CD12C760181E50E946D32882387
:1023E00039F00E940B326AA37BA38CA39DA304C087
:1023F0001AA21BA21CA21DA2B091C71AE696BFAFDB
:10240000E6976091250270912602072E000C880B3A
:10241000990B0E94BEA4209131023091320240916A
:102420003302509134020E941DA52AE037ED43E2A9
:102430005CE30E941DA5EA966CAF7DAF8EAF9FAFA7
:10244000EA9720911D1B30911E1B40911F1B50913C
:10245000201B2EA33FA348A759A7A30192016EA159
:102460007FA188A599A50E943FA922966CAF7DAF58
:102470008EAF9FAF22974090211B5090221B6090FF
:10248000231B7090241BA5019401C301B2010E947B
:102490003FA926966CAF7DAF8EAF9FAF2697209158
:1024A000E51A3091E61A4091E71A5091E81AC701EF
:1024B000B6010E943FA92A966CAF7DAF8EAF9FAF49
:1024C0002A972091E91A3091EA1A4091EB1A50911B
:1024D000EC1A6AA17BA18CA19DA10E943FA92E9616
:1024E0006CAF7DAF8EAF9FAF2E97AEA0BFA0C8A43C
:1024F000D9A4A982BA82CB82DC824D825E826F82AD
:1025000078860E948F929B01AC0128533F4F4F4F1A
:102510005F4FE2962CAF3DAF4EAF5FAFE2976DECF1
:10252000862E6CEC962EA92C6DE3B62E1AA21EA256
:102530001AA61BA60E94FF420E948F928B019C014B
:10254000E296CCACDDACEEACFFACE2970C191D0909
:102550002E093F0937FD0EC09B01AC0128533F4FA8
:102560004F4F5F4FE2962CAF3DAF4EAF5FAFE2975C
:102570000E94146BA5019401BAA1AEA1FAA5EBA526
:102580006B2F7A2F8F2F9E2F0E943FA92B011C01AA
:1025900020E030E040E85FE30E949FAB181634F47F
:1025A000412C512C40E8242E5FE3352E8091E51A12
:1025B0009091E61AA091E71AB091E81A62968CAF52
:1025C0009DAFAEAFBFAF6297A0901D1BB0901E1B1A
:1025D000C0901F1BD090201B6696ACAEBDAECEAE99
:1025E000DFAE66973F922F925F924F926296ACACAD
:1025F000BDACCEACDFAC62972A96ECACFDAC0EADB8
:102600001FAD2A9722962CAD3DAD4EAD5FAD229702
:1026100066966CAD7DAD8EAD9FAD66970E94D05D28
:102620000F900F900F900F906FA779AB8DAB99AF74
:10263000C090E91AD090EA1AE090EB1AF090EC1AE8
:102640006A96CCAEDDAEEEAEFFAE6A972091211B4E
:102650003091221B4091231B5091241BA6962CAF36
:102660003DAF4EAF5FAFA6973F922F925F924F92D2
:102670006A96ACACBDACCEACDFAC6A972E96ECAC37
:10268000FDAC0EAD1FAD2E9726962CAD3DAD4EADDB
:102690005FAD2697A6966CAD7DAD8EAD9FADA6972E
:1026A0000E94D05D0F900F900F900F906AAF7BAF9C
:1026B0008CAF9DAF89819A81AB81BC81AA968CAF8A
:1026C0009DAFAEAFBFAFAA97AD80BE80CF80D8849C
:1026D000AE96ACAEBDAECEAEDFAEAE976B961FAED5
:1026E0006B977AA16EA19AA58BA5272F362F492F1C
:1026F000582F642D752D822D932D0E943EA92FE613
:1027000032E143E05BE30E94B7A487FF06C06B960B
:10271000BFAC6B97B110C6C1ACC1242D352D422D75
:10272000532DBAA1AEA1FAA5EBA56B2F7A2F8F2F4F
:102730009E2F0E943FA920E030E040E05FE30E942E
:102740001DA53B014C019F928F937F926F936296E0
:10275000ACACBDACCEACDFAC62972A96ECACFDACB9
:102760000EAD1FAD2A9722962CAD3DAD4EAD5FAD9F
:10277000229766966CAD7DAD8EAD9FAD66970E943B
:10278000D05D0F900F900F900F906F966FAF6F9777
:10279000E3967FAFE397E4968FAFE497E5969FAF1C
:1027A000E5979F928F927F926F926A96ACACBDAC88
:1027B000CEACDFAC6A972E96ECACFDAC0EAD1FAD87
:1027C0002E9726962CAD3DAD4EAD5FAD2697A696C5
:1027D0006CAD7DAD8EAD9FADA6970E94D05D0F9084
:1027E0000F900F900F905B018C012FA539A94DA977
:1027F00059ADAA966CAD7DAD8EAD9FADAA970E94E6
:102800003FA920E030E040E05FE30E941DA59B016E
:10281000AC016F966FAD6F97E3967FADE397E4964B
:102820008FADE497E5969FADE5970E943EA96B01B9
:102830007C01E894F7F82AAD3BAD4CAD5DADAE96AA
:102840006CAD7DAD8EAD9FADAE970E943FA920E0EF
:1028500030E040E05FE30E941DA59B01AC01B501A3
:10286000C8010E943EA99B01AC015F77C701B60178
:102870000E943FA92DEC3CEC4CEC5DE30E94B7A418
:1028800018160CF044CFAAAEBBAE0CAF1DAF6F96BE
:10289000CFAC6F97CFA6E396DFACE397D9AAE496C7
:1028A000EFACE497EDAAE596FFACE597F9AE23010E
:1028B000140121E06B962FAF6B9713CFA701960100
:1028C000C701B6010E943FA99B01AC01BAA1AEA10C
:1028D000FAA5EBA56B2F7A2F8F2F9E2F0E943FA971
:1028E000962E872E782E692E20E030E040E85FE3B8
:1028F000D401F3016B2F7A2F8F2F9E2F0E949FAB55
:1029000087FFD0C06F927F928F929F926296ACACFD
:10291000BDACCEACDFAC62972A96ECACFDAC0EAD94
:102920001FAD2A9722962CAD3DAD4EAD5FAD2297DF
:1029300066966CAD7DAD8EAD9FAD66970E94D05D05
:102940000F900F900F900F906B966FAF6B976F96E5
:102950007FAF6F97E3968FAFE397E4969FAFE497CF
:102960006F927F928F929F926A96ACACBDACCEACC8
:10297000DFAC6A972E96ECACFDAC0EAD1FAD2E977A
:1029800026962CAD3DAD4EAD5FAD2697A6966CADAF
:102990007DAD8EAD9FADA6970E94D05D0F900F903C
:1029A0000F900F905B018C016B962FAD6B976F961C
:1029B0003FAD6F97E3964FADE397E4965FADE49735
:1029C000AA966CAD7DAD8EAD9FADAA970E943FA932
:1029D00020E030E040E05FE30E941DA59B01AC01D8
:1029E0006FA579A98DA999AD0E943EA96B017C01C3
:1029F000E894F7F89501A801AE966CAD7DAD8EAD6B
:102A00009FADAE970E943FA920E030E040E05FE339
:102A10000E941DA59B01AC016AAD7BAD8CAD9DAD47
:102A20000E943EA99B01AC015F77C701B6010E94DD
:102A30003FA92DEC3CEC4CEC5DE30E949FAB1816DB
:102A40008CF1AAAEBBAE0CAF1DAF6B963FAD6B97D2
:102A50003FA76F964FAD6F9749ABE3965FADE39796
:102A60005DABE4968FADE49789AF492C582C272CA9
:102A7000362C7AA16EA19AA58BA5272F362F492F28
:102A8000582F642D752D822D932D0E943EA96B0128
:102A90007C012DEC3CEC4CEC5DE30E949FAB1816E6
:102AA0000CF00CCF7AA16EA19AA58BA5272F362FFB
:102AB000492F582F642D752D822D932D0E943EA9EC
:102AC0004B015C018FA599A9ADA9B9AD89839A8302
:102AD000AB83BC838AAD9BADACADBDAD8D839E8316
:102AE000AF83B887242D352D422D532D60E070E043
:102AF00080E89FE30E943EA96B017C012091251B89
:102B00003091261B4091271B5091281B0E941DA528
:102B10006AA37BA38CA39DA32091ED1A3091EE1A9A
:102B20004091EF1A5091F01A642D752D822D932D3E
:102B30000E941DA59B01AC016AA17BA18CA19DA156
:102B40000E943FA969877A878B879C872091291BE0
:102B500030912A1B40912B1B50912C1BC701B601B1
:102B60000E941DA56B017C012091F11A3091F21A8F
:102B70004091F31A5091F41A642D752D822D932DE6
:102B80000E941DA59B01AC01C701B6010E943FA98F
:102B90006D877E878F87988BCE0101960E94D6978E
:102BA00089819A81AB81BC818E8B9F8BA88FB98FD5
:102BB0008D819E81AF81B8858A8F9B8FAC8FBD8FB1
:102BC00089859A85AB85BC858E8F9F8FA8A3B9A375
:102BD000AE01425E5F4FBE01665E7F4FCE014696FC
:102BE0000E941F54E696CFACE697EA96ECACFDAC9B
:102BF0000EAD1FADEA979E01235F3F4FAE01425ECF
:102C00005F4FBE01665E7F4FCE0146960E946747CA
:102C100020E030E040E85FE3642D752D822D932D98
:102C20000E94B7A487FF05C04AA25EA22AA63BA6BF
:102C300081CC0E94EB2D0C94D8280E9480890C94A2
:102C4000D82820E030E040E050E460911D1B7091F6
:102C50001E1B80911F1B9091201B0E943FA96B019E
:102C60007C0188E50E946D32882321F00E940B329E
:102C70006B017C01CE8ADF8AE88EF98E20E030E09D
:102C800040EF51E46091211B7091221B8091231B26
:102C90009091241B0E943FA96B017C0189E50E9451
:102CA0006D32882321F00E940B326B017C01C982B6
:102CB000DA82EB82FC824090311B5090321B609094
:102CC000331B7090341B20912D1B30912E1B409193
:102CD0002F1B5091301B6E897F89888D998D0E94A2
:102CE0003EA94B015C012BE33FED4FEF5FE30E94F8
:102CF0009FAB87FF02C00C94D82822E430E045E463
:102D000053E4C501B4010E94B7A4181614F40C943E
:102D1000D828A3019201C701B6010E943EA96B0108
:102D20007C0124EF3DEF4FEE51E40E949FAB87FF03
:102D300002C00C94D82822E430E045E453E4C701F3
:102D4000B6010E94B7A4181614F40C94D8280C9459
:102D5000E9280E94887E0C94D82881E00E94F38E96
:102D60000E94887E0E9480890C94D82881E08093FC
:102D70006A030C94D82885E40E946D32B82E811124
:102D800002C00E94455693E5892E92E0992E2DE1CE
:102D9000C22E2BE1D22E39EDE32E3AE1F32E00E0E4
:102DA00010E0A12CD4018D914D010E946D32882339
:102DB000F1F1F6012081318142815381EB962FAFF1
:102DC000EB97EC963FAFEC97ED964FAFED97EE9605
:102DD0005FAFEE970E940B32D6016D937D938D937A
:102DE0009C931397EB962FADEB97EC963FADEC973A
:102DF000ED964FADED97EE965FADEE970330110572
:102E0000B1F00E943EA99B01AC01F7016081718184
:102E1000828193810E943FA9D7016D937D938D9309
:102E20009C931397C8010E941F30AA24A3940F5F9C
:102E30001F4FB4E0CB0ED11CE4E0EE0EF11C0430C9
:102E4000110509F0AFCFAA2019F00E94773037C0E2
:102E5000BB20A9F1C090291BD0902A1BE0902B1B0E
:102E6000F0902C1B20913F07309140074091410783
:102E700050914207C701B6010E941DA50E94ACAB4C
:102E80006093DB1B7093DC1B8093DD1B9093DE1B38
:102E9000C701B6010E94ABAA2FB7F8946093941AA9
:102EA0007093951A8093961A9093971A2FBF109249
:102EB000CB1B1092CC1B1092CD1B1092CE1B0E94EC
:102EC000A9730C94D82880910102882311F40C94E2
:102ED000D82889E40E946D32182F882321F00E949F
:102EE000D731F62E01C0F12C8AE40E946D32082FF2
:102EF000882331F00E94D731E62E111104C00BC097
:102F0000E12C1123C9F0F2E0FF1510F00C940C2C09
:102F1000E1EBF2E005C082E0A82EAE14C8F30CC0CD
:102F200084918F010F5F1F4F882311F40C94D828D0
:102F30000E943333F801F4CF0E94E12D112341F1B7
:102F40002091C31A3091C41A4F2D4203B001439F00
:102F5000700D11248091BF1A9091C01A680F791FCB
:102F6000072E000C880B990B0E94BEA420912D1BEC
:102F700030912E1B40912F1B5091301B0E943FA976
:102F80006093E51A7093E61A8093E71A9093E81A13
:102F9000002341F12091C51A3091C61A5E2D5203CB
:102FA000B001539F700D11242091C11A3091C21AA3
:102FB000620F731F072E000C880B990B0E94BEA492
:102FC0002091311B3091321B4091331B5091341BA7
:102FD0000E943FA96093E91A7093EA1A8093EB1A52
:102FE0009093EC1A80E50E943E328823A1F10E9462
:102FF000FB31882381F11123B1F020E030E040E083
:1030000050E46091E51A7091E61A8091E71A909168
:10301000E81A0E943EA96093E51A7093E61A80931D
:10302000E71A9093E81A0023B1F020E030E040EF77
:1030300051E46091E91A7091EA1A8091EB1A90912B
:10304000EC1A0E943EA96093E91A7093EA1A8093E1
:10305000EB1A9093EC1A86E40E946D328823D9F023
:103060000E940B326B017C0120E030E0A9010E943C
:103070009FAB181684F420E030E040E752E4C7012B
:10308000B6010E9439AA6093310270933202809394
:103090003302909334020E9499720C94D828809144
:1030A000ED049091EE048E3B910509F455C30CF0AC
:1030B000A7C08C35910509F479C30CF053C08B344B
:1030C000910509F4F5C25CF58231910509F46AC3F2
:1030D000CCF497FF02C00C94D828823091050CF4F0
:1030E0004CC1419711F00C94D8285F988A989FB7EB
:1030F000F894809108018E7F809308019FBF1298F9
:103100000C94D8288A32910509F48EC28033910537
:1031100009F4CAC24F9711F00C94D828B3C1823574
:10312000910509F436C37CF48D34910509F4DEC2AF
:103130000CF4C2C28135910511F00C94D8280E947C
:1031400077750C94D8288435910509F42BC30CF4B9
:1031500024C38535910511F00C94D8280E9406757A
:103160000C94D8288137910509F4CCC22CF58B3604
:10317000910509F40AC37CF48936910509F4E4C287
:103180000CF0FFC28836910511F00C94D8280E94EB
:10319000B6780C94D8288E36910509F4ABC28F36D8
:1031A000910509F4ABC28D36910511F00C94D82825
:1031B0000E9422770C94D8288737910509F403C41C
:1031C00064F48337910509F4FBC20CF4F3C286372B
:1031D000910509F487C30C94D8288937910509F41F
:1031E0007DC40CF474C48C38910509F48FC28B39FA
:1031F000910511F00C94D8280E9468760C94D82878
:103200008336A1E09A0711F40C942C280CF050C0DE
:103210008C3D910509F4ACC60CF58C3C910509F484
:10322000EFC474F4893C910509F4A8C48B3C910562
:1032300009F4C7C4883C910511F00C94D82854C4F3
:103240008E3C910509F4B5C50CF446C5833D910546
:1032500011F00C94D828E3EFFCE1F3C58C32E1E0E7
:103260009E0709F4DFC684F4823E910509F4ABC6DB
:103270008E3021E0920711F40C9458218D3D910578
:1032800011F00C94D82883C68E3231E0930711F4E4
:103290000C948B210CF4F0C68F3251E0950711F499
:1032A0000C94DF218033914009F485C70C94D82811
:1032B000853FB1E09B0711F40C94BE267CF5843A5F
:1032C000F1E09F0711F40C94EF24ACF4813931E064
:1032D000930711F40C94E724823941E0940711F428
:1032E0000C94EB248039914011F00C94D8280E9462
:1032F00045560C94D8288C3AA1E09A0711F40C9406
:10330000DB25843FB1E09B0711F40C94BB26853A82
:10331000914011F00C94D8280C9447258B38F3E099
:103320009F0711F40C94062794F4873F31E093072C
:1033300011F40C94C42614F40C94C12683359340E4
:1033400011F00C94D828E3EFFCE10C94D2268D38D0
:10335000A3E09A0711F40C94632714F40C94322719
:103360008E38E3E09E0711F40C942428873E9340A6
:1033700011F40C946C280C94D828E090EB04F09095
:10338000EC0480E50E946D32882359F00E94C73119
:103390004B015C0111E0672B682B692B31F410E0C5
:1033A00004C010E0812C912C540183E50E946D3201
:1033B000882399F00E940B3220E030E04AE754E481
:1033C0000E941DA50E94B2AA4B015C0111110CC004
:1033D000672B682B692B41F43CC0111105C0E11427
:1033E000F10411F00C943F2983E090E09093C91A06
:1033F0008093C81A81E0809364030E9445560E941E
:10340000EE3281149104A104B104A9F18091D11A82
:103410009091D21AA091D31AB091D41A7501640177
:10342000C80ED91EEA1EFB1E0E948F92DC01CB0142
:103430008C199D09AE09BF09B7FD04C01092640341
:103440000C94D828809164038823C1F30E94146BE4
:10345000EBCFE114F10411F00C943F2983E090E0EC
:103460009093C91A8093C81A81E0809364030E94E4
:1034700045560E94EE32809164038823F9F20E943F
:10348000146BF9CF8091FF1B9091001C019719F4E8
:103490000E948F9208C06091091C70910A1C809153
:1034A0000B1C90910C1C0091051C1091061C209186
:1034B000071C3091081C601B710B820B930B28EECC
:1034C00033E040E050E00E94ABA88091011C909155
:1034D000021CA091031CB091041CBC01CD01620F21
:1034E000731F841F951FBCE3CB2ED12CE12CF12C34
:1034F000A70196010E94ABA8762E672ECA01B901DA
:10350000A70196010E94ABA86B017C01CA01B90119
:1035100028E130E040E050E00E94ABA84B015C01A4
:10352000C9016DE671E00E940EA98E010F5F1F4F69
:103530006115710599F06F927F92DF92CF929F9201
:103540008F929F938F937F936F9388EF92E09F93D7
:103550008F931F930F930E9487A426C0009789F032
:103560006F927F92DF92CF929F928F929F938F93D1
:1035700088EE92E09F938F931F930F930E9487A4EE
:1035800013C081149104A104B104B1F06F927F9231
:10359000DF92CF929F928F928CED92E09F938F93C8
:1035A0001F930F930E9487A40FB6F894DEBF0FBE3F
:1035B000CDBFE3EFFCE123C0C114D104E104F10469
:1035C00069F06F927F92DF92CF9284ED92E09F93A9
:1035D0008F931F930F930E9487A4E6CF6F927F92E1
:1035E00080ED92E09F938F931F930F930E9487A487
:1035F0000F900F900F900F900F900F90DACF849153
:103600007F01BFEFEB1AFB0A882321F00E943333BE
:10361000F701F5CFB8018CE093E00E94A85D8AE045
:103620000E9433330C94D82883E50E946D3288239E
:1036300011F40C94D8280E94E731E82E80E50E940E
:103640006D32882311F40C94D8280E94D731162F9C
:10365000C62ED72ED7FE02C00C94D828E3EDF5E095
:1036600088E28E0F9491191729F031968E13FACFB4
:103670000C945E29E6ECFCE184918F010F5F1F4FF3
:10368000882321F00E943333F801F6CFE9E1F3E01B
:1036900084918F010F5F1F4F882311F40C94D82859
:1036A0000E943333F801F4CF0E94E1780C94D828BB
:1036B0000E9410860C94D8288091FF1B9091001CCA
:1036C000019711F00C94D82882E090E09093001CB0
:1036D0008093FF1B0E948F926093091C70930A1CB9
:1036E00080930B1C90930C1C0C94D8280E94BB84D4
:1036F0000C94D8280E9428760C94D8280E94B17582
:103700000C94D8280E9487750C94D82880919F0625
:1037100083FF02C00C94D82883E50E946D32882371
:1037200011F40C94D8280E940B320E94ABAA6E3779
:10373000710514F06DE770E07093AC056093AB0514
:103740000E94063F0C94D8280E9499781092C91ABA
:103750001092C81A0C943A2C80919F0683FF02C0E5
:103760000C94D82883E50E946D328AA781110C94AD
:10377000752982E50E946D3281110C9475290C9493
:10378000D8280E9447760C94D8280E9438760C944A
:10379000D828109269030C94D82881E0809369039B
:1037A0000C94D8280E941E750C94D8280E94687426
:1037B0000C94D8280E9445560E94A9730C94D828CE
:1037C000E7E0F4E084918F010F5F1F4F882321F021
:1037D0000E943333F801F6CFE9EFF3E084918F01D3
:1037E0000F5F1F4F882321F00E943333F801F6CF7B
:1037F000E2EEF3E084918F010F5F1F4F882321F0E9
:103800000E943333F801F6CFE2EDF3E084918F01AB
:103810000F5F1F4F882321F00E943333F801F6CF4A
:10382000E1ECF3E084918F010F5F1F4F882321F0BB
:103830000E943333F801F6CFE0EBF3E084918F017F
:103840000F5F1F4F882321F00E943333F801F6CF1A
:10385000E1EAF3E084918F010F5F1F4F882321F08D
:103860000E943333F801F6CFECE8F3E084918F0146
:103870000F5F1F4F882321F00E943333F801F6CFEA
:10388000E6E7F3E084918F010F5F1F4F882321F05B
:103890000E943333F801F6CFE1E6F3E084918F0123
:1038A0000F5F1F4F882321F00E943333F801F6CFBA
:1038B000E4E4F3E084918F010F5F1F4F882321F030
:1038C0000E943333F801F6CFECE2F3E084918F01EC
:1038D0000F5F1F4F882311F40C94D8280E943333B4
:1038E000F801F4CF85E40E943E32882381F00E94E3
:1038F000FB31882361F0E3EFFCE184918F010F5FDE
:103900001F4F882321F00E943333F801F6CF81E462
:103910000E943E32882381F00E94FB31882361F0AF
:10392000EBEDF4E084918F010F5F1F4F882321F0AE
:103930000E943333F801F6CF0091EB041091EC04B0
:10394000D8018D918D018823C9F10E943333F8CFBE
:103950008AE50E943E32882311F40C94F8260E94D6
:103960000B326B017C0120E030E040EA51EC0E9418
:103970009FAB87FF02C00C94EA2620E030E040EACB
:1039800051E4C701B6010E94B7A4181614F40C94B0
:10399000EA26C092A81BD092A91BE092AA1BF09223
:1039A000AB1B0E947B866091A81B7091A91B809124
:1039B000AA1B9091AB1B42E00E945B388AE00E94F8
:1039C00033330C94D828EFEFF4E084918F010F5F2C
:1039D0001F4F882321F00E943333F801F6CFE7EF21
:1039E000F4E084918F010F5F1F4F882321F00E9424
:1039F0003333F801F6CF659903C003EB12E002C040
:103A000008EB12E0F80181918F01882319F00E94E0
:103A10003333F8CF8AE00E943333EFEEF4E0849141
:103A20008F010F5F1F4F882321F00E943333F8016D
:103A3000F6CF8091030181FD03C003EB12E002C0C9
:103A400008EB12E0D8018D918D01882319F00E94B6
:103A50003333F8CF8AE00E943333E7EEF4E0849109
:103A60008F010F5F1F4F882321F00E943333F8012D
:103A7000F6CF4A9903C003EB12E002C008EB12E054
:103A8000F80181918F01882319F00E943333F8CF18
:103A90008AE00E943333EFEDF4E084918F010F5FF1
:103AA0001F4F882321F00E943333F801F6CF4B9942
:103AB00003C003EB12E002C008EB12E0D8018D91C5
:103AC0008D01882309F47ACF0E943333F7CF81E048
:103AD0008093AE068093171B0C94D8281092AE06E4
:103AE0001092171B0C94D82888EC90E00E94E335C4
:103AF00081110C94D82884E40E943E328823D1F1AD
:103B00000E940B3211E020E030E0A9010E94B7A42E
:103B1000811101C010E010931C1B112359F1009179
:103B2000650310E00E940B32000F111F000F111FE0
:103B3000F801E85EF44E608371838283938320E012
:103B400030E0A9016091181B7091191B80911A1B1C
:103B500090911B1B0E94B7A481110CC080E090E0E3
:103B6000A0EEBFE38093181B9093191BA0931A1B20
:103B7000B0931B1B0E94596E0C94D82863E2E62E6A
:103B800067E0F62E03E512E074E0D72ED00EF801C0
:103B900081918F010E943E32882351F00E940B32A6
:103BA0000E94B2AAD7016D937D938D939C93139736
:103BB000B4E0EB0EF11CD012EACF0E94D75E0C9459
:103BC000D8284DE7E42E46E0F42E03E512E054E059
:103BD000D52ED00EF80181918F010E943E328823AC
:103BE00041F00E940B32D7016D937D938D939C938E
:103BF0001397B4E0EB0EF11CD012ECCF0C94D82844
:103C000083E50E943E328823D9F00E940B32AB013B
:103C1000BC014093750650937606609377067093C7
:103C20007806409371065093720660937306709302
:103C3000740683E795E00E94725D8AE00E94333348
:103C400080E50E943E32882399F00E940B32AB013E
:103C5000BC01409375065093760660937706709387
:103C6000780686E595E00E94725D8AE00E94333313
:103C700082E50E943E32882399F00E940B32AB010C
:103C8000BC014093790650937A0660937B0670934B
:103C90007C0687E395E00E94725D8AE00E943333E0
:103CA00084E50E943E32882311F40C94D8280E94A7
:103CB0000B32AB01BC0140937106509372066093C6
:103CC00073067093740689E195E00E94725D8AE044
:103CD0000E9433330C94D82883E50E943E32882317
:103CE00051F00E940B326093950670939606809374
:103CF00097069093980684E50E943E32882351F0FF
:103D00000E940B3260939106709392068093930603
:103D10009093940682E40E943E32882351F00E94E0
:103D2000C73160938D0670938E0680938F069093B3
:103D3000900688E50E943E32882351F00E940B32A3
:103D400060936106709362068093630690936406A5
:103D500089E50E943E32882351F00E940B32609325
:103D600065067093660680936706909368068AE5F9
:103D70000E943E32882351F00E940B326093690604
:103D800070936A0680936B0690936C0685E40E949C
:103D90003E32882311F40C94D8280E940B32609391
:103DA0006D0670936E0680936F06909370060C9468
:103DB000D82893E5A92E92E0B92E2DE1C22E2BE151
:103DC000D22E30EEE32E36E0F32E00E010E0F501C7
:103DD00081915F010E943E32882311F10E940B32D3
:103DE0002B013C01D7012D913D914D915C910E9499
:103DF0003EA99B01AC01F6016081718182819381B2
:103E00000E943FA9D6016D937D938D939C93139748
:103E1000F7014082518262827382C8010E941F3082
:103E20000F5F1F4FF4E0CF0ED11C24E0E20EF11C17
:103E30000330110561F60E9477300E94A9730C943B
:103E4000D82884918F010F5F1F4F882321F00E9493
:103E50003333F801F6CF83E50E943E32882321F008
:103E60000E94FB3180933002E3ECF5E084918F01F6
:103E70000F5F1F4F882321F00E943333F801F6CFE4
:103E800080913002811103C0EFEBF5E002C0EBEB53
:103E9000F5E084918F010F5F1F4F882321F00E946E
:103EA0003333F801F6CFE3EBF5E084918F010F5F38
:103EB0001F4F882321F00E943333F801F6CF409141
:103EC000AD1C5091AE1C6091AF1C7091B01C81EB89
:103ED00095E00E94725D4091B11C5091B21C6091BE
:103EE000B31C7091B41C8EEA95E00E94725D409103
:103EF000B51C5091B61C6091B71C7091B81C8BEA30
:103F000095E00E94725DE3EAF5E084918F010F5F16
:103F10001F4F882321F00E943333F801F6CF4091E0
:103F2000390250913A0260913B0270913C0281EA61
:103F300095E00E94725D40913D0250913E02609179
:103F40003F02709140028EE995E00E94725D4091BF
:103F500041025091420260914302709144028BE908
:103F600095E00E94725D8AE00E9433330C94D82859
:103F700083E50E946D32882311F40C94D8280E94A6
:103F8000D73170932602609325020C94D8288DEDCA
:103F900090E00E94E33581110C94D82883E50E94BB
:103FA0006D32882311F40C94D8280091650310E039
:103FB0000E94D731000F111FF801E85FFD4F718398
:103FC00060830C94D82880E50E943E32882311F447
:103FD0000C94D8280E94D731F62EC62ED72E83E512
:103FE0000E946D32882321F00E94D7318B0102C0DC
:103FF0000FEF1FEFC8010196039710F00C94D8281B
:10400000D7FE02C00C94D828E3EDF5E088E28E0FCD
:104010009491F91611F40C94D82831968E13F8CF98
:104020000C94132C83E50E946D32882319F00E94B2
:10403000D73102C064E071E07F8B6E8B80E50E9417
:104040006D32882339F00E94D731693833E1730724
:1040500030F402C068EE73E07A83698304C088E8B4
:1040600093E19A838983BE016A5E7F4FCE010196F8
:104070000E94C3900C94D82885E40E946D3281116F
:1040800010C080E50E943E32882391F00E940B32DE
:1040900060938E0570938F058093900590939105A2
:1040A00007C00E94E731882361F3E6ECFCE172C0AF
:1040B00089E40E943E32882381F00E940B322CEA70
:1040C00035EC47E25EE30E941DA560938A0570937C
:1040D0008B0580938C0590938D0584E40E943E327D
:1040E000882381F00E940B322CEA35EC47E25EE334
:1040F0000E9439AA6093920570939305809394056A
:1041000090939505E3EFFCE184918F010F5F1F4FC2
:10411000882321F00E943333F801F6CF40918E05B9
:1041200050918F05609190057091910583E096E024
:104130000E94725D2CEA35EC47E25EE360918A05ED
:1041400070918B0580918C0590918D050E9439AA04
:10415000AB01BC018FEF95E00E94555D2CEA35EC78
:1041600047E25EE36091920570919305809194051A
:10417000909195050E941DA5AB01BC018BEF95E0C8
:104180000E94555D8AE00E9433330C94D8280E9427
:104190003333F80184918F010F5F1F4F8111F7CFE7
:1041A00002ED12E0D8018D918D01882309F406CC2F
:1041B0000E943333F7CF80E50E943E32882351F0CE
:1041C0000E940B3260939E0570939F058093A0051B
:1041D0009093A10589E40E943E32882381F00E94D9
:1041E0000B322CEA35EC47E25EE30E941DA560939A
:1041F0009A0570939B0580939C0590939D0584E49C
:104200000E943E32882381F00E940B322CEA35EC6A
:1042100047E25EE30E9439AA609396057093970582
:104220008093980590939905E3EFFCE184918F01C9
:104230000F5F1F4F882321F00E943333F801F6CF20
:1042400040919E0550919F056091A0057091A10538
:104250008FE096E00E94725D2CEA35EC47E25EE367
:1042600060919A0570919B0580919C0590919D05A8
:104270000E9439AAAB01BC018BE096E00E94555D1B
:104280002CEA35EC47E25EE3609196057091970564
:1042900080919805909199050E941DA5AB01BC01E4
:1042A00087E096E00E94555D8AE00E94333380C724
:1042B00080917B00886080937B0081E480937C0008
:1042C00080917A00806480937A0080917A0086FDE4
:1042D000FCCF609178008091790070E0782B072EF8
:1042E000000C880B990B0E94BEA422EC35EF48E22B
:1042F0005FE30E9439AA2CEA35EC47E257E30E94BB
:104300003FA9AB01BC0183E196E00E94555D8AE0C4
:104310000E9433334DC783E50E943E32182F882315
:1043200071F00E940B320E94ABAA70930702609357
:10433000060221E0672B09F020E02093600680E56B
:104340000E943E32882359F02091060230910702E4
:10435000232B11F00E94FB318093600629C71111B5
:1043600027C7E3EFFCE184918F010F5F1F4F882384
:1043700021F00E943333F801F6CF8091600681115D
:1043800003C062EC72E002C065EB72E082E396E08B
:104390000E94A85D609106027091070281E296E09A
:1043A0000E948F5DEDE1F6E084918F010F5F1F4F5A
:1043B000882309F4FDC60E943333F801F5CF85E464
:1043C0000E946D32882321F00E94D7311B0102C068
:1043D000212C312C83E40E946D32882339F00E9415
:1043E000D731E0967FAF6EAFE09706C0E5E0F0E032
:1043F000E096FFAFEEAFE09785E50E943E32A396D0
:104400008FAFA397882329F00E94FB31A3968FAF2B
:10441000A39737FC07C0C12CD12CB6E1EB2EB3E437
:10442000FB2E06C0C12CD12CACE8EA2EA2E4FA2E59
:1044300083E50E946D32882321F00E940B326B01CC
:104440007C012114310411F4109265030E948F92B3
:104450002B013C01DC01CB018C53964FAF4FBF4F7A
:104460008093A2059093A305A093A405B093A505FE
:10447000C1010196029718F403EE12E00BC006EF9B
:1044800012E0D8018D918D01882309F497CA0E940A
:104490003333F7CFF80181918F01882319F00E94FF
:1044A0003333F8CF8AE00E9433330E949C3F8FE77A
:1044B000FFEF2F163F0619F48093B10502C08093D9
:1044C000B205C701B6010E94ABAA072E000C880BEB
:1044D000990B0E94BEA469AF7AAF8BAF9CAF81E00D
:1044E00080930002AE964CAE5DAE6EAE7FAEAE97E0
:1044F000A2964CAE5DAE6EAE7FAEA2971DAE20E42E
:104500002EAF3CE123963FAF239746E427964FAF6B
:1045100027972B961FAE2B972F961FAE2F9763963C
:104520001FAE639767961FAE67971DAA1EAA1FAAA4
:1045300018AE19AA1AAA1BAA1CAAC12CD12C760142
:10454000FFE78F2E912CA12CB12C8FE790E0A0E0FB
:10455000B0E08BA79CA7ADA7BEA76E961CAE1DAE04
:104560001EAE1FAE6E9791E0A7969FAFA79718AAB1
:104570001FA61EA21AA600E010E080910002882368
:1045800009F41EC20E948F926AA37BA38CA39DA3F1
:104590008091AF05882309F4F4C00E946140AFEF19
:1045A0002A163A0659F4B091A605BEA3E091A705D4
:1045B000EAA70091A8051091A9050AC0F091B405D9
:1045C000FEA32091B5052AA70091B6051091B70565
:1045D0002EA13AA5A8012B966FAD2B972F967FADF4
:1045E0002F9763968FAD639767969FAD67970E94ED
:1045F000B7A487FF0EC03EA12B963FAF2B974AA5CD
:104600002F964FAF2F9763960FAF639767961FAFA5
:1046100067972EA13AA5A8016DAD7EAD23968FAD0B
:10462000239727969FAD27970E949FAB181654F4A7
:104630005EA15DAF8AA58EAF23960FAF2397279615
:104640001FAF27978091A2059091A305A091A40583
:10465000B091A5052AA13BA14CA15DA1281B390B56
:104660004A0B5B0B57FD12C00E9494428AA19BA18A
:10467000ACA1BDA18C53964FAF4FBF4F8093A20505
:104680009093A305A093A405B093A505A7963FAD6D
:10469000A79729AD332309F454C03AAD4BAD5CADB7
:1046A0006EA17AA5C8010E949FAB18160CF069C0D4
:1046B0004AA15BA16CA17DA144195509660977093E
:1046C000DB01CA0188589341A109B109B7FD59C05E
:1046D0008BA59CA5ADA5BEA588199909AA09BB09FA
:1046E000B595A79597958795EFEF2E163E0619F489
:1046F0008093B10502C08093B2056E964CAF5DAF5A
:104700006EAF7FAF6E97F9AD2B96FFAF2B972AADAB
:104710002F962FAF2F973BAD63963FAF63974CAD6E
:1047200067964FAF67978AA19BA1ACA1BDA1AE963A
:104730008CAF9DAFAEAFBFAFAE97A7961FAEA7979A
:1047400020C03AAD4BAD5CAD6EA17AA5C8010E9408
:10475000B7A487FF16C08AA19BA1ACA1BDA1AE964C
:104760002CAD3DAD4EAD5FADAE97821B930BA40B50
:10477000B50BAC01BD01485853416109710977FF80
:10478000EBC620E030E040EA51E469AD7AAD8BAD94
:104790009CAD0E943FA99B01AC016EA17AA5C80106
:1047A0000E949FAB18166CF4E2E0F7E084918F0151
:1047B0000F5F1F4F882309F4FBC40E943333F801B5
:1047C000F5CF80E398EFAFEFBFEFA2962CAD3DADF4
:1047D0004EAD5FADA297821B930BA40BB50B2AA124
:1047E0003BA14CA15DA1820F931FA41FB51FB7FD74
:1047F0000FC00E9496768AE00E9433338AA19BA163
:10480000ACA1BDA1A2968CAF9DAFAEAFBFAFA2973A
:104810008AA19BA1ACA1BDA1880F991FAA1FBB1F94
:10482000AE962CAD3DAD4EAD5FADAE97821B930BFA
:10483000A40BB50B84199509A609B70981389F44C3
:10484000A241B10568F0E4EEF6E084918F010F5FBC
:104850001F4F882309F4ACC40E943333F801F5CF0D
:104860004FA558A9E0968EAD9FADE09784179507A8
:104870000CF083CEE7E8F6E084918F010F5F1F4FC5
:10488000882321F00E943333F801F6CF9FEF2916D9
:10489000390619F004E413E002C006EC12E0B80196
:1048A00085E796E00E94A85DB701A60181E796E042
:1048B0000E94725D8AE00E943333B8018FE596E072
:1048C0000E94A85D49A95AA96BA97CA98BE596E02D
:1048D0000E94725D8AE00E943333B80189E496E059
:1048E0000E94A85D4DA95EA96FA978AD85E496E008
:1048F0000E94725D8AE00E943333A396AFACA39707
:10490000AA2009F455C42320209469F5C0929E057D
:10491000D0929F05E092A005F092A1052CEA35EC1B
:1049200047E25EE369A97AA98BA99CA90E941DA50B
:1049300060939A0570939B0580939C0590939D05C9
:104940002CEA35EC47E25EE36DA97EA98FA998AD0C
:104950000E9439AA609396057093970580939805F5
:104960009093990525C4C0928E05D0928F05E09250
:104970009005F09291052CEA35EC47E25EE369A9D7
:104980007AA98BA99CA90E941DA560938A057093A2
:104990008B0580938C0590938D052CEA35EC47E2CE
:1049A0005EE36DA97EA98FA998AD0E9439AA609394
:1049B0009205709393058093940590939505F8C3A1
:1049C000809100028111F4C30E949C3FF1C381E0F9
:1049D0000E948C2FEDC380E00E948C2FE9C386E5F6
:1049E0000E943E32882341F08091C31A9091C41AEC
:1049F000892B11F00E947A9A83E50E943E32182F8B
:104A0000882319F00E94FB31182F83E50E943E3263
:104A1000882319F0812F0E94592DF0905F06111103
:104A200003C0E3EFFCE11AC0F110FBCFE6ECFCE1C0
:104A300084918F010F5F1F4F882321F00E94333331
:104A4000F801F6CFE4E8F7E084918F010F5F1F4F84
:104A5000882339F30E943333F801F6CF84918F0114
:104A60000F5F1F4F882321F00E943333F801F6CFE8
:104A7000F11003C06EEC72E002C06AEC72E086E7EF
:104A800097E00E94A85D8AE00E94333391C389E4D5
:104A90000E946D32882321F00E94D731062F01C079
:104AA0000FEF8AE40E946D32882321F00E94D731F3
:104AB000162F01C01FEF8AE50E943E32F82E8111A9
:104AC00005C081E50E943E32D82E01C0D12C07FDE1
:104AD00002C017FF03C0E6ECFCE105C0F1101AC0EC
:104AE000D11018C0F8CF84918F010F5F1F4F88231A
:104AF00021F00E943333F801F6CFE2ECF7E0849125
:104B00008F010F5F1F4F882309F452C30E94333374
:104B1000F801F5CF033018F0E6ECFCE106C01330E5
:104B2000D8F716C00E943333F80184918F010F5FCC
:104B30001F4F8111F7CFE3EAF7E084918F010F5FF8
:104B40001F4F882309F434C30E943333F801F5CF93
:104B5000E02E000FFF08012F110F110B0E940B32E6
:104B6000D701AA0FBB1FDD2081F0FD01EE0DFF1D57
:104B7000E00FF11FEE0FFF1FEE0FFF1FEC57F44E7B
:104B8000208131814281538103C020E030E0A901BE
:104B9000EA0EFB1E0E0D1F1D000F111F000F111F2F
:104BA0000C57144E0E943FA9D8016D937D938D93AD
:104BB0009C931397FDC220EEC22E26E0D22E3DE13B
:104BC000E32E3BE1F32E4CEA242E4BE1342E00E0A1
:104BD00010E0F101EC5AFB41FBA3EAA3D1018D9156
:104BE0001D01882309F49AC0F7014080518062803A
:104BF0007380F801E75CFD4F208131814281538150
:104C0000F801E355F34E60817181828193810E94A6
:104C10003FA920E030E040E05FE30E941DA59B013A
:104C2000AC01C301B2010E949FAB181644F4F80115
:104C3000EA55F84E85909590A590B49003C0812CCC
:104C4000912C5401F801E35DF44E208131814281C1
:104C50005381C301B2010E943EA99B01AC01C50171
:104C6000B4010E943EA94B015C0120E030E040EA23
:104C700051EC0E949FAB87FD29C020E030E040EA64
:104C800051E4C501B4010E94B7A41816FCF0D60186
:104C90002D913D914D915C91C501B4010E943EA9B9
:104CA0009B01AC01C301B2010E943FA9F7016083DF
:104CB000718382839383D6018D929D92AD92BC9233
:104CC00013978AA19BA10E941F3028C0E6ECFCE14B
:104CD00084918F010F5F1F4F882321F00E9433338F
:104CE000F801F6CFE2EEF7E084918F010F5F1F4FDE
:104CF000882321F00E943333F801F6CF88E290E058
:104D00009A83898388EC90E09F8B8E8BBE016F5FC6
:104D10007F4FCE0146960E94C3904AC2B4E0CB0EAC
:104D2000D11C0C5F1F4FE4E0EE0EF11C0C3011059E
:104D300009F04FCF0E9477300E94A97383E992E077
:104D40009F8B8E8B04E610E01A830983BE016A5E96
:104D50007F4FCE0101960E94C3908AEB92E09F8B19
:104D60008E8B1A830983BE016A5E7F4FCE01019646
:104D70000E94C3901DC20E9410651AC20E94EE5F7D
:104D800017C20E948F8314C283E50E943E3288239B
:104D900019F00E94FB3101C081E091E089270E9457
:104DA000D97F06C284918F010F5F1F4F882321F0A6
:104DB0000E943333F801F6CFEAE1F8E084918F01E5
:104DC0000F5F1F4F882311F40C94A81C0E943333EB
:104DD000F801F4CFE3E0F8E084918F010F5F1F4FFB
:104DE000882311F40C94DE1C0E943333F801F4CFB5
:104DF0004091A81B5091A91B6091AA1B7091AB1BFD
:104E000080E098E00E94725D0C94DE1C83E50E94B5
:104E10003E32811106C093E5E92E92E0F92E10E0B2
:104E200012C00E940B326B017C0110E0B701A60199
:104E3000812F0E94B9551F5F1530C1F7ECCF1F5F5E
:104E4000143009F4B5C1D7018D917D010E943E3225
:104E50008823A9F30E940B32AB01BC01812F0E9471
:104E6000B955EDCF83E50E946D32882321F00E9471
:104E7000D7318B0102C000E010E080E50E946D3266
:104E8000882319F00E94E73101C08FEF9091DC0672
:104E9000992309F48DC1E82FF0E0ED59FD4FE08131
:104EA000F0E0EE0FFF1FEC52F94FC8010130104146
:104EB00010F080E090E1918380830E94455588E066
:104EC0000E94345575C18091DC06882309F470C1B5
:104ED000E3EFFCE184918F010F5F1F4F882321F0E6
:104EE0000E943333F801F6CFE3E4F8E084918F01B8
:104EF0000F5F1F4F882321F00E943333F801F6CF54
:104F0000E3EFFCE184918F010F5F1F4F882321F0B5
:104F10000E943333F801F6CF6091D8067091D9061C
:104F200080E090E00E94BCA420E030E048EC52E435
:104F30000E941DA520E030E040E859E30E941DA535
:104F4000AB01BC018FE398E00E94725D80E00E949B
:104F50009855AB01BC018CE398E00E94725D6091B2
:104F6000DA067091DB0680E090E00E94BCA420E0AD
:104F700030E048EC52E40E941DA520E030E040E81B
:104F800059E30E941DA5AB01BC0187E398E00E9494
:104F9000725D81E00E949855AB01BC0184E398E00A
:104FA0000E94725D6091D4067091D50680E090E019
:104FB0000E94BCA420E030E048EC52E40E941DA511
:104FC00020E030E040E859E30E941DA5AB01BC01A0
:104FD0008FE298E00E94725D82E00E949855AB01DA
:104FE000BC018CE298E00E94725D6091D6067091DF
:104FF000D70680E090E00E94BCA420E030E048ECBE
:1050000052E40E941DA520E030E040E859E30E94F0
:105010001DA5AB01BC0187E298E00E94725D83E0B0
:105020000E949855AB01BC0184E298E00E94725D39
:105030000FE113E0F80181918F01882311F40C94A2
:10504000DE1C0E943333F6CF8091DC06882309F4FE
:10505000AFC00E94B798ACC080E50E946D32882333
:1050600031F00E94E7318093DE0611E001C010E0CC
:1050700083E50E946D32882329F00E94FB318093E2
:10508000DF0601C011110E949973E3EFFCE18491E6
:105090008F010F5F1F4F882321F00E943333F801E7
:1050A000F6CF8091DF0681110CC001E213E0D80138
:1050B0008D918D01882311F40C94DE1C0E943333F2
:1050C000F6CF6091DE0670E088E698E00E948F5D82
:1050D0008AE00E9433336CC081E08093010283E553
:1050E0000E943E32811103C00E948C9861C00E94D0
:1050F000FB3181115DC0F8CFF090ED04FF2029F164
:10510000E3EFFCE184918F010F5F1F4F882321F0B3
:105110000E943333F801F6CF84E50E9433336F2DBC
:1051200070E080E090E04AE00E947B3580E20E94DF
:10513000333302ED12E0F80181918F01882311F4DD
:105140000C94DE1C0E943333F6CF1092C71AE3EFA3
:10515000FCE184918F010F5F1F4F882321F00E9493
:105160003333F801F6CF6091C71A70E085E798E015
:105170000E948F5D8AE00E9433331AC0E3EFFCE1A6
:1051800084918F010F5F1F4F882321F00E943333DA
:10519000F801F6CF6091CF1A7091D01A87E898E0A5
:1051A0000E94A85D82E20E9433338AE00E9433337A
:1051B0001092C91A1092C81A0E946D985BC34115CB
:1051C000510519F4AF0141505109812C912C0C94D7
:1051D000B21080E00E94592D0E94133383E50E9493
:1051E0003E32882309F449C00E94FB3121E0482F58
:1051F000BE016F5F7F4FCE0146960E9445876B01CF
:105200007C019B01AC010E9431AC811131C02CEAC0
:1052100035EC47E257E36E897F89888D998D0E942E
:105220003FA9AB01BC0189EA92E00E94555D2CEADE
:1052300035EC47E257E369817A818B819C810E943A
:105240003FA9AB01BC0184EA92E00E94555D2CEAC3
:1052500035EC47E257E3C701B6010E943FA9AB0115
:10526000BC018FE992E00E94555D8AE00E943333D1
:105270000E94F9320E94A9739BCF81E0B7CFD7017A
:105280008C91882311F40C94F419E3EFFCE18491E0
:105290008F010F5F1F4F882321F00E943333F801E5
:1052A000F6CFF70181917F01882319F00E943333F3
:1052B000F8CF8AE00E9433330C94F41961E0812F17
:1052C0000E9450916E2D812F0E942091F12CB701E8
:1052D000812F0E948C91F7E0CF16D10409F068CF9E
:1052E000F0929A06E092990663CF0E940B320E94D8
:1052F000ABAA6E37710514F06DE770E07093AC05E2
:105300006093AB050E94063F0E940B3220E030E024
:1053100040EA50E40E949FAB181614F40E941086D5
:1053200081E0809300028091C71A809365031EA2DA
:105330001FA218A619A61BA61CA61DA61EA61AA269
:105340001FA6ECE3E9ABFCE1FDAB26E429AFC12CE1
:10535000D12CF0E8EF2EAFEBFA2E812C912C5401DA
:105360006091AB057091AC05072E000C880B990B72
:105370000E94BEA4162F072F782E692E262F372FB6
:10538000482F592FB601C7010E94B7A48823D1F036
:105390002091A6053091A7054091A8055091A90537
:1053A000612F702F872D962D0E94B7A4881F882704
:1053B000881F8AA3CAA4CC2049F0882339F08091A1
:1053C0000002F6CE1C2D0D2D7E2C6F2C0E948F928C
:1053D0006B017C01DC01CB012BA53CA54DA55EA595
:1053E000821B930BA40BB50BB7FD3BC0D701C601C5
:1053F00088519C4FAF4FBF4F8BA79CA7ADA7BEA7AF
:105400000E949676E8E2F3E084912F019FEF491A1B
:10541000590A882321F00E943333F201F5CF811419
:105420009104A104B104B9F0D501C401805F984D85
:10543000AF4FBF4FBC01CD016C197D098E099F098B
:1054400028EE33E040E050E00E94ABA8CA01B90169
:105450000E94253603C08FE30E9433338AE00E9406
:1054600033330E94146B0E94EE322090A6053090D8
:10547000A7054090A8055090A9059101A201612FB0
:10548000702F872D962D0E943EA99F77811491043D
:10549000A104B10449F420E030E040E85FE30E9459
:1054A000B7A487FF0BC008C020E030E040E450E420
:1054B0000E949FAB181614F446015701AAA1AA2313
:1054C00079F12EA13FA148A559A521153105410526
:1054D000510541F0D701C601821B930BA40BB50BFC
:1054E000B7FD1EC09101A2016FA579A98DA999AD43
:1054F0000E943EA920E030E040EC5FE30E94B7A4A8
:1055000087FD5DCFD701C601805A9541AF4FBF4F90
:105510008EA39FA3A8A7B9A72FA639AA4DAA59AEB3
:1055200080910002882309F44ACF81149104A104D8
:10553000B10429F4C12ED02EE72CF62C11CF90E126
:10554000C91A97E2D90AE108F108C818D908EA0887
:10555000FB08F7FE34CFEECF4FA558A91416150659
:105560000CF029C16E964CAC5DAC6EAC7FAC6E9706
:10557000480E591E6A1E7B1E6E962CAD3DAD4EAD7B
:105580005FAD6E97281B390B4A0B5B0BCA01B90143
:10559000A50194010E949BA8A30192010E94CDA89D
:1055A0008BA49CA4ADA4BEA4820E931EA41EB51E03
:1055B00034E183169104A104B1040CF14CEE84167D
:1055C0009104A104B1043CF450E885169104A104AF
:1055D000B1041CF105C07BEE872E912CA12CB12CBF
:1055E0008BA69CA6ADA6BEA68EEF90E0A0E0B0E094
:1055F00088199909AA09BB094C015D0112C024E16F
:1056000030E040E050E02BA73CA74DA75EA764E147
:10561000862E912CA12CB12C04C08BA69CA6ADA6E5
:10562000BEA64BA55CA56DA57EA58EE697E00E9463
:105630009F9FB501A40189E697E00E949F9F4DAD11
:105640005EAD23966FAD239727967FAD279782E6B1
:1056500097E00E94725D2B964FAD2B972F965FAD12
:105660002F9763966FAD639767967FAD67978BE5CE
:1056700097E00E94725D4FA558A9433051050CF484
:105680009AC0C501B4010E94BEA420E030E040E809
:1056900050E40E941DA56B017C012DAD3EAD23960B
:1056A0004FAD239727965FAD27972B966FAD2B971E
:1056B0002F967FAD2F9763968FAD639767969FADBB
:1056C00067970E943EA92BED3FE049E450E40E9419
:1056D0001DA520E030E040E05FE30E941DA59B0196
:1056E000AC01C701B6010E9439AA6B017C01C3015C
:1056F000B2010E94BEA42FE632E143E85AE30E94C1
:105700001DA52B013C01B701A60185E597E00E948C
:10571000725DB301A2018FE497E00E94725D2AE9F5
:1057200039E949E15FE3C701B6010E941DA56B019C
:105730007C019B01AC010E943FA9A30192010E9440
:1057400039AA69AB7AAB8BAB9CABA3019201C701C1
:10575000B6010E941DA520E030E040E05EE30E941B
:105760001DA56DAB7EAB8FAB98AFEFE3F7E08491F7
:105770003F015FEF651A750A882321F00E943333D9
:10578000F301F5CFB701A60189E397E00E94725DAE
:1057900049A95AA96BA97CA983E397E00E94725D8D
:1057A0004DA95EA96FA978AD8DE297E00E94725D68
:1057B0008AE00E9433338BA59CA5ADA5BEA5880DBC
:1057C000991DAA1DBB1DB595A79597958795EFEFD8
:1057D0002E163E0619F48093B10502C08093B205DF
:1057E0002FA538A92F5F3F4F38AB2FA739AD3DAF5D
:1057F0004AAD4EAF5BAD23965FAF23978CAD279636
:105800008FAF27974AA05BA06CA07DA091E0A796E0
:105810009FAFA7970C94C12301110C948B170E9482
:10582000E12D0C94A0170E94455660E08F2D0E9438
:1058300050910F3F2FEF120759F48F2D0E94F790D0
:1058400031E020E0892B09F030E0032F122F05C052
:105850000130110561F000E010E08F2D0E94F790FB
:105860008017910709F4A4CC0E94146BF6CF01E0D5
:1058700010E0F3CFC358DF4F0FB6F894DEBF0FBE72
:10588000CDBFDF91CF911F910F91FF90EF90DF90EF
:10589000CF90BF90AF909F908F907F906F905F90D0
:1058A0004F903F902F9008958FB7F8949091A81C37
:1058B0002091A71C291759F0E92FF0E0E95DF34E7C
:1058C000208130E09F5F9F779093A81C02C02FEF4C
:1058D0003FEF8FBFC90108950F931F93CF93DF93BD
:1058E000EC010E948F920E811F8128853985011558
:1058F00011052105310559F52C852223A9F13A8599
:1059000021502C8721E0230F2A874D85241301C0C5
:105910001A86FE0124E0329FE00DF11D1124068558
:105920001785208931890A831B832C833D83DC0101
:10593000CB01800F911FA11DB11D8E839F83A8876E
:10594000B9878C819D81892B79F0409A0DC0DC014B
:10595000CB01801B910BA20BB30BB7FD05C0409888
:105960001E821F8218861986DF91CF911F910F9199
:105970000895FF920F931F93CF93DF93FC01208133
:105980002B3319F1D0910E07D430F8F4F62EBC0168
:10599000C09116050C2F10E0F0E6CF9FC001112436
:1059A00085599C4F0E945CACF801E451F94FF0829C
:1059B000CF5FC43018F4C093160502C010921605CC
:1059C000DF5FD0930E0781E001C080E0DF91CF91CF
:1059D0001F910F91FF900895CF92DF92EF92FF9267
:1059E0006091C31A7091C41A072E000C880B990B92
:1059F0000E94BEA46B017C012DEB37E346E855EB1A
:105A00000E949FAB87FD0AC02DEB37E346E855E3C4
:105A1000C701B6010E94B7A418164CF4A70196015D
:105A200060E070E080E89FE30E9439AA03C060E074
:105A300070E0CB016093B91C7093BA1C8093BB1CBF
:105A40009093BC1C6091C51A7091C61A072E000C69
:105A5000880B990B0E94BEA46B017C012DEB37E3F0
:105A600046E855EB0E949FAB87FD0AC02DEB37E35C
:105A700046E855E3C701B6010E94B7A418164CF4D6
:105A8000A701960160E070E080E89FE30E9439AAD8
:105A900003C060E070E0CB016093BD1C7093BE1C3E
:105AA0008093BF1C9093C01CFF90EF90DF90CF902D
:105AB00008951F93CF93DF93CDB7DEB72C970FB622
:105AC000F894DEBF0FBECDBF882331F02091C31AFA
:105AD0003091C41A232B89F190915F06891769F1DF
