:100000000C943B100C946C100C946C100C946C10B1
:100010000C946C100C946C100C946C100C946C1070
:100020000C946C100C946C100C946C100C946C1060
:100030000C946C100C946C100C946C100C946C1050
:100040000C946C100C94D85B0C946C100C946C1089
:100050000C946C100C946C100C94D0870C94F59F3D
:100060000C946C100C9455350C9466370C946C10F1
:100070000C946C100C946C100C946C100C946C1010
:100080000C946C100C946C100C946C100C946C1000
:100090000C946C100C946C100C946C100C940984DF
:1000A0000C946C100C946C100C946C100C946C10E0
:1000B0000C946C100C946C100C946C100C946C10D0
:1000C0000C946C100C946C100C946C100C946C10C0
:1000D0000C946C100C946C100C946C100C946C10B0
:1000E0000C946C10A235A835B935C435CC35E13542
:1000F000D035E135D435D835E135DE353F364636B5
:1001000056366336703687367436873678367C36A0
:1001100087368436DC36E336F33600370D3724373E
:1001200011372437153719372437213798999B9978
:100130008A998E999499D2999F99A399A999AD99E1
:10014000B199B799BB99BF99D299C599C999CD99D8
:100150000F9F149F199F239F2D9FA69F379F3F9FFF
:10016000479F519F5B9F659F749F7E9FA69F889F1F
:10017000929F9C9F084AD73B3BCE016E84BCBFFD3B
:10018000C12F3D6C74319ABD56833DDA3D00C77F67
:1001900011BED9E4BB4C3E916BAAAABE0000008000
:1001A0003F05A84CCDB2D44EB93836A9020C50B98F
:1001B000918688083CA6AAAA2ABE000000803F00BB
:1001C0000C942D9F0C9411370C94479F0C940F9F07
:1001D0000C9422A80C947E9F0C94F3360C94A39953
:1001E0000C949B990C9421370C9400370C94A9998A
:1001F0000C94DC360C945B9F0C94A8350C946483AF
:100200000C9494990C94C9990C948A990C94A235E5
:100210000C94DE350C94149F0C9474360C943F3679
:100220000C94749F0C94239F0C94199F0C948E999A
:100230000C94AD990C94CD990C94B1990C94C599EA
:100240000C9441830C946C830C94519F0C945083B8
:100250000C94B7990C94659F0C949F990C94BB993E
:100260000C9424370C9415370C94636D0C94379FC1
:100270000C943F9F0C947C360C9470360C94B32CE9
:100280000C94929F0C94CC830C9446360C94BF999A
:100290000C9478360C94C4350C94D0350C949C9FF7
:1002A0000C94756D0C94A69F0C94D4350C94CC359D
:1002B0000C94E3360C9440830C9419370C94563606
:1002C0000C9484360C94D8350C949C830C94B935DA
:1002D0000C940D370C94889F0C9498990C94E135EC
:1002E0000C94D2990C9463360C948736434F4D4D41
:1002F000554E49434154494F4E0044525952554E70
:10030000004552524F525300494E464F0045434814
:100310004F0047322F473320626164207061726161
:100320006D65746572730A00205A3A200020593AAC
:10033000200042656420583A20004D6573682070A3
:100340006F696E742063616E6E6F742062652072D7
:1003500065736F6C7665640A005072696E74207400
:10036000696D653A2000000136372603FFFFFF352F
:100370003C3D38FF0EFFFF312E303E1312FFFFFFD2
:1003800028FFFF0807FFFF061A1C18FFFF2A084472
:100390000A0B4346696C616D656E74207573656404
:1003A0003A200053746174733A20002C204C6F6E15
:1003B00067657374206A6F623A2000546F74616CD1
:1003C0002074696D653A200053746174733A20009B
:1003D0002C204661696C65643A20002C2046696EC9
:1003E00069736865643A20005072696E74733A20CC
:1003F0000053746174733A20000D0308030103FA7B
:1004000002EC026F66660044454255473A004D31A2
:1004100031332053006F6B0020573A0020573A00C9
:10042000544845524D414C5F50524F5445435449F6
:100430004F4E004155544F5245504F52545F534414
:100440005F53544154555300454D455247454E4323
:10045000595F50415253455200434153455F4C4907
:100460004748545F4252494748544E4553530054FD
:100470004F47474C455F4C494748545300534F46FC
:1004800054574152455F504F574552004255494CD1
:10049000445F50455243454E54004C4556454C49E7
:1004A0004E475F44415441005A5F50524F4245000D
:1004B0004155544F4C4556454C005052494E545F9F
:1004C0004A4F420050524F475245535300415554F2
:1004D0004F5245504F52545F54454D5000564F4C6B
:1004E000554D455452494300454550524F4D0053D8
:1004F000455249414C5F584F4E5F584F4646004663
:1005000049524D574152455F4E414D453A4D6172FA
:100510006C696E20312E312E3920526F626F20525D
:100520003220776974682045334420563620534F73
:10053000555243455F434F44455F55524C3A6874AA
:100540007470733A2F2F6769746875622E636F6DCC
:100550002F526F626F33442F4D61726C696E205061
:10056000524F544F434F4C5F56455253494F4E3AAA
:10057000312E30204D414348494E455F5459504536
:100580003A20526F626F205232207769746820459A
:1005900033442056362045585452554445525F4303
:1005A0004F554E543A3120555549443A6365646578
:1005B000326132662D343161322D343734382D3981
:1005C0006231322D633535633632663336376666CF
:1005D0000A002F2F20007A5F6D61783A20007A5F41
:1005E0006D696E3A2000795F6D61783A2000785F1E
:1005F0006D696E3A20005265706F7274696E672083
:10060000656E6473746F70207374617475730A001F
:10061000205400205200416363656C657261746907
:100620006F6E3A2050005741524E494E4721204CA0
:100630006F77205A204A65726B206D6179206C6556
:10064000616420746F20756E77616E7465642070CC
:1006500061757365732E0A00546F6F206661722096
:1006600066726F6D207265666572656E6365207077
:100670006F696E740A00205A00205900580020202B
:100680004D61783A2000205A00205900580020205F
:100690004D696E3A20004F6E20004F666600536F22
:1006A000667420656E6473746F70733A200043291A
:1006B0000A0061626C656420286D696E2074656D46
:1006C000702000436F6C6420657874727564657384
:1006D00020617265200020643A0020693A00207091
:1006E0003A0043617365206C696768743A2000437F
:1006F000617365206C696768743A206F66660A00EA
:10070000426564204C6576656C696E6720004661C1
:10071000696C656420746F20656E61626C6520424F
:100720006564204C6576656C696E670A004D65737B
:100730006820706F696E742063616E6E6F742062E2
:1007400065207265736F6C7665640A004D343231D2
:1007500020696E636F727265637420706172616D7F
:10076000657465722075736167650A00454550526E
:100770004F4D204F4B0A003A200050726F626520A7
:100780005A204F6666736574003F5A206F75742057
:100790006F662072616E676520282D323020746F7D
:1007A000203230290A00290A002028002920453A51
:1007B0000020280029205A3A002028002920593AF0
:1007C0000020280020583A0053746570706572202C
:1007D00063757272656E742076616C7565732069DD
:1007E0006E20252028416D7073293A0A00416374F8
:1007F0006976652045787472756465723A2000499F
:100800006E76616C69642065787472756465720ACD
:10081000002569730025696D2025697300256968C5
:100820002025696D20256973002569642025696884
:100830002025696D20256973002569792025696463
:10084000202569682025696D2025697300656E7112
:1008500075657565696E672022004C696E65204E6E
:10086000756D626572206973206E6F74204C6173C0
:1008700074204C696E65204E756D6265722B312C4B
:10088000204C617374204C696E653A200050726987
:100890006E7465722073746F707065642064756522
:1008A00020746F206572726F72732E2046697820F3
:1008B000746865206572726F7220616E6420757352
:1008C00065204D39393920746F20726573746172F7
:1008D000742E202854656D70657261747572652080
:1008E00069732072657365742E2053657420697472
:1008F0002061667465722072657374617274696ECA
:1009000067290A004E6F20436865636B73756D201D
:1009100077697468206C696E65206E756D626572AA
:100920002C204C617374204C696E653A200063681A
:1009300065636B73756D206D69736D617463682C8D
:10094000204C617374204C696E653A20004D313142
:100950003000776169740A0020496E76616C6964C1
:1009600020657874727564657220000000000000D4
:100970000000000000000000004543000045430067
:100980000082434B494C4C45442E2000202D2049E9
:100990006E76616C69642065787472756465722026
:1009A0006E756D62657220210A002020506C616EA8
:1009B0006E657242756666657242797465733A2037
:1009C000002046726565204D656D6F72793A200092
:1009D000436F6D70696C65643A20417567203234ED
:1009E00020323031380A00207C20417574686F72E3
:1009F0003A2028726F626F290A00323031382D3068
:100A0000372D333100204C6173742055706461744C
:100A100065643A2000312E312E390A004D61726C26
:100A2000696E0020536F667477617265205265733A
:100A300065740A00205761746368646F67205265AB
:100A40007365740A002042726F776E206F75742090
:100A500052657365740A002045787465726E616C26
:100A60002052657365740A00506F77657255700A7D
:100A70000073746172740A00205A3A0020593A00D7
:100A800020583A00656E6473746F707320686974DF
:100A90003A200020746F6F206C6F6E672065787449
:100AA000727573696F6E2070726576656E746564B9
:100AB0000A0020636F6C6420657874727573696FC7
:100AC0006E2070726576656E7465640A006F6B00E7
:100AD00020746F6F206C6F6E672065787472757309
:100AE000696F6E2070726576656E7465640A0020A9
:100AF000636F6C6420657874727573696F6E2070B3
:100B0000726576656E7465640A00627573793A2061
:100B100070617573656420666F7220696E7075749C
:100B20000A00627573793A20706175736564206696
:100B30006F7220757365720A00627573793A20705E
:100B4000726F63657373696E670A004B494C4C455D
:100B5000442E20004B494C4C206361757365642022
:100B60006279204B494C4C20627574746F6E2F7003
:100B7000696E0A004B494C4C45442E20004B494CB1
:100B80004C2063617573656420627920746F6F20F7
:100B90006D75636820696E61637469766520746938
:100BA0006D65202D2063757272656E7420636F6DA4
:100BB0006D616E643A20005072696E7465722068CF
:100BC000616C7465642E206B696C6C2829206361EC
:100BD0006C6C6564210A00000000000000454300C1
:100BE00000824300005C4200005C42000040410083
:100BF0000000005761726E696E673A20486F6D6938
:100C00006E672042756D702044697669736F72203B
:100C10003C20310A000202040000A0400000A04075
:100C200000000040000045430000454300008243AF
:100C3000FF01014572726F722077726974696E6785
:100C400020746F20454550524F4D210A0024F4D4A2
:100C50003050C38E20C2A24017828B7011127A913D
:100C60000D816CD90AA861E108C758660761514334
:100C7000061E4B5D05C145A7041A411104093D98A4
:100C800003713931034036DB0265339102D43054AD
:100C900002802E1D02632CEE01752AC501B028A02A
:100CA00001102781018F2564012B244B01E02234A0
:100CB00001AC211F018D200D01801FFC00841EED61
:100CC00000971DDF00B81CD200E61BC600201BBC2D
:100CD00000641AB200B219A8000A19A0006A189993
:100CE00000D117910040178B00B516840031167E95
:100CF00000B31579003A157300C7146F0058146AD1
:100D000000EE1366008813630025135E00C7125BB4
:100D1000006C12570015125400C111510070114F90
:100D20000021114B00D61049008D10470046104499
:100D30000002104200C00F4000800F3E00420F3CF6
:100D400000060F3B00CB0E3800930E37005C0E35CB
:100D500000270E3400F30D3200C10D3100900D302C
:100D600000600D2E00320D2D00050D2C00D90C2B2E
:100D700000AE0C2900850C29005C0C2700350C27DF
:100D8000000E0C2600E80B2400C40B2400A00B234B
:100D9000007D0B23005A0B2100390B2100180B207A
:100DA00000F80A1F00D90A1E00BB0A1E009D0A1D7A
:100DB00000800A1D00630A1C00470A1B002C0A1B46
:100DC00000110A1A00F7091A00DD091900C40919EF
:100DD00000AB091900920917007B09180063091775
:100DE000004C09160036091600200916000A0915DC
:100DF00000F5081500E0081400CC081400B8081429
:100E000000A4081400900813007D0812006B08135A
:100E10000058081200460812003408110023081177
:100E2000001208110001081100F0071000E007107F
:100E300000D0071000C0071000B0070F00A1071076
:100E40000091070E0083070F0074070F0065070E5F
:100E50000057070E0049070E003B070D002E070E36
:100E60000020070D0013070D0006070D00F9060C02
:100E700000ED060D00E0060C00D4060C00C8060CC0
:100E800000BC060C00B0060C00A4060B0099060C72
:100E9000008D060B0082060B0077060B006C060B1C
:100EA0000061060A0057060B004C060A0042060ABB
:100EB0000038060A002E060A0024060A001A060A4E
:100EC000001006090007060A00FD050900F40509DF
:100ED00000EB050900E2050900D9050900D0050964
:100EE00000C7050900BE050900B5050800AD0508E5
:100EF00000A50509009C050800940508008C05085C
:100F000000840508007C050800740508006C0507CE
:100F100000650508005D050700560508004E050739
:100F200000470507004005080038050700310507A0
:100F3000002A050700230507001C05060016050703
:100F4000000F0507000805060002050700FB040660
:100F500000F5040700EE040600E8040600E20407BA
:100F600000DB040600D5040600CF040600C9040611
:100F700000C3040600BD040600B7040600B1040562
:100F800000AC040600A6040600A00405009B0406AD
:100F90000095040500900406008A040500850405F8
:100FA00000800406007A040500750405007004053D
:100FB000006B04050066040500610405005C04057F
:100FC0000057040500520405004D040500480405BF
:100FD00000430405003E0404003A040500350405FE
:100FE00000300404002C0405002704040023040539
:100FF000001E0404001A0404001604050011040471
:10100000000D0404000904050004040400000404A5
:1010100000FC030400F8030400F4030400F00304DC
:1010200000EC030400E8030400E4030400E003040C
:1010300000DC030400D8030400D4030400D003043C
:1010400000CC030400C8030300C503030024F40418
:10105000D9201BC40C5C0E9804C4095F026507719B
:1010600001F405F900FB04B30048048700C10369DB
:10107000005803550003034500BE023A00840231C4
:101080000053022A002902250004022000E4011C6A
:1010900000C8011900AF0117009801140084011362
:1010A00000710110006101100051010E0043010D9B
:1010B0000036010B002B010B0020010B001501096C
:1010C000000C01090003010800FB000800F3000800
:1010D00000EB000700E4000600DE000600D8000672
:1010E00000D2000600CC000500C7000500C20005C4
:1010F00000BD000400B9000400B5000400B1000404
:1011000000AD000400A9000400A5000300A2000334
:10111000009F0004009B000300980003009500025C
:101120000093000300900003008D0002008B000379
:101130000088000200860002008400030081000293
:10114000007F0002007D0002007B000200790002A7
:1011500000770001007600020074000200720001B6
:1011600000710002006F0002006D0001006C0002BF
:10117000006A0001006900020067000100660001CA
:1011800000650001006400020062000100610001CE
:1011900000600001005F0002005D0001005C0001D2
:1011A000005B0001005A00010059000100580001D5
:1011B00000570001005600010055000100540001D5
:1011C00000530000005300010052000100510001D3
:1011D00000500001004F0001004E0000004E0001D1
:1011E000004D0001004C0001004B0000004B0001CD
:1011F000004A0001004900010048000000480001C9
:1012000000470001004600000046000100450000C4
:1012100000450001004400010043000000430001BC
:1012200000420000004200010041000000410001B6
:1012300000400001003F0000003F0001003E0000B0
:10124000003E0001003D0000003D0001003C0000A8
:10125000003C0000003C0001003B0000003B00019E
:10126000003A0000003A0001003900000039000196
:10127000003800000038000000380001003700008E
:101280000037000100360000003600000036000183
:10129000003500000035000000350001003400007A
:1012A000003400000034000100330000003300006F
:1012B0000033000100320000003200000032000163
:1012C000003100000031000000310001003000005A
:1012D0000030000000300001002F0000002F00004F
:1012E000002F0000002F0001002E0000002E000043
:1012F000002E0001002D0000002D0000002D000038
:10130000002D0001002C0000002C0000002C00002B
:10131000002C0001002B0000002B0000002B00001F
:10132000002B0001002A0000002A0000002A000013
:10133000002A000100290000002900000029000007
:1013400000290000002900010028000000280000FA
:1013500000280000002800000028000100270000ED
:1013600000270000002700000027000000270001E0
:1013700000260000002600000026000000260000D5
:1013800000260001002500000025000000250000C7
:1013900000250000002500000025000100240000B9
:1013A00000240000002400000024000000240001AC
:1013B00000230000002300000023000000230000A1
:1013C0000023000000230000002300010022000091
:1013D0000022000000220000002200000022000085
:1013E0000022000100210000002100000021000077
:1013F0000021000000210000002100000021000168
:10140000002000000020000000200000002000005C
:10141000002000000020000000200000002000014B
:10142000001F0000001F0000001F0000001F000040
:10143000001F0000001F0000001F0001001E000030
:10144000001E0000001E0000001E00000004370007
:10145000001E290000511B00005810000010090058
:1014600000CC04000078020000410100000B0BFFDB
:10147000FFFFFF0000020202026265640A002C20E6
:1014800073797374656D2073746F70706564212057
:101490004865617465725F49443A20004265642082
:1014A00068656174696E67206661696C656400488F
:1014B000656174696E67206661696C6564004531B9
:1014C0002048656174696E67206661696C656400B7
:1014D00048656174696E67206661696C6564004B7C
:1014E000494C4C45442E200048617264636F64652A
:1014F000642044656661756C742053657474696E0C
:101500006773204C6F616465640A00B80B0000B813
:101510000B000064000000E8030000000096430098
:10152000009643000070410000C8410000A0420046
:1015300000A04200004844008011433A0A002028DD
:101540006D6D290020204D383531205A005A2D501C
:10155000726F6265204F66667365740020440020D8
:10156000490020204D3330342050002044002049D1
:101570000020204D33303120500050494420736505
:101580007474696E67733A0A00205A00204A00207A
:1015900020473239205720490020204D3432302056
:1015A00053004175746F20426564204C6576656C0C
:1015B000696E673A0A00205A0020590020204D32F7
:1015C0003036205800486F6D65206F66667365740D
:1015D0003A0A00204500205A0020590020580020D7
:1015E000540020530020204D323035204200204549
:1015F0003C6D61785F655F6A65726B3E0020583CA8
:101600006D61785F785F6A65726B3E20593C6D61F1
:10161000785F795F6A65726B3E205A3C6D61785FD6
:101620007A5F6A65726B3E00416476616E636564E1
:101630003A20423C6D696E5F7365676D656E745FDD
:1016400074696D655F75733E20533C6D696E5F66AE
:10165000656564726174653E20543C6D696E5F74AB
:10166000726176656C5F66656564726174653E0083
:1016700020540020520020204D32303420500041B0
:101680006363656C65726174696F6E2028756E693D
:1016900074732F7332293A20503C7072696E745FF4
:1016A000616363656C3E20523C7265747261637461
:1016B0005F616363656C3E20543C74726176656C57
:1016C0005F616363656C3E0A00204500205A00207C
:1016D000590020204D3230312058004D6178696D1D
:1016E000756D20416363656C65726174696F6E200E
:1016F00028756E6974732F7332293A0A00204500E9
:10170000205A0020590020204D3230332058004DFF
:101710006178696D756D2066656564726174657365
:101720002028756E6974732F73293A0A00204500CA
:10173000205A0020590020204D393220580053747F
:101740006570732070657220756E69743A0A0020A6
:10175000204D3230302044300A0020204D323030CD
:101760002044002044697361626C65640A00466924
:101770006C616D656E742073657474696E67733A1D
:10178000002020473231202020203B00486F6D6927
:101790006E67206661696C65640042696C696E659C
:1017A0006172204C6576656C696E6720477269646A
:1017B0003A0A0053756264697669646564207769E2
:1017C0007468204341544D554C4C20524F4D204C91
:1017D0006576656C696E6720477269643A0A002015
:1017E0002844525952554E290047323920417574C8
:1017F0006F20426564204C6576656C696E67003FBA
:1018000020284C2C522C462C4229206F7574206FB6
:101810006620626F756E64732E0A003F2856296534
:1018200072626F7365206C6576656C2069732069E0
:101830006D706C61757369626C652028302D342978
:101840002E0A00426164205A2076616C75650A0098
:101850004E6F2062696C696E65617220677269649F
:101860000A00454550524F4D206461746173697A96
:1018700065206572726F722E0A00290A0020627953
:101880007465733B20637263200053657474696EE2
:1018900067732053746F726564202800290A002042
:1018A00062797465733B2063726320002073746FE8
:1018B0007265642073657474696E677320726574F1
:1018C000726965766564202800202863616C637501
:1018D0006C6174656429210A0020213D2000454582
:1018E00050524F4D20435243206D69736D617463B4
:1018F00068202D202873746F72656429200020539E
:10190000697A653A2000496E6465783A2000204D76
:1019100061726C696E3D563535290A00284545507F
:10192000524F4D3D00454550524F4D2076657273E4
:10193000696F6E206D69736D6174636820001000BB
:10194000C90210012C014001220170011801B001EF
:101950000E01F00104015002FA00B002F000300361
:10196000E600D003DC009004D2007005C800A00699
:10197000BE000008B400B009AA00D00BA000600EA1
:10198000960060118C000015820020197800C01D9F
:101990006E00A0226400B0275A00902C5000003145
:1019A0004600E0343C0010383200903A2800603C99
:1019B0001E00A03D1400803E0A00203F00003002BF
:1019C000B400300D8C00900E870050108200201261
:1019D0007D0080147800A016730060196E00E01B73
:1019E0006900001F6400B0215F0090245A00502756
:1019F0005500302A5000E02C4B00602F46009031FB
:101A0000410060333C0090343700B036320030384B
:101A10002D00E0392800203B2300203C1E00103D13
:101A20001900B03D1400303E0F00903E0A00203FE8
:101A30000000F03FD8FF453120544845524D414CFD
:101A40002052554E41574159004245442054484583
:101A5000524D414C2052554E4157415900546865F2
:101A6000726D616C2052756E61776179004531202D
:101A70004572723A204D415854454D50004572729E
:101A80003A204D415854454D5020424544004D4167
:101A90005854454D502074726967676572656400DB
:101AA0004531204572723A204D494E54454D500003
:101AB0004572723A204D494E54454D50204245449E
:101AC000004D494E54454D502074726967676572E8
:101AD000656400202F002042403A0020403A002058
:101AE0005A3A0020593A0020436F756E7420583AD4
:101AF0000020453A00205A3A0020593A00583A004E
:101B00003A004361703A0020466C6F773A2000201B
:101B1000643A0020693A0020703A00496E76616CA0
:101B200069642065787472756465720A004B64207C
:101B30000023646566696E652044454641554C54F2
:101B40005F004B69200023646566696E652044452B
:101B50004641554C545F004B702000236465666914
:101B60006E652044454641554C545F005049442021
:101B70004175746F74756E652066696E697368650A
:101B800064212050757420746865206C6173742022
:101B90004B702C204B6920616E64204B6420636F76
:101BA0006E7374616E74732066726F6D2062656C03
:101BB0006F7720696E746F20436F6E666967757208
:101BC0006174696F6E2E680A005049442041757433
:101BD0006F74756E65206661696C65642120746937
:101BE0006D656F75740A00453120544845524D416A
:101BF0004C2052554E4157415900424544205448CB
:101C000045524D414C2052554E4157415900546860
:101C100065726D616C2052756E6177617900453136
:101C20002048656174696E67206661696C6564004F
:101C30004265642068656174696E67206661696CDD
:101C400065640048656174696E67206661696C65EA
:101C50006400504944204175746F74756E65206648
:101C600061696C6564212054656D7065726174757D
:101C7000726520746F6F20686967680A00204B6482
:101C80003A2000204B693A2000204B703A20000A8D
:101C900020436C617373696320504944200A00201B
:101CA00054753A2000204B753A2000206D61783A37
:101CB0002000206D696E3A200020643A20002062E6
:101CC0006961733A2000504944204175746F7475FE
:101CD0006E65206661696C656421204261642065DF
:101CE00078747275646572206E756D6265720A0033
:101CF000504944204175746F74756E65207374612A
:101D000072740A0050726F6265204F666673657464
:101D1000206973205A3A200050726F7465637465AD
:101D2000642050696E0A005374616E6461726420AD
:101D3000446576696174696F6E3A20002052616E65
:101D400067653A2000204D61783A2000204D696E89
:101D50003A20004D65616E3A200046696E697368ED
:101D60006564210A002072616E67653A2000206D6B
:101D700061783A2000206D696E3A2000207369670F
:101D80006D613A2000206D65616E3A20003A207A3C
:101D90003A2000206F662000205A00205900205869
:101DA00000476F696E6720746F3A00436C6F636B16
:101DB000776973650A00436F756E7465722D002034
:101DC000446972656374696F6E3A20002020206157
:101DD0006E676C653A20005374617274696E672097
:101DE0007261646975733A2000506F736974696F2A
:101DF0006E696E67207468652070726F62652E2E42
:101E00002E0A003F4E756D626572206F66206C650C
:101E1000677320696E206D6F76656D656E74206ED8
:101E20006F7420706C61757369626C652028302D49
:101E30003135292E0A003F2028582C5929206F754A
:101E400074206F6620626F756E64732E0A003F53B4
:101E5000616D706C652073697A65206E6F74207097
:101E60006C61757369626C652028342D3530292EBC
:101E70000A004D3438205A2D50726F626520526529
:101E8000706561746162696C6974792054657374FA
:101E90000A003F2856296572626F7365206C65766B
:101EA000656C20697320696D706C61757369626C13
:101EB000652028302D34292E0A000000220025003C
:101EC00028002B002E003100340002010000050123
:101ED00008010B01000020002300260029002C002F
:101EE0002F00320000010000030106010901050571
:101EF0000505070508080808020202020A0A080880
:101F000004040404010101010101010103030303AD
:101F100003030303040707070C0C0C0C0C0C0C0C3C
:101F20000202020206060606060606060B0B0B0B4D
:101F30000B0B0B0B01021020200808102040102072
:101F4000408002010201080402010102040810207D
:101F5000408080402010080402018004020180407B
:101F600020100804020108040201010204081020E4
:101F70004080010204081020408000000A0B020982
:101F80000C0D0E0807030401000000000000000013
:101F90000000000000000000000000000000000041
:101FA00000000000000012111000000000000000FE
:101FB0000000000000000000000000000000000021
:101FC000556E6B6E6F776E20636F6D6D616E643AE8
:101FD00020220050726F62696E67206661696C65CD
:101FE000640A00205A3A200020593A2000426564D1
:101FF00020583A20002066697273740A005A00590A
:10200000005800486F6D6520006563686F3A0045B1
:1020100072726F723A0000002100240027002A002B
:102020002D003000330001010000040107010A0106
:10203000526573656E643A20004E414E494E4954D4
:1020400059494E46CDCCCC3D0AD7233C17B7D138A1
:1020500077CC2B329595E6241FB14F0A0000204122
:102060000000C84200401C4620BCBE4CCA1B0E5A91
:10207000AEC59D7422A811241FBECFEFD1E2DEBFF2
:10208000CDBF00E00CBF13E0A0E0B2E0E8E2FAE66A
:1020900001E00BBF02C007900D92A432B107D9F73F
:1020A00027E1A4E2B3E001C01D92AD38B207E1F729
:1020B00010E1CBE3D0E100E006C021970109802FB9
:1020C000FE010E948CA8CA33D10780E00807A9F757
:1020D0000E948AA00C9412B50C9400002F923F929B
:1020E0004F925F926F927F928F929F92AF92BF9228
:1020F000CF92DF92EF92FF920F931F93CF93DF93D4
:10210000CDB7DEB7C556D1090FB6F894DEBF0FBE06
:10211000CDBF21E02093BB0B809154048D3411F48A
:102120000C943E19843511F40C942428873411F052
:102130000C94682880915204909153048D3191053C
:1021400009F415C6BCF4843091053CF48230910545
:10215000DCF597FF32C00C943A198430910509F4EC
:10216000D1C54C9711F00C943A1980E00E94E171AE
:102170000C946A288A32910509F4DFC66CF4833224
:10218000910509F4CDC68432910509F4CDC64E9768
:1021900011F00C943A19EFC58B35910509F4A9C7D4
:1021A0008C35910509F4A9C78A35910511F00C9475
:1021B0003A19109229030C946A28809140028111E7
:1021C0000C946F280C946A2820914002222311F469
:1021D0000C946A2811E0029709F010E00E942F6E1B
:1021E00082E50E94F330882309F43CC10E947930D3
:1021F0006B017C014090C2125090C3126090C412D7
:102200007090C5122091C6123091C7124091C81229
:102210005091C9122EA73FA748AB59AB8091D50B5F
:102220009091D60BA091D70BB091D80B8AAB9BABFA
:10223000ACABBDAB2091D90B3091DA0B4091DB0BED
:102240005091DC0B2AAF3BAF4CAF5DAF20E030E0EC
:10225000A901C701B6010E9489B0882309F438C5D5
:10226000A30192016AA97BA98CA99DA90E9489B0AA
:1022700081110DC02EA53FA548A959A96AAD7BAD16
:102280008CAD9DAD0E9489B0882309F421C520E062
:1022900030E0A901C701B6010E9489B0881F8827D4
:1022A000881F18130BC080E090E0A0E8BFE32A96D7
:1022B0008CAF9DAFAEAFBFAF2A970AC020E030E031
:1022C00040E85FEB2A962CAF3DAF4EAF5FAF2A9749
:1022D000A30192016AA97BA98CA99DA90E9494A837
:1022E00022966CAF7DAF8EAF9FAF22972EA53FA5F4
:1022F00048A959A96AAD7BAD8CAD9DAD0E9494A84B
:1023000026966CAF7DAF8EAF9FAF269722962CADF1
:102310003DAD4EAD5FAD2297CA01B9010E94EFB04D
:102320004B015C0126962CAD3DAD4EAD5FAD2697C1
:10233000CA01B9010E94EFB09B01AC01C501B40113
:102340000E9495A80E9443AB6EAB7FAB88AF99AF5C
:1023500020E030E040E05FE30E94EFB04B015C0121
:10236000A7019601C701B6010E94EFB06B017C0185
:10237000A5019401C501B4010E94EFB09B01AC011D
:10238000C701B6010E9494A80E9443AB9B01AC0117
:102390002A966CAD7DAD8EAD9FAD2A970E94EFB0B1
:1023A0004B015C012AA93BA94CA95DA9C301B2015B
:1023B0000E9495A820E030E040E05FE30E94EFB08B
:1023C0006B017C0126966CAD7DAD8EAD9FAD2697E1
:1023D00090582EA93FA948AD59AD0E948FA99B01E5
:1023E000AC01C501B4010E94EFB09B01AC01C70173
:1023F000B6010E9495A8A30192010E9494A86B01C6
:102400007C012AAD3BAD4CAD5DAD6EA57FA588A925
:1024100099A90E9495A820E030E040E05FE30E9487
:10242000EFB02B013C012EA93FA948AD59AD229632
:102430006CAD7DAD8EAD9FAD22970E948FA99B01A3
:10244000AC01C501B4010E94EFB09B01AC01C30116
:10245000B2010E9495A82EA53FA548A959A90E949E
:1024600094A814C089E40E94F330882329F00E94C4
:1024700079306B017C0103C0C12CD12C76018AE438
:102480000E94F3308823D9F00E9479306AAF7BAF85
:102490008CAF9DAF20E030E0A901C701B6010E94DA
:1024A00089B081111AC020E030E0A9016AAD7BAD8E
:1024B0008CAD9DAD0E9489B081110FC009C420E090
:1024C00030E0A901C701B6010E9489B0882309F450
:1024D000FFC31AAE1BAE1CAE1DAED701C601B0586D
:1024E0008EA79FA7A8ABB9AB2AAD3BAD4CAD5DADF8
:1024F00050582AAB3BAB4CAB5DAB9C01AD01BC0172
:10250000CD010E94EFB04B015C012AA93BA94CA967
:102510005DA9CA01B9010E94EFB09B01AC01C501E0
:10252000B4010E9495A80E9443AB66966CAF7DAF44
:102530008EAF9FAF66978091C2129091C312A09107
:10254000C412B091C5128EAB9FABA8AFB9AFA701B3
:102550009601BC01CD010E9495A82A966CAF7DAF73
:102560008EAF9FAF2A972091C6123091C71240912B
:10257000C8125091C91222962CAF3DAF4EAF5FAF3B
:1025800022972AAD3BAD4CAD5DAD22966CAD7DADD5
:102590008EAD9FAD22970E9495A86A966CAF7DAFD5
:1025A0008EAF9FAF6A978091D50B9091D60BA0917B
:1025B000D70BB091D80B26968CAF9DAFAEAFBFAF07
:1025C00026972A962CAD3DAD4EAD5FAD2A97BC0146
:1025D000CD010E9494A86B017C012091D90B309110
:1025E000DA0B4091DB0B5091DC0B2E962CAF3DAFFC
:1025F0004EAF5FAF2E976A962CAD3DAD4EAD5FAD41
:102600006A972E966CAD7DAD8EAD9FAD2E970E94D4
:1026100094A84B015C018091CA129091CB12A091B9
:10262000CC12B091CD1262968CAF9DAFAEAFBFAF62
:1026300062979C01AD016091DD0B7091DE0B809182
:10264000DF0B9091E00B0E9494A82B013C0120919C
:10265000E10B3091E20B4091E30B5091E40BA29619
:102660002CAF3DAF4EAF5FAFA2978091CE1290914D
:10267000CF12A091D012B091D1126E968CAF9DAFB7
:10268000AEAFBFAF6E97A70196016EA57FA588A9D3
:1026900099A90E94EFB0A6966CAF7DAF8EAF9FAFA9
:1026A000A697A50194016AA97BA98CA99DA90E945E
:1026B000EFB09B01AC01A6966CAD7DAD8EAD9FAD2C
:1026C000A6970E9495A8A6966CAF7DAF8EAF9FAFE0
:1026D000A697A50194016EA57FA588A999A90E9436
:1026E000EFB04B015C01A70196016AA97BA98CA9F7
:1026F0009DA90E94EFB09B01AC01C501B4010E94ED
:1027000094A8A6962CAD3DAD4EAD5FADA6970E94A8
:1027100014A96B017C0120E030E0A9010E9489B07E
:1027200087FF0AC02BED3FE049EC50E4C701B6013A
:102730000E9495A86B017C01112351F02BED3FE025
:1027400049EC50E4C701B6010E9494A86B017C01DA
:1027500020E030E0A901C701B6010E9489B08111D3
:1027600026C026962CAD3DAD4EAD5FAD26976EA929
:102770007FA988AD99AD0E9489B0811118C02E96AD
:102780002CAD3DAD4EAD5FAD2E9722966CAD7DADBF
:102790008EAD9FAD22970E9489B0811108C00BEDCC
:1027A000C02E0FE0D02E09ECE02E00E4F02EA701A1
:1027B000960166966CAD7DAD8EAD9FAD66970E941D
:1027C000EFB04B015C0120E030E0A901C301B20190
:1027D0000E9489B08823C9F0A5019401C501B40104
:1027E0000E94EFB04B015C01A3019201C301B20151
:1027F0000E94EFB09B01AC01C501B4010E9495A8F5
:102800000E9443AB4B015C010DC020E030E0A90108
:10281000C501B4010E94F5AA87FF04C0B7FAB094BD
:10282000B7F8B0942FE632E143E85AE3C501B401AA
:102830000E9489B087FF02C00C946A28C501B401C8
:102840000E9437AA0E9408AA1B01672B19F42224B0
:102850002394312CB10180E090E00E948EB04B01B6
:102860005C019B01AC01C701B6010E948FA96EAB50
:102870007FAB88AF99AFA5019401C301B2010E945B
:102880008FA966966CAF7DAF8EAF9FAF66976E9641
:102890002CAD3DAD4EAD5FAD6E97A2966CAD7DADEE
:1028A0008EAD9FADA2970E9494A8A50194010E94AD
:1028B0008FA9A2966CAF7DAF8EAF9FAFA2972EA9C6
:1028C0003FA948AD59ADCA01B9010E94EFB020E05F
:1028D00030E040E05FE30E94EFB09B01AC0160E0BC
:1028E00070E080E89FE30E9494A82E966CAF7DAFC5
:1028F0008EAF9FAF2E9762962CAD3DAD4EAD5FADC6
:10290000629729873A874B875C876E968CAD9DAD21
:10291000AEADBFAD6E978D879E87AF87B88B609148
:10292000280270912902072E000C880B990B0E9437
:1029300090B020914A0230914B0240914C0250914C
:102940004D020E94EFB02AE037ED43E25CE30E94C3
:10295000EFB06AA77BA78CA79DA70E94E99F9B0168
:10296000AC0128533F4F4F4F5F4F62962CAF3DAFA6
:102970004EAF5FAF62974EA45FA468A879A841E00C
:1029800050E024965FAF4EAF249759E15EAF249696
:102990002EAD3FAD24972215330509F43EC10E94A8
:1029A00086590E94E99FDC01CB0162962CAD3DADBA
:1029B0004EAD5FAD6297821B930BA40BB50BB7FDB9
:1029C00010C00E94E99F9B01AC0128533F4F4F4F1D
:1029D0005F4F62962CAF3DAF4EAF5FAF62970E94E4
:1029E000AC4B3EAD31503EAF332309F441C02E967F
:1029F0002CAD3DAD4EAD5FAD2E976AA97BA98CA9DC
:102A00009DA90E94EFB06B017C012EA93FA948ADA2
:102A100059ADB201C3010E94EFB0A70196010E9417
:102A200095A87B018C012E962CAD3DAD4EAD5FADD2
:102A30002E97B201C3010E94EFB04B015C012EA999
:102A40003FA948AD59AD6AA97BA98CA99DA90E944F
:102A5000EFB09B01AC01C501B4010E9494A82B0109
:102A60003C01C701D8018AAB9BABACABBDAB53C03B
:102A700024964EAD5FAD2497BA0180E090E00E94AD
:102A80008EB02EA93FA948AD59AD0E94EFB04B01C1
:102A90005C010E948AA96B017C01C501B4010E94FE
:102AA00035AB4B015C01A70196016EA57FA588A9F6
:102AB00099A90E94EFB02B013C01A50194016AADD8
:102AC0007BAD8CAD9DAD0E94EFB09B01AC01C3010D
:102AD000B2010E9495A82B013C01A50194016EA5AD
:102AE0007FA588A999A90E94EFB04B015C01A701BD
:102AF00096016AAD7BAD8CAD9DAD0E94EFB09B01A0
:102B0000AC01C501B4010E9494A86AAB7BAB8CAB4D
:102B10009DAB59E15EAF9201A3012A966CAD7DADEC
:102B20008EAD9FAD2A970E9495A869837A838B8387
:102B30009C832AA93BA94CA95DA96A966CAD7DAD81
:102B40008EAD9FAD6A970E9495A86D837E838F831B
:102B5000988766962CAD3DAD4EAD5FAD66976985A5
:102B60007A858B859C850E9495A869877A878B8753
:102B70009C87A2962CAD3DAD4EAD5FADA2976D8505
:102B80007E858F8598890E9495A86D877E878F871F
:102B9000988B80912702882321F0CE0101960E9414
:102BA0006D49E090BA0B1AA21BA21CA21DA289813A
:102BB0009A81AB81BC818E8B9F8BA88FB98F8D81C1
:102BC0009E81AF81B8858A8F9B8FAC8FBD8F8985A1
:102BD0009A85AB85BC858E8F9F8FA8A3B9A3AE01C4
:102BE000425E5F4FBE01665E7F4FCE0146960E94F9
:102BF0009D63CE0182966C018E01065D1F4F9E0182
:102C0000235F3F4FAE01425E5F4FBE01665E7F4F66
:102C10000C970E946539811151C0E090BA0B1EA239
:102C20001FA218A619A68091D50B9091D60BA09142
:102C3000D70BB091D80B8E8B9F8BA88FB98F8091BB
:102C4000D90B9091DA0BA091DB0BB091DC0B8A8F42
:102C50009B8FAC8FBD8F8091DD0B9091DE0BA0918F
:102C6000DF0BB091E00B8E8F9F8FA8A3B9A3AE01AD
:102C7000425E5F4FBE01665E7F4FCE0146960E9468
:102C80009D63DE0196966D018E01065D1F4F21EE5C
:102C90003BE0AE01425E5F4FBE01665E7F4FCE01FC
:102CA00046960E94653980E1E5EDFBE0A2ECB2E1D9
:102CB00001900D928A95E1F70C946A282496EEAD66
:102CC000FFAD249731962496FFAFEEAF24975FCEE9
:102CD000EFE0F0E284918F010F5F1F4F882321F016
:102CE0000E94CA31F801F6CFE2E1F3E084918F014E
:102CF0000F5F1F4F882311F40C946A280E94CA3179
:102D0000F801F4CF80E50E94F330882329F00E9477
:102D100035306B017C0103C0C12CD12C760183E5D9
:102D20000E94F330882361F00E94793020E030E087
:102D30004AE754E40E94EFB00E9408AA6B017C01AC
:102D40000E9437630E94E99FC60ED71EE81EF91E37
:102D50000E94E99FDC01CB018C199D09AE09BF09D6
:102D6000B7FD02C00C946A280E94AC4BF1CF0E94C0
:102D7000D7730C946A28C090C212D090C312E0900E
:102D8000C412F090C51288E50E94F330811109C089
:102D900020E030E040E050E4C701B6010E9495A871
:102DA00002C00E9479306E8B7F8B888F998FC09084
:102DB000C612D090C712E090C812F090C91289E5EF
:102DC0000E94F330811109C020E030E040EF51E46F
:102DD000C701B6010E9495A802C00E9479309B01EC
:102DE000AC0169837A838B839C836E897F89888D0C
:102DF000998D0E94E14A882311F40C946A2880E09E
:102E00000E9491710E944C2D85E40E94F33088232A
:102E100021F00E946930182F04C085E40E94AC3074
:102E200011E086E50E94F330882321F00E944530AE
:102E3000262F01C021E0412FBE016F5F7F4FCE01E1
:102E400046960E94E79B6B017C019B01AC010E94AE
:102E500087AB81115FC08E889F88A88CB98C20E0D9
:102E600030E0A901C501B4010E9489B087FD05C009
:102E700027E137EB41E558E304C027E137EB41E5B3
:102E800058EBC501B4010E9495A8AB01BC0182E3D7
:102E900093E00E941A6389809A80AB80BC8020E016
:102EA00030E0A901C501B4010E9489B087FD05C0C9
:102EB00027E137EB41E558E304C027E137EB41E573
:102EC00058EBC501B4010E9495A8AB01BC018DE28D
:102ED00093E00E941A6320E030E0A901C701B60127
:102EE0000E9489B087FD05C027E137EB41E558E333
:102EF00004C027E137EB41E558EBC701B6010E945A
:102F000095A8AB01BC0188E293E00E941A638AE0B5
:102F10000E94CA310E94332D0E9413920C946A2899
:102F20000E9470980C946A2881E00E94E1710E94CE
:102F300070980E94D7730C946A288091400288236D
:102F400011F40C946A2889E40E94F330182F882326
:102F500021F00E944530E62E01C0E12C8AE40E9457
:102F6000F330082F882331F00E944530F62E1111DE
:102F700004C00BC0F12C1123C1F032E03E1510F05B
:102F80000C94512CEAE3F3E004C042E04F15D0F377
:102F90000CC084918F010F5F1F4F882311F40C9494
:102FA0006A280E94CA31F801F4CF0E94C03111236F
:102FB000F1F02091E5113091E6115E2D5203B00140
:102FC000539F700D11248091241290912512680F47
:102FD000791F072E000C880B990B0E9490B060930C
:102FE000D50B7093D60B8093D70B9093D80B0023FF
:102FF000F1F02091E7113091E8114F2D4203B0011B
:10300000439F700D11242091261230912712620FD8
:10301000731F072E000C880B990B0E9490B06093D1
:10302000D90B7093DA0B8093DB0B9093DC0B80E56C
:103030000E94F3308823E9F00E9469308823A9F1C7
:103040001123D9F020E030E040E050E46091D50B4E
:103050007091D60B8091D70B9091D80B0E9494A8B9
:103060006093D50B7093D60B8093D70B9093D80BAE
:1030700004C080E50E94AC30E1CF0023B1F020E035
:1030800030E040EF51E46091D90B7091DA0B809100
:10309000DB0B9091DC0B0E9494A86093D90B70938A
:1030A000DA0B8093DB0B9093DC0B86E40E94F33009
:1030B0008823D9F00E9479306B017C0120E030E058
:1030C000A9010E94F5AA181684F420E030E040E738
:1030D00052E4C701B6010E948FA960934A0270931F
:1030E0004B0280934C0290934D020E94D74F0C9458
:1030F0006A28209329030C946A28A9E52A2EA2E0C5
:103100003A2EB9ECCB2EBBE0DB2EE12CF12C00E00B
:1031100010E0D1018D911D010E94F330882309F444
:103120004EC00E9479302B013C01133059F0F70159
:10313000EE54FD4E20813181428153810E9494A83A
:103140002B013C01F701EE53FD4E2081318142817C
:103150005381C301B2010E9494A84B015C012DEB85
:1031600037E346E855EB0E94F5AA87FD0AC02DEB30
:1031700037E346E855E3C501B4010E9489B018164B
:10318000F4F4133051F44092CE125092CF12609268
:10319000D0127092D11201E012C0A5019401F60183
:1031A00060817181828193810E9495A8D6016D937F
:1031B0007D938D939C931397812F0E94632F1F5FA4
:1031C000B4E0CB0ED11CE4E0EE0EF11C143009F09B
:1031D000A0CF002309F44AC02091D10A3091D20A2D
:1031E0004091D30A5091D40A6091CE127091CF12BF
:1031F0008091D0129091D1120E94EFB00E9402AB48
:1032000060935513709356138093571390935813EC
:103210009091331380913413981719F00E94A846A7
:1032200025C00E94376380916F0081FB992790F938
:1032300081FF05C080916F008D7F80936F0040916A
:103240005513509156136091571370915813409332
:103250003C1150933D1160933E1170933F1199239F
:1032600029F080916F00826080936F000E9413921A
:103270000C946A280E940F9E0C946A288091520434
:10328000909153048B39910509F45AC40CF0A9C0EC
:103290008C35910509F467C50CF05DC08B34910540
:1032A00009F437C2BCF58231910509F40CC5B4F4B8
:1032B00097FF02C00C942128823091050CF464C160
:1032C000419711F00C9421285F988A988091080109
:1032D00081708093060112980C946A288A329105B5
:1032E00009F4EEC18033910509F40FC24F9711F034
:1032F0000C9421280E94DD5A6E8B7F8B888F998FCA
:10330000BE016F5F7F4FCE0146960E940031E9E01B
:10331000F0E2C0C18135910509F4BCC464F48D3478
:10332000910509F40FC20CF4F8C18E34910509F42B
:103330000DC20C9421288335910509F4BFC40CF407
:10334000B9C48435910509F4BEC48535910509F4E5
:10335000EFC40C9421288137910509F4AAC3FCF429
:103360008B36910509F484C464F48936910509F417
:10337000CCC30CF05FC48836910509F4E9C20C9403
:1033800021288E36910509F410C38F36910509F472
:103390001FC38D36910511F00C942128F8C3863790
:1033A000910509F4CDC56CF48337910509F46AC51C
:1033B0000CF462C58537910511F40C946A280C94BD
:1033C00021288837910509F48CC60CF406C6893784
:1033D000910509F48DC68C38910509F4F6C30C9457
:1033E00021288336F1E09F0711F40C94A6240CF0F9
:1033F0005FC0833D910511F40C94E6224CF58B3CA3
:10340000910509F4E5C674F4883C910509F476C683
:10341000893C910509F4BAC68E3B910511F00C94D4
:103420002128F1C38D3C910509F465C70CF4EEC663
:103430008E3C910511F00C942128A9E5CA2EA2E03A
:10344000DA2EB6E1EB2EB4E0FB2E10E00C94022253
:103450008C3231E0930711F40C94CC239CF48D3D15
:10346000910511F40C94C623823E910511F40C943D
:10347000C9238C3D910511F00C9421280E94C39121
:103480000C946A288E3251E0950711F40C94D223E3
:1034900014F40C94CF238F32B1E09B0711F40C94F9
:1034A00026248033914011F40C9429240C94212873
:1034B000863FF1E09F0711F40C944F26C4F5843A3F
:1034C00031E0930711F40C94F324ACF4813951E00A
:1034D000950711F40C94E7248239A1E09A0711F4BE
:1034E0000C94ED248039914011F00C9421280E9415
:1034F00037630C946A288C3AE1E09E0709F495C77B
:103500003CF4853A914011F40C94B6250C94212892
:10351000843F31E0930711F40C944C26853F914091
:1035200011F00C9421280E94417E0C946A288B385B
:1035300053E0950711F40C94E72684F4883FB1E03A
:103540009B0711F40C945E2614F40C9452268335D8
:10355000934011F40C9481260C9421288D3823E09B
:10356000920711F40C94442714F40C9413278E380A
:1035700043E0940711F40C940628873E934011F41D
:103580000C940E280C9421280091500410915104A1
:1035900080E50E94F330882361F00E9435306B0192
:1035A0007C01BB24B394672B682B692B31F4B12CBD
:1035B00004C0B12CC12CD12C760183E50E94F330DC
:1035C000882311F40C9474280E94793020E030E0B4
:1035D0004AE754E40E94EFB00E9408AA6B017C0104
:1035E000B1100BC0672B682B692B39F4011511053D
:1035F00021F0D8018C91811102C0B12C02C0BB24F2
:10360000B3940E943763BB20C1F0E9E0F0E28491FB
:103610005F01BFEFAB1ABB0A882321F00E94CA31B9
:10362000F501F5CFF80181918F01882319F00E94EF
:10363000CA31F8CF8AE00E94CA3183E08093BB0B85
:1036400081E080932403C114D104E104F104D9F092
:103650000E94E99FC60ED71EE81EF91E0E94E99F30
:10366000DC01CB018C199D09AE09BF09B7FD04C06F
:10367000109224030C946A28809124038823C1F3B8
:103680000E94AC4BEBCF80912403882389F30E94E6
:10369000AC4BF9CF84918F010F5F1F4F882321F02E
:1036A0000E94CA31F801F6CFBE016F5F7F4F89E5F6
:1036B00093E00E94C3378AE00E94CA310C946A28C2
:1036C00083E50E94F330882311F40C946A280E9449
:1036D0005530E82E80E50E94F330882339F00E94AF
:1036E0005530182F87FF03C00C946A2815E0E6E6D2
:1036F000F3E08DE28E0F9491191711F40C94792850
:1037000031968E13F8CF0C947C280E9400930C9471
:103710006A280E94EB370C946A288091D403813088
:1037200011F00C946A2882E08093D4030E94E99FF0
:103730006093CC037093CD038093CE039093CF031B
:103740000C946A280E9449380C946A2883E50E94E8
:10375000F330811103C0E1EFF3E009C00E9445306E
:103760006E347105C1F70E94BA380C946A288491AE
:103770008F010F5F1F4F882321F00E94CA31F8018B
:10378000F6CFE8EEF3E084918F010F5F1F4F88239F
:1037900021F00E94CA31F801F6CF6091D6037091F2
:1037A000D70380E090E04AE00E941A34EBEDF3E0AA
:1037B00084918F010F5F1F4F882321F00E94CA312F
:1037C000F801F6CF6091D8037091D90380E090E0C2
:1037D0004AE00E941A34E0EDF3E084918F010F5F1C
:1037E0001F4F882321F00E94CA31F801F6CF609163
:1037F000D6037091D7038091D8039091D903681BA9
:10380000790B8091D403815021E030E0823010F0B8
:1038100020E030E0621B730B80E090E04AE00E9401
:103820001A348AE00E94CA31E8ECF3E084918F01F7
:103830000F5F1F4F882321F00E94CA31F801F6CF95
:103840008091DA039091DB03A091DC03B091DD035A
:103850008E8B9F8BA88FB98FBE016F5F7F4FCE017C
:1038600046960E940031EBEBF3E084918F010F5FED
:103870001F4F811106C09E012F5F3F4F79018901C3
:1038800004C00E94CA31F801F0CFD8018D918D019A
:10389000882319F00E94CA31F8CF8091DE039091FD
:1038A000DF03A091E003B091E1038E8B9F8BA88F83
:1038B000B98FBE016F5F7F4FCE0146960E940031E7
:1038C000EBEAF3E084918F010F5F1F4F882321F013
:1038D0000E94CA31F801F6CFF70181917F01882358
:1038E00019F00E94CA31F8CF8AE00E94CA31E3EA97
:1038F000F3E084918F010F5F1F4F882321F00E9416
:10390000CA31F801F6CFE3E9F3E084918F010F5F4C
:103910001F4F882321F00E94CA31F801F6CF20E022
:1039200030E04AE754E46091E2037091E303809150
:10393000E4039091E5030E948FA942E00E94E034E5
:103940008DE60E94CA318AE00E94CA310C946A282E
:1039500088E690E00E94823481110C946A2880915C
:10396000550483FF02C00C946A2883E50E94F3305B
:103970008823B9F00E9479300E9401AA70934912FD
:103980006093481280E00E9441890E94793020E0D3
:1039900030E04AEA52E40E9489B0181614F00E94FE
:1039A00049380E94CB380C946A288EE40E94F33088
:1039B000882311F40C946A280E94453060932013E8
:1039C0007093211380932213909323130C946A28ED
:1039D00083E50E94AC30882359F083E50E94F330E0
:1039E000882319F00E94553001C080E0809355046F
:1039F000E9E0F0E284918F010F5F1F4F882321F0EF
:103A00000E94CA31F801F6CFE7E0F4E084918F011B
:103A10000F5F1F4F882321F00E94CA31F801F6CFB3
:103A2000809155048823A1F1F9EFCF2EF3E0DF2E2A
:103A3000E12CF12C20E08091550490E00E2C02C086
:103A4000959587950A94E2F780FF17C0BB24B3943D
:103A5000B20E222319F08CE20E94CA31F6012591A0
:103A60003491F901849189010F5F1F4F882321F060
:103A70000E94CA319801F5CF2B2DFFEFEF1AFF0AF4
:103A800032E0C30ED11C45E0E416F104A1F60CC0EF
:103A9000E3E0F4E084918F010F5F1F4F882321F052
:103AA0000E94CA31F801F6CF8AE00E94CA310C9414
:103AB0006A2883E50E94F330882369F00E9455301C
:103AC0008D3320F480932A020C946A288CE380932F
:103AD0002A020C946A28E9E0F0E284918F010F5FDA
:103AE0001F4F882321F00E94CA31F801F6CF409180
:103AF0002A0250E060E070E08EE094E00E94FD62F7
:103B00008AE00E94CA310C946A2889E690E00E94FB
:103B10008234811111C0E5E1F4E084918F010F5FDF
:103B20001F4F882321F00E94CA31F801F6CF0E946E
:103B3000FB858AE00E94CA311092BB0B0C94582C72
:103B400083E50E94F330882311F40C946A280E94C4
:103B50005530182F8D3308F01CE31093C80B0E94CA
:103B6000E99F6B017C01212F30E0A8EEB3E00E94B9
:103B700003B5C60ED71EE81EF91EC092C40BD09224
:103B8000C50BE092C60BF092C70B0C946A288DE629
:103B900090E00E94823481110C946A28809155042F
:103BA00083FF02C00C946A2883E50E94F3302796B5
:103BB0008FAF279781110C94902882E50E94F330F3
:103BC00081110C9490280C946A288091550483FFED
:103BD00002C00C946A2883E50E94F330882311F414
:103BE0000C946A280E9479300E9401AA6E367105F1
:103BF00014F06EE670E070934312609342120E94DC
:103C0000F6880C946A288091550483FF02C00C94B6
:103C10006A2883E50E94F33027968FAF279781119A
:103C20000C94102A82E50E94F33081110C94102A22
:103C30000C946A2880E50E94F330811106C083E568
:103C40000E94F330882361F006C00E945530811134
:103C50000C946A28F4CF0E9445306F3F710510F034
:103C60006FEF70E07093930A6093920A0C946A2845
:103C700080E50E94F330811106C01092930A1092E1
:103C8000920A0C946A280E944530672B11F00C941C
:103C90006A28F3CF0E948C890E9447631092930A8E
:103CA0001092920A68EE73E080E090E00E943B85FB
:103CB0000C946A28109228030C946A2881E080935F
:103CC00028030C946A2883E50E94F3308823A1F02E
:103CD0000E94793020E030E04AE754E40E94EFB0DF
:103CE0000E9408AA60932B0270932C0280932D02ED
:103CF00090932E020C946A2888E50E94AC308111C2
:103D00000C94952B89E50E94AC3081110C94952B75
:103D10008AE50E94AC3081110C94952B85E40E94B9
:103D2000AC3081110C94952B0E9447630C946A2847
:103D300083E50E94AC30882311F40C946A280E9419
:103D4000793020E030E04AE754E40E94EFB00E946E
:103D500008AA6093C00B7093C10B8093C20B909321
:103D6000C30B0C946A2839E5C32E32E0D32E45EC00
:103D7000E42E4AE0F42E10E0D6018D916D010E94F0
:103D8000AC30882309F46DC0133009F063C00E9481
:103D900079304B015C0120E030E040EA51E40E94C0
:103DA00089B087FF4EC0A50194016091D10A70913E
:103DB000D20A8091D30A9091D40A0E948FA92B0134
:103DC0003C019B01AC016091660A7091670A809189
:103DD000680A9091690A0E94EFB06093660A709336
:103DE000670A8093680A9093690AA301920160911F
:103DF000820A7091830A8091840A9091850A0E94B8
:103E0000EFB06093820A7093830A8093840A909340
:103E1000850A6091A10A7091A20A8091A30A9091EB
:103E2000A40A0E948EB0A30192010E94EFB00E94EA
:103E300008AA6093A10A7093A20A8093A30A9093A0
:103E4000A40A8092D10A9092D20AA092D30AB09288
:103E5000D40A07C00E947930F7016083718382839E
:103E600093831F5FF4E0EF0EF11C143009F084CF50
:103E70000E94DC470C946A280E9437630E941392C8
:103E80000C946A28EFEFF4E084918F010F5F1F4FCD
:103E9000882321F00E94CA31F801F6CF61E08FEE4D
:103EA00094E00E94CF9161E088EE94E00E94CF916F
:103EB00061E08DED94E00E94CF9161E08DEC94E0A3
:103EC0000E94CF9160E084EC94E00E94CF9161E089
:103ED0008AEB94E00E94CF9161E080EB94E00E9435
:103EE000CF9161E088EA94E00E94CF9161E08AE995
:103EF00094E00E94CF9160E08CE894E00E94CF9122
:103F000060E08DE794E00E94CF9161E08FE694E05D
:103F10000E94CF9161E089E594E00E94CF9161E039
:103F200088E494E00E94CF9160E083E394E00E94F3
:103F3000CF9161E080E294E00E94CF910C946A28D6
:103F4000009150041091510483E0D12C40E0815045
:103F5000E9F0D8019C91292F2B7F2134C1F71196CC
:103F60002C912133A1F7913421F0953421F441E0D3
:103F700002C0DD24D39498012E5F3F4F89012F5F4B
:103F80003F4FF80190819032C9F3E1CF442369F0AB
:103F9000E9E0F0E284917F012FEFE21AF20A882330
:103FA00021F00E94CA31F701F5CFDD2069F0E2ED82
:103FB000F5E084917F013FEFE31AF30A882321F0B3
:103FC0000E94CA31F701F5CFD8018D918D01882368
:103FD00009F46ACD0E94CA31F7CFE6EFF5E084918B
:103FE0008F010F5F1F4F882321F00E94CA31F80113
:103FF000F6CFEEEEF5E084918F010F5F1F4F88231F
:1040000021F00E94CA31F801F6CF659903C005E09E
:1040100013E002C00AE013E0F80181918F018823C8
:1040200019F00E94CA31F8CF8AE00E94CA31E6EE48
:10403000F5E084918F010F5F1F4F882321F00E94CC
:10404000CA31F801F6CF8091030181FD03C005E07C
:1040500013E002C00AE013E0D8018D918D0188239E
:1040600019F00E94CA31F8CF8AE00E94CA31EEED01
:10407000F5E084918F010F5F1F4F882321F00E948C
:10408000CA31F801F6CF4A9903C005E013E002C037
:104090000AE013E0F80181918F01882319F00E9452
:1040A000CA31F8CF8AE00E94CA31E6EDF5E084918A
:1040B0008F010F5F1F4F882321F00E94CA31F80142
:1040C000F6CF4B9903C005E013E002C00AE013E00D
:1040D000D8018D918D01882309F4E6CC0E94CA3164
:1040E000F7CF81E08093E7038093E6030C946A287E
:1040F0001092E7031092E6030C946A2888EC90E093
:104100000E94823481110C946A2884E40E94AC30AD
:104110008823C1F10E94793011E020E030E0A9014C
:104120000E9489B0811101C010E010930D1211237B
:1041300049F10E947930E0913D12B4E0EB9FF0012B
:104140001124EE5EFD4E608371838283938320E0B1
:1041500030E0A90160911212709113128091141233
:10416000909115120E9489B081110CC080E090E0FE
:10417000A0EEBFE38093121290931312A093141237
:10418000B09315120E94EB630C946A2895EAE92E0D
:104190009AE0F92E09E512E024E0D22ED00EF801C3
:1041A00081918F010E94AC30882351F00E947930B8
:1041B0000E9408AAD7016D937D938D939C931397CA
:1041C000B4E0EB0EF11CD012EACF0E94FB3882C79C
:1041D00016E7E12E1AE0F12E09E512E084E0D82E70
:1041E000D00EF80181918F010E94AC30882341F0FC
:1041F0000E947930D7016D937D938D939C93139793
:10420000B4E0EB0EF11CD012ECCF64C783E50E9442
:10421000F3308823A1F00E94793060936E0A709386
:104220006F0A8093700A9093710A60936A0A709380
:104230006B0A80936C0A90936D0A10E001C011E044
:1042400080E50E94F330882359F00E947930609312
:104250006E0A70936F0A8093700A9093710A10E04F
:1042600082E50E94F330882359F00E9479306093F0
:10427000720A7093730A8093740A9093750A10E01F
:1042800084E50E94F330882359F00E9479306093CE
:104290006A0A70936B0A80936C0A90936D0A1AC72E
:1042A000112309F417C740916E0A50916F0A60916B
:1042B000700A7091710A86E196E00E941A6340913B
:1042C000720A5091730A6091740A7091750A83E1C1
:1042D00096E00E941A6340916A0A50916B0A6091BD
:1042E0006C0A70916D0A80E196E00E941A638AE080
:1042F0000E94CA31EFC682E40E94AC30882351F09C
:104300000E9435306093860A7093870A8093880AEA
:104310009093890A83E50E94AC30882351F00E9473
:10432000793060938E0A70938F0A8093900A9093ED
:10433000910A84E50E94AC30882351F00E947930C4
:1043400060938A0A70938B0A80938C0A90938D0AEB
:1043500088E50E94AC30882351F00E947930609348
:104360005A0A70935B0A80935C0A90935D0A89E510
:104370000E94AC30882351F00E94793060935E0A2D
:1043800070935F0A8093600A9093610A8AE50E94A5
:10439000AC308823F1F00E9479306093620A709308
:1043A000630A8093640A9093650A2DEC3CEC4CEC14
:1043B0005DE30E9489B0181664F0E6E2F6E08491AD
:1043C0008F010F5F1F4F882321F00E94CA31F8012F
:1043D000F6CF85E40E94AC30882309F47BC60E94A6
:1043E00079306093660A7093670A8093680A9093A5
:1043F000690A70C61F5FB4E0EB0EF11C133011F4B4
:104400000C943619F60181916F010E94AC3088231B
:1044100089F30E947930D7016D937D938D939C939E
:104420001397812F0E94632FE5CF0E94199B811162
:1044300051C6F7ED8F2EFBE09F2EE2ECF2E1FFA7D5
:10444000EEA79E012F5F3F4F590100E31CE01901C9
:1044500033E0300F3AABF4016591759185919491F9
:10446000AEA5BFA5CD90DD90ED90FD90BFA7AEA706
:10447000A70196010E9494A82B013C0120E030E0A6
:1044800040EA51EC0E94F5AA87FD10C020E030E020
:1044900040EA51E4C301B2010E9489B0181634F019
:1044A000F10140825182628273820EC0F8018491D0
:1044B0001816B4F7F7FAF094F7F8F094D101CD920A
:1044C000DD92ED92FC921397D101CD90DD90ED90AD
:1044D000FD901D0120E030E040EA51ECC701B6013B
:1044E0000E94F5AA87FF03C0EFE0F0E20BC020E0D6
:1044F00030E040EA51E4C701B6010E9489B01816C5
:104500003CF5F2CF84918F010F5F1F4F882321F07C
:104510000E94CA31F801F6CFE8E5F6E084918F01F8
:104520000F5F1F4F882321F00E94CA31F801F6CF98
:1045300088E290E09F8B8E8B88EC90E09BA38AA30F
:10454000BE016A5E7F4FCE0182960E94DB9DC2C58E
:10455000B4E08B0E911C0F5F1F4FEAA9E0137BCFD5
:10456000E6E1EE2EE4E0FE2E10E0F501819191915E
:10457000A191B1915F01F70181939193A193B193BF
:104580007F01812F0E94632F1F5F133071F70E94FC
:10459000139283E992E09BA38AA304E610E01F8BA9
:1045A0000E8BBE016E5D7F4FCE0146960E94DB9D55
:1045B0008AEB92E09BA38AA31F8B0E8BBE016E5DDC
:1045C0007F4FCE0146960E94DB9D84C5E9E0F0E274
:1045D00084918F010F5F1F4F882321F00E94CA3101
:1045E000F801F6CF83E50E94AC30882321F00E94C9
:1045F000693080932702EEE9F6E084918F010F5F26
:104600001F4F882321F00E94CA31F801F6CF809114
:104610002702811103C0EAE9F6E002C0E6E9F6E00C
:1046200084918F010F5F1F4F882321F00E94CA31B0
:10463000F801F6CFEEE8F6E084918F010F5F1F4F8F
:10464000882321F00E94CA31F801F6CF2091B212DE
:104650003091B3124091B4125091B5126091E50BB4
:104660007091E60B8091E70B9091E80B0E9495A862
:10467000AB01BC018CE896E00E941A632091B6124F
:104680003091B7124091B8125091B9126091E90B74
:104690007091EA0B8091EB0B9091EC0B0E9495A826
:1046A000AB01BC0189E896E00E941A632091BA121E
:1046B0003091BB124091BC125091BD126091ED0B34
:1046C0007091EE0B8091EF0B9091F00B0E9495A8EA
:1046D000AB01BC0186E896E00E941A63EEE7F6E0C3
:1046E00084918F010F5F1F4F882321F00E94CA31F0
:1046F000F801F6CF2091B2123091B3124091B4126A
:104700005091B51260912F02709130028091310268
:10471000909132020E9495A8AB01BC018CE796E013
:104720000E941A632091B6123091B7124091B812CC
:104730005091B91260913302709134028091350228
:10474000909136020E9495A8AB01BC0189E796E0E2
:104750000E941A632091BA123091BB124091BC1290
:104760005091BD12609137027091380280913902E8
:1047700090913A020E9495A8AB01BC0186E796E0B1
:104780000E941A638AE00E94CA31A4C40E944E911A
:10479000A1C40E94E8909EC40E94B3909BC40E9452
:1047A000109098C483E50E94AC30182F882371F0D4
:1047B0000E9479300E9401AA7093100260930F0248
:1047C00021E0672B09F020E02093940A80E50E9405
:1047D000AC30882359F020910F0230911002232B26
:1047E00011F00E9469308093940A74C4111172C44C
:1047F000E9E0F0E284918F010F5F1F4F882321F0E1
:104800000E94CA31F801F6CF8091940A811103C049
:1048100064E173E002C067E073E083EC96E00E941D
:10482000C33760910F027091100282EB96E00E94F4
:10483000AA37EEEAF6E084918F010F5F1F4F8823BD
:1048400009F448C40E94CA31F801F5CF0E94BB8A1E
:1048500041C480E50E94AC30882351F00E94793039
:104860006093541170935511809356119093571182
:1048700089E40E94AC30882381F00E9479302CEAD0
:1048800035EC47E25EE30E94EFB060935011709305
:104890005111809352119093531184E40E94AC30D3
:1048A000882381F00E9479302CEA35EC47E25EE300
:1048B0000E948FA960934C1170934D1180934E11FB
:1048C00090934F11E9E0F0E284918F010F5F1F4F49
:1048D000882321F00E94CA31F801F6CF409154118B
:1048E0005091551160915611709157118EED96E0CF
:1048F0000E941A632CEA35EC47E25EE360915011A6
:104900007091511180915211909153110E948FA971
:10491000AB01BC018AED96E00E941A632CEA35ECEB
:1049200047E25EE360914C1170914D1180914E1100
:1049300090914F110E94EFB0AB01BC0186ED96E063
:104940000E941A638AE00E94CA31C4C380E50E94B3
:10495000F330882331F00E9455308093140411E025
:1049600001C010E083E50E94F330882329F00E9403
:1049700069308093150401C011110E94708AE9E02A
:10498000F0E284918F010F5F1F4F882321F00E9476
:10499000CA31F801F6CF8091150481110DC0EFEEF8
:1049A000F6E084918F010F5F1F4F882309F492C3B3
:1049B0000E94CA31F801F5CF6091140470E082EED4
:1049C00096E00E94AA378AE00E94CA3183C381E040
:1049D0000E94C12E0E9413927DC380E00E94C12ECE
:1049E0000E94139277C383E50E94AC30882349F07C
:1049F0000E946930082F811106C080E00E949171E9
:104A000002C0009116128091C2129091C312A0911F
:104A1000C412B091C51289839A83AB83BC83809101
:104A2000C6129091C712A091C812B091C9128D837D
:104A30009E83AF83B8878091CA129091CB12A091C8
:104A4000CC12B091CD1289879A87AB87BC878091B1
:104A5000E5119091E611892B71F183E40E94AC304D
:104A6000811193C628C093014EA95EAD6EA5782D25
:104A70008AA99AAD0E9495A820E030E040E05FE36B
:104A80000E94EFB0A20191010E9495A84B015C0128
:104A90002DEB37E346E855EB0E94F5AA87FDC2C629
:104AA0002DEB37E346E855E3C501B4010E9489B018
:104AB00018160CF4B7C686E50E94AC30882351F076
:104AC0008091E5119091E611892B21F00E947B7174
:104AD0000E946571802F0E949171011103C0E9E06D
:104AE000F0E21CC0809116128111F9CFEFE0F0E2E4
:104AF00084918F010F5F1F4F882321F00E94CA31DC
:104B0000F801F6CFEEE0F7E084918F010F5F1F4FC1
:104B1000882329F30E94CA31F801F6CF84918F01CE
:104B20000F5F1F4F882321F00E94CA31F801F6CF92
:104B300080911612811103C06CE173E002C068E13C
:104B400073E080E097E00E94C3378AE00E94CA3198
:104B50004CE050E062EC72E1CE0101960E94ACABF9
:104B6000892B09F4B7C20E941392B4C289E40E944F
:104B7000F330882321F00E944530062F01C00FEF4B
:104B80008AE40E94F330882321F00E944530162FDA
:104B900001C01FEF8AE50E94AC30F82E811105C0DC
:104BA00081E50E94AC30D82E01C0D12C07FD02C097
:104BB00017FF03C0EFE0F0E205C0F1101AC0D110FA
:104BC00018C0F8CF84918F010F5F1F4F882321F009
:104BD0000E94CA31F801F6CFECE4F7E084918F012E
:104BE0000F5F1F4F882309F475C20E94CA31F80174
:104BF000F5CF033018F0EFE0F0E206C01330D8F73D
:104C000016C00E94CA31F80184918F010F5F1F4FB7
:104C10008111F7CFEDE2F7E084918F010F5F1F4F15
:104C2000882309F457C20E94CA31F801F5CFE02E5B
:104C3000000FFF08012F110F110B0E947930D701CF
:104C4000AA0FBB1FDD2081F0FD01EE0DFF1DE00F5F
:104C5000F11FEE0FFF1FEE0FFF1FE751FE4E2081E9
:104C600031814281538103C020E030E0A901EA0E86
:104C7000FB1E0E0D1F1D000F111F000F111F0751EE
:104C80001E4E0E9495A8D8016D937D938D939C93A1
:104C900013970E94A66F1EC20E944F7E1BC20E94E5
:104CA0008B6B18C283E50E94AC30882321F00E94F0
:104CB000693091E089270E942B670CC281E08093C4
:104CC00029120E948D7810922912882309F402C2B9
:104CD000E9E0F0E284918F010F5F1F4F882321F0FC
:104CE0000E94CA31F801F6CFECE6F7E084918F011B
:104CF0000F5F1F4F882309F4EDC10E94CA31F801EC
:104D0000F5CF8AE50E94F330882309F438C00E9469
:104D100079306B017C0120E030E040EA51EC0E94E8
:104D2000F5AA87FD13C020E030E040EA51E4C70156
:104D3000B6010E9489B018164CF0C092BE12D092F3
:104D4000BF12E092C012F092C112C4C1EFE0F0E2D3
:104D500084918F010F5F1F4F81110DC0E9E8F7E0CB
:104D600084918F010F5F1F4F882309F4B3C10E9404
:104D7000CA31F801F5CF0E94CA31F801E9CFE9E064
:104D8000F0E284918F010F5F1F4F882321F00E9472
:104D9000CA31F801F6CFEAE7F7E084918F010F5F9F
:104DA0001F4F882321F00E94CA31F801F6CF4091AD
:104DB000BE125091BF126091C0127091C11287E76C
:104DC00097E00E941A638AE00E94CA3183C183E59A
:104DD0000E94AC30811106C099E5E92E92E0F92ECF
:104DE00010E012C00E9479306B017C0110E0B70125
:104DF000A601812F0E94325B1F5F1530C1F7ECCFF7
:104E00001F5F143009F466C1F70181917F010E9490
:104E1000AC308823A9F30E947930AB01BC01812F0B
:104E20000E94325BEDCF83E50E94F330882321F0AE
:104E30000E9445308B0102C000E010E080E50E9436
:104E4000F330882319F00E94553001C08FEF909104
:104E50001304992309F43EC1E82FF0E0E35AFD4F13
:104E6000E081F0E0EE0FFF1FE55FFB4FC80101306E
:104E7000104110F080E090E1918380830E94B5663C
:104E800088E00E94A46626C180911304882309F457
:104E900021C1E9E0F0E284918F010F5F1F4F882369
:104EA00021F00E94CA31F801F6CFE8ECF7E08491D6
:104EB0008F010F5F1F4F882321F00E94CA31F80134
:104EC000F6CFE9E0F0E284918F010F5F1F4F882356
:104ED00021F00E94CA31F801F6CF60910F04709161
:104EE000100480E090E00E948EB020E030E048ECBA
:104EF00052E40E94EFB020E030E040E859E30E9425
:104F0000EFB0AB01BC0184EC97E00E941A6380E033
:104F10000E94115BAB01BC0181EC97E00E941A6317
:104F2000609111047091120480E090E00E948EB0B4
:104F300020E030E048EC52E40E94EFB020E030E0A6
:104F400040E859E30E94EFB0AB01BC018CEB97E065
:104F50000E941A6381E00E94115BAB01BC0189EBE6
:104F600097E00E941A6360910B0470910C0480E03A
:104F700090E00E948EB020E030E048EC52E40E94C5
:104F8000EFB020E030E040E859E30E94EFB0AB0121
:104F9000BC0184EB97E00E941A6382E00E94115BDF
:104FA000AB01BC0181EB97E00E941A6360910D0494
:104FB00070910E0480E090E00E948EB020E030E01E
:104FC00048EC52E40E94EFB020E030E040E859E3C2
:104FD0000E94EFB0AB01BC018CEA97E00E941A631B
:104FE00083E00E94115BAB01BC0189EA97E00E945B
:104FF0001A63E6EAF7E084918F010F5F1F4F882361
:1050000009F468C00E94CA31F801F5CF80911304F9
:10501000882309F45FC00E94FF665CC081E0809332
:10502000400283E50E94F330882339F00E94693002
:10503000811150C00E943FA04DC083E50E94AC305A
:10504000F7CF0E940F9E46C0F09052040E94376333
:10505000FF2029F1E9E0F0E284918F010F5F1F4FFB
:10506000882321F00E94CA31F801F6CF84E50E941E
:10507000CA316F2D70E080E090E04AE00E941A345F
:1050800080E20E94CA31EFEFF7E084918F010F5F59
:105090001F4F8823F9F00E94CA31F801F6CF109211
:1050A000BA0BE9E0F0E284918F010F5F1F4F882374
:1050B00021F00E94CA31F801F6CF6091BA0B70E07E
:1050C0008DEE97E00E94AA378AE00E94CA3102C0A2
:1050D0000E940F9E1092BB0B0E94C955E9C30E940B
:1050E0002F6E0E94D74FF6CFB1100C94FD1A0C947E
:1050F000F61A0E945598EECF61E0812F0E94AA9E79
:105100006E2D812F0E94559EF12CB701812F0E9498
:10511000E69E1730F9F6F092930AE092920ADACFFF
:105120000E9479300E9401AA70934912609348123C
:1051300080E00E9441890E94793020E030E04AEA14
:1051400052E40E9489B018161CF00E94493802C02F
:105150000E94EB370E94CB3881E0809300021AAAAC
:105160001BAA1CAA1DAA6A961CAE1DAE1EAE1FAEBF
:105170006A971EA62B961FAE2B975CE32F965FAF08
:105180002F978CE16B968FAF6B9796E463969FAFEA
:105190006397C12CD12C70E8E72EEFEBFE2E812C0B
:1051A000912C54016091481270914912072E000C05
:1051B000880B990B0E9490B0162F072F782E692E1E
:1051C000262F372F482F592FB601C7010E9489B0CB
:1051D0008823E1F02091441230914512409146120B
:1051E00050914712612F702F872D962D0E9489B004
:1051F000881F8827881F8EA72796AFAD2797AA23D9
:1052000049F0882339F08091000264CF1C2D0D2DC8
:105210007E2C6F2C0E94E99F6B017C01DC01CB018D
:105220006A962CAD3DAD4EAD5FAD6A97821B930B78
:10523000A40BB50BB7FD3DC0D701C60188519C4FEB
:10524000AF4FBF4F6A968CAF9DAFAEAFBFAF6A97FF
:105250000E94FB85E8E1F4E084912F019FEF491A59
:10526000590A882321F00E94CA31F201F5CF811436
:105270009104A104B104B9F0D501C401805F984D37
:10528000AF4FBF4FBC01CD016C197D098E099F093D
:1052900028EE33E040E050E00E94AFB4CA01B9010B
:1052A0000E94C43403C08FE30E94CA318AE00E9486
:1052B000CA310E94AC4B0E94E99F6093BC0B709373
:1052C000BD0B8093BE0B9093BF0BA0914412AAAF6D
:1052D000B0914512BEABE0914612EEAFF09147128D
:1052E0002396FFAF23979D01AF01612F702F872D6C
:1052F000962D0E9494A81B012C0120E030E0A9010A
:105300000E94F5AA87FF04C057FA509457F85094AA
:1053100081149104A104B10459F420E030E040E884
:105320005FE3C201B1010E9489B087FF0DC00AC0CE
:1053300020E030E040E450E4C201B1010E94F5AA4F
:10534000181614F4460157012EA5222309F44CC067
:105350008AA99BA9ACA9BDA9892B8A2B8B2B61F0AB
:10536000D701C6012AA93BA94CA95DA9821B930BB1
:10537000A40BB50BB7FD38C02AAD3EA94EAD2396A0
:105380005FAD23972B966FAD2B972F967FAD2F9701
:105390006B968FAD6B9763969FAD63970E9494A8B1
:1053A00020E030E040EC5FE30E9489B087FD2BCF26
:1053B000D701C601805A9541AF4FBF4F8AAB9BAB17
:1053C000ACABBDAB9AAD2B969FAF2B97AEA92F96EA
:1053D000AFAF2F97BEAD6B96BFAF6B972396EFAD78
:1053E00023976396EFAF639780910002882309F4B7
:1053F0000ACF81149104A104B10429F4C12ED02E46
:10540000E72CF62CCFCEF0E1CF1AF7E2DF0AE10865
:10541000F108C818D908EA08FB08F7FEF4CEEECF69
:105420000E9479300E9401AA6E3671050CF07AC193
:1054300070934312609342120E94F6880E94793062
:1054400020E030E040EA50E40E94F5AA181614F477
:105450000E94EB3781E0809300028091BA0B809329
:105460003D121AAA1BAA1CAA1DAA6A961CAE1DAE42
:105470001EAE1FAE6A971EA62B961FAE2B972CE36F
:105480002F962FAF2F973CE16B963FAF6B9746E47B
:1054900063964FAF6397C12CD12C50E8E52E6FEB8C
:1054A000F62E812C912C540160914212709143127E
:1054B000072E000C880B990B0E9490B0162F072F17
:1054C000782E692E262F372F482F592FB601C70166
:1054D0000E9489B08823E1F020913E1230913F1262
:1054E0004091401250914112612F702F872D962DBF
:1054F0000E9489B0881F8827881F8EA727965FADD6
:105500002797552349F0882339F080910002E2CD96
:105510001C2D0D2D7E2C6F2C0E94E99F6B017C01B0
:10552000DC01CB016A962CAD3DAD4EAD5FAD6A9707
:10553000821B930BA40BB50BB7FD3DC0D701C60171
:1055400088519C4FAF4FBF4F6A968CAF9DAFAEAFA7
:10555000BFAF6A970E94FB85ECE1F4E084912F01D4
:105560009FEF491A590A882321F00E94CA31F2019B
:10557000F5CF81149104A104B104B9F0D501C4019F
:10558000805F984DAF4FBF4FBC01CD016C197D09B5
:105590008E099F0928EE33E040E050E00E94AFB44E
:1055A000CA01B9010E94C43403C08FE30E94CA310A
:1055B0008AE00E94CA310E94AC4B0E94E99F60932E
:1055C000BC0B7093BD0B8093BE0B9093BF0BA0914F
:1055D0003E12AAAFB0913F12BEABE0914012EEAFC7
:1055E000F09141122396FFAF23979D01AF01612FE8
:1055F000702F872D962D0E9494A81B012C0120E06E
:1056000030E0A9010E94F5AA87FF04C057FA509420
:1056100057F8509481149104A104B10459F420E086
:1056200030E040E85FE3C201B1010E9489B087FF2A
:105630000DC00AC020E030E040E450E4C201B101F6
:105640000E94F5AA181614F4460157012EA522232C
:1056500009F44CC08AA99BA9ACA9BDA9892B8A2BA6
:105660008B2B61F0D701C6012AA93BA94CA95DA9E2
:10567000821B930BA40BB50BB7FD38C02AAD3EA916
:105680004EAD23965FAD23972B966FAD2B972F963C
:105690007FAD2F976B968FAD6B9763969FAD63979A
:1056A0000E9494A820E030E040EC5FE30E9489B0C3
:1056B00087FD2BCFD701C601805A9541AF4FBF4F11
:1056C0008AAB9BABACABBDAB9AAD2B969FAF2B9788
:1056D000AEA92F96AFAF2F97BEAD6B96BFAF6B97AE
:1056E0002396EFAD23976396EFAF63978091000207
:1056F000882309F40ACF81149104A104B10429F488
:10570000C12ED02EE72CF62CCFCEF0E1CF1AF7E247
:10571000DF0AE108F108C818D908EA08FB08F7FE13
:10572000F4CEEECF6EE670E083CE0E94376388E55C
:105730000E94AC30882331F05F9A8091B1128E7F45
:105740008093B11289E50E94AC30882331F08A9AA7
:105750008091B1128D7F8093B1128AE50E94AC30A6
:10576000882359F08091080180958170809306010B
:105770008091B1128B7F8093B11285E40E94AC308E
:10578000882309F4A7CC129AA5CC0E9479301B017A
:105790002C0113E0612C712CB8ECBEABE2ECEEAF47
:1057A0001EA6812CF8ECFAAB22E42AAF115008F4C3
:1057B0005AC963E0F62E812F90E06C01CC0CDD1C01
:1057C000C80ED91EFA94F601EF0DF11DEE0FFF1F62
:1057D000EE0FFF1FE751FE4E9080A180B280E38064
:1057E000292D3A2D4B2D5E2D6EA5782D8AA99AADC7
:1057F0000E94F5AA181624F49EA68A2CBAAAEAAE2C
:10580000292D3A2D4B2D5E2DB3018EA99EAD0E9400
:1058100089B087FF04C0692C7A2CBEAAEEAEF110C5
:10582000D1CFC4CF80E00E94917113E04CE0D42E20
:105830001150A0F1D19EC00111249C0127513E4E70
:105840007901A5019401D70118966D917D918D91F3
:105850009C911B970E9494A8F701608771878287AB
:105860009387A501940164817581868197810E9447
:1058700094A8D70114966D937D938D939C9317975D
:10588000A50194016D917D918D919C910E9494A8A8
:10589000F7016083718382839383CACF0E94A66FCE
:1058A0000AC901110C94C5170E94C0310C94D91774
:1058B000CB59DF4F0FB6F894DEBF0FBECDBFDF91DF
:1058C000CF911F910F91FF90EF90DF90CF90BF90FD
:1058D000AF909F908F907F906F905F904F903F9090
:1058E0002F900895409183175091841780918317CA
:1058F000909184174817590711F0AC01F7CF8091A8
:105900008517909186174817590741F1FC01ED570B
:10591000FC4E208130E00196937090938213809327
:10592000811361E0609380139093861780938517AD
:105930001092801360914E026F71633191F4481B95
:10594000590B53704636510560F481E180934E0245
:105950008091C10080628093C10003C08FEF9FEFF0
:105960000895C90108950F931F93CF93DF93EC011E
:105970000E94E99F0E811F81288539850115110537
:105980002105310559F52C852223A9F13A852150AD
:105990002C8721E0230F2A874D85241301C01A8606
:1059A000FE0124E0329FE00DF11D112406851785CC
:1059B000208931890A831B832C833D83DC01CB0141
:1059C000800F911FA11DB11D8E839F83A887B9876A
:1059D0008C819D81892B79F0409A0DC0DC01CB012F
:1059E000801B910BA20BB30BB7FD05C040981E8224
:1059F0001F8218861986DF91CF911F910F9108950C
:105A0000FF920F931F93CF93DF93FC0120812B33E1
:105A100019F1D091580AD031F8F4F62EBC01C0919A
:105A200051030C2F10E0F0E6CF9FC00111248A5AD9
:105A30009B4F0E94C4ABF801EE5DFB4FF082CF5F3D
:105A4000C03118F4C093510302C010925103DF5FBC
:105A5000D093580A81E001C080E0DF91CF911F917F
:105A60000F91FF9008958091BD039091BE03A09186
:105A7000BF03B091C00380934A0290934B02A0935E
:105A80004C02B0934D028091BB039091BC03909364
:105A9000290280932802089580914A0290914B0236
:105AA000A0914C02B0914D028093BD039093BE0330
:105AB000A093BF03B093C003809128029091290264
:105AC0009093BC038093BB0384E690E090932902FB
:105AD000809328020895CF92DF92EF920F931F9345
