:100000000C94D9130C940A140C940A140C940A142A
:100010000C940A140C940A140C940A140C940A14E8
:100020000C940A140C940A140C940A140C940A14D8
:100030000C940A140C940A140C940A140C940A14C8
:100040000C940A140C94909A0C940A140C940A14AC
:100050000C940A140C9461D40C94B4750C94A0AA5A
:100060000C940A140C9446480C940A140C940A1428
:100070000C940A140C940A140C940A140C940A1488
:100080000C940A140C940A140C940A140C940A1478
:100090000C940A140C940A140C940A140C940A1468
:1000A0000C940A140C940A140C940A140C940A1458
:1000B0000C940A140C940A140C940A140C940A1448
:1000C0000C940A140C940A140C940A140C940A1438
:1000D0000C940A140C940A140C940A140C940A1428
:1000E0000C940A1406190C1912191D192819AD19A6
:1000F00033193C19451950195B196619761981197C
:10010000AD198C199719A2197C4883489748A448BF
:10011000AE48C848B348C848B848BD48C848C548AC
:1001200032764276617671768C769176947699768F
:100130009C76A176A476A976B3763E804180308005
:1001400034803A807880458049804F805380578042
:100150005D806180658078806B806F807380479D53
:100160005A9D739D849D999DB79D9E9DB79DA39D0E
:10017000A89DB79DB49D084AD73B3BCE016E84BC79
:10018000BFFDC12F3D6C74319ABD56833DDA3D00F1
:10019000C77F11BED9E4BB4C3E916BAAAABE00003A
:1001A00000803F05A84CCDB2D44EB93836A9020C18
:1001B00050B9918688083CA6AAAA2ABE00000080F1
:1001C0003F00434F4D4D554E49434154494F4E001A
:1001D00044525952554E004552524F525300494EC7
:1001E000464F004543484F00536C6565702E2E2ED8
:1001F00000526573756D696E67207072696E740068
:10020000526F626F4D422072656164792E005761B2
:10021000697420666F7220757365722E2E2E004EE3
:100220006F206D6F76652E00456E642066696C6583
:10023000206C6973740A00426567696E2066696C98
:1002400065206C6973740A005344207072696E747F
:10025000696E67206279746520004E6F7420534484
:10026000207072696E74696E670A005072696E74EC
:100270002074696D653A20006D0046696C616D659A
:100280006E7420757365643A200053746174733A18
:1002900020002C204C6F6E67657374206A6F623A81
:1002A0002000546F74616C2074696D653A200053AE
:1002B000746174733A20002C204661696C65643A5D
:1002C00020002C2046696E69736865643A200050EE
:1002D00072696E74733A200053746174733A20002B
:1002E00048656174696E672E2E2E00526F626F4DE5
:1002F000422072656164792E00E301DE01D701D0EE
:1003000001C2016F66660044454255473A004D31CF
:1003100031332053006F6B0048656174696E67204C
:10032000646F6E652E003F0A0020573A00486561F1
:1003300074696E672E2E2E00526F626F4D422072CE
:10034000656164792E0042656420646F6E652E00DD
:100350003F0A0020573A004265642048656174698D
:100360006E672E00526F626F4D4220726561647934
:100370002E00526F626F4D42204F66662E00464936
:10038000524D574152455F4E414D453A4D61726C59
:10039000696E20312E312E352D5232202847697456
:1003A0006875622920534F555243455F434F44457A
:1003B0005F55524C3A68747470733A2F2F676974A2
:1003C0006875622E636F6D2F526F626F33442F4DCD
:1003D00061726C696E205232204272616E636820D5
:1003E00050524F544F434F4C5F56455253494F4E16
:1003F0003A5232204D414348494E455F5459504589
:100400003A526F626F4D42204558545255444552FE
:100410005F434F554E543A3120555549443A636530
:100420006465326132662D343161322D34373438AF
:100430002D396231322D63353563363266333637C6
:10044000666620454D455247454E43595F434F44EC
:1004500045533A4D3130382C4D3131322C4D3431F9
:10046000300A007A5F6D61783A20007A5F6D696EBC
:100470003A2000795F6D61783A2000785F6D696E8F
:100480003A20005265706F7274696E6720656E6401
:1004900073746F70207374617475730A004D313416
:1004A0003520533C696E6465783E206F7574206F0B
:1004B000662072616E67652028302D31290A00534D
:1004C000657474696E672054726176656C2041634F
:1004D00063656C65726174696F6E3A200053657470
:1004E00074696E672052657472616374204163633E
:1004F000656C65726174696F6E3A2000536574743F
:10050000696E67205072696E7420416363656C6523
:10051000726174696F6E3A200053657474696E6716
:10052000205072696E7420616E6420547261766529
:100530006C20416363656C65726174696F6E3A200B
:1005400000205A00205900580020204D61783A20A0
:1005500000205A00205900580020204D696E3A2092
:10056000004F6E20004F666600536F667420656E04
:100570006473746F70733A200020643A0020693A03
:100580000020703A0020643A0020693A0020703A56
:100590000043290A0061626C656420286D696E2041
:1005A00074656D702000436F6C642065787472759B
:1005B0006465732061726520004B642000236465CC
:1005C00066696E65202044454641554C545F004B9A
:1005D00069200023646566696E65202044454641B4
:1005E000554C545F004B70200023646566696E654E
:1005F000202044454641554C545F00504944204119
:1006000075746F74756E652066696E69736865646C
:10061000212050757420746865206C617374204BC0
:10062000702C204B6920616E64204B6420636F6ED8
:100630007374616E74732066726F6D2062656C6F87
:100640007720696E746F20436F6E6669677572619B
:1006500074696F6E2E680A00504944204175746FAA
:1006600074756E65206661696C6564212074696DBE
:10067000656F75740A00504944204175746F747534
:100680006E65206661696C6564212054656D7065D6
:1006900072617475726520746F6F20686967680A8B
:1006A00000204B643A2000204B693A2000204B7018
:1006B0003A20000A20436C617373696320504944F7
:1006C000200A002054753A2000204B753A20002063
:1006D0006D61783A2000206D696E3A200020643AFE
:1006E000200020626961733A20004F66667365746A
:1006F00073206170706C696564004572723A2054B1
:100700006F6F206661722100546F6F2066617220E6
:1007100066726F6D207265666572656E63652070C6
:100720006F696E740A003A20007A5F6D61783A2032
:10073000007A5F6D696E3A20005A204F66667365D5
:100740007400416476616E636520666163746F72E4
:100750003A20004163746976652045787472756447
:1007600065723A2000220A00556E6B6E6F776E201C
:10077000636F6D6D616E643A202200202B000A4386
:100780006F727265637465642042656420486569B0
:100790006768742076732E2042656420546F706FF2
:1007A0006C6F67793A0A00202B000A426564204882
:1007B000656967687420546F706F677261706879DB
:1007C0003A0A2020202B2D2D2D204241434B202D55
:1007D0002D2B0A2020207C202020202020202020BB
:1007E00020207C0A204C207C20202020282B29201F
:1007F0002020207C20520A2045207C202020202000
:100800002020202020207C20490A2046207C2028EF
:100810002D29204E20282B29207C20470A205420D7
:100820007C20202020202020202020207C20480AFE
:100830002020207C20202020282D29202020207CE2
:1008400020540A2020207C2020202020202020202E
:1008500020207C0A2020204F2D2D2046524F4E5420
:10086000202D2D2B0A2028302C30290A004D6561BF
:100870006E206F662073616D706C656420706F69A7
:100880006E74733A200020643A200020623A2000FF
:1008900045716E20636F656666696369656E747322
:1008A0003A20613A200028422961636B00284629DA
:1008B000726F6E74002852296967687400284C2989
:1008C000656674003F4E756D626572206F662070BC
:1008D000726F626564202850296F696E7473206995
:1008E0007320696D706C61757369626C6520283264
:1008F000206D696E696D756D292E0A0052756E6ED8
:10090000696E6720696E204452592D52554E206DF4
:100910006F64650A00473239204175746F20426563
:1009200064204C6576656C696E670A003F2856291D
:100930006572626F7365204C6576656C2069732003
:10094000696D706C61757369626C652028302D3437
:10095000292E0A002569730025696D202569730019
:100960002569682025696D20256973002569642043
:100970002569682025696D2025697300256979201E
:10098000256964202569682025696D202569730023
:100990004E6F204C696E65204E756D6265722077D2
:1009A00069746820636865636B73756D2C204C6196
:1009B0007374204C696E653A200053544F50504573
:1009C000442E20005072696E7465722073746F70CB
:1009D0007065642064756520746F206572726F7233
:1009E000732E2046697820746865206572726F7274
:1009F00020616E6420757365204D39393920746F1C
:100A000020726573746172742E202854656D706550
:100A10007261747572652069732072657365742ED6
:100A20002053657420697420616674657220726554
:100A30007374617274696E67290A004E6F2043688F
:100A400065636B73756D2077697468206C696E657A
:100A5000206E756D6265722C204C617374204C6938
:100A60006E653A2000636865636B73756D206D6910
:100A7000736D617463682C204C617374204C696ED3
:100A8000653A20004C696E65204E756D6265722076
:100A90006973206E6F74204C617374204C696E65AD
:100AA000204E756D6265722B312C204C6173742061
:100AB0004C696E653A20004D313130004D333100C4
:100AC0004D383420582059205A2045005344207274
:100AD000656164206572726F720A00446F6E6520F2
:100AE0007072696E74696E672066696C650A0020B1
:100AF000496E76616C69642065787472756465729C
:100B000020000000444300004443000082430000F2
:100B1000000000000000000000007C3C3E5E2B3D19
:100B20003F2F5B5D3B2C2A225C004573746570731C
:100B30002F6D6D004573746570732F6D6D005A7362
:100B4000746570732F6D6D005A73746570732F6DBB
:100B50006D005973746570732F6D6D0059737465F2
:100B600070732F6D6D005873746570732F6D6D0009
:100B70005873746570732F6D6D00412D74726176BA
:100B8000656C00412D74726176656C00412D726553
:100B9000747261637400412D7265747261637400D4
:100BA000416D6178204500416D6178204500416DBF
:100BB0006178205A00416D6178205A00416D61785A
:100BC000205900416D6178205900416D61782058AD
:100BD00000416D61782058005654726176206D692D
:100BE0006E005654726176206D696E00566D696EA6
:100BF00000566D696E00566D6178204500566D6136
:100C000078204500566D6178205A00566D61782035
:100C10005A00566D6178205900566D617820590050
:100C2000566D6178205800566D61782058005665E1
:100C30002D6A65726B0056652D6A65726B00567A77
:100C40002D6A65726B00567A2D6A65726B00567854
:100C5000792D6A65726B005678792D6A65726B0022
:100C6000416363656C00416363656C005A204F66A5
:100C700066736574005A204F666673657400436F2F
:100C80006E74726F6C0046696C2E204469612E0090
:100C900046696C2E204469612E004F6666004F6ED7
:100CA00020004520696E206D6D3300436F6E7472B5
:100CB0006F6C0043616E6E6F7420656E7465722098
:100CC0007375626469723A2000052E2E004D6169C9
:100CD0006E0053442063617264206F6B0A006F7072
:100CE000656E526F6F74206661696C65640A007688
:100CF0006F6C756D652E696E6974206661696C65CF
:100D0000640A00534420696E6974206661696C0A44
:100D1000006175746F25692E67004D3234004D32C5
:100D2000332025730057726974696E6720746F20D1
:100D300066696C653A20006F70656E206661696C4B
:100D400065642C2046696C653A20006F70656E20E2
:100D50006661696C65642C2046696C653A200046C2
:100D6000696C652073656C65637465640A00205363
:100D7000697A653A200046696C65206F70656E651A
:100D8000643A20006F70656E206661696C65642C42
:100D90002046696C653A20002066696C653A20003F
:100DA0004E6F7720002220706F73002220706172D6
:100DB000656E743A2200535542524F5554494E4580
:100DC0002043414C4C207461726765743A22004B99
:100DD000494C4C45442E2000747279696E6720742A
:100DE0006F2063616C6C207375622D67636F64653F
:100DF0002066696C6573207769746820746F6F2052
:100E00006D616E79206C6576656C732E204D41584E
:100E1000206C6576656C2069733A004572726F725A
:100E20003A0043616E6E6F74206F70656E2073754B
:100E30006264697220006563686F3A004572726F80
:100E4000722077726974696E6720746F204545500F
:100E5000524F4D210A00206279746573290A0053AC
:100E6000657474696E67732053746F7265642028AB
:100E700000454550524F4D20636865636B73756D37
:100E8000206D69736D617463680A0020627974650E
:100E900073290A002073746F72656420736574741B
:100EA000696E67732072657472696576656420285F
:100EB0000048617264636F646564204465666175AF
:100EC0006C742053657474696E6773204C6F616431
:100ED00065640A0020204D383531205A005A2D50C3
:100EE000726F6265204F666673657420286D6D2988
:100EF0003A0A0020204D3230302044300A002020B1
:100F00004D3230302044002044697361626C656466
:100F10000A0046696C616D656E742073657474694E
:100F20006E67733A0020440020490020204D333082
:100F30003420500020440020490020204D3330311F
:100F40002050005049442073657474696E67733A89
:100F50000A0020460020420020204D313435205325
:100F60003120480020460020420020204D313435F9
:100F70002053302048004D6174657269616C2068AF
:100F8000656174757020706172616D6574657273EE
:100F90003A0A00205A0020590020204D32303620D5
:100FA0005800486F6D65206F666673657420286D04
:100FB0006D290A00204500205A00205800204200D8
:100FC00020540020204D323035205300416476619A
:100FD0006E636564207661726961626C65733A2044
:100FE000533D4D696E2066656564726174652028A5
:100FF0006D6D2F73292C20543D4D696E20747261E4
:1010000076656C20666565647261746520286D6D17
:101010002F73292C20423D6D696E696D756D2073AB
:1010200065676D656E742074696D6520286D732920
:101030002C20583D6D6178696D756D205859206A76
:1010400065726B20286D6D2F73292C20205A3D6D01
:101050006178696D756D205A206A65726B20286D04
:101060006D2F73292C2020453D6D6178696D756D5C
:101070002045206A65726B20286D6D2F73290A0048
:1010800020540020520020204D32303420500041A6
:101090006363656C65726174696F6E733A20503D6D
:1010A0007072696E74696E672C20523D726574723D
:1010B00061637420616E6420543D74726176656C66
:1010C0000A00204500205A0020590020204D3230CF
:1010D000312058004D6178696D756D2041636365FD
:1010E0006C65726174696F6E20286D6D2F73322983
:1010F0003A0A00204500205A0020590020204D3295
:1011000030332058004D6178696D756D20666565D6
:1011100064726174657320286D6D2F73293A0A001B
:10112000204500205A0020590020204D39322058F7
:101130000053746570732070657220756E69743A1F
:101140000A004572723A204D415854454D50204294
:101150004544004572723A204D415854454D500067
:101160004D415854454D50207472696767657265EA
:1011700064004572723A204D494E54454D5020420C
:101180004544004572723A204D494E54454D500039
:101190004D494E54454D50207472696767657265BC
:1011A000640025753A2530327500253032753A25B0
:1011B000303275002D2D2D005344005A005900582F
:1011C000000120000120005072696E742066726F69
:1011D0006D205344004E6F205344206361726400BD
:1011E00053746F70207072696E7400526573756D00
:1011F00065207072696E740050617573652070723D
:10120000696E7400436F6E74726F6C00507265701B
:101210006172650054756E6500496E666F20736378
:101220007265656E00466C6F7700466C6F7700469E
:10123000616E2073706565640046616E2073706531
:1012400065640042656400426564004E6F7A7A6CA2
:1012500065004E6F7A7A6C65005370656564005363
:1012600070656564004D61696E0050726568656106
:101270007420504C4120426564005072656865617D
:101280007420504C4100507265706172650050725C
:101290006568656174204142532042656400507264
:1012A00065686561742041425300507265706172D7
:1012B00065004D3432380053776974636820706F6D
:1012C000776572206F6E004D383100537769746313
:1012D0006820706F776572206F6666004D38300049
:1012E000436F6F6C646F776E0050726568656174F0
:1012F00020414253005072656865617420504C4132
:10130000004D38340044697361626C652073746504
:101310007070657273004D6F766520617869730037
:101320004732380A47323900473239004C65766512
:101330006C206265640053657420686F6D65206F72
:1013400066667365747300473238004175746F20A8
:10135000686F6D65004D61696E004D6F7665205850
:10136000004D6F76652059004D6F7665205A004517
:10137000787472756465720045787472756465720C
:10138000004D6F7665205A004D6F76652059004DEF
:101390006F76652058004D6F76652061786973001F
:1013A00000002100240027002A002D003000330017
:1013B00001010000040107010A01000022002500CC
:1013C00028002B002E00310034000201000005012E
:1013D00008010B01000020002300260029002C003A
:1013E0002F0032000001000003010601090105057C
:1013F0000505070508080808020202020A0A08088B
:1014000004040404010101010101010103030303B8
:1014100003030303040707070C0C0C0C0C0C0C0C47
:101420000202020206060606060606060B0B0B0B58
:101430000B0B0B0B0102102020080810204010207D
:101440004080020102010804020101020408102088
:101450004080804020100804020180040201804086
:1014600020100804020108040201010204081020EF
:101470004080010204081020408000000A0B02098D
:101480000C0D0E080703040100000000000000001E
:10149000000000000000000000000000000000004C
:1014A0000000000000001211100000000000000009
:1014B000000000000000000000000000000000002C
:1014C0004B494C4C45442E2000202D20496E76611E
:1014D0006C6964206578747275646572206E756DD0
:1014E00062657220210A002020506C616E6E657268
:1014F00042756666657242797465733A20002046CB
:10150000726565204D656D6F72793A20004D61728C
:1015100020313920323031370A00436F6D70696CE9
:1015200065643A200028726F626F290A00207C20CF
:10153000417574686F723A2000323031362D313087
:101540002D31362031363A303000204C6173742012
:10155000557064617465643A200020312E312E3557
:101560002D52320A004D61726C696E0020536F6615
:1015700074776172652052657365740A0020576143
:10158000746368646F672052657365740A00204253
:10159000726F776E206F75742052657365740A00E0
:1015A0002045787465726E616C2052657365740AAB
:1015B00000506F77657255700A0073746172740A17
:1015C000006572726F722077726974696E67207439
:1015D0006F2066696C650A00456E6473746F707382
:1015E00020256320256320256320256300205A3AA7
:1015F0000020593A0020583A00656E6473746F7089
:1016000073206869743A2000446F6E6520736176B8
:10161000696E672066696C652E0A004D32390020BC
:10162000746F6F206C6F6E67206578747275736964
:101630006F6E2070726576656E7465640A00206353
:101640006F6C6420657874727573696F6E20707248
:101650006576656E7465640A004D6F766520302E80
:10166000316D6D004D6F766520316D6D004D6F767B
:10167000652031306D6D0050726570617265005289
:101680006573746F7265206661696C73616665006D
:101690004C6F6164206D656D6F72790053746F7269
:1016A00065206D656D6F72790046696C616D656E60
:1016B00074004D6F74696F6E0054656D7065726172
:1016C00074757265004D61696E0050726568656180
:1016D000742041425320636F6E66005072656865E6
:1016E000617420504C4120636F6E66005049442D58
:1016F00044005049442D44005049442D490050496C
:10170000442D49005049442D50005049442D50006B
:101710002002204661637400200220466163740049
:101720002002204D6178002002204D6178002002C7
:10173000204D696E002002204D696E004F666600E4
:101740004F6E20004175746F74656D700046616E58
:101750002073706565640046616E20737065656412
:101760000042656400426564004E6F7A7A6C6500E1
:101770004E6F7A7A6C6500436F6E74726F6C0053B3
:10178000746F7265206D656D6F72790042656400DB
:10179000426564004E6F7A7A6C65004E6F7A7A6C9F
:1017A000650046616E2073706565640046616E2059
:1017B00073706565640054656D70657261747572EF
:1017C000650053746F7265206D656D6F72790042AC
:1017D000656400426564004E6F7A7A6C65004E6FF6
:1017E0007A7A6C650046616E2073706565640046A8
:1017F000616E2073706565640054656D706572611B
:1018000074757265004B494C4C45442E200024F4FD
:10181000D43050C38E20C2A24017828B7011127A2E
:10182000910D816CD90AA861E108C758660761511A
:1018300043061E4B5D05C145A7041A411104093D2D
:101840009803713931034036DB0265339102D4309D
:101850005402802E1D02632CEE01752AC501B028AA
:10186000A001102781018F2564012B244B01E02268
:101870003401AC211F018D200D01801FFC00841E4E
:10188000ED00971DDF00B81CD200E61BC600201B30
:10189000BC00641AB200B219A8000A19A0006A18A4
:1018A0009900D117910040178B00B51684003116AE
:1018B0007E00B31579003A157300C7146F005814F1
:1018C0006A00EE1366008813630025135E00C712DA
:1018D0005B006C12570015125400C11151007011B9
:1018E0004F0021114B00D61049008D1047004610C3
:1018F000440002104200C00F4000800F3E00420F23
:101900003C00060F3B00CB0E3800930E37005C0EF8
:101910003500270E3400F30D3200C10D3100900D5B
:101920003000600D2E00320D2D00050D2C00D90C5D
:101930002B00AE0C2900850C29005C0C2700350C0F
:1019400027000E0C2600E80B2400C40B2400A00B7B
:1019500023007D0B23005A0B2100390B2100180BAB
:101960002000F80A1F00D90A1E00BB0A1E009D0AAB
:101970001D00800A1D00630A1C00470A1B002C0A78
:101980001B00110A1A00F7091A00DD091900C40921
:101990001900AB091900920917007B0918006309A7
:1019A00017004C09160036091600200916000A090E
:1019B0001500F5081500E0081400CC081400B8085C
:1019C0001400A4081400900813007D0812006B088E
:1019D00013005808120046081200340811002308AA
:1019E00011001208110001081100F0071000E007B3
:1019F0001000D0071000C0071000B0070F00A107AB
:101A0000100091070E0083070F0074070F00650791
:101A10000E0057070E0049070E003B070D002E076A
:101A20000E0020070D0013070D0006070D00F90634
:101A30000C00ED060D00E0060C00D4060C00C806F4
:101A40000C00BC060C00B0060C00A4060B009906A6
:101A50000C008D060B0082060B0077060B006C064F
:101A60000B0061060A0057060B004C060A004206EE
:101A70000A0038060A002E060A0024060A001A0682
:101A80000A001006090007060A00FD050900F40512
:101A90000900EB050900E2050900D9050900D00598
:101AA0000900C7050900BE050900B5050800AD0518
:101AB0000800A50509009C050800940508008C0590
:101AC0000800840508007C050800740508006C0502
:101AD0000700650508005D050700560508004E056E
:101AE00007004705070040050800380507003105D5
:101AF00007002A050700230507001C050600160538
:101B000007000F0507000805060002050700FB0493
:101B10000600F5040700EE040600E8040600E204EF
:101B20000700DB040600D5040600CF040600C90444
:101B30000600C3040600BD040600B7040600B10495
:101B40000500AC040600A6040600A00405009B04E2
:101B5000060095040500900406008A04050085042B
:101B60000500800406007A04050075040500700471
:101B700005006B04050066040500610405005C04B3
:101B8000050057040500520405004D0405004804F3
:101B90000500430405003E0404003A040500350432
:101BA0000500300404002C0405002704040023046D
:101BB00005001E0404001A040400160405001104A4
:101BC00004000D04040009040500040404000004DA
:101BD0000400FC030400F8030400F4030400F00311
:101BE0000400EC030400E8030400E4030400E00341
:101BF0000400DC030400D8030400D4030400D00371
:101C00000400CC030400C8030300C503030024F44C
:101C100004D9201BC40C5C0E9804C4095F0265073C
:101C20007101F405F900FB04B30048048700C10307
:101C300069005803550003034500BE023A008402C0
:101C4000310053022A002902250004022000E40189
:101C50001C00C8011900AF0117009801140084018D
:101C60001300710110006101100051010E004301C9
:101C70000D0036010B002B010B0020010B0015019C
:101C800009000C01090003010800FB000800F30033
:101C90000800EB000700E4000600DE000600D800A4
:101CA0000600D2000600CC000500C7000500C200F7
:101CB0000500BD000400B9000400B5000400B10037
:101CC0000400AD000400A9000400A5000300A20068
:101CD00003009F0004009B00030098000300950090
:101CE000020093000300900003008D0002008B00AF
:101CF00003008800020086000200840003008100C7
:101D000002007F0002007D0002007B0002007900DB
:101D100002007700010076000200740002007200E9
:101D20000100710002006F0002006D0001006C00F4
:101D300002006A00010069000200670001006600FD
:101D40000100650001006400020062000100610002
:101D50000100600001005F0002005D0001005C0006
:101D600001005B0001005A00010059000100580009
:101D70000100570001005600010055000100540009
:101D80000100530000005300010052000100510007
:101D90000100500001004F0001004E0000004E0005
:101DA00001004D0001004C0001004B0000004B0001
:101DB00001004A00010049000100480000004800FD
:101DC00001004700010046000000460001004500F8
:101DD00000004500010044000100430000004300F2
:101DE00001004200000042000100410000004100EB
:101DF0000100400001003F0000003F0001003E00E4
:101E000000003E0001003D0000003D0001003C00DC
:101E100000003C0000003C0001003B0000003B00D3
:101E200001003A0000003A000100390000003900CA
:101E300001003800000038000000380001003700C1
:101E400000003700010036000000360000003600B8
:101E500001003500000035000000350001003400AD
:101E600000003400000034000100330000003300A3
:101E70000000330001003200000032000000320098
:101E8000010031000000310000003100010030008D
:101E9000000030000000300001002F0000002F0083
:101EA00000002F0000002F0001002E0000002E0077
:101EB00000002E0001002D0000002D0000002D006C
:101EC00000002D0001002C0000002C0000002C0060
:101ED00000002C0001002B0000002B0000002B0054
:101EE00000002B0001002A0000002A0000002A0048
:101EF00000002A000100290000002900000029003C
:101F0000000029000000290001002800000028002E
:101F10000000280000002800000028000100270021
:101F20000000270000002700000027000000270015
:101F30000100260000002600000026000000260008
:101F400000002600010025000000250000002500FB
:101F500000002500000025000000250001002400ED
:101F600000002400000024000000240000002400E1
:101F700001002300000023000000230000002300D4
:101F800000002300000023000000230001002200C5
:101F900000002200000022000000220000002200B9
:101FA00000002200010021000000210000002100AB
:101FB000000021000000210000002100000021009D
:101FC0000100200000002000000020000000200090
:101FD0000000200000002000000020000000200081
:101FE00001001F0000001F0000001F0000001F0074
:101FF00000001F0000001F0000001F0001001E0065
:1020000000001E0000001E0000001E0000004D38F1
:102010003420582059205A20450046696C652064B8
:10202000656C657465643A0044656C6574696F6ECF
:10203000206661696C65642C2046696C653A2000F5
:102040006F70656E206661696C65642C2046696CF2
:10205000653A20005374616E646172642044657651
:10206000696174696F6E3A20004D65616E3A2000B7
:102070002020207369676D613A2000206D65616ED4
:102080003A20002020207A3A2000206F662000208D
:102090005A00205900205800476F696E6720746FFE
:1020A0003A00436C6F636B776973650A00436F7521
:1020B0006E7465722D0020446972656374696F6E79
:1020C0003A2000202020616E676C653A200053742E
:1020D000617274696E67207261646975733A200079
:1020E000506F736974696F6E696E672074686520DC
:1020F00070726F62652E2E2E0A003F4E756D6265FE
:1021000072206F66206C65677320696E206D6F7634
:10211000656D656E74206E6F7420706C6175736987
:10212000626C652028302D3135292E0A005900585F
:10213000003F53616D706C652073697A65206E6F26
:102140007420706C61757369626C652028342D355C
:1021500030292E0A004D3438205A2D50726F626596
:10216000205265706561746162696C69747920746C
:102170006573740A003F566572626F7365204C6523
:1021800076656C206E6F7420706C61757369626C1B
:10219000652028302D34292E0A0043617264207294
:1021A000656D6F766564004361726420696E736566
:1021B00072746564006F6B00627573793A207061A8
:1021C0007573656420666F7220696E7075740A009D
:1021D000627573793A2070617573656420666F72F9
:1021E00020757365720A00627573793A2070726F98
:1021F00063657373696E670A004B494C4C45442E06
:1022000020004B494C4C45442E2000506C656173B6
:1022100065207265736574005052494E54455220D2
:1022200048414C544544005072696E746572206890
:10223000616C7465642E206B696C6C282920636165
:102240006C6C6564210A00220A00656E7175657503
:1022500065696E6720220000000000000044430012
:102260000082435761726E696E673A20486F6D69EC
:102270006E672042756D702044697669736F7220B5
:102280003C20310A000000A0400000A040000000F7
:1022900040000044430000444300008243FF01012A
:1022A00000002110422063308440A550C660E770D2
:1022B000088129914AA16BB18CC1ADD1CEE1EFF17A
:1022C0003112100273325222B5529442F772D66222
:1022D000399318837BB35AA3BDD39CC3FFF3DEE3CA
:1022E0006224433420040114E664C774A444855472
:1022F0006AA54BB528850995EEE5CFF5ACC58DD51A
:102300005336722611163006D776F6669556B446C1
:102310005BB77AA719973887DFF7FEE79DD7BCC769
:10232000C448E5588668A778400861180228233811
:10233000CCC9EDD98EE9AFF9488969990AA92BB9B9
:10234000F55AD44AB77A966A711A500A333A122A61
:10235000FDDBDCCBBFFB9EEB799B588B3BBB1AAB09
:10236000A66C877CE44CC55C222C033C600C411CB1
:10237000AEED8FFDECCDCDDD2AAD0BBD688D499D59
:10238000977EB66ED55EF44E133E322E511E700E01
:102390009FFFBEEFDDDFFCCF1BBF3AAF599F788FA9
:1023A0008891A981CAB1EBA10CD12DC14EF16FE189
:1023B0008010A100C230E3200450254046706760C1
:1023C000B9839893FBA3DAB33DC31CD37FE35EF3D9
:1023D000B1029012F322D232354214527762567211
:1023E000EAB5CBA5A89589856EF54FE52CD50DC529
:1023F000E234C324A0148104667447642454054461
:10240000DBA7FAB79987B8975FE77EF71DC73CD778
:10241000D326F2369106B0165766767615463456B0
:102420004CD96DC90EF92FE9C899E9898AB9ABA9C8
:102430004458654806782768C018E1088238A32800
:102440007DCB5CDB3FEB1EFBF98BD89BBBAB9ABB18
:10245000754A545A376A167AF10AD01AB32A923A50
:102460002EFD0FED6CDD4DCDAABD8BADE89DC98D68
:10247000267C076C645C454CA23C832CE01CC10CA0
:102480001FEF3EFF5DCF7CDF9BAFBABFD98FF89FB8
:10249000176E367E554E745E932EB23ED10EF01EF0
:1024A000205A3A200020593A200042656420583AC8
:1024B000200020746F6F206C6F6E672065787472D7
:1024C0007573696F6E2070726576656E7465640AE7
:1024D0000020636F6C6420657874727573696F6E29
:1024E0002070726576656E7465640A0020706F7383
:1024F0006974696F6E206F7574206F662072616EEB
:1025000067652E0A003F50726F6265200070012CD3
:102510000190012701B0012201C0011D01F0011845
:10252000011002130130020E016002090190020441
:1025300001C002FF000003FA004003F5008003F031
:1025400000D003EB002004E6007004E100E004DCAE
:10255000004005D700C005D2004006CD00D006C817
:10256000008007C3003008BE00F008B900C009B4FD
:1025700000B00AAF00B00BAA00D00CA500000EA05E
:1025800000500F9B00C01096005012910000148C58
:1025900000C0158700B0178200B0197D00D01B78ED
:1025A00000001E730040206E0090226900F0246439
:1025B0000040275F0090295A00E02B5500102E5054
:1025C0000020304B0010324600E033410090353C93
:1025D000001037370070383200A0392D00B03A288B
:1025E00000A03B2300603C1E00103D1900903D14EC
:1025F00000103E0F00703E0A00C03E0500003F0084
:1026000000544845524D414C2052554E4157415976
:1026100000546865726D616C2052756E61776179E6
:1026200000206669727374005A0059005800486FA0
:102630006D6520002066697273740A005A005900A3
:102640005800486F6D6520006265640A002C207395
:10265000797374656D2073746F70706564212048A0
:1026600065617465725F49443A2000486561746928
:102670006E67206661696C65640048656174696EA7
:1026800067206661696C65640048656174696E679E
:10269000206661696C65640048656174696E6720D5
:1026A0006661696C6564003002B400300D8C009086
:1026B0000E87005010820020127D0080147800A048
:1026C00016730060196E00E01B6900001F6400B003
:1026D000215F0090245A0050275500302A5000E016
:1026E0002C4B00602F46009031410060333C00903D
:1026F000343700B036320030382D00E03928002061
:102700003B2300203C1E00103D1900B03D1400305A
:102710003E0F00903E0A00203F0000F03FD8FF200F
:1027200042403A0020403A00202F0020423A002048
:102730002F0020543A00205A3A0020593A002043F2
:102740006F756E7420583A200020453A00205A3A9E
:102750000020593A00583A00205A3A200020593AAD
:10276000200042656420583A2000526573656E640B
:102770003A20004E414E494E495459494E46CDCC1F
:10278000CC3D0AD7233C17B7D13877CC2B3295955F
:10279000E6241FB14F0A000020410000C84200405B
:1027A0001C4620BCBE4CCA1B0E5AAEC59D7490DEA2
:1027B0006FDE11241FBECFEFD1E2DEBFCDBF00E040
:1027C0000CBF14E0A0E0B2E0E8E9F1EE01E00BBFDD
:1027D00002C007900D92A037B107D9F723E1A0E717
:1027E000B4E001C01D92AF3DB207E1F713E1C8EDBF
:1027F000D3E100E006C021970109802FFE010E946D
:1028000041E4C73DD10780E00807A9F70E947DD7C2
:102810000C94BAF00C9400002F923F924F925F926A
:102820006F927F928F929F92AF92BF92CF92DF92E0
:10283000EF92FF920F931F93CF93DF93CDB7DEB745
:10284000C755D1090FB6F894DEBF0FBECDBF0091BA
:10285000A60920E6029F800111240A5D174F1093FC
:102860007E0400937D048091AD0980FF18C0E6E3EB
:10287000FEE084917F013FEFE31AF30A882321F001
:102880000E94CA43F701F5CFD8018D918D018823AD
:1028900019F00E94CA43F8CF8AE00E94CA432091EF
:1028A0007D0430917E04F90180812F5F3F4F80329B
:1028B000D1F3F0937E04E0937D048E3469F010919F
:1028C0007D0400917E046AE270E0812F902F0E94C7
:1028D00084E70097D1F420C0818190ED980F9A3061
:1028E00010F08D3261F73296DF0131962C91205332
:1028F0002A30D0F3CD01FC01019620812032D9F39A
:10290000F0937E04E0937D04DACFFC01319682914E
:10291000803231F08A3221F0A12FB02F9D9102C078
:102920001082F5CFFD01808111968032D9F380535A
:102930008A3020F0E6E3FEE00C94182A20E030E034
:102940006AE0629FA001639F500D11249A012053F9
:1029500031098191280F311D87FD3A95808180537F
:102960008A3078F38F013196D8018C918032D1F37F
:1029700010937C0400937B0441E050E05093B20F2D
:102980004093B10F9D3409F493C0943511F40C9425
:10299000DF29973411F00C94042A2C31310509F405
:1029A00076C078F42430310538F42230310540F512
:1029B0000E946BBD0C940F2A2430310551F10C9408
:1029C0000F2A2A35310509F46AC068F42D31310522
:1029D00009F461C02E31310511F00C940F2A0E94C8
:1029E00060D60C940F2A2B35310509F45CC02C35C8
:1029F000310511F00C940F2A0E945DA90C940F2A46
:102A000081E02230310509F080E00E94D2B90C94B7
:102A10000F2A80E50E94A741882329F00E940142E5
:102A20006B017C0103C0C12CD12C760183E50E948F
:102A3000A741882321F00E9435426B017C010E944E
:102A400057D40E94BF438091B30F9091B40FA091CF
:102A5000B50FB091B60FC80ED91EEA1EFB1E8091AD
:102A60009D02811105C060E088EE91E00E94F4AF04
:102A70000E9494AADC01CB018C199D09AE09BF0903
:102A8000B7FD02C00C940F2A0E94EEB4F1CF0E9451
:102A900023C00C940F2A0E94262D0C940F2A10920A
:102AA0007A040C940F2A81E080937A040C94102A03
:102AB0002137310509F484C508F0E6C0203331051B
:102AC00009F456C408F06BC02831310509F49EC2E0
:102AD00008F03EC02231310511F40C949E1ED8F44A
:102AE0002230310508F4B8C12131310511F00C94C0
:102AF0000F2A60E08FE192E00E94F4AF5F988A981D
:102B00009FB7F894809108018E7F809308019FBF42
:102B100012980C940F2A2531310509F46DC240F446
:102B20002431310511F00C940F2AE7E3F2E021C2C1
:102B30002631310509F464C22731310511F00C94B6
:102B40000F2A40E061E0C8010E94ED600C940F2A5A
:102B50002C31310509F4AFC250F42A31310509F4A2
:102B600060C208F06CC21092C0100C940F2A2F3172
:102B7000310509F4B5C248F42E31310511F00C9439
:102B80000F2A0E9426A80C940F2A2032310509F43E
:102B900099C22A32310509F4E2C20C940F2A243575
:102BA000310511F40C949E1EE0F52E34310509F424
:102BB00001C478F42C34310509F4DEC308F0F6C3FF
:102BC0002B34310511F00C940F2A0E9454C70C9439
:102BD0000F2A2135310511F40C947D1E98F420350F
:102BE000310511F00C940F2A269A2E9881E08093DB
:102BF000510260E084E693E00E94F4AF0E941AB0B4
:102C00000C940F2A2235310511F40C949A1E2335A9
:102C1000310511F00C940F2A81E0809379040C9413
:102C2000102A2A36310511F40C94451EB8F42C35BF
:102C3000310511F40C94E01E38F42535310511F4FA
:102C40000C94CD1E0C940F2A2836310509F4C2C30A
:102C50002936310509F4F9C40C940F2A2D363105B3
:102C600009F410C538F42B36310511F40C946B1EA1
:102C70000C940F2A2E36310509F4F2C32F36310594
:102C800009F401C40C940F2A2D3D310511F40C9464
:102C9000032308F05CC02E3B310509F49CC660F5A7
:102CA0002737310511F40C94881F98F42337310528
:102CB00011F40C94691F10F40C94771F253731051B
:102CC00011F00C940F2A60E0C8010E9409B00C9426
:102CD0000F2A2937310511F40C94821F10F40C943B
:102CE0007B1F2C38310509F497C42139310511F4C3
:102CF0000C940C200C940F2A2C3C310511F40C94EC
:102D00004A2188F4293C310511F40C940A212B3C0A
:102D1000310511F40C942C21283C310511F00C9450
:102D20000F2A0C94BE202E3C310511F40C94132272
:102D300010F40C94B621233D310511F40C945A2261
:102D40002C3D310511F40C94F6220C940F2A2239F3
:102D5000B1E03B0711F40C94442880F52E32F1E0E9
:102D60003F0711F40C94ED2480F42C3251E0350728
:102D700011F40C946C2310F00C949223223E310534
:102D800011F40C941C230C940F2A203391E0390782
:102D900011F40C94512410F40C9461252039B1E005
:102DA0003B0711F40C9441282139314011F00C9467
:102DB0000F2A81E00E9446C10C940F2A273FF1E0C0
:102DC0003F0711F40C943F2958F5243F51E0350793
:102DD00011F40C943929A8F42C3A314011F00C94D8
:102DE0000F2A8BE4282E87E0382EEAE7F3E1FDA3D3
:102DF000ECA326E833E13FA32EA300E010E00C94FF
:102E00004828253FA1E03A0711F40C943C29263FBD
:102E1000314011F00C940F2A0E94D0690C940F2AB3
:102E20002938E3E03E0711F40C949D2948F423353A
:102E3000334011F00C940F2AE6E3FEE00C944E2987
:102E4000203A53E0350709F441C1273E334011F4DD
:102E50000C94CF290C940F2A80E50E94A741882367
:102E600061F00E9401426B017C01BB24B394672B8B
:102E7000682B692B31F4B12C04C0B12CC12CD12C9E
:102E8000760183E50E94A741882399F00E9435428C
:102E90006B017C01B1100FC0672B682B692B59F4B3
:102EA000D8018C91882339F061E0C8010E9409B0F3
:102EB00007C0BB20A9F360E08EE092E00E94F4AF6F
:102EC00081E080937907109278070E9457D40E947E
:102ED000BF43C114D104E104F10439F18091B30F6F
:102EE0009091B40FA091B50FB091B60FC80ED91E36
:102EF000EA1EFB1E83E090E09093B20F8093B10F27
:102F00000E9494AADC01CB018C199D09AE09BF096E
:102F1000B7FD02C00C944D2A8091980F82FF02C029
:102F20000C944D2A0E94EEB4EBCF83E090E0909396
:102F3000B20F8093B10F8091980F82FD03C00E9461
:102F4000EEB4F9CF81E090E09093B20F8093B10F8F
:102F50008091C01060E0882331F081EF91E00E9401
:102F6000F4AF0C940F2A80E092E00E94F4AF0C942E
:102F70000F2A84918F010F5F1F4F882321F00E9439
:102F8000CA43F801F6CF109246131092451340E061
:102F900050E0BA0181EF90E10E94014C8BE1E1EF3A
:102FA000F0E1DE01159601900D928A95E1F780918E
:102FB000EF109091F0109C838B8381EB93E09A83C8
:102FC000898340E050E0BE016F5F7F4F8FE694E061
:102FD0000E94B05ECE0101960E9490B4E8E2F2E059
:102FE00084918F010F5F1F4F882311F40C940F2AD7
:102FF0000E94CA43F801F4CF0E9421640C940F2A66
:103000001092C0101092C1100C940F2A8091C11020
:10301000882319F081E08093C0100E9454C70C945B
:103020000F2A8091C110882311F40C940F2A83E594
:103030000E94A74181110C94592A0C940F2A809167
:10304000C110882351F1E8E4F2E084918F010F5F11
:103050001F4F882321F00E94CA43F801F6CF6091E8
:103060003C1370913D1380913E1390913F134AE0C1
:103070000E94F7438FE20E94CA4360913813709117
:10308000391380913A1390913B134AE00E94F74321
:103090008AE00E94CA430C940F2AEAE5F2E0849188
:1030A0008F010F5F1F4F882311F40C940F2A0E9489
:1030B000CA43F801F4CF40E060E0C8010E94ED602F
:1030C0000C940F2A0E94CBA70C940F2A81E08093C6
:1030D000BF1040E060E0C8010E94ED600C940F2A30
:1030E00085E990E10E94E9D368A379A38AA39BA311
:1030F000BE016F5F7F4FCE0180960E94D64260E096
:10310000CE0101960E9409B0E6E3FEE084918F01B2
:103110000F5F1F4F882321F00E94CA43F801F6CFAA
:10312000EBE6F2E084918F010F5F1F4F811104C025
:103130008E010F5F1F4F04C00E94CA43F801F2CFF7
:10314000F80181918F01882319F00E94CA43F8CFBA
:103150008AE00E94CA430E949C430C940F2A83E594
:103160000E94A741882311F40C940F2A0E94E94180
:103170008C018F3F910519F010F00C940F2A80E517
:103180000E94A741882339F00E94E9417C0197FF02
:1031900005C00C940F2A8DE0E82EF12CE5EFF2E04B
:1031A00081919191E816F90611F40C940F2A23E00D
:1031B000E534F207A9F7DE2C61E08E2D0E94AA808B
:1031C000602F8E2D0E947B8061E08E2D0E94AA8050
:1031D0000115110511F460E004C00F3F110519F449
:1031E00061E08E2DBFC0F701FF27E658FB4EE4914A
:1031F0004E2F50E0FA013197E231F10508F0ADC0F1
:103200008827EE58FF4F8F4F0C9441E484B58068B7
:1032100084BD07BD0C94062A84B5806284BD08BDB8
:103220000C94062A8091800080688093800010931F
:103230008900009388000C94062A809180008062A7
:103240008093800010938B0000938A000C94062AD0
:103250008091800088608093800010938D0000939F
:103260008C000C94062A8091B00080688093B00096
:103270000093B3000C94062A8091B0008062809382
:10328000B0000093B4000C94062A809190008068EE
:103290008093900010939900009398000C94062A54
:1032A0008091900080628093900010939B00009327
:1032B0009A000C94062A8091900088608093900078
:1032C00010939D0000939C000C94062A8091A0000E
:1032D00080688093A0008091A0008F7B8093A000E5
:1032E0001093A9000093A8000C94062A8091A000D6
:1032F00080628093A0001093AB000093AA000C940E
:10330000062A8091A00088608093A0001093AD00F1
:103310000093AC000C94062A809120018068809371
:10332000200110932901009328010C94062A809112
:10333000200180628093200110932B0100932A01C9
:103340000C94062A809120018860809320011093BC
:103350002D0100932C010C94062A0038110534F439
:1033600060E08D2D0E947B800C94062A61E0F9CFED
:103370000E941CA30C940F2A809195109091961096
:10338000019711F00C940F2A82E090E09093961030
:10339000809395100E9494AA60939F107093A01040
:1033A0008093A1109093A2100C940F2A0E94E7C260
:1033B0000C940F2A83E50E94A741882311F40C94F2
:1033C0006A2A0E94E9418E34910511F00C946A2A10
:1033D0000C946B2B88E690E00E94674781110C9457
:1033E0000F2A8091AD0983FF02C00C940F2A83E558
:1033F0000E94A741882311F40C940F2A0E940C42CA
:103400000E94B5E57093101060930F100E9497C250
:103410000E940C4220E030E04AEA52E40E9451EC63
:1034200018163CF00E94E7C260E08BEE92E00E942A
:10343000F4AF0E940C422091111030911210409173
:103440001310509114100E94A0E6181614F00C945A
:103450000F2A60E080EE92E00E94F4AF0C940F2AF5
:103460008EE40E94A741882311F40C940F2A0E9435
:10347000F64160937004709371048093720490938A
:1034800073040C940F2A83E50E94A741882319F046
:103490000E94BA4101C080E08093AD09E6E3FEE0FE
:1034A00084918F010F5F1F4F882321F00E94CA4330
:1034B000F801F6CFE7E0F3E084918F010F5F1F4F33
:1034C000882321F00E94CA43F801F6CF8091AD090C
:1034D0008823A1F119EFC12E12E0D12EE12CF12C9D
:1034E00020E08091AD0990E00E2C02C09595879563
:1034F0000A94E2F780FF17C0BB24B394B20E2223D4
:1035000019F08CE20E94CA43F60125913491F90129
:10351000849189010F5F1F4F882321F00E94CA43C5
:103520009801F5CF2B2DFFEFEF1AFF0A32E0C30E03
:10353000D11C45E0E416F104A1F63DC0E3E0F3E060
:1035400084918F010F5F1F4F8823A9F10E94CA4306
:10355000F801F6CF80E20E94CA438AE50E94A741A3
:10356000882311F40C948F290E940C426B017C017A
:1035700020E030E040EA51EC0E94A0E687FF02C064
:103580000C94662920E030E040EA51E4C701B6011E
:103590000E9451EC181614F40C946629C09225056B
:1035A000D0922605E0922705F092280542E0C70157
:1035B000B6010E949F478AE00E94CA430C940F2ADA
:1035C00083E50E94A741882369F00E94BA41809355
:1035D00093028D3310F40C940F2A8CE380939302A2
:1035E0000C940F2AE6E3FEE084918F010F5F1F4FDA
:1035F000882321F00E94CA43F801F6CF409193023C
:1036000050E060E070E08EE093E00E945D448AE06C
:103610000E94CA430C940F2A8091AD0983FF02C017
:103620000C940F2A83E50E94A741882311F40C947F
:103630000F2A0E940C420E94B5E57093C70960935F
:10364000C6090E9451CE0C940F2A89E690E00E9490
:103650006747811111C0E5E1F3E084918F010F5FAD
:103660001F4F882321F00E94CA43F801F6CF0E9421
:10367000D8D58AE00E94CA431092B20F1092B10FBF
:103680000C940C2D8DE690E00E94674781110C94FC
:103690000F2A8091AD0983FF02C00C940F2A83E5A5
:1036A0000E94A7418AA7811105C082E50E94A74117
:1036B0008823C1F10E940C420E94B5E5709310105E
:1036C00060930F100E9497C20E940C4220E030E0ED
:1036D0004AEA52E40E9451EC181614F40C94702B30
:1036E0000E94E7C260E088E393E00E94F4AF60913B
:1036F0000F1070911010072E000C880B990B0E9470
:1037000057EC2091111030911210409113105091EC
:1037100014100E94A0E618162CF460E08DE293E0ED
:103720000E94F4AF86E40E94A7418093C3098823D6
:1037300051F00E940C4260937E0270937F0280934E
:1037400080029093810283E50E94A741882351F073
:103750000E940C42609386027093870280938802D5
:103760009093890282E40E94A741882351F00E942D
:103770000C42609382027093830280938402909340
:10378000850281E080934C021092B20F1092B10F2B
:103790001EA21FA218A619A61EA61FA618AA19AA1D
:1037A0001CA21AAA5CE35BAB8CE18CAB96E49DABEC
:1037B000C12CD12CA0E8EA2EBFEBFB2E812C912C42
:1037C000540160910F1070911010072E000C880B9F
:1037D000990B0E9457EC162F072F782E692E262F53
:1037E000372F482F592FB601C7010E9451EC88236B
:1037F000F1F020911110309112104091131050915E
:103800001410612F702F872D962D0E9451EC881F68
:103810008827881F8CA3AAA5AA2369F0882359F0BA
:1038200060E088E193E00E94F4AF0C940F2A1C2D15
:103830000D2D7E2C6F2C0E9494AA6B017C01DC0163
:10384000CB012EA53FA548A959A9821B930BA40B18
:10385000B50BB7FD45C0D701C60188519C4FAF4F8E
:10386000BF4F8EA79FA7A8ABB9AB0E94D8D5E9E2FE
:10387000F3E084912F019FEF491A590A882321F020
:103880000E94CA43F201F5CF81149104A104B1044E
:10389000D1F0D501C401805F984DAF4FBF4FBC013F
:1038A000CD016C197D098E099F0928EE33E040E0B7
:1038B00050E00E945DF0CA01B9010E9478448AE09C
:1038C0000E94CA430DC0E6E2F3E084912F01AFEFFE
:1038D0004A1A5A0A882321F00E94CA43F201F5CFFE
:1038E0000E94EEB40E94BF4320901110309012103D
:1038F00040901310509014109101A201612F702F6D
:10390000872D962D0E9457E49F7781149104A1047E
:10391000B10449F420E030E040E85FE30E9451EC5C
:1039200087FF0BC008C020E030E040E450E40E9474
:10393000A0E6181614F446015701BCA1BB2379F187
:103940002EA13FA148A559A52115310541055105D5
:1039500041F0D701C601821B930BA40BB50BB7FD39
:103960001EC09101A2016AA97BA98CA99DA90E94F0
:1039700057E420E030E040EC5FE30E9451EC87FD2B
:103980004FCFD701C601805A9541AF4FBF4F8EA38D
:103990009FA3A8A7B9A72AAA3BAA4CAA5DAA80916F
:1039A0004C02882309F43CCF81149104A104B10492
:1039B00029F4C12ED02EE72CF62C03CF90E1C91AA2
:1039C00097E2D90AE108F108C818D908EA08FB0803
:1039D000F7FE26CFEECF8091AD0983FF02C00C9495
:1039E0000F2A60E087E593E00E94F4AF83E50E9430
:1039F000A7418AA7811105C082E50E94A7418823BB
:103A0000B1F00E940C420E94B5E57093C709609323
:103A1000C6090E9451CE0E940C4220E030E040EAEC
:103A200050E40E94A0E6181614F40E9454C781E0E6
:103A300080934C021092B20F1092B10F80917504D6
:103A4000809374041EA21FA218A619A61EA61FA664
:103A500018AA19AA1CA21AAAACE3ABABBCE1BCAB76
:103A6000E6E4EDABC12CD12CE0E8EE2EFFEBFF2E0F
:103A7000812C912C54016091C6097091C709072EC1
:103A8000000C880B990B0E9457EC162F072F782EED
:103A9000692E262F372F482F592FB601C7010E94B4
:103AA00051EC8823F1F02091740730917507409113
:103AB000760750917707612F702F872D962D0E94E2
:103AC00051EC881F8827881F8CA3FAA5FF2369F073
:103AD000882359F060E086E493E00E94F4AF0C94F0
:103AE0000F2A1C2D0D2D7E2C6F2C0E9494AA6B0189
:103AF0007C01DC01CB012EA53FA548A959A9821B59
:103B0000930BA40BB50BB7FD45C0D701C601885177
:103B10009C4FAF4FBF4F8EA79FA7A8ABB9AB0E94DA
:103B2000D8D5E3E5F3E084912F019FEF491A590AB4
:103B3000882321F00E94CA43F201F5CF8114910439
:103B4000A104B104D1F0D501C401805F984DAF4FFD
:103B5000BF4FBC01CD016C197D098E099F0928EE6C
:103B600033E040E050E00E945DF0CA01B9010E94DC
:103B700078448AE00E94CA430DC0E0E5F3E08491F6
:103B80002F01AFEF4A1A5A0A882321F00E94CA4334
:103B9000F201F5CF0E94EEB40E94BF43209074075B
:103BA0003090750740907607509077079101A201F9
:103BB000612F702F872D962D0E9457E49F778114D7
:103BC0009104A104B10449F420E030E040E85FE34F
:103BD0000E9451EC87FF0BC008C020E030E040E4B9
:103BE00050E40E94A0E6181614F446015701BCA147
:103BF000BB2379F12EA13FA148A559A52115310577
:103C00004105510541F0D701C601821B930BA40B5E
:103C1000B50BB7FD1EC09101A2016AA97BA98CA9B1
:103C20009DA90E9457E420E030E040EC5FE30E9451
:103C300051EC87FD4FCFD701C601805A9541AF4F58
:103C4000BF4F8EA39FA3A8A7B9A72AAA3BAA4CAA95
:103C50005DAA80914C02882309F43CCF8114910421
:103C6000A104B10429F4C12ED02EE72CF62C03CFE9
:103C700090E1C91A97E2D90AE108F108C818D908F1
:103C8000EA08FB08F7FE26CFEECF83E50E94A741A6
:103C9000882321F00E9429D78C0102C00FEF10E089
:103CA00080E50E94A741882319F00E9429D702C00D
:103CB00080E090E098010F3F110519F010F02FEF10
:103CC00030E0892B11F00C940F2A3093C509209312
:103CD000C4090C940F2A80E50E94A741811106C0F7
:103CE0001092C5091092C4090C940F2A0E9429D77A
:103CF000892B11F00C940F2AF3CF0E94A1CE0E94C1
:103D000057D40E9498B41092C5091092C40968EE65
:103D100073E080E090E00E945CAA269A2E9A1092AE
:103D2000510260E082E793E00E94F4AF0E941AB073
:103D30000C940F2A109279040C940F2A83E50E94A8
:103D4000A741882361F00E943542609394027093EA
:103D5000950280939602909397020C940F2A88E51F
:103D60000E94A74181110C94742B89E50E94A74100
:103D700081110C94742B8AE50E94A74181110C9447
:103D8000742B85E40E94A74181110C94742B0E942E
:103D900057D40E9498B40C940F2A83E50E94A7413F
:103DA000882311F40C940F2A0E9435426093B70FB8
:103DB0007093B80F8093B90F9093BA0F0C940F2A99
:103DC00061EF862E62E0962E0BE517E075E0A72ED8
:103DD00075E0B72EAEEAB9E0BDA3ACA3312CF40177
:103DE00081914F010E94A741882309F460C0F3E04C
:103DF0003F1255C00E940C422B013C0120E030E0F4
:103E000040EA51E40E9451EC87FF43C0A3019201B4
:103E1000D8016D917D918D919C910E9444E56B013B
:103E20007C019B01AC016091150570911605809194
:103E30001705909118050E94B6EC609315057093D4
:103E400016058093170590931805A7019601F501B3
:103E500060817181828193810E94B6ECD5016D935E
:103E60007D938D939C931397ECA1FDA1608171814B
:103E7000828193810E9455ECA70196010E94B6ECC5
:103E80000E94BBE5ACA1BDA16D937D938D939C93E6
:103E90001397F801408251826282738208C00E94A7
:103EA0000C42D8016D937D938D939C93139733941B
:103EB0000C5F1F4FB4E0AB0EB11CECA1FDA134961A
:103EC000FDA3ECA3F4E03F128ACF0E94A1830C94DF
:103ED0000F2AEEE7F3E084918F010F5F1F4F8823D5
:103EE00011F40C940F2A0E94CA43F801F4CF0E94E7
:103EF00019D50C940F2A81E080936D0280930802FB
:103F00000C94102A10926D02109208020C940F2A41
:103F1000E3E8F4E084918F010F5F1F4F882321F0C5
:103F20000E94CA43F801F6CFEBE7F4E084918F01D9
:103F30000F5F1F4F882321F00E94CA43F801F6CF7C
:103F4000659903C00DEB13E002C002EC13E0D80149
:103F50008D918D01882319F00E94CA43F8CF8AE021
:103F60000E94CA43E3E7F4E084918F010F5F1F4F83
:103F7000882321F00E94CA43F801F6CF8091030103
:103F800081FD03C00DEB13E002C002EC13E0F80169
:103F900081918F01882319F00E94CA43F8CF8AE0EB
:103FA0000E94CA43EBE6F4E084918F010F5F1F4F3C
:103FB000882321F00E94CA43F801F6CF4A9903C032
:103FC0000DEB13E002C002EC13E0D8018D918D01DE
:103FD000882319F00E94CA43F8CF8AE00E94CA439E
:103FE000E3E6F4E084918F010F5F1F4F882321F0F7
:103FF0000E94CA43F801F6CF4B9903C00DEB13E0C2
:1040000002C002EC13E0F80181918F01882309F4CA
:10401000D2CA0E94CA43F7CF83E50E94A7418823F2
:1040200009F10E94E9418230D0F0EBE1FEE0849199
:104030008F010F5F1F4F882321F00E94CA43F801B0
:10404000F6CFEDE9F4E084918F010F5F1F4F8823D5
:1040500011F40C940F2A0E94CA43F801F4CF813066
:1040600009F446C088E40E94A741882391F00E9489
:10407000E9418A3A91053CF08431F1E09F072CF048
:1040800083E191E002C08AEA90E09093CB098093AB
:10409000CA0986E40E94A741882381F00E94E94171
:1040A0008F3F910519F014F08FEF90E097FF02C059
:1040B00080E090E09093CD098093CC0982E40E9447
:1040C000A741882311F40C940F2A0E94E9418530FE
:1040D000910534F0883891052CF087E890E002C013
:1040E00085E090E09093C9098093C8090C940F2A49
:1040F00088E40E94A741882391F00E94E9418A3A0E
:1041000091053CF0843121E092072CF083E191E0AD
:1041100002C08AEA90E09093D1098093D00986E4A6
:104120000E94A741882381F00E94E9418F3F9105B9
:1041300019F014F08FEF90E097FF02C080E090E05C
:104140009093D3098093D20982E40E94A7418823E7
:1041500011F40C940F2A0E94E9418530910534F046
:10416000883891052CF087E890E002C085E090E067
:104170009093CF098093CE090C940F2A88EC90E09D
:104180000E94674781110C940F2A84E40E94A74182
:10419000882311F40C940F2A0E940C4211E020E0B5
:1041A00030E0A9010E9451EC811101C010E0109390
:1041B0002905112359F10091740410E00E940C426A
:1041C000000F111F000F111FF801EC5FFD4F6083FE
:1041D00071838283938320E030E0A901609104021F
:1041E0007091050280910602909107020E9451ECA5
:1041F00081110CC080E090E0A0EEBFE38093040248
:1042000090930502A0930602B09307020E94F8B1B2
:104210000C940F2A3DEEE32E34E0F32E01EF12E072
:1042200044E0D42ED00ED8018D918D010E94A7417B
:10423000882349F00E940C420E94BBE5F70160838D
:10424000718382839383F4E0EF0EF11CD012EBCFE5
:104250000E9459830C940F2A95E0E92E95E0F92EDF
:1042600001EF12E024E0D22ED00ED8018D918D0105
:104270000E94A741882339F00E940C42F701608315
:10428000718382839383F4E0EF0EF11CD012EDCFA3
:104290000C940F2A83E50E94A7418823D9F00E943D
:1042A0000C42AB01BC014093210550932205609361
:1042B0002305709324054093E5045093E60460932E
:1042C000E7047093E80489E195E00E942B488AE0B6
:1042D0000E94CA4380E50E94A741882399F00E946A
:1042E0000C42AB01BC014093210550932205609321
:1042F0002305709324058CEF94E00E942B488AE0FC
:104300000E94CA4382E50E94A741882399F00E9437
:104310000C42AB01BC014093E9045093EA04609362
:10432000EB047093EC048DED94E00E942B488AE03E
:104330000E94CA4384E50E94A741882311F40C948B
:104340000F2A0E940C42AB01BC014093E50450933C
:10435000E6046093E7047093E8048FEB94E00E9416
:104360002B488AE00E94CA430C940F2A83E50E94DE
:10437000A741882351F00E940C426093010570937D
:104380000205809303059093040584E50E94A741EC
:10439000882351F00E940C426093FD047093FE0448
:1043A0008093FF049093000582E40E94A741882334
:1043B00051F00E9401426093A9097093AA09809369
:1043C000AB099093AC0988E50E94A741882351F07E
:1043D0000E940C4260931D0570931E0580931F057B
:1043E000909320058AE50E94A741882351F00E94FE
:1043F0000C426093190570931A0580931B059093E6
:104400001C0585E40E94A741882311F40C940F2A0F
:104410000E940C4260931505709316058093170552
:1044200090931805FCC711EFA12E12E0B12E0BE4FA
:10443000C02E07E0D02E8AE7E82E83E1F82E00E0B8
:1044400010E0D5018D915D010E94A741882311F1F3
:104450000E940C422B013C01F701208131814281F5
:1044600053810E9457E49B01AC01D6016D917D916F
:104470008D919C910E9458E4F60160837183828340
:104480009383D7014D925D926D927C921397C801F0
:104490000E945C410F5F1F4FB4E0CB0ED11CE4E0E3
:1044A000EE0EF11C0330110561F60E94BD420E9420
:1044B00019D5B5C7E6E3FEE084918F010F5F1F4F6A
:1044C000882321F00E94CA43F801F6CF83E50E94B9
:1044D000A741882341F00E94BA4191E0811101C0B7
:1044E00090E090935E02E9E6F5E084918F010F5F22
:1044F0001F4F882321F00E94CA43F801F6CF809114
:104500005E02811103C0E5E6F5E002C0E1E6F5E0F8
:1045100084918F010F5F1F4F882321F00E94CA43AF
:10452000F801F6CFE9E5F5E084918F010F5F1F4FA9
:10453000882321F00E94CA43F801F6CF4091D507A5
:104540005091D6076091D7077091D80787E595E01D
:104550000E942B484091D9075091DA076091DB0700
:104560007091DC0784E595E00E942B484091DD07BF
:104570005091DE076091DF077091E00781E595E0DB
:104580000E942B48E9E4F5E084918F010F5F1F4FF3
:10459000882321F00E94CA43F801F6CF40915202CD
:1045A00050915302609154027091550287E495E056
:1045B0000E942B4840915602509157026091580238
:1045C0007091590284E495E00E942B4840915A0270
:1045D00050915B0260915C0270915D0281E495E014
:1045E0000E942B488AE00E94CA4319C783E50E94B3
:1045F000A741882309F413C70E94E9419093500210
:1046000080934F020CC78DED90E00E9467478111A7
:1046100006C783E50E94A741882309F400C70091DB
:10462000740410E00E94E941000F111FF801E35BE0
:10463000FD4F91838083F3C680E50E94A7418823C4
:1046400009F4EDC60E94E9418C0183E50E94A7416F
:10465000882321F00E94E9417C0103C0EE24EA9402
:10466000FE2CC7010196039708F0D9C6E5EFF2E0EA
:10467000819191918017910709F4D1C623E0E53427
:10468000F207B1F717FDCBC60E9457D4D02E60E0D9
:10469000802F0E94AA803FEFE316F30631F0EA94E0
:1046A000EF2871F401E010E00DC0802F0E9452DC71
:1046B00031E020E0892B09F030E0032F122F02C0F7
:1046C00000E010E08D2D0E9452DC8017910709F464
:1046D000A6C60E94EEB4F6CF83E50E94A7418823C8
:1046E00019F00E9429D702C084E091E099A388A321
:1046F00080E50E94A741882349F00E9429D7893884
:1047000053E1950728F088E893E102C088EE93E032
:104710009A838983BE01605E7F4FCE0101960E941D
:10472000E5C57DC685E40E94A741811110C080E5E2
:104730000E94A741882399F00E940C426093760260
:1047400070937702809378029093790208C00E9458
:10475000E941181619065CF7EBE1FEE090C089E428
:104760000E94A741882381F00E940C422CE933E586
:1047700049E45EE30E94B6EC6093690270936A02BA
:1047800080936B0290936C0284E40E94A74188237B
:1047900081F00E940C422CE933E549E45EE30E947B
:1047A00044E560937A0270937B0280937C0290933D
:1047B0007D020E94BCD3E6E3FEE084918F010F5F8F
:1047C0001F4F882321F00E94CA43F801F6CFE1E889
:1047D000F5E084918F010F5F1F4F882321F00E9425
:1047E000CA43F801F6CF609176027091770280910A
:1047F00078029091790242E00E949F47EDE7F5E050
:1048000084918F010F5F1F4F882321F00E94CA43BC
:10481000F801F6CF2CE933E549E45EE360916902E3
:1048200070916A0280916B0290916C020E9444E543
:1048300042E00E949F47E9E7F5E084918F010F5F16
:104840001F4F882321F00E94CA43F801F6CF2CE9BC
:1048500033E549E45EE360917A0270917B028091D6
:104860007C0290917D020E94B6EC42E00E949F473C
:104870008AE00E94CA43D3C50E94CA43F8018491CA
:104880008F010F5F1F4F8111F7CF04ED13E0D801A7
:104890008D918D01882311F40C94DB1A0E94CA4378
:1048A000F6CF80E50E94A741882351F00E940C4278
:1048B0006093E3027093E4028093E5029093E60232
:1048C00089E40E94A741882381F00E940C422CE9D0
:1048D00033E549E45EE30E94B6EC609365027093B1
:1048E0006602809367029093680284E40E94A74165
:1048F000882381F00E940C422CE933E549E45EE311
:104900000E9444E56093DF027093E0028093E1022D
:104910009093E2020E94BCD3E6E3FEE084918F0113
:104920000F5F1F4F882321F00E94CA43F801F6CF82
:10493000EDE8F5E084918F010F5F1F4F882321F090
:104940000E94CA43F801F6CF6091E3027091E4023D
:104950008091E5029091E60242E00E949F47E9E8DB
:10496000F5E084918F010F5F1F4F882321F00E9493
:10497000CA43F801F6CF2CE933E549E45EE36091E0
:1049800065027091660280916702909168020E94B0
:1049900044E542E00E949F47E5E8F5E084918F01FD
:1049A0000F5F1F4F882321F00E94CA43F801F6CF02
:1049B0002CE933E549E45EE36091DF027091E002A7
:1049C0008091E1029091E2020E94B6EC42E00E94E6
:1049D0009F478AE00E94CA4322C583E50E94A741FF
:1049E000082F8823A1F00E940C4260936E027093FE
:1049F0006F02809370029093710211E020E030E02A
:104A0000A9010E9451EC811110E01093A80980E5E2
:104A10000E94A741182F8823C1F020E030E0A901AF
:104A200060916E0270916F0280917002909171029C
:104A30000E9451EC882331F00E94BA4111E08111AB
:104A400001C010E01093A809EAC40111E8C4E6E32C
:104A5000FEE084918F010F5F1F4F882321F00E9499
:104A6000CA43F801F6CF8091A809811103C06CEC0C
:104A700073E002C06FEB73E086EA95E00E94D143D9
:104A800020E030E040E05FE360916E0270916F02E1
:104A900080917002909171020E9458E40E94B5E5E5
:104AA00085E995E00E945047E1E9F5E084918F01A6
:104AB0000F5F1F4F882309F4B2C40E94CA43F80154
:104AC000F5CF85E40E94A741882321F00E94E941A7
:104AD0001C0102C0212C312C83E40E94A7418823B1
:104AE00039F00E94E94164969FAF8EAF649706C08B
:104AF000E5E0F0E06496FFAFEEAF649785E50E94D5
:104B0000A741882341F00E94BA41F1E02996FFAF06
:104B10002997811103C029961FAE299783E50E942A
:104B2000A741882339F00E940C426AAB7BAB8CAB67
:104B30009DAB08C01AAA1BAA37FC0AC026E12CAB01
:104B400033E43DAB2114310439F41092740404C0F1
:104B50004CE84CAB52E45DAB1092B20F1092B10F27
:104B60000E9494AA2B013C01C1010196029718F4FE
:104B700005EE13E00EC008EF13E0D8018D918D0112
:104B8000882319F00E94CA43F8CF8AE00E94CA43E2
:104B900046C4F80181918F01882319F00E94CA430D
:104BA000F8CF8AE00E94CA430E94A1CE8FE7FFEFB0
:104BB0002F163F0619F48093720702C08093730783
:104BC00081E080934C022E964CAE5DAE6EAE7FAE11
:104BD0002E9768964CAE5DAE6EAE7FAE689721960E
:104BE0001FAE219720E422962FAF22973CE1239617
:104BF0003FAF239746E424964FAF249725961FAEE8
:104C0000259726961FAE269727961FAE279728969C
:104C10001FAE28971CAE1DAE1EAE1FAE18AE19AE4D
:104C20001AAE1BAEC12CD12C7601FFE78F2E912C32
:104C3000A12CB12C8FE790E0A0E0B0E08EA79FA759
:104C4000A8ABB9AB62961CAE1DAE1EAE1FAE62978E
:104C500091E02A969FAF2A971FAA1EAA1CA21EA205
:104C600000E010E080914C02882309F403C20E9406
:104C700094AA6AA77BA78CA79DA780917107882318
:104C800009F4D4C00E9465CFAFEF2A163A0659F452
:104C9000B0917407BCA3E0917507EEA3009176076D
:104CA000109177070AC0F0911110FCA32091121007
:104CB0002EA300911310109114102CA13EA1A80155
:104CC00025966FAD259726967FAD269727968FADB3
:104CD000279728969FAD28970E94A0E6181674F093
:104CE0003CA125963FAF25974EA126964FAF26971C
:104CF00027960FAF279728961FAF28972CA13EA184
:104D0000A80121966FAD219722967FAD2297239619
:104D10008FAD239724969FAD24970E9451EC87FD79
:104D20000EC05CA121965FAF21978EA122968FAF16
:104D3000229723960FAF239724961FAF24972A9686
:104D40009FAD2A972AA93BA94CA95DA96CA17EA178
:104D5000802F992309F44FC0912F0E94A0E61816C6
:104D60000CF064C04AA55BA56CA57DA54419550946
:104D700066097709DB01CA0188589341A109B10985
:104D8000B7FD54C08EA59FA5A8A9B9A988199909EE
:104D9000AA09BB09B595A79597958795EFEF2E16AC
:104DA0003E0619F48093720702C0809373076296DF
:104DB0004CAF5DAF6EAF7FAF6297FAA92596FFAF9C
:104DC00025972BA926962FAF26973CA927963FAF6C
:104DD00027974DA928964FAF28978AA59BA5ACA5E4
:104DE000BDA52E968CAF9DAFAEAFBFAF2E972A96C6
:104DF0001FAE2A971BC0912F0E9451EC87FF16C04F
:104E00008AA59BA5ACA5BDA52E962CAD3DAD4EADFE
:104E10005FAD2E97821B930BA40BB50BAC01BD01AC
:104E2000485853416109710977FF87C420E030E099
:104E300040EA51E46AA97BA98CA99DA90E9458E483
:104E40009B01AC016CA17EA1C8010E94A0E61816CE
:104E50006CF4E6E7F6E084918F010F5F1F4F882323
:104E600009F4DDC20E94CA43F801F5CF80E398EF50
:104E7000AFEFBFEF68962CAD3DAD4EAD5FAD68971F
:104E8000821B930BA40BB50B2AA53BA54CA55DA5D6
:104E9000820F931FA41FB51FB7FD0FC00E94D8D566
:104EA0008AE00E94CA438AA59BA5ACA5BDA56896C9
:104EB0008CAF9DAFAEAFBFAF68978AA59BA5ACA5E1
:104EC000BDA5880F991FAA1FBB1F2E962CAD3DAD07
:104ED0004EAD5FAD2E97821B930BA40BB50B8419BF
:104EE0009509A609B70981389F44A241B10568F028
:104EF000E8E5F6E084918F010F5F1F4F882309F4E6
:104F00008EC20E94CA43F801F5CF4EA95FA96496EC
:104F10008EAD9FAD6497841795070CF0A8C0EBEF9A
:104F2000F5E084918F010F5F1F4F882321F00E94CD
:104F3000CA43F801F6CF9FEF2916390619F00FE69C
:104F400014E002C000ED13E0B80189EE95E00E9484
:104F5000D143B701A60185EE95E00E942B488AE077
:104F60000E94CA43B80183ED95E00E94D14348AD49
:104F700059AD6AAD7BAD8FEC95E00E942B488AE07D
:104F80000E94CA43B8018DEB95E00E94D1434CAD1D
:104F90005DAD6EAD7FAD89EB95E00E942B488AE058
:104FA0000E94CA432996AFAD2997AA2309F437C2B4
:104FB0002320209469F5C092E302D092E402E092AB
:104FC000E502F092E6022CE933E549E45EE368ADE0
:104FD00079AD8AAD9BAD0E94B6EC6093650270938B
:104FE000660280936702909368022CE933E549E4F6
:104FF0005EE36CAD7DAD8EAD9FAD0E9444E56093E8
:10500000DF027093E0028093E1029093E2022CC0F1
:10501000C0927602D0927702E0927802F092790202
:105020002CE933E549E45EE368AD79AD8AAD9BAD2B
:105030000E94B6EC6093690270936A0280936B02DF
:1050400090936C022CE933E549E45EE36CAD7DADF1
:105050008EAD9FAD0E9444E560937A0270937B020F
:1050600080937C0290937D020E94BCD3D8C10E94A1
:105070001AB0F8CD80914C028111D1C10E94A1CE0D
:10508000CEC10E9457D4CBC180E00E9446C1C7C1A7
:105090004EA15FA1465853415BA74AA7AEA1BFA14D
:1050A0008D91BFA3AEA3882309F4AEC0F801EE5AD8
:1050B000FD4F2081318142815381F801EB52F84F3D
:1050C00060817181828193810E9458E420E030E008
:1050D00040E05FE30E94B6EC9B01AC01F10160810E
:1050E0007181828193810E94A0E6181634F4C80170
:1050F000895A9D4D0E94564103C060E070E0CB018B
:10510000D1014D905D906D907C90ECA1FDA1C0808F
:10511000D180E280F380A70196010E9458E4F80153
:10512000E259FC4E20813181428153810E9458E432
:105130009B01AC01C301B2010E9457E44B015C0129
:1051400020E030E040EA51EC0E94A0E618166CF531
:1051500020E030E040EA51E4C501B4010E9451EC86
:1051600087FF23C0A5019401C701B6010E9457E43F
:105170004B015C01A70196010E9457E49B01AC0121
:10518000C301B2010E9458E4D1016D937D938D93C8
:105190009C931397ECA1FDA180829182A282B3829D
:1051A0008AA59BA50E945C412FC0EBE1FEE08491A3
:1051B0008F010F5F1F4F882321F00E94CA43F8011F
:1051C000F6CFE8E0F7E084918F010F5F1F4F88234F
:1051D00021F00E94CA43F801F6CF61E08AEF96E021
:1051E0000E94F4AF0E94117088E290E09A83898354
:1051F00088EC90E099A388A3BE016F5F7F4FCE013A
:1052000080960E94E5C50BC1F4E02F0E311C0C5FA7
:105210001F4F2CA13DA12C5F3F4F3DA32CA30C3071
:10522000110509F035CF0E94BD420E9419D560E0FA
:105230008AEE96E00E94F4AF83E992E099A388A3F6
:1052400008EC10E01A830983BE01605E7F4FCE0137
:1052500001960E94E5C58AEB92E099A388A31A8380
:105260000983BE01605E7F4FCE0101960E94E5C5B5
:10527000D6C00E94476DD3C00E945C6BD0C083E54E
:105280000E94A741982F882329F00E94BA4191E0FB
:10529000811190E0892F0E940A66C1C084918F011C
:1052A0000F5F1F4F882321F00E94CA43F801F6CFF9
:1052B000E9E3F7E084918F010F5F1F4F882311F41A
:1052C0000C94AA1A0E94CA43F801F4CFE1E3F7E074
:1052D00084918F010F5F1F4F882321F00E94CA43E2
:1052E000F801F6CF6CEE7FEF8FEF9FEF0E947844CE
:1052F00080E20E94CA43E9E2F7E084918F010F5FE8
:105300001F4F882321F00E94CA43F801F6CF64E1C1
:1053100070E080E090E00E9478440C94DB1A4091A9
:10532000250550912605609127057091280586E294
:1053300097E00E942B480C94DB1A0E9457D48BE410
:105340000E94A741882399F00E940C426B017C01C6
:1053500020E030E0A9010E94A0E687FD08C0C70157
:10536000B6010E94B5E570938B0260938A02E6E372
:10537000FEE084918F010F5F1F4F882321F00E9470
:10538000CA43F801F6CF60918A0270918B0282E4E1
:1053900097E00E9450478AE00E94CA4340C081E0E3
:1053A0008093DE021092970F83E50E94A741882325
:1053B00009F42FC30E94BA41811131C02AC3F22ED1
:1053C00020937504E6E3FEE084918F010F5F1F4F89
:1053D000882321F00E94CA43F801F6CFE3E5F7E005
:1053E00084918F010F5F1F4F882321F00E94CA43D1
:1053F000F801F6CF6F2D70E080E090E00E947844D5
:105400008AE00E94CA430BC080E00AC0B7E0EB16F6
:10541000F10409F03BC01093C5090093C40981E071
:105420001092B20F1092B10F811134C00C949A14E3
:1054300084918F010F5F1F4F882321F00E94CA4380
:10544000F801F6CFE8E6F7E084918F010F5F1F4F78
:10545000882321F00E94CA43F801F6CF00917D0411
:1054600010917E04D8018D918D01882319F00E943E
:10547000CA43F8CFE5E6F7E084918F010F5F1F4F35
:10548000882341F00E94CA43F801F6CF1092B20F70
:105490001092B10F0E949DB8BFC281E090E090933E
:1054A000B20F8093B10F10927907109278070C9485
:1054B000A8170E94F641AB01BC0140933C135093E6
:1054C0003D1360933E1370933F138BE892E10E946B
:1054D000014CA5CF18A219A21AA21BA2E8EDF2E076
:1054E00084918F010F5F1F4F882321F00E94CA43D0
:1054F000F801F6CFEFECF2E084918F010F5F1F4FC0
:10550000882321F00E94CA43F801F6CF6091A310CE
:105510007091A41080E090E04AE00E94F743E2EC32
:10552000F2E084918F010F5F1F4F882321F00E94CA
:10553000CA43F801F6CF6091A5107091A61080E0E3
:1055400090E04AE00E94F743E7EBF2E084918F019C
:105550000F5F1F4F882321F00E94CA43F801F6CF46
:105560006091A3107091A4108091A5109091A61045
:10557000681B790B8091951090919610019721E00E
:1055800030E0029710F020E030E0621B730B80E007
:1055900090E04AE00E94F7438AE00E94CA43EFEAA3
:1055A000F2E084918F010F5F1F4F882321F00E944A
:1055B000CA43F801F6CF8091A7109091A810A0914E
:1055C000A910B091AA1088A399A3AAA3BBA3BE0156
:1055D0006F5F7F4FCE0180960E94D642E2EAF2E0F2
:1055E00084918F010F5F1F4F811106C0AE014F5F85
:1055F0005F4F7A018A0104C00E94CA43F801F0CFCC
:10560000D8018D918D01882319F00E94CA43F8CFEB
:105610008091AB109091AC10A091AD10B091AE10F4
:1056200088A399A3AAA3BBA3BE016F5F7F4FCE013E
:1056300080960E94D642E2E9F2E084918F010F5FEA
:105640001F4F882321F00E94CA43F801F6CFF701CB
:1056500081917F01882319F00E94CA43F8CF8AE024
:105660000E94CA43EAE8F2E084918F010F5F1F4F66
:10567000882321F00E94CA43F801F6CFEAE7F2E05E
:1056800084918F010F5F1F4F882321F00E94CA432E
:10569000F801F6CF20E030E04AE754E46091AF1023
:1056A0007091B0108091B1109091B2100E9444E5B9
:1056B00042E00E949F47E8E7F2E084918F010F5F8C
:1056C0001F4F882321F00E94CA43F801F6CF8AE0D9
:1056D0000E94CA43A4CE85E990E10E9444839FCEF4
:1056E0000E9454C70C94771B0E9457D488E50E94EF
:1056F000A741882319F05F9A1092020889E50E9459
:10570000A741882319F08A9A109203088AE50E941B
:10571000A741882351F09FB7F894809108018160D8
:10572000809308019FBF1092040885E40E94A7415E
:10573000882309F474CE129A72CE4EA95FA914166A
:1057400015060CF032C162964CAC5DAC6EAC7FAC11
:105750006297480E591E6A1E7B1E62962CAD3DADA7
:105760004EAD5FAD6297281B390B4A0B5B0BCA012C
:10577000B901A50194010E944EF0A30192010E947B
:105780007FF08EA49FA4A8A8B9A8820E931EA41E81
:10579000B51E34E183169104A104B1040CF14CEE62
:1057A00084169104A104B1043CF450E885169104D8
:1057B000A104B1041CF105C06BEE862E912CA12C26
:1057C000B12C8EA69FA6A8AAB9AA8EEF90E0A0E061
:1057D000B0E088199909AA09BB094C015D0112C002
:1057E00024E130E040E050E02EA73FA748AB59ABA2
:1057F00054E1852E912CA12CB12C04C08EA69FA61D
:10580000A8AAB9AA4EA55FA568A979A982EE96E0D3
:105810000E9436D7B501A4018DED96E00E9436D7DF
:1058200021964FAD219722965FAD229723966FADBB
:10583000239724967FAD249786ED96E00E942B480F
:1058400025964FAD259726965FAD269727966FAD87
:10585000279728967FAD28978FEC96E00E942B48DB
:105860004EA95FA9433051050CF49FC0C501B40196
:105870000E9457EC20E030E040E850E40E94B6EC93
:105880006B017C0121962FAD219722963FAD229787
:1058900023964FAD239724965FAD249725966FAD41
:1058A000259726967FAD269727968FAD2797289622
:1058B0009FAD28970E9457E42BED3FE049E450E468
:1058C0000E94B6EC20E030E040E05FE30E94B6ECDE
:1058D0009B01AC01C701B6010E9444E56B017C014C
:1058E000C301B2010E9457EC2FE632E143E85AE3CC
:1058F0000E94B6EC2B013C01B701A60189EC96E0B1
:105900000E942B48B301A20183EC96E00E942B4831
:105910002AE939E949E15FE3C701B6010E94B6EC23
:105920006B017C019B01AC010E9458E4A301920130
:105930000E9444E568AF79AF8AAF9BAFA3019201A3
:10594000C701B6010E94B6EC20E030E040E05EE323
:105950000E94B6EC6CAF7DAF8EAF9FAF43EB642E71
:1059600046E0742EF3018491882331F0FFEF6F1A23
:105970007F0A0E94CA43F6CFB701A6018DEA96E0DE
:105980000E942B4848AD59AD6AAD7BAD87EA96E0E1
:105990000E942B484CAD5DAD6EAD7FAD81EA96E0C7
:1059A0000E942B488AE00E94CA438EA59FA5A8A901
:1059B000B9A9880D991DAA1DBB1DB595A7959795E9
:1059C00087952FEF2216320619F48093720702C0D2
:1059D000809373074EA95FA94F5F5F4F5FAB4EABDC
:1059E0005AA921965FAF21978BA922968FAF229754
:1059F0009CA923969FAF2397ADA92496AFAF249778
:105A00004AA45BA46CA47DA4B1E02A96BFAF2A97F8
:105A10000DCA0E94FED603CDC95ADF4F0FB6F894C7
:105A2000DEBF0FBECDBFDF91CF911F910F91FF90D1
:105A3000EF90DF90CF90BF90AF909F908F907F902E
:105A40006F905F904F903F902F9008952F923F92CC
:105A50004F925F926F927F928F929F92AF92BF927E
:105A6000CF92DF92EF92FF920F931F93CF93DF932A
:105A7000CDB7DEB7C45AD1090FB6F894DEBF0FBE5A
:105A8000CDBF0DB71EB7C657DF4F19830883CA585D
:105A9000D0400E9425C681110C94794086E50E9471
:105AA000A741882339F00E94E941A9969FAF8EAFA4
:105AB000A99706C021E030E0A9963FAF2EAFA99785
:105AC000A9964EAD5FADA9974530510570F0ECE257
:105AD000F9E084918F010F5F1F4F882311F40C941C
