:100000000C944D110C947E110C947E110C947E1165
:100010000C947E110C947E110C947E110C947E1124
:100020000C947E110C947E110C947E110C947E1114
:100030000C947E110C947E110C947E110C947E1104
:100040000C947E110C94898F0C947E110C947E116B
:100050000C947E110C947E110C94A6500C94CD75CA
:100060000C947E110C9477490C94244A0C947E11C4
:100070000C947E110C947E110C947E110C947E11C4
:100080000C947E110C947E110C947E110C947E11B4
:100090000C947E110C947E110C947E110C947E11A4
:1000A0000C947E110C947E110C947E110C947E1194
:1000B0000C947E110C947E110C947E110C947E1184
:1000C0000C947E110C947E110C947E110C947E1174
:1000D0000C947E110C947E110C947E110C947E1164
:1000E0000C947E11CD19D319D919E419EF19741A8A
:1000F000FA19031A0C1A171A221A2D1A3D1A481A3D
:10010000741A531A5E1A691AAD49B449C849D549D7
:10011000DF49F949E449F949E949EE49F949F6491C
:1001200024513451535163517E51835186518B5127
:100130008E51935196519B51A551A974AC749B74E7
:100140009F74A574E374B074B474BA74BE74C2744A
:10015000C874CC74D074E374D674DA74DE74049208
:100160000D921F92309243926192489261924D9209
:10017000529261925E9205A84CCDB2D44EB93836F7
:10018000A9020C50B9918688083CA6AAAA2ABE00EA
:100190000000803F434F4D4D554E49434154494F18
:1001A0004E0044525952554E004552524F52530040
:1001B000494E464F004543484F0020746F6F206CF6
:1001C0006F6E6720657874727573696F6E207072D8
:1001D0006576656E7465640A0020636F6C642065E3
:1001E0007874727573696F6E2070726576656E745F
:1001F00065640A00536C6565702E2E2E00205A3AF5
:10020000200020593A200042656420583A200052CC
:100210006F626F4D422072656164792E005761698B
:100220007420666F7220757365722E2E2E004E6FCD
:10023000206D6F76652E005072696E742074696D42
:10024000653A20006D0046696C616D656E742075BD
:100250007365643A200053746174733A20002C2053
:100260004C6F6E67657374206A6F623A2000546F3A
:1002700074616C2074696D653A2000537461747305
:100280003A20002C204661696C65643A20002C20DD
:1002900046696E69736865643A20005072696E74CD
:1002A000733A200053746174733A20004865617496
:1002B000696E672E2E2E00526F626F4D422072655E
:1002C0006164792E00B501B001A901A20194016F0A
:1002D00066660044454255473A004D31313320535C
:1002E000006F6B0048656174696E6720646F6E65AE
:1002F0002E003F0A0020573A0048656174696E6716
:100300002E2E2E00526F626F4D422072656164790D
:100310002E0042656420646F6E652E003F0A002047
:10032000573A004265642048656174696E672E0023
:10033000526F626F4D422072656164792E00526F78
:10034000626F4D42204F66662E004649524D57411E
:1003500052455F4E414D453A4D61726C696E203198
:100360002E312E302D52322E312E312E382028476C
:1003700069746875622920534F555243455F434F56
:1003800044455F55524C3A68747470733A2F2F6726
:1003900069746875622E636F6D2F526F626F33449C
:1003A0002F4D61726C696E205232204272616E6311
:1003B000682050524F544F434F4C5F56455253495B
:1003C0004F4E3A5232204D414348494E455F5459B1
:1003D00050453A526F626F4D422045585452554431
:1003E00045525F434F554E543A3120555549443A92
:1003F00063656465326132662D343161322D343784
:1004000034382D396231322D6335356336326633F7
:100410003637666620454D455247454E43595F4342
:100420004F4445533A4D3130382C4D3131322C4DFB
:100430003431300A007A5F6D61783A20007A5F6D5E
:10044000696E3A2000795F6D61783A2000785F6DBF
:10045000696E3A20005265706F7274696E6720652C
:100460006E6473746F70207374617475730A004DD9
:1004700031343520533C696E6465783E206F757465
:10048000206F662072616E67652028302D31290A41
:1004900000205A00205900580020204D61783A2051
:1004A00000205A00205900580020204D696E3A2043
:1004B000004F6E20004F666600536F667420656EB5
:1004C0006473746F70733A200020643A0020693AB4
:1004D0000020703A0020643A0020693A0020703A07
:1004E0000043290A0061626C656420286D696E20F2
:1004F00074656D702000436F6C642065787472754C
:100500006465732061726520004B6420002364657C
:1005100066696E65202044454641554C545F004B4A
:1005200069200023646566696E6520204445464164
:10053000554C545F004B70200023646566696E65FE
:10054000202044454641554C545F005049442041C9
:1005500075746F74756E652066696E69736865641D
:10056000212050757420746865206C617374204B71
:10057000702C204B6920616E64204B6420636F6E89
:100580007374616E74732066726F6D2062656C6F38
:100590007720696E746F20436F6E6669677572614C
:1005A00074696F6E2E680A00504944204175746F5B
:1005B00074756E65206661696C6564212074696D6F
:1005C000656F75740A00504944204175746F7475E5
:1005D0006E65206661696C6564212054656D706587
:1005E00072617475726520746F6F20686967680A3C
:1005F00000204B643A2000204B693A2000204B70C9
:100600003A20000A20436C617373696320504944A7
:10061000200A002054753A2000204B753A20002013
:100620006D61783A2000206D696E3A200020643AAE
:10063000200020626961733A20004F66667365741A
:1006400073206170706C696564004572723A205461
:100650006F6F206661722100546F6F206661722097
:1006600066726F6D207265666572656E6365207077
:100670006F696E740A003A20007A5F6D61783A20E3
:10068000007A5F6D696E3A20005A204F6666736586
:100690007400416374697665204578747275646589
:1006A000723A2000220A00556E6B6E6F776E2063DF
:1006B0006F6D6D616E643A202200202B000A436F3B
:1006C0007272656374656420426564204865696779
:1006D00068742076732E2042656420546F706F6CAE
:1006E0006F67793A0A00202B000A4265642048654A
:1006F0006967687420546F706F6772617068793AC7
:100700000A2020202B2D2D2D204241434B202D2D22
:100710002B0A2020207C2020202020202020202088
:10072000207C0A204C207C20202020282B292020DF
:1007300020207C20520A2045207C202020202020C0
:1007400020202020207C20490A2046207C20282DA3
:1007500029204E20282B29207C20470A2054207C49
:1007600020202020202020202020207C20480A201B
:1007700020207C20202020282D29202020207C20A3
:10078000540A2020207C20202020202020202020EF
:10079000207C0A2020204F2D2D2046524F4E5420E1
:1007A0002D2D2B0A2028302C30290A004D65616E32
:1007B000206F662073616D706C656420706F696E68
:1007C00074733A200020643A200020623A200045E9
:1007D000716E20636F656666696369656E74733AEE
:1007E00020613A200028422961636B002846297263
:1007F0006F6E74002852296967687400284C296557
:100800006674003F4E756D626572206F662070726F
:100810006F626564202850296F696E747320697354
:1008200020696D706C61757369626C652028322077
:100830006D696E696D756D292E0A0052756E6E694F
:100840006E6720696E204452592D52554E206D6FAF
:1008500064650A00473239204175746F204265642F
:10086000204C6576656C696E670A003F28562965DD
:1008700072626F7365204C6576656C2069732069C0
:100880006D706C61757369626C652028302D342938
:100890002E0A002569730025696D202569730025DE
:1008A00069682025696D2025697300256964202504
:1008B00069682025696D20256973002569792025DF
:1008C0006964202569682025696D202569730022E7
:1008D0000A00656E7175657565696E672022004E48
:1008E0006F204C696E65204E756D62657220776968
:1008F000746820636865636B73756D2C204C61733D
:1009000074204C696E653A200053544F5050454452
:100910002E20005072696E7465722073746F70704F
:1009200065642064756520746F206572726F7273E0
:100930002E2046697820746865206572726F722077
:10094000616E6420757365204D39393920746F20CC
:10095000726573746172742E202854656D706572AF
:1009600061747572652069732072657365742E20D9
:1009700053657420697420616674657220726573B2
:1009800074617274696E67290A004E6F204368654E
:10099000636B73756D2077697468206C696E652070
:1009A0006E756D6265722C204C617374204C696E9B
:1009B000653A2000636865636B73756D206D6973BC
:1009C0006D617463682C204C617374204C696E6592
:1009D0003A20004C696E65204E756D626572206923
:1009E00073206E6F74204C617374204C696E6520A7
:1009F0004E756D6265722B312C204C617374204CE6
:100A0000696E653A20004D3131300020496E7661C3
:100A10006C696420657874727564657220000000EA
:100A200044430000444300008243000000000000F3
:100A3000000000000000205A3A200020593A20000F
:100A400042656420583A200020706F736974696FA2
:100A50006E206F7574206F662072616E67652E0A56
:100A6000003F50726F626520006265640A002C20AE
:100A700073797374656D2073746F70706564212071
:100A80004865617465725F49443A20003002B400E1
:100A9000300D8C00900E87005010820020127D00D7
:100AA00080147800A016730060196E00E01B6900C6
:100AB000001F6400B0215F0090245A0050275500A9
:100AC000302A5000E02C4B00602F4600903141004E
:100AD00060333C0090343700B036320030382D009F
:100AE000E0392800203B2300203C1E00103D190067
:100AF000B03D1400303E0F00903E0A00203F000041
:100B0000F03FD8FF4572723A204D415854454D5040
:100B100020424544004572723A204D415854454D9B
:100B200050004D415854454D5020747269676765B7
:100B3000726564004572723A204D494E54454D50DD
:100B400020424544004572723A204D494E54454D6D
:100B500050004D494E54454D502074726967676589
:100B60007265640048656174696E67206661696CCE
:100B700065640048656174696E67206661696C65CB
:100B8000640048656174696E67206661696C6564BC
:100B90000048656174696E67206661696C65640010
:100BA00025753A2530327500253032753A253032B8
:100BB00075005A00590058000120000120002062F1
:100BC00079746573290A0053657474696E677320BC
:100BD00053746F726564202800454550524F4D2074
:100BE000636865636B73756D206D69736D617463A4
:100BF000680A00206279746573290A002073746F93
:100C00007265642073657474696E677320726574AD
:100C100072696576656420280048617264636F6458
:100C200065642044656661756C74205365747469ED
:100C30006E6773204C6F616465640A0020204D3834
:100C40003531205A005A2D50726F6265204F66660A
:100C500073657420286D6D293A0A0020204D3230CA
:100C6000302044300A0020204D3230302044002013
:100C700044697361626C65640A0046696C616D6504
:100C80006E742073657474696E67733A0020440053
:100C900020490020204D33303420500020440020D3
:100CA000490020204D3330312050005049442073FA
:100CB000657474696E67733A0A002046002042002A
:100CC00020204D313435205331204800204600206B
:100CD000420020204D3134352053302048004D61F2
:100CE00074657269616C20686561747570207061EB
:100CF00072616D65746572733A0A00205A0020595A
:100D00000020204D323036205800486F6D65206F2E
:100D1000666673657420286D6D290A0020450020E1
:100D20005A0020580020420020540020204D32302C
:100D300035205300416476616E636564207661728C
:100D40006961626C65733A20533D4D696E2066653A
:100D500065647261746520286D6D2F73292C205491
:100D60003D4D696E2074726176656C2066656564C0
:100D70007261746520286D6D2F73292C20423D6DA2
:100D8000696E696D756D207365676D656E7420742D
:100D9000696D6520286D73292C20583D6D61786937
:100DA0006D756D205859206A65726B20286D6D2F06
:100DB00073292C20205A3D6D6178696D756D205A1C
:100DC000206A65726B20286D6D2F73292C202045B9
:100DD0003D6D6178696D756D2045206A65726B2087
:100DE000286D6D2F73290A00205400205200202006
:100DF0004D323034205000416363656C657261741C
:100E0000696F6E733A20503D7072696E74696E67D7
:100E10002C20523D7265747261637420616E64208F
:100E2000543D74726176656C0A00204500205A00BA
:100E300020590020204D3230312058004D61786912
:100E40006D756D20416363656C65726174696F6E69
:100E500020286D6D2F7332293A0A00204500205A50
:100E60000020590020204D3230332058004D617849
:100E7000696D756D2066656564726174657320289F
:100E80006D6D2F73293A0A00204500205A00205921
:100E90000020204D39322058005374657073207043
:100EA000657220756E69743A0A005374616E6461EC
:100EB000726420446576696174696F6E3A20004DF2
:100EC00065616E3A20002020207369676D613A20C9
:100ED00000206D65616E3A20002020207A3A2000C3
:100EE000206F662000205A00205900205800476FCC
:100EF000696E6720746F3A00436C6F636B77697338
:100F0000650A00436F756E7465722D002044697226
:100F1000656374696F6E3A2000202020616E676CF3
:100F2000653A20005374617274696E67207261645F
:100F30006975733A2000506F736974696F6E696EDA
:100F400067207468652070726F62652E2E2E0A000D
:100F50003F4E756D626572206F66206C6567732009
:100F6000696E206D6F76656D656E74206E6F74208E
:100F7000706C61757369626C652028302D3135297C
:100F80002E0A00590058003F53616D706C65207344
:100F9000697A65206E6F7420706C61757369626C1C
:100FA000652028342D3530292E0A004D3438205A3A
:100FB0002D50726F6265205265706561746162695F
:100FC0006C69747920746573740A003F56657262A7
:100FD0006F7365204C6576656C206E6F7420706C45
:100FE00061757369626C652028302D34292E0A00E2
:100FF0002042403A0020403A00202F0020423A0090
:10100000202F0020543A00205A3A0020593A00205C
:10101000436F756E7420583A200020453A00205ADC
:101020003A0020593A00583A0053657474696E6763
:101030002054726176656C20416363656C657261F2
:1010400074696F6E3A200053657474696E6720523C
:1010500065747261637420416363656C6572617469
:10106000696F6E3A200053657474696E6720507220
:10107000696E7420416363656C65726174696F6E3B
:101080003A200053657474696E67205072696E74FB
:1010900020616E642054726176656C2041636365E3
:1010A0006C65726174696F6E3A2000000021002443
:1010B0000027002A002D0030003300010100000449
:1010C0000107010A0100002200250028002B002E44
:1010D000003100340002010000050108010B01008D
:1010E0000020002300260029002C002F00320000E1
:1010F00001000003010601090105050505070508B2
:10110000080808020202020A0A080804040404018A
:1011100001010101010101030303030303030304AC
:101120000707070C0C0C0C0C0C0C0C02020202063C
:10113000060606060606060B0B0B0B0B0B0B0B012C
:1011400002102020080810204010204080020102D8
:1011500001080402010102040810204080804020A0
:1011600010080402018004020180402010080402DB
:101170000108040201010204081020408001020459
:10118000081020408000000A0B02090C0D0E080711
:101190000304010000000000000000000000000047
:1011A000000000000000000000000000000000003F
:1011B00000121110000000000000000000000000FC
:1011C00000000000000000000000004B494C4C45AE
:1011D000442E2000202D20496E76616C69642065C4
:1011E00078747275646572206E756D626572202107
:1011F0000A004572726F723A002020506C616E6E68
:10120000657242756666657242797465733A20004C
:101210002046726565204D656D6F72793A20004DEC
:10122000617920313020323031370A00436F6D70E0
:10123000696C65643A200028726F626F290A002089
:101240007C20417574686F723A2000323031372D3E
:1012500030332D32342031363A303000204C617337
:101260007420557064617465643A200020312E3119
:101270002E302D52322E312E312E380A004D617211
:101280006C696E0020536F667477617265205265D9
:101290007365740A00205761746368646F67205235
:1012A000657365740A002042726F776E206F7574E3
:1012B0002052657365740A002045787465726E610A
:1012C0006C2052657365740A00506F7765725570B3
:1012D0000A0073746172740A00456E6473746F70EF
:1012E0007320256320256320256320256300205A71
:1012F0003A0020593A0020583A00656E6473746FC2
:101300007073206869743A20004D6F76652058002C
:101310004D6F76652059004D6F7665205A004578EF
:1013200074727564657200457874727564657200D4
:101330004D6F7665205A004D6F76652059004D6FD0
:1013400076652058004D6F76652061786973004D91
:101350006F766520302E316D6D004D6F76652031D2
:101360006D6D004D6F76652031306D6D005072658A
:101370007061726500526573746F72652066616991
:101380006C73616665004C6F6164206D656D6F7292
:10139000790053746F7265206D656D6F72790046C8
:1013A000696C616D656E74004D6F74696F6E005489
:1013B000656D7065726174757265004D61696E006E
:1013C000507265686561742041425320636F6E6698
:1013D000005072656865617420504C4120636F6EE7
:1013E00066005049442D44005049442D4400504962
:1013F000442D49005049442D49005049442D500086
:101400005049442D500020022046616374002002A0
:101410002046616374002002204D61780020022084
:101420004D6178002002204D696E002002204D6938
:101430006E004F6666004F6E20004175746F7465D4
:101440006D700046616E2073706565640046616E64
:101450002073706565640042656400426564004EF7
:101460006F7A7A6C65004E6F7A7A6C6500436F6EA6
:1014700074726F6C0053746F7265206D656D6F725E
:10148000790042656400426564004E6F7A7A6C654B
:10149000004E6F7A7A6C650046616E2073706565E8
:1014A000640046616E2073706565640054656D70FC
:1014B000657261747572650053746F7265206D6535
:1014C0006D6F72790042656400426564004E6F7A08
:1014D0007A6C65004E6F7A7A6C650046616E207397
:1014E000706565640046616E2073706565640054C4
:1014F000656D7065726174757265004573746570B1
:10150000732F6D6D004573746570732F6D6D005A88
:1015100073746570732F6D6D005A73746570732FDB
:101520006D6D005973746570732F6D6D0059737410
:101530006570732F6D6D005873746570732F6D6DCA
:10154000005873746570732F6D6D00412D74726156
:1015500076656C00412D74726176656C00412D7268
:1015600065747261637400412D7265747261637495
:1015700000416D6178204500416D61782045004152
:101580006D6178205A00416D6178205A00416D618B
:1015900078205900416D6178205900416D617820B3
:1015A0005800416D61782058005654726176206D64
:1015B000696E005654726176206D696E00566D69D1
:1015C0006E00566D696E00566D6178204500566D4F
:1015D0006178204500566D6178205A00566D61781B
:1015E000205A00566D6178205900566D6178205957
:1015F00000566D6178205800566D6178205800566D
:10160000652D6A65726B0056652D6A65726B0056B2
:101610007A2D6A65726B00567A2D6A65726B005678
:1016200078792D6A65726B005678792D6A65726BD0
:1016300000416363656C00416363656C005A204F31
:101640006666736574005A204F666673657400435E
:101650006F6E74726F6C0046696C2E204469612E47
:101660000046696C2E204469612E004F6666004F6B
:101670006E20004520696E206D6D3300436F6E74DF
:10168000726F6C00436F6E74726F6C005072657095
:101690006172650054756E6500496E666F207363F4
:1016A0007265656E00466C6F7700466C6F7700461A
:1016B000616E2073706565640046616E20737065AD
:1016C00065640042656400426564004E6F7A7A6C1E
:1016D00065004E6F7A7A6C650053706565640053DF
:1016E00070656564004D61696E0050726568656182
:1016F0007420504C412042656400507265686561F9
:101700007420504C410050726570617265005072D7
:1017100065686561742041425320426564005072DF
:101720006568656174204142530050726570617252
:1017300065004D3432380053776974636820706FE8
:10174000776572206F6E004D38310053776974638E
:101750006820706F776572206F666600436F6F6CEC
:10176000646F776E00507265686561742041425302
:10177000005072656865617420504C41004D3834EA
:101780000044697361626C65207374657070657282
:1017900073004D6F76652061786973004732380AAF
:1017A00047323900473239004C6576656C206265F6
:1017B00064004D38300053657420686F6D65206F8C
:1017C00066667365747300473238004175746F2024
:1017D000686F6D65004D61696E004B494C4C454426
:1017E0002E200024F4D43050C38E20C2A240178291
:1017F0008B7011127A910D816CD90AA861E108C72A
:10180000586607615143061E4B5D05C145A7041A82
:10181000411104093D9803713931034036DB0265FB
:10182000339102D4305402802E1D02632CEE0175D8
:101830002AC501B028A001102781018F2564012B42
:10184000244B01E0223401AC211F018D200D0180C9
:101850001FFC00841EED00971DDF00B81CD200E6BF
:101860001BC600201BBC00641AB200B219A8000AF3
:1018700019A0006A189900D117910040178B00B584
:1018800016840031167E00B31579003A157300C72F
:10189000146F0058146A00EE136600881363002565
:1018A000135E00C7125B006C12570015125400C182
:1018B00011510070114F0021114B00D61049008DBD
:1018C0001047004610440002104200C00F40008044
:1018D0000F3E00420F3C00060F3B00CB0E3800933A
:1018E0000E37005C0E3500270E3400F30D3200C1B8
:1018F0000D3100900D3000600D2E00320D2D0005D1
:101900000D2C00D90C2B00AE0C2900850C29005C95
:101910000C2700350C27000E0C2600E80B2400C411
:101920000B2400A00B23007D0B23005A0B21003950
:101930000B2100180B2000F80A1F00D90A1E00BB5B
:101940000A1E009D0A1D00800A1D00630A1C004734
:101950000A1B002C0A1B00110A1A00F7091A00DDE5
:10196000091900C4091900AB091900920917007B75
:10197000091800630917004C0916003609160020E3
:101980000916000A091500F5081500E0081400CC36
:10199000081400B8081400A4081400900813007D6F
:1019A0000812006B08130058081200460812003491
:1019B000081100230811001208110001081100F09D
:1019C000071000E0071000D0071000C0071000B09B
:1019D000070F00A107100091070E0083070F007486
:1019E000070F0065070E0057070E0049070E003B62
:1019F000070D002E070E0020070D0013070D00062F
:101A0000070D00F9060C00ED060D00E0060C00D4F1
:101A1000060C00C8060C00BC060C00B0060C00A4A6
:101A2000060B0099060C008D060B0082060B007752
:101A3000060B006C060B0061060A0057060B004CF3
:101A4000060A0042060A0038060A002E060A00248A
:101A5000060A001A060A001006090007060A00FD19
:101A6000050900F4050900EB050900E2050900D9A4
:101A7000050900D0050900C7050900BE050900B524
:101A8000050800AD050800A50509009C050800949F
:101A90000508008C050800840508007C0508007412
:101AA0000508006C050700650508005D0507005680
:101AB0000508004E050700470507004005080038E7
:101AC000050700310507002A050700230507001C4C
:101AD000050600160507000F0507000805060002A9
:101AE000050700FB040600F5040700EE040600E805
:101AF000040600E2040700DB040600D5040600CF5C
:101B0000040600C9040600C3040600BD040600B7AD
:101B1000040600B1040500AC040600A6040600A0FB
:101B20000405009B04060095040500900406008A45
:101B300004050085040500800406007A040500758C
:101B4000040500700405006B0405006604050061CF
:101B50000405005C04050057040500520405004D0F
:101B600004050048040500430405003E0404003A4F
:101B700004050035040500300404002C040500278A
:101B8000040400230405001E0404001A04040016C3
:101B9000040500110404000D0404000904050004F8
:101BA00004040000040400FC030400F8030400F42F
:101BB000030400F0030400EC030400E8030400E461
:101BC000030400E0030400DC030400D8030400D491
:101BD000030400D0030400CC030400C8030300C5C1
:101BE00003030024F404D9201BC40C5C0E9804C425
:101BF000095F0265077101F405F900FB04B30048B1
:101C0000048700C10369005803550003034500BE63
:101C1000023A008402310053022A002902250004FE
:101C2000022000E4011C00C8011900AF0117009850
:101C300001140084011300710110006101100051B2
:101C4000010E0043010D0036010B002B010B00209B
:101C5000010B00150109000C01090003010800FB3C
:101C6000000800F3000800EB000700E4000600DEB7
:101C7000000600D8000600D2000600CC000500C710
:101C8000000500C2000500BD000400B9000400B555
:101C9000000400B1000400AD000400A9000400A588
:101CA000000300A20003009F0004009B00030098B3
:101CB0000003009500020093000300900003008DD4
:101CC0000002008B000300880002008600020084EE
:101CD000000300810002007F0002007D0002007B03
:101CE0000002007900020077000100760002007413
:101CF00000020072000100710002006F0002006D1E
:101D00000001006C0002006A000100690002006727
:101D1000000100660001006500010064000200622D
:101D200000010061000100600001005F0002005D31
:101D30000001005C0001005B0001005A0001005935
:101D40000001005800010057000100560001005535
:101D50000001005400010053000000530001005234
:101D600000010051000100500001004F0001004E31
:101D70000000004E0001004D0001004C0001004B2E
:101D80000000004B0001004A00010049000100482A
:101D90000000004800010047000100460000004626
:101DA000000100450000004500010044000100431F
:101DB0000000004300010042000000420001004119
:101DC00000000041000100400001003F0000003F12
:101DD0000001003E0000003E0001003D0000003D0B
:101DE0000001003C0000003C0000003C0001003B02
:101DF0000000003B0001003A0000003A00010039F9
:101E000000000039000100380000003800000038F0
:101E100000010037000000370001003600000036E6
:101E200000000036000100350000003500000035DC
:101E300000010034000000340000003400010033D1
:101E400000000033000000330001003200000032C7
:101E500000000032000100310000003100000031BC
:101E60000001003000000030000000300001002FB1
:101E70000000002F0000002F0000002F0001002EA6
:101E80000000002E0000002E0001002D0000002D9B
:101E90000000002D0000002D0001002C0000002C8F
:101EA0000000002C0000002C0001002B0000002B83
:101EB0000000002B0000002B0001002A0000002A77
:101EC0000000002A0000002A00010029000000296B
:101ED000000000290000002900000029000100285E
:101EE0000000002800000028000000280000002852
:101EF0000001002700000027000000270000002745
:101F00000000002700010026000000260000002637
:101F1000000000260000002600010025000000252A
:101F2000000000250000002500000025000000251D
:101F30000001002400000024000000240000002410
:101F40000000002400010023000000230000002303
:101F500000000023000000230000002300000023F5
:101F600000010022000000220000002200000022E8
:101F700000000022000000220001002100000021DA
:101F800000000021000000210000002100000021CD
:101F900000000021000100200000002000000020BF
:101FA00000000020000000200000002000000020B1
:101FB000000000200001001F0000001F0000001FA3
:101FC0000000001F0000001F0000001F0000001F95
:101FD0000001001E0000001E0000001E0000001E88
:101FE00000000070012C0190012701B0012201C006
:101FF000011D01F00118011002130130020E0160F1
:1020000002090190020401C002FF000003FA00402F
:1020100003F5008003F000D003EB002004E600701D
:1020200004E100E004DC004005D700C005D2004018
:1020300006CD00D006C8008007C3003008BE00F0FF
:1020400008B900C009B400B00AAF00B00BAA00D0B4
:102050000CA500000EA000500F9B00C01096005071
:1020600012910000148C00C0158700B0178200B0D8
:10207000197D00D01B7800001E730040206E009078
:10208000226900F024640040275F0090295A00E094
:102090002B5500102E500020304B0010324600E02F
:1020A00033410090353C001037370070383200A0C3
:1020B000392D00B03A2800A03B2300603C1E0010E0
:1020C0003D1900903D1400103E0F00703E0A00C004
:1020D0003E0500003F0000206669727374005A00DC
:1020E00059005800486F6D6520002066697273744E
:1020F0000A005A0059005800486F6D65200065635A
:10210000686F3A00544845524D414C2052554E415B
:1021100057415900546865726D616C2052756E614B
:102120007761790020746F6F206C6F6E672065781F
:1021300074727573696F6E2070726576656E746502
:10214000640A0020636F6C6420657874727573692B
:102150006F6E2070726576656E7465640A005265F4
:1021600073656E643A20006F6B00627573793A2074
:1021700070617573656420666F7220696E70757426
:102180000A00627573793A20706175736564206620
:102190006F7220757365720A00627573793A2070E8
:1021A000726F63657373696E670A004B494C4C45E7
:1021B000442E20004B494C4C45442E2000506C6569
:1021C000617365207265736574005052494E5445C1
:1021D000522048414C544544005072696E746572F7
:1021E0002068616C7465642E206B696C6C282920F2
:1021F00063616C6C6564210A00000000000000440B
:1022000043000082435761726E696E673A20486FDF
:102210006D696E672042756D702044697669736FD1
:1022200072203C20310A000000A0400000A04000C5
:10223000000040000044430000444300008243FF8C
:1022400001014572726F722077726974696E67203E
:10225000746F20454550524F4D210A004E414E4962
:102260004E495459494E46CDCCCC3D0AD7233C1754
:10227000B7D13877CC2B329595E6241FB14F0A00A1
:102280000020410000C84200401C4620BCBE4CCA91
:102290001B0E5AAEC59D740001BB11241FBECFEFAB
:1022A000D1E2DEBFCDBF00E00CBF14E0A0E0B2E0A1
:1022B000EEE5F5E901E00BBF02C007900D92AA32EE
:1022C000B107D9F723E1AAE2B4E001C01D92AB3D0A
:1022D000B207E1F711E1CDE4D1E100E006C02197BA
:1022E0000109802FFE010E94EBBECC34D10780E0B3
:1022F0000807A9F70E9491B50C94ADCA0C94000090
:102300002F923F924F925F926F927F928F929F9205
:10231000AF92BF92CF92DF92EF92FF920F931F93F3
:10232000CF93DF93CDB7DEB7C556D1090FB6F8947A
:10233000DEBF0FBECDBF0091360C20E6029F8001AC
:1023400011240C5C1B4F10933A0A0093390A8091B8
:10235000301380FF18C0EEEFF0E284917F013FEF71
:10236000E31AF30A882321F00E944744F701F5CFCE
:10237000D8018D918D01882319F00E944744F8CF30
:102380008AE00E9447442091390A30913A0AF901C3
:1023900080812F5F3F4F8032D1F3F0933A0AE09370
:1023A000390A8E3469F01091390A00913A0A6AE2CA
:1023B00070E0812F902F0E9477C10097D1F420C048
:1023C000818190ED980F9A3010F08D3261F732963E
:1023D000DF0131962C9120532A30D0F3CD01FC013E
:1023E000019620812032D9F3F0933A0AE093390A1A
:1023F000DACFFC0131968291803231F08A3221F0BD
:10240000A12FB02F9D9102C01082F5CFFD018081D8
:1024100011968032D9F380538A3020F0EEEFF0E24B
:102420000C94462920E030E06AE0629FA001639F9F
:10243000500D11249A01205331098191280F311D2B
:1024400087FD3A95808180538A3078F38F013196E9
:10245000D8018C918032D1F310933304009332046D
:1024600041E050E050934713409346139D3409F4E4
:10247000E4C4943511F40C940D29973411F00C94A4
:1024800032292D31310509F4BDC388F424303105DA
:1024900009F47CC230F42230310508F448C00C94B1
:1024A0003D292C31310509F4AFC20C943D292A3560
:1024B000310509F40EC488F52E31310511F00C9464
:1024C0003D290E94284420E030E040EF51E4609133
:1024D00051127091521280915312909154120E9495
:1024E000FBBE4B015C0120E030E0A90160914D1280
:1024F00070914E1280914F12909150120E94FBBE2B
:10250000EE24E394F12C01E0A50194010E943748E8
:102510006B017C01E7E0F2E079C32B35310509F46A
:10252000DCC32C35310509F4DDC30C943D298091C1
:102530000902882311F40C943D2980E5C82E83E11B
:10254000D82E9DE4E92E92E1F92E24E3A22E2AE072
:10255000B22E06ED12E034E0932E900EF801819138
:102560008F010E941E428823E1F00E947842D5012B
:102570002C91211104C02091380A222331F0F70157
:10258000208131814281538103C020E030E0A901E4
:102590000E94FBBED6016D937D938D939C93139700
:1025A0000AC0F70180819181A281B381F601808305
:1025B0009183A283B383F4E0CF0ED11C24E0E20E1A
:1025C000F11C3FEFA31AB30A9012C8CF86E40E9411
:1025D0001E42882359F00E94784220E030E0A90191
:1025E0000E94B4C0181614F40C947B298091301307
:1025F00083FD2AC060915C1370915D1380915E131E
:1026000090915F132091591230915A1240915B12B0
:1026100050915C12E0912213EE23B1F00E94FABEB9
:102620009B01AC01609114137091151380911613E6
:10263000909117130E94FBBE6093141370931513AF
:102640008093161390931713C090AE0CD090AF0CDC
:10265000E090B00CF090B10CA7019601609150137E
:102660007091511380915213909153130E9444C65C
:1026700087FF08C0C0925013D0925113E0925213BA
:10268000F0925313C090B20CD090B30CE090B40C05
:10269000F090B50CA70196016091541370915513F9
:1026A00080915613909157130E9444C687FF08C02B
:1026B000C0925413D0925513E0925613F0925713D0
:1026C000C090B60CD090B70CE090B80CF090B90C5C
:1026D000A7019601609158137091591380915A1374
:1026E00090915B130E9444C687FF08C0C0925813A4
:1026F000D0925913E0925A13F0925B13C0906C027F
:10270000D0906D02E0906E02F0906F02A7019601EA
:102710006091501370915113809152139091531303
:102720000E94B4C0181644F4C0925013D0925113B2
:10273000E0925213F0925313C0907002D090710245
:10274000E0907202F0907302A70196016091541319
:102750007091551380915613909157130E94B4C0F5
:10276000181644F4C0925413D0925513E0925613A5
:10277000F0925713C0907402D0907502E0907602E8
:10278000F0907702A7019601609158137091591348
:1027900080915A1390915B130E94B4C0181644F4B0
:1027A000C0925813D0925913E0925A13F0925B13CF
:1027B0000E9404448091301383FD90C080905C138C
:1027C00090905D13A0905E13B0905F13209159120A
:1027D00030915A1240915B1250915C12C501B401C4
:1027E0000E94FABE6B017C0120E030E0A9010E944A
:1027F00044C6882309F472C080912B13811134C020
:102800002091BC023091BD024091BE025091BF02A6
:10281000609176127091771280917812909179126E
:102820000E9444C687FF20C08092591290925A128B
:10283000A0925B12B0925C12EEEFF0E284918F01F5
:102840000F5F1F4F882321F00E944744F801F6CF05
:10285000E9EDF1E084918F010F5F1F4F882321F094
:102860000E944744F801F6CFC701B6010E94EEBFAF
:1028700097FF07C090958095709561957F4F8F4F1A
:102880009F4F693871408105910544F180915C1337
:1028900090915D13A0915E13B0915F1380935912D4
:1028A00090935A12A0935B12B0935C12EEEFF0E299
:1028B00084918F010F5F1F4F882321F00E944744AE
:1028C000F801F6CFEAEBF1E084918F010F5F1F4F23
:1028D000882321F00E944744F801F6CF209150133D
:1028E00030915113409152135091531360914D12F6
:1028F00070914E1280914F12909150120E9444C6D6
:1029000081111DC0209154133091551340915613DD
:10291000509157136091511270915212809153123D
:10292000909154120E9444C6811109C06091000226
:102930007091010280910202909103021AC060918D
:10294000690270916A02072E000C880B990B0E9495
:102950004AC620910002309101024091020250913A
:1029600003020E94A9C62AE037ED43E25CE30E941D
:10297000A9C60E949E4180E1E0E5F3E1ADE4B2E149
:1029800001900D928A95E1F70C943D2980E50E9413
:102990001E42882329F00E946D426B017C0103C016
:1029A000C12CD12C760183E50E941E42882321F0A0
:1029B0000E94A1426B017C010E94F1B20E9404447A
:1029C0008091481390914913A0914A13B0914B13F1
:1029D000C80ED91EEA1EFB1E80917F02811105C020
:1029E00060E084EF91E00E9458720E94C175DC01A2
:1029F000CB018C199D09AE09BF09B7FD02C00C942B
:102A00003D290E944AADF1CF0E94F1B20E943BB134
:102A10000E94284481E080934E0288E50E941E4275
:102A2000B82E89E50E941E42082F8AE50E941E42A8
:102A3000B11005C0011105C091E0982705C0011132
:102A400002C090E001C0982F9093040220E1EDE4D1
:102A5000F2E1A0E5B3E101900D922A95E1F7911121
:102A600002C0882321F082E090E00E94EAAB8091CE
:102A70000402811106C0BB2009F4A4C0002309F49C
:102A8000A1C0109251121092521210925312109231
:102A9000541210924D1210924E1210924F12109228
:102AA00050120E94AA42EFE3F2E2149183E392E211
:102AB0000E94CD416B017C0187E392E20E94CD41EF
:102AC0002B013C019B01AC01C701B6010E94B4C0BF
:102AD00018162CF4A7019601C301B20104C0A3018A
:102AE0009201C701B6010E947DBF9B01AC010E940B
:102AF000A9C620E030E040E85FE30E94FBBE0E94F0
:102B0000F6C020E030E048E452E40E94A9C66A8F93
:102B10007B8F8C8F9D8FE0E4F2E2A49020E030E088
:102B200040EC5FE3C301B2010E94A9C62B013C0146
:102B30006A2DAA0C770B880B990B0E944AC69B0141
:102B4000AC01C301B2010E94A9C669837A838B8359
:102B50009C8320E030E040EC5FE3C701B6010E94B7
:102B6000A9C66B017C01612F110F770B880B990BA4
:102B70000E944AC69B01AC01C701B6010E94A9C6CA
:102B80006E8B7F8B888F998F9E01265E3F4F45E528
:102B900052E1BE016F5F7F4FCE0146960E946640B4
:102BA0001092B613109251121092521210925312A8
:102BB0001092541210924D1210924E1210924F1207
:102BC0001092501280910402811102C0BB2021F0AA
:102BD00080E090E00E94EAAB80910402811102C083
:102BE000002321F081E090E00E94EAAB0E94AA421B
:102BF00080913D0280934E020E940F440E94226207
:102C00000C943D290E94142C0C943D2984918F0131
:102C10000F5F1F4F882321F00E944744F801F6CF31
:102C200020E030E0A90160914D1270914E12809128
:102C30004F12909150120E94FBBE27E137EB41EDFD
:102C400058E30E94FBBE42E00E94C647E2E0F2E089
:102C500084918F010F5F1F4F882321F00E9447440A
:102C6000F801F6CF20E030E040EF51E460915112DE
:102C70007091521280915312909154120E94FBBE97
:102C800027E137EB41ED58E30E94FBBE42E00E9492
:102C9000C647EDEFF1E084918F010F5F1F4F88234E
:102CA00021F00E944744F801F6CF27E137EB41EDD0
:102CB00058E3C701B6010E94FBBE42E00E94C6472E
:102CC0008AE00E9447440E940F440E9422620C94B2
:102CD0003D291092380A0C943D2981E08093380AEE
:102CE0000C943E2985E40E941E42B82E811102C038
:102CF0000E94F1B2A6ED8A2EA2E09A2EBDE4CB2E60
:102D0000B2E1DB2E17EBE12E13E1F12E00E010E033
:102D1000A12CD4018D914D010E941E428823F1F116
:102D2000F6012081318142815381A3962FAFA39771
:102D3000A4963FAFA497A5964FAFA597A6965FAF71
:102D4000A6970E947842D6016D937D938D939C93B4
:102D50001397A3962FADA397A4963FADA497A596DE
:102D60004FADA597A6965FADA69703301105B1F0BC
:102D70000E94FABE9B01AC01F701608171818281E2
:102D800093810E94FBBED7016D937D938D939C939D
:102D90001397C8010E94D341AA24A3940F5F1F4F29
:102DA000B4E0CB0ED11CE4E0EE0EF11C04301105B2
:102DB00009F0AFCFAA2021F00E94AA420C943D292D
:102DC000BB2011F40C943D292091691230916A12B4
:102DD00040916B1250916C126091591270915A127D
:102DE00080915B1290915C120E94A9C60E94B8C0AB
:102DF0006093D6127093D7128093D8129093D91201
:102E00008FB7F8944091D6125091D7126091D81292
:102E10007091D9124093491250934A1260934B1209
:102E200070934C128FBF1092C6121092C71210925C
:102E3000C8121092C9120C943D292737310511F49C
:102E40000C94A81F08F099C02335310511F40C9497
:102E50006F1F08F04DC02033310509F450C3D0F482
:102E60002131310509F4CDC130F42230310508F4A7
:102E700045C10C943D292F31310509F4D4C12A32C2
:102E8000310509F433C22231310511F00C943D298A
:102E90000C94741F2E34310509F453C378F42C3488
:102EA000310509F430C308F048C32B34310511F063
:102EB0000C943D290E9466B10C943D2921353105C1
:102EC00009F4ECC710F00C946B1F2035310511F09C
:102ED0000C943D29269A2E9881E080936B0260E045
:102EE00080E393E00E9458720E947E720C943D2908
:102EF0002B36310509F4C0C7E0F42C35310511F447
:102F00000C948B1F50F42435310509F4EDC7253599
:102F1000310509F4EDC70C943D292936310509F432
:102F200068C408F086C72836310509F41EC30C941E
:102F30003D292137310509F417C470F42E363105C7
:102F400009F459C32F36310509F471C32D36310503
:102F500011F00C943D296AC42337310509F4DFC709
:102F600008F4EBC72537310511F00C943D2960E0DA
:102F7000C8010E946D720C943D29223E310511F466
:102F80000C94582208F054C0293C310511F40C94DB
:102F90002A2120F52C38310509F412C478F4283799
:102FA000310509F4CEC72937310511F00C943D29BC
:102FB00010924E0210923D020C943D292E3B310599
:102FC00009F4DDC5283C310511F40C94DE202139CB
:102FD000310511F00C943D290C942C202E3C310528
:102FE00011F40C94512188F42C3C310511F40C940B
:102FF0004B2110F00C944E212B3C310511F00C9418
:103000003D290E9400620C943D292C3D310511F4AC
:103010000C9432222D3D310511F40C943F22233DB6
:10302000310511F00C943D29EEEFF0E20C9498215B
:103030002239F1E03F0711F40C949F2738F52F3225
:1030400051E0350711F40C949C2480F42D3291E06A
:10305000390711F40C94CE2210F00C9428242C3251
:10306000314011F40C94A8220C943D292039E1E060
:103070003E0711F40C94982710F00C949B272033F2
:10308000314011F40C948C230C943D29263F51E0DF
:10309000350711F40C949A28F0F4243F91E0390795
:1030A00011F40C94942810F00C9497282C3A314089
:1030B00011F00C943D299DE4292E92E1392EE3EC88
:1030C000F3E1FF8FEE8F2AE332E13BA32AA300E076
:1030D00010E00C94A3272335E3E03E0711F40C9491
:1030E000AC28273EF3E03F0711F40C94FD28273F5E
:1030F000314011F00C943D290C949D2880E50E94EC
:103100001E42882361F00E946D426B017C01BB244A
:10311000B394672B682B692B31F4B12C04C0B12C0C
:10312000C12CD12C760183E50E941E42882399F0A0
:103130000E94A1426B017C01B1100FC0672B682B6C
:10314000692B59F4D8018C91882339F061E0C801CA
:103150000E946D7207C0BB20A9F360E08DE192E090
:103160000E94587281E080932F0B10922E0B0E94C8
:10317000F1B20E940444C114D104E104F10439F114
:103180008091481390914913A0914A13B0914B1329
:10319000C80ED91EEA1EFB1E83E090E090934713F1
:1031A000809346130E94C175DC01CB018C199D09E7
:1031B000AE09BF09B7FD02C00C948D298091DE0BCA
:1031C00082FF02C00C948D290E944AADEBCF83E0B0
:1031D00090E090934713809346138091DE0B82FD1D
:1031E00003C00E944AADF9CF81E090E0909347136D
:1031F0008093461360E08FE092E00E9458720C9436
:103200003D2960E08EE292E00E9458725F988A98B1
:103210009FB7F894809108018E7F809308019FBF2B
:1032200012980C943D298AEF92E10E9499526E8B7C
:103230007F8B888F998FBE016F5F7F4FCE0146963F
:103240000E94444360E0CE0101960E946D72EEEF51
:10325000F0E284918F010F5F1F4F882321F00E94BD
:103260004744F801F6CFE7E3F2E084918F010F5F66
:103270001F4F811104C08E010F5F1F4F04C00E94B9
:103280004744F801F2CFF80181918F01882319F0AA
:103290000E944744F8CF8AE00E9447448091450C41
:1032A000882311F40C943D291092450C60917412FE
:1032B00070917512072E000C880B990B0E944AC65C
:1032C00020915F0230916002409161025091620250
:1032D0000E94B4C0181614F00C943D291092751277
:1032E000109274120E9403970C943D2983E50E946A
:1032F0001E42882311F40C943D290E9460428C01E7
:103300008F3F910519F010F00C943D2980E50E9443
:103310001E42882339F00E9460427C0197FF05C05D
:103320000C943D29FDE0EF2EF12CEAEDF2E08191C5
:103330009191E816F90611F40C943D2923E0EA3244
:10334000F207A9F7DE2C61E08E2D0E944D75602FEB
:103350008E2D0E940B7561E08E2D0E944D7501151A
:10336000110511F460E004C00F3F110519F461E08C
:103370008E2DBFC0F701FF27EB57FE4EE4914E2F75
:1033800050E0FA013197E231F10508F0ADC088272D
:10339000EE58FF4F8F4F0C94EBBE84B5806884BD10
:1033A00007BD0C94342984B5806284BD08BD0C949B
:1033B0003429809180008068809380001093890078
:1033C000009388000C94342980918000806280935F
:1033D000800010938B0000938A000C943429809114
:1033E000800088608093800010938D0000938C0093
:1033F0000C9434298091B00080688093B0000093D1
:10340000B3000C9434298091B00080628093B000A6
:103410000093B4000C9434298091900080688093CC
:10342000900010939900009398000C943429809197
:10343000900080628093900010939B0000939A000C
:103440000C943429809190008860809390001093B0
:103450009D0000939C000C9434298091A00080680A
:103460008093A0008091A0008F7B8093A000109398
:10347000A9000093A8000C9434298091A0008062D8
:103480008093A0001093AB000093AA000C94342901
:103490008091A00088608093A0001093AD000093FD
:1034A000AC000C9434298091200180688093200125
:1034B00010932901009328010C9434298091200154
:1034C00080628093200110932B0100932A010C94B9
:1034D00034298091200188608093200110932D0170
:1034E00000932C010C9434290038110534F460E069
:1034F0008D2D0E940B750C94342961E0F9CF0E9448
:1035000055640C943D298091FA129091FB12019719
:1035100011F00C943D2982E090E09093FB1280938F
:10352000FA120E94C175609304137093051380937F
:103530000613909307130C943D290E9453970C9403
:103540003D2983E50E941E42882311F40C94992999
:103550000E9460428E34910511F00C9499298AEFF3
:1035600092E10E94A69C0C943D2988E690E00E947E
:10357000174681110C943D298091301383FF02C0BE
:103580000C943D2983E50E941E42882311F40C947B
:103590003D290E9478420E94EEBF7093751260939D
:1035A00074120E9403970E94784220E030E04AEAB9
:1035B00052E40E9444C618163CF00E94539760E003
:1035C00087EB92E00E9458720E9478422091761216
:1035D0003091771240917812509179120E94B4C0C4
:1035E000181614F00C943D2960E08CEA92E00E94D9
:1035F00058720C943D298EE40E941E42882311F4D7
:103600000C943D2980912A0490912B044AE050E0CB
:1036100060E070E001960E9465C360932C04709393
:103620002D0480932E0490932F040C943D2983E560
:103630000E941E42882319F00E94314201C080E09E
:1036400080933013EEEFF0E284918F010F5F1F4FF4
:10365000882321F00E944744F801F6CFE3EDF2E021
:1036600084918F010F5F1F4F882321F00E944744F0
:10367000F801F6CF809130138823A1F1E5ECCE2E2E
:10368000E2E0DE2EE12CF12C20E08091301390E07E
:103690000E2C02C0959587950A94E2F780FF17C01B
:1036A000BB24B394B20E222319F08CE20E9447444B
:1036B000F60125913491F901849189010F5F1F4F23
:1036C000882321F00E9447449801F5CF2B2DFFEF6E
:1036D000EF1AFF0A32E0C30ED11C45E0E416F104F4
:1036E000A1F63DC0EFECF2E084918F010F5F1F4F18
:1036F0008823A9F10E944744F801F6CF80E20E9496
:1037000047448AE50E941E42882311F40C94EF2856
:103710000E9478426B017C0120E030E040EA51ECED
:103720000E94B4C087FF02C00C94C62820E030E09D
:1037300040EA51E4C701B6010E9444C6181614F4C9
:103740000C94C628C092A30CD092A40CE092A50CB5
:10375000F092A60C42E0C701B6010E94C6478AE07B
:103760000E9447440C943D2983E50E941E42882311
:1037700069F00E9431428093C4028D3310F40C949E
:103780003D298CE38093C4020C943D29EEEFF0E2D6
:1037900084918F010F5F1F4F882321F00E944744BF
:1037A000F801F6CF4091C40250E060E070E08AED8D
:1037B00092E00E94CB458AE00E9447440C943D2948
:1037C0008091301383FF02C00C943D2983E50E9451
:1037D0001E42882311F40C943D290E9478420E94D5
:1037E000EEBF7093490C6093480C0E94414B0C94BF
:1037F0003D2989E690E00E941746811111C0E1EE53
:10380000F2E084918F010F5F1F4F882321F00E9407
:103810004744F801F6CF0E94CD638AE00E944744F6
:1038200010924713109246130C94FA2B8DE690E0F9
:103830000E94174681110C943D298091301383FF1B
:1038400002C00C943D2983E50E941E428EA3811183
:1038500005C082E50E941E428823C1F10E94784281
:103860000E94EEBF70937512609374120E940397CA
:103870000E94784220E030E04AEA52E40E9444C6C6
:10388000181614F40C949A2A0E94539760E084E06E
:1038900093E00E9458726091741270917512072E15
:1038A000000C880B990B0E944AC620917612309129
:1038B000771240917812509179120E94B4C0181674
:1038C0002CF460E089EF92E00E94587286E40E9436
:1038D0001E428093450C882351F00E9478426093E9
:1038E0005702709358028093590290935A0283E5CD
:1038F0000E941E42882351F00E94784260935F022A
:1039000070936002809361029093620282E40E944D
:103910001E42882351F00E94784260935B027093AC
:103920005C0280935D0290935E0281E08093790255
:1039300010924713109246131AA21BA21CA21DA29A
:1039400018A619A61AA61BA61E8E1CA65CE35DA7C8
:103950008CE18EA796E49FA7C12CD12C60E8E62EBF
:103960007FEBF72E812C912C540160917412709191
:103970007512072E000C880B990B0E944AC6162F51
:10398000072F782E692E262F372F482F592FB60153
:10399000C7010E9444C68823F1F02091761230912D
:1039A00077124091781250917912612F702F872DE4
:1039B000962D0E9444C6881F8827881F8E8FAEA12F
:1039C000AA2369F0882359F060E084EE92E00E9417
:1039D00058720C943D291C2D0D2D7E2C6F2C0E94AD
:1039E000C1756B017C01DC01CB0128A539A54AA575
:1039F0005BA5821B930BA40BB50BB7FD45C0D7018C
:103A0000C60188519C4FAF4FBF4F88A799A7AAA75F
:103A1000BBA70E94CD63E5EFF2E084912F019FEFF9
:103A2000491A590A882321F00E944744F201F5CF30
:103A300081149104A104B104D1F0D501C401805FC7
:103A4000984DAF4FBF4FBC01CD016C197D098E0958
:103A50009F0928EE33E040E050E00E9450CACA01BE
:103A6000B9010E94E6458AE00E9447440DC0E2EF9A
:103A7000F2E084912F01AFEF4A1A5A0A882321F00D
:103A80000E944744F201F5CF0E944AAD0E940444CF
:103A900020907612309077124090781250907912E0
:103AA0009101A201612F702F872D962D0E94FABEE1
:103AB0009F7781149104A104B10449F420E030E01F
:103AC00040E85FE30E9444C687FF0BC008C020E0C7
:103AD00030E040E450E40E94B4C0181614F44601EB
:103AE0005701BE8DBB2379F12AA13BA14CA15DA159
:103AF000211531054105510541F0D701C601821B51
:103B0000930BA40BB50BB7FD1EC09101A2016CA5D0
:103B10007DA58EA59FA50E94FABE20E030E040EC76
:103B20005FE30E9444C687FD4FCFD701C601805A8C
:103B30009541AF4FBF4F8AA39BA3ACA3BDA32CA6B7
:103B40003DA64EA65FA680917902882309F43CCF5A
:103B500081149104A104B10429F4C12ED02EE72CC4
:103B6000F62C03CF90E1C91A97E2D90AE108F108CF
:103B7000C818D908EA08FB08F7FE26CFEECF8091D7
:103B8000301383FF02C00C943D2960E083E293E090
:103B90000E94587283E50E941E428EA3811105C0C7
:103BA00082E50E941E428823B1F00E9478420E9462
:103BB000EEBF7093490C6093480C0E94414B0E94E9
:103BC000784220E030E040EA50E40E94B4C0181689
:103BD00014F40E9466B181E0809379021092471339
:103BE0001092461380913104809330041AA21BA2D4
:103BF0001CA21DA218A619A61AA61BA61E8E1CA6DC
:103C0000ACE3ADA7BCE1BEA7E6E4EFA7C12CD12C85
:103C100040E8E42E5FEBF52E812C912C540160914D
:103C2000480C7091490C072E000C880B990B0E94D0
:103C30004AC6162F072F782E692E262F372F482F8A
:103C4000592FB601C7010E9444C68823F1F0209184
:103C50002A0B30912B0B40912C0B50912D0B612F87
:103C6000702F872D962D0E9444C6881F8827881F95
:103C70008E8FFEA1FF2369F0882359F060E082E176
:103C800093E00E9458720C943D291C2D0D2D7E2C22
:103C90006F2C0E94C1756B017C01DC01CB0128A552
:103CA00039A54AA55BA5821B930BA40BB50BB7FDE9
:103CB00045C0D701C60188519C4FAF4FBF4F88A761
:103CC00099A7AAA7BBA70E94CD63EFE1F3E0849177
:103CD0002F019FEF491A590A882321F00E94474477
:103CE000F201F5CF81149104A104B104D1F0D50102
:103CF000C401805F984DAF4FBF4FBC01CD016C191F
:103D00007D098E099F0928EE33E040E050E00E94D3
:103D100050CACA01B9010E94E6458AE00E944744A0
:103D20000DC0ECE1F3E084912F01AFEF4A1A5A0A7B
:103D3000882321F00E944744F201F5CF0E944AAD4A
:103D40000E94044420902A0B30902B0B40902C0BA7
:103D500050902D0B9101A201612F702F872D962D70
:103D60000E94FABE9F7781149104A104B10449F422
:103D700020E030E040E85FE30E9444C687FF0BC0CC
:103D800008C020E030E040E450E40E94B4C01816BF
:103D900014F446015701BE8DBB2379F12AA13BA142
:103DA0004CA15DA1211531054105510541F0D70117
:103DB000C601821B930BA40BB50BB7FD1EC091016E
:103DC000A2016CA57DA58EA59FA50E94FABE20E04C
:103DD00030E040EC5FE30E9444C687FD4FCFD7013F
:103DE000C601805A9541AF4FBF4F8AA39BA3ACA396
:103DF000BDA32CA63DA64EA65FA68091790288237E
:103E000009F43CCF81149104A104B10429F4C12E1A
:103E1000D02EE72CF62C03CF90E1C91A97E2D90AED
:103E2000E108F108C818D908EA08FB08F7FE26CF10
:103E3000EECF83E50E941E42882321F00E94FAB251
:103E40008C0102C00FEF10E080E50E941E42882323
:103E500031F00E94FAB2892B11F00C943D2998019F
:103E60000F3F110519F010F02FEF30E03093470CA1
:103E70002093460C0C943D2980E50E941E4281113E
:103E800006C01092470C1092460C0C943D290E94DB
:103E9000FAB2892B11F00C943D29F3CF0E94914B7B
:103EA0000E94F1B20E94F2AC1092470C1092460CA4
:103EB00068EE73E080E090E00E948975269A2E9A61
:103EC00010926B0260E08EE393E00E9458720E94B1
:103ED0007E720C943D291092370A0C943D2981E0A2
:103EE0008093370A0C943E290E947C630C943D29F0
:103EF00083E50E941E42882311F40C943D290E9400
:103F0000A14260934C1370934D1380934E13909382
:103F10004F130C943D290E94E1620C943D29EAE480
:103F2000F3E084918F010F5F1F4F882311F40C94ED
:103F30003D290E944744F801F4CF0E9422620C946C
:103F40003D2981E080934E0280933D020C943E29EE
:103F5000E5E5F4E084918F010F5F1F4F882321F086
:103F60000E944744F801F6CFEDE4F4E084918F011C
:103F70000F5F1F4F882321F00E944744F801F6CFBE
:103F8000659903C002E913E002C007E913E0D80114
:103F90008D918D01882319F00E944744F8CF8AE063
:103FA0000E944744E5E4F4E084918F010F5F1F4FC6
:103FB000882321F00E944744F801F6CF8091030145
:103FC00081FD03C002E913E002C007E913E0F80134
:103FD00081918F01882319F00E944744F8CF8AE02D
:103FE0000E944744EDE3F4E084918F010F5F1F4F7F
:103FF000882321F00E944744F801F6CF4A9903C074
:1040000002E913E002C007E913E0D8018D918D01A8
:10401000882319F00E944744F8CF8AE00E94474461
:10402000E5E3F4E084918F010F5F1F4F882321F0B7
:104030000E944744F801F6CF4B9903C002E913E010
:1040400002C007E913E0F80181918F01882309F488
:1040500086CB0E944744F7CF83E50E941E42882307
:1040600009F10E9460428230D0F0E2EFF1E18491E8
:104070008F010F5F1F4F882321F00E944744F801F2
:10408000F6CFEFE6F4E084918F010F5F1F4F882396
:1040900011F40C943D290E944744F801F4CF81307B
:1040A00009F446C088E40E941E42882391F00E94D1
:1040B00060428A3A91053CF08431F1E09F072CF090
:1040C00083E191E002C08AEA90E090934D0C8093E6
:1040D0004C0C86E40E941E42882381F00E946042BC
:1040E0008F3F910519F014F08FEF90E097FF02C019
:1040F00080E090E090934F0C80934E0C82E40E94FD
:104100001E42882311F40C943D290E9460428530A0
:10411000910534F0803691052CF08FE590E002C0D7
:1041200085E090E090934B0C80934A0C0C943D29D1
:1041300088E40E941E42882391F00E9460428A3ADD
:1041400091053CF0843121E092072CF083E191E06D
:1041500002C08AEA90E09093600C80935F0C86E442
:104160000E941E42882381F00E9460428F3F910589
:1041700019F014F08FEF90E097FF02C080E090E01C
:104180009093620C8093610C82E40E941E4288230B
:1041900011F40C943D290E9460428530910534F061
:1041A000803691052CF08FE590E002C085E090E02C
:1041B00090935E0C80935D0C0C943D2988EC90E00C
:1041C0000E94174681110C943D2984E40E941E42EE
:1041D000882311F40C943D290E94784211E020E0DC
:1041E00030E0A9010E9444C6811101C010E0109383
:1041F000A70C112359F10091300410E00E9478427D
:10420000000F111F000F111FF801ED59FD4F6083C2
:1042100071838283938320E030E0A901609163027F
:104220007091640280916502909166020E9444C67A
:1042300081110CC080E090E0A0EEBFE380936302A8
:1042400090936402A0936502B09366020E9413AB40
:104250000C943D299BE6E92E9CE0F92E06ED12E038
:1042600024E0D22ED00ED8018D918D010E941E42E5
:10427000882349F00E9478420E94F4BFF7016083CE
:10428000718382839383F4E0EF0EF11CD012EBCFA5
:104290000E94BB9CF2C70E949761EFC70E943C61DD
:1042A000ECC716EDA12E12E0B12E0DE4C02E02E1F6
:1042B000D02E83ECE82E83E1F82E00E010E0D5014B
:1042C0008D915D010E941E42882311F10E94784267
:1042D0002B013C01F70120813181428153810E94F1
:1042E000FABE9B01AC01D6016D917D918D919C919F
:1042F0000E94FBBEF6016083718382839383D701A2
:104300004D925D926D927C921397C8010E94D341A9
:104310000F5F1F4FB4E0CB0ED11CE4E0EE0EF11C9A
:104320000330110561F60E94AA420E942262A5C7CD
:1043300084918F010F5F1F4F882321F00E94474413
:10434000F801F6CF83E50E941E42882341F00E94C7
:10435000314291E0811101C090E090937802E9EB45
:10436000F4E084918F010F5F1F4F882321F00E949A
:104370004744F801F6CF80917802811103C0E5EB44
:10438000F4E002C0E1EBF4E084918F010F5F1F4F76
:10439000882321F00E944744F801F6CFE9EAF4E0CF
:1043A00084918F010F5F1F4F882321F00E944744A3
:1043B000F801F6CF4091AE0C5091AF0C6091B00C6B
:1043C0007091B10C87EA94E00E945C494091B20C74
:1043D0005091B30C6091B40C7091B50C84EA94E0E8
:1043E0000E945C494091B60C5091B70C6091B80C9A
:1043F0007091B90C81EA94E00E945C49E9E9F4E02B
:1044000084918F010F5F1F4F882321F00E94474442
:10441000F801F6CF40916C0250916D0260916E02EE
:1044200070916F0287E994E00E945C4940917002AC
:1044300050917102609172027091730284E994E06C
:104440000E945C494091740250917502609176021D
:104450007091770281E994E00E945C498AE00E94B1
:1044600047440BC783E50E941E42882309F405C711
:104470000E94604290936A0280936902FEC68DEDAD
:1044800090E00E9417468111F8C683E50E941E4203
:10449000882309F4F2C60091300410E00E946042C3
:1044A000000F111FF801E959FD4F91838083E5C684
:1044B00080E50E941E42882309F4DFC60E94604204
:1044C0008C0183E50E941E42882321F00E946042F5
:1044D0007C0103C0EE24EA94FE2CC70101960397E9
:1044E00008F0CBC6EAEDF2E0819191918017910737
:1044F00009F4C3C623E0EA32F207B1F717FDBDC6DF
:104500000E94F1B2D02E60E0802F0E944D753FEFE7
:10451000E316F30631F0EA94EF2871F401E010E0BD
:104520000DC0802F0E9468B531E020E0892B09F092
:1045300030E0032F122F02C000E010E08D2D0E940A
:1045400068B58017910709F498C60E944AADF6CF66
:1045500083E50E941E42882319F00E94FAB202C02D
:1045600084E091E09F8B8E8B80E50E941E42882321
:1045700049F00E94FAB2893853E1950728F088E89B
:1045800093E102C088EE93E09A838983BE016A5E5C
:104590007F4FCE0101960E94509A6FC685E40E941B
:1045A0001E42811110C080E50E941E42882399F0AE
:1045B0000E94784260934F027093500280935102A0
:1045C0009093520208C00E946042181619065CF7C8
:1045D000E2EFF1E190C089E40E941E42882381F05D
:1045E0000E9478422CE933E549E45EE30E94A9C6C3
:1045F00060934A0270934B0280934C0290934D0259
:1046000084E40E941E42882381F00E9478422CE9B3
:1046100033E549E45EE30E947DBF609353027093EB
:10462000540280935502909356020E946C52EEEF12
:10463000F0E284918F010F5F1F4F882321F00E94C9
:104640004744F801F6CFE1EDF4E084918F010F5F6C
:104650001F4F882321F00E944744F801F6CF609154
:104660004F0270915002809151029091520242E0AB
:104670000E94C647EDECF4E084918F010F5F1F4F5D
:10468000882321F00E944744F801F6CF2CE933E556
:1046900049E45EE360914A0270914B0280914C02C2
:1046A00090914D020E947DBF42E00E94C647E9EC16
:1046B000F4E084918F010F5F1F4F882321F00E9447
:1046C0004744F801F6CF2CE933E549E45EE3609115
:1046D00053027091540280915502909156020E94AB
:1046E000A9C642E00E94C6478AE00E944744C5C569
:1046F0000E944744F80184918F010F5F1F4F811181
:10470000F7CF09EA13E0D8018D918D01882309F4D0
:1047100026C80E944744F7CF80E50E941E428823A6
:1047200051F00E94784260931102709312028093BC
:1047300013029093140289E40E941E42882381F0A0
:104740000E9478422CE933E549E45EE30E94A9C661
:104750006093460270934702809348029093490207
:1047600084E40E941E42882381F00E9478422CE952
:1047700033E549E45EE30E947DBF60930D027093D0
:104780000E0280930F02909310020E946C52EEEF83
:10479000F0E284918F010F5F1F4F882321F00E9468
:1047A0004744F801F6CFEDEDF4E084918F010F5FFF
:1047B0001F4F882321F00E944744F801F6CF6091F3
:1047C000110270911202809113029091140242E042
:1047D0000E94C647E9EDF4E084918F010F5F1F4FFF
:1047E000882321F00E944744F801F6CF2CE933E5F5
:1047F00049E45EE36091460270914702809148026D
:10480000909149020E947DBF42E00E94C647E5EDBB
:10481000F4E084918F010F5F1F4F882321F00E94E5
:104820004744F801F6CF2CE933E549E45EE36091B3
:104830000D0270910E0280910F02909110020E9461
:10484000A9C642E00E94C6478AE00E94474415C5B7
:1048500083E50E941E42082F8823A1F00E9478421F
:104860006093BC027093BD028093BE029093BF021E
:1048700011E020E030E0A9010E9444C6811110E05F
:1048800010932B1380E50E941E42182F8823C1F03D
:1048900020E030E0A9016091BC027091BD028091DE
:1048A000BE029091BF020E9444C6882331F00E944C
:1048B000314211E0811101C010E010932B13DDC4CF
:1048C0000111DBC4EEEFF0E284918F010F5F1F4F07
:1048D000882321F00E944744F801F6CF80912B13E2
:1048E000811103C061EA73E002C064E973E086EFFE
:1048F00094E00E9407B320E030E040E05FE3609185
:10490000BC027091BD028091BE029091BF020E94D4
:10491000FBBE0E94EEBF85EE94E00E940046E1EEF1
:10492000F4E084918F010F5F1F4F882309F4A5C421
:104930000E944744F801F5CF85E40E941E42882377
:1049400021F00E9460421C0102C0212C312C83E422
:104950000E941E42882339F00E9460422E969FAF2B
:104960008EAF2E9706C0E5E0F0E02E96FFAFEEAFDB
:104970002E9785E50E941E42882341F00E94314215
:10498000F1E02396FFAF2397811103C023961FAE5A
:10499000239783E50E941E42882339F00E947842C3
:1049A0006CA77DA78EA79FA708C01CA61DA637FCD5
:1049B0000AC026E12EA733E43FA72114310439F4BD
:1049C0001092300404C04CE84EA752E45FA7109246
:1049D0004713109246130E94C1752B013C01C1017F
:1049E0000196029718F40AEB13E00EC00DEC13E0E9
:1049F000D8018D918D01882319F00E944744F8CF8A
:104A00008AE00E94474439C4F80181918F018823CC
:104A100019F00E944744F8CF8AE00E9447440E9460
:104A2000914BFFEF2F163F0661F484E68093280B2D
:104A300024E630E040E050E02E8F3F8F48A359A39A
:104A40000BC08FE78093290B8FE790E0A0E0B0E0E8
:104A50008E8F9F8FA8A3B9A381E0809379029FEFE7
:104A60002916390629F488EC90E0A0E0B0E004C0F3
:104A70008FEF90E0A0E0B0E09C01AD01235131093F
:104A80004109510966962CAF3DAF4EAF5FAF6697B7
:104A90009C01AD0124513109410951096A962CAF9D
:104AA0003DAF4EAF5FAF6A979C01AD0155954795FD
:104AB000379527956E962CAF3DAF4EAF5FAF6E9793
:104AC0009C01AD012150310941095109A2962CAF39
:104AD0003DAF4EAF5FAFA2978E8C9F8CA8A0B9A0C0
:104AE00028964CAE5DAE6EAE7FAE289762964CAE09
:104AF0005DAE6EAE7FAE62971AAE30E43BAF4CE176
:104B00004CAF56E45DAF1EAE1FAE21961FAE21978F
:104B100022961FAE22971EAA1FAA18AE19AE1AAA75
:104B20001BAA1CAA1DAAC12CD12C76012C961CAE46
:104B30001DAE1EAE1FAE2C9781E024968FAF24973A
:104B400019AA18AA1AA21EA200E010E08091790208
:104B5000882309F4E6C10E94C17568A779A78AA7CE
:104B60009BA780916D12882309F4B7C00E94554C11
:104B70009FEF2916390659F4A0912A0BAAA3B091E8
:104B80002B0BBEA300912C0B10912D0B0AC0E091B2
:104B90007612EAA3F0917712FEA300917812109199
:104BA00079122AA13EA1A8016EAD7FAD21968FADED
:104BB000219722969FAD22970E94B4C0181654F0F8
:104BC0002AA12EAF3EA13FAF21960FAF219722968B
:104BD0001FAF22972AA13EA1A8016AAD7BAD8CAD83
:104BE0009DAD0E9444C687FD06C04AA14AAF5EA1A2
:104BF0005BAF0CAF1DAF24968FAD24972CA53DA5C0
:104C00004EA55FA56AA17EA1882309F44BC0C80107
:104C10000E94B4C018160CF060C048A559A56AA53A
:104C20007BA54419550966097709DB01CA01885833
:104C30009341A109B109B7FD50C08E8D9F8DA8A1E8
:104C4000B9A188199909AA09BB09B595A79597959E
:104C50008795EFEF2E163E0619F48093280B02C0BD
:104C60008093290B2C964CAF5DAF6EAF7FAF2C9726
:104C7000FCA5FEAF2DA52FAF3EA521963FAF2197F6
:104C80004FA522964FAF229788A599A5AAA5BBA5A7
:104C900028968CAF9DAFAEAFBFAF289724961FAEBE
:104CA00024971BC0C8010E9444C687FF16C088A570
:104CB00099A5AAA5BBA528962CAD3DAD4EAD5FAD7F
:104CC0002897821B930BA40BB50BAC01BD01485870
:104CD00053416109710977FF31C420E030E040EAB7
:104CE00051E46CA57DA58EA59FA50E94FBBE9B01EE
:104CF000AC016AA17EA1C8010E94B4C018166CF470
:104D0000E6ECF5E084918F010F5F1F4F882309F4D3
:104D1000B4C20E944744F801F5CF80E398EFAFEFAB
:104D2000BFEF62962CAD3DAD4EAD5FAD6297821B7D
:104D3000930BA40BB50B28A539A54AA55BA5820F3B
:104D4000931FA41FB51FB7FD0FC00E94CD638AE05B
:104D50000E94474488A599A5AAA5BBA562968CAFD9
:104D60009DAFAEAFBFAF629788A599A5AAA5BBA519
:104D7000880F991FAA1FBB1F28962CAD3DAD4EADC5
:104D80005FAD2897821B930BA40BB50B8419950973
:104D9000A609B70981389F44A241B10568F0E8EA45
:104DA000F5E084918F010F5F1F4F882309F465C2DE
:104DB0000E944744F801F5CF48A959A92E968EAD17
:104DC0009FAD2E97841795070CF0A8C0EBE4F5E093
:104DD00084918F010F5F1F4F882321F00E94474469
:104DE000F801F6CF9FEF2916390619F008E214E012
:104DF00002C005EA13E0B80189E395E00E9407B319
:104E0000B701A60185E395E00E945C498AE00E9413
:104E10004744B80183E295E00E9407B34AA95BA921
:104E20006CA97DA98FE195E00E945C498AE00E940F
:104E30004744B8018DE095E00E9407B34EA95FA9F1
:104E400068AD79AD89E095E00E945C498AE00E94F6
:104E500047442396AFAD2397AA2309F40EC223201B
:104E6000209469F5C0921102D0921202E0921302CE
:104E7000F09214022CE933E549E45EE36AA97BA9C8
:104E80008CA99DA90E94A9C660934602709347020F
:104E900080934802909349022CE933E549E45EE3AC
:104EA0006EA97FA988AD99AD0E947DBF60930D0268
:104EB00070930E0280930F02909310022CC0C09248
:104EC0004F02D0925002E0925102F09252022CE92D
:104ED00033E549E45EE36AA97BA98CA99DA90E94F8
:104EE000A9C660934A0270934B0280934C02909340
:104EF0004D022CE933E549E45EE36EA97FA988AD54
:104F000099AD0E947DBF60935302709354028093C9
:104F10005502909356020E946C52AFC10E947E725D
:104F200015CE809179028111A8C10E94914BA5C133
:104F30000E94F1B2A2C181E00E9458419EC180E06E
:104F40000E9458419AC14AA15BA14A5352415FA3B2
:104F50004EA3AAA1BBA18D91BBA3AAA3882309F448
:104F6000AEC0F801E459FD4F208131814281538167
:104F7000F801E255F34F60817181828193810E9433
:104F8000FBBE20E030E040E05FE30E94A9C69B0149
:104F9000AC01F10160817181828193810E94B4C072
:104FA000181634F4C80187509E4D0E94CD4103C0AD
:104FB00060E070E0CB01D1014D905D906D907C90F0
:104FC000EE8DFF8DC080D180E280F380A701960135
:104FD0000E94FBBEF801E954FC4E208131814281E0
:104FE00053810E94FBBE9B01AC01C301B2010E9430
:104FF000FABE4B015C0120E030E040EA51EC0E9437
:10500000B4C018166CF520E030E040EA51E4C50168
:10501000B4010E9444C687FF23C0A5019401C701C3
:10502000B6010E94FABE4B015C01A70196010E94E5
:10503000FABE9B01AC01C301B2010E94FBBED101CB
:105040006D937D938D939C931397EE8DFF8D80824E
:105050009182A282B3828EA19FA10E94D3412FC0D0
:10506000E2EFF1E184918F010F5F1F4F882321F060
:105070000E944744F801F6CFE8E5F6E084918F01FD
:105080000F5F1F4F882321F00E944744F801F6CF9D
:1050900061E08AE496E00E9458720E947C4A88E2AD
:1050A00090E09A83898388EC90E09F8B8E8BBE0181
:1050B0006F5F7F4FCE0146960E94509ADEC0F4E0AB
:1050C0002F0E311C0C5F1F4F2E8D3F8D2C5F3F4FDD
:1050D0003F8F2E8F0C30110509F035CF0E94AA4268
:1050E0000E94226260E08AE396E00E94587283E99F
:1050F00092E09F8B8E8B08EC10E01A830983BE012F
:105100006A5E7F4FCE0101960E94509A8AEB92E030
:105110009F8B8E8B1A830983BE016A5E7F4FCE01FF
:1051200001960E94509AA9C00E94D15EA6C00E941A
:10513000BC5CA3C00E94375BA0C083E50E941E42F6
:10514000982F882329F00E94314291E0811190E04C
:10515000892F0E94715791C0EEEFF0E284918F0188
:105160000F5F1F4F882321F00E944744F801F6CFBC
:10517000E9E8F6E084918F010F5F1F4F882311F457
:105180000C947E1B0E944744F801F4CFE1E8F6E05E
:1051900084918F010F5F1F4F882321F00E944744A5
:1051A000F801F6CF6CEE7FEF8FEF9FEF0E94E645A0
:1051B00080E20E944744E9E7F6E084918F010F5FA7
:1051C0001F4F882321F00E944744F801F6CF64E185
:1051D00070E080E090E00E94E6450C94AF1B4091A7
:1051E000A30C5091A40C6091A50C7091A60C86E7BD
:1051F00096E00E945C490C94AF1B81E08093090209
:105200001092DD0B83E50E941E42882309F4DAC266
:105210000E943142811131C0D5C2F22E2093310457
:10522000EEEFF0E284918F010F5F1F4F882321F092
:105230000E944744F801F6CFE2E9F6E084918F013D
:105240000F5F1F4F882321F00E944744F801F6CFDB
:105250006F2D70E080E090E00E94E6458AE00E94B9
:1052600047440BC080E00AC0B7E0EB16F10409F038
:105270003BC01093470C0093460C81E010924713FB
:1052800010924613811134C00C940E1284918F0138
:105290000F5F1F4F882321F00E944744F801F6CF8B
:1052A000E7EAF6E084918F010F5F1F4F882321F01A
:1052B0000E944744F801F6CF0091390A10913A0A4A
:1052C000D8018D918D01882319F00E944744F8CFB1
:1052D000E4EAF6E084918F010F5F1F4F882341F0CD
:1052E0000E944744F801F6CF1092471310924613DC
:1052F0000E94A7B07FC20E94784220E030E040E7E1
:1053000052E40E947DBF609300027093010280937B
:105310000202909303020C94F61281E090E09093C5
:1053200047138093461310922F0B10922E0B0C9460
:10533000FA181E8A1F8A188E198EE4EAF2E0849108
:105340008F010F5F1F4F882321F00E944744F8010F
:10535000F6CFEBE9F2E084918F010F5F1F4F8823B6
:1053600021F00E944744F801F6CF60910813709134
:10537000091380E090E04AE00E946545EEE8F2E023
:1053800084918F010F5F1F4F882321F00E944744B3
:10539000F801F6CF60910A1370910B1380E090E052
:1053A0004AE00E946545E3E8F2E084918F010F5FD7
:1053B0001F4F882321F00E944744F801F6CF6091E7
:1053C00008137091091380910A1390910B13681BB5
:1053D000790B8091FA129091FB12019721E030E055
:1053E000029710F020E030E0621B730B80E090E049
:1053F0004AE00E9465458AE00E944744EBE7F2E0FC
:1054000084918F010F5F1F4F882321F00E94474432
:10541000F801F6CF80910C1390910D13A0910E130B
:10542000B0910F138E8B9F8BA88FB98FBE016F5FCA
:105430007F4FCE0146960E944443EEE6F2E084910F
:105440008F010F5F1F4F811106C0AE014F5F5F4F8D
:105450007A018A0104C00E944744F801F0CFD801C4
:105460008D918D01882319F00E944744F8CF8091D7
:10547000101390911113A0911213B09113138E8BEE
:105480009F8BA88FB98FBE016F5F7F4FCE0146966D
:105490000E944443EEE5F2E084918F010F5F1F4FBD
:1054A000882321F00E944744F801F6CFF70181914B
:1054B0007F01882319F00E944744F8CF8AE00E94B8
:1054C0004744E6E5F2E084918F010F5F1F4F882388
:1054D00021F00E944744F801F6CFE6E4F2E084911F
:1054E0008F010F5F1F4F882321F00E944744F8016E
:1054F000F6CF20E030E04AE754E460911413709155
:10550000151380911613909117130E947DBF42E0EE
:105510000E94C647E4E4F2E084918F010F5F1F4FC1
:10552000882321F00E944744F801F6CF8AE00E94C8
:105530004744A3CE0E9466B10C944B1C48A959A9BC
:10554000141615060CF012C12C964CAC5DAC6EAC6A
:105550007FAC2C97480E591E6A1E7B1E2C962CADD4
:105560003DAD4EAD5FAD2C97281B390B4A0B5B0B45
:10557000CA01B901A50194010E9441CAA301920187
:105580000E9472CA8E8C9F8CA8A0B9A0820E931E16
:10559000A41EB51E34E183169104A104B1040CF4D9
:1055A0001BC166968CAD9DADAEADBFAD669788163E
:1055B0009906AA06BB060CF008C16E962CAD3DAD4F
:1055C0004EAD5FAD6E97281539054A055B058CF425
:1055D0008E8E9F8EA8A2B9A2A2968CAD9DADAEADC7
:1055E000BFADA29788199909AA09BB094C015D01B1
:1055F00004C08E8E9F8EA8A2B9A24E8D5F8D68A129
:1056000079A182E396E00E942FB3B501A4018DE257
:1056100096E00E942FB34AAD5BAD6CAD7DAD86E2E6
:1056200096E00E945C494EAD5FAD21966FAD21972B
:1056300022967FAD22978FE196E00E945C49A8A94F
:10564000B9A913970CF492C0C501B4010E944AC6CF
:1056500020E030E040E850E40E94A9C66B017C01E4
:105660002AAD3BAD4CAD5DAD6EAD7FAD21968FAD3E
:10567000219722969FAD22970E94FABE2BED3FE024
:1056800049E450E40E94A9C620E030E040E05FE336
:105690000E94A9C69B01AC01C701B6010E947DBF53
:1056A0006B017C01C301B2010E944AC62FE632E1C0
:1056B00043E85AE30E94A9C62B013C01B701A601A9
:1056C00089E196E00E945C49B301A20183E196E082
:1056D0000E945C492AE939E949E15FE3C701B60163
:1056E0000E94A9C66B017C019B01AC010E94FBBE1C
:1056F000A30192010E947DBF6AAB7BAB8CAB9DABDB
:10570000A3019201C701B6010E94A9C620E030E0C2
:1057100040E05EE30E94A9C66EAB7FAB88AF99AF55
:10572000E3E0F6E084913F01BFEF6B1A7B0A882328
:1057300021F00E944744F301F5CFB701A6018DEF98
:1057400095E00E945C494AA95BA96CA97DA987EFF5
:1057500095E00E945C494EA95FA968AD79AD81EFE3
:1057600095E00E945C498AE00E9447448E8D9F8D9F
:10577000A8A1B9A1880D991DAA1DBB1DB595A79516
:1057800097958795EFEF2E163E0619F48093280B18
:1057900002C08093290B28A939A92F5F3F4F39AB4D
:1057A00028AB3CA53AAF4DA54BAF5EA55CAF8FA52E
:1057B0008DAF48A459A46AA47BA491E024969FAF1E
:1057C00024978BCA0E94C6B058CD6A968CAC9DAC0B
:1057D000AEACBFAC6A97FCCE84E1882E912CA12C94
:1057E000B12C24E130E040E050E02E8F3F8F48A301
:1057F00059A303CFCB59DF4F0FB6F894DEBF0FBECE
:10580000CDBFDF91CF911F910F91FF90EF90DF906F
:10581000CF90BF90AF909F908F907F906F905F9050
:105820004F903F902F9008952F923F924F925F920A
:105830006F927F928F929F92AF92BF92CF92DF92A0
:10584000EF92FF920F931F93CF93DF93CDB7DEB705
:10585000C45AD1090FB6F894DEBF0FBECDBF0DB745
:105860001EB7C657DF4F19830883CA58D0400E941D
:105870007D9B81110C946E3F86E50E941E42882319
:1058800039F00E946042A9969FAF8EAFA99706C0DB
:1058900021E030E0A9963FAF2EAFA997A9964EAD73
:1058A0005FADA9974530510570F0EBE6F8E08491C3
:1058B0008F010F5F1F4F882311F40C946E3F0E94DD
:1058C0004744F801F4CF84E40E941E42E4968FAF6F
:1058D000E49785E40E941E42A6968FAFA697A996EC
:1058E0008EAD9FADA99703977CF484E50E941E427C
:1058F000CE56DF4F8883C259D040A996AEADBFAD1A
:10590000A997AB2B21F106C0B1E0CE56DF4FB8838B
:10591000C259D040E4E5F8E084918F010F5F1F4F3A
:10592000882321F00E944744F801F6CFE496EFADBA
:10593000E497EE2361F0EBE3F8E084918F010F5FD1
:105940001F4F882321F00E944744F801F6CF80E5DD
:105950000E941E428823B1F00E94604267969FAF6A
:105960008EAF67970297A4F4E3E0F8E084918F018B
:105970000F5F1F4F882311F40C946E3F0E94474421
:10598000F801F4CF04E010E067961FAF0EAF679701
:1059900083E50E941E42882349F00E94784220E05D
:1059A00030E040E752E40E947DBF04C060E070E058
:1059B00088EC92E4609305027093060280930702DC
:1059C000909308028CE40E941E42882319F00E94E2
:1059D000784218C020E030E040E251E46091C31307
:1059E0007091C4138091C5139091C6130E94FBBEA1
:1059F0002091B7133091B8134091B9135091BA1355
:105A00000E94FBBE0E94EEBF7EAF6DAF82E50E949A
:105A10001E42882319F00E94784218C020E030E02E
:105A20004AE353E46091C3137091C4138091C5138A
:105A30009091C6130E94FBBE2091B7133091B8130A
:105A40004091B9135091BA130E94FBBE0E94EEBF61
:105A50007EAB6DAB86E40E941E42882319F00E9443
:105A6000784218C020E030E040EF51E46091C71365
:105A70007091C8138091C9139091CA130E94FBBE04
:105A80002091BB133091BC134091BD135091BE13B4
:105A90000E94FBBE0E94EEBF1B0182E40E941E42D8
:105AA000882319F00E94784218C020E030E04AE3D1
:105AB00053E46091C7137091C8138091C9139091FA
:105AC000CA130E94FBBE2091BB133091BC134091BE
:105AD000BD135091BE130E94FBBE0E94EEBF8B010E
