:100000000C94C5130C94F6130C94F6130C94F6137D
:100010000C94F6130C94F6130C94F6130C94F6133C
:100020000C94F6130C94F6130C94F6130C94F6132C
:100030000C94F6130C94F6130C94F6130C94F6131C
:100040000C94F6130C9415540C94F6130C94F613AC
:100050000C94F6130C9479530C9458980C943780A4
:100060000C94F6130C94C2520C94F6130C94F613E1
:100070000C94F6130C94F6130C94F6130C94F613DC
:100080000C94F6130C94F6130C94F6130C94F613CC
:100090000C94F6130C94F6130C94F6130C94F613BC
:1000A0000C94F6130C94F6130C94F6130C94F613AC
:1000B0000C94F6130C94F6130C94F6130C94F6139C
:1000C0000C94F6130C94F6130C94F6130C94F6138C
:1000D0000C94F6130C94F6130C94F6130C94F6137C
:1000E0000C94F613F852FF52135320532A534453DF
:1000F0002F5344533453395344534153C856DB565A
:10010000F45605571A5738571F5738572457295749
:1001100038573557F05CF35CE25CE65CEC5C2A5DDA
:10012000F75CFB5C015D055D095D0F5D135D175DAF
:100130002A5D1D5D215D255D38DF3DDF42DF4CDF3F
:1001400056DFCFDF60DF68DF70DF7ADF84DF8EDFCE
:100150009DDFA7DFCFDFB1DFBBDFC5DFD698E69835
:10016000059915993099359938993D99409945994E
:1001700048994D995799084AD73B3BCE016E84BCAC
:10018000BFFDC12F3D6C74319ABD56833DDA3D00F1
:10019000C77F11BED9E4BB4C3E916BAAAABE00003A
:1001A00000803F05A84CCDB2D44EB93836A9020C18
:1001B00050B9918688083CA6AAAA2ABE00000080F1
:1001C0003F00434F4D4D554E49434154494F4E001A
:1001D00044525952554E004552524F525300494EC7
:1001E000464F004543484F0020746F6F206C6F6E80
:1001F0006720657874727573696F6E2070726576AA
:10020000656E7465640A0020636F6C6420657874A1
:10021000727573696F6E2070726576656E74656451
:100220000A00536C6565702E2E2E00456E642066A4
:10023000696C65206C6973740A00426567696E2099
:1002400066696C65206C6973740A0053442070728F
:10025000696E74696E67206279746520004E6F74F0
:10026000205344207072696E74696E670A00466993
:100270006C652064656C657465643A0044656C6502
:1002800074696F6E206661696C65642C2046696CC8
:10029000653A20006F70656E206661696C65642C3C
:1002A0002046696C653A20005072696E742074694A
:1002B0006D653A20005374616E6461726420446518
:1002C00076696174696F6E3A20004D65616E3A20FF
:1002D000002020207369676D613A2000206D656100
:1002E0006E3A20002020207A3A2000206F662000FD
:1002F000205A00205900205800476F696E6720740B
:100300006F3A00436C6F636B776973650A00436FE4
:10031000756E7465722D0020446972656374696F2F
:100320006E3A2000202020616E676C653A200053F1
:1003300074617274696E67207261646975733A20C2
:1003400000506F736974696F6E696E6720746865B9
:100350002070726F62652E2E2E0A003F4E756D6200
:100360006572206F66206C65677320696E206D6F03
:1003700076656D656E74206E6F7420706C61757338
:1003800069626C652028302D3135292E0A0059000C
:1003900058003F53616D706C652073697A65206EFB
:1003A0006F7420706C61757369626C652028342DE0
:1003B0003530292E0A004D3438205A2D50726F6284
:1003C00065205265706561746162696C6974792039
:1003D000746573740A003F566572626F7365204CD2
:1003E0006576656C206E6F7420706C6175736962E0
:1003F0006C652028302D34292E0A00E301DE01D758
:1004000001D001C2016F66660044454255473A007B
:100410004D3131332053006F6B00526F626F4D428C
:100420002072656164792E00526F626F4D42204FD9
:1004300066662E004649524D574152455F4E414D2A
:10044000453A4D61726C696E20312E312E362D5237
:100450003220284769746875622920534F555243EA
:10046000455F434F44455F55524C3A68747470730E
:100470003A2F2F6769746875622E636F6D2F526F04
:10048000626F33442F4D61726C696E20523220428C
:1004900072616E63682050524F544F434F4C5F5609
:1004A000455253494F4E3A5232204D414348494EEE
:1004B000455F545950453A526F626F4D422045583E
:1004C0005452554445525F434F554E543A3120558E
:1004D0005549443A63656465326132662D34316151
:1004E000322D343734382D396231322D633535634E
:1004F000363266333637666620454D455247454E9F
:1005000043595F434F4445533A4D3130382C4D31B8
:1005100031322C4D3431300A007A5F6D61783A20E7
:10052000007A5F6D696E3A2000795F6D61783A20DC
:1005300000785F6D696E3A20005265706F72746961
:100540006E6720656E6473746F7020737461747568
:10055000730A004D31343520533C696E6465783E32
:10056000206F7574206F662072616E676520283079
:100570002D31290A0053657474696E6720547261C5
:1005800076656C20416363656C65726174696F6E3A
:100590003A200053657474696E6720526574726105
:1005A000637420416363656C65726174696F6E3A50
:1005B000200053657474696E67205072696E7420F0
:1005C000416363656C65726174696F6E3A200053B4
:1005D000657474696E67205072696E7420616E6410
:1005E0002054726176656C20416363656C6572614D
:1005F00074696F6E3A2000205A002059005800207C
:10060000204D61783A2000205A00205900580020DF
:10061000204D696E3A20004F6E20004F66660053F1
:100620006F667420656E6473746F70733A20002077
:10063000643A0020693A0020703A0020643A0020B1
:10064000693A0020703A0043290A0061626C6564CF
:1006500020286D696E2074656D702000436F6C6496
:100660002065787472756465732061726520004B33
:1006700064200023646566696E6520204445464118
:10068000554C545F004B69200023646566696E65B4
:10069000202044454641554C545F004B70200023B8
:1006A000646566696E65202044454641554C545F3B
:1006B00000504944204175746F74756E65206669F9
:1006C0006E697368656421205075742074686520B4
:1006D0006C617374204B702C204B6920616E642018
:1006E0004B6420636F6E7374616E74732066726FF7
:1006F0006D2062656C6F7720696E746F20436F6E3A
:1007000066696775726174696F6E2E680A00504978
:1007100044204175746F74756E65206661696C65FF
:1007200064212074696D656F75740A005049442016
:100730004175746F74756E65206661696C656421BE
:100740002054656D706572617475726520746F6F89
:1007500020686967680A00204B643A2000204B69D2
:100760003A2000204B703A20000A20436C617373DA
:10077000696320504944200A002054753A20002023
:100780004B753A2000206D61783A2000206D696E2B
:100790003A200020643A200020626961733A200008
:1007A0004F666673657473206170706C6965640070
:1007B0004572723A20546F6F206661722100546F47
:1007C0006F206661722066726F6D20726566657259
:1007D000656E636520706F696E740A003A20007A56
:1007E0005F6D61783A20007A5F6D696E3A20005A39
:1007F000204F666673657400416476616E636520A0
:10080000666163746F723A20004163746976652093
:1008100045787472756465723A2000220A00556E3C
:100820006B6E6F776E20636F6D6D616E643A202220
:1008300000202B000A436F72726563746564204266
:100840006564204865696768742076732E20426568
:100850006420546F706F6C6F67793A0A00202B0028
:100860000A4265642048656967687420546F706F38
:100870006772617068793A0A2020202B2D2D2D2077
:100880004241434B202D2D2B0A2020207C2020206C
:1008900020202020202020207C0A204C207C20208A
:1008A0002020282B29202020207C20520A2045208F
:1008B0007C20202020202020202020207C20490A6D
:1008C0002046207C20282D29204E20282B29207CE2
:1008D00020470A2054207C20202020202020202077
:1008E00020207C20480A2020207C20202020282D29
:1008F00029202020207C20540A2020207C20202019
:1009000020202020202020207C0A2020204F2D2D58
:100910002046524F4E54202D2D2B0A2028302C30AB
:10092000290A004D65616E206F662073616D706CE1
:10093000656420706F696E74733A200020643A20F9
:100940000020623A200045716E20636F656666691B
:100950006369656E74733A20613A20002842296108
:10096000636B00284629726F6E74002852296967EC
:10097000687400284C29656674003F4E756D626589
:1009800072206F662070726F626564202850296F34
:10099000696E747320697320696D706C6175736919
:1009A000626C65202832206D696E696D756D292E27
:1009B0000A0052756E6E696E6720696E2044525946
:1009C0002D52554E206D6F64650A00473239204123
:1009D00075746F20426564204C6576656C696E673E
:1009E0000A003F2856296572626F7365204C657650
:1009F000656C20697320696D706C61757369626CD8
:100A0000652028302D34292E0A005344206361725A
:100A100064206F6B0A006F70656E526F6F74206692
:100A200061696C65640A00766F6C756D652E696E20
:100A30006974206661696C65640A00534420696EBC
:100A40006974206661696C0A006175746F25692E8E
:100A500067004D3234004D323320257300577269E0
:100A600074696E6720746F2066696C653A20006F48
:100A700070656E206661696C65642C2046696C65E2
:100A80003A20006F70656E206661696C65642C2089
:100A900046696C653A200046696C652073656C6533
:100AA000637465640A002053697A653A20004669D8
:100AB0006C65206F70656E65643A20006F70656EBE
:100AC000206661696C65642C2046696C653A20007B
:100AD0002066696C653A20004E6F772000222070F6
:100AE0006F73002220706172656E743A2200535554
:100AF00042524F5554494E452043414C4C2074615D
:100B0000726765743A22004B494C4C45442E2000D4
:100B1000747279696E6720746F2063616C6C2073E6
:100B200075622D67636F64652066696C65732077F5
:100B300069746820746F6F206D616E79206C6576C2
:100B4000656C732E204D4158206C6576656C20696C
:100B5000733A004572726F723A0043616E6E6F7441
:100B6000206F70656E207375626469722000656322
:100B7000686F3A002569730025696D202569730047
:100B80002569682025696D20256973002569642021
:100B90002569682025696D202569730025697920FC
:100BA000256964202569682025696D202569730001
:100BB0004E6F204C696E65204E756D6265722077B0
:100BC00069746820636865636B73756D2C204C6174
:100BD0007374204C696E653A200053544F50504551
:100BE000442E20005072696E7465722073746F70A9
:100BF0007065642064756520746F206572726F7211
:100C0000732E2046697820746865206572726F7251
:100C100020616E6420757365204D39393920746FF9
:100C200020726573746172742E202854656D70652E
:100C30007261747572652069732072657365742EB4
:100C40002053657420697420616674657220726532
:100C50007374617274696E67290A004E6F2043686D
:100C600065636B73756D2077697468206C696E6558
:100C7000206E756D6265722C204C617374204C6916
:100C80006E653A2000636865636B73756D206D69EE
:100C9000736D617463682C204C617374204C696EB1
:100CA000653A20004C696E65204E756D6265722054
:100CB0006973206E6F74204C617374204C696E658B
:100CC000204E756D6265722B312C204C617374203F
:100CD0004C696E653A20004D313130004D333100A2
:100CE0004D383420582059205A2045005344207252
:100CF000656164206572726F720A00446F6E6520D0
:100D00007072696E74696E672066696C650A004B63
:100D1000494C4C45442E200024F4D43050C38E203E
:100D2000C2A24017828B7011127A910D816CD90A80
:100D3000A861E108C7586607615143061E4B5D056F
:100D4000C145A7041A411104093D980371393103C3
:100D50004036DB0265339102D4305402802E1D02EE
:100D6000632CEE01752AC501B028A001102781016E
:100D70008F2564012B244B01E0223401AC211F019B
:100D80008D200D01801FFC00841EED00971DDF00EB
:100D9000B81CD200E61BC600201BBC00641AB200BF
:100DA000B219A8000A19A0006A189900D117910079
:100DB00040178B00B516840031167E00B3157900FC
:100DC0003A157300C7146F0058146A00EE136600DA
:100DD0008813630025135E00C7125B006C12570076
:100DE00015125400C111510070114F0021114B0018
:100DF000D61049008D1047004610440002104200F2
:100E0000C00F4000800F3E00420F3C00060F3B0029
:100E1000CB0E3800930E37005C0E3500270E3400E1
:100E2000F30D3200C10D3100900D3000600D2E0029
:100E3000320D2D00050D2C00D90C2B00AE0C290015
:100E4000850C29005C0C2700350C27000E0C2600B1
:100E5000E80B2400C40B2400A00B23007D0B23000F
:100E60005A0B2100390B2100180B2000F80A1F0033
:100E7000D90A1E00BB0A1E009D0A1D00800A1D0023
:100E8000630A1C00470A1B002C0A1B00110A1A00E7
:100E9000F7091A00DD091900C4091900AB09190086
:100EA000920917007B091800630917004C09160006
:100EB00036091600200916000A091500F508150064
:100EC000E0081400CC081400B8081400A4081400AA
:100ED000900813007D0812006B08130058081200D8
:100EE00046081200340811002308110012081100EE
:100EF00001081100F0071000E0071000D0071000F3
:100F0000C0071000B0070F00A107100091070E00E6
:100F100083070F0074070F0065070E0057070E00C8
:100F200049070E003B070D002E070E0020070D009D
:100F300013070D0006070D00F9060C00ED060D0065
:100F4000E0060C00D4060C00C8060C00BC060C0021
:100F5000B0060C00A4060B0099060C008D060B00D1
:100F600082060B0077060B006C060B0061060A0078
:100F700057060B004C060A0042060A0038060A0013
:100F80002E060A0024060A001A060A0010060900A6
:100F900007060A00FD050900F4050900EB05090034
:100FA000E2050900D9050900D0050900C7050900B7
:100FB000BE050900B5050800AD050800A505090036
:100FC0009C050800940508008C05080084050800AD
:100FD0007C050800740508006C050700650508001D
:100FE0005D050700560508004E0507004705070088
:100FF0004005080038050700310507002A050700ED
:10100000230507001C050600160507000F0507004D
:101010000805060002050700FB040600F5040700AA
:10102000EE040600E8040600E2040700DB04060004
:10103000D5040600CF040600C9040600C304060058
:10104000BD040600B7040600B1040500AC040600A8
:10105000A6040600A00405009B04060095040500F4
:10106000900406008A04050085040500800406003B
:101070007A04050075040500700405006B04050082
:1010800066040500610405005C04050057040500C2
:10109000520405004D040500480405004304050002
:1010A0003E0404003A040500350405003004040041
:1010B0002C04050027040400230405001E0404007A
:1010C0001A04040016040500110404000D040400B1
:1010D000090405000404040000040400FC030400E7
:1010E000F8030400F4030400F0030400EC0304001C
:1010F000E8030400E4030400E0030400DC0304004C
:10110000D8030400D4030400D0030400CC0304007B
:10111000C8030300C503030024F404D9201BC40C36
:101120005C0E9804C4095F0265077101F405F900BB
:10113000FB04B30048048700C1036900580355004D
:1011400003034500BE023A008402310053022A0024
:101150002902250004022000E4011C00C801190036
:10116000AF011700980114008401130071011000F1
:101170006101100051010E0043010D0036010B000A
:101180002B010B0020010B00150109000C010900C7
:1011900003010800FB000800F3000800EB00070053
:1011A000E4000600DE000600D8000600D2000600BB
:1011B000CC000500C7000500C2000500BD0004000A
:1011C000B9000400B5000400B1000400AD00040043
:1011D000A9000400A5000300A20003009F00040072
:1011E0009B00030098000300950002009300030099
:1011F000900003008D0002008B00030088000200B5
:101200008600020084000300810002007F000200CB
:101210007D0002007B0002007900020077000100DF
:1012200076000200740002007200010071000200EA
:101230006F0002006D0001006C0002006A000100F6
:1012400069000200670001006600010065000100FE
:101250006400020062000100610001006000010002
:101260005F0002005D0001005C0001005B00010006
:101270005A00010059000100580001005700010008
:101280005600010055000100540001005300000009
:101290005300010052000100510001005000010004
:1012A0004F0001004E0000004E0001004D00010003
:1012B0004C0001004B0000004B0001004A000100FF
:1012C00049000100480000004800010047000100FB
:1012D00046000000460001004500000045000100F6
:1012E00044000100430000004300010042000000F0
:1012F00042000100410000004100010040000100E7
:101300003F0000003F0001003E0000003E000100E1
:101310003D0000003D0001003C0000003C000000DA
:101320003C0001003B0000003B0001003A000000CF
:101330003A000100390000003900010038000000C7
:1013400038000000380001003700000037000100BD
:1013500036000000360000003600010035000000B5
:1013600035000000350001003400000034000000AA
:10137000340001003300000033000000330001009E
:101380003200000032000000320001003100000095
:10139000310000003100010030000000300000008A
:1013A000300001002F0000002F0000002F0000007F
:1013B0002F0001002E0000002E0000002E00010072
:1013C0002D0000002D0000002D0000002D00010068
:1013D0002C0000002C0000002C0000002C0001005C
:1013E0002B0000002B0000002B0000002B00010050
:1013F0002A0000002A0000002A0000002A00010044
:101400002900000029000000290000002900000038
:10141000290001002800000028000000280000002A
:10142000280000002800010027000000270000001D
:101430002700000027000000270001002600000010
:101440002600000026000000260000002600010003
:1014500025000000250000002500000025000000F8
:1014600025000000250001002400000024000000E9
:1014700024000000240000002400010023000000DC
:1014800023000000230000002300000023000000D0
:1014900023000000230001002200000022000000C1
:1014A00022000000220000002200000022000100B3
:1014B00021000000210000002100000021000000A8
:1014C0002100000021000000210001002000000098
:1014D000200000002000000020000000200000008C
:1014E0002000000020000000200001001F0000007C
:1014F0001F0000001F0000001F0000001F00000070
:101500001F0000001F0001001E0000001E00000060
:101510001E0000001E0000004D38342058205920C5
:101520005A20450000002100240027002A002D0039
:101530003000330001010000040107010A0100002E
:101540002200250028002B002E003100340002016B
:101550000000050108010B01000020002300260007
:1015600029002C002F0032000001000003010601B9
:101570000901050505050705080808080202020219
:101580000A0A08080404040401010101010101011F
:101590000303030303030303040707070C0C0C0CEA
:1015A0000C0C0C0C020202020606060606060606D3
:1015B0000B0B0B0B0B0B0B0B010210202008081060
:1015C00020401020408002010201080402010102B3
:1015D000040810204080804020100804020180048C
:1015E00002018040201008040201080402010102E7
:1015F00004081020408001020408102040800000F0
:101600000A0B02090C0D0E0807030401000000007C
:1016100000000000000000000000000000000000CA
:101620000000000000000000000012111000000087
:1016300000000000000000000000000000000000AA
:10164000000000004B494C4C45442E2000202D202A
:10165000496E76616C696420657874727564657230
:10166000206E756D62657220210A002020506C6129
:101670006E6E657242756666657242797465733A1C
:1016800020002046726565204D656D6F72793A20A5
:10169000004D617220323220323031370A00436F00
:1016A0006D70696C65643A200028726F626F290A58
:1016B00000207C20417574686F723A20003230310E
:1016C000372D30332D32312031363A303000204C36
:1016D00061737420557064617465643A2000203130
:1016E0002E312E362D52320A004D61726C696E0019
:1016F00020536F6674776172652052657365740A52
:1017000000205761746368646F6720526573657465
:101710000A002042726F776E206F757420526573D5
:1017200065740A002045787465726E616C2052659C
:101730007365740A00506F77657255700A00737490
:101740006172740A006572726F72207772697469CF
:101750006E6720746F2066696C650A00456E64735D
:10176000746F707320256320256320256320256313
:1017700000205A3A0020593A0020583A00656E6419
:1017800073746F7073206869743A2000446F6E65DB
:1017900020736176696E672066696C652E0A004D5C
:1017A000323900220A00656E7175657565696E676C
:1017B0002022000000000000004443000082435744
:1017C00061726E696E673A20486F6D696E6720427C
:1017D000756D702044697669736F72203C20310A00
:1017E000000000A0400000A04000000040000044B5
:1017F000430000444300008243FF01010000211028
:10180000422063308440A550C660E770088129916A
:101810004AA16BB18CC1ADD1CEE1EFF13112100212
:1018200073325222B5529442F772D66239931883BA
:101830007BB35AA3BDD39CC3FFF3DEE362244334DE
:1018400020040114E664C774A44485546AA54BB50A
:1018500028850995EEE5CFF5ACC58DD553367226B2
:1018600011163006D776F6669556B4465BB77AA75A
:1018700019973887DFF7FEE79DD7BCC7C448E558FE
:101880008668A7784008611802282338CCC9EDD9AA
:101890008EE9AFF9488969990AA92BB9F55AD44A52
:1018A000B77A966A711A500A333A122AFDDBDCCBFA
:1018B000BFFB9EEB799B588B3BBB1AABA66C877C1E
:1018C000E44CC55C222C033C600C411CAEED8FFD4A
:1018D000ECCDCDDD2AAD0BBD688D499D977EB66EF2
:1018E000D55EF44E133E322E511E700E9FFFBEEF9A
:1018F000DDDFFCCF1BBF3AAF599F788F8891A9815C
:10190000CAB1EBA10CD12DC14EF16FE18010A10045
:10191000C230E3200450254046706760B983989335
:10192000FBA3DAB33DC31CD37FE35EF3B102901295
:10193000F322D2323542145277625672EAB5CBA501
:10194000A89589856EF54FE52CD50DC5E234C324E5
:10195000A01481046674476424540544DBA7FAB7D5
:101960009987B8975FE77EF71DC73CD7D326F23635
:101970009106B01657667676154634564CD96DC921
:101980000EF92FE9C899E9898AB9ABA94458654885
:1019900006782768C018E1088238A3287DCB5CDB75
:1019A0003FEB1EFBF98BD89BBBAB9ABB754A545AD5
:1019B000376A167AF10AD01AB32A923A2EFD0FED41
:1019C0006CDD4DCDAABD8BADE89DC98D267C076C25
:1019D000645C454CA23C832CE01CC10C1FEF3EFF15
:1019E0005DCF7CDF9BAFBABFD98FF89F176E367E75
:1019F000554E745E932EB23ED10EF01E7C3C3E5E80
:101A00002B3D3F2F5B5D3B2C2A225C004572726FA1
:101A1000722077726974696E6720746F2045455033
:101A2000524F4D210A00206279746573290A0053D0
:101A3000657474696E67732053746F7265642028CF
:101A400000454550524F4D20636865636B73756D5B
:101A5000206D69736D617463680A00206279746532
:101A600073290A002073746F72656420736574743F
:101A7000696E677320726574726965766564202883
:101A80000053746F7265206D656D6F7279004265E9
:101A90006400426564004E6F7A7A6C65004E6F7A1E
:101AA0007A6C650046616E207370656564004661FE
:101AB0006E2073706565640054656D706572617445
:101AC0007572650053746F7265206D656D6F727904
:101AD0000042656400426564004E6F7A7A6C65006E
:101AE0004E6F7A7A6C650046616E2073706565642E
:101AF0000046616E2073706565640054656D7065A5
:101B0000726174757265004573746570732F6D6DC5
:101B1000004573746570732F6D6D005A7374657032
:101B2000732F6D6D005A73746570732F6D6D00594E
:101B300073746570732F6D6D005973746570732FB6
:101B40006D6D005873746570732F6D6D00587374EC
:101B50006570732F6D6D00412D74726176656C0038
:101B6000412D74726176656C00412D7265747261ED
:101B7000637400412D7265747261637400416D611C
:101B800078204500416D6178204500416D617820E5
:101B90005A00416D6178205A00416D6178205900EA
:101BA000416D6178205900416D6178205800416D88
:101BB00061782058005654726176206D696E005627
:101BC00054726176206D696E00566D696E00566DB7
:101BD000696E00566D6178204500566D617820452C
:101BE00000566D6178205A00566D6178205A005673
:101BF0006D6178205900566D6178205900566D61ED
:101C000078205800566D617820580056652D6A6519
:101C1000726B0056652D6A65726B00567A2D6A6587
:101C2000726B00567A2D6A65726B005678792D6A50
:101C300065726B005678792D6A65726B004163633B
:101C4000656C00416363656C005A204F666673657E
:101C500074005A204F666673657400436F6E747229
:101C60006F6C0046696C2E204469612E0046696CD9
:101C70002E204469612E004F6666004F6E2000459D
:101C800020696E206D6D3300436F6E74726F6C004F
:101C900043616E6E6F7420656E7465722073756239
:101CA0006469723A2000052E2E004D61696E004372
:101CB0006172642072656D6F766564004361726461
:101CC00020696E736572746564004D6F7665205887
:101CD000004D6F76652059004D6F7665205A00459E
:101CE0007874727564657200457874727564657293
:101CF000004D6F7665205A004D6F76652059004D76
:101D00006F76652058004D6F7665206178697300A5
:101D10004D6F766520302E316D6D004D6F766520EC
:101D2000316D6D004D6F76652031306D6D005072F4
:101D3000657061726500526573746F7265206661CB
:101D4000696C73616665004C6F6164206D656D6FD1
:101D500072790053746F7265206D656D6F727900D2
:101D600046696C616D656E74004D6F74696F6E00CD
:101D700054656D7065726174757265004D61696E50
:101D800000507265686561742041425320636F6E34
:101D900066005072656865617420504C4120636F25
:101DA0006E66005049442D44005049442D44005073
:101DB00049442D49005049442D49005049442D5073
:101DC000005049442D5000200220466163740020D9
:101DD000022046616374002002204D6178002002D9
:101DE000204D6178002002204D696E002002204DB8
:101DF000696E004F6666004F6E20004175746F7407
:101E0000656D700046616E207370656564004661A3
:101E10006E2073706565640042656400426564000D
:101E20004E6F7A7A6C65004E6F7A7A6C6500436FFC
:101E30006E74726F6C00466C6F7700466C6F770043
:101E400046616E2073706565640046616E20737034
:101E50006565640042656400426564004E6F7A7A8D
:101E60006C65004E6F7A7A6C65005370656564002E
:101E70005370656564004D61696E005072656865F8
:101E8000617420504C412042656400507265686561
:101E9000617420504C410050726570617265005051
:101EA0007265686561742041425320426564005048
:101EB00072656865617420414253005072657061BB
:101EC0007265004D3432380053776974636820704E
:101ED0006F776572206F6E004D38310053776974EB
:101EE000636820706F776572206F6666004D3830CA
:101EF00000436F6F6C646F776E0050726568656148
:101F00007420414253005072656865617420504CE2
:101F100041004D38340044697361626C652073740C
:101F2000657070657273004D6F76652061786973B6
:101F3000004732380A47323900473239004C65765B
:101F4000656C206265640053657420686F6D652060
:101F50006F66667365747300473238004175746F3D
:101F600020686F6D65004D61696E006265640A00EE
:101F70002C2073797374656D2073746F7070656451
:101F800021204865617465725F49443A20004865C4
:101F90006174696E67206661696C6564004865619B
:101FA00074696E67206661696C6564004865617478
:101FB000696E67206661696C656400486561746973
:101FC0006E67206661696C6564001000C002600382
:101FD000D800B006AF00000A9800500D8900A0108C
:101FE0007D00F013730040176A00901A6300E01D33
:101FF0005B003021550080244E00D0274700202B65
:102000004100702E3A00C031320010352A0060388D
:102010001F00B03B1100003F00004572723A204D96
:10202000415854454D5020424544004572723A2073
:102030004D415854454D50004D415854454D502048
:10204000747269676765726564004572723A204D03
:10205000494E54454D5020424544004572723A2045
:102060004D494E54454D50004D494E54454D50201C
:102070007472696767657265640020746F6F206CA5
:102080006F6E6720657874727573696F6E207072F9
:102090006576656E7465640A0020636F6C64206504
:1020A0007874727573696F6E2070726576656E7480
:1020B00065640A0020496E76616C696420657874F5
:1020C00072756465722000000044430000444300C0
:1020D000008243000000000000000000000000201B
:1020E0005A3A200020593A200042656420583A208C
:1020F0000020706F736974696F6E206F7574206F44
:10210000662072616E67652E0A003F50726F6265CD
:10211000200048656174696E672E2E2E00526F6232
:102120006F4D422072656164792E002042403A0072
:1021300020403A00202F0020423A00202F00205457
:102140003A0048656174696E6720646F6E652E00A1
:102150003F0A0020573A0048656174696E672E2E69
:102160002E00526F626F4D422072656164792E00BD
:1021700042656420646F6E652E003F0A0020573A66
:10218000004265642048656174696E672E00205ABC
:102190003A0020593A0020436F756E7420583A2057
:1021A0000020453A00205A3A0020593A00583A0097
:1021B00025753A2530327500253032753A25303292
:1021C00075002D2D2D005344005A00590058000170
:1021D00020000120005072696E742066726F6D20BD
:1021E0005344004E6F205344206361726400537463
:1021F0006F70207072696E7400526573756D652022
:102200007072696E74005061757365207072696ECA
:102210007400436F6E74726F6C00507265706172FF
:10222000650054756E6500496E666F207363726554
:10223000656E0048617264636F646564204465661E
:1022400061756C742053657474696E6773204C6F8C
:10225000616465640A0020204D383531205A005AE7
:102260002D50726F6265204F666673657420286D0D
:102270006D293A0A0020204D3230302044300A00C7
:1022800020204D3230302044002044697361626C5C
:1022900065640A0046696C616D656E7420736574CF
:1022A00074696E67733A0020440020490020204D75
:1022B00033303420500020440020490020204D338A
:1022C00030312050005049442073657474696E6742
:1022D000733A0A0020460020420020204D31343558
:1022E00020533120480020460020420020204D315C
:1022F00034352053302048004D6174657269616C3B
:102300002068656174757020706172616D657465B7
:1023100072733A0A00205A0020590020204D3230B2
:1023200036205800486F6D65206F666673657420AF
:10233000286D6D290A00204500205A0020580020F1
:10234000420020540020204D32303520530041649B
:1023500076616E636564207661726961626C657333
:102360003A20533D4D696E206665656472617465FF
:1023700020286D6D2F73292C20543D4D696E2074DB
:10238000726176656C20666565647261746520288B
:102390006D6D2F73292C20423D6D696E696D756DD1
:1023A000207365676D656E742074696D6520286D96
:1023B00073292C20583D6D6178696D756D205859D1
:1023C000206A65726B20286D6D2F73292C20205A8E
:1023D0003D6D6178696D756D205A206A65726B205C
:1023E000286D6D2F73292C2020453D6D6178696D16
:1023F000756D2045206A65726B20286D6D2F7329DD
:102400000A0020540020520020204D323034205049
:1024100000416363656C65726174696F6E733A2025
:10242000503D7072696E74696E672C20523D726502
:10243000747261637420616E6420543D74726176BD
:10244000656C0A00204500205A0020590020204DCC
:102450003230312058004D6178696D756D204163CF
:1024600063656C65726174696F6E20286D6D2F7382
:1024700032293A0A00204500205A00205900202025
:102480004D3230332058004D6178696D756D20668E
:10249000656564726174657320286D6D2F73293AC8
:1024A0000A00204500205A0020590020204D3932D2
:1024B00020580053746570732070657220756E69C2
:1024C000743A0A0070012C0190012701B001220129
:1024D000C0011D01F00118011002130130020E01AC
:1024E0006002090190020401C002FF000003FA002B
:1024F0004003F5008003F000D003EB002004E60069
:102500007004E100E004DC004005D700C005D20003
:102510004006CD00D006C8008007C3003008BE00CA
:10252000F008B900C009B400B00AAF00B00BAA00AF
:10253000D00CA500000EA000500F9B00C01096000C
:102540005012910000148C00C0158700B017820053
:10255000B0197D00D01B7800001E730040206E0073
:1025600090226900F024640040275F0090295A00FF
:10257000E02B5500102E500020304B00103246004A
:10258000E033410090353C0010373700703832009E
:10259000A0392D00B03A2800A03B2300603C1E006B
:1025A000103D1900903D1400103E0F00703E0A00CF
:1025B000C03E0500003F0000544845524D414C20AC
:1025C00052554E4157415900546865726D616C20F7
:1025D00052756E6177617900206669727374005A72
:1025E0000059005800486F6D6520002066697273BD
:1025F000740A005A0059005800486F6D6520005257
:102600006573656E643A20006F6B00627573793A8A
:102610002070617573656420666F7220696E7075D5
:10262000740A00627573793A20706175736564206D
:10263000666F7220757365720A00627573793A204D
:1026400070726F63657373696E670A004B494C4C17
:1026500045442E20004B494C4C45442E2000506CE4
:1026600065617365207265736574005052494E54FC
:1026700045522048414C544544005072696E74657F
:10268000722068616C7465642E206B696C6C2829FB
:102690002063616C6C6564210A00205A3A20002096
:1026A000593A200042656420583A200052657375FB
:1026B0006D696E67207072696E7400526F626F4D43
:1026C000422072656164792E005761697420666FDB
:1026D0007220757365722E2E2E004E6F206D6F76F0
:1026E000652E006D0046696C616D656E74207573B2
:1026F00065643A200053746174733A20002C204CB6
:102700006F6E67657374206A6F623A2000546F744D
:10271000616C2074696D653A200053746174733A7A
:1027200020002C204661696C65643A20002C20460C
:10273000696E69736865643A20005072696E7473DB
:102740003A200053746174733A20004E414E494E52
:10275000495459494E46CDCCCC3D0AD7233C17B7F6
:10276000D13877CC2B329595E6241FB14F0A000063
:1027700020410000C84200401C4620BCBE4CCA1B81
:102780000E5AAEC59D74A2E0A8DD11241FBECFEF86
:10279000D1E2DEBFCDBF00E00CBF14E0A0E0B2E0AC
:1027A000ECE2F3EE01E00BBF02C007900D92A237FE
:1027B000B107D9F723E1A2E7B4E001C01D92A53E1D
:1027C000B207E1F713E1C4ECD3E100E006C02197C2
:1027D0000109802FFE010E940BE5C33CD10780E078
:1027E0000807A9F70E94AAD80C9484F10C94000061
:1027F0002F923F924F925F926F927F928F929F9211
:10280000AF92BF92CF92DF92EF92FF920F931F93FE
:10281000CF93DF93CDB7DEB7C658D1090FB6F89482
:10282000DEBF0FBECDBF2DB73EB7CF57DF4F3983C9
:102830002883C158D0400091920E30E6039F80015A
:1028400011240E5E124F1093820400938104809134
:10285000B30F80FF18C0EEE6FBE084917F014FEFDD
:10286000E41AF40A882321F00E94804EF701F5CF84
:10287000D8018D918D01882319F00E94804EF8CFE8
:102880008AE00E94804E2091810430918204F901F7
:1028900080812F5F3F4F8032D1F3F0938204E09329
:1028A00081048E3469F010918104009182046AE2FF
:1028B00070E0812F902F0E944EE80097D1F420C045
:1028C000818190ED980F9A3010F08D3261F7329639
:1028D000DF0131962C9120532A30D0F3CD01FC0139
:1028E000019620812032D9F3F0938204E093810491
:1028F000DACFFC0131968291803231F08A3221F0B8
:10290000A12FB02F4D9102C01082F5CFFD01808123
:1029100011968032D9F380538A3020F0EEE6FBE046
:102920000C94262D20E030E05AE0529FC001539FC6
:10293000900D11249C01205331098191280F311DE4
:1029400087FD3A95808180538A3078F3CF013196A4
:10295000DC015C915032D1F39093800480937F042A
:1029600061E070E070939A13609399134D3409F409
:1029700084C1443511F40C94D02C473411F00C94DC
:10298000F52C2C31310509F467C168F42430310588
:1029900020F42230310530F118C12430310509F41A
:1029A0001DC10C941D2D2A35310509F45DC168F453
:1029B0002D31310509F454C12E31310511F00C943B
:1029C0001D2D0E9489D60C941D2D2B35310509F43F
:1029D0004FC12C35310511F00C941D2D0E94C5D529
:1029E0000C941D2D80914B02882311F40C941D2D05
:1029F0000E94E3B284E99EE00E9411D30E94754ECA
:102A00008091B30F83FD90C08090A00E9090A10E96
:102A1000A090A20EB090A30E2091AD063091AE060C
:102A20004091AF065091B006C501B4010E9421E566
:102A30006B017C0120E030E0A9010E941BED88239E
:102A400009F472C08091AE0F811134C020919702B9
:102A5000309198024091990250919A0260911D1014
:102A600070911E1080911F10909120100E941BEDFC
:102A700087FF20C08092AD069092AE06A092AF066E
:102A8000B092B006EEE6FBE084918F010F5F1F4F1E
:102A9000882321F00E94804EF801F6CFE7E0F2E0B3
:102AA00084918F010F5F1F4F882321F00E94804E79
:102AB000F801F6CFC701B6010E947FE697FF07C075
:102AC00090958095709561957F4F8F4F9F4F693896
:102AD00071408105910544F18091A00E9091A10E65
:102AE000A091A20EB091A30E8093AD069093AE0676
:102AF000A093AF06B093B006EEE6FBE084918F01A1
:102B00000F5F1F4F882321F00E94804EF801F6CFFF
:102B1000E8EEF1E084918F010F5F1F4F882321F0D1
:102B20000E94804EF801F6CF2091940E3091950EC0
:102B30004091960E5091970E6091A1067091A20659
:102B40008091A3069091A4060E941BED81111DC0E7
:102B50002091980E3091990E40919A0E50919B0EB3
:102B60006091A5067091A6068091A7069091A8068F
:102B70000E941BED811109C0609100027091010259
:102B800080910202909103021AC060913B02709101
:102B90003C02072E000C880B990B0E9421ED20911E
:102BA00000023091010240910202509103020E9402
:102BB00080ED2AE037ED43E25CE30E9480ED0E9465
:102BC00022B00E9418B00C941D2D81E022303105F6
:102BD00009F080E00E9485B30C941D2D80E50E94D1
:102BE000B2B1882329F00E94C04C6B017C0103C064
:102BF000C12CD12C760183E50E94B2B1882321F04B
:102C00000E941EB76B017C010E946F530E94754E9B
:102C100080919B1390919C13A0919D13B0919E1352
:102C2000C80ED91EEA1EFB1E8091A202811105C0AA
:102C300060E082E292E00E948B850E942B80DC01A2
:102C4000CB018C199D09AE09BF09B7FD02C00C94D8
:102C50001D2D0E94B7CFF1CF0E94C5B10C941D2D40
:102C60000E94342F0C941D2D10927E040C941D2D67
:102C700081E080937E040C941E2D2137310511F4E0
:102C80000C94462008F0DEC02033310509F451C40D
:102C900008F058C02831310509F412C278F5223104
:102CA000310511F40C94F72068F42230310508F452
:102CB000B6C12131310511F00C941D2D0E9416D59D
:102CC0000C941D2D2531310509F4F0C140F4243157
:102CD000310511F00C941D2DEAE3F2E0A4C1263178
:102CE000310509F4E7C12731310511F00C941D2D90
:102CF00040E061E00E94E1470C941D2D2C3131052C
:102D000009F433C250F42A31310509F4E4C108F062
:102D1000F0C11092CC100C941D2D2F31310509F407
:102D200087C330F42E31310509F425C20C941D2DD2
:102D30002032310509F42DC32A32310509F4B7C315
:102D40000C941D2D2435310511F40C94F72008F056
:102D50003FC02E34310511F40C948E1F88F42C34AE
:102D6000310511F40C94701F10F00C948A1F2B3451
:102D7000310511F00C941D2D0E94E5CD0C941D2DF4
:102D80002135310511F40C94D62098F42035310505
:102D900011F00C941D2D269A2E9881E080933D020F
:102DA00060E08AE194E00E948B850E94B1850C94DA
:102DB0001D2D2235310511F40C94F32023353105F6
:102DC00011F00C941D2D81E080937D040C941E2D38
:102DD0002A36310511F40C94B020C8F42C35310595
:102DE00011F40C94392138F42535310511F40C9483
:102DF00026210C941D2D2836310511F40C94921FB8
:102E00002936310511F40C948B200C941D2D2D3690
:102E1000310511F40C94A82048F42B36310511F03B
:102E20000C941D2D0E94D1B80C941D2D2E36310509
:102E300011F40C94961F2F36310511F40C94A91F30
:102E40000C941D2D2D3D310511F40C94672508F0CF
:102E50005DC02E3B310511F40C94AC2060F5273792
:102E6000310511F40C94EA2190F42337310511F463
:102E70000C94CB2110F40C94D9212537310511F095
:102E80000C941D2D60E00E94A0850C941D2D293707
:102E9000310511F40C94E42110F40C94DD212C384C
:102EA000310511F40C9472202139310511F40C9480
:102EB0006E220C941D2D2C3C310511F40C94AC2386
:102EC00088F4293C310511F40C946C232B3C31051A
:102ED00011F40C948E23283C310511F00C941D2D17
:102EE0000C9420232E3C310511F40C94762410F41C
:102EF0000C941824233D310511F40C94BE242C3D70
:102F0000310511F40C945A250C941D2D2239E1E061
:102F10003E0711F40C94232B80F52E3241E0340748
:102F200011F40C94502780F42C3281E0380711F40E
:102F30000C94D02510F00C94F625223E310511F4A6
:102F40000C9480250C941D2D2033A1E03A0711F438
:102F50000C94B42610F40C94C4272039E1E03E0709
:102F600011F40C94202B2139314011F00C941D2DBB
:102F700081E00E94D2AF0C941D2D273F41E0340721
:102F800011F40C94302C78F5243F81E0380711F4CB
:102F90000C942A2CC8F42C3A314011F00C941D2DBD
:102FA00081EA282E86E0382EE6E8F3E12196FFAF8D
:102FB000EEAF219722E933E123963FAF2EAF23975F
:102FC00000E010E00C94272B253FB1E03B0711F403
:102FD0000C942D2C263F314011F00C941D2D0E9495
:102FE0009AC70C941D2D2938F3E03F0711F40C9477
:102FF0008E2C48F42335334011F00C941D2DEEE651
:10300000FBE00C943F2C203AA3E03A0709F407C2F6
:10301000273E334011F40C94C02C0C941D2D0E94BB
:1030200027D50C941D2D84918F010F5F1F4F88238E
:1030300021F00E94804EF801F6CF109252131092A8
:10304000511340E050E0BA018DEF90E10E943A6DDB
:103050008BE1EDEFF0E1DE01159601900D928A957E
:10306000E1F78091FB109091FC109C838B8383EBA4
:1030700093E09A83898340E050E0BE016F5F7F4F09
:1030800083E694E00E94AA45CE0101960E943E6626
:10309000EBE2F2E084918F010F5F1F4F882311F460
:1030A0000C941D2D0E94804EF801F4CF0E94F84A26
:1030B0000C941D2D1092CC101092CD100C941D2D3F
:1030C0008091CD10882319F081E08093CC100E946C
:1030D000E5CD0C941D2D8091CD10882311F40C9416
:1030E0001D2D83E50E94B2B181110C94572D0C94D3
:1030F0001D2D8091CD10882351F1EBE4F2E08491F5
:103100008F010F5F1F4F882321F00E94804EF8012E
:10311000F6CF609148137091491380914A139091B2
:103120004B134AE00E94AD4E8FE20E94804E6091A8
:1031300044137091451380914613909147134AE0D0
:103140000E94AD4E8AE00E94804E0C941D2DEDE54C
:10315000F2E084918F010F5F1F4F882311F40C94CC
:103160001D2D0E94804EF801F4CF40E060E00E94E7
:10317000E1470C941D2D8091CD10882311F40C94FF
:103180001D2D87E992E10E94086D87E992E10E9476
:10319000325E1092CB101092CA10E0907F04F09033
:1031A00080048091CD10882311F40C941D2D0E9471
:1031B000D6471D8218861C821B8283EB93E09A837C
:1031C000898389EF90E19093191180931811F70189
:1031D00080818F3209F068C06FE270E0C7010E9401
:1031E0004EE88C010F5F1F4F9E012F5F3F4F59012B
:1031F0000115110509F45EC06FE270E0C8010E947C
:103200004EE86C01009709F456C00817190708F03A
:1032100052C04C01801A910AA401B801CE018096D7
:103220000E946EE8E0E2F0E0EC0FFD1FE80DF91DF2
:1032300010828E01005E1F4FD8018D918D01882371
:1032400019F00E94804EF8CF8AE00E94804E609173
:103250001811709119116115710511F06C5F7F4F94
:1032600021E0AE01405E5F4FCE0105960E940F64E3
:10327000811112C0BE01605E7F4F84E992E00E941E
:10328000874E8EE20E94804E8AE00E94804EC501E9
:103290000E943E660C941D2DB0921911A092181137
:1032A00086010F5F1F4FA4CF8AE191E1909319111E
:1032B000809318118701609118117091191161158F
:1032C000710511F06C5F7F4F18A21BA222E0A801CC
:1032D000CE0180960E940F64811102C0F12C14C0AF
:1032E000CE0180960E9418458823C1F361E0CE018B
:1032F00080960E943B5E009789F325EEFC012083B7
:103300001BA20E94B66AF82ECE0180960E944C4EF7
:10331000FF2009F1EEE6F2E084917F012FEFE21A3F
:10332000F20A882321F00E94804EF701F5CFD801E0
:103330008D918D01882319F00E94804EF8CF8AE08C
:103340000E94804E109248131092491310924A1313
:1033500010924B1318C0ECE7F2E084917F01BFEFAD
:10336000EB1AFB0A882321F00E94804EF701F5CF6B
:10337000F80181918F01882319F00E94804EF8CFC7
:103380008EE20E94804ECE0101960E943E660C9411
:103390001D2D8091CC1081110E946F5300917F04EC
:1033A0001091800461E270E0C8010E944EE800972D
:1033B00019F08C010F5F1F4F80E50E94B2B1882386
:1033C00049F0FF24F3948091720490917304801764
:1033D000910708F0F12C8091CD10882311F40C9402
:1033E0001D2D4F2D61E0C8010E94E14783E50E9439
:1033F000B2B1882349F080917204909173048017D0
:10340000910710F40C94682D8091CD10882319F049
:1034100081E08093CC10F1100C941D2D58CE21E04A
:103420002093CB1040E060E00E94E1470C941D2DFA
:1034300081EA90E10E94139E68A379A38AA39BA3CB
:10344000BE016F5F7F4FCE0180960E948C4D60E081
:10345000CE0101960E94A085EEE6FBE084918F01EB
:103460000F5F1F4F882321F00E94804EF801F6CF96
:10347000E8EAF2E084918F010F5F1F4F811104C0D1
:103480008E010F5F1F4F04C00E94804EF801F2CFE3
:10349000D8018D918D01882319F00E94804EF8CFBC
:1034A0008AE00E94804E0E94524E0C941D2D83E5AE
:1034B0000E94B2B1882311F40C941D2D0E94A1B773
:1034C0007C018F3F910519F010F00C941D2D80E5C3
:1034D0000E94B2B1882339F00E94A1B78C0197FFF6
:1034E00004C00C941D2D0DE010E0E5EFF2E0819199
:1034F00091910817190711F40C941D2D23E0E53460
:10350000F207A9F761E0802F0E945C5D6E2D802F8D
:103510000E942D5DB701802F0E9410DF073011053A
:1035200011F00C941D2DF092270FE092260F0C94B1
:103530001D2D4DB75EB764965FAF4EAF64970E9486
:10354000B5CC8111C2C486E50E94B2B1882349F08E
:103550000E9428B7382E54E0581788F4E6EDF3E0BF
:1035600003C0332433940DC084918F010F5F1F4F2C
:10357000882309F4AAC40E94804EF801F5CF88235D
:1035800059F006EB13E0F8018491882329F00F5FCE
:103590001F4F0E94804EF7CF80E50E94B2B1882372
:1035A00021F00E9428B7182F01C01AE08CEF810F7C
:1035B0008F3260F002E913E0F8018491882309F466
:1035C00084C40F5F1F4F0E94804EF6CF8091A106EA
:1035D0009091A206A091A306B091A4068BAF9CAFD8
:1035E000ADAFBEAF8091A5069091A606A091A706AB
:1035F000B091A80688A399A3AAA3BBA385E40E94BF
:10360000B2B165968FAF659788E50E94B2B1882305
:1036100019F00E94CB4C09C020E030E0A9016BAD4D
:103620007CAD8DAD9EAD0E9422E525966CAF7DAF41
:103630008EAF9FAF25978090861390908713A090B0
:103640008813B0908913C0907A13D0907B13E090C8
:103650007C13F0907D1320E030E0A901C501B40196
:103660000E9422E5A70196010E9422E59B01AC0180
:1036700025966CAD7DAD8EAD9FAD25970E941BED5F
:1036800087FD18C020E030E044E453E4C501B401F4
:103690000E9422E5A70196010E9422E59B01AC0150
:1036A00025966CAD7DAD8EAD9FAD25970E946AE7E6
:1036B00018161CF480E993E05AC089E50E94B2B163
:1036C000882319F00E94CB4C0AC020E030E040EF84
:1036D00051E468A179A18AA19BA10E9422E52996C3
:1036E0006CAF7DAF8EAF9FAF299780908A1390907B
:1036F0008B13A0908C13B0908D13C0907E13D0903C
:103700007F13E0908013F090811320E030E040EFD1
:1037100051E4C501B4010E9422E5A70196010E946F
:1037200022E59B01AC0129966CAD7DAD8EAD9FADC0
:1037300029970E941BED87FD18C020E030E044E48B
:1037400053E4C501B4010E9422E5A70196010E943D
:1037500022E59B01AC0129966CAD7DAD8EAD9FAD90
:1037600029970E946AE718162CF48EE893E00E94CD
:10377000EBADABC38CE40E94B2B1082F8823C1F03B
:103780000E9428B78FAF803168F0EBE5F3E08491B9
:103790008F010F5F1F4F882309F497C30E94804E4B
:1037A000F801F5CFFFADF13021F422E02FAF01C0D9
:1037B0001FAE83E50E94B2B167968FAF67978823EB
:1037C00021F0011102C037E03FAF42E043156CF435
:1037D000E1E4F3E084917F015FEFE51AF50A8823C5
:1037E00021F00E94804EF701F5CF0E94BACD0E94D1
:1037F000C0AE832D032C000C990B6C969FAF8EAF3F
:103800006C977C0165960FAD659729962CAD3DAD03
:103810004EAD5FAD299725966CAD7DAD8EAD9FAD5C
:1038200025970E9457B00E942B8061157105810574
:10383000910511F00E94CCE8A12F012E000CBB0BCA
:10384000A496BFAFAEAFA497EDB7FEB724E01202C7
:10385000E019F10911240FB6F894FEBF0FBEEDBFB9
:103860004DB75EB74F5F5F4F62965FAF4EAF6297E7
:10387000212C812C912C5401750164015FAD852FA1
:1038800090E0DC011197AA96BFAFAEAFAA97212FA7
:10389000110F330B440B550BAE962CAF3DAF4EAF13
:1038A0005FAFAE97E22DF0E06096FFAFEEAF6097AE
:1038B000A4962EAD3FADA497E217F3070CF0C4C257
:1038C0003FAD31112CC06C96EEACFFAC6C97659699
:1038D0000FAD659729962CAD3DAD4EAD5FAD2997E7
:1038E00025966CAD7DAD8EAD9FAD25970E9457B0EE
:1038F0006096EEADFFAD6097EE0FFF1FEE0FFF1F5E
:1039000062964EAD5FAD6297E40FF51F60837183E1
:1039100082839383812C912C540110E0D2C10E94A8
:10392000C9E82AE030E040E050E00E9449F10E94FE
:1039300021ED20E030E040EA50E40E946AE71816EA
:103940001CF001E010E002C00FEF1FEF0E94C9E879
:1039500028E631E040E050E00E9449F10E9421ED6C
:103960002B013C010E94C9E823E130E040E050E037
:103970000E9449F16B5F7F4F8F4F9F4F0E9421ED57
:103980002D966CAF7DAF8EAF9FAF2D9754E035165F
:1039900071F02E961FAE2E97C801110FAA0BBB0B0C
:1039A000A2968CAF9DAFAEAFBFAFA29772C02D965F
:1039B0004CAD5DAD6EAD7FAD2D978FE293E00E9473
:1039C000A752B301A20184E293E00E94A752E7E16B
:1039D000F3E084917F019FEFE91AF90A882321F02F
:1039E0000E94804EF701F5CF0130110519F0E3E098
:1039F000F3E00DC0EEE0F3E084917F01AFEFEA1A4F
:103A0000FA0A8823A1F30E94804EF701F5CF849132
:103A10007F01BFEFEB1AFB0A882309F4BACF0E949B
:103A2000804EF701F4CF4BAD5CAD6DAD7EAD86EF52
:103A300092E00E94A75248A159A16AA17BA183EFFD
:103A400092E00E94A7524091A9065091AA06609167
:103A5000AB067091AC0680EF92E00E94A7528AE01C
:103A60000E94804E19821A821B821C829E012F5F47
:103A70003F4F49EA56E0BE01605E7F4FCE01CB96D4
:103A80000E94E0AE2E962FAD2E972F5F2E962FAF71
:103A90002E972E963FAD2E97832F90E0AA964EAD8F
:103AA0005FADAA97841795070CF00DCF6796EFAD21
:103AB0006797EE2389F0A2966CAD7DAD8EAD9FAD7C
:103AC000A2970E9421ED9B01AC010E9422E520E01B
:103AD00030E040E952E420C00E94C9E84B015C019B
:103AE000A2966CAD7DAD8EAD9FADA2970E9421EDEB
:103AF0006B017C01C501B40124E130E040E050E0FD
:103B00000E9449F1675E7F4F8F4F9F4F0E9421EDCA
:103B10009B01AC01C701B6010E9480ED9B01AC0185
:103B2000C301B2010E9422E52B013C0120E030E0FC
:103B300044EB53E40E946AE718164CF420E030E0AE
:103B400044EB53E4C301B2010E9421E5EDCF20E034
:103B500030E0A901C301B2010E941BED87FF0BC039
:103B600020E030E044EB53E4C301B2010E9422E5BF
:103B70002B013C01ECCF2BED3FE049E450E4C301C5
:103B8000B2010E9480ED20E030E044E353E40E9463
:103B90000EE64B015C010E940BE62D962CAD3DAD6F
:103BA0004EAD5FAD2D970E9480ED9B01AC01259637
:103BB0006CAD7DAD8EAD9FAD25970E9422E56B016A
:103BC0007C01C501B4010E94A8E7A8966CAF7DAF47
:103BD0008EAF9FAFA89720E030E040EF51E42996E8
:103BE0006CAD7DAD8EAD9FAD29970E9421E54B0157
:103BF0005C012D962CAD3DAD4EAD5FAD2D97A896D9
:103C00006CAD7DAD8EAD9FADA8970E9480ED9B0100
:103C1000AC01C501B4010E9422E54B015C0120E02A
:103C200030E0A901C701B6010E941BED87FD11C05C
:103C300020E030E044E453E4C701B6010E946AE7A3
:103C4000181654F4C12CD12CF4E4EF2EF3E4FF2E1B
:103C500003C0C12CD12C7601CBAEDCAEEDAEFEAEF6
:103C600020E030E0A901C501B4010E941BED87FDF1
:103C700011C020E030E044E453E4C501B4010E94E7
:103C80006AE7181654F4812C912CE4E4AE2EE3E498
:103C9000BE2E03C0812C912C540188A299A2AAA205
:103CA000BBA2F4E03F12DECEE9EFF2E084918F0197
:103CB0000F5F1F4F882309F4B6CE0E94804EF80193
:103CC000F5CF6296EEADFFAD629754E0159FE00D23
:103CD000F11D11242081318142815381C501B4013C
:103CE0000E9422E54B015C011F5F211650F7609690
:103CF000CEACDFAC60978FEFC81AD80A2601DD0C76
:103D000066087708C301B2010E9421ED2D966CAFC1
:103D10007DAF8EAF9FAF2D979B01AC01C501B40164
:103D20000E940EE66B017C01812C912C540110E065
:103D30006296EEADFFAD629794E0199FE00DF11D24
:103D40001124A701960160817181828193810E9473
:103D500021E59B01AC010E9480ED9B01AC01C501F6
:103D6000B4010E9422E54B015C011F5F211600F7A0
:103D70002D962CAD3DAD4EAD5FAD2D970E940EE65C
:103D80000E94B3E74B015C01332009F45BC0A1E062
:103D90003A1609F454C0C301B2010E942E4FEBEE53
:103DA000F2E084918F010F5F1F4F882321F00E9462
:103DB000804EF801F6CFAE966CAD7DAD8EAD9FAD69
:103DC000AE970E942E4FE4EEF2E084918F010F5FD8
:103DD0001F4F882321F00E94804EF801F6CF60919A
:103DE000A9067091AA068091AB069091AC0646E0B8
:103DF0000E941B52B2E03B1611F1ECEDF2E084910F
:103E00008F010F5F1F4F882321F00E94804EF80121
:103E1000F6CF46E0C701B6010E941B52E1EDF2E089
:103E200084918F010F5F1F4F882321F00E94804EE5
:103E3000F801F6CF46E0C501B4010E941B528AE0AA
:103E40000E94804E23942ECD80E00E94D2AF81113B
:103E50003CC03320A1F0EAECF2E084918F010F5FC7
:103E60001F4F882321F00E94804EF801F6CF46E0D4
:103E7000C701B6010E941B528AE00E94804EE5EB0A
:103E8000F2E084918F010F5F1F4F882321F00E9481
:103E9000804EF801F6CF46E0C501B4010E941B52E6
:103EA0008AE00E94804E8AE00E94804E0E94A6AE68
:103EB0000E9412B864964EAD5FAD64970FB6F89449
:103EC0005EBF0FBE4DBF0C941D2D64968EAD9FAD91
:103ED00064970FB6F8949EBF0FBE8DBF0C941D2D36
:103EE0008091A1109091A210019711F00C941D2DBA
:103EF00082E090E09093A2108093A1100E942B800A
:103F00006093AB107093AC108093AD109093AE1093
:103F10000C941D2D0E9477C90C941D2D0E94ECD38A
:103F20000C941D2D0E94C3BC0C941D2D8EE40E9488
:103F3000B2B1882311F40C941D2D0E9477E0609398
:103F400074047093750480937604909377040C94B2
:103F50001D2D83E50E94B2B1882319F00E9428B775
:103F600001C080E08093B30FEEE6FBE084918F0107
:103F70000F5F1F4F882321F00E94804EF801F6CF7B
:103F8000E9E0F4E084918F010F5F1F4F882321F057
:103F90000E94804EF801F6CF8091B30F8823A1F1E3
:103FA0007BEFC72E73E0D72EE12CF12C20E080911F
:103FB000B30F90E00E2C02C0959587950A94E2F716
:103FC00080FF17C0BB24B394B20E222319F08CE2F9
:103FD0000E94804EF60125913491F9018491890166
:103FE0000F5F1F4F882321F00E94804E9801F5CF6C
:103FF0002B2DFFEFEF1AFF0A32E0C30ED11C45E074
:10400000E416F104A1F63DC0E5E0F4E084918F01EF
:104010000F5F1F4F8823A9F10E94804EF801F6CF51
:1040200080E20E94804E8AE50E94B2B1882311F49A
:104030000C94802C0E94CB4C6B017C0120E030E082
:1040400040EA51EC0E946AE787FF02C00C94572CAB
:1040500020E030E040EA51E4C701B6010E941BEDC8
:10406000181614F40C94572CC092F20ED092F30E42
:10407000E092F40EF092F50E42E0C701B6010E9404
:104080001B528AE00E94804E0C941D2D83E50E94F5
:10409000B2B1882369F00E9428B78093E2028D3381
:1040A00010F40C941D2D8CE38093E2020C941D2DD2
:1040B000EEE6FBE084918F010F5F1F4F882321F014
:1040C0000E94804EF801F6CF4091E20250E060E09D
:1040D00070E080E194E00E94134F8AE00E94804EDD
:1040E0000C941D2D8091B30F83FF02C00C941D2DE5
:1040F00083E50E94B2B1882311F40C941D2D0E9417
:10410000CB4C0E947FE67093290F6093280F0E948A
:10411000B5960C941D2D89E690E00E9457B7811149
:1041200011C0E7E1F4E084918F010F5F1F4F8823F6
:1041300021F00E94804EF801F6CF0E94DEB88AE09E
:104140000E94804E10929A13109299130C940F2F84
:104150000E94ECBA0C941D2D0E9466B90C941D2D82
:1041600083E50E94B2B1882321F00E9494B78C01AC
:1041700002C00FEF10E080E50E94B2B1882319F071
:104180000E9494B702C080E090E098010F3F1105B3
:1041900019F010F02FEF30E0892B11F00C941D2D49
:1041A0003093270F2093260F0C941D2D0E94059706
:1041B0000E946F530E9462CF1092270F1092260F19
:1041C00068EE73E080E090E00E94F37F269A2E9ADA
:1041D00010923D0260E088E294E00E948B850E948C
:1041E000B1850C941D2D10927D040C941D2D83E53A
:1041F0000E94B2B1882361F00E941EB76093E3026F
:104200007093E4028093E5029093E6020C941D2DD6
:1042100088E50E94B2B181110C94F72C89E50E94C7
:10422000B2B181110C94F72C8AE50E94B2B18111D0
:104230000C94F72C85E40E94B2B181110C94F72CF8
:104240000E946F530E9462CF0C941D2D83E50E9443
:10425000B2B1882311F40C941D2D0E941EB76093F7
:104260009F137093A0138093A1139093A2130C94A7
:104270001D2D51EF852E52E0952E01EB16E062EDDB
:10428000A62E6EE0B62E84EB9FE021969FAF8EAFF8
:104290002197312CD4018D914D010E94B2B1882318
:1042A00009F462C0B3E03B1258C00E94CB4C2B0112
:1042B0003C0120E030E040EA51E40E941BED87FF22
:1042C00045C0A3019201F8016081718182819381CF
:1042D0000E940EE66B017C019B01AC016091E20E35
:1042E0007091E30E8091E40E9091E50E0E9480EDB6
:1042F0006093E20E7093E30E8093E40E9093E50ECC
:10430000A7019601D5016D917D918D919C910E949F
:1043100080EDF50160837183828393832196AEAD36
:10432000BFAD21976D917D918D919C910E941FED64
:10433000A70196010E9480ED0E9485E62196EEADD0
:10434000FFAD21976083718382839383D8014D925F
:104350005D926D927C92139707C00E94CB4CF8013E
:10436000608371838283938333940C5F1F4FF4E0E7
:10437000AF0EB11C21962EAD3FAD21972C5F3F4F64
:1043800021963FAF2EAF219734E0331283CF0E94A6
:104390004E9F0C941D2DE4E3F4E084918F010F5F98
:1043A0001F4F882311F40C941D2D0E94804EF8019C
:1043B000F4CF0E9412B80C941D2D81E080931E0250
:1043C0008093A1020C941E2D10921E021092A10245
:1043D0000C941D2DE9E3F5E084918F010F5F1F4FD1
:1043E000882321F00E94804EF801F6CFE1E3F5E04A
:1043F00084918F010F5F1F4F882321F00E94804E10
:10440000F801F6CF659903C00FEB13E002C004EC8E
:1044100013E0D8018D918D01882319F00E94804E00
:10442000F8CF8AE00E94804EE9E2F5E084918F01A6
:104430000F5F1F4F882321F00E94804EF801F6CFB6
:104440008091030181FD03C00FEB13E002C004EC77
:1044500013E0F80181918F01882319F00E94804EAA
:10446000F8CF8AE00E94804EE1E2F5E084918F016E
:104470000F5F1F4F882321F00E94804EF801F6CF76
:104480004A9903C00FEB13E002C004EC13E0D8011B
:104490008D918D01882319F00E94804EF8CF8AE01B
:1044A0000E94804EE9E1F5E084918F010F5F1F4F7C
:1044B000882321F00E94804EF801F6CF4B9903C06B
:1044C0000FEB13E002C004EC13E0F80181918F01BF
:1044D000882309F4D6CD0E94804EF7CF83E50E9451
:1044E000B2B1882309F10E94A1B78230D0F0E3E590
:1044F000FBE084918F010F5F1F4F882321F00E9402
:10450000804EF801F6CFE3E5F5E084918F010F5F6F
:104510001F4F882311F40C941D2D0E94804EF8012A
:10452000F4CF813009F446C088E40E94B2B18823F8
:1045300091F00E94A1B78A3A91053CF08431F1E0F4
:104540009F072CF083E191E002C08AEA90E090930B
:10455000A90E8093A80E86E40E94B2B1882381F050
:104560000E94A1B78F3F910519F014F08FEF90E0F2
:1045700097FF02C080E090E09093AB0E8093AA0E6C
:1045800082E40E94B2B1882311F40C941D2D0E9484
:10459000A1B78530910534F0803691052CF08FE578
:1045A00090E002C085E090E09093A70E8093A60E65
:1045B0000C941D2D88E40E94B2B1882391F00E94D2
:1045C000A1B78A3A91053CF0843121E092072CF0A2
:1045D00083E191E002C08AEA90E09093AF0E80936D
:1045E000AE0E86E40E94B2B1882381F00E94A1B78A
:1045F0008F3F910519F014F08FEF90E097FF02C004
:1046000080E090E09093B10E8093B00E82E40E941F
:10461000B2B1882311F40C941D2D0E94A1B78530EE
:10462000910534F0803691052CF08FE590E002C0C2
:1046300085E090E09093AD0E8093AC0E0C941D2D10
:1046400088EC90E00E9457B781110C941D2D84E4F2
:104650000E94B2B1882311F40C941D2D0E94CB4C02
:1046600011E020E030E0A9010E941BED811101C0A2
:1046700010E01093F90E112359F10091780410E025
:104680000E94CB4C000F111F000F111FF801E15EBB
:10469000FD4F608371838283938320E030E0A90122
:1046A00060911F027091200280912102909122025C
:1046B0000E941BED81110CC080E090E0A0EEBFE3F2
:1046C00080931F0290932002A0932102B0932202B4
:1046D0000E94985D0C941D2D2AEBE22E2EE0F22E06
:1046E00001EF12E034E0D32ED00ED8018D918D0170
:1046F0000E94B2B1882349F00E94CB4C0E9485E60B
:10470000F7016083718382839383F4E0EF0EF11CE1
:10471000D012EBCF0E94069F0C941D2D82EDE82E47
:104720008EE0F82E01EF12E094E0D92ED00ED801E1
:104730008D918D010E94B2B1882339F00E94CB4C3B
:10474000F7016083718382839383F4E0EF0EF11CA1
:10475000D012EDCF0C941D2D83E50E94B2B18823B9
:10476000D9F00E94CB4CAB01BC014093EE0E5093AC
:10477000EF0E6093F00E7093F10E4093B20E5093D3
:10478000B30E6093B40E7093B50E8FEC95E00E945B
:10479000A7528AE00E94804E80E50E94B2B1882331
:1047A00099F00E94CB4CAB01BC014093EE0E5093AC
:1047B000EF0E6093F00E7093F10E82EB95E00E9485
:1047C000A7528AE00E94804E82E50E94B2B18823FF
:1047D00099F00E94CB4CAB01BC014093B60E5093B4
:1047E000B70E6093B80E7093B90E83E995E00E94FE
:1047F000A7528AE00E94804E84E50E94B2B18823CD
:1048000011F40C941D2D0E94CB4CAB01BC014093C4
:10481000B20E5093B30E6093B40E7093B50E85E74D
:1048200095E00E94A7528AE00E94804E0C941D2DB4
:1048300083E50E94B2B1882351F00E94CB4C609373
:10484000CE0E7093CF0E8093D00E9093D10E84E550
:104850000E94B2B1882351F00E94CB4C6093CA0EE3
:104860007093CB0E8093CC0E9093CD0E82E40E9479
:10487000B2B1882351F00E94C04C6093AF0F709387
:10488000B00F8093B10F9093B20F88E50E94B2B140
:10489000882351F00E94CB4C6093EA0E7093EB0E8C
:1048A0008093EC0E9093ED0E8AE50E94B2B18823BE
:1048B00051F00E94CB4C6093E60E7093E70E80930C
:1048C000E80E9093E90E85E40E94B2B1882311F4BA
:1048D0000C941D2D0E94CB4C6093E20E7093E30E5E
:1048E0008093E40E9093E50E0C941D2DB1EFAB2E4A
:1048F000B2E0BB2E11EAC12E16E0D12E06E8E02E62
:1049000003E1F02E00E010E0D5018D915D010E94E1
:10491000B2B1882311F10E94CB4C2B013C01F7016D
:1049200020813181428153810E9421E59B01AC01AC
:10493000D6016D917D918D919C910E9422E5F601A9
:104940006083718382839383D7014D925D926D92D0
:104950007C921397C8010E9467B10F5F1F4FB4E0AC
:10496000CB0ED11CE4E0EE0EF11C0330110561F614
:104970000E94734D0E9412B80C941D2DEEE6FBE0D0
:1049800084918F010F5F1F4F882321F00E94804E7A
:10499000F801F6CF83E50E94B2B1882341F00E946E
:1049A00028B791E0811101C090E090934A02EFE1B5
:1049B000F6E084918F010F5F1F4F882321F00E9442
:1049C000804EF801F6CF80914A02811103C0EBE1DD
:1049D000F6E002C0E7E1F6E084918F010F5F1F4F20
:1049E000882321F00E94804EF801F6CFEFE0F6E038
:1049F00084918F010F5F1F4F882321F00E94804E0A
:104A0000F801F6CF4091360F5091370F6091380F73
:104A10007091390F8DE096E00E94A75240913A0FB5
:104A200050913B0F60913C0F70913D0F8AE096E0F2
:104A30000E94A75240913E0F50913F0F6091400F4E
:104A40007091410F87E096E00E94A752EFEFF5E0EA
:104A500084918F010F5F1F4F882321F00E94804EA9
:104A6000F801F6CF40913E0250913F026091400222
:104A7000709141028DEF95E00E94A7524091420251
:104A80005091430260914402709145028AEF95E093
:104A90000E94A752409146025091470260914802FD
:104AA0007091490287EF95E00E94A7528AE00E9428
:104AB000804EC3C783E50E94B2B1882309F4BDC705
:104AC0000E94A1B790933C0280933B02B6C78DED44
:104AD00090E00E9457B78111B0C783E50E94B2B140
:104AE000882309F4AAC70091780410E00E94A1B7B6
:104AF000000F111FF801E75CFD4F918380839DC774
:104B000080E50E94B2B1882309F497C70E94A1B73B
:104B10008C0183E50E94B2B1882321F00E94A1B7E5
:104B20007C0103C0EE24EA94FE2CC7010196039792
:104B300008F083C7E5EFF2E081919191801791072A
:104B400009F47BC723E0E534F207B1F717FD75C719
:104B50000E946F53D02E60E0802F0E945C5D3FEF7B
:104B6000E316F30631F0EA94EF2871F401E010E067
:104B70000DC0802F0E947FDD31E020E0892B09F0FD
:104B800030E0032F122F02C000E010E08D2D0E94B4
:104B90007FDD8017910709F450C70E94B7CFF6CF89
:104BA00083E50E94B2B1882319F00E9494B702C035
:104BB00084E091E099A388A380E50E94B2B18823A4
:104BC00049F00E9494B7893853E1950728F088E8A6
:104BD00093E102C088EE93E09A838983BE01605E10
:104BE0007F4FCE0101960E9475CC27C785E40E94B5
:104BF000B2B1811110C080E50E94B2B1882399F052
:104C00000E94CB4C6093250270932602809327026A
:104C10009093280208C00E94A1B7181619065CF7E5
:104C2000E3E5FBE090C089E40E94B2B1882381F003
:104C30000E94CB4C2CE933E549E45EE30E9480ED11
:104C400060931A0270931B0280931C0290931D02C2
:104C500084E40E94B2B1882381F00E94CB4C2CE9FD
:104C600033E549E45EE30E940EE660932902709307
:104C70002A0280932B0290932C020E94E69DEEE67E
:104C8000FBE084918F010F5F1F4F882321F00E946A
:104C9000804EF801F6CFE7E3F6E084918F010F5FD5
:104CA0001F4F882321F00E94804EF801F6CF6091BB
:104CB000250270912602809127029091280242E0FD
:104CC0000E941B52E3E3F6E084918F010F5F1F4FB8
:104CD000882321F00E94804EF801F6CF2CE933E5BD
:104CE00049E45EE360911A0270911B0280911C02FC
:104CF00090911D020E940EE642E00E941B52EFE2DC
:104D0000F6E084918F010F5F1F4F882321F00E94EE
:104D1000804EF801F6CF2CE933E549E45EE360917B
:104D2000290270912A0280912B0290912C020E94FC
:104D300080ED42E00E941B528AE00E94804E7DC6B8
:104D40000E94804EF80184918F010F5F1F4F8111E7
:104D5000F7CF06ED13E0D8018D918D01882309F47A
:104D600090C90E94804EF7CF80E50E94B2B188239F
:104D700051F00E94CB4C609350027093510280938B
:104D800052029093530289E40E94B2B1882381F0C9
:104D90000E94CB4C2CE933E549E45EE30E9480EDB0
:104DA0006093160270931702809318029093190271
:104DB00084E40E94B2B1882381F00E94CB4C2CE99C
:104DC00033E549E45EE30E940EE660934C02709383
:104DD0004D0280934E0290934F020E94E69DEEE6B4
:104DE000FBE084918F010F5F1F4F882321F00E9409
:104DF000804EF801F6CFE3E4F6E084918F010F5F77
:104E00001F4F882321F00E94804EF801F6CF609159
:104E1000500270915102809152029091530242E0EF
:104E20000E941B52EFE3F6E084918F010F5F1F4F4A
:104E3000882321F00E94804EF801F6CF2CE933E55B
:104E400049E45EE3609116027091170280911802A6
:104E5000909119020E940EE642E00E941B52EBE381
:104E6000F6E084918F010F5F1F4F882321F00E948D
:104E7000804EF801F6CF2CE933E549E45EE360911A
:104E80004C0270914D0280914E0290914F020E940F
:104E900080ED42E00E941B528AE00E94804ECDC508
:104EA00083E50E94B2B1082F8823A1F00E94CB4C69
:104EB00060939702709398028093990290939A025C
:104EC00011E020E030E0A9010E941BED811110E00B
:104ED0001093AE0F80E50E94B2B1182F8823C1F065
:104EE00020E030E0A90160919702709198028091D2
:104EF000990290919A020E941BED882331F00E9442
:104F000028B711E0811101C010E01093AE0F95C5D4
:104F1000011193C5EEE6FBE084918F010F5F1F4FF7
:104F2000882321F00E94804EF801F6CF8091AE0FC9
:104F3000811103C06EEC73E002C061EC73E08CE59C
:104F400096E00E94874E20E030E040E05FE3609111
:104F50009702709198028091990290919A020E9412
:104F600022E50E947FE68BE496E00E940452E7E48B
:104F7000F6E084918F010F5F1F4F882309F45DC510
:104F80000E94804EF801F5CF85E40E94B2B18823DB
:104F900021F00E94A1B71C0102C0212C312C83E416
:104FA0000E94B2B1882339F00E94A1B7ED969FAF5D
:104FB0008EAFED9706C0E5E0F0E0ED96FFAFEEAF07
:104FC000ED9785E50E94B2B1882341F00E9428B791
:104FD000F1E0E296FFAFE297811103C0E2961FAEC7
:104FE000E29783E50E94B2B1882379F00E94CB4C0E
:104FF0002E966FAF2E972F967FAF2F9761968FAF1C
:10500000619763969FAF639710C02E961FAE2E9741
:105010002F961FAE2F9737FC0EC026E161962FAF5B
:10502000619733E463963FAF63972114310459F4D9
:105030001092780408C04CE861964FAF619752E433
:1050400063965FAF639710929A13109299130E9420
:105050002B802B013C01C1010196029718F407EE49
:1050600013E00EC00AEF13E0D8018D918D01882363
:1050700019F00E94804EF8CF8AE00E94804EDDC475
:10508000F80181918F01882319F00E94804EF8CF9A
:105090008AE00E94804E0E9405978FE7FFEF2F164F
:1050A0003F0619F480934D0F02C080934E0F81E0AC
:1050B0008093A002E7964CAE5DAE6EAE7FAEE797F2
:1050C000C358DF4F488259826A827B82CD57D040D5
:1050D0006F961FAE6F9720E4A3962FAFA3973CE186
:1050E000A5963FAFA59746E4A9964FAFA997AB9673
:1050F0001FAEAB97AF961FAEAF97E0961FAEE0978F
:10510000E1961FAEE1976E961CAE1DAE1EAE1FAEB1
:105110006E976A961CAE1DAE1EAE1FAE6A97C12C6E
:10512000D12C76018FE790E0A0E0B0E029968CAF1B
:105130009DAFAEAFBFAF2997EFE78E2E912CA12C7C
:10514000B12CEB961CAE1DAE1EAE1FAEEB9791E0E0
:10515000E3969FAFE39766961FAE1EAE66971FAEAF
:1051600022961FAE229700E010E08091A0028823D3
:1051700009F45FC20E942B802D966CAF7DAF8EAF7D
:105180009FAF2D9780914C0F882309F40CC10E948A
:10519000C997AFEF2A163A0669F4B091CC0FBFAFAA
:1051A000E091CD0F2296EFAF22970091CE0F109194
:1051B000CF0F0CC0F0911D10FFAF20911E10229652
:1051C0002FAF229700911F10109120102FAD229623
:1051D0003FAD2297A801AB966FADAB97AF967FAD71
:1051E000AF97E0968FADE097E1969FADE1970E9473
:1051F0006AE7181684F03FADAB963FAFAB972296A7
:105200004FAD2297AF964FAFAF97E0960FAFE097B5
:10521000E1961FAFE1972FAD22963FAD2297A801EF
:105220006F966FAD6F97A3967FADA397A5968FAD41
:10523000A597A9969FADA9970E941BED87FD10C069
:105240005FAD6F965FAF6F9722968FAD2297A39653
:105250008FAFA397A5960FAFA597A9961FAFA99754
:10526000E3969FADE3972E962FAD2E972F963FADE9
:105270002F9761964FAD619763965FAD63976FAD62
:1052800022967FAD2297802F992309F46FC0912F2A
:105290000E946AE718160CF086C02D962CAD3DAD25
:1052A0004EAD5FAD2D972419350946095709CD57E5
:1052B000DF4F288339834A835B83C358D040DA01A8
:1052C000C90188589341A109B109B7FD6CC0D50146
:1052D000C40129962CAD3DAD4EAD5FAD2997821B23
:1052E000930BA40BB50BB595A795979587953FEFB5
:1052F0002316330619F480934D0F02C080934E0F8E
:10530000CD57DF4F88819981AA81BB81C358D04096
:10531000EB968CAF9DAFAEAFBFAFEB972E969FAD28
:105320002E97AB969FAFAB972F96AFAD2F97AF96BB
:10533000AFAFAF976196BFAD6197E096BFAFE09713
:105340006396EFAD6397E196EFAFE1972D962CADA5
:105350003DAD4EAD5FAD2D97E7962CAF3DAF4EAF57
:105360005FAFE797E3961FAEE3971DC0912F0E94B2
:105370001BED87FF18C02D968CAD9DADAEADBFADBA
:105380002D97E7962CAD3DAD4EAD5FADE797821BF7
:10539000930BA40BB50BAC01BD01485853416109F7
:1053A000710977FFA7C320E030E040EA51E42E9670
:1053B0006FAD2E972F967FAD2F9761968FAD61972A
:1053C00063969FAD63970E9422E59B01AC016FAD90
:1053D00022967FAD2297C8010E946AE718166CF4E6
:1053E000ECE2F7E084918F010F5F1F4F882309F4EF
:1053F00024C30E94804EF801F5CF80E398EFAFEF11
:10540000BFEFC358DF4F288139814A815B81CD5777
:10541000D040821B930BA40BB50B2D962CAD3DAD4C
:105420004EAD5FAD2D97820F931FA41FB51FB7FD23
:1054300013C00E94DEB88AE00E94804E2D968CAD8B
:105440009DADAEADBFAD2D97C358DF4F8883998317
:10545000AA83BB83CD57D0402D968CAD9DADAEAD0C
:10546000BFAD2D97880F991FAA1FBB1FE7962CADC4
:105470003DAD4EAD5FADE797821B930BA40BB50B13
:1054800084199509A609B70981389F44A241B1053D
:1054900068F0EEE0F7E084918F010F5F1F4F8823E3
:1054A00009F4CBC20E94804EF801F5CF66964EAD4E
:1054B0005FAD6697ED968EAD9FADED97841795071E
:1054C0000CF0B4C0E1EBF6E084918F010F5F1F4F49
:1054D000882321F00E94804EF801F6CF9FEF291615
:1054E000390619F003E614E002C002ED13E0B8013A
:1054F0008FE996E00E94874EB701A6018BE996E0FE
:105500000E94A7528AE00E94804EB80189E896E086
:105510000E94874E6A964CAD5DAD6EAD7FAD6A97C9
:1055200085E896E00E94A7528AE00E94804EB8016A
:1055300083E796E00E94874E6E964CAD5DAD6EADF2
:105540007FAD6E978FE696E00E94A7528AE00E9498
:10555000804EE296AFADE297AA2309F46EC22320F3
:10556000209489F5C0925002D0925102E0925202EA
:10557000F09253022CE933E549E45EE36A966CADA0
:105580007DAD8EAD9FAD6A970E9480ED609316024F
:105590007093170280931802909319022CE933E557
:1055A00049E45EE36E966CAD7DAD8EAD9FAD6E97BA
:1055B0000E940EE660934C0270934D0280934E025F
:1055C00090934F0230C0C0922502D0922602E09202
:1055D0002702F09228022CE933E549E45EE36A965B
:1055E0006CAD7DAD8EAD9FAD6A970E9480ED6093EE
:1055F0001A0270931B0280931C0290931D022CE9E7
:1056000033E549E45EE36E966CAD7DAD8EAD9FAD46
:105610006E970E940EE66093290270932A0280938F
:105620002B0290932C020E94E69D07C20E94B18536
:105630009CCD8091A002811100C20E940597FDC1FE
:105640000E946F53FAC180E00E94D2AFF6C1239648
:105650004EAD5FAD23974259534127965FAF4EAF92
:1056600027972396AEADBFAD23978D912396BFAFFD
:10567000AEAF2397882309F4B4C0F801E25CFD4F74
:105680002081318142815381F801EA5CF04F6081D1
:105690007181828193810E9422E520E030E040E028
:1056A0005FE30E9480ED9B01AC01F101608171819B
:1056B000828193810E946AE7181634F4C8018D54E0
:1056C000984E0E9451B003C060E070E0CB01D10160
:1056D000CD90DD90ED90FC902196EEADFFAD219741
:1056E00080809180A280B380A50194010E9422E570
:1056F000F801E658FC4E20813181428153810E949D
:1057000022E59B01AC01C701B6010E9421E52B01F6
:105710003C0120E030E040EA51EC0E946AE71816B4
:105720008CF520E030E040EA51E4C301B2010E9470
:105730001BED87FF27C0A3019201C501B4010E94A0
:1057400021E52B013C01A50194010E9421E59B016B
:10575000AC01C701B6010E9422E5D1016D937D9392
:105760008D939C9313972196EEADFFAD21974082C8
:1057700051826282738227968EAD9FAD27970E94D9
:1057800067B12FC0E3E5FBE084918F010F5F1F4FEE
:10579000882321F00E94804EF801F6CFEEEBF7E06F
:1057A00084918F010F5F1F4F882321F00E94804E4C
:1057B000F801F6CF61E080EB97E00E948B850E94B4
:1057C000E1C188E290E09A83898388EC90E099A314
:1057D00088A3BE016F5F7F4FCE0180960E9475CC7B
:1057E0002CC1F4E02F0E311C0C5F1F4F21962EAD03
:1057F0003FAD21972C5F3F4F21963FAF2EAF2197B2
:105800000C30110509F023CF0E94734D0E9412B88D
:1058100060E080EA97E00E948B8583E992E099A39B
:1058200088A308EC10E01A830983BE01605E7F4FF5
:10583000CE0101960E9475CC8AEB92E099A388A3D1
:105840001A830983BE01605E7F4FCE0101960E94DC
:1058500075CCF3C00E94C366F0C00E94B368EDC06F
:1058600083E50E94B2B1982F882329F00E9428B7BF
:1058700091E0811190E0892F0E94D4C3DEC0849111
:105880008F010F5F1F4F882321F00E94804EF80187
:10589000F6CFEFEEF7E084918F010F5F1F4F882363
:1058A00011F40C9410200E94804EF801F4CFE7EE22
:1058B000F7E084918F010F5F1F4F882321F00E9432
:1058C000804EF801F6CF6CEE7FEF8FEF9FEF0E94D6
:1058D0002E4F80E20E94804EEFEDF7E084918F0121
:1058E0000F5F1F4F882321F00E94804EF801F6CFF2
:1058F00064E170E080E090E00E942E4F0C94412023
:105900004091F20E5091F30E6091F40E7091F50EED
:105910008CED97E00E94A7520C9441200E946F5397
:105920008BE40E94B2B1882399F00E94CB4C6B01AA
:105930007C0120E030E0A9010E946AE787FD08C0F1
:10594000C701B6010E947FE67093090260930802C6
:10595000EEE6FBE084918F010F5F1F4F882321F05B
:105960000E94804EF801F6CF609108027091090202
:1059700088EF97E00E9404528AE00E94804E5DC04A
:1059800081E080934B021092070F83E50E94B2B131
:10599000882309F441C20E9428B781114EC03CC23D
:1059A000F22E20937904EEE6FBE084918F010F5FE5
:1059B0001F4F882321F00E94804EF801F6CFE9E0C6
:1059C000F8E084918F010F5F1F4F882321F00E9420
:1059D000804EF801F6CF6F2D70E080E090E00E94DD
:1059E0002E4F8AE00E94804E28C080E027C00E948F
:1059F0006F5388E50E94B2B1882319F05F9A109224
:105A0000EE0C89E50E94B2B1882319F08A9A1092AF
:105A1000EF0C8AE50E94B2B1882351F09FB7F89449
:105A2000809108018160809308019FBF1092F00C63
:105A300085E40E94B2B18111129A81E010929A130A
:105A400010929913811130C00C948E1484918F019F
:105A50000F5F1F4F882321F00E94804EF801F6CF80
:105A6000EEE1F8E084918F010F5F1F4F882321F052
:105A70000E94804EF801F6CF0091810410918204BB
:105A8000D8018D918D01882319F00E94804EF8CFA6
:105A9000EBE1F8E084918F010F5F1F4F882321F025
:105AA0000E94804EF801F6CF0E94A3D3B8C10E9495
:105AB00077E0AB01BC0140934813509349136093C6
:105AC0004A1370934B1387E992E10E943A6DB5CF68
:105AD0000E9477E0AB01BC014093481350934913F7
