:100000000C9431110C9462110C9462110C946211D5
:100010000C9462110C9462110C9462110C94621194
:100020000C9462110C9462110C9462110C94621184
:100030000C9462110C9462110C9462110C94621174
:100040000C9462110C942F660C9462110C94621142
:100050000C9462110C9462110C94A9550C948D5956
:100060000C9462110C94DF4B0C9462110C9462118D
:100070000C9462110C9462110C9462110C94621134
:100080000C9462110C9462110C9462110C94621124
:100090000C9462110C9462110C9462110C94621114
:1000A0000C9462110C9462110C9462110C94621104
:1000B0000C9462110C9462110C9462110C946211F4
:1000C0000C9462110C9462110C9462110C946211E4
:1000D0000C9462110C9462110C9462110C946211D4
:1000E0000C946211154C1C4C304C3D4C474C614CEF
:1000F0004C4C614C514C564C614C5E4C275637561B
:10010000565666568156865689568E56915696563E
:1001100099569E56A856B557B857A757AB57B157DB
:10012000EF57BC57C057C657CA57CE57D457D857A2
:10013000DC57EF57E257E657EA57A958AE58B3587D
:10014000BD58C7584059D158D958E158EB58F558BF
:10015000FF580E591859405922592C593659A4683C
:10016000AD68BF68D068E3680169E8680169ED6857
:10017000F2680169FE6805A84CCDB2D44EB9383694
:10018000A9020C50B9918688083CA6AAAA2ABE00EA
:100190000000803F434F4D4D554E49434154494F18
:1001A0004E0044525952554E004552524F52530040
:1001B000494E464F004543484F00536C6565702ECD
:1001C0002E2E004E6F206D6F76652E005072696E78
:1001D000742074696D653A20005374616E646172B5
:1001E0006420446576696174696F6E3A20004D65DC
:1001F000616E3A20002020207369676D613A20000B
:10020000206D65616E3A20002020207A3A2000207F
:100210006F662000205A00205900205800476F695F
:100220006E6720746F3A00436C6F636B7769736518
:100230000A00436F756E7465722D00204469726503
:100240006374696F6E3A2000202020616E676C65D0
:100250003A20005374617274696E67207261646938
:1002600075733A2000506F736974696F6E696E67B9
:10027000207468652070726F62652E2E2E0A003F12
:100280004E756D626572206F66206C6567732069BC
:100290006E206D6F76656D656E74206E6F74207064
:1002A0006C61757369626C652028302D3135292E9B
:1002B0000A00590058003F53616D706C65207369E6
:1002C0007A65206E6F7420706C61757369626C65FD
:1002D0002028342D3530292E0A004D3438205A2D4F
:1002E00050726F6265205265706561746162696CFD
:1002F00069747920746573740A003F566572626F81
:100300007365204C6576656C206E6F7420706C612F
:10031000757369626C652028302D34292E0A006DB2
:100320000046696C616D656E7420757365643A2072
:100330000053746174733A20002C204C6F6E676513
:100340007374206A6F623A2000546F74616C207479
:10035000696D653A200053746174733A20002C2053
:100360004661696C65643A20002C2046696E6973A9
:100370006865643A20005072696E74733A200053C5
:10038000746174733A200048656174696E672E2E3B
:100390002E00526F626F4D422072656164792E00AB
:1003A000B501B001A901A20194016F666600444540
:1003B0004255473A004D3131332053006F6B0048AE
:1003C000656174696E6720646F6E652E003F0A0078
:1003D00020573A0048656174696E672E2E2E0052D0
:1003E0006F626F4D422072656164792E00426564D0
:1003F00020646F6E652E003F0A0020573A00426568
:10040000642048656174696E672E00526F626F4D9B
:1004100042204F66662E004649524D574152455F75
:100420004E414D453A4D61726C696E20312E312E30
:10043000302D52322E312E312E39202847697468E2
:1004400075622920534F555243455F434F44455FE2
:1004500055524C3A68747470733A2F2F67697468F8
:1004600075622E636F6D2F526F626F33442F4D6133
:10047000726C696E205232204272616E6368205045
:10048000524F544F434F4C5F56455253494F4E3A8B
:100490005232204D414348494E455F545950453AE8
:1004A000526F626F4D422045585452554445525F39
:1004B000434F554E543A3120555549443A6365648B
:1004C00065326132662D343161322D343734382D46
:1004D000396231322D6335356336326633363766ED
:1004E0006620454D455247454E43595F434F44456D
:1004F000533A4D3130382C4D3131322C4D3431306E
:100500000A007A5F6D61783A20007A5F6D696E3A11
:100510002000795F6D61783A2000785F6D696E3AEE
:1005200020005265706F7274696E6720656E647327
:10053000746F70207374617475730A004D313435B3
:1005400020533C696E6465783E206F7574206F6639
:100550002072616E67652028302D31290A005365AD
:100560007474696E672054726176656C20416363B0
:10057000656C65726174696F6E3A200053657474BE
:10058000696E6720526574726163742041636365AC
:100590006C65726174696F6E3A200053657474699A
:1005A0006E67205072696E7420416363656C65727A
:1005B0006174696F6E3A200053657474696E6720C8
:1005C0005072696E7420616E642054726176656C3D
:1005D00020416363656C65726174696F6E3A2000D7
:1005E000205A00205900580020204D61783A200000
:1005F000205A00205900580020204D696E3A2000F2
:100600004F6E20004F666600536F667420656E64FF
:1006100073746F70733A200043290A0061626C653D
:100620006420286D696E2074656D702000436F6CC6
:10063000642065787472756465732061726520004A
:100640004B64200023646566696E6520204445463E
:1006500041554C545F004B69200023646566696E08
:1006600065202044454641554C545F004B702000A6
:1006700023646566696E65202044454641554C54A7
:100680005F00504944204175746F74756E65206633
:10069000696E69736865642120507574207468659B
:1006A000206C617374204B702C204B6920616E6448
:1006B000204B6420636F6E7374616E747320667276
:1006C0006F6D2062656C6F7720696E746F20436F69
:1006D0006E66696775726174696F6E2E680A005084
:1006E0004944204175746F74756E65206661696C4C
:1006F0006564212074696D656F75740A0050494402
:10070000204175746F74756E65206661696C6564EF
:10071000212054656D706572617475726520746F07
:100720006F20686967680A00204B643A2000204BFC
:10073000693A2000204B703A20000A20436C617314
:1007400073696320504944200A002054753A200000
:10075000204B753A2000206D61783A2000206D69A9
:100760006E3A200020643A200020626961733A20CA
:10077000004F666673657473206170706C696564A0
:10078000004572723A20546F6F20666172210054E6
:100790006F6F206661722066726F6D20726566658C
:1007A00072656E636520706F696E740A003A20008E
:1007B0007A5F6D61783A20007A5F6D696E3A200049
:1007C0005A204F66667365740041637469766520CC
:1007D00045787472756465723A2000220A00556E7D
:1007E0006B6E6F776E20636F6D6D616E643A202261
:1007F00000202B000A436F727265637465642042A7
:100800006564204865696768742076732E204265A8
:100810006420546F706F6C6F67793A0A00202B0068
:100820000A4265642048656967687420546F706F78
:100830006772617068793A0A2020202B2D2D2D20B7
:100840004241434B202D2D2B0A2020207C202020AC
:1008500020202020202020207C0A204C207C2020CA
:100860002020282B29202020207C20520A204520CF
:100870007C20202020202020202020207C20490AAD
:100880002046207C20282D29204E20282B29207C22
:1008900020470A2054207C202020202020202020B7
:1008A00020207C20480A2020207C20202020282D69
:1008B00029202020207C20540A2020207C20202059
:1008C00020202020202020207C0A2020204F2D2D99
:1008D0002046524F4E54202D2D2B0A2028302C30EC
:1008E000290A004D65616E206F662073616D706C22
:1008F000656420706F696E74733A200020643A203A
:100900000020623A200045716E20636F656666695B
:100910006369656E74733A20613A20002842296148
:10092000636B00284629726F6E740028522969672C
:10093000687400284C29656674003F4E756D6265C9
:1009400072206F662070726F626564202850296F74
:10095000696E747320697320696D706C6175736959
:10096000626C65202832206D696E696D756D292E67
:100970000A0052756E6E696E6720696E2044525986
:100980002D52554E206D6F64650A00473239204163
:1009900075746F20426564204C6576656C696E677E
:1009A0000A003F2856296572626F7365204C657690
:1009B000656C20697320696D706C61757369626C18
:1009C000652028302D34292E0A00256973002569F9
:1009D0006D20256973002569682025696D202569CA
:1009E0007300256964202569682025696D202569C3
:1009F00073002569792025696420256968202569A7
:100A00006D2025697300220A00656E717565756534
:100A1000696E672022004E6F204C696E65204E750E
:100A20006D626572207769746820636865636B73B3
:100A3000756D2C204C617374204C696E653A2000F2
:100A400053544F505045442E20005072696E7465C7
:100A5000722073746F707065642064756520746FA4
:100A6000206572726F72732E2046697820746865F3
:100A7000206572726F7220616E6420757365204DFF
:100A800039393920746F20726573746172742E2045
:100A90002854656D70657261747572652069732084
:100AA00072657365742E20536574206974206166C5
:100AB0007465722072657374617274696E67290A55
:100AC000004E6F20436865636B73756D20776974A2
:100AD00068206C696E65206E756D6265722C204CA5
:100AE000617374204C696E653A2000636865636BBE
:100AF00073756D206D69736D617463682C204C6132
:100B00007374204C696E653A20004C696E65204E06
:100B1000756D626572206973206E6F74204C61730D
:100B200074204C696E65204E756D6265722B312C98
:100B3000204C617374204C696E653A20004D313150
:100B4000300020496E76616C696420657874727536
:100B500064657220000000454300004543000082A8
:100B600043000000000000000000000000205A3A8E
:100B7000200020593A200042656420583A20002085
:100B8000746F6F206C6F6E6720657874727573690F
:100B90006F6E2070726576656E7465640A002063FE
:100BA0006F6C6420657874727573696F6E207072F3
:100BB0006576656E7465640A0020706F7369746988
:100BC0006F6E206F7574206F662072616E67652E80
:100BD0000A003F50726F626520006265640A002C53
:100BE0002073797374656D2073746F707065642100
:100BF000204865617465725F49443A20003002B450
:100C000000300D8C00900E87005010820020127D65
:100C10000080147800A016730060196E00E01B6954
:100C200000001F6400B0215F0090245A0050275537
:100C300000302A5000E02C4B00602F4600903141DC
:100C40000060333C0090343700B036320030382D2D
:100C500000E0392800203B2300203C1E00103D19F5
:100C600000B03D1400303E0F00903E0A00203F00CF
:100C700000F03FD8FF4572723A204D415854454D1F
:100C80005020424544004572723A204D4158544527
:100C90004D50004D415854454D502074726967675E
:100CA00065726564004572723A204D494E54454D57
:100CB0005020424544004572723A204D494E5445F9
:100CC0004D50004D494E54454D5020747269676730
:100CD000657265640048656174696E672066616964
:100CE0006C65640048656174696E67206661696C53
:100CF00065640048656174696E67206661696C654A
:100D0000640048656174696E67206661696C65643A
:100D10000025753A2530327500253032753A253078
:100D20003275005A005900580001200001200000CF
:100D3000002100240027002A002D0030003300018C
:100D4000010000040107010A01000022002500281B
:100D5000002B002E003100340002010000050108C4
:100D6000010B01000020002300260029002C002F89
:100D7000003200000100000301060109010505051C
:100D800005070508080808020202020A0A08080402
:100D90000404040101010101010101030303030330
:100DA000030303040707070C0C0C0C0C0C0C0C02BF
:100DB00002020206060606060606060B0B0B0B0BC6
:100DC0000B0B0B01021020200808102040102040BF
:100DD00080020102010804020101020408102040FF
:100DE000808040201008040201800402018040201D
:100DF0001008040201080402010102040810204046
:100E000080010204081020408000000A0B02090C37
:100E10000D0E0807030401000000000000000000A0
:100E200000000000000000000000000000000000C2
:100E3000000000000012111000000000000000007F
:100E40000000000000000000000000000000004B57
:100E5000494C4C45442E2000202D20496E76616C73
:100E60006964206578747275646572206E756D6250
:100E7000657220210A004572726F723A002020507C
:100E80006C616E6E657242756666657242797465F4
:100E9000733A20002046726565204D656D6F72794A
:100EA0003A20004E6F7620203620323031370A004B
:100EB000436F6D70696C65643A200028726F626FD1
:100EC000290A00207C20417574686F723A20003234
:100ED0003031372D31312D30352031363A30300038
:100EE000204C61737420557064617465643A20000D
:100EF00020312E312E302D52322E312E312E390A04
:100F0000004D61726C696E0020536F667477617278
:100F1000652052657365740A0020576174636864C4
:100F20006F672052657365740A002042726F776E96
:100F3000206F75742052657365740A0020457874BB
:100F400065726E616C2052657365740A00506F772C
:100F5000657255700A0073746172740A00456E649C
:100F600073746F707320256320256320256320250B
:100F70006300205A3A0020593A0020583A00656E22
:100F80006473746F7073206869743A20002062790A
:100F9000746573290A0053657474696E677320530E
:100FA000746F726564202800454550524F4D206390
:100FB0006865636B73756D206D69736D61746368CB
:100FC0000A00206279746573290A002073746F72B5
:100FD00065642073657474696E67732072657472DA
:100FE000696576656420280048617264636F646592
:100FF000642044656661756C742053657474696E11
:101000006773204C6F616465640A0020204D383599
:1010100031205A005A2D50726F6265204F666673F8
:10102000657420286D6D293A0A0020204D32303039
:101030002044300A0020204D32303020440020442B
:10104000697361626C65640A0046696C616D656E06
:10105000742073657474696E67733A0020440020CD
:10106000490020204D3330342050002044002049D6
:101070000020204D3330312050005049442073650A
:101080007474696E67733A0A00204600204200209B
:10109000204D313435205331204800204600204275
:1010A0000020204D3134352053302048004D6174EC
:1010B000657269616C206865617475702070617219
:1010C000616D65746572733A0A00205A00205900F8
:1010D00020204D323036205800486F6D65206F66F5
:1010E0006673657420286D6D290A00204500205A1A
:1010F0000020580020420020540020204D3230357E
:10110000205300416476616E636564207661726984
:1011100061626C65733A20533D4D696E206665656A
:10112000647261746520286D6D2F73292C20543DE5
:101130004D696E2074726176656C206665656472B7
:1011400061746520286D6D2F73292C20423D6D69D7
:101150006E696D756D207365676D656E7420746959
:101160006D6520286D73292C20583D6D6178696D5F
:10117000756D205859206A65726B20286D6D2F732C
:10118000292C20205A3D6D6178696D756D205A209B
:101190006A65726B20286D6D2F73292C2020453DC8
:1011A0006D6178696D756D2045206A65726B2028C8
:1011B0006D6D2F73290A0020540020520020204D0D
:1011C000323034205000416363656C65726174692C
:1011D0006F6E733A20503D7072696E74696E672C41
:1011E00020523D7265747261637420616E64205494
:1011F0003D74726176656C0A00204500205A00201B
:10120000590020204D3230312058004D6178696DF1
:10121000756D20416363656C65726174696F6E20E2
:10122000286D6D2F7332293A0A00204500205A009C
:1012300020590020204D3230332058004D6178690C
:101240006D756D2066656564726174657320286DC7
:101250006D2F73293A0A00204500205A00205900BA
:1012600020204D393220580053746570732070650A
:101270007220756E69743A0A004B494C4C45442EF5
:10128000200024F4D43050C38E20C2A24017828B99
:101290007011127A910D816CD90AA861E108C758C2
:1012A0006607615143061E4B5D05C145A7041A41FF
:1012B0001104093D9803713931034036DB0265336F
:1012C0009102D4305402802E1D02632CEE01752A47
:1012D000C501B028A001102781018F2564012B24AE
:1012E0004B01E0223401AC211F018D200D01801F34
:1012F000FC00841EED00971DDF00B81CD200E61B29
:10130000C600201BBC00641AB200B219A8000A195A
:10131000A0006A189900D117910040178B00B516EC
:10132000840031167E00B31579003A157300C71496
:101330006F0058146A00EE136600881363002513CB
:101340005E00C7125B006C12570015125400C111E9
:10135000510070114F0021114B00D61049008D1023
:1013600047004610440002104200C00F4000800FAA
:101370003E00420F3C00060F3B00CB0E3800930EA0
:1013800037005C0E3500270E3400F30D3200C10D1E
:101390003100900D3000600D2E00320D2D00050D36
:1013A0002C00D90C2B00AE0C2900850C29005C0CFC
:1013B0002700350C27000E0C2600E80B2400C40B78
:1013C0002400A00B23007D0B23005A0B2100390BB6
:1013D0002100180B2000F80A1F00D90A1E00BB0AC2
:1013E0001E009D0A1D00800A1D00630A1C00470A9A
:1013F0001B002C0A1B00110A1A00F7091A00DD094C
:101400001900C4091900AB091900920917007B09DA
:101410001800630917004C09160036091600200948
:1014200016000A091500F5081500E0081400CC089C
:101430001400B8081400A4081400900813007D08D4
:1014400012006B08130058081200460812003408F6
:101450001100230811001208110001081100F00703
:101460001000E0071000D0071000C0071000B00700
:101470000F00A107100091070E0083070F007407EB
:101480000F0065070E0057070E0049070E003B07C7
:101490000D002E070E0020070D0013070D00060794
:1014A0000D00F9060C00ED060D00E0060C00D40658
:1014B0000C00C8060C00BC060C00B0060C00A4060C
:1014C0000B0099060C008D060B0082060B007706B8
:1014D0000B006C060B0061060A0057060B004C0659
:1014E0000A0042060A0038060A002E060A002406F0
:1014F0000A001A060A001006090007060A00FD0580
:101500000900F4050900EB050900E2050900D90509
:101510000900D0050900C7050900BE050900B50589
:101520000800AD050800A50509009C050800940504
:1015300008008C050800840508007C050800740577
:1015400008006C050700650508005D0507005605E5
:1015500008004E050700470507004005080038054C
:101560000700310507002A050700230507001C05B1
:101570000600160507000F0507000805060002050E
:101580000700FB040600F5040700EE040600E8046B
:101590000600E2040700DB040600D5040600CF04C1
:1015A0000600C9040600C3040600BD040600B70413
:1015B0000600B1040500AC040600A6040600A00461
:1015C00005009B04060095040500900406008A04AB
:1015D000050085040500800406007A0405007504F2
:1015E0000500700405006B04050066040500610435
:1015F00005005C04050057040500520405004D0475
:10160000050048040500430405003E0404003A04B4
:10161000050035040500300404002C0405002704EF
:101620000400230405001E0404001A040400160428
:101630000500110404000D0404000904050004045D
:10164000040000040400FC030400F8030400F40395
:101650000400F0030400EC030400E8030400E403C6
:101660000400E0030400DC030400D8030400D403F6
:101670000400D0030400CC030400C8030300C50326
:10168000030024F404D9201BC40C5C0E9804C40984
:101690005F0265077101F405F900FB04B30048041B
:1016A0008700C10369005803550003034500BE02CB
:1016B0003A008402310053022A0029022500040264
:1016C0002000E4011C00C8011900AF0117009801B7
:1016D0001400840113007101100061011000510118
:1016E0000E0043010D0036010B002B010B00200101
:1016F0000B00150109000C01090003010800FB00A3
:101700000800F3000800EB000700E4000600DE001C
:101710000600D8000600D2000600CC000500C70075
:101720000500C2000500BD000400B9000400B500BA
:101730000400B1000400AD000400A9000400A500ED
:101740000300A20003009F0004009B000300980018
:1017500003009500020093000300900003008D0039
:1017600002008B0003008800020086000200840053
:101770000300810002007F0002007D0002007B0068
:101780000200790002007700010076000200740078
:10179000020072000100710002006F0002006D0083
:1017A00001006C0002006A0001006900020067008D
:1017B0000100660001006500010064000200620093
:1017C000010061000100600001005F0002005D0097
:1017D00001005C0001005B0001005A00010059009B
:1017E000010058000100570001005600010055009B
:1017F000010054000100530000005300010052009A
:10180000010051000100500001004F0001004E0096
:1018100000004E0001004D0001004C0001004B0093
:1018200000004B0001004A0001004900010048008F
:10183000000048000100470001004600000046008B
:101840000100450000004500010044000100430084
:10185000000043000100420000004200010041007E
:10186000000041000100400001003F0000003F0077
:1018700001003E0000003E0001003D0000003D0070
:1018800001003C0000003C0000003C0001003B0067
:1018900000003B0001003A0000003A00010039005E
:1018A0000000390001003800000038000000380056
:1018B000010037000000370001003600000036004C
:1018C0000000360001003500000035000000350042
:1018D0000100340000003400000034000100330037
:1018E000000033000000330001003200000032002D
:1018F0000000320001003100000031000000310022
:1019000001003000000030000000300001002F0016
:1019100000002F0000002F0000002F0001002E000B
:1019200000002E0000002E0001002D0000002D0000
:1019300000002D0000002D0001002C0000002C00F4
:1019400000002C0000002C0001002B0000002B00E8
:1019500000002B0000002B0001002A0000002A00DC
:1019600000002A0000002A000100290000002900D0
:1019700000002900000029000000290001002800C3
:1019800000002800000028000000280000002800B7
:1019900001002700000027000000270000002700AA
:1019A000000027000100260000002600000026009D
:1019B0000000260000002600010025000000250090
:1019C0000000250000002500000025000000250083
:1019D0000100240000002400000024000000240076
:1019E0000000240001002300000023000000230069
:1019F000000023000000230000002300000023005B
:101A0000010022000000220000002200000022004D
:101A1000000022000000220001002100000021003F
:101A20000000210000002100000021000000210032
:101A30000000210001002000000020000000200024
:101A40000000200000002000000020000000200016
:101A50000000200001001F0000001F0000001F0008
:101A600000001F0000001F0000001F0000001F00FA
:101A700001001E0000001E0000001E0000001E00ED
:101A8000000053746F7265206D656D6F727900424E
:101A9000656400426564004E6F7A7A6C65004E6F33
:101AA0007A7A6C650046616E2073706565640046E5
:101AB000616E2073706565640054656D7065726158
:101AC000747572650053746F7265206D656D6F7209
:101AD000790042656400426564004E6F7A7A6C65F5
:101AE000004E6F7A7A6C650046616E207370656592
:101AF000640046616E2073706565640054656D70A6
:101B000065726174757265004573746570732F6DCD
:101B10006D004573746570732F6D6D005A73746535
:101B200070732F6D6D005A73746570732F6D6D0037
:101B30005973746570732F6D6D005973746570738C
:101B40002F6D6D005873746570732F6D6D00587331
:101B5000746570732F6D6D00412D74726176656CC4
:101B600000412D74726176656C00412D726574724E
:101B700061637400412D7265747261637400416D1C
:101B80006178204500416D6178204500416D6178A4
:101B9000205A00416D6178205A00416D61782059CA
:101BA00000416D6178205900416D617820580041F5
:101BB0006D61782058005654726176206D696E0010
:101BC0005654726176206D696E00566D696E0056CE
:101BD0006D696E00566D6178204500566D61782004
:101BE0004500566D6178205A00566D6178205A0084
:101BF000566D6178205900566D6178205900566DF8
:101C00006178205800566D617820580056652D6A1D
:101C100065726B0056652D6A65726B00567A2D6A87
:101C200065726B00567A2D6A65726B005678792D55
:101C30006A65726B005678792D6A65726B00416334
:101C400063656C00416363656C005A204F66667380
:101C50006574005A204F666673657400436F6E7436
:101C6000726F6C00436F6E74726F6C0050726570AF
:101C70006172650054756E6500496E666F2073630E
:101C80007265656E00466C6F7700466C6F77004634
:101C9000616E2073706565640046616E20737065C7
:101CA00065640042656400426564004E6F7A7A6C38
:101CB00065004E6F7A7A6C650053706565640053F9
:101CC00070656564004D61696E005072656865619C
:101CD0007420504C41204265640050726568656113
:101CE0007420504C410050726570617265005072F2
:101CF00065686561742041425320426564005072FA
:101D0000656865617420414253005072657061726C
:101D100065004D34323800436F6F6C646F776E002E
:101D20005072656865617420414253005072656865
:101D300065617420504C41004D3834004469736132
:101D4000626C65207374657070657273004D6F7698
:101D5000652061786973004732380A473239004795
:101D60003239004C6576656C206265640053657499
:101D700020686F6D65206F66667365747300473207
:101D800038004175746F20686F6D65004D61696E34
:101D9000004D6F76652058004D6F76652059004DD7
:101DA0006F7665205A0045787472756465720045D7
:101DB00078747275646572004D6F7665205A004DB7
:101DC0006F76652059004D6F76652058004D6F760F
:101DD000652061786973004D6F766520302E316D16
:101DE0006D004D6F766520316D6D004D6F7665200D
:101DF00031306D6D005072657061726500526573AF
:101E0000746F7265206661696C73616665004C6F02
:101E10006164206D656D6F72790053746F72652017
:101E20006D656D6F72790046696C616D656E7400E9
:101E30004D6F74696F6E0054656D70657261747575
:101E40007265004D61696E0050726568656174204D
:101E500041425320636F6E6600507265686561741D
:101E600020504C4120636F6E66005049442D440061
:101E70005049442D44005049442D49005049442DB7
:101E800049005049442D50005049442D5000200233
:101E900020466163740020022046616374002002C2
:101EA000204D6178002002204D6178002002204DF5
:101EB000696E002002204D696E004F6666004F6E0D
:101EC00020004175746F74656D700046616E2073FB
:101ED000706565640046616E2073706565640042DC
:101EE000656400426564004E6F7A7A6C65004E6FDF
:101EF0007A7A6C6500436F6E74726F6C0070012C9F
:101F00000190012701B0012201C0011D01F001185B
:101F1000011002130130020E016002090190020457
:101F200001C002FF000003FA004003F5008003F047
:101F300000D003EB002004E6007004E100E004DCC4
:101F4000004005D700C005D2004006CD00D006C82D
:101F5000008007C3003008BE00F008B900C009B413
:101F600000B00AAF00B00BAA00D00CA500000EA074
:101F700000500F9B00C01096005012910000148C6E
:101F800000C0158700B0178200B0197D00D01B7803
:101F900000001E730040206E0090226900F024644F
:101FA0000040275F0090295A00E02B5500102E506A
:101FB0000020304B0010324600E033410090353CA9
:101FC000001037370070383200A0392D00B03A28A1
:101FD00000A03B2300603C1E00103D1900903D1402
:101FE00000103E0F00703E0A00C03E0500003F009A
:101FF00000206669727374005A0059005800486FD7
:102000006D6520002066697273740A005A005900D9
:102010005800486F6D6520006563686F3A0054484A
:1020200045524D414C2052554E415741590054683C
:1020300065726D616C2052756E6177617900205A0E
:102040003A200020593A200042656420583A200086
:10205000526F626F4D422072656164792E00576144
:10206000697420666F7220757365722E2E2E0020A3
:1020700042403A0020403A00202F0020423A0020FF
:102080002F0020543A00205A3A0020593A002043A9
:102090006F756E7420583A200020453A00205A3A55
:1020A0000020593A00583A0020643A0020693A006A
:1020B00020703A0020643A0020693A0020703A000B
:1020C000526573656E643A20006F6B0062757379B8
:1020D0003A2070617573656420666F7220696E7056
:1020E00075740A00627573793A207061757365645E
:1020F00020666F7220757365720A00627573793A93
:102100002070726F63657373696E670A004B494C88
:102110004C45442E20004B494C4C45442E20005049
:102120006C65617365207265736574005052494E29
:102130005445522048414C544544005072696E74D5
:1021400065722068616C7465642E206B696C6C2804
:10215000292063616C6C6564210A000000000000A6
:10216000004543000082435761726E696E673A20F2
:10217000486F6D696E672042756D7020446976699D
:10218000736F72203C20310A000000A0400000A0C4
:10219000400000004000004543000045430000822D
:1021A00043FF01014572726F722077726974696E24
:1021B0006720746F20454550524F4D210A004669F3
:1021C0006C2E204469612E0046696C2E20446961A2
:1021D0002E004F6666004F6E20004520696E206D10
:1021E0006D3300436F6E74726F6C0020746F6F20DC
:1021F0006C6F6E6720657874727573696F6E20708E
:10220000726576656E7465640A0020636F6C642085
:10221000657874727573696F6E2070726576656E1D
:102220007465640A004E414E494E495459494E4620
:10223000CDCCCC3D0AD7233C17B7D13877CC2B3245
:102240009595E6241FB14F0A000020410000C842C6
:1022500000401C4620BCBE4CCA1B0E5AAEC59D7425
:102260005BB811241FBECFEFD1E2DEBFCDBF00E0CF
:102270000CBF14E0A0E0B2E0E8EDF3E901E00BBF31
:1022800002C007900D92A832B107D9F723E1A8E266
:10229000B4E001C01D92AE35B207E1F711E1C1E330
:1022A000D1E100E006C021970109802FFE010E94C4
:1022B00028BEC033D10780E00807A9F70E94EDB21D
:1022C0000C94EAC90C9400002F923F924F925F92B7
:1022D0006F927F928F929F92AF92BF92CF92DF9236
:1022E000EF92FF920F931F93CF93DF93CDB7DEB79B
:1022F000C556D1090FB6F894DEBF0FBECDBF2DB7BE
:102300003EB7A2963FAF2EAFA2970091950B30E655
:10231000039F80011124095C1B4F1093380A00931E
:10232000370A8091231380FF18C0E8E1F0E284911E
:102330007F014FEFE41AF40A882321F00E94BA4487
:10234000F701F5CFD8018D918D01882319F00E94F6
:10235000BA44F8CF8AE00E94BA442091370A3091FB
:10236000380AF90180812F5F3F4F8032D1F3F0931B
:10237000380AE093370A8E3469F01091370A0091D9
:10238000380A6AE270E0812F902F0E94B4C0009753
:10239000D1F420C0818190ED980F9A3010F08D32E9
:1023A00061F73296DF0131962C9120532A30D0F319
:1023B000CD01FC01019620812032D9F3F093380A37
:1023C000E093370ADACFFC0131968291803231F006
:1023D0008A3221F0A12FB02F4D9102C01082F5CF8B
:1023E000FD01808111968032D9F380538A3020F02C
:1023F000E8E1F0E20C94942920E030E05AE0529FAA
:10240000C001539F900D11249C01205331098191EB
:10241000280F311D87FD3A95808180538A3078F3EB
:10242000CF013196DC015C915032D1F390933604A8
:102430008093350461E070E07093BE126093BD122A
:102440004D3409F42AC2443511F40C9461294734FF
:1024500011F00C9486292D31310509F468C198F4E6
:102460002430310541F148F42230310510F00C944C
:102470008B290E94F7440C948B292C31310509F4E7
:1024800058C00C948B292A35310509F454C148F4FD
:102490002E31310511F00C948B290E942D950C944E
:1024A0008B292B35310509F44AC12C35310509F446
:1024B0004BC10C948B2980E50E948442882329F02B
:1024C0000E94E0426B017C0103C0C12CD12C76013B
:1024D00083E50E948442882321F00E9414436B010B
:1024E0007C010E94DE650E9477448091BF1290912A
:1024F000C012A091C112B091C212C80ED91EEA1E1C
:10250000FB1E80917802811105C060E08AEB91E0AA
:102510000E94A48F0E948159DC01CB018C199D0976
:10252000AE09BF09B7FD02C00C948B290E94FD972C
:10253000F1CF0E94DE650E94EEAF0E949B4481E0D5
:1025400080934B0288E50E948442A82E89E50E9470
:102550008442B82E8AE50E948442A11005C0B110C1
:1025600005C091E0982705C0B11002C090E001C0FD
:10257000982F9093000220E1E1ECF1E1A7ECB2E1A9
:1025800001900D922A95E1F7911102C0882321F064
:1025900082E090E00E94A29680910002811106C024
:1025A000AA2009F4A4C0BB2009F4A1C01092C5114F
:1025B0001092C6111092C7111092C8111092C11139
:1025C0001092C2111092C3111092C4110E941D43A7
:1025D000E1EAF1E2149185E991E20E9433422B0194
:1025E0003C0189E991E20E9433426B017C019B012D
:1025F000AC01C301B2010E94F1BF18162CF4A30173
:102600009201C701B60104C0A7019601C301B2013E
:102610000E94BABE9B01AC010E94E6C520E030E0FA
:1026200040E85FE30E9438BE0E9433C020E030E003
:1026300048E452E40E94E6C56A8F7B8F8C8F9D8FA1
:10264000E2EAF1E2049120E030E040EC5FE3C70110
:10265000B6010E94E6C56B017C01602F000F770B6D
:10266000880B990B0E9487C59B01AC01C701B6017D
:102670000E94E6C569837A838B839C8320E030E0E7
:1026800040EC5FE3C301B2010E94E6C56B017C012F
:10269000612F110F770B880B990B0E9487C59B0147
:1026A000AC01C701B6010E94E6C56E8B7F8B888F97
:1026B000998F9E01265E3F4F49EC51E1BE016F5F4D
:1026C0007F4FCE0146960E94FB4010923F1310921E
:1026D000C5111092C6111092C7111092C811109214
:1026E000C1111092C2111092C3111092C4118091A5
:1026F0000002811102C0AA2021F080E090E00E9437
:10270000A29680910002811102C0BB2021F081E0DD
:1027100090E00E94A2960E941D4380914C028093FB
:102720004B020E9482440E942C930C948B290E949D
:102730007A2C0C948B29109234040C948B2981E010
:10274000809334040C948C2985E40E948442B82E32
:10275000811102C00E94DE6535ED832E32E0932E9A
:1027600041ECC42E41E1D42E50E4E52E53E1F52E88
:1027700000E010E0A12CF40181914F010E948442FD
:102780008823E1F1D6012D913D914D915C91A39665
:102790002FAFA397A4963FAFA497A5964FAFA59749
:1027A000A6965FAFA6970E94EB42F6016083718305
:1027B00082839383A3962FADA397A4963FADA4974E
:1027C000A5964FADA597A6965FADA69703301105C8
:1027D000A9F00E9437BE9B01AC01D7016D917D919C
:1027E0008D919C910E9438BEF70160837183828332
:1027F0009383C8010E943942AA24A3940F5F1F4FFC
:10280000F4E0CF0ED11C24E0E20EF11C04301105DF
:1028100009F0B1CFAA2021F00E941D430C948B290E
:10282000BB2011F40C948B292091DD113091DE1125
:102830004091DF115091E0116091CD117091CE1156
:102840008091CF119091D0110E94E6C50E94F5BFF2
:1028500060934A1270934B1280934C1290934D12D6
:102860008FB7F89440914A1250914B1260914C12DC
:1028700070914D124093BD115093BE116093BF11E2
:102880007093C0118FBF10923A1210923B121092A7
:102890003C1210923D120C948B292837310511F40B
:1028A0000C94A12008F0BBC02435310511F40C9420
:1028B000D01F08F05CC02033310509F430C2E8F4C1
:1028C0002131310509F474C148F42230310510F08A
:1028D0000C948B290E9499940C948B292F313105EB
:1028E00009F478C12A32310509F4D7C12231310502
:1028F00011F00C948B290C94D01F2E34310509F45F
:10290000B8C678F42C34310509F495C608F0ADC684
:102910002B34310511F00C948B290E9419B00C94C2
:102920008B292235310511F40C94C71F10F00C943B
:10293000CB1F2135310511F00C948B290E94945046
:102940000E94DE650E94AA9710929F1110929E111C
:1029500068EE73E080E090E00E94495960E08BE00F
:1029600094E00E94A48F0E94CA8F0C948B292D366C
:10297000310509F4F3C770F52836310509F48DC621
:10298000D8F42535310511F40C94FF1F2C35310591
:1029900011F00C948B2965ED862E62E0962E01EDE8
:1029A00011E17FE5A72E71E1B72EA2EABBE0BF8F50
:1029B000AE8F312C0C9412202A36310511F40C9470
:1029C000B11F08F4AEC72B36310511F40C94B51FB6
:1029D0000C948B292237310511F40C949D2060F45E
:1029E0002F36310509F4BBC608F49DC621373105E1
:1029F00009F452C70C948B292537310511F40C9436
:102A000098202737310511F40C94AE202337310577
:102A100011F00C948B29E7E1F4E00C948C202C321B
:102A200041E0340711F40C94792408F05CC02B3C8D
:102A3000310511F40C944B2210F52139310511F4B4
:102A40000C94322158F42937310511F40C94A82044
:102A50002C38310509F44CC70C948B29283C3105DE
:102A600011F40C94E121293C310511F40C942A2233
:102A70002E3B310511F00C948B290C94571E233DED
:102A8000310511F40C946723E8F42D3C310511F461
:102A90000C94D22210F40C9468222E3C310511F0D3
:102AA0000C948B2915EDA12E12E0B12E01ECC02E55
:102AB00001E1D02E8CE4E82E83E1F82E00E010E056
:102AC0000C942E232D3D310511F40C941024223E3C
:102AD000310511F40C9429242C3D310511F00C948E
:102AE0008B290C940324223981E0380711F40C94CB
:102AF000F32730F52F32A1E03A0711F40C94162594
:102B000068F42D32E1E03E0711F40C949F242E323C
:102B1000314011F40C94A2240C948B29203941E00B
:102B2000340711F40C94EC2710F00C94EF272033A9
:102B3000314011F00C948B290E94D7910C948B2971
:102B4000263F91E0390711F40C94EE28F0F4243F6D
:102B5000B1E03B0711F40C94E82810F00C94EB283A
:102B60002C3A314011F00C948B2981EC282E81E114
:102B7000382EECE4F3E1FF8FEE8F2EEA31E139A33A
:102B800028A300E010E00C94F727233543E0340736
:102B900011F40C940029273E53E0350711F40C94EE
:102BA0005129273F314011F00C948B290C94F128C6
:102BB00060E083EC91E00E94A48F5F988A989FB7B1
:102BC000F894809108018E7F809308019FBF12982E
:102BD0000C948B298EE692E10E9493656E8B7F8B1D
:102BE000888F998FBE016F5F7F4FCE0146960E94FE
:102BF000B74360E0CE0101960E94B98FE8E1F0E2B0
:102C000084918F010F5F1F4F882321F00E94BA44E7
:102C1000F801F6CFECECF1E084918F010F5F1F4FCC
:102C2000811104C08E010F5F1F4F04C00E94BA447F
:102C3000F801F2CFD8018D918D01882319F00E94FF
:102C4000BA44F8CF8AE00E94BA4480919D1188234B
:102C500011F40C948B2910929D116091E8117091E0
:102C6000E911072E000C880B990B0E9487C5209153
:102C700074023091750240917602509177020E9461
:102C8000F1BF181614F00C948B291092E9111092D0
:102C9000E8110E9484850C948B2983E50E9484426C
:102CA000882311F40C948B290E94D3427C018F3F1E
:102CB000910519F010F00C948B2980E50E94844254
:102CC000882339F00E94D3428C0197FF04C00C94F2
:102CD0008B290DE010E0E9EDF2E081919191081768
:102CE000190711F40C948B2923E0E932F207A9F7B4
:102CF00061E0802F0E9446586E2D802F0E94175849
:102D0000B701802F0E9482580730110511F00C94F2
:102D10008B29F0929F11E0929E110C948B294DB754
:102D20005EB75AAB49AB0E94F48981117BC486E53A
:102D30000E948442882349F00E949742382E54E032
:102D4000581788F4EAEFF2E003C0332433940DC03F
:102D500084918F010F5F1F4F882309F463C40E9481
:102D6000BA44F801F5CF882361F0EAEDF2E08491EE
:102D70008F010F5F1F4F882321F00E94BA44F80192
:102D8000F6CF80E50E948442882321F00E9497427A
:102D9000182F01C01AE08CEF810F8F3268F0E6EB3C
:102DA000F2E084918F010F5F1F4F882309F43AC42A
:102DB0000E94BA44F801F5CF8091C1119091C211DF
:102DC000A091C311B091C4118A8F9B8FAC8FBD8F1E
:102DD0008091C5119091C611A091C711B091C811F1
:102DE0008E8B9F8BA88FB98F85E40E9484428BAB1A
:102DF00088E50E948442882319F00E94EB4209C0B2
:102E000020E030E0A9016A8D7B8D8C8D9D8D0E9424
:102E100038BE68A379A38AA39BA380904C1390909B
:102E20004D13A0904E13B0904F13C0904013D0900C
:102E30004113E0904213F090431320E030E0A901E9
:102E4000C501B4010E9438BEA70196010E9438BE98
:102E50009B01AC0168A179A18AA19BA10E9481C5B7
:102E600087FD16C020E030E045E453E4C501B4011D
:102E70000E9438BEA70196010E9438BE9B01AC019A
:102E800068A179A18AA19BA10E94F1BF18161CF428
:102E900084EB92E054C089E50E948442882319F0B3
:102EA0000E94EB420AC020E030E040EF51E46E891E
:102EB0007F89888D998D0E9438BE6CA37DA38EA3D7
:102EC0009FA38090501390905113A0905213B090F4
:102ED0005313C0904413D0904513E0904613F090E4
:102EE000471320E030E040EF51E4C501B4010E94F7
:102EF00038BEA70196010E9438BE9B01AC016CA1AF
:102F00007DA18EA19FA10E9481C587FD16C020E0F2
:102F100030E045E453E4C501B4010E9438BEA70186
:102F200096010E9438BE9B01AC016CA17DA18EA1CF
:102F30009FA10E94F1BF18162CF482EB92E00E9430
:102F4000C14470C38CE40E948442082F8823C1F0DE
:102F50000E9497428E8F803168F0EFE7F2E0849113
:102F60008F010F5F1F4F882309F45CC30E94BA448E
:102F7000F801F5CF8E8D813021F492E09E8F01C053
:102F80001E8E83E50E9484428DAB882321F00111BF
:102F900002C0A7E0AE8FB2E0B3156CF4E5E6F2E054
:102FA00084917F012FEFE21AF20A882321F00E9418
:102FB000BA44F701F5CF0E94EEAF0E949B44432D27
:102FC000032C000C550B5AAF49AF7A010BA92CA169
:102FD0003DA14EA15FA168A179A18AA19BA10E94F8
:102FE000B74A0E948159611571058105910511F05B
:102FF0000E9432C1812F012E000C990B23969FAFA6
:103000008EAF2397ADB7BEB7E4E01E02A019B10999
:1030100011240FB6F894BEBF0FBEADBF2DB73EB79B
:103020002F5F3F4F38AB2FA7212C812C912C5401BF
:10303000750164013E8D832F90E0AC014150510930
:1030400029965FAF4EAF2997812F110F990BAA0BCD
:10305000BB0B2D968CAF9DAFAEAFBFAF2D97A22D02
:10306000B0E0BEA7ADA72396EEADFFAD2397AE1798
:10307000BF070CF098C29E8D911120C0E9ACFAAC4C
:103080000BA92CA13DA14EA15FA168A179A18AA1A4
:103090009BA10E94B74AEDA5FEA5EE0FFF1FEE0F04
:1030A000FF1FAFA5B8A9EA0FFB1F6083718382835E
:1030B0009383812C912C540110E0BCC10E942FC13C
:1030C0002AE030E040E050E00E94AFC90E9487C58E
:1030D00020E030E040EA50E40E94F1BF18161CF0F6
:1030E00001E010E002C00FEF1FEF0E942FC128E6A1
:1030F00031E040E050E00E94AFC90E9487C52B013B
:103100003C010E942FC123E130E040E050E00E94EA
:10311000AFC96B5F7F4F8F4F9F4F0E9487C568A7D6
:1031200079A78AA79BA7B4E03B1661F01CA698017B
:10313000110F440B550B21962CAF3DAF4EAF5FAF37
:1031400021976CC048A559A56AA57BA583E592E0A7
:103150000E94C44BB301A20188E492E00E94C44BD8
:10316000EBE3F2E084917F013FEFE31AF30A882357
:1031700021F00E94BA44F701F5CF0130110519F092
:10318000E7E2F2E00DC0E2E3F2E084917F014FEF6D
:10319000E41AF40A8823A1F30E94BA44F701F5CF98
:1031A00084917F015FEFE51AF50A882309F4BECF09
:1031B0000E94BA44F701F4CF4A8D5B8D6C8D7D8DF2
:1031C0008AE192E00E94C44B4E895F89688D798DB7
:1031D00087E192E00E94C44B4091C9115091CA11FD
:1031E0006091CB117091CC1184E192E00E94C44BAC
:1031F0008AE00E94BA4419821A821B821C829E01B4
:103200002F5F3F4F49EC51E1BE016A5E7F4FCE0117
:103210004A960E94FB40ACA5AF5FACA7BCA58B2F24
:1032200090E02996EEADFFAD29978E179F070CF021
:1032300025CF8DA9882389F021966CAD7DAD8EAD0B
:103240009FAD21970E9487C59B01AC010E9438BEAB
:1032500020E030E040E952E420C00E942FC14B0141
:103260005C0121966CAD7DAD8EAD9FAD21970E9426
:1032700087C56B017C01C501B40124E130E040E069
:1032800050E00E94AFC9675E7F4F8F4F9F4F0E94F3
:1032900087C59B01AC01C701B6010E94E6C59B0131
:1032A000AC01C301B2010E9438BE2B013C0120E0F9
:1032B00030E044EB53E40E94F1BF18164CF420E0D8
:1032C00030E044EB53E4C301B2010E9437BEEDCFBE
:1032D00020E030E0A901C301B2010E9481C587FF4F
:1032E0000BC020E030E044EB53E4C301B2010E9484
:1032F00038BE2B013C01ECCF2BED3FE049E450E41C
:10330000C301B2010E94E6C520E030E044E353E48B
:103310000E94BABE4B015C010E94B7BE28A539A528
:103320004AA55BA50E94E6C59B01AC0168A179A1F5
:103330008AA19BA10E9438BE6B017C01C501B4012A
:103340000E9428C027966CAF7DAF8EAF9FAF2797A6
:1033500020E030E040EF51E46CA17DA18EA19FA15F
:103360000E9437BE4B015C0128A539A54AA55BA583
:1033700027966CAD7DAD8EAD9FAD27970E94E6C5BB
:103380009B01AC01C501B4010E9438BE4B015C0138
:1033900020E030E0A901C701B6010E9481C587FD88
:1033A00011C020E030E045E453E4C701B6010E94BB
:1033B000F1BF181654F4C12CD12C85E4E82E83E417
:1033C000F82E03C0C12CD12C7601CA8EDB8EEC8E78
:1033D000FD8E20E030E0A901C501B4010E9481C545
:1033E00087FD11C020E030E045E453E4C501B4019D
:1033F0000E94F1BF181654F4812C912C05E4A02EE4
:1034000003E4B02E03C0812C912C54018E8A9F8A34
:10341000A88EB98E94E03912EECEEDE1F2E08491FF
:103420008F010F5F1F4F882309F4C6CE0E94BA4454
:10343000F801F5CFEFA5F8A924E0129FE00DF11DEA
:1034400011242081318142815381C501B4010E9440
:1034500038BE4B015C011F5F211660F7CDA4DEA4CE
:103460003FEFC31AD30A2601DD0C66087708C301B3
:10347000B2010E9487C568A779A78AA79BA79B016D
:10348000AC01C501B4010E94BABE6B017C01812C64
:10349000912C540110E0EFA5F8A944E0149FE00D31
:1034A000F11D1124A70196016081718182819381B0
:1034B0000E9437BE9B01AC010E94E6C59B01AC0196
:1034C000C501B4010E9438BE4B015C011F5F21168B
:1034D00010F728A539A54AA55BA50E94BABE0E948F
:1034E00033C04B015C01332009F45BC051E0351659
:1034F00009F454C0C301B2010E944848EFE0F2E071
:1035000084918F010F5F1F4F882321F00E94BA44DE
:10351000F801F6CF2D966CAD7DAD8EAD9FAD2D979C
:103520000E944848E8E0F2E084918F010F5F1F4F4E
:10353000882321F00E94BA44F801F6CF6091C911A6
:103540007091CA118091CB119091CC1146E00E94EC
:103550002B4A82E0381611F1E0E0F2E084918F010D
:103560000F5F1F4F882321F00E94BA44F801F6CF65
:1035700046E0C701B6010E942B4AE5EFF1E08491D5
:103580008F010F5F1F4F882321F00E94BA44F8017A
:10359000F6CF46E0C501B4010E942B4A8AE00E94A2
:1035A000BA4423945CCD80E00E94ED4181113AC081
:1035B0003320A1F0EEEEF1E084918F010F5F1F4FF9
:1035C000882321F00E94BA44F801F6CF46E0C701F3
:1035D000B6010E942B4A8AE00E94BA44E9EDF1E06C
:1035E00084918F010F5F1F4F882321F00E94BA44FE
:1035F000F801F6CF46E0C501B4010E942B4A8AE0EB
:103600000E94BA448AE00E94BA440E9482440E9406
:103610002C9329A93AA90FB6F8943EBF0FBE2DBF2F
:103620000C948B2949A95AA90FB6F8945EBF0FBE16
:103630004DBF0C948B2980916E1290916F1201975F
:1036400011F00C948B2982E090E090936F1280939C
:103650006E120E9481596093781270937912809350
:103660007A1290937B120C948B290E94D4850C942F
:103670008B2983E50E948442882311F40C94C52988
:103680000E94D3428E34910511F00C94C5298EE628
:1036900092E10E94A26D0C948B2988E690E00E9432
:1036A000F34981110C948B298091231383FF02C06D
:1036B0000C948B2983E50E948442882311F40C9496
:1036C0008B290E94EB420E942BBF7093E9116093FB
:1036D000E8110E9484850E94EB4220E030E04AEA33
:1036E00052E40E9481C518163CF00E94D48560E027
:1036F00082E993E00E94A48F0E94EB422091EA119C
:103700003091EB114091EC115091ED110E94F1BFFD
:10371000181614F00C948B2960E087E893E00E945F
:10372000A48F0C948B298EE40E948442882311F488
:103730000C948B2980912804909129044AE050E050
:1037400060E070E001960E94A2C260932A04709328
:103750002B0480932C0490932D040C948B2983E5E7
:103760000E948442882319F00E94974201C080E0A1
:1037700080932313E8E1F0E284918F010F5F1F4FE4
:10378000882321F00E94BA44F801F6CFEEEAF3E074
:1037900084918F010F5F1F4F882321F00E94BA444C
:1037A000F801F6CF809123138823A1F110EAC12EEE
:1037B00013E0D12EE12CF12C20E08091231390E036
:1037C0000E2C02C0959587950A94E2F780FF17C0EA
:1037D000BB24B394B20E222319F08CE20E94BA44A7
:1037E000F60125913491F901849189010F5F1F4FF2
:1037F000882321F00E94BA449801F5CF2B2DFFEFCA
:10380000EF1AFF0A32E0C30ED11C45E0E416F104C2
:10381000A1F63DC0EAEAF3E084918F010F5F1F4FEC
:103820008823A9F10E94BA44F801F6CF80E20E94F1
:10383000BA448AE50E948442882311F40C944329F7
:103840000E94EB426B017C0120E030E040EA51EC49
:103850000E94F1BF87FF02C00C941A2920E030E0DB
:1038600040EA51E4C701B6010E9481C5181614F45C
:103870000C941A29C0927F11D0928011E09281118C
:10388000F092821142E0C701B6010E942B4A8AE001
:103890000E94BA440C948B2983E50E9484428823B9
:1038A00069F00E9497428093B7028D3310F40C9414
:1038B0008B298CE38093B7020C948B29E8E1F0E22A
:1038C00084918F010F5F1F4F882321F00E94BA441B
:1038D000F801F6CF4091B70250E060E070E085EB70
:1038E00093E00E942D488AE00E94BA440C948B29F0
:1038F0008091231383FF02C00C948B2983E50E94DF
:103900008442882311F40C948B290E94EB420E947C
:103910002BBF7093A1116093A0110E9444500C948E
:103920008B2989E690E00E94F349811111C0ECEBEC
:10393000F3E084918F010F5F1F4F882321F00E94D5
:10394000BA44F801F6CF0E9411948AE00E94BA446A
:103950001092BE121092BD120C94572C8DE690E07E
:103960000E94F34981110C948B298091231383FFCA
:1039700002C00C948B2983E50E9484428CA38111A0
:1039800005C082E50E9484428823C1F10E94EB4277
:103990000E942BBF7093E9116093E8110E94848507
:1039A0000E94EB4220E030E04AEA52E40E9481C5E6
:1039B000181614F40C94C22A0E94D48560E08FED8E
:1039C00093E00E94A48F6091E8117091E911072E95
:1039D000000C880B990B0E9487C52091EA11309149
:1039E000EB114091EC115091ED110E94F1BF1816AE
:1039F0002CF460E084ED93E00E94A48F86E40E94A2
:103A0000844280939D11882351F00E94EB42609381
:103A10006C0270936D0280936E0290936F0283E547
:103A20000E948442882351F00E94EB42609374020A
:103A300070937502809376029093770282E40E94DD
:103A40008442882351F00E94EB426093700270938D
:103A50007102809372029093730281E080934D0211
:103A60001092BE121092BD1218A219A21AA21BA285
:103A700018A619A61AA61BA61E8E1CA65CE35DA797
:103A80008CE18FA796E499ABC12CD12CA0E8EA2E4B
:103A9000BFEBFB2E812C912C54016091E8117091A9
:103AA000E911072E000C880B990B0E9487C5162F71
:103AB000072F782E692E262F372F482F592FB60122
:103AC000C7010E9481C58823F1F02091EA1130914D
:103AD000EB114091EC115091ED11612F702F872D5A
:103AE000962D0E9481C5881F8827881F8E8FACA1C4
:103AF000AA2369F0882359F060E08FEB93E00E94DD
:103B0000A48F0C948B291C2D0D2D7E2C6F2C0E94C4
:103B100081596B017C01DC01CB0128A539A54AA59F
:103B20005BA5821B930BA40BB50BB7FD45C0D7015A
:103B3000C60188519C4FAF4FBF4F88A799A7AAA72E
:103B4000BBA70E941194E0EDF3E084912F019FEF59
:103B5000491A590A882321F00E94BA44F201F5CF8C
:103B600081149104A104B104D1F0D501C401805F96
:103B7000984DAF4FBF4FBC01CD016C197D098E0927
:103B80009F0928EE33E040E050E00E948DC9CA0151
:103B9000B9010E9448488AE00E94BA440DC0EDEC89
:103BA000F3E084912F01AFEF4A1A5A0A882321F0DB
:103BB0000E94BA44F201F5CF0E94FD970E9477441B
:103BC0002090EA113090EB114090EC115090ED11E3
:103BD0009101A201612F702F872D962D0E9437BE73
:103BE0009F7781149104A104B10449F420E030E0EE
:103BF00040E85FE30E9481C587FF0BC008C020E05A
:103C000030E040E450E40E94F1BF181614F446017D
:103C10005701BE8DBB2379F128A139A14AA15BA12F
:103C2000211531054105510541F0D701C601821B1F
:103C3000930BA40BB50BB7FD1EC09101A2016CA59F
:103C40007DA58FA599A90E9437BE20E030E040EC09
:103C50005FE30E9481C587FD4FCFD701C601805A1F
:103C60009541AF4FBF4F88A399A3AAA3BBA32CA68E
:103C70003DA64FA659AA80914D02882309F43CCF56
:103C800081149104A104B10429F4C12ED02EE72C93
:103C9000F62C03CF90E1C91A97E2D90AE108F1089E
:103CA000C818D908EA08FB08F7FE26CFEECF8091A6
:103CB000231383FF02C00C948B2960E08EEF93E006
:103CC0000E94A48F83E50E9484428CA3811105C0C9
:103CD00082E50E9484428823B1F00E94EB420E9458
:103CE0002BBF7093A1116093A0110E9444500E94B9
:103CF000EB4220E030E040EA50E40E94F1BF1816A9
:103D000014F40E9419B081E080934D021092BE120B
:103D10001092BD1280912F0480932E0418A219A234
:103D20001AA21BA218A619A61AA61BA61E8E1CA6AE
:103D3000ACE3ADA7BCE1BFA7E6E4E9ABC12CD12C55
:103D4000E0E8EE2EFFEBFF2E812C912C54016091C8
:103D5000A0117091A111072E000C880B990B0E94E5
:103D600087C5162F072F782E692E262F372F482F1D
:103D7000592FB601C7010E9481C58823F1F0209117
:103D8000A60A3091A70A4091A80A5091A90A612F6A
:103D9000702F872D962D0E9481C5881F8827881F28
:103DA0008E8FFCA1FF2369F0882359F060E08DEE2F
:103DB00093E00E94A48F0C948B291C2D0D2D7E2C3A
:103DC0006F2C0E9481596B017C01DC01CB0128A57D
:103DD00039A54AA55BA5821B930BA40BB50BB7FDB8
:103DE00045C0D701C60188519C4FAF4FBF4F88A730
:103DF00099A7AAA7BBA70E941194EAEFF3E08491C8
:103E00002F019FEF491A590A882321F00E94BA44D2
:103E1000F201F5CF81149104A104B104D1F0D501D0
:103E2000C401805F984DAF4FBF4FBC01CD016C19ED
:103E30007D098E099F0928EE33E040E050E00E94A2
:103E40008DC9CA01B9010E9448488AE00E94BA445B
:103E50000DC0E7EFF3E084912F01AFEF4A1A5A0A41
:103E6000882321F00E94BA44F201F5CF0E94FD9709
:103E70000E9477442090A60A3090A70A4090A80A92
:103E80005090A90A9101A201612F702F872D962DC4
:103E90000E9437BE9F7781149104A104B10449F4B4
:103EA00020E030E040E85FE30E9481C587FF0BC05F
:103EB00008C020E030E040E450E40E94F1BF181652
:103EC00014F446015701BE8DBB2379F128A139A115
:103ED0004AA15BA1211531054105510541F0D701EA
:103EE000C601821B930BA40BB50BB7FD1EC091013D
:103EF000A2016CA57DA58FA599A90E9437BE20E0DF
:103F000030E040EC5FE30E9481C587FD4FCFD701D1
:103F1000C601805A9541AF4FBF4F88A399A3AAA36A
:103F2000BBA32CA63DA64FA659AA80914D0288237B
:103F300009F43CCF81149104A104B10429F4C12EE9
:103F4000D02EE72CF62C03CF90E1C91A97E2D90ABC
:103F5000E108F108C818D908EA08FB08F7FE26CFDF
:103F6000EECF0E94EB930C948B2980E50E94844253
:103F7000811106C010929F1110929E110C948B29F2
:103F80000E94C642892B11F00C948B29F3CF10921A
:103F900033040C948B2981E0809333040C948C2996
:103FA00083E50E948442882361F00E941443609359
:103FB000B8027093B9028093BA029093BB020C943A
:103FC0008B2988E50E94844281110C94C62A89E5D8
:103FD0000E94844281110C94C62A8AE50E94844280
:103FE00081110C94C62A85E40E94844281110C94AC
:103FF000C62A0E94DE650E94AA970C948B2983E54D
:104000000E948442882311F40C948B290E9414434B
:104010006093C3127093C4128093C5129093C6121A
:104020000C948B29F40181914F010E9484428823D2
:1040300009F460C0F3E03F1255C00E94EB422B012F
:104040003C0120E030E040EA51E40E9481C587FF56
:1040500043C0A3019201D8016D917D918D919C91F6
:104060000E94BABE6B017C019B01AC0160916F1193
:104070007091701180917111909172110E94E6C53A
:1040800060936F11709370118093711190937211FE
:10409000A7019601F50160817181828193810E945F
:1040A000E6C5D5016D937D938D939C931397EE8D0B
:1040B000FF8D60817181828193810E9485C5A701F6
:1040C00096010E94E6C50E9431BFAE8DBF8D6D93F3
:1040D0007D938D939C931397F80140825182628265
:1040E000738208C00E94EB42D8016D937D938D933B
:1040F0009C93139733940C5F1F4FB4E0AB0EB11C2D
:10410000EE8DFF8D3496FF8FEE8FF4E03F128ACF55
:104110000E946E6E0C948B2984918F010F5F1F4F4C
:10412000882311F40C948B290E94BA44F801F4CF2F
:1041300060E00E94B98F0C948B290E942C930C9400
:104140008B2981E080934B0280934C020C948C2944
:1041500010924B0210924C020C948B29E2E2F5E093
:1041600084918F010F5F1F4F882321F00E94BA4472
:10417000F801F6CFEAE1F5E084918F010F5F1F4F60
:10418000882321F00E94BA44F801F6CF659903C054
:1041900001E913E002C006E913E0D8018D918D0119
:1041A000882319F00E94BA44F8CF8AE00E94BA44EA
:1041B000E2E1F5E084918F010F5F1F4F882321F02A
:1041C0000E94BA44F801F6CF8091030181FD03C03B
:1041D00001E913E002C006E913E0F80181918F01C3
:1041E000882319F00E94BA44F8CF8AE00E94BA44AA
:1041F000EAE0F5E084918F010F5F1F4F882321F0E3
:104200000E94BA44F801F6CF4A9903C001E913E0CD
:1042100002C006E913E0D8018D918D01882319F0C1
:104220000E94BA44F8CF8AE00E94BA44E2E0F5E086
:1042300084918F010F5F1F4F882321F00E94BA44A1
:10424000F801F6CF4B9903C001E913E002C006E97B
:1042500013E0F80181918F01882309F418CB0E94A3
:10426000BA44F7CF83E50E948442882309F10E9473
:10427000D3428230D0F0E6E7FEE084918F010F5FF9
:104280001F4F882321F00E94BA44F801F6CFECE3D7
:10429000F5E084918F010F5F1F4F882311F40C9478
:1042A0008B290E94BA44F801F4CF813009F445C04B
:1042B00088E40E948442882391F00E94D3428A3A83
:1042C00091053CF08E31F1E09F072CF08DE191E0FB
:1042D00002C08AEA90E0909336118093351186E40B
:1042E0000E948442882381F00E94D3428F3F91052F
:1042F00019F014F08FEF90E097FF02C080E090E09B
:10430000909338118093371182E40E94844288236D
:1043100011F40C948B290E94D3428530910534F01E
:10432000803691052CF08FE590E002C085E090E0AA
:104330009093341180933311EEC788E40E94844235
:10434000882391F00E94D3428A3A91053CF08E3145
:1043500021E092072CF08DE191E002C08AEA90E022
:1043600090933C1180933B1186E40E948442882301
:1043700081F00E94D3428F3F910519F014F08FEF26
:1043800090E097FF02C080E090E090933E11809310
:104390003D1182E40E948442882309F4BCC70E9434
:1043A000D3428530910534F0803691052CF08FE5AD
:1043B00090E002C085E090E090933A11809339112B
:1043C000AAC788EC90E00E94F3498111A4C784E455
:1043D0000E948442882309F49EC70E94EB4211E0A8
:1043E00020E030E0A9010E9481C5811101C010E0E8
:1043F00010931B13112359F100912E0410E00E9419
:10440000EB42000F111F000F111FF801E454FD4F84
:10441000608371838283938320E030E0A9016091FF
:10442000BC027091BD028091BE029091BF020E94B9
:1044300081C581110CC080E090E0A0EEBFE38093C5
:10444000BC029093BD02A093BE02B093BF020E9433
:10445000CB9561C737E4E32E31E1F32E05ED12E091
:1044600044E0D42ED00ED8018D918D010E9484425B
:10447000882349F00E94EB420E9431BFF70160831C
:10448000718382839383F4E0EF0EF11CD012EBCFA3
:104490000E94266E40C79FE5E92E91E1F92E05EDB9
:1044A00012E024E0D22ED00ED8018D918D010E9411
:1044B0008442882339F00E94EB42F70160837183C4
:1044C00082839383F4E0EF0EF11CD012EDCF23C76B
:1044D00083E50E9484428823D9F00E94EB42AB011D
:1044E000BC0140937B1150937C1160937D117093BC
:1044F0007E1140933F11509340116093411170938E
:10450000421188EB95E00E94C44B8AE00E94BA44B5
:1045100080E50E948442882399F00E94EB42AB011F
:10452000BC0140937B1150937C1160937D1170937B
:104530007E118BE995E00E94C44B8AE00E94BA4448
:1045400082E50E948442882399F00E94EB42AB01ED
:10455000BC014093431150934411609345117093F3
:1045600046118CE795E00E94C44B8AE00E94BA4451
:1045700084E50E948442882309F4CDC60E94EB4260
:10458000AB01BC0140933F11509340116093411126
:10459000709342118EE595E00E94C44B8AE00E9420
:1045A000BA44B9C683E50E948442882351F00E9430
:1045B000EB4260935B1170935C1180935D1190935B
:1045C0005E1184E50E948442882351F00E94EB42F0
:1045D00060935711709358118093591190935A1109
:1045E00082E40E948442882351F00E94E04260935A
:1045F0001F1370932013809321139093221388E547
:104600000E948442882351F00E94EB42609377110C
:10461000709378118093791190937A118AE50E94B2
:104620008442882351F00E94EB426093731170938F
:104630007411809375119093761185E40E948442E1
:10464000882309F468C60E94EB4260936F1170934F
:10465000701180937111909372115DC6D5018D9187
:104660005D010E948442882311F10E94EB422B01DC
:104670003C01F70120813181428153810E9437BE84
:104680009B01AC01D6016D917D918D919C910E9411
:1046900038BEF6016083718382839383D7014D9284
:1046A0005D926D927C921397C8010E9439420F5F10
:1046B0001F4FB4E0CB0ED11CE4E0EE0EF11C033032
:1046C000110561F60E941D430E942C9324C6E8E167
:1046D000F0E284918F010F5F1F4F882321F00E9429
:1046E000BA44F801F6CF83E50E948442882341F062
:1046F0000E94974291E0811101C090E09093630283
:10470000E8E0F6E084918F010F5F1F4F882321F0CE
:104710000E94BA44F801F6CF80916302811103C070
:10472000E4E0F6E002C0E0E0F6E084918F010F5F84
:104730001F4F882321F00E94BA44F801F6CFE8EF1A
:10474000F5E084918F010F5F1F4F882321F00E94B5
:10475000BA44F801F6CF40918811509189116091C7
:104760008A1170918B1186EF95E00E94C44B4091A5
:104770008C1150918D1160918E1170918F1183EF7A
:1047800095E00E94C44B409190115091911160911D
:1047900092117091931180EF95E00E94C44BE8EE66
:1047A000F5E084918F010F5F1F4F882321F00E9455
:1047B000BA44F801F6CF40915702509158026091E7
:1047C000590270915A0286EE95E00E94C44B4091C6
:1047D0005B0250915C0260915D0270915E0283EE1B
:1047E00095E00E94C44B40915F025091600260913D
:1047F00061027091620280EE95E00E94C44B8AE0F3
:104800000E94BA4488C583E50E948442882309F443
:1048100082C50E94D34290935602809355027BC575
:104820008DED90E00E94F349811175C583E50E94EA
:104830008442882309F46FC500912E0410E00E9481
:10484000D342000F111FF801ED5AFD4F9183808371
:1048500062C580E50E948442882309F45CC50E94F9
:10486000D3428C0183E50E948442882321F00E9478
:10487000D3427C0103C0EE24EA94FE2CC7010196CA
:10488000039708F048C5E9EDF2E081919191801716
:10489000910709F440C523E0E932F207B1F717FDAB
:1048A0003AC50E94DE65D02E60E0802F0E944658F7
:1048B0003FEFE316F30631F0EA94EF2871F401E0DC
:1048C00010E00DC0802F0E94C4B231E020E0892B9F
:1048D00009F030E0032F122F02C000E010E08D2D10
:1048E0000E94C4B28017910709F415C50E94FD9774
:1048F000F6CF83E50E948442882319F00E94C642C5
:1049000002C084E091E09F8B8E8B80E50E94844200
:10491000882349F00E94C642893853E1950728F060
:1049200088E893E102C088EE93E09A838983BE0110
:104930006A5E7F4FCE0101960E94C888ECC40E9437
:104940007292E9C483E50E948442082F8823A1F073
:104950000E94EB426093C0027093C1028093C20236
:104960009093C30211E020E030E0A9010E9481C5CC
:10497000811110E010931E1380E50E948442182FCD
:104980008823C1F020E030E0A9016091C00270915D
:10499000C1028091C2029091C3020E9481C5882306
:1049A00031F00E94974211E0811101C010E0109394
:1049B0001E13B1C40111AFC4E8E1F0E284918F018C
:1049C0000F5F1F4F882321F00E94BA44F801F6CFF1
:1049D00080911E13811103C060EA73E002C063E995
:1049E00073E08DE296E00E9455B220E030E040E0B6
:1049F0005FE36091C0027091C1028091C202909108
:104A0000C3020E9438BE0E942BBF8CE196E00E9438
:104A1000DC49E8E1F6E084918F010F5F1F4F8823A6
:104A200009F479C40E94BA44F801F5CF85E40E94E4
:104A30008442882321F00E94D3421C0102C0212C11
:104A4000312C83E40E948442882319F00E94D342CF
:104A500002C085E090E06C969FAF8EAF6C9785E5C5
:104A60000E948442882341F00E94974291E061961F
:104A70009FAF6197811103C061961FAE619783E577
:104A80000E948442882339F00E94EB426CA77DA7E4
:104A90008FA799AB08C01CA61DA637FC0AC0A6E1CB
:104AA000AFA7B3E4B9AB2114310439F410922E044A
:104AB00004C0ECE8EFA7F2E4F9AB1092BE1210923A
:104AC000BD120E9481592B013C01C1010196029740
:104AD00018F408EA13E00EC00BEB13E0D8018D9137
:104AE0008D01882319F00E94BA44F8CF8AE00E9411
:104AF000BA4411C4F80181918F01882319F00E94F2
:104B0000BA44F8CF8AE00E94BA440E9494508FE7DA
:104B1000FFEF2F163F0619F48093A40A02C080937A
:104B2000A50A81E080934D0266964CAE5DAE6EAEF6
:104B30007FAE6697A0964CAE5DAE6EAE7FAEA09790
:104B40001DAE20E422962FAF22973CE124963FAF82
:104B5000249746E428964FAF28972A961FAE2A97A7
:104B60002E961FAE2E972F961FAE2F9760961FAED4
:104B7000609719AE1AAE1BAE1CAE1DAA1EAA1FAAC4
:104B800018AEC12CD12C7601FFE78F2E912CA12CD1
:104B9000B12C8FE790E0A0E0B0E088A799A7AAA782
:104BA000BBA76A961CAE1DAE1EAE1FAE6A9791E003
:104BB00062969FAF62971CAA1BAA1E8E18A200E0E5
:104BC00010E080914D02882309F4FFC10E948159B1
:104BD0006CA37DA38EA39FA38091E111882309F488
:104BE000D0C00E945851AFEF2A163A0659F4B0913E
:104BF000A60ABE8FE091A70AE8A30091A80A109127
:104C0000A90A0AC0F091EA11FE8F2091EB1128A3A6
:104C10000091EC111091ED112E8D38A1A8012A966A
:104C20006FAD2A972E967FAD2E972F968FAD2F972B
:104C300060969FAD60970E94F1BF181674F03E8D8C
:104C40002A963FAF2A9748A12E964FAF2E972F96C0
:104C50000FAF2F9760961FAF60972E8D38A1A801D8
:104C60006DAD22967FAD229724968FAD249728961E
:104C70009FAD28970E9481C587FD0CC05E8D5DAFFA
:104C800088A122968FAF229724960FAF249728965B
:104C90001FAF289762969FAD62972CA53DA54FA5A3
:104CA00059A96E8D78A1802F992309F44FC0912FB7
:104CB0000E94F1BF18160CF064C04CA15DA16EA15A
:104CC0007FA14419550966097709DB01CA01885893
:104CD0009341A109B109B7FD54C088A599A5AAA51A
:104CE000BBA588199909AA09BB09B595A7959795F8
:104CF0008795EFEF2E163E0619F48093A40A02C0A2
:104D00008093A50A6A964CAF5DAF6EAF7FAF6A978E
:104D1000FCA52A96FFAF2A972DA52E962FAF2E978A
:104D20003FA52F963FAF2F9749A960964FAF609749
:104D30008CA19DA1AEA1BFA166968CAF9DAFAEAF79
:104D4000BFAF669762961FAE62971BC0912F0E94FD
:104D500081C587FF16C08CA19DA1AEA1BFA166969B
:104D60002CAD3DAD4EAD5FAD6697821B930BA40B92
:104D7000B50BAC01BD01485853416109710977FF7A
:104D80002EC420E030E040EA51E46CA57DA58FA55B
:104D900099A90E9438BE9B01AC016E8D78A1C80113
:104DA0000E94F1BF18166CF4EDEFF6E084918F01CC
:104DB0000F5F1F4F882309F4AEC20E94BA44F80166
:104DC000F5CF80E398EFAFEFBFEFA0962CAD3DADF0
:104DD0004EAD5FADA097821B930BA40BB50B2CA11E
:104DE0003DA14EA15FA1820F931FA41FB51FB7FD68
:104DF0000FC00E9411948AE00E94BA448CA19DA128
:104E0000AEA1BFA1A0968CAF9DAFAEAFBFAFA09734
:104E10008CA19DA1AEA1BFA1880F991FAA1FBB1F86
:104E200066962CAD3DAD4EAD5FAD6697821B930B84
:104E3000A40BB50B84199509A609B70981389F44BD
:104E4000A241B10568F0EFEDF6E084918F010F5FAC
:104E50001F4F882309F45FC20E94BA44F801F5CFBE
:104E60004BA95CA96C968EAD9FAD6C978417950786
:104E70000CF0A8C0E2E8F6E084918F010F5F1F4FAD
:104E8000882321F00E94BA44F801F6CF9FEF29163B
:104E9000390619F006E114E002C004EA13E0B80193
:104EA00080E796E00E9455B2B701A6018CE696E035
:104EB0000E94C44B8AE00E94BA44B8018AE596E099
:104EC0000E9455B24DA95EA96FA978AD86E596E01E
:104ED0000E94C44B8AE00E94BA44B80184E496E080
:104EE0000E9455B249AD5AAD6BAD7CAD80E496E001
:104EF0000E94C44B8AE00E94BA446196AFAD6197AC
:104F0000AA2309F408C22320209469F5C092110253
:104F1000D0921202E0921302F09214022CE933E5CF
:104F200049E45EE36DA97EA98FA998AD0E94E6C50C
:104F3000609343027093440280934502909346022B
:104F40002CE933E549E45EE369AD7AAD8BAD9CAD08
:104F50000E94BABE60930D0270930E0280930F02FE
:104F6000909310022CC0C0926402D0926502E0922D
:104F70006602F09267022CE933E549E45EE36DA92D
:104F80007EA98FA998AD0E94E6C5609347027093F1
:104F900048028093490290934A022CE933E549E4A0
:104FA0005EE369AD7AAD8BAD9CAD0E94BABE6093F5
:104FB00068027093690280936A0290936B020E9468
:104FC0006665A9C10E94CA8FFCCD80914D028111F6
:104FD000A2C10E9494509FC10E94DE659CC181E0E5
:104FE0000E94ED4198C180E00E94ED4194C148A12A
:104FF00059A14E5A51415DA34CA3A8A1B9A18D91CD
:10500000B9A3A8A3882309F4AEC0F801E95AFD4F5B
:105010002081318142815381F801E857FE4E608141
:105020007181828193810E9438BE20E030E040E0AF
:105030005FE30E94E6C59B01AC01F10160817181D3
:10504000828193810E94F1BF181634F4C801855AF9
:105050009E4D0E94334203C060E070E0CB01D1015D
:10506000CD90DD90ED90FC90EE8DFF8D8080918055
:10507000A280B380A50194010E9438BEF801E05CD3
:10508000FC4E20813181428153810E9438BE9B01B8
:10509000AC01C701B6010E9437BE2B013C0120E0E4
:1050A00030E040EA51EC0E94F1BF18166CF520E0A8
:1050B00030E040EA51E4C301B2010E9481C587FF9C
:1050C00023C0A3019201C501B4010E9437BE2B0188
:1050D0003C01A50194010E9437BE9B01AC01C701B0
:1050E000B6010E9438BED1016D937D938D939C9340
:1050F0001397EE8DFF8D40825182628273828CA164
:105100009DA10E9439422FC0E6E7FEE084918F0105
:105110000F5F1F4F882321F00E94BA44F801F6CF99
:10512000EFE8F7E084918F010F5F1F4F882321F094
:105130000E94BA44F801F6CF61E081E897E00E944E
:10514000A48F0E94B14C88E290E09A83898388EC16
:1051500090E09F8B8E8BBE016F5F7F4FCE01469696
:105160000E94C888D8C0F4E02F0E311C0C5F1F4F7E
:105170002E8D3F8D2C5F3F4F3F8F2E8F0C301105B2
:1051800009F035CF0E941D430E942C9360E081E717
:1051900097E00E94A48F83E992E09F8B8E8B08ECAE
:1051A00010E01A830983BE016A5E7F4FCE0101962B
:1051B0000E94C8888AEB92E09F8B8E8B1A830983AA
:1051C000BE016A5E7F4FCE0101960E94C888A3C0CF
:1051D0000E943C63A0C00E9427619DC00E949E5F08
:1051E0009AC083E50E948442982F882329F00E9468
:1051F000974291E0811190E0892F0E94D85B8BC08B
:10520000E8E1F0E284918F010F5F1F4F882321F0C6
:105210000E94BA44F801F6CFE0ECF7E084918F01E8
:105220000F5F1F4F882311F40C94161C0E94BA4480
:10523000F801F4CFE8EBF7E084918F010F5F1F4F87
:10524000882321F00E94BA44F801F6CF6CEE7FEF7C
:105250008FEF9FEF0E94484880E20E94BA44E0EB43
:10526000F7E084918F010F5F1F4F882321F00E9488
:10527000BA44F801F6CF64E170E080E090E00E946B
:1052800048480C94471C40917F11509180116091C7
:105290008111709182118DEA97E00E94C44B0C94A9
:1052A000471C81E0809309021092A91283E50E94B5
:1052B0008442882309F4F8C20E94974281112BC0CE
:1052C000F3C2F22E20932F04E8E1F0E284918F01E3
:1052D0000F5F1F4F882321F00E94BA44F801F6CFD8
:1052E000E9ECF7E084918F010F5F1F4F882321F0D5
:1052F0000E94BA44F801F6CF6F2D70E080E090E094
:105300000E9448488AE00E94BA4405C080E004C078
:105310008AE00E94BA4481E01092BE121092BD123F
:10532000811130C00C94F81184918F010F5F1F4FD1
:10533000882321F00E94BA44F801F6CFEEEDF7E0A1
:1053400084918F010F5F1F4F882321F00E94BA4480
:10535000F801F6CF0091370A1091380AD8018D91E3
:105360008D01882319F00E94BA44F8CFEBEDF7E0E5
:1053700084918F010F5F1F4F882321F00E94BA4450
:10538000F801F6CF0E94BC9B92C21E8A1F8A188E1B
:10539000198EEFE7F3E084918F010F5F1F4F882391
:1053A00021F00E94BA44F801F6CFE6E7F3E08491D9
:1053B0008F010F5F1F4F882321F00E94BA44F8012C
:1053C000F6CF60917C1270917D1280E090E04AE00F
:1053D0000E94C747E9E6F3E084918F010F5F1F4FFA
:1053E000882321F00E94BA44F801F6CF60917E1222
:1053F00070917F1280E090E04AE00E94C747EEE59E
:10540000F3E084918F010F5F1F4F882321F00E94EA
:10541000BA44F801F6CF60917C1270917D128091B0
:105420007E1290917F12681B790B80916E12909181
:105430006F12019721E030E0029710F020E030E099
:10544000621B730B80E090E04AE00E94C7478AE04D
:105450000E94BA44E6E5F3E084918F010F5F1F4F8D
:10546000882321F00E94BA44F801F6CF809180127F
:1054700090918112A0918212B09183128E8B9F8B9A
:10548000A88FB98FBE016F5F7F4FCE0146960E94F5
:10549000B743E9E4F3E084918F010F5F1F4F81115F
:1054A00005C0CE0101967C018C0104C00E94BA4463
:1054B000F801F1CFD8018D918D01882319F00E9458
:1054C000BA44F8CF8091841290918512A0918612EF
:1054D000B09187128E8B9F8BA88FB98FBE016F5FA3
:1054E0007F4FCE0146960E94B743E9E3F3E08491F3
:1054F0008F010F5F1F4F882321F00E94BA44F801EB
:10550000F6CFF70181917F01882319F00E94BA44F8
:10551000F8CF8AE00E94BA44E1E3F3E084918F017E
:105520000F5F1F4F882321F00E94BA44F801F6CF85
:10553000E1E2F3E084918F010F5F1F4F882321F098
:105540000E94BA44F801F6CF20E030E04AE754E484
:10555000609188127091891280918A1290918B12B9
:105560000E94BABE42E00E942B4AEFE1F3E0849130
:105570008F010F5F1F4F882309F4CACE0E94BA44DF
:10558000F801F5CF0E9419B00C94E31C0E94DE656F
:1055900088E50E948442882319F05F9A1092650B77
:1055A00089E50E948442882319F08A9A1092660B3A
:1055B0008AE50E948442882351F09FB7F894809135
:1055C00008018160809308019FBF1092670B85E4FA
:1055D0000E948442882309F49ECE129A9CCE4BA945
:1055E0005CA9141615060CF02DC16A964CAC5DAC86
:1055F0006EAC7FAC6A97480E591E6A1E7B1E6A9677
:105600002CAD3DAD4EAD5FAD6A97281B390B4A0BF3
:105610005B0BCA01B901A50194010E947EC9A301D7
:1056200092010E94AFC988A499A4AAA4BBA4820E27
:10563000931EA41EB51E34E183169104A104B10487
:105640000CF14CEE84169104A104B1043CF450E832
:1056500085169104A104B1041CF105C05BEE852EF2
:10566000912CA12CB12C88A699A6AAA6BBA68EEF38
:1056700090E0A0E0B0E088199909AA09BB094C01A3
:105680005D0112C024E130E040E050E028A739A7D6
:105690004AA75BA744E1842E912CA12CB12C04C015
:1056A00088A699A6AAA6BBA648A559A56AA57BA5C2
:1056B00089E697E00E947DB2B501A40184E697E0F7
:1056C0000E947DB24DAD22965FAD229724966FADBC
:1056D000249728967FAD28978DE597E00E94C44BCC
:1056E0002A964FAD2A972E965FAD2E972F966FADC7
:1056F0002F9760967FAD609786E597E00E94C44B38
:105700004BA95CA9433051050CF49CC0C501B40100
:105710000E9487C520E030E040E850E40E94E6C5E2
:105720006B017C012DAD22963FAD229724964FADA3
:10573000249728965FAD28972A966FAD2A972E96C4
:105740007FAD2E972F968FAD2F9760969FAD609768
:105750000E9437BE2BED3FE049E450E40E94E6C5CD
:1057600020E030E040E05FE30E94E6C59B01AC0131
:10577000C701B6010E94BABE6B017C01C301B20130
:105780000E9487C52FE632E143E85AE30E94E6C54E
:105790002B013C01B701A60180E597E00E94C44BB4
:1057A000B301A2018AE497E00E94C44B2AE939E9D7
:1057B00049E15FE3C701B6010E94E6C56B017C01C8
:1057C0009B01AC010E9438BEA30192010E94BABEA7
:1057D0006DAB7EAB8FAB98AFA3019201C701B60151
:1057E0000E94E6C520E030E040E05EE30E94E6C5AE
:1057F00069AF7AAF8BAF9CAFEAE3F7E084913F01EA
:105800005FEF651A750A882321F00E94BA44F301FC
:10581000F5CFB701A60184E397E00E94C44B4DA9E0
:105820005EA96FA978AD8EE297E00E94C44B49ADA6
:105830005AAD6BAD7CAD88E297E00E94C44B8AE024
:105840000E94BA4488A599A5AAA5BBA5880D991D53
:10585000AA1DBB1DB595A79597958795EFEF2E16B9
:105860003E0619F48093A40A02C08093A50A2BA9CE
:105870003CA92F5F3F4F3CAB2BAB3CA53DAF4DA5AB
:1058800022964FAF22975FA524965FAF249789A9F0
:1058900028968FAF28974CA05DA06EA07FA091E0C6
:1058A00062969FAF62976DCA0E94DB9B34CDA29631
:1058B000EEADFFADA2970FB6F894FEBF0FBEEDBFE1
:1058C000CB59DF4F0FB6F894DEBF0FBECDBFDF91CF
:1058D000CF911F910F91FF90EF90DF90CF90BF90ED
:1058E000AF909F908F907F906F905F904F903F9080
:1058F0002F9008952F923F924F925F926F927F92D6
:105900008F929F92AF92BF92CF92DF92EF92FF92CF
:105910000F931F93CF93DF93CDB7DEB7C45AD1094E
:105920000FB6F894DEBF0FBECDBF0DB71EB7C6577A
:10593000DF4F19830883CA58D0400E94F48981112F
:105940000C94D43F86E50E948442882339F00E945B
:10595000D342A9969FAF8EAFA99706C021E030E051
:10596000A9963FAF2EAFA997A9964EAD5FADA99767
:105970004530510570F0E2EAF9E084918F010F5F44
:105980001F4F882311F40C94D43F0E94BA44F801AD
:10599000F4CF84E40E948442E4968FAFE49785E4D8
:1059A0000E948442A6968FAFA697A9968EAD9FAD12
:1059B000A99703977CF484E50E948442CE56DF4F7A
:1059C0008883C259D040A996AEADBFADA997AB2B85
:1059D00021F106C0B1E0CE56DF4FB883C259D040A6
:1059E000EBE8F9E084918F010F5F1F4F882321F0CE
:1059F0000E94BA44F801F6CFE496EFADE497EE23A7
:105A000061F0E2E7F9E084918F010F5F1F4F882377
:105A100021F00E94BA44F801F6CF80E50E9484424A
:105A20008823B1F00E94D34267969FAF8EAF6797ED
:105A30000297A4F4EAE3F9E084918F010F5F1F4F0E
:105A4000882311F40C94D43F0E94BA44F801F4CF97
:105A500003E010E067961FAF0EAF679783E50E94E3
:105A60008442882349F00E94EB4220E030E040E786
:105A700052E40E94BABE04C060E070E088EC92E498
:105A800060930102709302028093030290930402D8
:105A90008CE40E948442882319F00E94EB4218C0D3
:105AA00020E030E040E251E460914C1370914D13DE
:105AB00080914E1390914F130E9438BE2091401355
:105AC0003091411340914213509143130E9438BECC
:105AD0000E942BBF7EAF6DAF82E50E948442882377
