:100000000C9471120C94A2120C94A2120C94A212D1
:100010000C94A2120C94A2120C94A2120C94A21290
:100020000C94A2120C94A2120C94A2120C94A21280
:100030000C94A2120C94A2120C94A2120C94A21270
:100040000C94A2120C94D2460C94A2120C94A212FC
:100050000C94A2120C94A2120C9422690C941A66AD
:100060000C94A2120C9476900C94A2120C94A212EE
:100070000C94A2120C94A2120C94A2120C94A21230
:100080000C94A2120C94A2120C94A2120C94A21220
:100090000C94A2120C94A2120C94A2120C946466FA
:1000A0000C94A2120C94A2120C94A2120C94A21200
:1000B0000C94A2120C94A2120C94A2120C94A212F0
:1000C0000C94A2120C94A2120C94A2120C94A212E0
:1000D0000C94A2120C94A2120C94A2120C94A212D0
:1000E0000C94A21269646C645B645F646564A364CD
:1000F000706474647A647E64826488648C649064DE
:10010000A36496649A649E6436653B6540654A655F
:100110005465CD655E6566656E65786582658C65DE
:100120009B65A565CD65AF65B965C365A990B090C0
:10013000C490D190DB90F690E090F690E590EA9034
:10014000F690F290084AD73B3BCE016E84BCBFFDCF
:10015000C12F3D6C74319ABD56833DDA3D00C77F97
:1001600011BED9E4BB4C3E916BAAAABE0000008030
:100170003F05A84CCDB2D44EB93836A9020C50B9BF
:10018000918688083CA6AAAA2ABE000000803F00EB
:100190004E414E494E495459494E46CDCCCC3D0A6C
:1001A000D7233C17B7D13877CC2B329595E6241F4F
:1001B000B14F0A000020410000C84200401C462008
:1001C000BCBE4CCA1B0E5AAEC59D744C4556454C20
:1001D000494E4700434F4D4D554E49434154494FB9
:1001E0004E0044525952554E004552524F52530000
:1001F000494E464F004543484F0020746F6F206CB6
:100200006F6E6720657874727573696F6E20707297
:100210006576656E7465640A0020636F6C642065A2
:100220007874727573696F6E2070726576656E741E
:1002300065640A0047322F47332062616420706191
:1002400072616D65746572730A0047322F473320FF
:1002500062616420706172616D65746572730A0019
:10026000205A3A200020593A200042656420583A2A
:1002700020002569730025696D20256973002569B3
:10028000682025696D20256973002569642025692A
:10029000682025696D202569730025697920256905
:1002A00064202569682025696D20256973005072D6
:1002B000696E742074696D653A2000F501F001E9FA
:1002C00001E201D401CB016F666600444542554707
:1002D0003A004361703A454D455247454E43595F98
:1002E0005041525345523A310A004361703A4341FA
:1002F00053455F4C494748545F4252494748544E22
:100300004553533A310A004361703A544F47474CC2
:10031000455F4C49474854533A310A004361703AAB
:10032000534F4654574152455F504F5745523A300C
:100330000A004361703A4C4556454C494E475F446C
:100340004154413A310A004361703A5A5F50524F6A
:1003500042453A310A004361703A4155544F4C4589
:1003600056454C3A310A004361703A5052494E5456
:100370005F4A4F423A310A004361703A50524F4748
:10038000524553533A300A004361703A4155544F35
:100390005245504F52545F54454D503A310A004334
:1003A00061703A454550524F4D3A310A0046495224
:1003B0004D574152455F4E414D453A4D61726C6912
:1003C0006E204D61726C696E5F312E312E365F5238
:1003D0006F626F56657273696F6E5F312E322E33A6
:1003E00020284769746875622920534F5552434548
:1003F0005F434F44455F55524C3A68747470733A8A
:100400002F2F6769746875622E636F6D2F526F624C
:100410006F33442F4D61726C696E2050524F544FB0
:10042000434F4C5F56455253494F4E3A312E302080
:100430004D414348494E455F545950453A526F62C9
:100440006F2043322045585452554445525F434F24
:10045000554E543A3120555549443A6365646532E6
:100460006132662D343161322D343734382D3962A2
:1004700031322D6335356336326633363766660A78
:10048000007A5F6D61783A20007A5F6D696E3A207C
:1004900000795F6D61783A2000785F6D696E3A206F
:1004A000005265706F7274696E6720656E64737454
:1004B0006F70207374617475730A00536574746986
:1004C0006E672054726176656C20416363656C656C
:1004D000726174696F6E3A200053657474696E6757
:1004E000205265747261637420416363656C657248
:1004F0006174696F6E3A200053657474696E672089
:100500005072696E7420416363656C6572617469D1
:100510006F6E3A200053657474696E67205072697B
:100520006E7420616E642054726176656C20416344
:1005300063656C65726174696F6E3A2000205A00C1
:10054000205900580020204D61783A2000205A00A0
:10055000205900580020204D696E3A20004F6E202F
:10056000004F666600536F667420656E6473746F27
:1005700070733A2000000136372603FF3C3D38FFF8
:100580000E2E303E1312FFFF080706FF061A1C1836
:10059000FFFF08440A0B43FFFFFFFFFFFF20643A01
:1005A0000020693A0020703A0020643A0020693A3D
:1005B0000020703A0043757272656E743A200043F1
:1005C000290A0061626C656420286D696E2074657B
:1005D0006D702000436F6C6420657874727564657B
:1005E000732061726520004B642000236465666996
:1005F0006E65202044454641554C545F004B6920B0
:100600000023646566696E65202044454641554C6B
:10061000545F004B70200023646566696E6520207E
:1006200044454641554C545F00504944204175743F
:100630006F74756E652066696E69736865642120E4
:1006400050757420746865206C617374204B702C35
:10065000204B6920616E64204B6420636F6E73745D
:10066000616E74732066726F6D2062656C6F7720A7
:10067000696E746F20436F6E666967757261746925
:100680006F6E2E680A00504944204175746F74756E
:100690006E65206661696C6564212074696D656FA3
:1006A00075740A00504944204175746F74756E6505
:1006B000206661696C6564212054656D70657261A6
:1006C0007475726520746F6F20686967680A00200E
:1006D0004B643A2000204B693A2000204B703A20AE
:1006E000000A20436C617373696320504944200AF7
:1006F000002054753A2000204B753A2000206D618F
:10070000783A2000206D696E3A200020643A20007B
:1007100020626961733A2000546F6F206661722015
:1007200066726F6D207265666572656E63652070B6
:100730006F696E740A003A20007A5F6D696E3A2024
:10074000202D3230207A5F6D61783A2020323000DF
:100750005A204F666673657420004175746F0020DF
:10076000452F443D00416476616E6365204B3D003A
:100770002028002920453A0020280029205A3A0044
:100780002028002920593A0020280020583A0053F8
:100790007465707065722063757272656E74207610
:1007A000616C75657320696E20252028416D70731A
:1007B000293A0A0043617365206C696768743A20BE
:1007C000004163746976652045787472756465725A
:1007D0003A20003C3C3C2067636F64655F540A002C
:1007E000203A2041465445520A0020206375727217
:1007F000656E745F706F736974696F6E3D00203A47
:10080000204245464F52450A0020206375727265AA
:100810006E745F706F736974696F6E3D003E3E3E2B
:100820002067636F64655F542800556E6B6E6F7749
:100830006E20636F6D6D616E643A20220020746FCC
:100840006F206C6F6E6720657874727573696F6E58
:100850002070726576656E7465640A0020636F6C43
:100860006420657874727573696F6E207072657636
:10087000656E7465640A00000020002300260029CC
:10088000002C002F003200000100000301060109C6
:100890000105050505070508080808020202020A05
:1008A0000A08080404040401010101010101010313
:1008B00003030303030303040707070C0C0C0C0CCE
:1008C0000C0C0C0202020206060606060606060BC1
:1008D0000B0B0B0B0B0B0B01021020200808102038
:1008E00040102040800201020108040201010204BC
:1008F000081020408080402010080402018004027B
:1009000001804020100804020108040201010204D1
:100910000810204080010204081020408000000AD6
:100920000B02090C0D0E0807030401000000000073
:1009300000000000000000000000000000000000B7
:100940000000000000000000001211100000000074
:100950000000000000000000000000000000000097
:100960000000004B494C4C45442E2000202D2049CE
:100970006E76616C69642065787472756465722046
:100980006E756D62657220210A002020506C616EC8
:100990006E657242756666657242797465733A2057
:1009A000002046726565204D656D6F72793A2000B2
:1009B000436F6D70696C65643A204A616E2031380E
:1009C00020323031380A00207C20417574686F7203
:1009D0003A20526F626F0A003138204A414E20326D
:1009E00030313800204C6173742055706461746537
:1009F000643A20004D61726C696E5F312E312E3683
:100A00005F526F626F56657273696F6E5F312E321F
:100A10002E330A004D61726C696E0020536F66744C
:100A2000776172652052657365740A00205761749E
:100A30006368646F672052657365740A00204272B0
:100A40006F776E206F75742052657365740A00208D
:100A500045787465726E616C2052657365740A0026
:100A6000506F77657255700A0073746172740A0072
:100A7000205A3A0020593A0020583A00656E6473B3
:100A8000746F7073206869743A200024F4D4305075
:100A9000C38E20C2A24017828B7011127A910D81F1
:100AA0006CD90AA861E108C7586607615143061E60
:100AB0004B5D05C145A7041A411104093D98037116
:100AC0003931034036DB0265339102D43054028061
:100AD0002E1D02632CEE01752AC501B028A001105D
:100AE0002781018F2564012B244B01E0223401ACC6
:100AF000211F018D200D01801FFC00841EED009739
:100B00001DDF00B81CD200E61BC600201BBC006421
:100B10001AB200B219A8000A19A0006A189900D1E7
:100B200017910040178B00B516840031167E00B374
:100B30001579003A157300C7146F0058146A00EE57
:100B40001366008813630025135E00C7125B006CF8
:100B500012570015125400C111510070114F00219D
:100B6000114B00D61049008D10470046104400027A
:100B7000104200C00F4000800F3E00420F3C0006B4
:100B80000F3B00CB0E3800930E37005C0E3500276C
:100B90000E3400F30D3200C10D3100900D300060B5
:100BA0000D2E00320D2D00050D2C00D90C2B00AEA2
:100BB0000C2900850C29005C0C2700350C27000E41
:100BC0000C2600E80B2400C40B2400A00B23007D9E
:100BD0000B23005A0B2100390B2100180B2000F8C1
:100BE0000A1F00D90A1E00BB0A1E009D0A1D0080B4
:100BF0000A1D00630A1C00470A1B002C0A1B001177
:100C00000A1A00F7091A00DD091900C4091900AB16
:100C1000091900920917007B091800630917004C95
:100C200009160036091600200916000A091500F5F4
:100C3000081500E0081400CC081400B8081400A43B
:100C4000081400900813007D0812006B0813005868
:100C5000081200460812003408110023081100127F
:100C600008110001081100F0071000E0071000D083
:100C7000071000C0071000B0070F00A10710009177
:100C8000070E0083070F0074070F0065070E00575B
:100C9000070E0049070E003B070D002E070E00202F
:100CA000070D0013070D0006070D00F9060C00EDF7
:100CB000060D00E0060C00D4060C00C8060C00BCB3
:100CC000060C00B0060C00A4060B0099060C008D63
:100CD000060B0082060B0077060B006C060B00610A
:100CE000060A0057060B004C060A0042060A0038A6
:100CF000060A002E060A0024060A001A060A001038
:100D000006090007060A00FD050900F4050900EBC5
:100D1000050900E2050900D9050900D0050900C749
:100D2000050900BE050900B5050800AD050800A5C8
:100D30000509009C050800940508008C050800843E
:100D40000508007C050800740508006C05070065AF
:100D50000508005D050700560508004E0507004719
:100D60000507004005080038050700310507002A7F
:100D7000050700230507001C050600160507000FE0
:100D80000507000805060002050700FB040600F53C
:100D9000040700EE040600E8040600E2040700DB96
:100DA000040600D5040600CF040600C9040600C3EB
:100DB000040600BD040600B7040600B1040500AC3B
:100DC000040600A6040600A00405009B0406009586
:100DD000040500900406008A0405008504050080CF
:100DE0000406007A04050075040500700405006B14
:100DF00004050066040500610405005C0405005755
:100E0000040500520405004D040500480405004394
:100E10000405003E0404003A0405003504050030D2
:100E20000404002C04050027040400230405001E0C
:100E30000404001A04040016040500110404000D43
:100E4000040400090405000404040000040400FC78
:100E5000030400F8030400F4030400F0030400ECAE
:100E6000030400E8030400E4030400E0030400DCDE
:100E7000030400D8030400D4030400D0030400CC0E
:100E8000030400C8030300C503030024F404D920AD
:100E90001BC40C5C0E9804C4095F0265077101F461
:100EA00005F900FB04B30048048700C1036900583A
:100EB00003550003034500BE023A0084023100538B
:100EC000022A002902250004022000E4011C00C8B7
:100ED000011900AF0117009801140084011300717B
:100EE0000110006101100051010E0043010D003698
:100EF000010B002B010B0020010B00150109000C58
:100F000001090003010800FB000800F3000800EBE2
:100F1000000700E4000600DE000600D8000600D24C
:100F2000000600CC000500C7000500C2000500BD9A
:100F3000000400B9000400B5000400B1000400ADD5
:100F4000000400A9000400A5000300A20003009F04
:100F50000004009B0003009800030095000200932A
:100F6000000300900003008D0002008B0003008846
:100F70000002008600020084000300810002007F5E
:100F80000002007D0002007B000200790002007771
:100F9000000100760002007400020072000100717E
:100FA0000002006F0002006D0001006C0002006A88
:100FB0000001006900020067000100660001006591
:100FC0000001006400020062000100610001006095
:100FD0000001005F0002005D0001005C0001005B99
:100FE0000001005A0001005900010058000100579B
:100FF000000100560001005500010054000100539B
:101000000000005300010052000100510001005097
:101010000001004F0001004E0000004E0001004D95
:101020000001004C0001004B0000004B0001004A91
:10103000000100490001004800000048000100478D
:101040000001004600000046000100450000004588
:101050000001004400010043000000430001004281
:10106000000000420001004100000041000100407A
:101070000001003F0000003F0001003E0000003E74
:101080000001003D0000003D0001003C0000003C6C
:101090000000003C0001003B0000003B0001003A62
:1010A0000000003A0001003900000039000100385A
:1010B0000000003800000038000100370000003751
:1010C0000001003600000036000000360001003547
:1010D000000000350000003500010034000000343D
:1010E0000000003400010033000000330000003332
:1010F0000001003200000032000000320001003127
:10110000000000310000003100010030000000301C
:10111000000000300001002F0000002F0000002F11
:101120000000002F0001002E0000002E0000002E05
:101130000001002D0000002D0000002D0000002DFA
:101140000001002C0000002C0000002C0000002CEE
:101150000001002B0000002B0000002B0000002BE2
:101160000001002A0000002A0000002A0000002AD6
:1011700000010029000000290000002900000029CA
:1011800000000029000100280000002800000028BD
:1011900000000028000000280001002700000027B0
:1011A00000000027000000270000002700010026A3
:1011B0000000002600000026000000260000002697
:1011C000000100250000002500000025000000258A
:1011D000000000250000002500010024000000247C
:1011E000000000240000002400000024000100236F
:1011F0000000002300000023000000230000002363
:101200000000002300000023000100220000002253
:101210000000002200000022000000220000002246
:101220000001002100000021000000210000002139
:10123000000000210000002100000021000100202A
:10124000000000200000002000000020000000201E
:101250000000002000000020000000200001001F0E
:101260000000001F0000001F0000001F0000001F02
:101270000000001F0000001F0001001E0000001EF3
:101280000000001E0000001E0000000B0BFFFFFF0F
:1012900000000202026265640A002C2073797374F4
:1012A000656D2073746F707065642120486561748A
:1012B00065725F49443A200048656174696E672031
:1012C0006661696C65640048656174696E67206673
:1012D00061696C6564006F6B00627573793A2070A8
:1012E000617573656420666F7220696E7075740A2B
:1012F00000627573793A2070617573656420666F5A
:101300007220757365720A00627573793A20707283
:101310006F63657373696E670A004B494C4C4544B3
:101320002E20004B494C4C2063617573656420622C
:1013300079204B494C4C20627574746F6E2F706924
:101340006E0A004B494C4C45442E20004B494C4CF6
:101350002063617573656420627920746F6F206DFE
:1013600075636820696E6163746976652074696D60
:1013700065202D2063757272656E7420636F6D6DCC
:10138000616E643A20005072696E74657220686103
:101390006C7465642E206B696C6C28292063616C09
:1013A0006C6564210A00000000000000FE4200009D
:1013B00020433C3C3C207365745F617869735F69CE
:1013C000735F61745F686F6D652800203A200A00C2
:1013D000202063757272656E745F706F73697469D3
:1013E0006F6E3D005D203D20003E20686F6D655FA3
:1013F0006F66667365745B003E3E3E207365745F86
:10140000617869735F69735F61745F686F6D652888
:101410000000005C4200005C42000040410000000F
:10142000005761726E696E673A20486F6D696E672A
:101430002042756D702044697669736F72203C207C
:10144000310A000202040000A0400000A040000099
:1014500000400000FE420000FE42000020433C3CF1
:101460003C20686F6D65617869732800203A203EE2
:10147000204146544552207365745F617869735FFB
:1014800069735F61745F686F6D650A002020637522
:101490007272656E745F706F736974696F6E3D0010
:1014A000486F6D65203220536C6F773A0A004D6F9C
:1014B000766520417761793A0A00486F6D65203181
:1014C00020466173743A0A00FF01013E3E3E2068E7
:1014D0006F6D656178697328004572726F7220774D
:1014E000726974696E6720746F20454550524F4D84
:1014F000210A0020496E76616C69642065787472F7
:10150000756465722000000000000000000000000B
:1015100000000000FE420000FE42000020430A20BE
:10152000736F66745F656E6473746F705F6D6178FE
:10153000203D20000A20736F66745F656E647374CB
:101540006F705F6D696E203D20000A20706F7369B7
:1015500074696F6E5F7368696674203D2000206156
:101560007869733A0A20686F6D655F6F66667365A8
:1015700074203D2000466F7220003C3C3C20646F8C
:101580005F626C6F636B696E675F6D6F76655F74CA
:101590006F0A003E3E3E20646F5F626C6F636B6952
:1015A0006E675F6D6F76655F746F00203A207365BC
:1015B0007475705F666F725F656E6473746F705F71
:1015C0006F725F70726F62655F6D6F76650A002083
:1015D0002063757272656E745F706F736974696F82
:1015E0006E3D00203A20636C65616E5F75705F61CF
:1015F000667465725F656E6473746F705F6F725F3F
:1016000070726F62655F6D6F76650A00202063758A
:101610007272656E745F706F736974696F6E3D008E
:10162000646F5F70726F62655F72616973652800D5
:101630006465706C6F793A2000203A207365745F9E
:1016400070726F62655F6465706C6F7965640A00C3
:10165000202063757272656E745F706F7369746950
:101660006F6E3D00203A203C3C3C20646F5F7072FE
:101670006F62655F6D6F76650A0020206375727218
:10168000656E745F706F736974696F6E3D00203AA8
:10169000203E3E3E20646F5F70726F62655F6D6FCB
:1016A00076650A00202063757272656E745F706FD4
:1016B000736974696F6E3D0072657365745F62650E
:1016C000645F6C6576656C0A003C3C3C20646F5F2F
:1016D000686F6D696E675F6D6F766528002C2000FE
:1016E0002C20003E3E3E20646F5F686F6D696E6720
:1016F0005F6D6F76652800205A0020590041424CEA
:101700002041646A7573746D656E742058002028DA
:10171000656E61626C6564290A00202864697361E2
:10172000626C6564290A004C494E4541520041757E
:10173000746F20426564204C6576656C696E673A0B
:101740002000204E6F7A7A6C65290A0020262041FD
:10175000626F76650020262053616D65205A2061F6
:10176000730020262042656C6F77002D4261636B09
:10177000002028526967687400205A3A0020593ABC
:101780000050726F6265204F666673657420583A28
:10179000004649585F4D4F554E5445445F50524F97
:1017A00042450A0050726F62653A200043617274CC
:1017B000657369616E0A004D616368696E652054E6
:1017C0007970653A20003C3C3C2067636F64655F3C
:1017D0004732380A00203A203E20686F6D65590A6A
:1017E00000202063757272656E745F706F73697428
:1017F000696F6E3D00203A203E20686F6D65580A83
:1018000000202063757272656E745F706F73697407
:10181000696F6E3D00203A203E20484F4D454158AB
:101820004953285A290A00202063757272656E7424
:101830005F706F736974696F6E3D003E20656E6402
:1018400073746F70732E656E61626C652874727547
:1018500065290A003E3E3E2067636F64655F47323C
:10186000380A0070012C0190012701B0012201C04B
:10187000011D01F00118011002130130020E016078
:1018800002090190020401C002FF000003FA0040B7
:1018900003F5008003F000D003EB002004E60070A5
:1018A00004E100E004DC004005D700C005D20040A0
:1018B00006CD00D006C8008007C3003008BE00F087
:1018C00008B900C009B400B00AAF00B00BAA00D03C
:1018D0000CA500000EA000500F9B00C010960050F9
:1018E00012910000148C00C0158700B0178200B060
:1018F000197D00D01B7800001E730040206E009000
:10190000226900F024640040275F0090295A00E01B
:101910002B5500102E500020304B0010324600E0B6
:1019200033410090353C001037370070383200A04A
:10193000392D00B03A2800A03B2300603C1E001067
:101940003D1900903D1400103E0F00703E0A00C08B
:101950003E0500003F0000403FFBFF803FF6FFC018
:101960003FF1FF4572723A204D494E54454D5000AB
:101970004D494E54454D50207472696767657265D4
:1019800064004572723A204D415854454D50004D07
:10199000415854454D50207472696767657265649B
:1019A0000000002100240027002A002D0030003311
:1019B0000001010000040107010A010000220025C6
:1019C0000028002B002E0031003400020100000529
:1019D0000108010B0120706F736974696F6E206FCD
:1019E0007574206F662072616E67652E0A003F5025
:1019F000726F626520003C3C3C2067636F64655FEA
:101A00004732390A00203A2047323920636F727218
:101A100065637465642058595A0A00202063757202
:101A200072656E745F706F736974696F6E3D0020CC
:101A30002044697363726570616E63793A00202097
:101A40004D61747269783A005A2066726F6D205049
:101A5000726F62653A00203A2047323920756E6312
:101A60006F727265637465642058595A0A002020A9
:101A700063757272656E745F706F736974696F6E8F
:101A80003D000A0A426564204C6576656C20436F10
:101A90007272656374696F6E204D61747269783A11
:101AA00000202B000A436F727265637465642042E4
:101AB0006564204865696768742076732E204265E6
:101AC0006420546F706F6C6F67793A0A00202B00A6
:101AD0000A4265642048656967687420546F706FB6
:101AE0006772617068793A0A2020202B2D2D2D20F5
:101AF0004241434B202D2D2B0A2020207C202020EA
:101B000020202020202020207C0A204C207C202007
:101B10002020282B29202020207C20520A2045200C
:101B20007C20202020202020202020207C20490AEA
:101B30002046207C20282D29204E20282B29207C5F
:101B400020470A2054207C202020202020202020F4
:101B500020207C20480A2020207C20202020282DA6
:101B600029202020207C20540A2020207C20202096
:101B700020202020202020207C0A2020204F2D2DD6
:101B80002046524F4E54202D2D2B0A2028302C3029
:101B9000290A004D65616E206F662073616D706C5F
:101BA000656420706F696E74733A200020643A2077
:101BB0000020623A200045716E20636F6566666999
:101BC0006369656E74733A20613A2000203A203EC2
:101BD0002070726F62696E6720636F6D706C6574E0
:101BE000650A00202063757272656E745F706F7392
:101BF0006974696F6E3D0052756E6E696E6720691B
:101C00006E204452592D52554E206D6F64650A0066
:101C1000473239204175746F20426564204C6576E7
:101C2000656C696E670A0028422961636B0028466B
:101C300029726F6E74002852296967687400284CF5
:101C400029656674003F4E756D626572206F66206F
:101C500070726F626520706F696E74732069732093
:101C6000696D706C61757369626C65202832206DD6
:101C7000696E696D756D292E0A003F2856296572B7
:101C8000626F7365206C6576656C20697320696D81
:101C9000706C61757369626C652028302D34292E53
:101CA0000A00203A203E3E3E2067636F64655F472E
:101CB00032390A00202063757272656E745F706F2E
:101CC000736974696F6E3D00290A0020627974653A
:101CD000733B20637263200053657474696E67738D
:101CE0002053746F726564202800202863616C6340
:101CF000756C6174656429210A0020213D2000452E
:101D00004550524F4D20435243206D69736D6174AD
:101D10006368202D202873746F7265642920002960
:101D20000A002062797465733B206372632000208F
:101D300073746F7265642073657474696E67732061
:101D4000726574726965766564202800204D617241
:101D50006C696E3D563431290A0028454550524F72
:101D60004D3D00454550524F4D2076657273696F69
:101D70006E206D69736D61746368200050726F62CC
:101D800065204F6666736574206973205A3A200097
:101D900050726F7465637465642050696E0A0053F5
:101DA00074616E6461726420446576696174696F00
:101DB0006E3A20002052616E67653A2000204D6126
:101DC000783A2000204D696E3A20004D65616E3AE8
:101DD000200046696E6973686564210A002072619B
:101DE0006E67653A2000206D61783A2000206D69A9
:101DF0006E3A2000207369676D613A2000206D659E
:101E0000616E3A20003A207A3A2000206F66200066
:101E1000205A00205900205800476F696E672074CF
:101E20006F3A00436C6F636B776973650A00436FA9
:101E3000756E7465722D0020446972656374696FF4
:101E40006E3A2000202020616E676C653A200053B6
:101E500074617274696E67207261646975733A2087
:101E600000506F736974696F6E696E67207468657E
:101E70002070726F62652E2E2E0A003F4E756D62C5
:101E80006572206F66206C65677320696E206D6FC8
:101E900076656D656E74206E6F7420706C617573FD
:101EA00069626C652028302D3135292E0A005900D1
:101EB00058003F53616D706C652073697A65206EC0
:101EC0006F7420706C61757369626C652028342DA5
:101ED0003530292E0A004D3438205A2D50726F6249
:101EE00065205265706561746162696C69747920FE
:101EF000546573740A003F2856296572626F7365D2
:101F0000206C6576656C20697320696D706C6175F5
:101F10007369626C652028302D34292E0A004B49E4
:101F20004C4C45442E20002C20002C2000203A2030
:101F300073796E635F706C616E5F706F73697469E3
:101F40006F6E0A00202063757272656E745F706F29
:101F5000736974696F6E3D00656E7175657565694D
:101F60006E672022004E6F204C696E65204E756DA5
:101F7000626572207769746820636865636B737546
:101F80006D2C204C617374204C696E653A200050B2
:101F900072696E7465722073746F7070656420640A
:101FA000756520746F206572726F72732E2046699A
:101FB0007820746865206572726F7220616E64208B
:101FC000757365204D39393920746F2072657374CB
:101FD0006172742E202854656D706572617475721B
:101FE000652069732072657365742E2053657420B3
:101FF00069742061667465722072657374617274AD
:10200000696E67290A004E6F20436865636B7375BC
:102010006D2077697468206C696E65206E756D62DD
:1020200065722C204C617374204C696E653A2000F7
:10203000636865636B73756D206D69736D6174633F
:10204000682C204C617374204C696E653A20004CFA
:10205000696E65204E756D626572206973206E6FC2
:1020600074204C617374204C696E65204E756D62EE
:1020700065722B312C204C617374204C696E653A6B
:1020800020004D31313000202F0020403A006F6B8E
:102090000020573A004D313133205300205A3A0086
:1020A00020593A0020436F756E7420583A0020453D
:1020B0003A00205A3A0020593A00583A002F2F206F
:1020C00000426564204C6576656C696E6720004649
:1020D00061696C656420746F20656E61626C652057
:1020E000426564204C6576656C696E670A004265DE
:1020F00064204C6576656C20436F72726563746909
:102100006F6E204D61747269783A00486172646341
:102110006F6465642044656661756C7420536574F2
:1021200074696E6773204C6F616465640A00B80B54
:102130000000B80B000064000000E803000000008D
:10214000964300009643000040410000C841391406
:10215000A0423914A042000048440080114320529C
:102160000020204D393030204B004C696E65617283
:1021700020416476616E63653A0A0020204D38354F
:1021800031205A005A2D50726F6265204F66667377
:10219000657420286D6D293A0A002044002049000A
:1021A00020204D33303420500020440020490020AE
:1021B000204D3330312050005049442073657474F1
:1021C000696E67733A0A0020204D34323020530084
:1021D0004175746F20426564204C6576656C696E4C
:1021E000673A0A00205A0020590020204D3230362C
:1021F000205800486F6D65206F66667365743A0AF3
:1022000000204500205A002059002058002042009C
:1022100020540020204D3230352053004164766137
:102220006E6365643A20533C6D696E5F66656564F4
:10223000726174653E20543C6D696E5F74726176A4
:10224000656C5F66656564726174653E20423C6DD5
:10225000696E5F7365676D656E745F74696D655FE8
:102260006D733E20583C6D61785F78795F6A657266
:102270006B3E205A3C6D61785F7A5F6A65726B3E97
:1022800020453C6D61785F655F6A65726B3E0A0050
:1022900020540020520020204D3230342050004184
:1022A0006363656C65726174696F6E2028756E6911
:1022B00074732F7332293A20503C7072696E745FC8
:1022C000616363656C3E20523C7265747261637435
:1022D0005F616363656C3E20543C74726176656C2B
:1022E0005F616363656C3E0A00204500205A002050
:1022F000590020204D3230312058004D6178696DF1
:10230000756D20416363656C65726174696F6E20E1
:1023100028756E6974732F7332293A0A00204500BC
:10232000205A0020590020204D3230332058004DD3
:102330006178696D756D2066656564726174657339
:102340002028756E6974732F73293A0A002045009E
:10235000205A0020590020204D3932205800537453
:102360006570732070657220756E69743A0A00207A
:10237000204D3230302044300A0020204D323030A1
:102380002044002044697361626C65640A004669F8
:102390006C616D656E742073657474696E67733AF1
:1023A000002020473231202020203B20556E6974C8
:1023B0007320696E206D6D0A002044697363726535
:1023C00070616E63793A00326E642050726F62659C
:1023D000205A3A00203A203C3C3C2072756E5F7ACD
:1023E0005F70726F62650A00202063757272656E9D
:1023F000745F706F736974696F6E3D003173742020
:1024000050726F6265205A3A00203A203E3E3E20CC
:1024100072756E5F7A5F70726F62650A002020636A
:10242000757272656E745F706F736974696F6E3DFB
:102430000050726F62696E67206661696C65640A3C
:10244000004572726F723A003C3C3C2070726F62C1
:10245000655F70740A00205A3A200020593A200023
:1024600042656420583A2000203A200A0020206368
:10247000757272656E745F706F736974696F6E3DAB
:102480000073746F77290A002C20002C20003E3E38
:102490003E2070726F62655F7074280020666972FA
:1024A00073740A005A0059005800486F6D65200087
:1024B0006563686F3A00544845524D414C2052556F
:1024C0004E4157415900546865726D616C205275D8
:1024D0006E6177617900526573656E643A20000021
:1024E00056AB11241FBECFEFD1E2DEBFCDBF00E05F
:1024F0000CBF13E0A0E0B2E0E6E7FFE601E00BBFAF
:1025000002C007900D92A633B107D9F722E1A6E3E6
:10251000B3E001C01D92A73EB207E1F712E1C1E7A7
:10252000D2E100E006C021970109802FFE010E9440
:102530008DB7C037D10780E00807A9F70E9477A6BA
:102540000C94B9B70C9400002F923F924F925F9277
:102550006F927F928F929F92AF92BF92CF92DF92B3
:10256000EF92FF920F931F93CF93DF93CDB7DEB718
:10257000C258D1090FB6F894DEBF0FBECDBF00918F
:10258000530A20E6029F80011124035A1C4F8091B8
:10259000591180FF1AC0E0EBF4E284917F013FEF14
:1025A000E31AF30A811102C0780104C00E94558D1C
:1025B000F701F3CFD7018D917D01882319F00E9497
:1025C000558DF8CF8AE00E94558D81E090E0909380
:1025D000F40F8093F30F10925603109255038FE37C
:1025E00080935F0910925E0910925D09109250036A
:1025F000109251031092520310925303F8018081FC
:102600000F5F1F4F8032D1F38E34B1F4818190ED92
:10261000980F9A3020F08D3211F08B3269F4329697
:10262000DF0131962C9120532A30D0F3CD01FC01EB
:10263000019620812032D9F3F093FB0FE093FA0F3B
:102640007F01BFEFEB1AFB0A10816AE270E0C7015D
:102650000E9499B7009731F0FC0131978081803258
:10266000E1F311821D3429F0143519F0173409F003
:10267000CDC0F70180812FEFE21AF20A8032C9F350
:1026800080538A3008F0C2C010935F0920915D0921
:1026900030915E094AE03196429FC001439F900D00
:1026A0001124DF0111972C91022E000C330B2053C3
:1026B0003109280F391F808180538A3060F33093AD
:1026C0005E0920935D09DF0131968C918032D9F348
:1026D0001D34D1F42E31310591F03CF42731310510
:1026E00071F02C31310581F40AC02537310564F0D1
:1026F0002737310524F0203A43E0340729F4B0931A
:102700005603A093550382C01092560310925503AE
:102710000091FA0F61E070E0CD0101964C914423E5
:1027200009F474C0413299F41D3489F42032310522
:1027300071F4909356038093550363E270E00E9416
:1027400099B7009709F462C0DC011C925FC05FEB8F
:10275000D52ED40EE9E1ED15C0F1FC01BE2FAF2F4F
:1027600051915032D9F38B2F9A2FE0EDE50FEA30DB
:1027700040F0E3EDE50FE23020F05B3211F00C9415
:10278000182EDC01AD2CB12C750143E0F594E794D3
:102790004A95E1F7A701405B5C4F7A014D2D4770E8
:1027A000FB0102C0EE0FFF1F4A95E2F7AF01F701F0
:1027B0005081452B4083109711F0A01B01C0A0E071
:1027C000F501EA5CFC4FA0830AC04091550350918B
:1027D0005603452B21F4B0935603A0935503DC0117
:1027E0004C9141544A3110F4DC0196CFFC01DF01D9
:1027F00031969C9190539A30D0F3AD01CA014F5F4E
:102800005F4FDC01EC91E032C9F3EECF80915F09BC
:102810008D3411F40C94311D843511F40C948D2DEC
:10282000873411F00C94F82D80915D0990915E0928
:102830008C31910509F4B5C7A4F48430910544F4B2
:10284000823091050CF026C197FF32C00C94112EF6
:102850008430910509F4E6C2059709F420C30C946D
:10286000112E8432910511F40C94621C74F48E3193
:10287000910509F49FC70CF499C7839711F00C9444
:10288000112E0E945A8A0C94112E8B35910511F449
:102890000C946B1C8C35910511F40C94701C8A35CA
:1028A000910511F00C94112E10925C030C94112ED2
:1028B00080912202882311F40C94112E0E94D35B84
:1028C00080E190E10E94C5550E944A8D8091591186
:1028D00083FD8FC0C0901C10D0901D10E0901E1082
:1028E000F0901F102091BD113091BE114091BF1189
:1028F0005091C011C701B6010E9465B0882309F448
:1029000078C080916009811138C060910102709196
:102910000202072E000C880B990B0E946BB09B01E2
:10292000AC0160915C1070915D1080915E1090918F
:102930005F100E9465B087FF20C0C092BD11D09289
:10294000BE11E092BF11F092C011E0EBF4E284916D
:102950008F010F5F1F4F882321F00E94558DF801D2
:10296000F6CFE9E1F2E084918F010F5F1F4F8823DA
:1029700021F00E94558DF801F6CFC0901C10D09028
:102980001D10E0901E10F0901F102091BD1130918D
:10299000BE114091BF115091C011C701B6010E94F4
:1029A0009DB420E030E048E453E40E94C4B6181619
:1029B00004F5C092BD11D092BE11E092BF11F09209
:1029C000C011E0EBF4E284918F010F5F1F4F882369
:1029D00021F00E94558DF801F6CFEAEFF1E08491E5
:1029E0008F010F5F1F4F882321F00E94558DF80142
:1029F000F6CF20911010309111104091121050918B
:102A000013106091B1117091B2118091B311909136
:102A1000B4110E9465B081111DC020911410309135
:102A2000151040911610509117106091B5117091CA
:102A3000B6118091B7119091B8110E9465B08111C3
:102A400009C06091430270914402809145029091C7
:102A500046021AC060912F0270913002072E000CBE
:102A6000880B990B0E946BB0209143023091440275
:102A700040914502509146020E94CAB02AE037EDCB
:102A800043E25CE30E94CAB00E94E45D0E94DA5D0A
:102A90000C94112E20912202222311F40C94112E59
:102AA00011E0029709F010E00E94D35B19821A82AC
:102AB0001B821C821D821E821F82188682E50E9454
:102AC0003E8D882309F42CC10E94DC8C6B017C01B3
:102AD0002091B1113091B2114091B3115091B411C4
:102AE0002AA33BA34CA35DA38090B5119090B6118F
:102AF000A090B711B090B811809110109091111062
:102B0000A0911210B09113108EA39FA3A8A7B9A7EC
:102B100020911410309115104091161050911710FB
:102B20002AA73BA74CA75DA720E030E0A901C70179
:102B3000B6010E9465B0882309F408C12AA13BA10F
:102B40004CA15DA16EA17FA188A599A50E9465B049
:102B500081110BC0A50194016AA57BA58CA59DA53B
:102B60000E9465B0882309F4F1C020E030E0A9019B
:102B7000C701B6010E9465B0881F8827881F1813F7
:102B800009C080E090E0A0E8BFE38AAF9BAFACAFA4
:102B9000BDAF08C020E030E040E85FEB2AAF3BAFBC
:102BA0004CAF5DAF2AA13BA14CA15DA16EA17FA15D
:102BB00088A599A50E949DB46AAB7BAB8CAB9DABFD
:102BC000A50194016AA57BA58CA59DA50E949DB435
:102BD0006EAB7FAB88AF99AF2AA93BA94CA95DA981
:102BE000CA01B9010E94CAB02B013C012EA93FA91C
:102BF00048AD59ADCA01B9010E94CAB09B01AC01F0
:102C0000C301B2010E949EB40E9409B76EA77FA7BC
:102C100088AB99AB20E030E040E05FE30E94CAB0AF
:102C20002B013C01A7019601C701B6010E94CAB061
:102C30006B017C01A3019201C301B2010E94CAB0E1
:102C40009B01AC01C701B6010E949DB40E9409B767
:102C50009B01AC016AAD7BAD8CAD9DAD0E94CAB04D
:102C60006B017C012EA13FA148A559A56AA17BA1BA
:102C70008CA19DA10E949EB420E030E040E05FE383
:102C80000E94CAB02B013C016EA97FA988AD99AD05
:102C900090582EA53FA548A959A90E947AB59B0135
:102CA000AC01C701B6010E94CAB09B01AC01C301CF
:102CB000B2010E949EB42AA13BA14CA15DA10E9439
:102CC0009DB469837A838B839C832AA53BA54CA5FD
:102CD0005DA5C501B4010E949EB420E030E040E053
:102CE0005FE30E94CAB02B013C012EA53FA548A975
:102CF00059A96AA97BA98CA99DA90E947AB59B01B3
:102D0000AC01C701B6010E94CAB09B01AC01C3016E
:102D1000B2010E949EB4A50194010E949DB412C00C
:102D200089E40E943E8D882331F00E94DC8C698307
:102D30007A838B839C838AE40E943E8D882331F0C2
:102D40000E94DC8C6D837E838F83988720E030E047
:102D5000A90169817A818B819C810E9465B0811172
:102D60000CC020E030E0A9016D817E818F819885C3
:102D70000E9465B0882309F43BC080E50E943E8D27
:102D8000882341F00E94BC8C082F8536E8F0E1E4EE
:102D9000F4E202C000E018C084917F013FEFE31A23
:102DA000F30A882321F00E94558DF701F5CFEAE45C
:102DB000F2E084917F014FEFE41AF40A882321F0B6
:102DC0000E94558DF701F5CF412FBE016F5F7F4FF8
:102DD000002331F081EB91E10E945C560150F4CF69
:102DE00080E190E10E945C560E944A8D0C94112E65
:102DF000E1E4F4E284918F010F5F1F4F882321F0FB
:102E00000E94558DF801F6CFE4E3F2E084918F0142
:102E10000F5F1F4F882311F40C94112E0E94558DC3
:102E2000F801F4CF80E50E943E8D882329F00E94AE
:102E30009C8C6B017C0103C0C12CD12C760183E5F5
:102E40000E943E8D882361F00E94DC8C20E030E0FF
:102E50004AE754E40E94CAB00E94E7B56B017C01C6
:102E60000E94C8460E944A8D8091FC0F9091FD0FF0
:102E7000A091FE0FB091FF0FC80ED91EEA1EFB1ED7
:102E80000E940E66DC01CB018C199D09AE09BF09B9
:102E9000B7FD02C00C94112E0E94FB51F1CF80911E
:102EA0002202882311F40C94112E0E94D35B89E432
:102EB0000E943E8D882329F00E94DC8C2B013C016E
:102EC00003C0412C512C32018AE40E943E8D88239C
:102ED00029F00E94DC8C4B015C0103C0812C912CF9
:102EE000540180E50E943E8D882329F00E94DC8CED
:102EF0006B017C0103C0C12CD12C760181E50E94BD
:102F00003E8D882339F00E94DC8C6AA37BA38CA3BE
:102F10009DA304C01AA21BA21CA21DA25091F20FD5
:102F2000EB965FAFEB9760912F0270913002072E06
:102F3000000C880B990B0E946BB0209143023091DA
:102F4000440240914502509146020E94CAB02AE0D4
:102F500037ED43E25CE30E94CAB0EF966CAF7DAF01
:102F60008EAF9FAFEF978091B1119091B211A09168
:102F7000B311B091B4118EA39FA3A8A7B9A7A301C1
:102F80009201BC01CD010E949EB427966CAF7DAF2B
:102F90008EAF9FAF27974090B5115090B6116090BB
:102FA000B7117090B811A5019401C301B2010E943C
:102FB0009EB42B966CAF7DAF8EAF9FAF2B972091B9
:102FC0001010309111104091121050911310C70140
:102FD000B6010E949EB42F966CAF7DAF8EAF9FAFAF
:102FE0002F97209114103091151040911610509188
:102FF00017106AA17BA18CA19DA10E949EB463962B
:103000006CAF7DAF8EAF9FAF6397CEA0DFA0E8A47B
:10301000F9A4C982DA82EB82FC824D825E826F82E1
:1030200078860E940E669B01AC0128533F4F4F4F9C
:103030005F4FE7962CAF3DAF4EAF5FAFE797BDEC6C
:103040008B2EBCEC9B2EA92CBDE3BB2E1AA21EA27C
:103050001AA61EA60E9458450E940E668B019C016E
:10306000E796CCACDDACEEACFFACE7970C191D09D4
:103070002E093F0937FD0EC09B01AC0128533F4F7D
:103080004F4F5F4FE7962CAF3DAF4EAF5FAFE79727
:103090000E94FB51A5019401BAA1AEA1FAA5EEA52B
:1030A0006B2F7A2F8F2F9E2F0E949EB42B011C0115
:1030B00020E030E040E85FE30E94C4B6181634F424
:1030C000412C512CF0E82F2EAFE33A2E80911010B6
:1030D00090911110A0911210B091131067968CAFBF
:1030E0009DAFAEAFBFAF6797C090B111D090B21196
:1030F000E090B311F090B4116B96CCAEDDAEEEAEB5
:10310000FFAE6B973F922F925F924F926796ACAC57
:10311000BDACCEACDFAC67972F96ECACFDAC0EAD82
:103120001FAD2F9727962CAD3DAD4EAD5FAD2797C8
:103130006B966CAD7DAD8EAD9FAD6B970E94583197
:103140000F900F900F900F906AAB7EAB8AAF9EAF3F
:1031500020911410309115104091161050911710B5
:103160006F962CAF3DAF4EAF5FAF6F978091B511AB
:103170009091B611A091B711B091B811AB968CAFE8
:103180009DAFAEAFBFAFAB973F922F925F924F9282
:103190006F96ACACBDACCEACDFAC6F976396ECACCD
:1031A000FDAC0EAD1FAD63972B962CAD3DAD4EAD76
:1031B0005FAD2B97AB966CAD7DAD8EAD9FADAB97F4
:1031C0000E9458310F900F900F900F906FAF219683
:1031D0007FAF219722968FAF229723969FAF239799
:1031E000C980DA80EB80FC80AF96CCAEDDAEEEAE6F
:1031F000FFAEAF972D813E814F815885E3962CAF6E
:103200003DAF4EAF5FAFE397A0961FAEA0977AA1F8
:103210006EA19AA58EA5272F362F492F582F642DE2
:10322000752D822D932D0E949DB42FE632E143E04F
:103230005BE30E9465B087FF06C0A0963FADA097F4
:103240003111DEC1C4C1242D352D422D532DBAA11B
:10325000AEA1FAA5EEA56B2F7A2F8F2F9E2F0E947D
:103260009EB420E030E040E05FE30E94CAB03B0142
:103270004C019F928F937F926F936796ACACBDACDD
:10328000CEACDFAC67972F96ECACFDAC0EAD1FADAE
:103290002F9727962CAD3DAD4EAD5FAD27976B9622
:1032A0006CAD7DAD8EAD9FAD6B970E9458310F9088
:1032B0000F900F900F90A4966FAFA497E8967FAFF2
:1032C000E897E9968FAFE997EA969FAFEA979F92C2
:1032D0008F927F926F926F96ACACBDACCEACDFACF0
:1032E0006F976396ECACFDAC0EAD1FAD63972B965C
:1032F0002CAD3DAD4EAD5FAD2B97AB966CAD7DADBE
:103300008EAD9FADAB970E9458310F900F900F90EC
:103310000F905B018C012AA93EA94AAD5EADAF9624
:103320006CAD7DAD8EAD9FADAF970E949EB420E099
:1033300030E040E05FE30E94CAB09B01AC01A4967C
:103340006FADA497E8967FADE897E9968FADE997C2
:10335000EA969FADEA970E949DB46B017C01E894C8
:10336000F7F82FAD21963FAD219722964FAD2297CA
:1033700023965FAD2397E3966CAD7DAD8EAD9FAD8B
:10338000E3970E949EB420E030E040E05FE30E94BB
:10339000CAB09B01AC01B501C8010E949DB49B015C
:1033A000AC015F77C701B6010E949EB42DEC3CECE6
:1033B0004CEC5DE30E9465B018160CF03ECFAFAE4A
:1033C0002196BFAE219722960FAF229723961FAF6B
:1033D0002397A4964FADA4974AABE8965FADE897C4
:1033E0005EABE9968FADE9978AAFEA969FADEA9713
:1033F0009EAF23011401A1E0A096AFAFA09707CF25
:10340000A7019601C701B6010E949EB49B01AC01C1
:10341000BAA1AEA1FAA5EEA56B2F7A2F8F2F9E2F02
:103420000E949EB4962E872E782E692E20E030E0E2
:1034300040E85FE3D401F3016B2F7A2F8F2F9E2F8B
:103440000E94C4B687FFDCC06F927F928F929F92DA
:103450006796ACACBDACCEACDFAC67972F96ECAC4E
:10346000FDAC0EAD1FAD2F9727962CAD3DAD4EADEB
:103470005FAD27976B966CAD7DAD8EAD9FAD6B97B5
:103480000E9458310F900F900F900F90A0966FAF41
:10349000A097A4967FAFA497E8968FAFE897E99698
:1034A0009FAFE9976F927F928F929F926F96ACAC8D
:1034B000BDACCEACDFAC6F976396ECACFDAC0EADA3
:1034C0001FAD63972B962CAD3DAD4EAD5FAD2B97E9
:1034D000AB966CAD7DAD8EAD9FADAB970E94583174
:1034E0000F900F900F900F905B018C01A0962FAD65
:1034F000A097A4963FADA497E8964FADE897E996BC
:103500005FADE997AF966CAD7DAD8EAD9FADAF97DA
:103510000E949EB420E030E040E05FE30E94CAB029
:103520009B01AC016AA97EA98AAD9EAD0E949DB4A3
:103530006B017C01E894F7F89501A801E3966CAD66
:103540007DAD8EAD9FADE3970E949EB420E030E04C
:1035500040E05FE30E94CAB09B01AC016FAD2196D1
:103560007FAD219722968FAD229723969FAD23970B
:103570000E949DB49B01AC015F77C701B6010E9418
:103580009EB42DEC3CEC4CEC5DE30E94C4B61816E6
:10359000BCF1AFAE2196BFAE219722960FAF229716
:1035A00023961FAF2397A096BFADA097BAABA49662
:1035B000EFADA497EEABE896FFADE897FAAFE996CA
:1035C000CFACE997CEAE492C582C272C362C7AA1BB
:1035D0006EA19AA58EA5272F362F492F582F642D1F
:1035E000752D822D932D0E949DB46B017C012DECD5
:1035F0003CEC4CEC5DE30E94C4B618160CF000CF16
:103600007AA16EA19AA58EA5272F362F492F582F64
:10361000642D752D822D932D0E949DB44B015C016C
:103620008AA99EA9AAADBEAD89839A83AB83BC83C8
:103630008FAD21969FAD21972296AFAD229723960D
:10364000BFAD23978D839E83AF83B887242D352DFF
:10365000422D532D60E070E080E89FE30E949DB40E
:103660006B017C012091B9113091BA114091BB11CD
:103670005091BC110E94CAB06AA37BA38CA39DA3E6
:10368000209118103091191040911A1050911B1070
:10369000642D752D822D932D0E94CAB09B01AC0123
:1036A0006AA17BA18CA19DA10E949EB469877A87A3
:1036B0008B879C872091BD113091BE114091BF1125
:1036C0005091C011C701B6010E94CAB06B017C01C4
:1036D00020911C1030911D1040911E1050911F1010
:1036E000642D752D822D932D0E94CAB09B01AC01D3
:1036F000C701B6010E949EB46D877E878F87988B25
:10370000CE0101960E94C55589819A81AB81BC8109
:103710008E8B9F8BA88FB98F8D819E81AF81B8854D
:103720008A8F9B8FAC8FBD8F89859A85AB85BC8531
:103730008E8F9F8FA8A3B9A3AE01425E5F4FBE01DB
:10374000665E7F4FCE0146960E94AC9CEB96CFAC56
:10375000EB97EF96ECACFDAC0EAD1FADEF979E0175
:10376000235F3F4FAE01425E5F4FBE01665E7F4FFB
:10377000CE0146960E94363420E030E040E85FE318
:10378000642D752D822D932D0E9465B087FF05C095
:103790004AA25EA22AA63EA65DCC0E94DA5D0C94E7
:1037A000112E80E00E94B85F0C94112E0E94216BB4
:1037B0000C94112E20E030E040E050E46091B11113
:1037C0007091B2118091B3119091B4110E949EB486
:1037D0006B017C0188E50E943E8D882321F00E94C8
:1037E000DC8C6B017C01CE8ADF8AE88EF98E20E0CA
:1037F00030E040EF51E46091B5117091B6118091C5
:10380000B7119091B8110E949EB46B017C0189E5BB
:103810000E943E8D882321F00E94DC8C6B017C018C
:10382000C982DA82EB82FC82409051115090521191
:10383000609053117090541120914D1130914E11A0
:1038400040914F11509150116E897F89888D998DCB
:103850000E949DB44B015C012BE33FED4FEF5FE312
:103860000E94C4B687FF02C00C94112E23E830E0FA
:103870004EEF52E4C501B4010E9465B0181614F46D
:103880000C94112EA3019201C701B6010E949DB4B0
:103890006B017C0124EF3DEF4FEE51E40E94C4B672
:1038A00087FF02C00C94112E23E830E04EEF52E463
:1038B000C701B6010E9465B0181614F40C94112EBD
:1038C0000C94282E81E00E94B85F0E945A8A0E94C0
:1038D000216B0C94112E81E080935C030C94112ECB
:1038E00085E40E943E8D982E811102C00E94C84638
:1038F0006FE4A62E62E0B62E71EBC72E71E1D72ED3
:10390000E4E0EE2EE0E1FE2E00E010E0812CD50197
:103910008D915D010E943E8D882309F44EC0F60111
:103920002081318142815381C158DF4F2883CF5795
:10393000D040C058DF4F3883C058D040CF57DF4FFA
:103940004883C158D040CE57DF4F5883C258D0402B
:103950000E94DC8CD6016D937D938D939C9313977D
:10396000C158DF4F2881CF57D040C058DF4F388132
:10397000C058D040CF57DF4F4881C158D040CE57B4
:10398000DF4F5881C258D04003301105B1F00E947A
:103990009DB49B01AC01F7016081718182819381AB
:1039A0000E949EB4D7016D937D938D939C93139742
:1039B000C8010E947E62882483940F5F1F4FB4E089
:1039C000CB0ED11CE4E0EE0EF11C0430110509F021
:1039D0009ECF882019F00E94418C3FC09920E9F1C8
:1039E000C090BD11D090BE11E090BF11F090C011F9
:1039F0002091D3093091D4094091D5095091D6092D
:103A0000C701B6010E94CAB00E94CFB660932112CE
:103A1000709322128093231290932412C092111259
:103A2000D0921212E0921312F0921412C701B60152
:103A30000E94E2B52FB7F8946093860F7093870FBA
:103A40008093880F9093890F2FBF109201121092CC
:103A5000021210920312109204120E94D9910C9437
:103A6000112E80915D0990915E09883C910509F4C1
:103A70001AC50CF0A7C08C35910509F4E7C30CF00A
:103A800053C08B34910509F4D5C25CF582319105A0
:103A900009F4D8C3CCF497FF02C00C94112E8230E5
:103AA00091050CF468C1419711F00C94112E5F98A8
:103AB0008A989FB7F894809108018E7F80930801BF
:103AC0009FBF12980C94112E8A32910509F4AAC254
:103AD0008033910509F4AAC24F9711F00C94112E6E
:103AE000CFC18235910509F4A4C37CF48D349105CE
:103AF00009F4BEC20CF4A2C28135910511F00C94F8
:103B0000112E0E9489930C94112E8435910509F48D
:103B100099C30CF492C38535910511F00C94112EC4
:103B20000E9424930C94112E8137910509F469C3E6
:103B300014F58B36910509F478C364F48936910540
:103B400009F467C30CF06DC38836910509F494C27B
:103B50000C94112E8E36910509F4BDC28F36910555
:103B600009F4CCC28D36910511F00C94112E0E94EF
:103B700085940C94112E8737910509F403C47CF4C5
:103B80008337910509F46CC30CF464C3863791053F
:103B900011F00C94112E0E94A8910C94112E8937CB
:103BA000910509F47AC40CF471C48C38910509F4B8
:103BB0002CC38B39910511F00C94112E0E940D9499
:103BC0000C94112E8336F1E09F0711F40C943E2DD6
:103BD0000CF060C08D3D910509F4A1C6B4F58D3C93
:103BE000910509F44DC5ACF48B3C910509F4BEC4B4
:103BF0000CF0DAC4893C910511F00C94112E97EB6E
:103C0000E92E99E0F92E0FE412E024E0D22ED00E36
:103C100094C4833D910509F4DAC58C3D910509F4FE
:103C20006FC68E3C910511F00C94112EFFE4AF2E5F
:103C3000F2E0BF2EA1EBCA2EA1E1DA2EBAE1EB2E03
:103C4000BAE0FB2E00E010E088C58D3231E093072A
:103C500009F4DAC684F48E3051E0950709F4F0C710
:103C60008C32A1E09A0709F4A5C6823E910511F0B5
:103C70000C94112E70C68F32B1E09B0711F40C9496
:103C8000A72614F40C9453268033914009F45BC7A3
:103C90000C94112E863F21E0920711F40C94AC2A6B
:103CA000D4F5843A41E0940711F40C94D129ACF492
:103CB0008139A1E09A0711F40C94C9298239B1E045
:103CC0009B0711F40C94CD298039914011F00C948C
:103CD000112E0E94C8460C94112E843FF1E09F07DC
:103CE00011F40C94A62A14F00C94A92A8C3A914051
:103CF00011F00C94112E5AE1C52E5AE0D52E61EB2D
:103D0000E62E61E1F62E7EEA272E71E1372E00E0E5
:103D100010E00C94D4298B3843E0940711F40C94F0
:103D20001D2C9CF48335A3E09A0711F40C94BD2A52
:103D30008438B3E09B0711F40C940C2B873F91401F
:103D400011F00C94112E0C94AF2A8D38F3E09F07DC
:103D500011F40C947D2C14F40C94492C8E3833E01F
:103D6000930711F40C94362D873E934011F40C9474
:103D70007D2D0C94112EE0905503F090560380E5B4
:103D80000E943E8D882359F00E949C8C4B015C015F
:103D900011E0672B682B692B31F410E004C010E0B0
:103DA000812C912C540183E50E943E8D882399F04B
:103DB0000E94DC8C20E030E04AE754E40E94CAB064
:103DC0000E94E7B54B015C0111110CC0672B682BF9
:103DD000692B41F43CC0111105C0E114F10411F04C
:103DE0000C947B2E83E090E09093F40F8093F30F7C
:103DF00081E0809354030E94C8460E944A8D81143A
:103E00009104A104B104A9F18091FC0F9091FD0FE0
:103E1000A091FE0FB091FF0F75016401C80ED91E6D
:103E2000EA1EFB1E0E940E66DC01CB018C199D0967
:103E3000AE09BF09B7FD04C0109254030C94112EB3
:103E4000809154038823C1F30E94FB51EBCFE1140E
:103E5000F10411F00C947B2E83E090E09093F40F2A
:103E60008093F30F81E0809354030E94C8460E9420
:103E70004A8D809154038823F9F20E94FB51F9CFB7
:103E80008091451290914612019719F40E940E6696
:103E900008C060914F127091501280915112909110
:103EA000521200914B1210914C1220914D123091F0
:103EB0004E12601B710B820B930B28EE33E040E037
:103EC00050E00E9440B48091471290914812A09116
:103ED0004912B0914A12BC01CD01620F731F841FB9
:103EE000951F5CE3C52ED12CE12CF12CA701960186
:103EF0000E9440B4162F072FCA01B901A7019601ED
:103F00000E9440B44B015C01CA01B90128E130E0D4
:103F100040E050E00E9440B42B013C01C9016DE635
:103F200071E00E9466B79E012F5F3F4F79016115D6
:103F3000710599F00F931F939F928F925F924F920A
:103F40009F938F937F936F938AE992E09F938F93D0
:103F50003F932F930E9436B026C0009789F00F93AD
:103F60001F939F928F925F924F929F938F938AE8B5
:103F700092E09F938F933F932F930E9436B013C08C
:103F80004114510461047104B1F00F931F939F9287
:103F90008F925F924F928EE792E09F938F933F9321
:103FA0002F930E9436B00FB6F894DEBF0FBECDBF80
:103FB000E0EBF4E223C081149104A104B10469F0A0
:103FC0000F931F939F928F9286E792E09F938F9318
:103FD0003F932F930E9436B0E6CF0F931F9382E753
:103FE00092E09F938F933F932F930E9436B00F9050
:103FF0000F900F900F900F900F90DACF84918F0158
:104000000F5F1F4F882321F00E94558DF801F6CFD6
:10401000B7018EEA92E00E9430318AE00E94558D0D
:104020000C94112E0E94078A0C94112E0E949684E3
:104030000C94112E0E9484A50C94112E809145128F
:1040400090914612019711F00C94112E82E090E0AD
:1040500090934612809345120E940E6660934F1211
:104060007093501280935112909352120C94112E0F
:104070000E940EA40C94112E88E690E00E94286302
:1040800081110C94112E8091591183FF02C00C9460
:10409000112E83E50E943E8D8823C9F00E94DC8C9E
:1040A0000E94E2B5709356106093551080E00E9414
:1040B0006D6A0E94DC8C20E030E04AEA52E40E9403
:1040C00065B0181614F00E940EA40E94DC8C0E94A9
:1040D0002F320C94112E8EE40E943E8D882311F411
:1040E0000C94112E0E94AC8C6093DD127093DE1242
:1040F0008093DF129093E0120C94112E83E50E94BE
:104100000F8D882359F083E50E943E8D882319F096
:104110000E94BC8C01C080E080935911E0EBF4E276
:1041200084918F010F5F1F4F882321F00E94558DCE
:10413000F801F6CFEBECF2E084918F010F5F1F4F97
:10414000882321F00E94558DF801F6CF80915911F6
:104150008823A1F14BEBC42E42E0D42EE12CF12CAC
:1041600020E08091591190E00E2C02C09595879522
:104170000A94E2F780FF17C0BB24B394B20E222347
:1041800019F08CE20E94558DF60125913491F901C8
:10419000849189010F5F1F4F882321F00E94558D64
:1041A0009801F5CF2B2DFFEFEF1AFF0A32E0C30E77
:1041B000D11C46E0E416F104A1F61EC0E7ECF2E0E3
:1041C00084918F010F5F1F4F8823B1F00E94558D9E
:1041D000F801F6CF8AE50E940F8D81110C94D72A41
:1041E0004091491150914A1160914B1170914C11BD
:1041F00086E397E00E94B7308AE00E94558D0C94C8
:10420000112E0E94BD930C94112E0E94AD930C941C
:10421000112E0E94F5951092F40F1092F30F0C944A
:1042200027300E94F0930C94112E0E94E3930C947B
:10423000112E10925B030C94112E81E080935B038E
:104240000C94112E0E943A930C94112E0E94899284
:104250000C94112E0E94C8460E94D9910C94112EE4
:10426000EDEAF3E084918F010F5F1F4F882321F067
:104270000E94558DF801F6CFEFE9F3E084918F01AC
:104280000F5F1F4F882321F00E94558DF801F6CF54
:10429000E8E8F3E084918F010F5F1F4F882321F03E
:1042A0000E94558DF801F6CFE8E7F3E084918F0185
:1042B0000F5F1F4F882321F00E94558DF801F6CF24
:1042C000E7E6F3E084918F010F5F1F4F882321F011
:1042D0000E94558DF801F6CFE6E5F3E084918F0159
:1042E0000F5F1F4F882321F00E94558DF801F6CFF4
:1042F000E7E4F3E084918F010F5F1F4F882321F0E3
:104300000E94558DF801F6CFE2E3F3E084918F012E
:104310000F5F1F4F882321F00E94558DF801F6CFC3
:10432000ECE1F3E084918F010F5F1F4F882321F0B0
:104330000E94558DF801F6CFE7E0F3E084918F01FC
:104340000F5F1F4F882321F00E94558DF801F6CF93
:10435000EAEEF2E084918F010F5F1F4F882321F076
:104360000E94558DF801F6CFE2EDF2E084918F01C5
:104370000F5F1F4F882311F40C94112E0E94558D4E
:10438000F801F4CFE1EAF4E084918F010F5F1F4F51
:10439000882321F00E94558DF801F6CFE9E9F4E079
:1043A00084918F010F5F1F4F882321F00E94558D4C
:1043B000F801F6CF659903C00FE912E002C004EAE4
:1043C00012E0D8018D918D01882319F00E94558D3E
:1043D000F8CF8AE00E94558DE1E9F4E084918F01E5
:1043E0000F5F1F4F882321F00E94558DF801F6CFF3
:1043F0008091030181FD03C00FE912E002C004EACD
:1044000012E0F80181918F01882319F00E94558DE7
:10441000F8CF8AE00E94558DE9E8F4E084918F019D
:104420000F5F1F4F882321F00E94558DF801F6CFB2
:104430004A9903C00FE912E002C004EA12E0D80171
:104440008D918D01882319F00E94558DF8CF8AE057
:104450000E94558DE1E8F4E084918F010F5F1F4FBA
:10446000882321F00E94558DF801F6CF4B9903C0A7
:104470000FE912E002C004EA12E0F80181918F0115
:10448000882309F4B9CE0E94558DF7CF81E080933F
:10449000E409809334110C94112E1092E4091092C7
:1044A00034110C94112E88EC90E00E942863811145
:1044B0000C94112E84E40E940F8D8823D1F10E9468
:1044C000DC8C11E020E030E0A9010E9465B0811190
:1044D00001C010E010934511112359F100915703C9
:1044E00010E00E94DC8C000F111F000F111FF8015B
:1044F000EF5BFE4E608371838283938320E030E024
:10450000A9016091411170914211809143119091E4
:1045100044110E9465B081110CC080E090E0A0E4DD
:10452000B0E48093411190934211A0934311B09352
:1045300044110E943F550C94112ED8018D918D018C
:104540000E940F8D882349F00E94DC8C0E94E7B501
:10455000F7016083718382839383F4E0EF0EF11C93
:10456000D012EBCF0E945F320C94112E15E8E12E91
:1045700019E0F12E0FE412E084E0D82ED00ED8011D
:104580008D918D010E940F8D882339F00E94DC8C63
:10459000F7016083718382839383F4E0EF0EF11C53
:1045A000D012EDCF0C94112E83E50E940F8D88233D
:1045B000D9F00E94DC8CAB01BC0140937D09509383
:1045C0007E0960937F097093800940937909509325
:1045D0007A0960937B0970937C0985E195E00E94DC
:1045E000B7308AE00E94558D80E50E940F8D8823A8
:1045F00099F00E94DC8CAB01BC0140937D09509383
:104600007E0960937F097093800988EF94E00E948F
:10461000B7308AE00E94558D82E50E940F8D882375
:1046200099F00E94DC8CAB01BC014093810950934E
:104630008209609383097093840989ED94E00E9454
:10464000B7308AE00E94558D84E50E940F8D882343
:1046500011F40C94112E0E94DC8CAB01BC01409330
:10466000790950937A0960937B0970937C098BEBED
:1046700094E00E94B7308AE00E94558D0C94112E70
:1046800083E50E940F8D882351F00E94DC8C60939B
:104690009D0970939E0980939F099093A00984E5DA
:1046A0000E940F8D882351F00E94DC8C6093990941
:1046B00070939A0980939B0990939C0982E40E94CD
:1046C0000F8D882351F00E949C8C60939509709304
:1046D0009609809397099093980988E50E940F8D19
:1046E000882351F00E94DC8C6093690970936A09F9
:1046F00080936B0990936C0989E50E940F8D882344
:1047000051F00E94DC8C60936D0970936E09809368
:104710006F09909370098AE50E940F8D882351F0EC
:104720000E94DC8C60937109709372098093730905
:104730009093740985E40E940F8D882311F40C94E2
:10474000112E0E94DC8C609375097093760980931A
:104750007709909378090C94112ED5018D915D0104
:104760000E940F8D882311F10E94DC8C2B013C01EB
:10477000F70120813181428153810E949DB49B01C8
:10478000AC01D6016D917D918D919C910E949EB45A
:10479000F6016083718382839383D7014D925D928A
:1047A0006D927C921397C8010E947E620F5F1F4F2B
:1047B000B4E0CB0ED11CE4E0EE0EF11C0330110589
:1047C00061F60E94418C0E94D9910C94112EE0EB6D
:1047D000F4E284918F010F5F1F4F882321F00E9424
:1047E000558DF801F6CF83E50E940F8D882321F0C7
:1047F0000E94CD8C80934202E5E6F5E084918F0122
:104800000F5F1F4F882321F00E94558DF801F6CFCE
:1048100080914202811103C0E1E6F5E002C0EDE5BE
:10482000F5E084918F010F5F1F4F882321F00E94D4
:10483000558DF801F6CFE5E5F5E084918F010F5F26
:104840001F4F882321F00E94558DF801F6CF40912B
:10485000E60F5091E70F6091E80F7091E90F83E543
:1048600095E00E94B7304091EA0F5091EB0F6091B4
:10487000EC0F7091ED0F80E595E00E94B73040910C
:10488000EE0F5091EF0F6091F00F7091F10F8DE4EA
:1048900095E00E94B730E5E4F5E084918F010F5F69
:1048A0001F4F882321F00E94558DF801F6CF4091CB
:1048B000230250912402609125027091260283E424
:1048C00095E00E94B73040912702509128026091F4
:1048D000290270912A0280E495E00E94B73040914D
:1048E0002B0250912C0260912D0270912E028DE3CB
:1048F00095E00E94B7308AE00E94558D0C94112EED
:1049000083E50E943E8D882311F40C94112E0E94A1
:10491000AC8C7093300260932F020C94112E8DEDAD
:1049200090E00E94286381110C94112E83E50E946F
:104930003E8D882311F40C94112E0091570310E042
:104940000E94AC8C000F111FF801ED5FFD4F7183C9
:1049500060830C94112E80E50E940F8D882311F442
:104960000C94112E0E94AC8CF62EC62ED72E83E509
:104970000E943E8D882321F00E94AC8C8B0102C0E6
:104980000FEF1FEFC8010196039710F00C94112E42
:10499000D7FE02C00C94112EE5E7F5E088E28E0FF9
:1049A0009491F91611F40C94112E31968E13F8CFC0
:1049B0000C94003083E50E943E8D882319F00E94FC
:1049C000AC8C02C064E071E07F8B6E8B80E50E944E
:1049D0003E8D882339F00E94AC8C6938F3E17F0763
:1049E00030F402C068EE73E07A83698304C088E81B
:1049F00093E19A838983BE016A5E7F4FCE0101965F
:104A00000E94DAA30C94112E85E40E943E8D811140
:104A100010C080E50E940F8D882391F00E94DC8CED
:104A200060938E0F70938F0F8093900F9093910FE0
:104A300007C00E94BC8C882361F3E1E4F4E272C0F9
:104A400089E40E940F8D882381F00E94DC8C2CEA7F
:104A500035EC47E25EE30E94CAB060938A0F709320
:104A60008B0F80938C0F90938D0F84E40E940F8D99
:104A7000882381F00E94DC8C2CEA35EC47E25EE36F
:104A80000E947AB56093920F7093930F8093940F66
:104A90009093950FE0EBF4E284918F010F5F1F4F2D
:104AA000882321F00E94558DF801F6CF40918E0F9A
:104AB00050918F0F6091900F7091910F85EA95E062
:104AC0000E94B7302CEA35EC47E25EE360918A0F32
:104AD00070918B0F80918C0F90918D0F0E947AB501
:104AE000AB01BC0181EA95E00E949A302CEA35ECDA
:104AF00047E25EE36091920F7091930F8091940F63
:104B00009091950F0E94CAB0AB01BC018DE995E070
:104B10000E949A308AE00E94558D0C94112E0E94BA
:104B2000558DF80184918F010F5F1F4F8111F7CFD1
:104B300006EB12E0D8018D918D01882309F45CCB3E
:104B40000E94558DF7CF80E50E940F8D882351F08C
:104B50000E94DC8C60933D1170933E1180933F1155
:104B60009093401189E40E940F8D882381F00E9468
:104B7000DC8C2CEA35EC47E25EE30E94CAB060931D
:104B8000391170933A1180933B1190933C1184E456
:104B90000E940F8D882381F00E94DC8C2CEA35EC7A
:104BA00047E25EE30E947AB5609335117093361147
:104BB0008093371190933811E0EBF4E284918F01E8
:104BC0000F5F1F4F882321F00E94558DF801F6CF0B
:104BD00040913D1150913E1160913F1170914011F3
:104BE00081EB95E00E94B7302CEA35EC47E25EE3BA
:104BF0006091391170913A1180913B1190913C1163
:104C00000E947AB5AB01BC018DEA95E00E949A3012
:104C10002CEA35EC47E25EE3609135117091361174
:104C200080913711909138110E94CAB0AB01BC013C
:104C300089EA95E00E949A308AE00E94558DF1C77A
:104C400080917B00886080937B0081E480937C006E
:104C500080917A00806480937A0080917A0086FD4A
:104C6000FCCF609178008091790070E0782B072E5E
:104C7000000C880B990B0E946BB022EC35EF48E2D8
:104C80005FE30E947AB52CEA35EC47E257E30E94D5
:104C90009EB4AB01BC0185EB95E00E949A308AE09E
:104CA0000E94558DBEC783E50E940F8D182F882363
:104CB00071F00E94DC8C0E94E2B570930202609356
:104CC000010221E0672B09F020E02093600980E5D4
:104CD0000E940F8D882359F0209101023091020229
:104CE000232B11F00E94CD8C809360099AC711117B
:104CF00098C7E0EBF4E284918F010F5F1F4F882388
:104D000021F00E94558DF801F6CF80916009811144
:104D100003C06EEA72E002C061EA72E084ED95E0E1
:104D20000E943031609101027091020283EC95E0A3
:104D30000E94FB30EFEBF5E084918F010F5F1F4F76
:104D4000882309F46EC70E94558DF801F5CF85E4DC
:104D50000E943E8D882321F00E94AC8C1B0102C072
:104D6000212C312C83E40E943E8D882339F00E944F
:104D7000AC8CE5967FAF6EAFE59706C0E5E0F0E05E
:104D8000E596FFAFEEAFE59785E50E940F8DA896FB
:104D90008FAFA897882329F00E94CD8CA8968FAF5B
:104DA000A89737FC07C0C12CD12C56E1E52E53E45F
:104DB000F52E06C0C12CD12C4CE8E42E42E4F42E92
:104DC00083E50E943E8D882321F00E94DC8C6B01DC
:104DD0007C012114310411F4109257030E940E66D5
:104DE0002B013C01DC01CB018C53964FAF4FBF4FE1
:104DF0008093960F9093970FA093980FB093990F6D
:104E0000C1010196029718F407EC12E00BC00AEDFD
:104E100012E0D8018D918D01882309F4EDC90E941B
:104E2000558DF7CFF80181918F01882319F00E94E9
:104E3000558DF8CF8AE00E94558D0E94B76A8FE7A2
:104E4000FFEF2F163F0619F48093591002C080938C
:104E50005A10C701B6010E94E2B5072E000C880B5C
:104E6000990B0E946BB06EAF7FAF21968FAF2197E9
:104E700022969FAF229781E080930002E3964CAE8A
:104E80005DAE6EAE7FAEE397A7964CAE5DAE6EAEF6
:104E90007FAEA79723961FAE239720E424962FAFCB
:104EA00024973CE128963FAF289746E42C964FAFD5
:104EB0002C9760961FAE609764961FAE64976896B5
:104EC0001FAE68976C961FAE6C971AAE1BAE1CAEE9
:104ED0001DAE1EAA1FAA18AE19AEC12CD12C760188
:104EE0003FE7832E912CA12CB12C8FE790E0A0E01E
:104EF000B0E08EA79FA7A8ABB9ABA3961CAE1DAE22
:104F00001EAE1FAEA39791E0AC969FAFAC971BAAC5
:104F10001AAA1EA21AA600E010E0809100028823BF
:104F200009F430C20E940E666AA37BA38CA39DA3E2
:104F300080915710882309F408C10E94CB6AAFEF13
:104F40002A163A0659F4B0914810BEA3E0914910D0
:104F5000EAA700914A1010914B100AC0F0915C1022
:104F6000FEA320915D102AA700915E1010915F10A2
:104F70002EA13AA5A80160966FAD609764967FADAB
:104F8000649768968FAD68976C969FAD6C970E94FA
:104F900065B087FF0EC03EA160963FAF60974AA5FF
:104FA00064964FAF649768960FAF68976C961FAF83
:104FB0006C972EA13AA5A80123966FAD239724964E
:104FC0007FAD249728968FAD28972C969FAD2C9770
:104FD0000E94C4B6181674F45EA123965FAF23979F
:104FE0008AA524968FAF249728960FAF28972C96E2
:104FF0001FAF2C978091960F9091970FA091980FCB
:10500000B091990F2AA13BA14CA15DA1281B390B9E
:105010004A0B5B0B57FD12C00E94ED448AA19BA175
:10502000ACA1BDA18C53964FAF4FBF4F8093960F4D
:105030009093970FA093980FB093990FAC963FADB4
:10504000AC972EAD332309F45CC03FAD21964FAD34
:10505000219722965FAD22976EA17AA5C8010E9482
:10506000C4B618160CF071C04AA15BA16CA17DA159
:105070004419550966097709DB01CA01885893412B
:10508000A109B109B7FD61C08EA59FA5A8A9B9A9BD
:1050900088199909AA09BB09B595A7959795879588
:1050A000EFEF2E163E0619F48093591002C080933C
:1050B0005A10A3964CAF5DAF6EAF7FAFA397FEAD16
:1050C0006096FFAF60972FAD64962FAF64972196DF
:1050D0003FAD219768963FAF689722964FAD2297D4
:1050E0006C964FAF6C978AA19BA1ACA1BDA1E39632
:1050F0008CAF9DAFAEAFBFAFE397AC961FAEAC9792
:1051000024C03FAD21964FAD219722965FAD2297E7
:105110006EA17AA5C8010E9465B087FF16C08AA15A
:105120009BA1ACA1BDA1E3962CAD3DAD4EAD5FAD55
:10513000E397821B930BA40BB50BAC01BD01485840
:1051400053416109710977FFF5C520E030E040EA7D
:1051500051E46EAD7FAD21968FAD219722969FAD24
:1051600022970E949EB49B01AC016EA17AA5C80152
:105170000E94C4B618166CF4E4EAF6E084918F013C
:105180000F5F1F4F882309F44CC50E94558DF8010D
:10519000F5CF80E398EFAFEFBFEFA7962CAD3DAD15
:1051A0004EAD5FADA797821B930BA40BB50B2AA145
:1051B0003BA14CA15DA1820F931FA41FB51FB7FD9A
:1051C0000FC00E9439948AE00E94558D8AA19BA14C
:1051D000ACA1BDA1A7968CAF9DAFAEAFBFAFA79757
:1051E0008AA19BA1ACA1BDA1880F991FAA1FBB1FBB
:1051F000E3962CAD3DAD4EAD5FADE397821B930BB7
:10520000A40BB50B84199509A609B70981389F44E9
:10521000A241B10568F0E6E8F6E084918F010F5FE6
:105220001F4F882309F4FDC40E94558DF801F5CF66
:105230004AA95BA9E5968EAD9FADE59784179507C2
:105240000CF06BCEE9E2F6E084918F010F5F1F4F07
:10525000882321F00E94558DF801F6CF9FEF291683
:10526000390619F008E213E002C002EB12E0B801BF
:1052700087E196E0F5D7B701A60183E196E077D7FD
:105280008AE00E94558DB80181E096E0E9D74EA9E9
:105290005FA968AD79AD8DEF95E069D78AE00E948E
:1052A000558DB8018BEE95E0DBD74AAD5BAD6CADAB
:1052B0007DAD87EE95E05BD78AE00E94558DA8967C
:1052C000AFADA897AA2309F4ACC42320209469F5B4
:1052D000C0923D11D0923E11E0923F11F0924011E8
:1052E0002CEA35EC47E25EE36EA97FA988AD99AD63
:1052F0000E94CAB06093391170933A1180933B11A8
:1053000090933C112CEA35EC47E25EE36AAD7BAD4D
:105310008CAD9DAD0E947AB56093351170933611B6
:1053200080933711909338117CC4C0928E0FD09225
:105330008F0FE092900FF092910F2CEA35EC47E23C
:105340005EE36EA97FA988AD99AD0E94CAB0609353
:105350008A0F70938B0F80938C0F90938D0F2CEA94
:1053600035EC47E25EE36AAD7BAD8CAD9DAD0E944E
:105370007AB56093920F7093930F8093940F9093EC
:10538000950F4FC48091000281114BC40E94B76AEF
:1053900048C481E00E94C86144C480E00E94C861A2
:1053A00040C40E945A913DC4F101EE5AF141FBA361
:1053B000EAA3D1018D911D01882309F49AC0F70158
:1053C0004080518062807380F801ED5DFD4F208147
:1053D000318142815381F801EA51F04F608171813E
:1053E000828193810E949EB420E030E040E05FE340
:1053F0000E94CAB09B01AC01C301B2010E94C4B6B5
:10540000181644F4F801EA55FC4E85909590A59045
:10541000B49003C0812C912C5401F801E35BFE4E43
:105420002081318142815381C301B2010E949DB428
:105430009B01AC01C501B4010E949DB44B015C010C
:1054400020E030E040EA51EC0E94C4B687FD29C05C
:1054500020E030E040EA51E4C501B4010E9465B0AB
:105460001816FCF0D6012D913D914D915C91C5012E
:10547000B4010E949DB49B01AC01C301B2010E9422
:105480009EB4F7016083718382839383D6018D92EA
:105490009D92AD92BC9213978AA19BA10E947E62BD
:1054A00028C0E1E4F4E284918F010F5F1F4F88234D
:1054B00021F00E94558DF801F6CFE8E1F7E08491E4
:1054C0008F010F5F1F4F882321F00E94558DF80137
:1054D000F6CF88E290E09A83898388EC90E09F8BF6
:1054E0008E8BBE016F5F7F4FCE0146960E94DAA37E
:1054F00098C3B4E0CB0ED11C0C5F1F4FE4E0EE0E5E
:10550000F11C0C30110509F04FCF0E94418C0E9414
:10551000D99183E992E09F8B8E8B04E610E01A8389
:105520000983BE016A5E7F4FCE0101960E94DAA315
:105530008AEB92E09F8B8E8B1A830983BE016A5E91
:105540007F4FCE0101960E94DAA36BC30E941280A6
:1055500068C30E942A7B65C30E94089A62C383E5E0
:105560000E940F8D882319F00E94CD8C01C081E02C
:1055700091E089270E94119654C3E0EBF4E28491F4
:105580008F010F5F1F4F882321F00E94558DF80176
:10559000F6CFE0E5F7E084918F010F5F1F4F88237E
:1055A00011F40C94EA200E94558DF801F4CF0E946A
:1055B000DC8C6B017C0120E030E040EA51EC0E9481
:1055C000C4B687FD1BC020E030E040EA51E4C701CB
:1055D000B6010E9465B018168CF0C0924911D092A5
:1055E0004A11E0924B11F0924C11C0923602D092C7
:1055F0003702E0923802F09239020AC1E9E3F7E09B
:1056000084918F010F5F1F4F882311F40C94FC20AD
:105610000E94558DF801F4CF0E94C8468BE40E9489
:105620003E8D882399F00E94DC8C6B017C0120E088
:1056300030E0A9010E94C4B687FD08C0C092650988
:10564000D0926609E0926709F092680982E50E94AB
:105650003E8D882361F00E94DC8C6B017C0120E090
:1056600030E0A9010E9465B087FF89C006C0C12C47
:10567000D12C40E8E42E4FEBF42E84E40E943E8DC2
:10568000882329F00E94DC8C4B015C0106C0812C30
:10569000912C30E8A32E3FEBB32E87E50E943E8D80
:1056A000882329F00E94DC8C2B013C0106C0412C90
:1056B000512C20E8622E2FEB722E88E40E943E8D42
:1056C000882339F00E94DC8C6AA37BA38CA39DA362
:1056D00008C020E030E040E85FEB2AA33BA34CA3E6
:1056E0005DA320E030E0A901C501B4010E94C4B669
:1056F00087FD45C020E030E0A901C301B2010E944E
:10570000C4B687FD3CC020E030E0A9016AA17BA1BE
:105710008CA19DA10E94C4B687FD31C020E030E07D
:10572000A901C501B4010E9465B0882391F120E070
:1057300030E040E05FE3C501B4010E94CAB06B01F4
:105740007C012AA13BA14CA15DA1C301B2010E9431
:10575000CAB04B015C01A7019601C701B6010E94C6
:10576000CAB02BED3FE049E450E40E94CAB09B016F
:10577000AC01C501B4010E947AB56B017C0120E047
:1057800030E0A901C701B6010E94C4B687FF04C07A
:105790000BC0C12CD12C7601C0926109D092620954
:1057A000E0926309F0926409E0EBF4E284918F01E6
:1057B0000F5F1F4F882321F00E94558DF801F6CF0F
:1057C0004091650950916609609167097091680977
:1057D00085E697E0CCD4EFE5F7E084918F010F5F89
:1057E0001F4F882321F00E94558DF801F6CFC090FD
:1057F0006109D0906209E0906309F090640920E0AB
:1058000030E0A901C701B6010E9465B0882339F0D4
:1058100042E0C701B6010E94928F0C94FC20EAE599
:10582000F7E084918F010F5F1F4F882311F40C94D0
:10583000FC200E94558DF801F4CF83E50E940F8D66
:10584000811106C09FE4E92E92E0F92E10E012C00B
:105850000E94DC8C6B017C0110E0B701A601812F56
:105860000E943C461F5F1530C1F7ECCF1F5F14301C
:1058700009F4D7C1D7018D917D010E940F8D882336
:10588000A9F30E94DC8CAB01BC01812F0E943C4635
:10589000EDCF83E50E943E8D882329F00E94AC8CD9
:1058A000162F072F02C010E000E080E50E943E8D19
:1058B000882319F00E94BC8C01C08FEF9091160ACA
:1058C000992309F4AEC1E82FF0E0E55BFD4FE081DC
:1058D000F0E0EE0FFF1FE25FF54F812F902F813038
:1058E000B0E19B0710F080E090E1918380830E94FB
:1058F0009AA088E00E948AA094C18091160A882309
:1059000009F48FC1E0EBF4E284918F010F5F1F4F28
:10591000882321F00E94558DF801F6CFEFE8F7E0DB
:1059200084918F010F5F1F4F882321F00E94558DB6
:10593000F801F6CFE0EBF4E284918F010F5F1F4F87
:10594000882321F00E94558DF801F6CF6091120A4C
:105950007091130A80E090E00E9469B020E030E08E
:1059600048EC52E40E94CAB020E030E040E859E33D
:105970000E94CAB0AB01BC018BE897E0F8D380E08D
:105980000E941C46AB01BC0188E897E0F0D360910F
:10599000140A7091150A80E090E00E9469B020E03E
:1059A00030E048EC52E40E94CAB020E030E040E829
:1059B00059E30E94CAB0AB01BC0183E897E0D7D39A
:1059C00081E00E941C46AB01BC0180E897E0CFD388
:1059D00060910E0A70910F0A80E090E00E9469B019
:1059E00020E030E048EC52E40E94CAB020E030E011
:1059F00040E859E30E94CAB0AB01BC018BE797E0D5
:105A0000B6D382E00E941C46AB01BC0188E797E058
:105A1000AED36091100A7091110A80E090E00E946C
:105A200069B020E030E048EC52E40E94CAB020E0C7
:105A300030E040E859E30E94CAB0AB01BC0183E703
:105A400097E095D383E00E941C46AB01BC0180E740
:105A500097E08DD303E013E0F80181918F01882353
:105A600011F40C94FC200E94558DF6CF8091160AFB
:105A7000882309F4D6C00E94E3A0D3C080E50E9429
:105A80003E8D882331F00E94BC8C8093180A11E06F
:105A900001C010E083E50E943E8D882329F00E941A
:105AA000CD8C8093190A01C011110E944A91E0EB3C
:105AB000F4E284918F010F5F1F4F882321F00E9431
:105AC000558DF801F6CF8091190A81110CC005E0BF
:105AD00013E0D8018D918D01882311F40C94FC20E2
