:100000000C9473120C94A4120C94A4120C94A412C9
:100010000C94A4120C94A4120C94A4120C94A41288
:100020000C94A4120C94A4120C94A4120C94A41278
:100030000C94A4120C94A4120C94A4120C94A41268
:100040000C94A4120C94F7590C94A4120C94A412BE
:100050000C94A4120C94A4120C944F680C94476551
:100060000C94A4120C94BA4A0C94A4120C94A412EA
:100070000C94A4120C94A4120C94A4120C94A41228
:100080000C94A4120C94A4120C94A4120C94A41218
:100090000C94A4120C94A4120C94A4120C949165C8
:1000A0000C94A4120C94A4120C94A4120C94A412F8
:1000B0000C94A4120C94A4120C94A4120C94A412E8
:1000C0000C94A4120C94A4120C94A4120C94A412D8
:1000D0000C94A4120C94A4120C94A4120C94A412C8
:1000E0000C94A412ED4AF44A084B154B1F4B3A4BA3
:1000F000244B3A4B294B2E4B3A4B364B9663996324
:1001000088638C639263D0639D63A163A763AB63D1
:10011000AF63B563B963BD63D063C363C763CB63C8
:10012000636468646D6477648164FA648B64936467
:100130009B64A564AF64B964C864D264FA64DC6487
:10014000E664F064084AD73B3BCE016E84BCBFFD39
:10015000C12F3D6C74319ABD56833DDA3D00C77F97
:1001600011BED9E4BB4C3E916BAAAABE0000008030
:100170003F05A84CCDB2D44EB93836A9020C50B9BF
:10018000918688083CA6AAAA2ABE000000803F00EB
:100190004C4556454C494E4700434F4D4D554E49F1
:1001A000434154494F4E0044525952554E00455216
:1001B000524F525300494E464F004543484F00208E
:1001C000746F6F206C6F6E672065787472757369D9
:1001D0006F6E2070726576656E7465640A002063C8
:1001E0006F6C6420657874727573696F6E207072BD
:1001F0006576656E7465640A0047322F4733206266
:10020000616420706172616D65746572730A004784
:10021000322F47332062616420706172616D6574B2
:100220006572730A00205A3A200020593A20004291
:10023000656420583A20002569730025696D2025E2
:100240006973002569682025696D2025697300257B
:100250006964202569682025696D2025697300255A
:10026000697920256964202569682025696D202524
:100270006973005072696E742074696D653A20006C
:10028000BA01B501AE01A701990190016F66660040
:1002900044454255473A004361703A454D455247FF
:1002A000454E43595F5041525345523A310A00433B
:1002B00061703A434153455F4C494748545F42524D
:1002C000494748544E4553533A310A004361703A06
:1002D000544F47474C455F4C49474854533A310ABD
:1002E000004361703A534F4654574152455F504F57
:1002F0005745523A300A004361703A4C4556454CD6
:10030000494E475F444154413A310A004361703AD3
:100310005A5F50524F42453A310A004361703A41A8
:1003200055544F4C4556454C3A310A004361703A9A
:100330005052494E545F4A4F423A310A004361706D
:100340003A50524F47524553533A300A0043617076
:100350003A4155544F5245504F52545F54454D50B9
:100360003A310A004361703A454550524F4D3A3197
:100370000A004649524D574152455F4E414D453A5C
:100380004D61726C696E204D61726C696E5F312EC9
:10039000312E365F526F626F56657273696F6E5F92
:1003A000312E322E30202847697468756229205317
:1003B0004F555243455F434F44455F55524C3A6851
:1003C000747470733A2F2F6769746875622E636F47
:1003D0006D2F526F626F33442F4D61726C696E20C6
:1003E00050524F544F434F4C5F56455253494F4E16
:1003F0003A312E30204D414348494E455F545950C3
:10040000453A526F626F204332204558545255444A
:1004100045525F434F554E543A3120555549443A61
:1004200063656465326132662D343161322D343753
:1004300034382D396231322D6335356336326633C7
:10044000363766660A007A5F6D61783A20007A5F17
:100450006D696E3A2000795F6D61783A2000785FAF
:100460006D696E3A20005265706F7274696E672014
:10047000656E6473746F70207374617475730A00B1
:1004800053657474696E672054726176656C20419F
:100490006363656C65726174696F6E3A20005365C1
:1004A0007474696E6720526574726163742041636D
:1004B00063656C65726174696F6E3A200053657490
:1004C00074696E67205072696E7420416363656C55
:1004D00065726174696F6E3A200053657474696E59
:1004E00067205072696E7420616E64205472617668
:1004F000656C20416363656C65726174696F6E3A07
:100500002000205A00205900580020204D61783AE0
:100510002000205A00205900580020204D696E3AD2
:1005200020004F6E20004F666600536F6674206592
:100530006E6473746F70733A2000000136372603BF
:10054000FF3C3D38FF0E2E303E1312FFFF0807061A
:10055000FF061A1C18FFFF08440A0B43FFFFFFFFAA
:10056000FFFF20643A0020693A0020703A002064BE
:100570003A0020693A0020703A0043757272656E45
:10058000743A200043290A0061626C656420286D7A
:10059000696E2074656D702000436F6C642065780F
:1005A0007472756465732061726520004B6420006D
:1005B00023646566696E65202044454641554C5468
:1005C0005F004B69200023646566696E65202044E6
:1005D000454641554C545F004B70200023646566CE
:1005E000696E65202044454641554C545F00504992
:1005F00044204175746F74756E652066696E697309
:10060000686564212050757420746865206C61737E
:1006100074204B702C204B6920616E64204B642049
:10062000636F6E7374616E74732066726F6D206297
:10063000656C6F7720696E746F20436F6E666967B3
:1006400075726174696F6E2E680A005049442041CA
:1006500075746F74756E65206661696C65642120C0
:1006600074696D656F75740A005049442041757452
:100670006F74756E65206661696C656421205465D0
:100680006D706572617475726520746F6F20686932
:1006900067680A00204B643A2000204B693A20002A
:1006A000204B703A20000A20436C61737369632009
:1006B000504944200A002054753A2000204B753AD6
:1006C0002000206D61783A2000206D696E3A20008C
:1006D00020643A200020626961733A2000546F6FF1
:1006E000206661722066726F6D2072656665726544
:1006F0006E636520706F696E740A003A20007A5F3D
:100700006D696E3A20202D3230207A5F6D61783A23
:1007100020203230005A204F6666736574200041F5
:1007200075746F0020452F443D00416476616E630F
:1007300065204B3D002028002920453A0020280054
:1007400029205A3A002028002920593A0020280060
:1007500020583A0053746570706572206375727228
:10076000656E742076616C75657320696E20252036
:1007700028416D7073293A0A0043617365206C69E2
:100780006768743A2000416374697665204578741F
:1007900072756465723A20003C3C3C2067636F646C
:1007A000655F540A00203A2041465445520A002011
:1007B0002063757272656E745F706F736974696FB0
:1007C0006E3D00203A204245464F52450A00202007
:1007D00063757272656E745F706F736974696F6E42
:1007E0003D003E3E3E2067636F64655F54280055C0
:1007F0006E6B6E6F776E20636F6D6D616E643A2005
:10080000220020746F6F206C6F6E672065787472A1
:100810007573696F6E2070726576656E7465640AB3
:100820000020636F6C6420657874727573696F6EF5
:100830002070726576656E7465640A0000002000A1
:100840002300260029002C002F00320000010000A8
:100850000301060109010505050507050808080843
:10086000020202020A0A0808040404040101010148
:100870000101010103030303030303030407070743
:100880000C0C0C0C0C0C0C0C0202020206060606E8
:10089000060606060B0B0B0B0B0B0B0B01021020B5
:1008A00020080810204010204080020102010804A6
:1008B000020101020408102040808040201008043A
:1008C0000201800402018040201008040201080493
:1008D00002010102040810204080010204081020D7
:1008E000408000000A0B02090C0D0E0807030401EA
:1008F00000000000000000000000000000000000F8
:1009000000000000000000000000000000001211C4
:1009100010000000000000000000000000000000C7
:1009200000000000000000004B494C4C45442E20C4
:1009300000202D20496E76616C69642065787472A0
:1009400075646572206E756D62657220210A0020E3
:1009500020506C616E6E6572427566666572427992
:100960007465733A20002046726565204D656D6F91
:1009700072793A2000436F6D70696C65643A204467
:10098000656320313220323031370A00207C20412B
:100990007574686F723A20526F626F0A003230319C
:1009A000372D31312D30352031323A303000204C66
:1009B00061737420557064617465643A20004D6100
:1009C000726C696E5F312E312E365F526F626F56D8
:1009D000657273696F6E5F312E322E300A004D6181
:1009E000726C696E0020536F667477617265205275
:1009F000657365740A00205761746368646F6720CB
:100A000052657365740A002042726F776E206F75AD
:100A1000742052657365740A002045787465726E9F
:100A2000616C2052657365740A00506F776572556A
:100A3000700A0073746172740A00205A3A002059D7
:100A40003A0020583A00656E6473746F70732068C2
:100A500069743A20004B494C4C45442E20002C2010
:100A6000002C2000203A2073796E635F706C616EF9
:100A70005F706F736974696F6E0A0020206375720E
:100A800072656E745F706F736974696F6E3D006537
:100A90006E7175657565696E672022004E6F204C1A
:100AA000696E65204E756D62657220776974682085
:100AB000636865636B73756D2C204C617374204C97
:100AC000696E653A20005072696E746572207374A5
:100AD0006F707065642064756520746F2065727234
:100AE0006F72732E20466978207468652065727273
:100AF0006F7220616E6420757365204D393939201D
:100B0000746F20726573746172742E202854656D41
:100B100070657261747572652069732072657365A2
:100B2000742E205365742069742061667465722088
:100B300072657374617274696E67290A004E6F2062
:100B4000436865636B73756D2077697468206C69A1
:100B50006E65206E756D6265722C204C6173742019
:100B60004C696E653A2000636865636B73756D2030
:100B70006D69736D617463682C204C617374204CD3
:100B8000696E653A20004C696E65204E756D626530
:100B900072206973206E6F74204C617374204C69ED
:100BA0006E65204E756D6265722B312C204C617321
:100BB00074204C696E653A20004D31313000204977
:100BC0006E76616C696420657874727564657220F4
:100BD000000000000000000000000000000000FE17
:100BE000420000FE42000020430A20736F66745FDB
:100BF000656E6473746F705F6D6178203D20000ACC
:100C000020736F66745F656E6473746F705F6D6977
:100C10006E203D20000A20706F736974696F6E5FEB
:100C20007368696674203D200020617869733A0A10
:100C300020686F6D655F6F6666736574203D200088
:100C4000466F7220003C3C3C20646F5F626C6F63B7
:100C50006B696E675F6D6F76655F746F0A003E3E0D
:100C60003E20646F5F626C6F636B696E675F6D6F70
:100C700076655F746F00526573656E643A20006F2D
:100C80006B00627573793A207061757365642066D4
:100C90006F7220696E7075740A00627573793A20FC
:100CA00070617573656420666F7220757365720A72
:100CB00000627573793A2070726F63657373696E41
:100CC000670A004B494C4C45442E20004B494C4C84
:100CD00020636175736564206279204B494C4C2018
:100CE000627574746F6E2F70696E0A004B494C4CBC
:100CF00045442E20004B494C4C206361757365645C
:100D000020627920746F6F206D75636820696E6151
:100D100063746976652074696D65202D2063757232
:100D200072656E7420636F6D6D616E643A20005061
:100D300072696E7465722068616C7465642E206BD4
:100D4000696C6C28292063616C6C6564210A000061
:100D50000000000000FE42000020433C3C3C2073A9
:100D600065745F617869735F69735F61745F686FF1
:100D70006D652800203A200A002020637572726594
:100D80006E745F706F736974696F6E3D005D203DB6
:100D900020003E20686F6D655F6F66667365745BEB
:100DA000003E3E3E207365745F617869735F6973CE
:100DB0005F61745F686F6D65280000005C42000031
:100DC0005C4200004041000000005761726E696E95
:100DD000673A20486F6D696E672042756D702044D8
:100DE000697669736F72203C20310A0002020400A8
:100DF00000A0400000A040000000400000FE4200B3
:100E000000FE42000020433C3C3C20686F6D656161
:100E10007869732800203A203E20414654455220EC
:100E20007365745F617869735F69735F61745F682C
:100E30006F6D650A00202063757272656E745F7055
:100E40006F736974696F6E3D00486F6D6520322065
:100E5000536C6F773A0A004D6F7665204177617960
:100E60003A0A00486F6D65203120466173743A0A72
:100E700000FF01013E3E3E20686F6D656178697339
:100E800028004572726F722077726974696E6720EC
:100E9000746F20454550524F4D210A0024F4D43040
:100EA00050C38E20C2A24017828B7011127A910D0E
:100EB000816CD90AA861E108C758660761514306E9
:100EC0001E4B5D05C145A7041A411104093D980355
:100ED000713931034036DB0265339102D43054025C
:100EE000802E1D02632CEE01752AC501B028A001D9
:100EF000102781018F2564012B244B01E02234014E
:100F0000AC211F018D200D01801FFC00841EED000F
:100F1000971DDF00B81CD200E61BC600201BBC00DA
:100F2000641AB200B219A8000A19A0006A18990040
:100F3000D117910040178B00B516840031167E0042
:100F4000B31579003A157300C7146F0058146A007E
:100F5000EE1366008813630025135E00C7125B0062
:100F60006C12570015125400C111510070114F003E
:100F700021114B00D61049008D1047004610440047
:100F800002104200C00F4000800F3E00420F3C00A4
:100F9000060F3B00CB0E3800930E37005C0E350079
:100FA000270E3400F30D3200C10D3100900D3000DA
:100FB000600D2E00320D2D00050D2C00D90C2B00DC
:100FC000AE0C2900850C29005C0C2700350C27008D
:100FD0000E0C2600E80B2400C40B2400A00B2300F9
:100FE0007D0B23005A0B2100390B2100180B200028
:100FF000F80A1F00D90A1E00BB0A1E009D0A1D0028
:10100000800A1D00630A1C00470A1B002C0A1B00F3
:10101000110A1A00F7091A00DD091900C40919009C
:10102000AB091900920917007B0918006309170022
:101030004C09160036091600200916000A09150089
:10104000F5081500E0081400CC081400B8081400D6
:10105000A4081400900813007D0812006B08130008
:101060005808120046081200340811002308110025
:101070001208110001081100F0071000E00710002D
:10108000D0071000C0071000B0070F00A107100024
:1010900091070E0083070F0074070F0065070E000D
:1010A00057070E0049070E003B070D002E070E00E4
:1010B00020070D0013070D0006070D00F9060C00B0
:1010C000ED060D00E0060C00D4060C00C8060C006E
:1010D000BC060C00B0060C00A4060B0099060C0020
:1010E0008D060B0082060B0077060B006C060B00CA
:1010F00061060A0057060B004C060A0042060A0069
:1011000038060A002E060A0024060A001A060A00FB
:101110001006090007060A00FD050900F40509008C
:10112000EB050900E2050900D9050900D005090011
:10113000C7050900BE050900B5050800AD05080092
:10114000A50509009C050800940508008C05080009
:10115000840508007C050800740508006C0507007C
:10116000650508005D050700560508004E050700E7
:10117000470507004005080038050700310507004E
:101180002A050700230507001C05060016050700B1
:101190000F0507000805060002050700FB0406000E
:1011A000F5040700EE040600E8040600E204070068
:1011B000DB040600D5040600CF040600C9040600BF
:1011C000C3040600BD040600B7040600B104050010
:1011D000AC040600A6040600A00405009B0406005B
:1011E00095040500900406008A04050085040500A6
:1011F000800406007A0405007504050070040500EB
:101200006B04050066040500610405005C0405002C
:1012100057040500520405004D040500480405006C
:10122000430405003E0404003A04050035040500AB
:10123000300404002C0405002704040023040500E6
:101240001E0404001A04040016040500110404001E
:101250000D04040009040500040404000004040053
:10126000FC030400F8030400F4030400F00304008A
:10127000EC030400E8030400E4030400E0030400BA
:10128000DC030400D8030400D4030400D0030400EA
:10129000CC030400C8030300C503030024F404D9ED
:1012A000201BC40C5C0E9804C4095F026507710121
:1012B000F405F900FB04B30048048700C10369008A
:1012C0005803550003034500BE023A008402310072
:1012D00053022A002902250004022000E4011C0018
:1012E000C8011900AF011700980114008401130010
:1012F000710110006101100051010E0043010D0049
:1013000036010B002B010B0020010B001501090019
:101310000C01090003010800FB000800F3000800AD
:10132000EB000700E4000600DE000600D80006001F
:10133000D2000600CC000500C7000500C200050071
:10134000BD000400B9000400B5000400B1000400B1
:10135000AD000400A9000400A5000300A2000300E2
:101360009F0004009B00030098000300950002000A
:1013700093000300900003008D0002008B00030027
:101380008800020086000200840003008100020041
:101390007F0002007D0002007B0002007900020055
:1013A0007700010076000200740002007200010064
:1013B000710002006F0002006D0001006C0002006D
:1013C0006A00010069000200670001006600010078
:1013D000650001006400020062000100610001007C
:1013E000600001005F0002005D0001005C00010080
:1013F0005B0001005A000100590001005800010083
:101400005700010056000100550001005400010082
:101410005300000053000100520001005100010080
:10142000500001004F0001004E0000004E0001007E
:101430004D0001004C0001004B0000004B0001007A
:101440004A00010049000100480000004800010076
:101450004700010046000000460001004500000072
:10146000450001004400010043000000430001006A
:101470004200000042000100410000004100010064
:10148000400001003F0000003F0001003E0000005E
:101490003E0001003D0000003D0001003C00000056
:1014A0003C0000003C0001003B0000003B0001004C
:1014B0003A0000003A000100390000003900010044
:1014C000380000003800000038000100370000003C
:1014D0003700010036000000360000003600010031
:1014E0003500000035000000350001003400000028
:1014F000340000003400010033000000330000001D
:101500003300010032000000320000003200010010
:101510003100000031000000310001003000000007
:1015200030000000300001002F0000002F000000FC
:101530002F0000002F0001002E0000002E000000F0
:101540002E0001002D0000002D0000002D000000E5
:101550002D0001002C0000002C0000002C000000D9
:101560002C0001002B0000002B0000002B000000CD
:101570002B0001002A0000002A0000002A000000C1
:101580002A000100290000002900000029000000B5
:1015900029000000290001002800000028000000A8
:1015A000280000002800000028000100270000009B
:1015B000270000002700000027000000270001008E
:1015C0002600000026000000260000002600000083
:1015D0002600010025000000250000002500000075
:1015E0002500000025000000250001002400000067
:1015F000240000002400000024000000240001005A
:10160000230000002300000023000000230000004E
:10161000230000002300000023000100220000003E
:101620002200000022000000220000002200000032
:101630002200010021000000210000002100000024
:101640002100000021000000210000002100010015
:10165000200000002000000020000000200000000A
:1016600020000000200000002000000020000100F9
:101670001F0000001F0000001F0000001F000000EE
:101680001F0000001F0000001F0001001E000000DE
:101690001E0000001E0000001E0000000B0BFFFFDC
:1016A000FF00000202026265640A002C2073797355
:1016B00074656D2073746F70706564212048656176
:1016C0007465725F49443A200048656174696E67C9
:1016D000206661696C65640048656174696E6720A5
:1016E0006661696C65640070012C0190012701B08E
:1016F000012201C0011D01F0011801100213013087
:10170000020E016002090190020401C002FF000004
:1017100003FA004003F5008003F000D003EB002043
:1017200004E6007004E100E004DC004005D700C0DE
:1017300005D2004006CD00D006C8008007C30030A7
:1017400008BE00F008B900C009B400B00AAF00B08C
:101750000BAA00D00CA500000EA000500F9B00C0EB
:101760001096005012910000148C00C0158700B034
:10177000178200B0197D00D01B7800001E73004056
:10178000206E0090226900F024640040275F0090E2
:10179000295A00E02B5500102E500020304B00102D
:1017A000324600E033410090353C0010373700707E
:1017B000383200A0392D00B03A2800A03B23006049
:1017C0003C1E00103D1900903D1400103E0F0070AB
:1017D0003E0A00C03E0500003F0000403FFBFF8086
:1017E0003FF6FFC03FF1FF4572723A204D494E541B
:1017F000454D50004D494E54454D50207472696717
:101800006765726564004572723A204D41585445CF
:101810004D50004D415854454D50207472696767D2
:10182000657265640000002100240027002A002D55
:10183000003000330001010000040107010A01002B
:10184000002200250028002B002E00310034000269
:10185000010000050108010B013C3C3C2067636F5F
:1018600064655F4732390A00203A204732392063E5
:101870006F727265637465642058595A0A0020209B
:1018800063757272656E745F706F736974696F6E81
:101890003D00202044697363726570616E63793A1C
:1018A0000020204D61747269783A005A2066726F88
:1018B0006D2050726F62653A00203A20473239201D
:1018C000756E636F727265637465642058595A0A45
:1018D00000202063757272656E745F706F73697437
:1018E000696F6E3D000A0A426564204C6576656C3E
:1018F00020436F7272656374696F6E204D617472FC
:1019000069783A00202B000A436F72726563746530
:101910006420426564204865696768742076732E88
:101920002042656420546F706F6C6F67793A0A00CB
:10193000202B000A4265642048656967687420545A
:101940006F706F6772617068793A0A2020202B2DC2
:101950002D2D204241434B202D2D2B0A2020207C71
:1019600020202020202020202020207C0A204C2005
:101970007C20202020282B29202020207C20520A77
:101980002045207C20202020202020202020207C7A
:1019900020490A2046207C20282D29204E20282B53
:1019A00029207C20470A2054207C20202020202031
:1019B00020202020207C20480A2020207C2020205D
:1019C00020282D29202020207C20540A2020207C23
:1019D00020202020202020202020207C0A202020C1
:1019E0004F2D2D2046524F4E54202D2D2B0A2028AE
:1019F000302C30290A004D65616E206F66207361BE
:101A00006D706C656420706F696E74733A2000208D
:101A1000643A200020623A200045716E20636F65B1
:101A20006666696369656E74733A20613A200020C6
:101A30003A203E2070726F62696E6720636F6D702E
:101A40006C6574650A00202063757272656E745F40
:101A5000706F736974696F6E3D0052756E6E696E5A
:101A60006720696E204452592D52554E206D6F6487
:101A7000650A00473239204175746F204265642041
:101A80004C6576656C696E670A0028422961636B54
:101A900000284629726F6E7400285229696768749D
:101AA00000284C29656674003F4E756D6265722092
:101AB0006F662070726F626520706F696E7473203C
:101AC000697320696D706C61757369626C6520283B
:101AD00032206D696E696D756D292E0A003F28569A
:101AE000296572626F7365206C6576656C20697319
:101AF00020696D706C61757369626C652028302D8A
:101B000034292E0A00203A203E3E3E2067636F644F
:101B1000655F4732390A00202063757272656E7402
:101B20005F706F736974696F6E3D00290A002062EF
:101B3000797465733B206372632000536574746924
:101B40006E67732053746F726564202800202863C9
:101B5000616C63756C6174656429210A0020213D04
:101B60002000454550524F4D20435243206D69732C
:101B70006D61746368202D202873746F7265642909
:101B80002000290A002062797465733B2063726328
:101B900020002073746F7265642073657474696EBD
:101BA0006773207265747269657665642028002009
:101BB0004D61726C696E3D563431290A00284545E5
:101BC00050524F4D3D00454550524F4D2076657265
:101BD00073696F6E206D69736D6174636820005066
:101BE000726F6265204F6666736574206973205A50
:101BF0003A200050726F7465637465642050696E9A
:101C00000A005374616E6461726420446576696190
:101C100074696F6E3A20002052616E67653A200049
:101C2000204D61783A2000204D696E3A20004D65C4
:101C3000616E3A200046696E6973686564210A0026
:101C40002072616E67653A2000206D61783A20004D
:101C5000206D696E3A2000207369676D613A20003B
:101C6000206D65616E3A20003A207A3A2000206F9C
:101C7000662000205A00205900205800476F696EE6
:101C80006720746F3A00436C6F636B776973650A02
:101C900000436F756E7465722D0020446972656330
:101CA00074696F6E3A2000202020616E676C653A7F
:101CB00020005374617274696E6720726164697583
:101CC000733A2000506F736974696F6E696E672094
:101CD0007468652070726F62652E2E2E0A003F4E6A
:101CE000756D626572206F66206C65677320696E22
:101CF000206D6F76656D656E74206E6F7420706CEC
:101D000061757369626C652028302D3135292E0A82
:101D100000590058003F53616D706C652073697AFB
:101D200065206E6F7420706C61757369626C6520DC
:101D300028342D3530292E0A004D3438205A2D50A4
:101D4000726F6265205265706561746162696C6969
:101D5000747920546573740A003F285629657262AD
:101D60006F7365206C6576656C20697320696D7092
:101D70006C61757369626C652028302D34292E0AD8
:101D800000203A2073657475705F666F725F656ED0
:101D90006473746F705F6F725F70726F62655F6D96
:101DA0006F76650A00202063757272656E745F70CD
:101DB0006F736974696F6E3D00203A20636C6561D2
:101DC0006E5F75705F61667465725F656E64737473
:101DD0006F705F6F725F70726F62655F6D6F766557
:101DE0000A00202063757272656E745F706F73698C
:101DF00074696F6E3D00646F5F70726F62655F72D1
:101E00006169736528006465706C6F793A20002001
:101E10003A207365745F70726F62655F6465706CA1
:101E20006F7965640A00202063757272656E745F55
:101E3000706F736974696F6E3D00203A203C3C3CC2
:101E400020646F5F70726F62655F6D6F76650A0008
:101E5000202063757272656E745F706F7369746948
:101E60006F6E3D00203A203E3E3E20646F5F7072F0
:101E70006F62655F6D6F76650A0020206375727210
:101E8000656E745F706F736974696F6E3D00726523
:101E90007365745F6265645F6C6576656C0A003CAF
:101EA0003C3C20646F5F686F6D696E675F6D6F7635
:101EB0006528002C20002C20003E3E3E20646F5FF1
:101EC000686F6D696E675F6D6F76652800205A00D8
:101ED00020590041424C2041646A7573746D656EEF
:101EE000742058002028656E61626C6564290A00C0
:101EF000202864697361626C6564290A004C494E4C
:101F0000454152004175746F20426564204C6576EE
:101F1000656C696E673A2000204E6F7A7A6C65298D
:101F20000A0020262041626F76650020262053613A
:101F30006D65205A2061730020262042656C6F7702
:101F4000002D4261636B002028526967687400208D
:101F50005A3A0020593A0050726F6265204F666607
:101F600073657420583A004649585F4D4F554E549A
:101F700045445F50524F42450A0050726F62653AC5
:101F8000200043617274657369616E0A004D61637C
:101F900068696E6520547970653A20003C3C3C20AD
:101FA00067636F64655F4732380A00203A203E203D
:101FB000686F6D65590A00202063757272656E74D2
:101FC0005F706F736974696F6E3D00203A203E2028
:101FD000686F6D65580A00202063757272656E74B3
:101FE0005F706F736974696F6E3D00203A203E2008
:101FF000484F4D4541584953285A290A002020632B
:10200000757272656E745F706F736974696F6E3D1F
:10201000003E20656E6473746F70732E656E61622E
:102020006C652874727565290A003E3E3E20676320
:102030006F64655F4732380A0020706F7369746996
:102040006F6E206F7574206F662072616E67652EEB
:102050000A003F50726F62652000202F0020403A36
:10206000006F6B0020573A004D3131332053002070
:102070005A3A0020593A0020436F756E7420583A3E
:102080000020453A00205A3A0020593A00583A00B8
:102090002F2F2000426564204C6576656C696E6761
:1020A00020004661696C656420746F20656E616212
:1020B0006C6520426564204C6576656C696E670AC4
:1020C00000426564204C6576656C20436F727265D2
:1020D0006374696F6E204D61747269783A0048616B
:1020E0007264636F6465642044656661756C742016
:1020F00053657474696E6773204C6F616465640A1C
:1021000000B80B0000B80B000064000000E80300FA
:10211000000000964300009643000040410000C8C4
:10212000413914A0423914A04200004844008011F3
:102130004320520020204D393030204B004C696E36
:1021400065617220416476616E63653A0A00202001
:102150004D383531205A005A2D50726F6265204F2C
:10216000666673657420286D6D293A0A0020440064
:1021700020490020204D33303420500020440020DE
:10218000490020204D333031205000504944207305
:10219000657474696E67733A0A0020204D343230DA
:1021A0002053004175746F20426564204C6576654C
:1021B0006C696E673A0A00205A0020590020204DB1
:1021C000323036205800486F6D65206F6666736543
:1021D000743A0A00204500205A0020590020580077
:1021E00020420020540020204D3230352053004141
:1021F0006476616E6365643A20533C6D696E5F6618
:10220000656564726174653E20543C6D696E5F74EF
:10221000726176656C5F66656564726174653E20A7
:10222000423C6D696E5F7365676D656E745F74695E
:102230006D655F6D733E20583C6D61785F78795FA6
:102240006A65726B3E205A3C6D61785F7A5F6A65A1
:10225000726B3E20453C6D61785F655F6A65726BAD
:102260003E0A0020540020520020204D32303420FD
:102270005000416363656C65726174696F6E2028FC
:10228000756E6974732F7332293A20503C707269ED
:102290006E745F616363656C3E20523C726574725C
:1022A0006163745F616363656C3E20543C7472616A
:1022B00076656C5F616363656C3E0A0020450020B3
:1022C0005A0020590020204D3230312058004D61F5
:1022D00078696D756D20416363656C6572617469C1
:1022E0006F6E2028756E6974732F7332293A0A0055
:1022F000204500205A0020590020204D3230332044
:1023000058004D6178696D756D2066656564726110
:102310007465732028756E6974732F73293A0A00E7
:10232000204500205A0020590020204D39322058E5
:102330000053746570732070657220756E69743A0D
:102340000A0020204D3230302044300A0020204D39
:102350003230302044002044697361626C65640A45
:102360000046696C616D656E742073657474696E86
:1023700067733A002020473231202020203B20552F
:102380006E69747320696E206D6D0A002044697354
:1023900063726570616E63793A00326E64205072C8
:1023A0006F6265205A3A00203A203C3C3C2072750E
:1023B0006E5F7A5F70726F62650A002020637572CB
:1023C00072656E745F706F736974696F6E3D003112
:1023D00073742050726F6265205A3A00203A203E92
:1023E0003E3E2072756E5F7A5F70726F62650A00A2
:1023F000202063757272656E745F706F73697469A3
:102400006F6E3D0050726F62696E67206661696C25
:1024100065640A004572726F723A003C3C3C207061
:10242000726F62655F70740A00205A3A200020596A
:102430003A200042656420583A2000203A200A00E1
:10244000202063757272656E745F706F7369746952
:102450006F6E3D0073746F77290A002C20002C20CA
:10246000003E3E3E2070726F62655F7074280020EF
:1024700066697273740A005A0059005800486F6DFB
:102480006520006563686F3A00544845524D414CE1
:102490002052554E4157415900546865726D616C28
:1024A0002052756E61776179004E414E494E495414
:1024B00059494E46CDCCCC3D0AD7233C17B7D1382D
:1024C00077CC2B329595E6241FB14F0A00002041AE
:1024D0000000C84200401C4620BCBE4CCA1B0E5A1D
:1024E000AEC59D747FAB11241FBECFEFD1E2DEBF1E
:1024F000CDBF00E00CBF13E0A0E0B2E0E8E1F0E700
:1025000001E00BBF02C007900D92AA33B107D9F7C3
:1025100022E1AAE3B3E001C01D92AB3EB207E1F7AE
:1025200012E1C3E7D2E100E006C021970109802F44
:10253000FE010E9423ACC237D10780E00807A9F74B
:102540000E9497A60C940AB80C9400002F923F9218
:102550004F925F926F927F928F929F92AF92BF92B3
:10256000CF92DF92EF92FF920F931F93CF93DF935F
:10257000CDB7DEB7C258D1090FB6F894DEBF0FBE93
:10258000CDBF0091570A20E6029F800111240F5908
:102590001C4F8091E31180FF1AC0E3E8F4E28491BC
:1025A0007F013FEFE31AF30A811102C0780104C0F2
:1025B0000E949445F701F3CFD7018D917D018823C7
:1025C00019F00E949445F8CF8AE00E94944581E07A
:1025D00090E090935B0B80935A0B10925A031092E9
:1025E00059038FE380936309109262091092610985
:1025F00010925403109255031092560310925703F1
:10260000F80180810F5F1F4F8032D1F38E34B1F417
:10261000818190ED980F9A3020F08D3211F08B323D
:1026200069F43296DF0131962C9120532A30D0F391
:10263000CD01FC01019620812032D9F3F093620B89
:10264000E093610B7F01BFEFEB1AFB0A10816AE296
:1026500070E0C7010E9420AF009731F0FC01319774
:1026600080818032E1F311821D3429F0143519F094
:10267000173409F0CDC0F70180812FEFE21AF20A7A
:102680008032C9F380538A3008F0C2C010936309C6
:1026900020916109309162094AE03196429FC00160
:1026A000439F900D1124DF0111972C91022E000CF5
:1026B000330B20533109280F391F808180538A3012
:1026C00060F33093620920936109DF0131968C91A8
:1026D0008032D9F31D34D1F42E31310591F03CF420
:1026E0002731310571F02C31310581F40AC02537CD
:1026F000310564F02737310524F0203A43E03407F0
:1027000029F4B0935A03A093590382C010925A033C
:10271000109259030091610B61E070E0CD010196C8
:102720004C91442309F474C0413299F41D3489F466
:102730002032310571F490935A038093590363E278
:1027400070E00E9420AF009709F462C0DC011C9287
:102750005FC05FEBD52ED40EE9E1ED15C0F1FC01B1
:10276000BE2FAF2F51915032D9F38B2F9A2FE0ED1E
:10277000E50FEA3040F0E3EDE50FE23020F05B32A8
:1027800011F00C941A2EDC01AD2CB12C750143E034
:10279000F594E7944A95E1F7A7014C5A5C4F7A010A
:1027A0004D2D4770FB0102C0EE0FFF1F4A95E2F767
:1027B000AF01F7015081452B4083109711F0A01B0A
:1027C00001C0A0E0F501E65CFC4FA0830AC0409187
:1027D000590350915A03452B21F4B0935A03A09307
:1027E0005903DC014C9141544A3110F4DC0196CF7D
:1027F000FC01DF0131969C9190539A30D0F3AD01EA
:10280000CA014F5F5F4FDC01EC91E032C9F3EECFBC
:10281000809163098D3411F40C94331D843511F4C7
:102820000C948F2D873411F00C94FA2D809161094E
:10283000909162098C31910509F4B5C7A4F48430F4
:10284000910544F4823091050CF026C197FF32C007
:102850000C94132E8430910509F4E6C2059709F40F
:1028600020C30C94132E8432910511F40C94641C33
:1028700074F48E31910509F49FC70CF499C78397BE
:1028800011F00C94132E0E9488890C94132E8B3512
:10289000910511F40C946D1C8C35910511F40C9478
:1028A000721C8A35910511F00C94132E109260035E
:1028B0000C94132E80913902882311F40C94132E5A
:1028C0000E948A8C87E79BE00E948D510E94894577
:1028D0008091E31183FD8FC0C090830BD090840B57
:1028E000E090850BF090860B2091471230914812B2
:1028F0004091491250914A12C701B6010E94D2B3C9
:10290000882309F478C080916409811138C06091EE
:10291000010270910202072E000C880B990B0E9495
:10292000D8B39B01AC0160914E1170914F11809111
:102930005011909151110E94D2B387FF20C0C092D4
:102940004712D0924812E0924912F0924A12E3E8FC
:10295000F4E284918F010F5F1F4F882321F00E94C2
:102960009445F801F6CFEEEDF1E084918F010F5F11
:102970001F4F882321F00E949445F801F6CFC090A4
:10298000830BD090840BE090850BF090860B209108
:102990004712309148124091491250914A12C70192
:1029A000B6010E942BAC20E030E048E453E40E94E2
:1029B00074AE181604F5C0924712D0924812E092F5
:1029C0004912F0924A12E3E8F4E284918F010F5F1A
:1029D0001F4F882321F00E949445F801F6CFEFEBBA
:1029E000F1E084918F010F5F1F4F882321F00E9437
:1029F0009445F801F6CF2091770B3091780B4091F8
:102A0000790B50917A0B60913B1270913C1280913E
:102A10003D1290913E120E94D2B381111DC02091AF
:102A20007B0B30917C0B40917D0B50917E0B609124
:102A30003F127091401280914112909142120E9477
:102A4000D2B3811109C06091430270914402809118
:102A50004502909146021AC06091250270912602AB
:102A6000072E000C880B990B0E94D8B320914302CB
:102A70003091440240914502509146020E9437B481
:102A80002AE037ED43E25CE30E9437B40E94CE4374
:102A90000E94C4430C94132E20913902222311F476
:102AA0000C94132E11E0029709F010E00E948A8C1A
:102AB00019821A821B821C821D821E821F82188626
:102AC00082E50E947D45882309F42CC10E941B45A4
:102AD0006B017C0120913B1230913C1240913D12E0
:102AE00050913E122AA33BA34CA35DA380903F12BA
:102AF00090904012A0904112B09042128091770BBA
:102B00009091780BA091790BB0917A0B8EA39FA333
:102B1000A8A7B9A720917B0B30917C0B40917D0B2E
:102B200050917E0B2AA73BA74CA75DA720E030E081
:102B3000A901C701B6010E94D2B3882309F408C1D4
:102B40002AA13BA14CA15DA16EA17FA188A599A559
:102B50000E94D2B381110BC0A50194016AA57BA587
:102B60008CA59DA50E94D2B3882309F4F1C020E072
:102B700030E0A901C701B6010E94D2B3881F88279F
:102B8000881F181309C080E090E0A0E8BFE38AAF77
:102B90009BAFACAFBDAF08C020E030E040E85FEBDA
:102BA0002AAF3BAF4CAF5DAF2AA13BA14CA15DA1C9
:102BB0006EA17FA188A599A50E942BAC6AAB7BABC7
:102BC0008CAB9DABA50194016AA57BA58CA59DA5A9
:102BD0000E942BAC6EAB7FAB88AF99AF2AA93BA903
:102BE0004CA95DA9CA01B9010E9437B42B013C016F
:102BF0002EA93FA948AD59ADCA01B9010E9437B409
:102C00009B01AC01C301B2010E942CAC0E94BDAE7D
:102C10006EA77FA788AB99AB20E030E040E05FE390
:102C20000E9437B42B013C01A7019601C701B601F0
:102C30000E9437B46B017C01A3019201C301B20170
:102C40000E9437B49B01AC01C701B6010E942BACB6
:102C50000E94BDAE9B01AC016AAD7BAD8CAD9DAD5C
:102C60000E9437B46B017C012EA13FA148A559A554
:102C70006AA17BA18CA19DA10E942CAC20E030E038
:102C800040E05FE30E9437B42B013C016EA97FA9AD
:102C900088AD99AD90582EA53FA548A959A90E9485
:102CA00018AD9B01AC01C701B6010E9437B49B016E
:102CB000AC01C301B2010E942CAC2AA13BA14CA1E2
:102CC0005DA10E942BAC69837A838B839C832AA5A8
:102CD0003BA54CA55DA5C501B4010E942CAC20E02C
:102CE00030E040E05FE30E9437B42B013C012EA5A9
:102CF0003FA548A959A96AA97BA98CA99DA90E94A9
:102D000018AD9B01AC01C701B6010E9437B49B010D
:102D1000AC01C301B2010E942CACA50194010E9438
:102D20002BAC12C089E40E947D45882331F00E94BB
:102D30001B4569837A838B839C838AE40E947D454B
:102D4000882331F00E941B456D837E838F83988793
:102D500020E030E0A90169817A818B819C810E9409
:102D6000D2B381110CC020E030E0A9016D817E81D9
:102D70008F8198850E94D2B3882309F43BC080E5F7
:102D80000E947D45882341F00E94FB44082F853630
:102D9000E8F0E4E1F4E202C000E018C084917F01B1
:102DA0003FEFE31AF30A882321F00E949445F701CC
:102DB000F5CFEFE0F2E084917F014FEFE41AF40ADF
:102DC000882321F00E949445F701F5CF412FBE01E1
:102DD0006F5F7F4F002331F08BE392E10E9424521A
:102DE0000150F4CF87E79BE00E9424520E9489455E
:102DF0000C94132EE4E1F4E284918F010F5F1F4FD6
:102E0000882321F00E949445F801F6CFE9EFF1E024
:102E100084918F010F5F1F4F882311F40C94132EA0
:102E20000E949445F801F4CF80E50E947D458823F7
:102E300029F00E94DB446B017C0103C0C12CD12C22
:102E4000760183E50E947D45882361F00E941B4541
:102E500020E030E04AE754E40E9437B40E948FAD8E
:102E60006B017C010E94ED590E9489458091630BA2
:102E70009091640BA091650BB091660BC80ED91EA2
:102E8000EA1EFB1E0E943B65DC01CB018C199D09EB
:102E9000AE09BF09B7FD02C00C94132E0E94C54DA8
:102EA000F1CF80913902882311F40C94132E0E94E3
:102EB0008A8C89E40E947D45882329F00E941B4565
:102EC0002B013C0103C0412C512C32018AE40E94A9
:102ED0007D45882329F00E941B454B015C0103C0FE
:102EE000812C912C540180E50E947D45882329F096
:102EF0000E941B456B017C0103C0C12CD12C7601C3
:102F000081E50E947D45882339F00E941B456AA314
:102F10007BA38CA39DA304C01AA21BA21CA21DA26A
:102F20005091590BEB965FAFEB9760912502709132
:102F30002602072E000C880B990B0E94D8B3209113
:102F400043023091440240914502509146020E9452
:102F500037B42AE037ED43E25CE30E9437B4EF96E2
:102F60006CAF7DAF8EAF9FAFEF9780913B1290918A
:102F70003C12A0913D12B0913E128EA39FA3A8A730
:102F8000B9A7A3019201BC01CD010E942CAC2796E8
:102F90006CAF7DAF8EAF9FAF279740903F125090A0
:102FA00040126090411270904212A5019401C30139
:102FB000B2010E942CAC2B966CAF7DAF8EAF9FAF51
:102FC0002B972091770B3091780B4091790B509192
:102FD0007A0BC701B6010E942CAC2F966CAF7DAF67
:102FE0008EAF9FAF2F9720917B0B30917C0B409140
:102FF0007D0B50917E0B6AA17BA18CA19DA10E94AB
:103000002CAC63966CAF7DAF8EAF9FAF6397CEA0B5
:10301000DFA0E8A4F9A4C982DA82EB82FC824D82A7
:103020005E826F8278860E943B659B01AC012853CB
:103030003F4F4F4F5F4FE7962CAF3DAF4EAF5FAF67
:10304000E797BDEC8B2EBCEC9B2EA92CBDE3BB2ED1
:103050001AA21EA21AA61EA60E947D580E943B65B7
:103060008B019C01E796CCACDDACEEACFFACE797F6
:103070000C191D092E093F0937FD0EC09B01AC013B
:1030800028533F4F4F4F5F4FE7962CAF3DAF4EAFAA
:103090005FAFE7970E94C54DA5019401BAA1AEA10B
:1030A000FAA5EEA56B2F7A2F8F2F9E2F0E942CACA6
:1030B0002B011C0120E030E040E85FE30E9474AE89
:1030C000181634F4412C512CF0E82F2EAFE33A2E91
:1030D0008091770B9091780BA091790BB0917A0B3E
:1030E00067968CAF9DAFAEAFBFAF6797C0903B12F6
:1030F000D0903C12E0903D12F0903E126B96CCAE18
:10310000DDAEEEAEFFAE6B973F922F925F924F9285
:103110006796ACACBDACCEACDFAC67972F96ECAC91
:10312000FDAC0EAD1FAD2F9727962CAD3DAD4EAD2E
:103130005FAD27976B966CAD7DAD8EAD9FAD6B97F8
:103140000E945A310F900F900F900F906AAB7EAB98
:103150008AAF9EAF20917B0B30917C0B40917D0B11
:1031600050917E0B6F962CAF3DAF4EAF5FAF6F9718
:1031700080913F1290914012A0914112B091421261
:10318000AB968CAF9DAFAEAFBFAFAB973F922F92D8
:103190005F924F926F96ACACBDACCEACDFAC6F978C
:1031A0006396ECACFDAC0EAD1FAD63972B962CADCA
:1031B0003DAD4EAD5FAD2B97AB966CAD7DAD8EAD9D
:1031C0009FADAB970E945A310F900F900F900F90C8
:1031D0006FAF21967FAF219722968FAF22972396CC
:1031E0009FAF2397C980DA80EB80FC80AF96CCAE8E
:1031F000DDAEEEAEFFAEAF972D813E814F8158859B
:10320000E3962CAF3DAF4EAF5FAFE397A0961FAEF6
:10321000A0977AA16EA19AA58EA5272F362F492FA8
:10322000582F642D752D822D932D0E942BAC2FE6E7
:1032300032E143E05BE30E94D2B387FF06C0A09671
:103240003FADA0973111DEC1C4C1242D352D422DD3
:10325000532DBAA1AEA1FAA5EEA56B2F7A2F8F2F11
:103260009E2F0E942CAC20E030E040E05FE30E9403
:1032700037B43B014C019F928F937F926F93679677
:10328000ACACBDACCEACDFAC67972F96ECACFDAC74
:103290000EAD1FAD2F9727962CAD3DAD4EAD5FAD5A
:1032A00027976B966CAD7DAD8EAD9FAD6B970E94F1
:1032B0005A310F900F900F900F90A4966FAFA49774
:1032C000E8967FAFE897E9968FAFE997EA969FAFC8
:1032D000EA979F928F927F926F926F96ACACBDAC43
:1032E000CEACDFAC6F976396ECACFDAC0EAD1FAD12
:1032F00063972B962CAD3DAD4EAD5FAD2B97AB9646
:103300006CAD7DAD8EAD9FADAB970E945A310F90E5
:103310000F900F900F905B018C012AA93EA94AAD36
:103320005EADAF966CAD7DAD8EAD9FADAF970E949B
:103330002CAC20E030E040E05FE30E9437B49B011A
:10334000AC01A4966FADA497E8967FADE897E99697
:103350008FADE997EA969FADEA970E942BAC6B017F
:103360007C01E894F7F82FAD21963FAD2197229686
:103370004FAD229723965FAD2397E3966CAD7DAD5D
:103380008EAD9FADE3970E942CAC20E030E040E092
:103390005FE30E9437B49B01AC01B501C8010E94F4
:1033A0002BAC9B01AC015F77C701B6010E942CAC2E
:1033B0002DEC3CEC4CEC5DE30E94D2B318160CF003
:1033C0003ECFAFAE2196BFAE219722960FAF229788
:1033D00023961FAF2397A4964FADA4974AABE896C8
:1033E0005FADE8975EABE9968FADE9978AAFEA9655
:1033F0009FADEA979EAF23011401A1E0A096AFAF65
:10340000A09707CFA7019601C701B6010E942CAC77
:103410009B01AC01BAA1AEA1FAA5EEA56B2F7A2F44
:103420008F2F9E2F0E942CAC962E872E782E692EE1
:1034300020E030E040E85FE3D401F3016B2F7A2F06
:103440008F2F9E2F0E9474AE87FFDCC06F927F92F9
:103450008F929F926796ACACBDACCEACDFAC679759
:103460002F96ECACFDAC0EAD1FAD2F9727962CAD73
:103470003DAD4EAD5FAD27976B966CAD7DAD8EAD1E
:103480009FAD6B970E945A310F900F900F900F9045
:10349000A0966FAFA097A4967FAFA497E8968FAF42
:1034A000E897E9969FAFE9976F927F928F929F92EC
:1034B0006F96ACACBDACCEACDFAC6F976396ECACAA
:1034C000FDAC0EAD1FAD63972B962CAD3DAD4EAD53
:1034D0005FAD2B97AB966CAD7DAD8EAD9FADAB97D1
:1034E0000E945A310F900F900F900F905B018C014A
:1034F000A0962FADA097A4963FADA497E8964FADA8
:10350000E897E9965FADE997AF966CAD7DAD8EAD6E
:103510009FADAF970E942CAC20E030E040E05FE32D
:103520000E9437B49B01AC016AA97EA98AAD9EAD09
:103530000E942BAC6B017C01E894F7F89501A8017F
:10354000E3966CAD7DAD8EAD9FADE3970E942CAC44
:1035500020E030E040E05FE30E9437B49B01AC0123
:103560006FAD21967FAD219722968FAD229723963E
:103570009FAD23970E942BAC9B01AC015F77C701E5
:10358000B6010E942CAC2DEC3CEC4CEC5DE30E94AF
:1035900074AE1816BCF1AFAE2196BFAE219722963D
:1035A0000FAF229723961FAF2397A096BFADA0978A
:1035B000BAABA496EFADA497EEABE896FFADE89753
:1035C000FAAFE996CFACE997CEAE492C582C272C10
:1035D000362C7AA16EA19AA58EA5272F362F492FBA
:1035E000582F642D752D822D932D0E942BAC6B01CD
:1035F0007C012DEC3CEC4CEC5DE30E9474AE1816A3
:103600000CF000CF7AA16EA19AA58EA5272F362F98
:10361000492F582F642D752D822D932D0E942BAC90
:103620004B015C018AA99EA9AAADBEAD89839A838C
:10363000AB83BC838FAD21969FAD21972296AFAD12
:1036400022972396BFAD23978D839E83AF83B88740
:10365000242D352D422D532D60E070E080E89FE34E
:103660000E942BAC6B017C012091431230914412DB
:1036700040914512509146120E9437B46AA37BA331
:103680008CA39DA320917F0B3091800B4091810BE7
:103690005091820B642D752D822D932D0E9437B48D
:1036A0009B01AC016AA17BA18CA19DA10E942CACC5
:1036B00069877A878B879C872091471230914812BF
:1036C0004091491250914A12C701B6010E9437B485
:1036D0006B017C012091830B3091840B4091850B11
:1036E0005091860B642D752D822D932D0E9437B439
:1036F0009B01AC01C701B6010E942CAC6D877E878F
:103700008F87988BCE0101960E948D5189819A8175
:10371000AB81BC818E8B9F8BA88FB98F8D819E8151
:10372000AF81B8858A8F9B8FAC8FBD8F89859A8535
:10373000AB85BC858E8F9F8FA8A3B9A3AE01425ED7
:103740005F4FBE01665E7F4FCE0146960E94F89C99
:10375000EB96CFACEB97EF96ECACFDAC0EAD1FAD9E
:10376000EF979E01235F3F4FAE01425E5F4FBE0168
:10377000665E7F4FCE0146960E94383420E030E0EE
:1037800040E85FE3642D752D822D932D0E94D2B306
:1037900087FF05C04AA25EA22AA63EA65DCC0E9473
:1037A000C4430C94132E80E00E94B98F0C94132E06
:1037B0000E94156A0C94132E20E030E040E050E4A3
:1037C00060913B1270913C1280913D1290913E129B
:1037D0000E942CAC6B017C0188E50E947D4588230A
:1037E00021F00E941B456B017C01CE8ADF8AE88EA6
:1037F000F98E20E030E040EF51E460913F1270918B
:10380000401280914112909142120E942CAC6B01A7
:103810007C0189E50E947D45882321F00E941B459B
:103820006B017C01C982DA82EB82FC824090DB1161
:103830005090DC116090DD117090DE112091D71155
:103840003091D8114091D9115091DA116E897F8948
:10385000888D998D0E942BAC4B015C012BE33FEDD1
:103860004FEF5FE30E9474AE87FF02C00C94132EEB
:1038700023E830E04EEF52E4C501B4010E94D2B318
:10388000181614F40C94132EA3019201C701B6016B
:103890000E942BAC6B017C0124EF3DEF4FEE51E415
:1038A0000E9474AE87FF02C00C94132E23E830E010
:1038B0004EEF52E4C701B6010E94D2B3181614F4B9
:1038C0000C94132E0C942A2E81E00E94B98F0E9432
:1038D00088890E94156A0C94132E81E080936003FE
:1038E0000C94132E85E40E947D45982E811102C010
:1038F0000E94ED5961E5A62E62E0B62E7BE3C72E4D
:1039000072E1D72EEBE6EE2EEBE0FE2E00E010E0AB
:10391000812CD5018D915D010E947D45882309F49C
:103920004EC0F6012081318142815381C158DF4F61
:103930002883CF57D040C058DF4F3883C058D0407D
:10394000CF57DF4F4883C158D040CE57DF4F588301
:10395000C258D0400E941B45D6016D937D938D9334
:103960009C931397C158DF4F2881CF57D040C05840
:10397000DF4F3881C058D040CF57DF4F4881C15802
:10398000D040CE57DF4F5881C258D0400330110588
:10399000B1F00E942BAC9B01AC01F70160817181F9
:1039A000828193810E942CACD7016D937D938D937E
:1039B0009C931397C8010E949B45882483940F5FB2
:1039C0001F4FB4E0CB0ED11CE4E0EE0EF11C04302E
:1039D000110509F09ECF882019F00E9480443FC055
:1039E0009920E9F1C0904712D0904812E090491216
:1039F000F0904A122091D7093091D8094091D90905
:103A00005091DA09C701B6010E9437B40E947FAE17
:103A10006093AB127093AC128093AD129093AE1280
:103A2000C0929B12D0929C12E0929D12F0929E1234
:103A3000C701B6010E9489AD2FB7F8946093DA10E0
:103A40007093DB108093DC109093DD102FBF1092E9
:103A50008B1210928C1210928D1210928E120E9464
:103A6000F9910C94132E8091610990916209883C20
:103A7000910509F41AC50CF0A7C08C35910509F41D
:103A8000E7C30CF053C08B34910509F4D5C25CF543
:103A90008231910509F4D8C3CCF497FF02C00C948D
:103AA000132E823091050CF468C1419711F00C94EB
:103AB000132E5F988A989FB7F894809108018E7FA3
:103AC000809308019FBF12980C94132E8A3291059F
:103AD00009F4AAC28033910509F4AAC24F9711F0E4
:103AE0000C94132ECFC18235910509F4A4C37CF444
:103AF0008D34910509F4BEC20CF4A2C28135910542
:103B000011F00C94132E0E94C7930C94132E84353D
:103B1000910509F499C30CF492C38535910511F010
:103B20000C94132E0E9456930C94132E81379105FA
:103B300009F469C314F58B36910509F478C364F46C
:103B40008936910509F467C30CF06DC38836910579
:103B500009F494C20C94132E8E36910509F4BDC25B
:103B60008F36910509F4CCC28D36910511F00C9475
:103B7000132E0E94D7940C94132E8737910509F4C5
:103B800003C47CF48337910509F46CC30CF464C35B
:103B90008637910511F00C94132E0E94C0910C945D
:103BA000132E8937910509F47AC40CF471C48C384A
:103BB000910509F42CC38B39910511F00C94132E47
:103BC0000E9457940C94132E8336F1E09F0711F452
:103BD0000C94402D0CF060C08D3D910509F4A1C6F8
:103BE000B4F58D3C910509F44DC5ACF48B3C9105C1
:103BF00009F4BEC40CF0DAC4893C910511F00C94B0
:103C0000132E9BEBE92E99E0F92E01E512E024E05A
:103C1000D22ED00E94C4833D910509F4DAC58C3DB3
:103C2000910509F46FC68E3C910511F00C94132E8A
:103C3000F1E5AF2EF2E0BF2EABE3CA2EA2E1DA2E01
:103C4000BEE1EB2EBAE0FB2E00E010E088C58D321D
:103C500031E0930709F4DAC684F48E3051E0950719
:103C600009F4F0C78C32A1E09A0709F4A5C6823E98
:103C7000910511F00C94132E70C68F32B1E09B07A2
:103C800011F40C94A92614F40C9455268033914019
:103C900009F45BC70C94132E863F21E0920711F4C0
:103CA0000C94AE2AD4F5843A41E0940711F40C94B4
:103CB000D329ACF48139A1E09A0711F40C94CB29F3
:103CC0008239B1E09B0711F40C94CF2980399140DF
:103CD00011F00C94132E0E94ED590C94132E843F76
:103CE000F1E09F0711F40C94A82A14F00C94AB2A6D
:103CF0008C3A914011F00C94132E5EE1C52E5AE0DF
:103D0000D52E6BE3E62E62E1F62E78E3272E72E1E4
:103D1000372E00E010E00C94D6298B3843E094074E
:103D200011F40C941F2C9CF48335A3E09A0711F432
:103D30000C94BF2A8438B3E09B0711F40C940E2B2B
:103D4000873F914011F00C94132E0C94B12A8D38BA
:103D5000F3E09F0711F40C947F2C14F40C944B2C7B
:103D60008E3833E0930711F40C94382D873E93403E
:103D700011F40C947F2D0C94132EE0905903F090C5
:103D80005A0380E50E947D45882359F00E94DB4458
:103D90004B015C0111E0672B682B692B31F410E0BB
:103DA00004C010E0812C912C540183E50E947D45D4
:103DB000882399F00E941B4520E030E04AE754E454
:103DC0000E9437B40E948FAD4B015C0111110CC0F1
:103DD000672B682B692B41F43CC0111105C0E1141D
:103DE000F10411F00C947D2E83E090E090935B0B36
:103DF00080935A0B81E0809358030E94ED590E94F2
:103E0000894581149104A104B104A9F18091630B47
:103E10009091640BA091650BB091660B75016401E4
:103E2000C80ED91EEA1EFB1E0E943B65DC01CB01B9
:103E30008C199D09AE09BF09B7FD04C01092580343
:103E40000C94132E809158038823C1F30E94C54D12
:103E5000EBCFE114F10411F00C947D2E83E090E09F
:103E600090935B0B80935A0B81E0809358030E94E0
:103E7000ED590E948945809158038823F9F20E94E8
:103E8000C54DF9CF8091CF129091D012019719F4BE
:103E90000E943B6508C06091D9127091DA1280913E
:103EA000DB129091DC120091D5121091D612209164
:103EB000D7123091D812601B710B820B930B28EE36
:103EC00033E040E050E00E94ADB78091D112909174
:103ED000D212A091D312B091D412BC01CD01620FC5
:103EE000731F841F951F5CE3C52ED12CE12CF12C90
:103EF000A70196010E94ADB7162F072FCA01B9017D
:103F0000A70196010E94ADB74B015C01CA01B9013E
:103F100028E130E040E050E00E94ADB72B013C01C9
:103F2000C9016DE671E00E94FCAB9E012F5F3F4F1F
:103F300079016115710599F00F931F939F928F92EC
:103F40005F924F929F938F937F936F938FE592E051
:103F50009F938F933F932F930E94A3B326C0009704
:103F600089F00F931F939F928F925F924F929F932E
:103F70008F938FE492E09F938F933F932F930E94B0
:103F8000A3B313C04114510461047104B1F00F9341
:103F90001F939F928F925F924F9283E492E09F9340
:103FA0008F933F932F930E94A3B30FB6F894DEBF75
:103FB0000FBECDBFE3E8F4E223C081149104A10455
:103FC000B10469F00F931F939F928F928BE392E05D
:103FD0009F938F933F932F930E94A3B3E6CF0F93AA
:103FE0001F9387E392E09F938F933F932F930E94B9
:103FF000A3B30F900F900F900F900F900F90DACF08
:1040000084918F010F5F1F4F882321F00E949445F8
:10401000F801F6CFB70183E792E00E9432318AE0DF
:104020000E9494450C94132E0E942F890C94132EF9
:104030000E9494830C94132E0E94CFA50C94132EEF
:104040008091CF129091D012019711F00C94132E01
:1040500082E090E09093D0128093CF120E943B6553
:104060006093D9127093DA128093DB129093DC1272
:104070000C94132E0E945AA40C94132E88E690E000
:104080000E94AA4681110C94132E8091E31183FFA4
:1040900002C00C94132E83E50E947D458823C9F04D
:1040A0000E941B450E9489AD70934811609347118F
:1040B00080E00E949A690E941B4520E030E04AEAB5
:1040C00052E40E94D2B3181614F00E945AA40E941F
:1040D0001B450E9431320C94132E8EE40E947D45C4
:1040E000882311F40C94132E0E94EB446093490B27
:1040F00070934A0B80934B0B90934C0B0C94132EA4
:1041000083E50E944E45882359F083E50E947D4552
:10411000882319F00E94FB4401C080E08093E311E2
:10412000E3E8F4E284918F010F5F1F4F882321F0B1
:104130000E949445F801F6CFE0E9F2E084918F0106
:104140000F5F1F4F882321F00E949445F801F6CF9E
:104150008091E3118823A1F140E8C42E42E0D42EDF
:10416000E12CF12C20E08091E31190E00E2C02C0B4
:10417000959587950A94E2F780FF17C0BB24B39406
:10418000B20E222319F08CE20E949445F60125918B
:104190003491F901849189010F5F1F4F882321F029
:1041A0000E9494459801F5CF2B2DFFEFEF1AFF0ADF
:1041B00032E0C30ED11C46E0E416F104A1F61EC0A5
:1041C000ECE8F2E084918F010F5F1F4F8823B1F07C
:1041D0000E949445F801F6CF8AE50E944E45811170
:1041E0000C94D92A4091D3115091D4116091D511DA
:1041F0007091D6118BEF96E00E94B9308AE00E9450
:1042000094450C94132E0E94FD930C94132E0E943F
:10421000EB930C94132E0E944D9610925B0B109210
:104220005A0B0C9429300E9436940C94132E0E9441
:1042300027940C94132E10925F030C94132E81E09C
:1042400080935F030C94132E0E946E930C94132E94
:104250000E94B8920C94132E0E94ED590E94F9917D
:104260000C94132EE2E7F3E084918F010F5F1F4F50
:10427000882321F00E949445F801F6CFE4E6F3E0AC
:1042800084918F010F5F1F4F882321F00E94944576
:10429000F801F6CFEDE4F3E084918F010F5F1F4F3B
:1042A000882321F00E949445F801F6CFEDE3F3E076
:1042B00084918F010F5F1F4F882321F00E94944546
:1042C000F801F6CFECE2F3E084918F010F5F1F4F0E
:1042D000882321F00E949445F801F6CFEBE1F3E04A
:1042E00084918F010F5F1F4F882321F00E94944516
:1042F000F801F6CFECE0F3E084918F010F5F1F4FE0
:10430000882321F00E949445F801F6CFE7EFF2E010
:1043100084918F010F5F1F4F882321F00E949445E5
:10432000F801F6CFE1EEF2E084918F010F5F1F4FAD
:10433000882321F00E949445F801F6CFECECF2E0DE
:1043400084918F010F5F1F4F882321F00E949445B5
:10435000F801F6CFEFEAF2E084918F010F5F1F4F73
:10436000882321F00E949445F801F6CFE7E9F2E0B6
:1043700084918F010F5F1F4F882311F40C94132E2B
:104380000E949445F801F4CFE6E6F4E084918F01B1
:104390000F5F1F4F882321F00E949445F801F6CF4C
:1043A000EEE5F4E084918F010F5F1F4F882321F029
:1043B0000E949445F801F6CF659903C003EA12E024
:1043C00002C008EA12E0D8018D918D01882319F00E
:1043D0000E949445F8CF8AE00E949445E6E5F4E017
:1043E00084918F010F5F1F4F882321F00E94944515
:1043F000F801F6CF8091030181FD03C003EA12E0CA
:1044000002C008EA12E0F80181918F01882319F0B7
:104410000E949445F8CF8AE00E949445EEE4F4E0CF
:1044200084918F010F5F1F4F882321F00E949445D4
:10443000F801F6CF4A9903C003EA12E002C008EA85
:1044400012E0D8018D918D01882319F00E949445C6
:10445000F8CF8AE00E949445E6E4F4E084918F016D
:104460000F5F1F4F882321F00E949445F801F6CF7B
:104470004B9903C003EA12E002C008EA12E0F80117
:1044800081918F01882309F4B9CE0E949445F7CF1A
:1044900081E08093E8098093BE110C94132E109252
:1044A000E8091092BE110C94132E88EC90E00E9443
:1044B000AA4681110C94132E84E40E944E45882351
:1044C000D1F10E941B4511E020E030E0A9010E94DB
:1044D000D2B3811101C010E01093CF11112359F113
:1044E00000915B0310E00E941B45000F111F000F9D
:1044F000111FF801E553FE4E60837183828393831D
:1045000020E030E0A9016091CB117091CC11809135
:10451000CD119091CE110E94D2B381110CC080E0D8
:1045200090E0A0E4B0E48093CB119093CC11A093E1
:10453000CD11B093CE110E9407510C94132ED801C7
:104540008D918D010E944E45882349F00E941B45A4
:104550000E948FADF7016083718382839383F4E0BF
:10456000EF0EF11CD012EBCF0E9461320C94132E8F
:1045700019E8E12E19E0F12E01E512E084E0D82ED1
:10458000D00ED8018D918D010E944E45882339F0BF
:104590000E941B45F7016083718382839383F4E05B
:1045A000EF0EF11CD012EDCF0C94132E83E50E9478
:1045B0004E458823D9F00E941B45AB01BC014093B6
:1045C0008109509382096093830970938409409311
:1045D0007D0950937E0960937F09709380098AED6D
:1045E00094E00E94B9308AE00E94944580E50E94E0
:1045F0004E45882399F00E941B45AB01BC014093B6
:1046000081095093820960938309709384098DEB2B
:1046100094E00E94B9308AE00E94944582E50E94AD
:104620004E45882399F00E941B45AB01BC01409385
:1046300085095093860960938709709388098EE9EC
:1046400094E00E94B9308AE00E94944584E50E947B
:104650004E45882311F40C94132E0E941B45AB0188
:10466000BC0140937D0950937E0960937F0970934C
:10467000800980E894E00E94B9308AE00E94944565
:104680000C94132E83E50E944E45882351F00E941E
:104690001B456093A1097093A2098093A30990938D
:1046A000A40984E50E944E45882351F00E941B45D1
:1046B00060939D0970939E0980939F099093A00930
:1046C00082E40E944E45882351F00E94DB446093AF
:1046D000990970939A0980939B0990939C0988E5A6
:1046E0000E944E45882351F00E941B4560936D093E
:1046F00070936E0980936F099093700989E50E9409
:104700004E45882351F00E941B45609371097093B8
:10471000720980937309909374098AE50E944E454B
:10472000882351F00E941B456093750970937609A8
:10473000809377099093780985E40E944E458823F9
:1047400011F40C94132E0E941B4560937909709309
:104750007A0980937B0990937C090C94132ED501E0
:104760008D915D010E944E45882311F10E941B45E9
:104770002B013C01F70120813181428153810E944C
:104780002BAC9B01AC01D6016D917D918D919C91DB
:104790000E942CACF6016083718382839383D701DE
:1047A0004D925D926D927C921397C8010E949B4539
:1047B0000F5F1F4FB4E0CB0ED11CE4E0EE0EF11CF6
:1047C0000330110561F60E9480440E94F9910C9417
:1047D000132EE3E8F4E284918F010F5F1F4F8823CB
:1047E00021F00E949445F801F6CF83E50E944E45E2
:1047F000882321F00E940C4580934202EAE2F5E012
:1048000084918F010F5F1F4F882321F00E949445F0
:10481000F801F6CF80914202811103C0E6E2F5E093
:1048200002C0E2E2F5E084918F010F5F1F4F882301
:1048300021F00E949445F801F6CFEAE1F5E0849179
:104840008F010F5F1F4F882321F00E949445F801CC
:10485000F6CF40914D0B50914E0B60914F0B7091E4
:10486000500B88E195E00E94B9304091510B509176
:10487000520B6091530B7091540B85E195E00E94AF
:10488000B9304091550B5091560B6091570B709178
:10489000580B82E195E00E94B930EAE0F5E084919E
:1048A0008F010F5F1F4F882321F00E949445F8016C
:1048B000F6CF4091190250911A0260911B0270913B
:1048C0001C0288E095E00E94B93040911D02509191
:1048D0001E0260911F027091200285E095E00E9407
:1048E000B9304091210250912202609123027091CF
:1048F000240282E095E00E94B9308AE00E9494454B
:104900000C94132E83E50E947D45882311F40C94AA
:10491000132E0E94EB4470932602609325020C94A0
:10492000132E8DED90E00E94AA4681110C94132E57
:1049300083E50E947D45882311F40C94132E009189
:104940005B0310E00E94EB44000F111FF801ED5FC4
:10495000FD4F718360830C94132E80E50E944E45B9
:10496000882311F40C94132E0E94EB44F62EC62ECD
:10497000D72E83E50E947D45882321F00E94EB44D9
:104980008B0102C00FEF1FEFC8010196039710F0D3
:104990000C94132ED7FE02C00C94132EEAE3F5E01C
:1049A00088E28E0F9491F91611F40C94132E31961F
:1049B0008E13F8CF0C94023083E50E947D45882346
:1049C00019F00E94EB4402C064E071E07F8B6E8BB3
:1049D00080E50E947D45882339F00E94EB446938C8
:1049E000F3E17F0730F402C068EE73E07A836983F5
:1049F00004C088E893E19A838983BE016A5E7F4F91
:104A0000CE0101960E9426A40C94132E85E40E94E8
:104A10007D45811110C080E50E944E45882391F0AC
:104A20000E941B456093E2107093E3108093E410A2
:104A30009093E51007C00E94FB44882361F3E4E1F2
:104A4000F4E272C089E40E944E45882381F00E94FE
:104A50001B452CEA35EC47E25EE30E9437B46093D5
:104A6000DE107093DF108093E0109093E11084E4E7
:104A70000E944E45882381F00E941B452CEA35ECAC
:104A800047E25EE30E9418AD6093E6107093E71072
:104A90008093E8109093E910E3E8F4E284918F01A9
:104AA0000F5F1F4F882321F00E949445F801F6CF35
:104AB0004091E2105091E3106091E4107091E51084
:104AC0008AE695E00E94B9302CEA35EC47E25EE3D5
:104AD0006091DE107091DF108091E0109091E110F4
:104AE0000E9418ADAB01BC0186E695E00E949C30A7
:104AF0002CEA35EC47E25EE36091E6107091E71036
:104B00008091E8109091E9100E9437B4AB01BC018C
:104B100082E695E00E949C308AE00E9494450C94C5
:104B2000132E0E949445F80184918F010F5F1F4F4F
:104B30008111F7CF0AEB12E0D8018D918D01882306
:104B400009F45CCB0E949445F7CF80E50E944E4566
:104B5000882351F00E941B456093C7117093C811C0
:104B60008093C9119093CA1189E40E944E4588230D
:104B700081F00E941B452CEA35EC47E25EE30E947F
:104B800037B46093C3117093C4118093C51190938F
:104B9000C61184E40E944E45882381F00E941B4583
:104BA0002CEA35EC47E25EE30E9418AD6093BF113A
:104BB0007093C0118093C1119093C211E3E8F4E2A5
:104BC00084918F010F5F1F4F882321F00E9494452D
:104BD000F801F6CF4091C7115091C8116091C911E9
:104BE0007091CA1186E795E00E94B9302CEA35EC45
:104BF00047E25EE36091C3117091C4118091C511C9
:104C00009091C6110E9418ADAB01BC0182E795E0FE
:104C10000E949C302CEA35EC47E25EE36091BF11C4
:104C20007091C0118091C1119091C2110E9437B44E
:104C3000AB01BC018EE695E00E949C308AE00E94A8
:104C40009445F1C780917B00886080937B0081E46C
:104C500080937C0080917A00806480937A008091B8
:104C60007A0086FDFCCF609178008091790070E039
:104C7000782B072E000C880B990B0E94D8B322ECDE
:104C800035EF48E25FE30E9418AD2CEA35EC47E2CD
:104C900057E30E942CACAB01BC018AE795E00E946F
:104CA0009C308AE00E949445BEC783E50E944E4531
:104CB000182F882371F00E941B450E9489AD7093C4
:104CC00002026093010221E0672B09F020E02093AB
:104CD000640980E50E944E45882359F02091010225
:104CE00030910202232B11F00E940C45809364093D
:104CF0009AC7111198C7E3E8F4E284918F010F5F1E
:104D00001F4F882321F00E949445F801F6CF80912F
:104D10006409811103C062EB72E002C065EA72E0CF
:104D200089E995E00E94323160910102709102029E
:104D300088E895E00E94FD30E4E8F5E084918F0179
:104D40000F5F1F4F882309F46EC70E949445F80136
:104D5000F5CF85E40E947D45882321F00E94EB4435
:104D60001B0102C0212C312C83E40E947D45882345
:104D700039F00E94EB44E5967FAF6EAFE59706C031
:104D8000E5E0F0E0E596FFAFEEAFE59785E50E9440
:104D90004E45A8968FAFA897882329F00E940C450E
:104DA000A8968FAFA89737FC07C0C12CD12C56E12D
:104DB000E52E53E4F52E06C0C12CD12C4CE8E42E90
:104DC00042E4F42E83E50E947D45882321F00E9471
:104DD0001B456B017C012114310411F410925B031B
:104DE0000E943B652B013C01DC01CB018C53964FAB
:104DF000AF4FBF4F8093EA109093EB10A093EC104D
:104E0000B093ED10C1010196029718F40BEC12E07B
:104E10000BC00EED12E0D8018D918D01882309F4AD
:104E2000EDC90E949445F7CFF80181918F01882345
:104E300019F00E949445F8CF8AE00E9494450E94A0
:104E4000E4698FE7FFEF2F163F0619F480934B11AB
:104E500002C080934C11C701B6010E9489AD072E94
:104E6000000C880B990B0E94D8B36EAF7FAF2196D0
:104E70008FAF219722969FAF229781E08093000207
:104E8000E3964CAE5DAE6EAE7FAEE397A7964CAEAA
:104E90005DAE6EAE7FAEA79723961FAE239720E43C
:104EA00024962FAF24973CE128963FAF289746E4FD
:104EB0002C964FAF2C9760961FAE609764961FAEEE
:104EC000649768961FAE68976C961FAE6C971AAE83
:104ED0001BAE1CAE1DAE1EAA1FAA18AE19AEC12C69
:104EE000D12C76013FE7832E912CA12CB12C8FE79A
:104EF00090E0A0E0B0E08EA79FA7A8ABB9ABA396C7
:104F00001CAE1DAE1EAE1FAEA39791E0AC969FAF38
:104F1000AC971BAA1AAA1EA21AA600E010E0809164
:104F20000002882309F430C20E943B656AA37BA378
:104F30008CA39DA380914911882309F408C10E9484
:104F4000F869AFEF2A163A0659F4B0913A11BEA3A8
:104F5000E0913B11EAA700913C1110913D110AC06C
:104F6000F0914E11FEA320914F112AA700915011EC
:104F7000109151112EA13AA5A80160966FAD6097CE
:104F800064967FAD649768968FAD68976C969FAD79
:104F90006C970E94D2B387FF0EC03EA160963FAFD0
:104FA00060974AA564964FAF649768960FAF68976D
:104FB0006C961FAF6C972EA13AA5A80123966FADF2
:104FC000239724967FAD249728968FAD28972C960B
:104FD0009FAD2C970E9474AE181674F45EA12396B0
:104FE0005FAF23978AA524968FAF249728960FAF9B
:104FF00028972C961FAF2C978091EA109091EB1078
:10500000A091EC10B091ED102AA13BA14CA15DA1A3
:10501000281B390B4A0B5B0B57FD12C00E9412581C
:105020008AA19BA1ACA1BDA18C53964FAF4FBF4F9E
:105030008093EA109093EB10A093EC10B093ED10D6
:10504000AC963FADAC972EAD332309F45CC03FADB9
:1050500021964FAD219722965FAD22976EA17AA53A
:10506000C8010E9474AE18160CF071C04AA15BA171
:105070006CA17DA14419550966097709DB01CA01B4
:1050800088589341A109B109B7FD61C08EA59FA5BC
:10509000A8A9B9A988199909AA09BB09B595A7951D
:1050A00097958795EFEF2E163E0619F480934B11D6
:1050B00002C080934C11A3964CAF5DAF6EAF7FAF33
:1050C000A397FEAD6096FFAF60972FAD64962FAFAC
:1050D000649721963FAD219768963FAF68972296D7
:1050E0004FAD22976C964FAF6C978AA19BA1ACA154
:1050F000BDA1E3968CAF9DAFAEAFBFAFE397AC96CB
:105100001FAEAC9724C03FAD21964FAD219722969C
:105110005FAD22976EA17AA5C8010E94D2B387FF26
:1051200016C08AA19BA1ACA1BDA1E3962CAD3DAD5B
:105130004EAD5FADE397821B930BA40BB50BAC0197
:10514000BD01485853416109710977FFF5C520E059
:1051500030E040EA51E46EAD7FAD21968FAD2197EE
:1051600022969FAD22970E942CAC9B01AC016EA1B0
:105170007AA5C8010E9474AE18166CF4E9E6F6E050
:1051800084918F010F5F1F4F882309F44CC50E9443
:105190009445F801F5CF80E398EFAFEFBFEFA79606
:1051A0002CAD3DAD4EAD5FADA797821B930BA40B0D
:1051B000B50B2AA13BA14CA15DA1820F931FA41F97
:1051C000B51FB7FD0FC00E9485948AE00E949445E8
:1051D0008AA19BA1ACA1BDA1A7968CAF9DAFAEAF9C
:1051E000BFAFA7978AA19BA1ACA1BDA1880F991FB2
:1051F000AA1FBB1FE3962CAD3DAD4EAD5FADE3974F
:10520000821B930BA40BB50B84199509A609B7094A
:1052100081389F44A241B10568F0EBE4F6E0849147
:105220008F010F5F1F4F882309F4FDC40E9494452E
:10523000F801F5CF4AA95BA9E5968EAD9FADE5973C
:10524000841795070CF06BCEEEEEF5E084918F019C
:105250000F5F1F4F882321F00E949445F801F6CF7D
:105260009FEF2916390619F00CE213E002C006EB95
:1052700012E0B8018CED95E0F5D7B701A60188EDF5
:1052800095E077D78AE00E949445B80186EC95E0D6
:10529000E9D74EA95FA968AD79AD82EC95E069D7F1
:1052A0008AE00E949445B80180EB95E0DBD74AADD7
:1052B0005BAD6CAD7DAD8CEA95E05BD78AE00E947A
:1052C0009445A896AFADA897AA2309F4ACC42320AF
:1052D000209469F5C092C711D092C811E092C9110B
:1052E000F092CA112CEA35EC47E25EE36EA97FA981
:1052F00088AD99AD0E9437B46093C3117093C41107
:105300008093C5119093C6112CEA35EC47E25EE319
:105310006AAD7BAD8CAD9DAD0E9418AD6093BF11A1
:105320007093C0118093C1119093C2117CC4C0923C
:10533000E210D092E310E092E410F092E5102CEA33
:1053400035EC47E25EE36EA97FA988AD99AD0E9476
:1053500037B46093DE107093DF108093E010909369
:10536000E1102CEA35EC47E25EE36AAD7BAD8CAD33
:105370009DAD0E9418AD6093E6107093E710809386
:10538000E8109093E9104FC48091000281114BC442
:105390000E94E46948C481E00E94B38E44C480E066
:1053A0000E94B38E40C40E946B913DC4F101E8534A
:1053B000F241FBA3EAA3D1018D911D01882309F4D9
:1053C0009AC0F7014080518062807380F801E75EE7
:1053D000FD4F2081318142815381F801E35BF44F1D
:1053E00060817181828193810E942CAC20E030E049
:1053F00040E05FE30E9437B49B01AC01C301B201FE
:105400000E9474AE181644F4F801E15BF24F8590E7
:105410009590A590B49003C0812C912C5401F80173
:10542000E952FE4E2081318142815381C301B20194
:105430000E942BAC9B01AC01C501B4010E942BACB6
:105440004B015C0120E030E040EA51EC0E9474AE78
:1054500087FD29C020E030E040EA51E4C501B401F5
:105460000E94D2B31816FCF0D6012D913D914D91BA
:105470005C91C501B4010E942BAC9B01AC01C3013E
:10548000B2010E942CACF701608371838283938305
:10549000D6018D929D92AD92BC9213978AA19BA149
:1054A0000E949B4528C0E4E1F4E284918F010F5FE4
:1054B0001F4F882321F00E949445F801F6CFEDEDAF
:1054C000F6E084918F010F5F1F4F882321F00E9427
:1054D0009445F801F6CF88E290E09A83898388ECBE
:1054E00090E09F8B8E8BBE016F5F7F4FCE01469603
:1054F0000E9426A498C3B4E0CB0ED11C0C5F1F4FB2
:10550000E4E0EE0EF11C0C30110509F04FCF0E94C3
:1055100080440E94F99183E992E09F8B8E8B04E690
:1055200010E01A830983BE016A5E7F4FCE010196A7
:105530000E9426A48AEB92E09F8B8E8B1A830983AC
:10554000BE016A5E7F4FCE0101960E9426A46BC306
:105550000E94107F68C30E945C7A65C30E94609AB3
:1055600062C383E50E944E45882319F00E940C45D2
:1055700001C081E091E089270E94699654C3E3E865
:10558000F4E284918F010F5F1F4F882321F00E9466
:105590009445F801F6CFE5E1F7E084918F010F5FC4
:1055A0001F4F882311F40C94EC200E949445F801BD
:1055B000F4CF0E941B456B017C0120E030E040EA03
:1055C00051EC0E9474AE87FD1BC020E030E040EA41
:1055D00051E4C701B6010E94D2B318168CF0C092F4
:1055E000D311D092D411E092D511F092D611C0927D
:1055F0002C02D0922D02E0922E02F0922F020AC1CC
:10560000EEEFF6E084918F010F5F1F4F882311F4B6
:105610000C94FE200E949445F801F4CF0E94ED59AD
:105620008BE40E947D45882399F00E941B456B0105
:105630007C0120E030E0A9010E9474AE87FD08C023
:10564000C0926909D0926A09E0926B09F0926C09E4
:1056500082E50E947D45882361F00E941B456B0115
:105660007C0120E030E0A9010E94D2B387FF89C00D
:1056700006C0C12CD12C40E8E42E4FEBF42E84E47C
:105680000E947D45882329F00E941B454B015C0147
:1056900006C0812C912C30E8A32E3FEBB32E87E57A
:1056A0000E947D45882329F00E941B452B013C0167
:1056B00006C0412C512C20E8622E2FEB722E88E47C
:1056C0000E947D45882339F00E941B456AA37BA375
:1056D0008CA39DA308C020E030E040E85FEB2AA344
:1056E0003BA34CA35DA320E030E0A901C501B401B8
:1056F0000E9474AE87FD45C020E030E0A901C301DF
:10570000B2010E9474AE87FD3CC020E030E0A901E8
:105710006AA17BA18CA19DA10E9474AE87FD31C0BE
:1057200020E030E0A901C501B4010E94D2B3882372
:1057300091F120E030E040E05FE3C501B4010E9458
:1057400037B46B017C012AA13BA14CA15DA1C3012F
:10575000B2010E9437B44B015C01A7019601C70159
:10576000B6010E9437B42BED3FE049E450E40E94BB
:1057700037B49B01AC01C501B4010E9418AD6B01A7
:105780007C0120E030E0A901C701B6010E9474AE9F
:1057900087FF04C00BC0C12CD12C7601C0926509D3
:1057A000D0926609E0926709F0926809E3E8F4E2B2
:1057B00084918F010F5F1F4F882321F00E94944531
:1057C000F801F6CF4091690950916A0960916B091F
:1057D00070916C098AE297E0CCD4E4E2F7E084911E
:1057E0008F010F5F1F4F882321F00E949445F8011D
:1057F000F6CFC0906509D0906609E0906709F090F7
:10580000680920E030E0A901C701B6010E94D2B3C7
:10581000882339F042E0C701B6010E94B6480C94D3
:10582000FE20EFE1F7E084918F010F5F1F4F882387
:1058300011F40C94FE200E949445F801F4CF83E506
:105840000E944E45811106C091E5E92E92E0F92EA5
:1058500010E012C00E941B456B017C0110E0B701F3
:10586000A601812F0E9461591F5F1530C1F7ECCF4F
:105870001F5F143009F4D7C1D7018D917D010E94BB
:105880004E458823A9F30E941B45AB01BC01812F23
:105890000E946159EDCF83E50E947D45882329F060
:1058A0000E94EB44162F072F02C010E000E080E5B5
:1058B0000E947D45882319F00E94FB4401C08FEFB0
:1058C00090911A0A992309F4AEC1E82FF0E0EB5A3F
:1058D000FD4FE081F0E0EE0FFF1FEE5EF54F812FF0
:1058E000902F8130B0E19B0710F080E090E1918330
:1058F00080830E94E6A088E00E94D6A094C1809197
:105900001A0A882309F48FC1E3E8F4E284918F0135
:105910000F5F1F4F882321F00E949445F801F6CFB6
:10592000E4E5F7E084918F010F5F1F4F882321F09A
:105930000E949445F801F6CFE3E8F4E284918F01E8
:105940000F5F1F4F882321F00E949445F801F6CF86
:105950006091160A7091170A80E090E00E94D6B319
:1059600020E030E048EC52E40E9437B420E030E020
:1059700040E859E30E9437B4AB01BC0180E597E0F1
:10598000F8D380E00E944159AB01BC018DE497E05F
:10599000F0D36091180A7091190A80E090E00E949B
:1059A000D6B320E030E048EC52E40E9437B420E067
:1059B00030E040E859E30E9437B4AB01BC0188E411
:1059C00097E0D7D381E00E944159AB01BC0185E447
:1059D00097E0CFD36091120A7091130A80E090E0B3
:1059E0000E94D6B320E030E048EC52E40E9437B485
:1059F00020E030E040E859E30E9437B4AB01BC013D
:105A000080E497E0B6D382E00E944159AB01BC012B
:105A10008DE397E0AED36091140A7091150A80E08F
:105A200090E00E94D6B320E030E048EC52E40E94BF
:105A300037B420E030E040E859E30E9437B4AB01CE
:105A4000BC0188E397E095D383E00E944159AB0104
:105A5000BC0185E397E08DD307E013E0F801819165
:105A60008F01882311F40C94FE200E949445F6CFF8
:105A700080911A0A882309F4D6C00E942FA1D3C0AE
:105A800080E50E947D45882331F00E94FB4480938D
:105A90001C0A11E001C010E083E50E947D458823C7
:105AA00029F00E940C4580931D0A01C011110E942B
:105AB0005B91E3E8F4E284918F010F5F1F4F88232D
:105AC00021F00E949445F801F6CF80911D0A8111C2
:105AD0000CC009E013E0D8018D918D01882311F4E9
