:100000000C9433120C9464120C9464120C946412C9
:100010000C9464120C9464120C9464120C94641288
:100020000C9464120C9464120C9464120C94641278
:100030000C9464120C9464120C9464120C94641268
:100040000C9464120C94964E0C9464120C946412EA
:100050000C9464120C9464120C945D940C94EC4D0A
:100060000C9464120C94DA370C9464120C9464129D
:100070000C9464120C9464120C9464120C94641228
:100080000C9464120C9464120C9464120C94641218
:100090000C9464120C9464120C9464120C946B65AE
:1000A0000C9464120C9464120C9464120C946412F8
:1000B0000C9464120C9464120C9464120C946412E8
:1000C0000C9464120C9464120C9464120C946412D8
:1000D0000C9464120C9464120C9464120C946412C8
:1000E0000C9464120D381438283835383F385A3893
:1000F00044385A3849384E385A38563869626C6232
:100100005B625F626562A362706274627A627E6241
:10011000826288628C629062A36296629A629E6238
:100120005B67606765676F677967F26783678B678F
:1001300093679D67A767B167C067CA67F267D467AF
:10014000DE67E867084AD73B3BCE016E84BCBFFD43
:10015000C12F3D6C74319ABD56833DDA3D00C77F97
:1001600011BED9E4BB4C3E916BAAAABE0000008030
:100170003F05A84CCDB2D44EB93836A9020C50B9BF
:10018000918688083CA6AAAA2ABE000000803F00EB
:100190000C949D670C94E3610C947A620C94B167A3
:1001A0000C9465620C9470620C9482620C944438D6
:1001B0000C94BF610C94BE2D0C94C0670C946567C1
:1001C0000C9483670C949A620C941B620C94886262
:1001D0000C9490620C947E620C9456380C948B674D
:1001E0000C945B670C9449380C9414380C945A386E
:1001F0000C9479670C94E8670C948C620C944B62B5
:100200000C94DE670C949E620C94EB610C94696212
:100210000C9435380C94F2670C946F670C94C061A1
:100220000C94A3620C94D4670C9460670C943F38D0
:100230000C945F620C94A7670C948DA70C940D38F6
:100240000C944E380C9493670C94CA670C94CF614D
:100250000C9474620C946C620C9428380C94966222
:100260000C945B624C4556454C494E4700434F4DFC
:100270004D554E49434154494F4E004452595255F1
:100280004E004552524F525300494E464F0045438F
:10029000484F0047322F47332062616420706172FB
:1002A000616D65746572730A0047322F47332062AF
:1002B000616420706172616D65746572730A0020FB
:1002C0005A3A200020593A200042656420583A20CA
:1002D000004D65736820706F696E742063616E6E87
:1002E0006F74206265207265736F6C7665640A00B6
:1002F0002569730025696D202569730025696820CB
:1003000025696D20256973002569642025696820A9
:1003100025696D2025697300256979202569642088
:100320002569682025696D20256973005072696E02
:10033000742074696D653A200050726F746563743F
:1003400065642050696E0A008E02890282027B0277
:100350006D0264026F66660044454255473A004D9F
:100360003131332053006F6B0020573A00436170E6
:100370003A454D455247454E43595F5041525345CA
:10038000523A310A004361703A434153455F4C4948
:100390004748545F4252494748544E4553533A31B7
:1003A0000A004361703A544F47474C455F4C4947F8
:1003B0004854533A310A004361703A534F465457F8
:1003C0004152455F504F5745523A300A00436170E1
:1003D0003A4C4556454C494E475F444154413A31A9
:1003E0000A004361703A5A5F50524F42453A310A0F
:1003F000004361703A4155544F4C4556454C3A3193
:100400000A004361703A5052494E545F4A4F423A93
:10041000310A004361703A50524F47524553533AA4
:10042000300A004361703A4155544F5245504F5283
:10043000545F54454D503A310A004361703A454586
:1004400050524F4D3A310A004649524D574152459C
:100450005F4E414D453A4D61726C696E204D61723F
:100460006C696E5F312E312E365F526F626F56654A
:100470007273696F6E5F312E322E3420526F626F4D
:1004800020433220534F555243455F434F44455F0D
:1004900055524C3A68747470733A2F2F67697468B8
:1004A00075622E636F6D2F526F626F33442F4D61F3
:1004B000726C696E2050524F544F434F4C5F5645FB
:1004C0005253494F4E3A312E30204D414348494E08
:1004D000455F545950453A20526F626F2043322095
:1004E00045585452554445525F434F554E543A3146
:1004F00020555549443A63656465326132662D344E
:100500003161322D343734382D396231322D633533
:10051000356336326633363766660A002F2F200081
:100520007A5F6D61783A20007A5F6D696E3A2000DB
:10053000795F6D61783A2000785F6D696E3A2000CE
:100540005265706F7274696E6720656E6473746F44
:1005500070207374617475730A0053657474696EE6
:10056000672054726176656C20416363656C6572C7
:100570006174696F6E3A200053657474696E672008
:100580005265747261637420416363656C65726166
:1005900074696F6E3A200053657474696E672050F9
:1005A00072696E7420416363656C65726174696F12
:1005B0006E3A200053657474696E67205072696EDC
:1005C0007420616E642054726176656C20416363AF
:1005D000656C65726174696F6E3A2000205A002064
:1005E0005900580020204D61783A2000205A002000
:1005F0005900580020204D696E3A20004F6E2000AF
:100600004F666600536F667420656E6473746F7016
:10061000733A2000000136372603FF3C3D38FF0EB9
:100620002E303E1312FFFF080706FF061A1C18FFA4
:10063000FF08440A0B43FFFFFFFFFFFF20643A005F
:1006400020693A0020703A0020643A0020693A009C
:1006500020703A0043757272656E743A20004265EC
:1006600064204C6576656C696E6720004661696C34
:10067000656420746F20656E61626C6520426564FC
:10068000204C6576656C696E670A004D657368205D
:10069000706F696E742063616E6E6F742062652086
:1006A0007265736F6C7665640A004D34323120696F
:1006B0006E636F727265637420706172616D6574D0
:1006C00065722075736167650A00546F6F206661FB
:1006D000722066726F6D207265666572656E636505
:1006E00020706F696E740A003A20007A5F6D696E3F
:1006F0003A20202D3230207A5F6D61783A20203206
:1007000030005A204F666673657420004163746937
:1007100076652045787472756465723A20003C3CB9
:100720003C2067636F64655F540A00203A204146AD
:100730005445520A00202063757272656E745F70B2
:100740006F736974696F6E3D00203A204245464FD1
:1007500052450A00202063757272656E745F706F77
:10076000736974696F6E3D003E3E3E2067636F643F
:10077000655F542800556E6B6E6F776E20636F6DEA
:100780006D616E643A2022004B494C4C45442E204A
:10079000002C20002C2000203A2073796E635F70BB
:1007A0006C616E5F706F736974696F6E0A002020F0
:1007B00063757272656E745F706F736974696F6E62
:1007C0003D00656E7175657565696E672022004E26
:1007D0006F204C696E65204E756D62657220776979
:1007E000746820636865636B73756D2C204C61734E
:1007F00074204C696E653A20005072696E7465729F
:100800002073746F707065642064756520746F2048
:100810006572726F72732E20466978207468652045
:100820006572726F7220616E6420757365204D3938
:10083000393920746F20726573746172742E2028A8
:1008400054656D706572617475726520697320728C
:10085000657365742E205365742069742061667415
:1008600065722072657374617274696E67290A001B
:100870004E6F20436865636B73756D20776974688C
:10088000206C696E65206E756D6265722C204C61FE
:100890007374204C696E653A2000636865636B73FE
:1008A000756D206D69736D617463682C204C617384
:1008B00074204C696E653A20004C696E65204E7557
:1008C0006D626572206973206E6F74204C61737461
:1008D000204C696E65204E756D6265722B312C203F
:1008E0004C617374204C696E653A20004D31313093
:1008F0000020496E76616C69642065787472756455
:1009000065722000000000000000000000000000F0
:100910000000FE420000FE42000020430A20736FE8
:1009200066745F656E6473746F705F6D6178203D8F
:1009300020000A20736F66745F656E6473746F7055
:100940005F6D696E203D20000A20706F73697469C5
:100950006F6E5F7368696674203D2000206178695E
:10096000733A0A20686F6D655F6F66667365742001
:100970003D2000466F7220003C3C3C20646F5F626B
:100980006C6F636B696E675F6D6F76655F746F0A1E
:10099000003E3E3E20646F5F626C6F636B696E6702
:1009A0005F6D6F76655F746F00203A2073657475B4
:1009B000705F666F725F656E6473746F705F6F7285
:1009C0005F70726F62655F6D6F76650A00202063ED
:1009D000757272656E745F706F736974696F6E3D66
:1009E00000203A20636C65616E5F75705F616674AC
:1009F00065725F656E6473746F705F6F725F707243
:100A00006F62655F6D6F76650A0020206375727294
:100A1000656E745F706F736974696F6E3D00646FAB
:100A20005F70726F62655F726169736528006465EB
:100A3000706C6F793A2000203A207365745F707291
:100A40006F62655F6465706C6F7965640A00202071
:100A500063757272656E745F706F736974696F6EBF
:100A60003D00203A203C3C3C20646F5F70726F6216
:100A7000655F6D6F76650A00202063757272656E22
:100A8000745F706F736974696F6E3D00203A203E29
:100A90003E3E20646F5F70726F62655F6D6F76655A
:100AA0000A00202063757272656E745F706F7369DF
:100AB00074696F6E3D0072657365745F6265645F33
:100AC0006C6576656C0A002028646F6E65290A00E3
:100AD0004578747261706F6C617465205B00426967
:100AE0006C696E656172204C6576656C696E672015
:100AF000477269643A0A003C3C3C20646F5F686F4F
:100B00006D696E675F6D6F766528002C20002C2064
:100B1000003E3E3E20646F5F686F6D696E675F6D7B
:100B20006F7665280041424C2041646A7573746D8C
:100B3000656E74205A002028656E61626C656429B8
:100B40000A00202864697361626C6564290A0042A6
:100B5000494C494E454152004175746F20426564CD
:100B6000204C6576656C696E673A2000204E6F7A7E
:100B70007A6C65290A0020262041626F7665002084
:100B8000262053616D65205A206173002026204283
:100B9000656C6F77002D4261636B00202852696796
:100BA000687400205A3A0020593A0050726F62650A
:100BB000204F666673657420583A004649585F4D69
:100BC0004F554E5445445F50524F42450A005072B3
:100BD0006F62653A200043617274657369616E0AE1
:100BE000004D616368696E6520547970653A200034
:100BF0003C3C3C2067636F64655F4732380A0020E5
:100C00003A203E20686F6D65590A00202063757296
:100C100072656E745F706F736974696F6E3D0020EA
:100C20003A203E20686F6D65580A00202063757277
:100C300072656E745F706F736974696F6E3D0020CA
:100C40003A203E20484F4D4541584953285A290AD9
:100C500000202063757272656E745F706F736974C3
:100C6000696F6E3D003E20656E6473746F70732E05
:100C7000656E61626C652874727565290A003E3E76
:100C80003E2067636F64655F4732380A0020706FEB
:100C9000736974696F6E206F7574206F662072615E
:100CA0006E67652E0A003F50726F626520003C3C03
:100CB0003C2067636F64655F4732390A0020636FC9
:100CC00072726563746564205A3A00473239207540
:100CD0006E636F72726563746564205A3A00203ADD
:100CE000203E2070726F62696E6720636F6D706C5A
:100CF0006574650A00202063757272656E745F709A
:100D00006F736974696F6E3D0052756E6E696E67C0
:100D100020696E204452592D52554E206D6F6465E6
:100D20000A00473239204175746F20426564204CB7
:100D30006576656C696E670A0028422961636B00FD
:100D4000284629726F6E74002852296967687400FA
:100D5000284C29656674003F2856296572626F73B6
:100D600065206C6576656C20697320696D706C61B7
:100D7000757369626C652028302D34292E0A004273
:100D80006164205A2076616C75650A004E6F20629E
:100D9000696C696E65617220677269640A00203A45
:100DA000203E3E3E2067636F64655F4732390A002C
:100DB000202063757272656E745F706F73697469F9
:100DC0006F6E3D0020746F6F206C6F6E67206578CA
:100DD00074727573696F6E2070726576656E746576
:100DE000640A0020636F6C6420657874727573699F
:100DF0006F6E2070726576656E7465640A00627548
:100E000073793A2070617573656420666F7220692A
:100E10006E7075740A00627573793A20706175732B
:100E2000656420666F7220757365720A006275735F
:100E3000793A2070726F63657373696E670A004B4D
:100E4000494C4C45442E20004B494C4C2063617565
:100E5000736564206279204B494C4C206275747430
:100E60006F6E2F70696E0A004B494C4C45442E2022
:100E7000004B494C4C206361757365642062792096
:100E8000746F6F206D75636820696E616374697635
:100E9000652074696D65202D2063757272656E74AE
:100EA00020636F6D6D616E643A20005072696E74DC
:100EB00065722068616C7465642E206B696C6C28A7
:100EC000292063616C6C6564210A00000000000049
:100ED00000FE42000020433C3C3C207365745F618F
:100EE0007869735F69735F61745F686F6D6528000F
:100EF000203A200A00202063757272656E745F705C
:100F00006F736974696F6E3D005D203D20003E2067
:100F1000686F6D655F6F66667365745B003E3E3E2D
:100F2000207365745F617869735F69735F61745F73
:100F3000686F6D65280000005C4200005C420000A4
:100F40004041000000005761726E696E673A2048A8
:100F50006F6D696E672042756D70204469766973A4
:100F60006F72203C20310A000202040000A0400001
:100F700000A040000000400000FE420000FE4200D1
:100F80000020433C3C3C20686F6D656178697328A4
:100F900000203A203E204146544552207365745F3C
:100FA000617869735F69735F61745F686F6D650A0B
:100FB00000202063757272656E745F706F73697460
:100FC000696F6E3D00486F6D65203220536C6F77FE
:100FD0003A0A004D6F766520417761793A0A0048F8
:100FE0006F6D65203120466173743A0A00FF01017C
:100FF0003E3E3E20686F6D656178697328004572DA
:10100000726F722077726974696E6720746F204501
:101010004550524F4D210A004B494C4C45442E201F
:1010200000202D20496E76616C69642065787472A9
:1010300075646572206E756D62657220210A0020EC
:1010400020506C616E6E657242756666657242799B
:101050007465733A20002046726565204D656D6F9A
:1010600072793A2000436F6D70696C65643A204D67
:10107000617220313220323031380A00207C204128
:101080007574686F723A20526F626F0A00313420B3
:10109000464542203230313800204C61737420556F
:1010A0007064617465643A20004D61726C696E5FB2
:1010B000312E312E365F526F626F56657273696FD3
:1010C0006E5F312E322E340A004D61726C696E00F3
:1010D00020536F6674776172652052657365740A78
:1010E00000205761746368646F672052657365748C
:1010F0000A002042726F776E206F757420526573FC
:1011000065740A002045787465726E616C205265C2
:101110007365740A00506F77657255700A007374B6
:101120006172740A00205A3A0020593A0020583A55
:1011300000656E6473746F7073206869743A200080
:1011400024F4D43050C38E20C2A24017828B701179
:10115000127A910D816CD90AA861E108C758660717
:10116000615143061E4B5D05C145A7041A41110498
:10117000093D9803713931034036DB026533910232
:10118000D4305402802E1D02632CEE01752AC50155
:10119000B028A001102781018F2564012B244B0169
:1011A000E0223401AC211F018D200D01801FFC00C5
:1011B000841EED00971DDF00B81CD200E61BC600A0
:1011C000201BBC00641AB200B219A8000A19A000C2
:1011D0006A189900D117910040178B00B51684004A
:1011E00031167E00B31579003A157300C7146F00ED
:1011F00058146A00EE1366008813630025135E001E
:10120000C7125B006C12570015125400C111510037
:1012100070114F0021114B00D61049008D1047006E
:101220004610440002104200C00F4000800F3E00F4
:10123000420F3C00060F3B00CB0E3800930E3700E8
:101240005C0E3500270E3400F30D3200C10D310065
:10125000900D3000600D2E00320D2D00050D2C007C
:10126000D90C2B00AE0C2900850C29005C0C270042
:10127000350C27000E0C2600E80B2400C40B2400BC
:10128000A00B23007D0B23005A0B2100390B2100FA
:10129000180B2000F80A1F00D90A1E00BB0A1E0006
:1012A0009D0A1D00800A1D00630A1C00470A1B00DE
:1012B0002C0A1B00110A1A00F7091A00DD0919008F
:1012C000C4091900AB091900920917007B0918001D
:1012D000630917004C09160036091600200916008C
:1012E0000A091500F5081500E0081400CC081400E0
:1012F000B8081400A4081400900813007D08120018
:101300006B08130058081200460812003408110038
:10131000230811001208110001081100F007100045
:10132000E0071000D0071000C0071000B0070F0042
:10133000A107100091070E0083070F0074070F002C
:1013400065070E0057070E0049070E003B070D000A
:101350002E070E0020070D0013070D0006070D00D5
:10136000F9060C00ED060D00E0060C00D4060C009A
:10137000C8060C00BC060C00B0060C00A4060B004E
:1013800099060C008D060B0082060B0077060B00F9
:101390006C060B0061060A0057060B004C060A009B
:1013A00042060A0038060A002E060A0024060A0031
:1013B0001A060A001006090007060A00FD050900C2
:1013C000F4050900EB050900E2050900D90509004B
:1013D000D0050900C7050900BE050900B5050800CC
:1013E000AD050800A50509009C0508009405080046
:1013F0008C050800840508007C05080074050800B9
:101400006C050700650508005D0507005605080026
:101410004E0507004705070040050800380507008E
:10142000310507002A050700230507001C050600F3
:10143000160507000F05070008050600020507004E
:10144000FB040600F5040700EE040600E8040600AD
:10145000E2040700DB040600D5040600CF04060002
:10146000C9040600C3040600BD040600B704060054
:10147000B1040500AC040600A6040600A0040500A3
:101480009B04060095040500900406008A040500EC
:1014900085040500800406007A0405007504050033
:1014A000700405006B040500660405006104050076
:1014B0005C04050057040500520405004D040500B6
:1014C00048040500430405003E0404003A040500F6
:1014D00035040500300404002C0405002704040032
:1014E000230405001E0404001A0404001604050069
:1014F000110404000D0404000904050004040400A0
:1015000000040400FC030400F8030400F4030400D6
:10151000F0030400EC030400E8030400E403040007
:10152000E0030400DC030400D8030400D403040037
:10153000D0030400CC030400C8030300C503030068
:1015400024F404D9201BC40C5C0E9804C4095F0267
:1015500065077101F405F900FB04B3004804870036
:10156000C10369005803550003034500BE023A0059
:101570008402310053022A002902250004022000BF
:10158000E4011C00C8011900AF0117009801140004
:1015900084011300710110006101100051010E005F
:1015A00043010D0036010B002B010B0020010B0045
:1015B000150109000C01090003010800FB000800E7
:1015C000F3000800EB000700E4000600DE00060060
:1015D000D8000600D2000600CC000500C7000500B8
:1015E000C2000500BD000400B9000400B5000400FD
:1015F000B1000400AD000400A9000400A500030030
:10160000A20003009F0004009B0003009800030059
:101610009500020093000300900003008D0002007B
:101620008B00030088000200860002008400030093
:10163000810002007F0002007D0002007B000200AA
:1016400079000200770001007600020074000200B9
:1016500072000100710002006F0002006D000100C5
:101660006C0002006A0001006900020067000100CE
:1016700066000100650001006400020062000100D4
:1016800061000100600001005F0002005D000100D8
:101690005C0001005B0001005A00010059000100DC
:1016A00058000100570001005600010055000100DC
:1016B00054000100530000005300010052000100DB
:1016C00051000100500001004F0001004E000000D9
:1016D0004E0001004D0001004C0001004B000000D5
:1016E0004B0001004A0001004900010048000000D1
:1016F00048000100470001004600000046000100CC
:1017000045000000450001004400010043000000C6
:1017100043000100420000004200010041000000BF
:1017200041000100400001003F0000003F000100B7
:101730003E0000003E0001003D0000003D000100B1
:101740003C0000003C0000003C0001003B000000A9
:101750003B0001003A0000003A000100390000009F
:101760003900010038000000380000003800010096
:10177000370000003700010036000000360000008E
:101780003600010035000000350000003500010082
:101790003400000034000000340001003300000079
:1017A000330000003300010032000000320000006E
:1017B0003200010031000000310000003100010062
:1017C0003000000030000000300001002F00000059
:1017D0002F0000002F0000002F0001002E0000004D
:1017E0002E0000002E0001002D0000002D00000042
:1017F0002D0000002D0001002C0000002C00000036
:101800002C0000002C0001002B0000002B00000029
:101810002B0000002B0001002A0000002A0000001D
:101820002A0000002A000100290000002900000011
:101830002900000029000000290001002800000004
:1018400028000000280000002800000028000100F7
:1018500027000000270000002700000027000000EC
:1018600027000100260000002600000026000000DE
:1018700026000000260001002500000025000000D1
:1018800025000000250000002500000025000100C3
:1018900024000000240000002400000024000000B8
:1018A00024000100230000002300000023000000AA
:1018B000230000002300000023000000230001009B
:1018C0002200000022000000220000002200000090
:1018D0002200000022000100210000002100000081
:1018E0002100000021000000210000002100000074
:1018F0002100010020000000200000002000000066
:101900002000000020000000200000002000000057
:10191000200001001F0000001F0000001F00000049
:101920001F0000001F0000001F0000001F0001003A
:101930001E0000001E0000001E0000001E0000002F
:1019400020520020204D393030204B004C696E650C
:10195000617220416476616E63653A0A0020204D11
:10196000383531205A005A2D50726F6265204F660B
:101970006673657420286D6D293A0A0020440020A2
:10198000490020204D3330342050002044002049AD
:101990000020204D333031205000504944207365E1
:1019A0007474696E67733A0A0020204D3432302017
:1019B00053004175746F20426564204C6576656CF8
:1019C000696E673A0A00205A0020590020204D32E3
:1019D0003036205800486F6D65206F6666736574F9
:1019E0003A0A00204500205A0020590020580020C3
:1019F000420020540020204D3230352053004164F5
:101A000076616E6365643A20533C6D696E5F66650E
:101A10006564726174653E20543C6D696E5F7472DA
:101A20006176656C5F66656564726174653E2042CF
:101A30003C6D696E5F7365676D656E745F74696D2B
:101A4000655F6D733E20583C6D61785F78795F6AA1
:101A500065726B3E205A3C6D61785F7A5F6A657291
:101A60006B3E20453C6D61785F655F6A65726B3ED9
:101A70000A0020540020520020204D3230342050E3
:101A800000416363656C65726174696F6E202875CF
:101A90006E6974732F7332293A20503C7072696EEC
:101AA000745F616363656C3E20523C726574726161
:101AB00063745F616363656C3E20543C747261764D
:101AC000656C5F616363656C3E0A00204500205AC7
:101AD0000020590020204D3230312058004D6178CF
:101AE000696D756D20416363656C65726174696FC2
:101AF0006E2028756E6974732F7332293A0A00209C
:101B00004500205A0020590020204D323033205803
:101B1000004D6178696D756D2066656564726174EC
:101B200065732028756E6974732F73293A0A002033
:101B30004500205A0020590020204D3932205800FD
:101B400053746570732070657220756E69743A0AFB
:101B50000020204D3230302044300A0020204D3209
:101B600030302044002044697361626C65640A006F
:101B700046696C616D656E742073657474696E6717
:101B8000733A002020473231202020203B20556E20
:101B900069747320696E206D6D0A000000210024B5
:101BA0000027002A002D003000330001010000044E
:101BB0000107010A0100002200250028002B002E49
:101BC000003100340002010000050108010B010092
:101BD0000020002300260029002C002F00320000E6
:101BE00001000003010601090105050505070508B7
:101BF000080808020202020A0A0808040404040190
:101C000001010101010101030303030303030304B1
:101C10000707070C0C0C0C0C0C0C0C020202020641
:101C2000060606060606060B0B0B0B0B0B0B0B0131
:101C300002102020080810204010204080020102DD
:101C400001080402010102040810204080804020A5
:101C500010080402018004020180402010080402E0
:101C6000010804020101020408102040800102045E
:101C7000081020408000000A0B02090C0D0E080716
:101C8000030401000000000000000000000000004C
:101C90000000000000000000000000000000000044
:101CA0000012111000000000000000000000000001
:101CB0000000000000000000000000204469736381
:101CC000726570616E63793A00326E642050726F93
:101CD0006265205A3A00203A203C3C3C2072756EE6
:101CE0005F7A5F70726F62650A002020637572729E
:101CF000656E745F706F736974696F6E3D003173E8
:101D0000742050726F6265205A3A00203A203E3E9D
:101D10003E2072756E5F7A5F70726F62650A002096
:101D20002063757272656E745F706F736974696F2A
:101D30006E3D0050726F62696E67206661696C6506
:101D4000640A004572726F723A003C3C3C2070722B
:101D50006F62655F70740A00205A3A200020593A79
:101D6000200042656420583A2000203A200A0020D2
:101D70002063757272656E745F706F736974696FDA
:101D80006E3D0073746F77290A002C20002C200010
:101D90003E3E3E2070726F62655F70742800290AB3
:101DA000002062797465733B206372632000536581
:101DB0007474696E67732053746F726564202800B1
:101DC000202863616C63756C6174656429210A0065
:101DD00020213D2000454550524F4D204352432085
:101DE0006D69736D61746368202D202873746F7240
:101DF0006564292000290A002062797465733B20FC
:101E000063726320002073746F726564207365745D
:101E100074696E6773207265747269657665642093
:101E20002800204D61726C696E3D563431290A00DC
:101E300028454550524F4D3D00454550524F4D208D
:101E400076657273696F6E206D69736D6174636816
:101E5000200048617264636F646564204465666154
:101E6000756C742053657474696E6773204C6F6170
:101E70006465640A00B80B0000B80B000064000041
:101E800000E8030000000096430000964300004075
:101E9000410000C8410000A0420000A042000048EC
:101EA0004400801143202F0020403A00205A3A007D
:101EB00020593A0020436F756E7420583A0020452F
:101EC0003A00205A3A0020593A00583A0043290A69
:101ED0000061626C656420286D696E2074656D70A8
:101EE0002000436F6C64206578747275646573209C
:101EF00061726520004B64200023646566696E652D
:101F0000202044454641554C545F004B6920002336
:101F1000646566696E65202044454641554C545FB2
:101F2000004B70200023646566696E65202044457F
:101F30004641554C545F00504944204175746F74BC
:101F4000756E652066696E697368656421205075D9
:101F50007420746865206C617374204B702C204B66
:101F60006920616E64204B6420636F6E7374616ED0
:101F700074732066726F6D2062656C6F7720696E76
:101F8000746F20436F6E66696775726174696F6EF6
:101F90002E680A00504944204175746F74756E654F
:101FA000206661696C6564212074696D656F757464
:101FB0000A00504944204175746F74756E6520663F
:101FC00061696C6564212054656D7065726174751A
:101FD000726520746F6F20686967680A00204B641F
:101FE0003A2000204B693A2000204B703A20000A2A
:101FF00020436C617373696320504944200A0020B8
:1020000054753A2000204B753A2000206D61783AD3
:102010002000206D696E3A200020643A2000206282
:102020006961733A20004175746F0020452F443D6B
:1020300000416476616E6365204B3D0043617365CA
:10204000206C696768743A200020746F6F206C6F91
:102050006E6720657874727573696F6E2070726533
:1020600076656E7465640A0020636F6C6420657821
:1020700074727573696F6E2070726576656E7465C3
:10208000640A0050726F6265204F66667365742043
:102090006973205A3A20005374616E64617264203F
:1020A000446576696174696F6E3A20002052616EF2
:1020B00067653A2000204D61783A2000204D696E16
:1020C0003A20004D65616E3A200046696E6973687A
:1020D0006564210A002072616E67653A2000206DF8
:1020E00061783A2000206D696E3A2000207369679C
:1020F0006D613A2000206D65616E3A20003A207AC9
:102100003A2000206F662000205A002059002058F5
:1021100000476F696E6720746F3A00436C6F636BA2
:10212000776973650A00436F756E7465722D0020C0
:10213000446972656374696F6E3A200020202061E3
:102140006E676C653A20005374617274696E672023
:102150007261646975733A2000506F736974696FB6
:102160006E696E67207468652070726F62652E2ECE
:102170002E0A003F4E756D626572206F66206C6599
:10218000677320696E206D6F76656D656E74206E65
:102190006F7420706C61757369626C652028302DD6
:1021A0003135292E0A00590058003F53616D706C7B
:1021B000652073697A65206E6F7420706C61757329
:1021C00069626C652028342D3530292E0A004D3483
:1021D00038205A2D50726F626520526570656174A7
:1021E0006162696C69747920546573740A003F28D0
:1021F00056296572626F7365206C6576656C20691F
:102200007320696D706C61757369626C652028302C
:102210002D34292E0A0070012C0190012701B001F4
:102220002201C0011D01F00118011002130130024A
:102230000E016002090190020401C002FF000003C8
:10224000FA004003F5008003F000D003EB00200407
:10225000E6007004E100E004DC004005D700C005A2
:10226000D2004006CD00D006C8008007C300300869
:10227000BE00F008B900C009B400B00AAF00B00B4E
:10228000AA00D00CA500000EA000500F9B00C010AB
:1022900096005012910000148C00C0158700B017F2
:1022A0008200B0197D00D01B7800001E7300402012
:1022B0006E0090226900F024640040275F0090299E
:1022C0005A00E02B5500102E500020304B001032E9
:1022D0004600E033410090353C001037370070383D
:1022E0003200A0392D00B03A2800A03B2300603C0A
:1022F0001E00103D1900903D1400103E0F00703E6E
:102300000A00C03E0500003F0000403FFBFF803F49
:10231000F6FFC03FF1FF2028002920453A00202881
:102320000029205A3A002028002920593A00202864
:102330000020583A0053746570706572206375729E
:1023400072656E742076616C75657320696E2025E8
:102350002028416D7073293A0A000B0BFFFFFF0024
:10236000000202026265640A002C207379737465AE
:102370006D2073746F7070656421204865617465A9
:10238000725F49443A200048656174696E6720664F
:1023900061696C65640048656174696E6720666197
:1023A000696C6564004572723A204D494E54454D42
:1023B00050004D494E54454D502074726967676511
:1023C000726564004572723A204D415854454D5033
:1023D000004D415854454D502074726967676572CD
:1023E0006564002066697273740A005A00590058C7
:1023F00000486F6D6520006563686F3A005448457A
:10240000524D414C2052554E415741590054686538
:10241000726D616C2052756E6177617900526573DF
:10242000656E643A20006F6B004E414E494E495430
:1024300059494E46CDCCCC3D0AD7233C17B7D138AD
:1024400077CC2B329595E6241FB14F0A000020412E
:102450000000C84200401C4620BCBE4CCA1B0E5A9D
:10246000AEC59D748DA711241FBECFEFD1E2DEBF94
:10247000CDBF00E00CBF13E0A0E0B2E0ECE8F8E66E
:1024800001E00BBF02C007900D92A235B107D9F74A
:1024900023E1A2E5B3E001C01D92A733B207E1F743
:1024A00012E1C3E3D2E100E006C021970109802FC9
:1024B000FE010E9408A8C233D10780E00807A9F7EF
:1024C0000E942FA30C9444B40C9400002F923F92CE
:1024D0004F925F926F927F928F929F92AF92BF9234
:1024E000CF92DF92EF92FF920F931F93CF93DF93E0
:1024F000CDB7DEB7CC57D1090FB6F894DEBF0FBE0B
:10250000CDBF0091910A20E6029F80011124095855
:102510001C4F80915C1080FF1AC0E7EFF3E28491BA
:102520007F013FEFE31AF30A811102C0780104C072
:102530000E94F330F701F3CFD7018D917D018823FD
:1025400019F00E94F330F8CF8AE00E94F33081E066
:1025500090E09093F2098093F1091092780910921B
:1025600077098FE380937B0910927A091092790999
:1025700010926C0310926D0310926E0310926F0311
:10258000F80180810F5F1F4F8032D1F38E34B1F498
:10259000818190ED980F9A3020F08D3211F08B32BE
:1025A00069F43296DF0131962C9120532A30D0F312
:1025B000CD01FC01019620812032D9F3F093F90975
:1025C000E093F8097F01BFEFEB1AFB0A10816AE282
:1025D00070E0C7010E9428AB009731F0FC013197F1
:1025E00080818032E1F311821D3429F0143519F015
:1025F000173409F0CFC0F70180812FEFE21AF20AF9
:102600008032C9F380538A3008F0C4C010937B092C
:102610002091790930917A094AE03196429FC001B0
:10262000439F900D1124DF0111972C91022E000C75
:10263000330B20533109280F391F808180538A3092
:1026400060F330937A0920937909DF0131968C91F8
:102650008032D9F31D3449F00091F809409177098F
:102660005091780961E070E058C02E31310591F049
:102670003CF42731310571F02C31310569F70AC07E
:10268000253731054CF32737310524F0203A43E054
:10269000340711F7B0937809A09377097BC0813292
:1026A00009F445C09FEBB92EB80E89E1A82EAB14F2
:1026B00008F45EC0DF01FD01908111969032D9F3DC
:1026C000A0EDA90FAA3008F047C04F01EB2CF12C68
:1026D0006701A3E0D594C794AA95E1F7C601845990
:1026E0009C4F6C018B2D8770DB0102C0AA0FBB1FB2
:1026F0008A95E2F7CD01D6019C91892B8C938114A8
:102700009104A1F1801AC7018E5A9C4FDC018C9272
:10271000808181548A3188F5DF01FD0131968C91E9
:102720008111BDCF509378094093770933C01D3490
:1027300009F0B8CF2032310509F0B4CFF093780911
:10274000E093770963E270E0CF010E9428AB009725
:1027500009F1DC011C921EC0A3EDA90FA23008F400
:10276000B4CF9B3211F00C94382BAFCF812CCBCF50
:102770004115510569F6AD01CBCFDF0131969C9132
:1027800090539A30D0F3CD01FC010196A081A03284
:10279000D9F3C2CF80917B098D3411F40C94EC1CD9
:1027A000843511F40C94AA2A873411F00C94172B59
:1027B0008091790990917A098D31910509F4D2C6F9
:1027C000D4F48430910544F4823091050CF043C078
:1027D00097FF35C00C94312B8530910509F440C228
:1027E0000CF401C24C9711F00C94312B80E00E9444
:1027F000CB3F0C94312B8A32910511F40C94001CC0
:102800006CF48332910509F439C78432910509F4D7
:1028100039C74E9711F00C94312BA8C68B35910512
:1028200009F439C78C35910509F43AC78A35910501
:1028300011F00C94312B109276030C94312B809173
:102840003202882311F40C94312B0E946D410E94B6
:10285000BB4C0C94312B20913202222311F40C94A6
:10286000312B11E0029709F010E00E946D411982AE
:102870001A821B821C821D821E821F82188682E59C
:102880000E948D30882309F42CC10E942B306B01EB
:102890007C012091ED113091EE114091EF1150919A
:1028A000F0112AA33BA34CA35DA38090F11190905B
:1028B000F211A090F311B090F41180910E0A909152
:1028C0000F0AA091100AB091110A8EA39FA3A8A786
:1028D000B9A72091120A3091130A4091140A50911D
:1028E000150A2AA73BA74CA75DA720E030E0A90165
:1028F000C701B6010E94EDAF882309F408C12AA1DF
:102900003BA14CA15DA16EA17FA188A599A50E94C4
:10291000EDAF81110BC0A50194016AA57BA58CA523
:102920009DA50E94EDAF882309F4F1C020E030E0BE
:10293000A901C701B6010E94EDAF881F8827881F33
:10294000181309C080E090E0A0E8BFE38AAF9BAF16
:10295000ACAFBDAF08C020E030E040E85FEB2AAF8D
:102960003BAF4CAF5DAF2AA13BA14CA15DA16EA1D5
:102970007FA188A599A50E9410A86AAB7BAB8CAB00
:102980009DABA50194016AA57BA58CA59DA50E9480
:1029900010A86EAB7FAB88AF99AF2AA93BA94CA911
:1029A0005DA9CA01B9010E9453B02B013C012EA9B7
:1029B0003FA948AD59ADCA01B9010E9453B09B016E
:1029C000AC01C301B2010E9411A80E94BFAA6EA768
:1029D0007FA788AB99AB20E030E040E05FE30E9446
:1029E00053B02B013C01A7019601C701B6010E941B
:1029F00053B06B017C01A3019201C301B2010E949B
:102A000053B09B01AC01C701B6010E9410A80E94FF
:102A1000BFAA9B01AC016AAD7BAD8CAD9DAD0E94A0
:102A200053B06B017C012EA13FA148A559A56AA115
:102A30007BA18CA19DA10E9411A820E030E040E084
:102A40005FE30E9453B02B013C016EA97FA988ADC2
:102A500099AD90582EA53FA548A959A90E940BA948
:102A60009B01AC01C701B6010E9453B09B01AC01B0
:102A7000C301B2010E9411A82AA13BA14CA15DA1F2
:102A80000E9410A869837A838B839C832AA53BA527
:102A90004CA55DA5C501B4010E9411A820E030E05D
:102AA00040E05FE30E9453B02B013C012EA53FA5FF
:102AB00048A959A96AA97BA98CA99DA90E940BA91B
:102AC0009B01AC01C701B6010E9453B09B01AC0150
:102AD000C301B2010E9411A8A50194010E9410A88F
:102AE00012C089E40E948D30882331F00E942B307F
:102AF00069837A838B839C838AE40E948D30882348
:102B000031F00E942B306D837E838F83988720E085
:102B100030E0A90169817A818B819C810E94EDAFAF
:102B200081110CC020E030E0A9016D817E818F8190
:102B300098850E94EDAF882309F43BC080E50E9490
:102B40008D30882341F00E940730082F8536E8F049
:102B5000E3E4FDE102C000E018C084917F013FEF93
:102B6000E31AF30A882321F00E94F330F701F5CF2E
:102B7000E9EAF2E084917F014FEFE41AF40A882336
:102B800021F00E94F330F701F5CF412FBE016F5FB6
:102B90007F4F002331F08DEE91E10E94D648015025
:102BA000F4CF8EE09AE00E94D6480E949A300C94AE
:102BB000312BE3E4FDE184918F010F5F1F4F8823E8
:102BC00021F00E94F330F801F6CFE3E9F2E08491BE
:102BD0008F010F5F1F4F882311F40C94312B0E943B
:102BE000F330F801F4CF80E50E948D30882329F07E
:102BF0000E94E72F6B017C0103C0C12CD12C760110
:102C000083E50E948D30882361F00E942B3020E004
:102C100030E04AE754E40E9453B00E9484A96B015B
:102C20007C010E942C980E949A308091FA09909120
:102C3000FB09A091FC09B091FD09C80ED91EEA1E3E
:102C4000FB1E0E94E04DDC01CB018C199D09AE09F1
:102C5000BF09B7FD02C00C94312B0E943645F1CF5D
:102C600080913202882311F40C94312B0E946D4123
:102C700089E40E948D30882329F00E942B302B019B
:102C80003C0103C0412C512C32018AE40E948D305A
:102C9000882329F00E942B304B015C0103C0812C5A
:102CA000912C540180E50E948D30882329F00E94E8
:102CB0002B306B017C0103C0C12CD12C760181E546
:102CC0000E948D30882339F00E942B306AA37BA3A9
:102CD0008CA39DA304C01AA21BA21CA21DA25091EA
:102CE000F009E5965FAFE5976091010270910202ED
:102CF000072E000C880B990B0E94F4AF20912A023A
:102D000030912B0240912C0250912D020E9453B021
:102D10002AE037ED43E25CE30E9453B0E9966CAFE2
:102D20007DAF8EAF9FAFE9978091ED119091EE113D
:102D3000A091EF11B091F0118EA39FA3A8A7B9A7FE
:102D4000A3019201BC01CD010E9411A82B966CAF8A
:102D50007DAF8EAF9FAF2B974090F1115090F21145
:102D60006090F3117090F411A5019401C301B201B8
:102D70000E9411A82F966CAF7DAF8EAF9FAF2F979B
:102D800020910E0A30910F0A4091100A5091110AB9
:102D9000C701B6010E9411A863966CAF7DAF8EAFDC
:102DA0009FAF63972091120A3091130A4091140A41
:102DB0005091150A6AA17BA18CA19DA10E9411A826
:102DC00067966CAF7DAF8EAF9FAF6797AEA0BFA089
:102DD000C8A4D9A4A982BA82CB82DC824D825E8249
:102DE0006F8278860E94E04D9B01AC0128533F4FD3
:102DF0004F4F5F4FE3962CAF3DAF4EAF5FAFE397C2
:102E00009DEC892E9CEC992EA92C9DE3B92E1AA23B
:102E10001EA21AA61EA60E9413960E94E04D8B01C8
:102E20009C01E396CCACDDACEEACFFACE3970C19A7
:102E30001D092E093F0937FD0EC09B01AC01285327
:102E40003F4F4F4F5F4FE3962CAF3DAF4EAF5FAF5D
:102E5000E3970E943645A5019401BAA1AEA1FAA557
:102E6000EEA56B2F7A2F8F2F9E2F0E9411A82B017A
:102E70001C0120E030E040E85FE30E9471AA1816D0
:102E800034F4412C512C00E8202E8FE3382E809111
:102E90000E0A90910F0AA091100AB091110A6B9638
:102EA0008CAF9DAFAEAFBFAF6B97A090ED11B09060
:102EB000EE11C090EF11D090F0116F96ACAEBDAE98
:102EC000CEAEDFAE6F973F922F925F924F926B968E
:102ED000ACACBDACCEACDFAC6B976396ECACFDACF0
:102EE0000EAD1FAD63972B962CAD3DAD4EAD5FADD6
:102EF0002B976F966CAD7DAD8EAD9FAD6F970E9499
:102F0000EF570F900F900F900F906AAB7EAB8AAF88
:102F10009EAFC090120AD090130AE090140AF0906D
:102F2000150AA396CCAEDDAEEEAEFFAEA397209110
:102F3000F1113091F2114091F3115091F411A796D3
:102F40002CAF3DAF4EAF5FAFA7973F922F925F92EE
:102F50004F92A396ACACBDACCEACDFACA39767965A
:102F6000ECACFDAC0EAD1FAD67972F962CAD3DAD13
:102F70004EAD5FAD2F97A7966CAD7DAD8EAD9FAD7D
:102F8000A7970E94EF570F900F900F900F906FAF81
:102F900021967FAF219722968FAF229723969FAFDE
:102FA000239789819A81AB81BC81AB968CAF9DAF11
:102FB000AEAFBFAFAB97AD80BE80CF80D884AF96A9
:102FC000ACAEBDAECEAEDFAEAF9724961FAE2497AB
:102FD0007AA16EA19AA58EA5272F362F492F582F9B
:102FE000642D752D822D932D0E9410A82FE632E1BD
:102FF00043E05BE30E94EDAF87FF06C02496BFACC1
:103000002497B110DEC1C4C1242D352D422D532D7E
:10301000BAA1AEA1FAA5EEA56B2F7A2F8F2F9E2F06
:103020000E9411A820E030E040E05FE30E9453B02E
:103030003B014C019F928F937F926F936B96ACAC48
:10304000BDACCEACDFAC6B976396ECACFDAC0EAD1B
:103050001FAD63972B962CAD3DAD4EAD5FAD2B975D
:103060006F966CAD7DAD8EAD9FAD6F970E94EF57A3
:103070000F900F900F900F9025966FAF2597269683
:103080007FAF269727968FAF2797E4969FAFE49759
:103090009F928F927F926F92A396ACACBDACCEAC58
:1030A000DFACA3976796ECACFDAC0EAD1FAD679798
:1030B0002F962CAD3DAD4EAD5FAD2F97A7966CAD65
:1030C0007DAD8EAD9FADA7970E94EF570F900F90EB
:1030D0000F900F905B018C012AA93EA94AAD5EAD0D
:1030E000AB966CAD7DAD8EAD9FADAB970E9411A838
:1030F00020E030E040E05FE30E9453B09B01AC0170
:1031000025966FAD259726967FAD269727968FAD8E
:103110002797E4969FADE4970E9410A86B017C016D
:10312000E894F7F82FAD21963FAD219722964FAD49
:10313000229723965FAD2397AF966CAD7DAD8EAD94
:103140009FADAF970E9411A820E030E040E05FE320
:103150000E9453B09B01AC01B501C8010E9410A8A8
:103160009B01AC015F77C701B6010E9411A82DEC4D
:103170003CEC4CEC5DE30E94EDAF18160CF03ECF3A
:10318000AFAE2196BFAE219722960FAF229723961E
:103190001FAF23972596CFAC2597CAAA2696DFACFA
:1031A0002697DEAA2796EFAC2797EAAEE496FFAC07
:1031B000E497FEAE2301140121E024962FAF24975B
:1031C00007CFA7019601C701B6010E9411A89B0174
:1031D000AC01BAA1AEA1FAA5EEA56B2F7A2F8F2F65
:1031E0009E2F0E9411A8962E872E782E692E20E001
:1031F00030E040E85FE3D401F3016B2F7A2F8F2F8B
:103200009E2F0E9471AA87FFDCC06F927F928F92DF
:103210009F926B96ACACBDACCEACDFAC6B976396BB
:10322000ECACFDAC0EAD1FAD63972B962CAD3DAD58
:103230004EAD5FAD2B976F966CAD7DAD8EAD9FADF6
:103240006F970E94EF570F900F900F900F9024965A
:103250006FAF249725967FAF259726968FAF269739
:1032600027969FAF27976F927F928F929F92A396F8
:10327000ACACBDACCEACDFACA3976796ECACFDAC10
:103280000EAD1FAD67972F962CAD3DAD4EAD5FAD2A
:103290002F97A7966CAD7DAD8EAD9FADA7970E9481
:1032A000EF570F900F900F900F905B018C012496B9
:1032B0002FAD249725963FAD259726964FAD26979F
:1032C00027965FAD2797AB966CAD7DAD8EAD9FAD6C
:1032D000AB970E9411A820E030E040E05FE30E943D
:1032E00053B09B01AC016AA97EA98AAD9EAD0E9434
:1032F00010A86B017C01E894F7F89501A801AF963E
:103300006CAD7DAD8EAD9FADAF970E9411A820E052
:1033100030E040E05FE30E9453B09B01AC016FAD31
:1033200021967FAD219722968FAD229723969FAD50
:1033300023970E9410A89B01AC015F77C701B601DB
:103340000E9411A82DEC3CEC4CEC5DE30E9471AAAC
:103350001816BCF1AFAE2196BFAE219722960FAFE3
:10336000229723961FAF239724963FAD24973AAB1D
:1033700025964FAD25974EAB26965FAD26975AAF53
:1033800027968FAD27978EAF492C582C272C362C9B
:103390007AA16EA19AA58EA5272F362F492F582FD7
:1033A000642D752D822D932D0E9410A86B017C0138
:1033B0002DEC3CEC4CEC5DE30E9471AA18160CF06D
:1033C00000CF7AA16EA19AA58EA5272F362F492F5F
:1033D000582F642D752D822D932D0E9410A84B011E
:1033E0005C018AA99EA9AAADBEAD89839A83AB83ED
:1033F000BC838FAD21969FAD21972296AFAD2297CA
:103400002396BFAD23978D839E83AF83B887242DEA
:10341000352D422D532D60E070E080E89FE30E943F
:1034200010A86B017C012091F5113091F6114091AB
:10343000F7115091F8110E9453B06AA37BA38CA39B
:103440009DA32091160A3091170A4091180A5091B5
:10345000190A642D752D822D932D0E9453B09B0166
:10346000AC016AA17BA18CA19DA10E9411A86987D2
:103470007A878B879C872091F9113091FA114091BE
:10348000FB115091FC11C701B6010E9453B06B01B2
:103490007C0120911A0A30911B0A40911C0A50911C
:1034A0001D0A642D752D822D932D0E9453B09B0112
:1034B000AC01C701B6010E9411A86D877E878F8776
:1034C000988BCE0101960E94D29F89819A81AB810F
:1034D000BC818E8B9F8BA88FB98F8D819E81AF8190
:1034E000B8858A8F9B8FAC8FBD8F89859A85AB8578
:1034F000BC858E8F9F8FA8A3B9A3AE01425E5F4F9C
:10350000BE01665E7F4FCE0146960E94148AE59604
:10351000CFACE597E996ECACFDAC0EAD1FADE997ED
:103520009E01235F3F4FAE01425E5F4FBE01665E6C
:103530007F4FCE0146960E94827B20E030E040E83B
:103540005FE3642D752D822D932D0E94EDAF87FFD3
:1035500005C04AA25EA22AA63EA65DCC0E94D02E3D
:103560000C94312B0E94D3390C94312B20E030E0A5
:1035700040E050E46091ED117091EE118091EF11F7
:103580009091F0110E9411A86B017C0188E50E94C6
:103590008D30882321F00E942B306B017C01CE8A74
:1035A000DF8AE88EF98E20E030E040EF51E4609150
:1035B000F1117091F2118091F3119091F4110E9428
:1035C00011A86B017C0189E50E948D30882321F0D0
:1035D0000E942B306B017C01C982DA82EB82FC8273
:1035E00040905410509055106090561070905710A5
:1035F0002091501030915110409152105091531021
:103600006E897F89888D998D0E9410A84B015C017D
:103610002BE33FED4FEF5FE30E9471AA87FF02C0EB
:103620000C94312B23E830E04EEF52E4C501B40195
:103630000E94EDAF181614F40C94312BA3019201E3
:10364000C701B6010E9410A86B017C0124EF3DEF79
:103650004FEE51E40E9471AA87FF02C00C94312BF7
:1036600023E830E04EEF52E4C701B6010E94EDAF0F
:10367000181614F40C94312B0C94422B0E940190D8
:103680000C94312B81E00E94CB3F0E9401900E945C
:10369000D3390C94312B81E0809376030C94312B39
:1036A00085E40E948D30B82E811102C00E942C98B2
:1036B000A7E68A2EA2E09A2EBDEECB2EB1E1DB2E3C
:1036C00012E0E12E1AE0F12E00E010E0A12CD4016E
:1036D0008D914D010E948D308823F1F1F6012081FA
:1036E000318142815381EA962FAFEA97EB963FAF43
:1036F000EB97EC964FAFEC97ED965FAFED970E948E
:103700002B30D6016D937D938D939C931397EA96FE
:103710002FADEA97EB963FADEB97EC964FADEC975C
:10372000ED965FADED9703301105B1F00E9410A842
:103730009B01AC01F70160817181828193810E94BC
:1037400011A8D7016D937D938D939C931397C80116
:103750000E946D31AA24A3940F5F1F4FB4E0CB0EDB
:10376000D11CE4E0EE0EF11C0430110509F0AFCFDE
:10377000AA2019F00E948C2F3FC0BB20E9F1C09015
:10378000F911D090FA11E090FB11F090FC1120910A
:10379000CC0A3091CD0A4091CE0A5091CF0AC70190
:1037A000B6010E9453B00E947EAA609339127093B2
:1037B0003A1280933B1290933C12C0922912D092FD
:1037C0002A12E0922B12F0922C12C701B6010E942D
:1037D0007DA92FB7F89460931611709317118093F9
:1037E0001811909319112FBF1092191210921A12DA
:1037F00010921B1210921C120E94CE740C94312B4A
:1038000080913202882311F40C94312B89E40E94B8
:103810008D30182F882321F00E94F72FF62E01C03B
:10382000F12C8AE40E948D30082F882331F00E9409
:10383000F72FE62E111104C00BC0E12C1123C9F0A3
:10384000F2E0FF1510F00C942B2DE1EDF2E005C035
:10385000F2E0AF2EAE14C8F30CC084918F010F5F5D
:103860001F4F882311F40C94312B0E94F330F80180
:10387000F4CF0E94C62E112341F12091B210309155
:10388000B3104F2D4203B001439F700D112480915E
:10389000AE109091AF10680F791F072E000C880BA7
:1038A000990B0E94F4AF209150103091511040912B
:1038B0005210509153100E9411A860930E0A7093F9
:1038C0000F0A8093100A9093110A002341F120916E
:1038D000B4103091B5105E2D5203B001539F700D9E
:1038E00011242091B0103091B110620F731F072E78
:1038F000000C880B990B0E94F4AF2091541030916A
:10390000551040915610509157100E9411A8609385
:10391000120A7093130A8093140A9093150A80E593
:103920000E945E308823A1F10E941B30882381F120
:103930001123B1F020E030E040E050E460910E0A45
:1039400070910F0A8091100A9091110A0E9410A89C
:1039500060930E0A70930F0A8093100A9093110AD5
:103960000023B1F020E030E040EF51E46091120A12
:103970007091130A8091140A9091150A0E9410A860
:103980006093120A7093130A8093140A9093150A95
:1039900086E40E948D308823D9F00E942B306B0181
:1039A0007C0120E030E0A9010E9471AA181684F47D
:1039B00020E030E040E752E4C701B6010E940BA9C5
:1039C00060932A0270932B0280932C0290932D0215
:1039D0000E94BB4C0C94312B8091790990917A090B
:1039E000883C910509F435C70CF0A7C08C359105CA
:1039F00009F448C50CF059C08B34910509F41CC377
:103A00005CF58231910509F4EBC4CCF497FF02C058
:103A10000C94312B823091050CF473C1419711F055
:103A20000C94312B5F988A989FB7F8948091080185
:103A30008E7F809308019FBF12980C94312B8A329D
:103A4000910509F4B5C28033910509F4F1C24F978D
:103A500011F00C94312BDAC18235910509F4B7C409
:103A6000C4F48D34910509F405C30CF4E9C2813521
:103A7000910511F00C94312B0E94BC930E942C985C
:103A80000E94F4441092FA101092F91000E010E035
:103A900087C48435910509F4A3C40CF49CC485350E
:103AA000910509F4D4C40C94312B8137910509F4A4
:103AB0009FC314F58B36910509F460C47CF48936F4
:103AC000910509F4D8C30CF03AC48836910511F079
:103AD0000C94312B0E945B7A0C94312B8E3691051D
:103AE00009F4CCC28F36910509F4DBC28D369105FD
:103AF00011F00C94312B07C48737910509F41AC6CD
:103B000064F48337910509F44CC50CF444C5863739
:103B1000910509F4D8C50C94312B8937910509F426
:103B200093C60CF48BC68C38910509F48DC38B3980
:103B3000910509F4BDC30C94312B8039A1E09A079B
:103B400011F40C941A280CF070C08D3D910511F4FD
:103B50000C945B26C4F58D3C910509F463C7ACF465
:103B60008B3C910509F4D6C60CF0F2C6893C910550
:103B700011F00C94312BA0EBEA2EAAE0FA2E07E606
:103B800012E0B4E0DB2ED00EACC6833D910511F4FB
:103B90000C94B6258C3D910511F40C944E268E3C68
:103BA000910511F00C94312B57E6A52E52E0B52E5D
:103BB0006DEEC62E61E1D62E78E5E72E7AE0F72E7F
:103BC00000E010E09AC78D32E1E09E0711F40C94FA
:103BD000C6269CF48E3021E0920711F40C94E12764
:103BE0008C3231E0930711F40C949D26823E9105AE
:103BF00011F00C94312B0C9474268F3241E0940711
:103C000011F40C94172814F40C9414288033A1E0B8
:103C10009A0711F40C9464278336914011F00C94A8
:103C2000312B0E9401730C94312B863FE1E09E07FB
:103C300011F40C94E829ACF5853A21E0920711F4CF
:103C40000C947D2884F4823941E0940711F40C949B
:103C5000212814F40C941D28843A914011F40C94FA
:103C600025280C94312B843FB1E09B0711F40C9470
:103C7000E22914F00C94E5298C3A914011F00C944F
:103C8000312B28E5C22E2AE0D22E3DEEE32E31E183
:103C9000F32E4AEE242E41E1342E00E010E00C9485
:103CA00010298B3823E0920711F40C94322A9CF4EB
:103CB000833543E0940711F40C94F929843853E0D8
:103CC000950711F40C942F2A873F914011F00C9422
:103CD000312B0C94EB298D38B3E09B0711F40C9435
:103CE0008F2A14F40C945E2A8E38F3E09F0711F4A7
:103CF0000C94922A873E934011F40C949A2A0C94C7
:103D0000312BE0907709F090780980E50E948D30A2
:103D1000882359F00E94E72F4B015C0111E0672BCB
:103D2000682B692B31F410E004C010E0812C912C39
:103D3000540183E50E948D30882399F00E942B3036
:103D400020E030E04AE754E40E9453B00E9484A986
:103D50004B015C0111110CC0672B682B692B41F4DE
:103D60003CC0111105C0E114F10411F00C94982B22
:103D700083E090E09093F2098093F10981E08093D1
:103D800070030E942C980E949A3081149104A1041F
:103D9000B104A9F18091FA099091FB09A091FC0965
:103DA000B091FD0975016401C80ED91EEA1EFB1E03
:103DB0000E94E04DDC01CB018C199D09AE09BF09C1
:103DC000B7FD04C0109270030C94312B80917003E6
:103DD0008823C1F30E943645EBCFE114F10411F0C2
:103DE0000C94982B83E090E09093F2098093F10972
:103DF00081E0809370030E942C980E949A308091F9
:103E000070038823F9F20E943645F9CF80915D1244
:103E100090915E12019719F40E94E04D08C06091E4
:103E20006712709168128091691290916A120091E4
:103E30006312109164122091651230916612601B1A
:103E4000710B820B930B28EE33E040E050E00E94B0
:103E5000E1B380915F1290916012A0916112B091D4
:103E60006212BC01CD01620F731F841F951FECE32A
:103E7000CE2ED12CE12CF12CA70196010E94E1B3AA
:103E8000762E672ECA01B901A70196010E94E1B3FF
:103E90006B017C01CA01B90128E130E040E050E04B
:103EA0000E94E1B34B015C01C9016DE671E00E9423
:103EB000E0A78E010F5F1F4F6115710599F06F929A
:103EC0007F92DF92CF929F928F929F938F937F9357
:103ED0006F9388E193E09F938F931F930F930E94BA
:103EE000BDAF26C0009789F06F927F92DF92CF928C
:103EF0009F928F929F938F9388E093E09F938F93ED
:103F00001F930F930E94BDAF13C081149104A104AD
:103F1000B104B1F06F927F92DF92CF929F928F9215
:103F20008CEF92E09F938F931F930F930E94BDAFEE
:103F30000FB6F894DEBF0FBECDBFE7EFF3E223C0AC
:103F4000C114D104E104F10469F06F927F92DF9211
:103F5000CF9284EF92E09F938F931F930F930E94D1
:103F6000BDAFE6CF6F927F9280EF92E09F938F93E9
:103F70001F930F930E94BDAF0F900F900F900F9063
:103F80000F900F90DACF84917F01BFEFEB1AFB0AFD
:103F9000882321F00E94F330F701F5CFB8018CE2BD
:103FA00093E00E94C7578AE00E94F3300C94312BB3
:103FB00083E50E948D30882311F40C94312B0E94EC
:103FC0000730E82E80E50E948D30882311F40C9490
:103FD000312B0E94F72F162FC62ED72ED7FE02C0E8
:103FE0000C94312BE4E1F6E088E28E0F94911917DE
:103FF00029F031968E13FACF0C94B72BE3E4FDE150
:1040000084918F010F5F1F4F882321F00E94F330AE
:10401000F801F6CFE9E3F3E084918F010F5F1F4FC2
:10402000882311F40C94312B0E94F330F801F4CF63
:104030000E94628A0C94312B0E94AC990C94312B13
:1040400080915D1290915E12019711F00C94312BCA
:1040500082E090E090935E1280935D120E94E04DAA
:1040600060936712709368128093691290936A123A
:104070000C94312B0E9436980C94312B8EE40E94C4
:104080008D30882311F40C94312B0E94F72F60930C
:10409000F5127093F6128093F7129093F8120C9425
:1040A000312B83E50E945E30882359F083E50E941E
:1040B0008D30882319F00E94073001C080E0809382
:1040C0005C10E7EFF3E284918F010F5F1F4F8823AD
:1040D00021F00E94F330F801F6CFE8E5F3E0849197
:1040E0008F010F5F1F4F882321F00E94F330F801EA
:1040F000F6CF80915C108823A1F178E4C72E73E09D
:10410000D72EE12CF12C20E080915C1090E00E2C59
:1041100002C0959587950A94E2F780FF17C0BB24EB
:10412000B394B20E222319F08CE20E94F330F60110
:1041300025913491F901849189010F5F1F4F8823E4
:1041400021F00E94F3309801F5CF2B2DFFEFEF1AED
:10415000FF0A32E0C30ED11C46E0E416F104A1F6DA
:1041600042C0E4E5F3E084918F010F5F1F4F882385
:10417000D1F10E94F330F801F6CF8AE50E945E305B
:10418000882311F40C94212A0E942B306B017C01AE
:1041900020E030E040EA51EC0E9471AA87FF02C0A3
:1041A0000C94132A20E030E040EA51E4C701B60144
:1041B0000E94EDAF181614F40C94132AC092E61165
:1041C000D092E711E092E811F092E9110E94179A5B
:1041D0006091E6117091E7118091E8119091E911D9
:1041E00042E00E94A0348AE00E94F3300C94312B0C
:1041F00083E50E948D30882369F00E940730809308
:1042000003028D3310F40C94312B8CE38093030262
:104210000C94312BE7EFF3E284918F010F5F1F4F76
:10422000882321F00E94F330F801F6CF4091030279
:1042300050E060E070E08FE593E00E943B578AE039
:104240000E94F3300C94312B80915C1083FF02C0EC
:104250000C94312B83E50E948D30882311F40C944B
:10426000312B0E942B300E947DA970932F116093F7
:104270002E110C94312B89E690E00E947F3281113F
:1042800011C0E6E6F3E084918F010F5F1F4F882392
:1042900021F00E94F330F801F6CF0E948D758AE07C
:1042A0000E94F3301092F2091092F1090C94592DEA
:1042B00083E50E948D30882311F40C94312B0E94E9
:1042C00007308093F7098D3318F08CE38093F7095A
:1042D0000E94E04D6B017C012091F70930E0A8EECF
:1042E000B3E00E9435B4DC01CB018C0D9D1DAE1DE9
:1042F000BF1D8093F3099093F409A093F509B0933F
:10430000F6090C94312B8DE690E00E947F328111EA
:104310000C94312B80915C1083FF02C00C94312BE4
:1043200083E50E948D308AA781110C94CE2B82E503
:104330000E948D3081110C94CE2B0C94312B83E58F
:104340000E948D30882339F00E94F72F8B016F3F38
:10435000710519F010F00FEF10E080E50E948D302C
:10436000811106C01093FA100093F9100C94312BB0
:104370000E94073081110C94312BF4CF80E50E940C
:104380008D30811106C01092FA101092F9100C9421
:10439000312B0E94F72F672B11F00C94312BF3CFA8
:1043A00062E370E080E090E00E94FB670E94139659
:1043B0000F5F1F4F0331110599F762E370E080E052
:1043C00090E00E94FB670E9413960C94312B109290
:1043D00075030C94312B81E0809375030C94312B81
:1043E00083E50E948D308823A1F00E942B3020E0CD
:1043F00030E04AE754E40E9453B00E9484A96093DD
:1044000004027093050280930602909307020C94B5
:10441000312B88E50E945E3081110C94022D89E5D4
:104420000E945E3081110C94022D8AE50E945E305C
:1044300081110C94022D85E40E945E3081110C9450
:10444000022D0E942C980E94F4440C94312B83E599
:104450000E945E30882311F40C94312B0E942B3083
:1044600020E030E04AE754E40E9453B00E9484A95F
:104470006093FE097093FF098093000A9093010AEC
:104480000C94312B37E6C32E32E0D32E40ECE42ED1
:104490004AE0F42E10E0D6018D916D010E945E304D
:1044A000882309F46DC0133009F063C00E942B30DB
:1044B0004B015C0120E030E040EA51E40E94EDAFA6
:1044C00087FF4EC0A50194016091CC0A7091CD0A7E
:1044D0008091CE0A9091CF0A0E940BA92B013C013A
:1044E0009B01AC016091CD107091CE108091CF10E6
:1044F0009091D0100E9453B06093CD107093CE1065
:104500008093CF109093D010A30192016091E91095
:104510007091EA108091EB109091EC100E9453B0D2
:104520006093E9107093EA108093EB109093EC1075
:104530006091AC0A7091AD0A8091AE0A9091AF0A79
:104540000E94F2AFA30192010E9453B00E9484A97D
:104550006093AC0A7093AD0A8093AE0A9093AF0A51
:104560008092CC0A9092CD0AA092CE0AB092CF0A45
:1045700007C00E942B30F70160837183828393838D
:104580001F5FF4E0EF0EF11C143009F084CF0E949D
:1045900060590C94312B0E942C980E94CE740C947C
:1045A000312BE8E4F4E084918F010F5F1F4F8823E3
:1045B00021F00E94F330F801F6CFEAE3F4E08491B1
:1045C0008F010F5F1F4F882321F00E94F330F80105
:1045D000F6CFE3E2F4E084918F010F5F1F4F882351
:1045E00021F00E94F330F801F6CFE3E1F4E084918A
:1045F0008F010F5F1F4F882321F00E94F330F801D5
:10460000F6CFE2E0F4E084918F010F5F1F4F882323
:1046100021F00E94F330F801F6CFE1EFF3E084914E
:104620008F010F5F1F4F882321F00E94F330F801A4
:10463000F6CFE2EEF3E084918F010F5F1F4F8823E6
:1046400021F00E94F330F801F6CFEDECF3E0849115
:104650008F010F5F1F4F882321F00E94F330F80174
:10466000F6CFE7EBF3E084918F010F5F1F4F8823B4
:1046700021F00E94F330F801F6CFE2EAF3E08491F2
:104680008F010F5F1F4F882321F00E94F330F80144
:10469000F6CFE5E8F3E084918F010F5F1F4F882389
:1046A00021F00E94F330F801F6CFEDE6F3E08491BB
:1046B0008F010F5F1F4F882311F40C94312B0E9440
:1046C000F330F801F4CF85E40E945E30882381F056
:1046D0000E941B30882361F0E7EFF3E284918F01A1
:1046E0000F5F1F4F882321F00E94F330F801F6CFAF
:1046F00081E40E945E30882381F00E941B30882371
:1047000061F0ECE1F5E084918F010F5F1F4F88238A
:1047100021F00E94F330F801F6CF00917709109153
:104720007809D8018D918D01882309F45CCD0E9410
:10473000F330F7CFE0E4F5E084918F010F5F1F4F76
:10474000882321F00E94F330F801F6CFE8E3F5E08A
:1047500084918F010F5F1F4F882321F00E94F33057
:10476000F801F6CF659903C00BEB12E002C000EC34
:1047700012E0F80181918F01882319F00E94F33033
:10478000F8CF8AE00E94F330E0E3F5E084918F01F6
:104790000F5F1F4F882321F00E94F330F801F6CFFE
:1047A0008091030181FD03C00BEB12E002C000EC1D
:1047B00012E0D8018D918D01882319F00E94F33009
:1047C000F8CF8AE00E94F330E8E2F5E084918F01AF
:1047D0000F5F1F4F882321F00E94F330F801F6CFBE
:1047E0004A9903C00BEB12E002C000EC12E0F801A2
:1047F00081918F01882319F00E94F330F8CF8AE06D
:104800000E94F330E0E2F5E084918F010F5F1F4FCB
:10481000882321F00E94F330F801F6CF4B9903C0B2
:104820000BEB12E002C000EC12E0D8018D918D017B
:10483000882309F4D8CC0E94F330F7CF81E080932D
:10484000440A8093B6100DC71092440A1092B61015
:1048500008C788EC90E00E947F32811102C784E48F
:104860000E945E308823D1F10E942B3011E020E0BD
:1048700030E0A9010E94EDAF811101C010E010935A
:104880002B10112359F10091710310E00E942B307D
:10489000000F111F000F111FF801E95DFF4E60832B
:1048A00071838283938320E030E0A9016091271017
:1048B000709128108091291090912A100E94EDAFDC
:1048C00081110CC080E090E0A0E4B0E48093271058
:1048D00090932810A0932910B0932A100E947B482F
:1048E000C0C6F80181918F010E945E30882351F08B
:1048F0000E942B300E9484A9D7016D937D938D93E4
:104900009C931397B4E0EB0EF11CD012EACF0E94F7
:10491000F658A7C6EDEDEE2EE0E1FE2E07E612E01A
:10492000F4E0DF2ED00EF80181918F010E945E30FD
:10493000882341F00E942B30D7016D937D938D9396
:104940009C931397B4E0EB0EF11CD012ECCF89C608
:1049500083E50E945E308823D9F00E942B30AB01A2
:10496000BC014093D5105093D6106093D71070932C
:10497000D8104093D1105093D2106093D3107093FD
:10498000D41084EB95E00E9475578AE00E94F330C2
:1049900080E50E945E30882399F00E942B30AB01A5
:1049A000BC014093D5105093D6106093D7107093EC
:1049B000D81087E995E00E9475578AE00E94F3308D
:1049C00082E50E945E30882399F00E942B30AB0173
:1049D000BC014093D9105093DA106093DB107093B0
:1049E000DC1088E795E00E9475578AE00E94F3305A
:1049F00084E50E945E30882309F433C60E942B3080
:104A0000AB01BC014093D1105093D2106093D310EE
:104A10007093D4108AE595E00E9475578AE00E9451
:104A2000F3301FC683E50E945E30882351F00E9458
:104A30002B306093F5107093F6108093F7109093DD
:104A4000F81084E50E945E30882351F00E942B30DC
:104A50006093F1107093F2108093F3109093F41020
:104A600082E40E945E30882351F00E94E72F609319
:104A7000ED107093EE108093EF109093F01088E596
:104A80000E945E30882351F00E942B306093C11049
:104A90007093C2108093C3109093C41089E50E9454
:104AA0005E30882351F00E942B306093C5107093C4
:104AB000C6108093C7109093C8108AE50E945E309C
:104AC000882351F00E942B306093C9107093CA1054
:104AD0008093CB109093CC1085E40E945E308823A5
:104AE00009F4BFC50E942B306093CD107093CE1097
:104AF0008093CF109093D010B4C5F50181915F01E0
:104B00000E945E30882311F10E942B302B013C0162
:104B1000D7012D913D914D915C910E9410A89B0170
:104B2000AC01F60160817181828193810E9411A89C
:104B3000D6016D937D938D939C931397F7014082DB
:104B4000518262827382C8010E946D310F5F1F4FD4
:104B5000F4E0CF0ED11C24E0E20EF11C033011056D
:104B600061F60E948C2F0E94CE747BC5E7EFF3E2C2
:104B700084918F010F5F1F4F882321F00E94F33033
:104B8000F801F6CF83E50E945E30882321F00E9471
:104B90001B3080932902E4E0F6E084918F010F5FDF
:104BA0001F4F882321F00E94F330F801F6CF809147
:104BB0002902811103C0E0E0F6E002C0ECEFF5E06D
:104BC00084918F010F5F1F4F882321F00E94F330E3
:104BD000F801F6CFE4EFF5E084918F010F5F1F4FEE
:104BE000882321F00E94F330F801F6CF4091F912AA
:104BF0005091FA126091FB127091FC1282EF95E0D5
:104C00000E9475574091FD125091FE126091FF1263
:104C1000709100138FEE95E00E947557409101133B
:104C20005091021360910313709104138CEE95E080
:104C30000E947557E4EEF5E084918F010F5F1F4FDE
:104C4000882321F00E94F330F801F6CF40913B0217
:104C500050913C0260913D0270913E0282EE95E0DF
:104C60000E94755740913F0250914002609141026D
:104C7000709142028FED95E00E947557409143027A
:104C80005091440260914502709146028CED95E08E
:104C90000E9475578AE00E94F330E3C483E50E94C6
:104CA0008D30882309F4DDC40E94F72F709302022F
:104CB00060930102D6C48DED90E00E947F32811195
:104CC000D0C483E50E948D30882309F4CAC40091C2
:104CD000710310E00E94F72F000F111FF801E05D33
:104CE000FD4F71836083BDC480E50E945E308823E0
:104CF00009F4B7C40E94F72FF62EC62ED72E83E5EF
:104D00000E948D30882321F00E94F72F8B0102C072
:104D10000FEF1FEFC8010196039708F0A2C4D7FC5C
:104D2000A0C4E4E1F6E088E28E0F9491F91609F44C
:104D300098C431968E13F9CF95C683E50E948D30C5
:104D4000882319F00E94F72F02C064E071E07F8B86
:104D50006E8B80E50E948D30882339F00E94F72FFA
:104D6000693833E1730730F402C068EE73E07A8388
:104D7000698304C088E893E19A838983BE016A5EEF
:104D80007F4FCE0101960E9437656BC485E40E9477
:104D90008D30811110C080E50E945E30882391F033
:104DA0000E942B3060931E1170931F11809320116D
:104DB0009093211107C00E940730882361F3E3E438
:104DC000FDE171C089E40E945E30882381F00E9479
:104DD0002B302CEA35EC47E25EE30E9453B060933F
:104DE0001A1170931B1180931C1190931D1184E470
:104DF0000E945E30882381F00E942B302CEA35EC33
:104E000047E25EE30E940BA9609322117093231185
:104E10008093241190932511E7EFF3E284918F01A1
:104E20000F5F1F4F882321F00E94F330F801F6CF67
:104E300040911E1150911F1160912011709121110C
:104E400084E496E00E9475572CEA35EC47E25EE375
:104E500060911A1170911B1180911C1190911D117C
:104E60000E940BA9AB01BC0180E496E00E94585758
:104E70002CEA35EC47E25EE3609122117091231138
:104E800080912411909125110E9453B0AB01BC0177
:104E90008CE396E00E9458578AE00E94F330E1C309
:104EA0000E94F330F80184918F010F5F1F4F811131
:104EB000F7CF02ED12E0D8018D918D01882309F41E
:104EC00092C90E94F330F7CF80E50E945E308823BC
:104ED00051F00E942B306093231070932410809324
:104EE00025109093261089E40E945E30882381F07B
:104EF0000E942B302CEA35EC47E25EE30E9453B06F
:104F000060931F10709320108093211090932210B3
:104F100084E40E945E30882381F00E942B302CEACA
:104F200035EC47E25EE30E940BA960931B1070937F
:104F30001C1080931D1090931E10E7EFF3E28491F4
:104F40008F010F5F1F4F882321F00E94F330F8017B
:104F5000F6CF40912310509124106091251070914C
:104F6000261080E596E00E9475572CEA35EC47E262
:104F70005EE360911F10709120108091211090913C
:104F800022100E940BA9AB01BC018CE496E00E94A8
:104F900058572CEA35EC47E25EE360911B107091A4
:104FA0001C1080911D1090911E100E9453B0AB01F7
:104FB000BC0188E496E00E9458578AE00E94F330D2
:104FC00050C380917B00886080937B0081E4809354
:104FD0007C0080917A00806480937A0080917A00CE
:104FE00086FDFCCF609178008091790070E0782B8D
:104FF000072E000C880B990B0E94F4AF22EC35EFC2
:1050000048E25FE30E940BA92CEA35EC47E257E344
:105010000E9411A8AB01BC0184E596E00E9458579C
:105020008AE00E94F3301DC30E9478741AC30E9464
:10503000DF7517C30E942C9814C381E00E942237A9
:1050400010C380E00E9422370CC386E50E945E30C8
:10505000882341F08091B2109091B310892B11F008
:105060000E949CA283E50E945E30182F882319F0CD
:105070000E941B30182F83E50E945E30882319F0B0
:10508000812F0E94782EF090B710111103C0E7EF26
:10509000F3E21AC0F110FBCFE3E4FDE184918F014C
:1050A0000F5F1F4F882321F00E94F330F801F6CFE5
:1050B000ECE6F6E084918F010F5F1F4F882339F3F0
:1050C0000E94F330F801F6CF84918F010F5F1F4FDC
:1050D000882321F00E94F330F801F6CFF11003C0CD
:1050E0006EEC72E002C06AEC72E08EE596E00E941F
:1050F000C7578AE00E94F330B4C289E40E948D3021
:10510000882321F00E94F72F062F01C00FEF8AE4B9
:105110000E948D30882321F00E94F72F162F01C0A6
:105120001FEF8AE50E945E30F82E811105C081E5EF
:105130000E945E30D82E01C0D12C07FD02C017FF9F
:1051400003C0E3E4FDE105C0F1101AC0D11018C09E
:10515000F8CF84918F010F5F1F4F882321F00E94A9
:10516000F330F801F6CFEAEAF6E084918F010F5FA1
:105170001F4F882309F475C20E94F330F801F5CF60
:10518000033018F0E3E4FDE106C01330D8F716C091
:105190000E94F330F80184918F010F5F1F4F81113E
:1051A000F7CFEBE8F6E084918F010F5F1F4F882364
:1051B00009F457C20E94F330F801F5CFE02E000F3A
:1051C000FF08012F110F110B0E942B30D701AA0FDE
:1051D000BB1FDD2081F0FD01EE0DFF1DE00FF11F73
:1051E000EE0FFF1FEE0FFF1FEE53FE4E20813181A9
:1051F0004281538103C020E030E0A901EA0EFB1E8A
:105200000E0D1F1D000F111F000F111F0E531E4EFC
:105210000E9411A8F801608371838283938321C265
:1052200091012A5E31413BA32AA3D1018D911D0139
:10523000882309F49AC0F70140805180628073800E
:10524000F801E55CFD4F2081318142815381F801F5
:10525000E750FD4E60817181828193810E9411A887
:1052600020E030E040E05FE30E9453B09B01AC01DE
:10527000C301B2010E9471AA181644F4F801E55363
:10528000F14F85909590A590B49003C0812C912CFE
:105290005401F801E05BFF4E20813181428153814E
:1052A000C301B2010E9410A89B01AC01C501B40169
:1052B0000E9410A84B015C0120E030E040EA51EC74
:1052C0000E9471AA87FD29C020E030E040EA51E445
:1052D000C501B4010E94EDAF1816FCF0D6012D9166
:1052E0003D914D915C91C501B4010E9410A89B01B4
:1052F000AC01C301B2010E9411A8F7016083718360
:1053000082839383D6018D929D92AD92BC92139726
:105310008AA19BA10E946D3128C0E3E4FDE1849144
:105320008F010F5F1F4F882321F00E94F330F80197
:10533000F6CFEAECF6E084918F010F5F1F4F8823D0
:1053400021F00E94F330F801F6CF88E290E09A83D2
:10535000898388EC90E09F8B8E8BBE016F5F7F4FBF
:10536000CE0146960E9437657CC1B4E0CB0ED11CBD
:105370000C5F1F4FE4E0EE0EF11C0C30110509F03C
:105380004FCF0E948C2F0E94CE7483E992E09F8BB6
:105390008E8B04E610E01A830983BE016A5E7F4F9C
:1053A000CE0101960E9437658AEB92E09F8B8E8B2F
:1053B0001A830983BE016A5E7F4FCE0101960E9467
:1053C00037654FC10E94916E4CC10E94716949C1FD
:1053D0000E94356846C183E50E945E30882319F03B
:1053E0000E941B3001C081E091E089270E946B5D23
:1053F00038C1E7EFF3E284918F010F5F1F4F8823DD
:1054000021F00E94F330F801F6CFE2E0F7E084915A
:105410008F010F5F1F4F882311F40C94BD200E9451
:10542000F330F801F4CFEBEEF6E084918F010F5FDB
:105430001F4F882311F40C94F3200E94F330F801DD
:10544000F4CF4091E6115091E7116091E81170910D
:10545000E91188EE96E00E9475570C94F3200E94A3
:105460003F73FFC083E50E945E30811106C097E65E
:10547000E92E92E0F92E10E012C00E942B306B0151
:105480007C0110E0B701A601812F0E94A0971F5F49
:105490001530C1F7ECCF1F5F143009F4E2C0D7011B
:1054A0008D917D010E945E308823A9F30E942B30EC
:1054B000AB01BC01812F0E94A097EDCF83E50E9434
:1054C0008D30882321F00E94F72F8B0102C000E06D
:1054D00010E080E50E948D30882319F00E9407308B
:1054E00001C08FEF9091540A992309F4BAC0E82FB4
:1054F000F0E0E156FD4FE081F0E0EE0FFF1FE45BCE
:10550000F54FC8010130104110F080E090E1918327
:1055100080830E94F55C88E00E94E45CA2C00E9447
:10552000DC969FC08091540A882309F49AC00E9497
:105530003F5D97C081E08093320283E50E945E3038
:10554000811103C00E9488A08CC00E941B30811171
:1055500088C0F8CF6091790970917A09F62E809110
:105560005C1085FF11C0772788E697E00E9492576C
:1055700089E20E94F3308AE00E94F33069E477E028
:1055800084E597E00E941399FF2019F1E7EFF3E219
:1055900084918F010F5F1F4F882321F00E94F33009
:1055A000F801F6CF84E50E94F3306F2D70E080E0C3
:1055B00090E04AE00E94173280E20E94F33002ED50
:1055C00012E0F80181918F018823C1F00E94F3302D
:1055D000F8CF1092F009E7EFF3E284918F010F5FAB
:1055E0001F4F882321F00E94F330F801F6CF60911D
:1055F000F00970E08CE097E00E9492578AE00E94E8
:10560000F33080915C1085FF2CC06BE277E085E37E
:1056100097E00E941399EEE1F7E084918F010F5F0C
:105620001F4F8823F1F00E94F330F801F6CFE7EF27
:10563000F3E284918F010F5F1F4F882321F00E94B6
:10564000F330F801F6CF6091F8097091F90985E718
:1056500097E00E94C75782E20E94F3308AE00E94DE
:10566000F3301092F2091092F1090E9469A021C250
:105670004115510519F4AF0141505109812C912C6C
:105680000C94661380E00E94782E0E94C93083E556
:105690000E945E30882309F449C00E941B3021E03B
:1056A000482FBE016F5F7F4FCE0146960E94A662D3
:1056B0006B017C019B01AC010E9403AB811131C0E5
:1056C0002CEA35EC47E257E36E897F89888D998D06
:1056D0000E9411A8AB01BC0189EC92E00E945857CE
:1056E0002CEA35EC47E257E369817A818B819C8112
:1056F0000E9411A8AB01BC0184EC92E00E945857B3
:105700002CEA35EC47E257E3C701B6010E9411A825
:10571000AB01BC018FEB92E00E9458578AE00E94D7
:10572000F3300E94A5300E94CE749BCF81E0B7CFAA
:10573000D7018C91882311F40C94B81EE7EFF3E2A3
:1057400084918F010F5F1F4F882321F00E94F33057
:10575000F801F6CFF70181917F01882319F00E94AB
:10576000F330F8CF8AE00E94F3300C94B81E61E069
:10577000812F0E94F6666E2D812F0E94C666F12C45
:10578000B701812F0E943267F7E0CF16D10409F0EC
:1057900068CFF092FA10E092F91063CF0E942B309C
:1057A0000E947DA9709332116093311180E00E94B4
:1057B00071930E942B3020E030E04AEA52E40E94CC
:1057C000EDAF18161CF00E94369802C00E94AC99EA
:1057D0000E94C65881E0809300021EA21FA218A654
:1057E00019A61EA61FA618AA19AA1AA21AAA5CE32D
:1057F0005EAB8CE18AAF96E49EAFC12CD12C50E811
:10580000E52E6FEBF62E812C912C54016091311115
:1058100070913211072E000C880B990B0E94F4AF87
:10582000162F072F782E692E262F372F482F592F06
:10583000B601C7010E94EDAF8823D1F02091381145
:105840003091391140913A1150913B11612F702FD5
:10585000872D962D0E94EDAF881F8827881F8AA369
:10586000CAA4CC2049F0882339F080910002F9CEF7
:105870001C2D0D2D7E2C6F2C0E94E04D6B017C01A8
:10588000DC01CB012EA53FA548A959A9821B930B8A
:10589000A40BB50BB7FD3BC0D701C60188519C4F87
:1058A000AF4FBF4F8EA79FA7A8ABB9AB0E948D7516
:1058B000E9E6F3E084912F019FEF491A590A882302
:1058C00021F00E94F330F201F5CF81149104A1047C
:1058D000B104B9F0D501C401805F984DAF4FBF4FFF
:1058E000BC01CD016C197D098E099F0928EE33E0BA
:1058F00040E050E00E94E1B3CA01B9010E94C13208
:1059000003C08FE30E94F3308AE00E94F3300E94CC
:1059100036450E949A3020903811309039114090CD
:105920003A1150903B119101A201612F702F872DE8
:10593000962D0E9410A89F7781149104A104B104B0
:1059400049F420E030E040E85FE30E94EDAF87FFDC
:105950000BC008C020E030E040E450E40E9471AA8F
:10596000181614F446015701AAA1AA2379F12EA111
:105970003FA148A559A5211531054105510541F023
:10598000D701C601821B930BA40BB50BB7FD1EC03C
:105990009101A2016AA97EA98AAD9EAD0E9410A8BC
:1059A00020E030E040EC5FE30E94EDAF87FD5DCF8B
:1059B000D701C601805A9541AF4FBF4F8EA39FA319
:1059C000A8A7B9A72AAA3EAA4AAE5EAE8091000255
:1059D000882309F44ACF81149104A104B10429F465
:1059E000C12ED02EE72CF62C11CF90E1C91A97E2E8
:1059F000D90AE108F108C818D908EA08FB08F7FE37
:105A000034CFEECF0E942C9888E50E945E30882328
:105A100019F05F9A1092490A89E50E945E30882346
:105A200019F08A9A10924A0A8AE50E945E30882309
:105A300051F09FB7F894809108018160809308012C
:105A40009FBF10924B0A85E40E945E30882309F4C0
:105A500008CE129A06CE01110C94281C0E94C62E64
:105A60000C943D1C0E942C9860E08F2D0E94F666DD
:105A70000F3F2FEF120759F48F2D0E949D6631E0E2
:105A800020E0892B09F030E0032F122F05C00130F0
:105A9000110561F000E010E08F2D0E949D668017D7
:105AA000910709F4DECD0E943645F6CF01E010E003
:105AB000F3CFC458DF4F0FB6F894DEBF0FBECDBF93
:105AC000DF91CF911F910F91FF90EF90DF90CF90DA
:105AD000BF90AF909F908F907F906F905F904F900E
