:100000000C9427130C9458130C9458130C945813F5
:100010000C9458130C9458130C9458130C945813B4
:100020000C9458130C9458130C9458130C945813A4
:100030000C9458130C9458130C9458130C94581394
:100040000C9458130C9428470C9458130C94581380
:100050000C9458130C9458130C9409830C94EBAD26
:100060000C9458130C945C3A0C9458130C94581339
:100070000C9458130C9458130C9458130C94581354
:100080000C9458130C9458130C9458130C94581344
:100090000C9458130C9458130C9458130C942A9CD9
:1000A0000C9458130C9458130C9458130C94581324
:1000B0000C9458130C9458130C9458130C94581314
:1000C0000C9458130C9458130C9458130C94581304
:1000D0000C9458130C9458130C9458130C945813F4
:1000E0000C9458138F3A963AAA3AB73AC13ADC3A86
:1000F000C63ADC3ACB3AD03ADC3AD83ADA83DF83F4
:1001000009840E84EE83FA83C483B49BB79BA69BB9
:10011000AA9BB09BEE9BBB9BBF9BC59BC99BCD9BEA
:10012000D39BD79BDB9BEE9BE19BE59BE99B1A9EB8
:100130001F9E249E2E9E389EB19E429E4A9E529E97
:100140005C9E669E709E7F9E899EB19E939E9D9EA4
:10015000A79E084AD73B3BCE016E84BCBFFDC12F92
:100160003D6C74319ABD56833DDA3D00C77F11BEA8
:10017000D9E4BB4C3E916BAAAABE000000803F05AB
:10018000A84CCDB2D44EB93836A9020C50B99186DC
:1001900088083CA6AAAA2ABE000000803F000C9452
:1001A0001A9E0C948F3A0C94C99B0C94669B0C94E9
:1001B000B09B0C94C63A0C94249E0C947F9E0C9495
:1001C0004A9E0C94C8B50C94BF9B0C94899E0C94C9
:1001D000369B0C94529E0C94B73A0C94EE830C947C
:1001E000AA9B0C941F9E0C94B19E0C94FA830C94C1
:1001F0009D9E0C940A9B0C94963A0C94AA3A0C94EB
:10020000D79B0C940E840C942E9E0C94709E0C9490
:100210001A9B0C945C9E0C94E59B0C94C4830C94E8
:10022000EE9B0C94DB9B0C94BB9B0C94B79B0C94A7
:10023000A69B0C94D39B0C94A79E0C94DC3A0C9434
:10024000669E0C94DA830C94CB3A0C94DF830C9466
:100250000B9B0C9409840C94D12E0C94E19B0C9470
:10026000969B0C94CD9B0C94C59B0C942E9B0C944C
:10027000D03A0C94B49B0C94389E0C94939E0C949E
:10028000429E0C94C13A0C94E99B0C94D83A4C458C
:1002900056454C494E4700434F4D4D554E494341FD
:1002A00054494F4E0044525952554E004552524FF8
:1002B000525300494E464F004543484F0047322FA6
:1002C00047332062616420706172616D657465728C
:1002D000730A0047322F47332062616420706172D5
:1002E000616D65746572730A00205A3A20002059C6
:1002F0003A200042656420583A20004D657368201A
:10030000706F696E742063616E6E6F742062652019
:100310007265736F6C7665640A00256973002569E0
:100320006D20256973002569682025696D20256980
:100330007300256964202569682025696D20256979
:10034000730025697920256964202569682025695D
:100350006D20256973005072696E742074696D6533
:100360003A200050726F7465637465642050696E42
:100370000A00B802B302AC02A50297028E026F66B1
:10038000660044454255473A004D31313320530011
:100390006F6B0020573A0020573A004361703A458E
:1003A0004D455247454E43595F5041525345523A8D
:1003B000310A004361703A434153455F4C49474815
:1003C000545F4252494748544E4553533A310A000C
:1003D0004361703A544F47474C455F4C4947485436
:1003E000533A310A004361703A534F4654574152D1
:1003F000455F504F5745523A300A004361703A4CBE
:100400004556454C494E475F444154413A310A00F4
:100410004361703A5A5F50524F42453A310A0043A5
:1004200061703A4155544F4C4556454C3A310A009B
:100430004361703A5052494E545F4A4F423A310A32
:10044000004361703A50524F47524553533A300A75
:10045000004361703A4155544F5245504F52545FDA
:1004600054454D503A310A004361703A4545505267
:100470004F4D3A310A004649524D574152455F4E61
:10048000414D453A4D61726C696E204D61726C69E7
:100490006E5F312E312E365F526F626F566572730A
:1004A000696F6E5F312E322E3420526F626F205290
:1004B0003220534F555243455F434F44455F555299
:1004C0004C3A68747470733A2F2F67697468756258
:1004D0002E636F6D2F526F626F33442F4D61726CBC
:1004E000696E2050524F544F434F4C5F5645525304
:1004F000494F4E3A312E30204D414348494E455FD9
:10050000545950453A20526F626F2052322045585C
:100510005452554445525F434F554E543A3220553C
:100520005549443A63656465326132662D34316100
:10053000322D343734382D396231322D63353563FD
:1005400036326633363766660A002F2F20007A5F10
:100550006D61783A20007A5F6D696E3A2000795FAC
:100560006D61783A2000785F6D696E3A20005265BF
:10057000706F7274696E6720656E6473746F70203B
:100580007374617475730A0053657474696E6720BF
:1005900054726176656C20416363656C6572617449
:1005A000696F6E3A200053657474696E67205265F6
:1005B000747261637420416363656C657261746910
:1005C0006F6E3A200053657474696E6720507269CB
:1005D0006E7420416363656C65726174696F6E3A15
:1005E000200053657474696E67205072696E7420C0
:1005F000616E642054726176656C20416363656C42
:1006000065726174696F6E3A2000205A00205900AB
:10061000580020204D61783A2000205A00205900CF
:10062000580020204D696E3A20004F6E20004F6622
:100630006600536F667420656E6473746F70733AEE
:100640002000486F74656E64206F6666736574730E
:100650003A00000136372603FF3C3D38FF0E2E30AE
:100660003E1312FFFF080706FF061A1C18FFFF249F
:10067000221EFFFF08440A0B43090B45FFFFFFFF43
:10068000FFFF426564204C6576656C696E672000EB
:100690004661696C656420746F20656E61626C658B
:1006A00020426564204C6576656C696E670A00209F
:1006B00028002920453A0020280029205A3A002005
:1006C00028002920593A0020280020583A00537465
:1006D00065707065722063757272656E74207661E4
:1006E0006C75657320696E20252028416D70732913
:1006F0003A0A0043617365206C696768743A2000A8
:100700003C3C3C2067636F64655F540A00203A20DC
:1007100041465445520A00202063757272656E741A
:100720005F706F736974696F6E3D00203A204245B7
:10073000464F52450A00202063757272656E745FE1
:10074000706F736974696F6E3D003E3E3E20676353
:100750006F64655F542800556E6B6E6F776E206313
:100760006F6D6D616E643A2022004B494C4C4544DC
:100770002E20002C20002C2000203A2073796E635C
:100780005F706C616E5F706F736974696F6E0A0081
:10079000202063757272656E745F706F736974691F
:1007A0006F6E3D00656E7175657565696E672022B7
:1007B000004E6F204C696E65204E756D626572202B
:1007C0007769746820636865636B73756D2C204C62
:1007D000617374204C696E653A20005072696E74C2
:1007E00065722073746F7070656420647565207421
:1007F0006F206572726F72732E204669782074685C
:1008000065206572726F7220616E64207573652059
:100810004D39393920746F20726573746172742E8A
:10082000202854656D7065726174757265206973F6
:100830002072657365742E2053657420697420617D
:10084000667465722072657374617274696E67296B
:100850000A004E6F20436865636B73756D2077697E
:100860007468206C696E65206E756D6265722C20EF
:100870004C617374204C696E653A2000636865634F
:100880006B73756D206D69736D617463682C204C9A
:10089000617374204C696E653A20004C696E652066
:1008A0004E756D626572206973206E6F74204C61A5
:1008B0007374204C696E65204E756D6265722B31C4
:1008C0002C204C617374204C696E653A20004D31C8
:1008D00031300020496E76616C69642065787472ED
:1008E0007564657220000000000000000000000038
:1008F00000000000454300004543000082430A20F9
:10090000736F66745F656E6473746F705F6D61782A
:10091000203D20000A20736F66745F656E647374F7
:100920006F705F6D696E203D20000A20706F7369E3
:1009300074696F6E5F7368696674203D2000206182
:100940007869733A0A20686F6D655F6F66667365D4
:1009500074203D2000466F7220003C3C3C20646FB8
:100960005F626C6F636B696E675F6D6F76655F74F6
:100970006F0A003E3E3E20646F5F626C6F636B697E
:100980006E675F6D6F76655F746F00203A207365E8
:100990007475705F666F725F656E6473746F705F9D
:1009A0006F725F70726F62655F6D6F76650A0020AF
:1009B0002063757272656E745F706F736974696FAE
:1009C0006E3D00203A20636C65616E5F75705F61FB
:1009D000667465725F656E6473746F705F6F725F6B
:1009E00070726F62655F6D6F76650A0020206375B7
:1009F0007272656E745F706F736974696F6E3D00BB
:100A0000646F5F70726F62655F7261697365280001
:100A10006465706C6F793A2000203A207365745FCA
:100A200070726F62655F6465706C6F7965640A00EF
:100A3000202063757272656E745F706F736974697C
:100A40006F6E3D00203A203C3C3C20646F5F70722A
:100A50006F62655F6D6F76650A0020206375727244
:100A6000656E745F706F736974696F6E3D00203AD4
:100A7000203E3E3E20646F5F70726F62655F6D6FF7
:100A800076650A00202063757272656E745F706F00
:100A9000736974696F6E3D0072657365745F62653A
:100AA000645F6C6576656C0A002028646F6E65294A
:100AB0000A004578747261706F6C617465205B0028
:100AC00042696C696E656172204C6576656C696E11
:100AD0006720477269643A0A003C3C3C20646F5FBF
:100AE000686F6D696E675F6D6F766528002C2000FA
:100AF0002C20003E3E3E20646F5F686F6D696E671C
:100B00005F6D6F766528004B494C4C45442E2000A4
:100B1000202D20496E76616C696420657874727549
:100B2000646572206E756D62657220210A00202056
:100B3000506C616E6E65724275666665724279745C
:100B400065733A20002046726565204D656D6F72B1
:100B5000793A2000436F6D70696C65643A204D618D
:100B60007220203220323031380A00207C2041753A
:100B700074686F723A20526F626F0A0031342046F7
:100B80004542203230313800204C6173742055705A
:100B900064617465643A20004D61726C696E5F3106
:100BA0002E312E365F526F626F56657273696F6EAB
:100BB0005F312E322E340A004D61726C696E002056
:100BC000536F6674776172652052657365740A00AD
:100BD000205761746368646F672052657365740A97
:100BE000002042726F776E206F75742052657365B6
:100BF000740A002045787465726E616C20526573CA
:100C000065740A00506F77657255700A00737461DD
:100C100072740A00205A3A0020593A0020583A00CB
:100C2000656E6473746F7073206869743A20006233
:100C30007573793A2070617573656420666F7220F0
:100C4000696E7075740A00627573793A2070617507
:100C500073656420666F7220757365720A00627531
:100C600073793A2070726F63657373696E670A00F7
:100C70004B494C4C45442E20004B494C4C20636161
:100C800075736564206279204B494C4C2062757401
:100C9000746F6E2F70696E0A004B494C4C45442EA0
:100CA00020004B494C4C2063617573656420627968
:100CB00020746F6F206D75636820696E616374695D
:100CC00076652074696D65202D2063757272656E7E
:100CD0007420636F6D6D616E643A20005072696EAE
:100CE0007465722068616C7465642E206B696C6C2D
:100CF00028292063616C6C6564210A0000000000F3
:100D000000004543000082433C3C3C207365745F17
:100D1000617869735F69735F61745F686F6D65287F
:100D200000203A200A00202063757272656E745F9D
:100D3000706F736974696F6E3D005D203D20003EE9
:100D400020686F6D655F6F66667365745B003E3E1D
:100D50003E207365745F617869735F69735F617466
:100D60005F686F6D65280000005C4200005C420017
:100D7000004041000000005761726E696E673A20C2
:100D8000486F6D696E672042756D702044697669A1
:100D9000736F72203C20310A000202040000A04060
:100DA0000000A04000000040000045430000454313
:100DB000000082433C3C3C20686F6D65617869733C
:100DC0002800203A203E2041465445522073657445
:100DD0005F617869735F69735F61745F686F6D6588
:100DE0000A00202063757272656E745F706F73699C
:100DF00074696F6E3D00486F6D65203220536C6FD3
:100E0000773A0A004D6F766520417761793A0A009A
:100E1000486F6D65203120466173743A0A00FF0106
:100E2000013E3E3E20686F6D656178697328004120
:100E300063746976652045787472756465723A20CA
:100E400000203A204D6F7665206261636B0A0020B6
:100E50002064657374696E6174696F6E3D00203A39
:100E60002053796E6320416674657220546F6F6CF5
:100E70006368616E67650A00202063757272656E33
:100E8000745F706F736974696F6E3D00207D0A0036
:100E90002C20004F666673657420546F6F6C205869
:100EA00059206279207B20004E6F206D6F7665207F
:100EB0006F6E20746F6F6C6368616E67650A0045C2
:100EC00072726F722077726974696E6720746F2016
:100ED000454550524F4D210A0024F4D43050C38E62
:100EE00020C2A24017828B7011127A910D816CD9A9
:100EF0000AA861E108C7586607615143061E4B5DA9
:100F000005C145A7041A411104093D9803713931FF
:100F1000034036DB0265339102D4305402802E1D2B
:100F200002632CEE01752AC501B028A001102781AB
:100F3000018F2564012B244B01E0223401AC211FD9
:100F4000018D200D01801FFC00841EED00971DDF28
:100F500000B81CD200E61BC600201BBC00641AB2FD
:100F600000B219A8000A19A0006A189900D11791B7
:100F70000040178B00B516840031167E00B315793A
:100F8000003A157300C7146F0058146A00EE136618
:100F9000008813630025135E00C7125B006C1257B4
:100FA0000015125400C111510070114F0021114B56
:100FB00000D61049008D1047004610440002104230
:100FC00000C00F4000800F3E00420F3C00060F3B68
:100FD00000CB0E3800930E37005C0E3500270E3420
:100FE00000F30D3200C10D3100900D3000600D2E68
:100FF00000320D2D00050D2C00D90C2B00AE0C2954
:1010000000850C29005C0C2700350C27000E0C26EF
:1010100000E80B2400C40B2400A00B23007D0B234D
:10102000005A0B2100390B2100180B2000F80A1F71
:1010300000D90A1E00BB0A1E009D0A1D00800A1D61
:1010400000630A1C00470A1B002C0A1B00110A1A25
:1010500000F7091A00DD091900C4091900AB0919C4
:1010600000920917007B091800630917004C091644
:101070000036091600200916000A091500F50815A2
:1010800000E0081400CC081400B8081400A40814E8
:1010900000900813007D0812006B08130058081216
:1010A000004608120034081100230811001208112C
:1010B0000001081100F0071000E0071000D0071031
:1010C00000C0071000B0070F00A107100091070E25
:1010D0000083070F0074070F0065070E0057070E07
:1010E0000049070E003B070D002E070E0020070DDC
:1010F0000013070D0006070D00F9060C00ED060DA4
:1011000000E0060C00D4060C00C8060C00BC060C5F
:1011100000B0060C00A4060B0099060C008D060B0F
:101120000082060B0077060B006C060B0061060AB6
:101130000057060B004C060A0042060A0038060A51
:10114000002E060A0024060A001A060A00100609E4
:101150000007060A00FD050900F4050900EB050972
:1011600000E2050900D9050900D0050900C70509F5
:1011700000BE050900B5050800AD050800A5050974
:10118000009C050800940508008C050800840508EB
:10119000007C050800740508006C0507006505085B
:1011A000005D050700560508004E050700470507C6
:1011B000004005080038050700310507002A05072B
:1011C00000230507001C050600160507000F05078C
:1011D000000805060002050700FB040600F50407E9
:1011E00000EE040600E8040600E2040700DB040643
:1011F00000D5040600CF040600C9040600C3040697
:1012000000BD040600B7040600B1040500AC0406E6
:1012100000A6040600A00405009B04060095040532
:1012200000900406008A0405008504050080040679
:10123000007A04050075040500700405006B0405C0
:101240000066040500610405005C04050057040500
:1012500000520405004D0405004804050043040540
:10126000003E0404003A040500350405003004047F
:10127000002C04050027040400230405001E0404B8
:10128000001A04040016040500110404000D0404EF
:1012900000090405000404040000040400FC030425
:1012A00000F8030400F4030400F0030400EC03045A
:1012B00000E8030400E4030400E0030400DC03048A
:1012C00000D8030400D4030400D0030400CC0304BA
:1012D00000C8030300C503030024F404D9201BC481
:1012E0000C5C0E9804C4095F0265077101F405F9EE
:1012F00000FB04B30048048700C10369005803558C
:101300000003034500BE023A008402310053022A62
:10131000002902250004022000E4011C00C8011974
:1013200000AF01170098011400840113007101102F
:10133000006101100051010E0043010D0036010B48
:10134000002B010B0020010B00150109000C010905
:101350000003010800FB000800F3000800EB000791
:1013600000E4000600DE000600D8000600D20006F9
:1013700000CC000500C7000500C2000500BD000448
:1013800000B9000400B5000400B1000400AD000481
:1013900000A9000400A5000300A20003009F0004B0
:1013A000009B0003009800030095000200930003D7
:1013B00000900003008D0002008B000300880002F3
:1013C000008600020084000300810002007F00020A
:1013D000007D0002007B000200790002007700011E
:1013E0000076000200740002007200010071000229
:1013F000006F0002006D0001006C0002006A000135
:10140000006900020067000100660001006500013C
:101410000064000200620001006100010060000140
:10142000005F0002005D0001005C0001005B000144
:10143000005A000100590001005800010057000146
:101440000056000100550001005400010053000047
:101450000053000100520001005100010050000142
:10146000004F0001004E0000004E0001004D000141
:10147000004C0001004B0000004B0001004A00013D
:101480000049000100480000004800010047000139
:101490000046000000460001004500000045000134
:1014A000004400010043000000430001004200002E
:1014B0000042000100410000004100010040000125
:1014C000003F0000003F0001003E0000003E000120
:1014D000003D0000003D0001003C0000003C000019
:1014E000003C0001003B0000003B0001003A00000E
:1014F000003A000100390000003900010038000006
:1015000000380000003800010037000000370001FB
:1015100000360000003600000036000100350000F3
:1015200000350000003500010034000000340000E8
:1015300000340001003300000033000000330001DC
:1015400000320000003200000032000100310000D3
:1015500000310000003100010030000000300000C8
:1015600000300001002F0000002F0000002F0000BD
:10157000002F0001002E0000002E0000002E0001B0
:10158000002D0000002D0000002D0000002D0001A6
:10159000002C0000002C0000002C0000002C00019A
:1015A000002B0000002B0000002B0000002B00018E
:1015B000002A0000002A0000002A0000002A000182
:1015C0000029000000290000002900000029000077
:1015D0000029000100280000002800000028000069
:1015E000002800000028000100270000002700005C
:1015F000002700000027000000270001002600004F
:101600000026000000260000002600000026000141
:101610000025000000250000002500000025000036
:101620000025000000250001002400000024000027
:10163000002400000024000000240001002300001A
:10164000002300000023000000230000002300000E
:1016500000230000002300010022000000220000FF
:1016600000220000002200000022000000220001F1
:1016700000210000002100000021000000210000E6
:1016800000210000002100000021000100200000D6
:1016900000200000002000000020000000200000CA
:1016A000002000000020000000200001001F0000BA
:1016B000001F0000001F0000001F0000001F0000AE
:1016C000001F0000001F0001001E0000001E00009F
:1016D000001E0000001E00000041424C2041646AD0
:1016E0007573746D656E74205A002028656E616292
:1016F0006C6564290A00202864697361626C656402
:10170000290A0042494C494E454152004175746FC7
:1017100020426564204C6576656C696E673A2000EE
:10172000204E6F7A7A6C65290A0020262041626F6C
:1017300076650020262053616D65205A2061730074
:1017400020262042656C6F77002D4261636B00207C
:1017500028526967687400205A3A0020593A0050AC
:10176000726F6265204F666673657420583A004652
:1017700049585F4D4F554E5445445F50524F424576
:101780000A0050726F62653A20004361727465739B
:1017900069616E0A004D616368696E6520547970F5
:1017A000653A20003C3C3C2067636F64655F4732CC
:1017B000380A00203A203E20686F6D65590A0020E3
:1017C0002063757272656E745F706F736974696F90
:1017D0006E3D00203A203E20686F6D65580A00205B
:1017E0002063757272656E745F706F736974696F70
:1017F0006E3D00203A203E20484F4D454158495308
:10180000285A290A00202063757272656E745F7011
:101810006F736974696F6E3D003E20656E6473740A
:101820006F70732E656E61626C65287472756529C0
:101830000A003E3E3E2067636F64655F4732380AA8
:101840000020706F736974696F6E206F7574206FFC
:10185000662072616E67652E0A003F50726F626586
:1018600020003C3C3C2067636F64655F4732390A67
:101870000020636F72726563746564205A3A004792
:10188000323920756E636F72726563746564205AB5
:101890003A00203A203E2070726F62696E672063C2
:1018A0006F6D706C6574650A0020206375727265D7
:1018B0006E745F706F736974696F6E3D0052756E00
:1018C0006E696E6720696E204452592D52554E2024
:1018D0006D6F64650A00473239204175746F20428C
:1018E0006564204C6576656C696E670A002842293C
:1018F00061636B00284629726F6E74002852296953
:1019000067687400284C29656674003F285629656D
:1019100072626F7365206C6576656C2069732069EF
:101920006D706C61757369626C652028302D342987
:101930002E0A00426164205A2076616C75650A00A7
:101940004E6F2062696C696E6561722067726964AE
:101950000A00203A203E3E3E2067636F64655F4781
:1019600032390A00202063757272656E745F706F81
:10197000736974696F6E3D0050726F6265204F66C7
:1019800066736574206973205A3A20005374616E3F
:101990006461726420446576696174696F6E3A208F
:1019A000002052616E67653A2000204D61783A2030
:1019B00000204D696E3A20004D65616E3A20004668
:1019C000696E6973686564210A002072616E6765DB
:1019D0003A2000206D61783A2000206D696E3A202F
:1019E00000207369676D613A2000206D65616E3A71
:1019F00020003A207A3A2000206F662000205A000A
:101A0000205900205800476F696E6720746F3A00B4
:101A1000436C6F636B776973650A00436F756E740F
:101A200065722D0020446972656374696F6E3A2097
:101A300000202020616E676C653A2000537461724B
:101A400074696E67207261646975733A2000506F23
:101A5000736974696F6E696E67207468652070724F
:101A60006F62652E2E2E0A003F4E756D62657220E4
:101A70006F66206C65677320696E206D6F76656D8B
:101A8000656E74206E6F7420706C61757369626C22
:101A9000652028302D3135292E0A00590058003F85
:101AA00053616D706C652073697A65206E6F742068
:101AB000706C61757369626C652028342D3530292E
:101AC0002E0A004D3438205A2D50726F6265205214
:101AD00065706561746162696C69747920546573BD
:101AE000740A003F2856296572626F7365206C6521
:101AF00076656C20697320696D706C6175736962BD
:101B00006C652028302D34292E0A00202F0020401B
:101B1000002042403A0020403A00205A3A00205922
:101B20003A0020436F756E7420583A0020453A0001
:101B3000205A3A0020593A00583A004375727265AB
:101B40006E743A200020643A0020693A0020703A0E
:101B50000020643A0020693A0020703A0043290AC4
:101B60000061626C656420286D696E2074656D701B
:101B70002000436F6C64206578747275646573200F
:101B800061726520004B64200023646566696E65A0
:101B9000202044454641554C545F004B69200023AA
:101BA000646566696E65202044454641554C545F26
:101BB000004B70200023646566696E6520204445F3
:101BC0004641554C545F00504944204175746F7430
:101BD000756E652066696E6973686564212050754D
:101BE0007420746865206C617374204B702C204BDA
:101BF0006920616E64204B6420636F6E7374616E44
:101C000074732066726F6D2062656C6F7720696EE9
:101C1000746F20436F6E66696775726174696F6E69
:101C20002E680A00504944204175746F74756E65C2
:101C3000206661696C6564212074696D656F7574D7
:101C40000A00504944204175746F74756E652066B2
:101C500061696C6564212054656D7065726174758D
:101C6000726520746F6F20686967680A00204B6492
:101C70003A2000204B693A2000204B703A20000A9D
:101C800020436C617373696320504944200A00202B
:101C900054753A2000204B753A2000206D61783A47
:101CA0002000206D696E3A200020643A20002062F6
:101CB0006961733A20004D65736820706F696E74B6
:101CC0002063616E6E6F74206265207265736F6C45
:101CD0007665640A004D34323120696E636F72722A
:101CE00065637420706172616D65746572207573CF
:101CF0006167650A00546F6F206661722066726FBB
:101D00006D207265666572656E636520706F696EC1
:101D1000740A003A20007A5F6D696E3A20202D32F5
:101D200030207A5F6D61783A20203230005A204F9F
:101D3000666673657420004175746F0020452F44FA
:101D40003D00416476616E6365204B3D00486172E1
:101D500064636F6465642044656661756C742053C8
:101D6000657474696E6773204C6F616465640A0002
:101D7000B80B0000B80B000064000000E80300008E
:101D8000E803000000009643000096430000704105
:101D90000000C8410000C8420000A0420000A0426C
:101DA00000004844008011430000F043205200200E
:101DB000204D393030204B004C696E6561722041F6
:101DC0006476616E63653A0A0020204D3835312013
:101DD0005A005A2D50726F6265204F6666736574A3
:101DE00020286D6D293A0A00204400204900202057
:101DF0004D33303420500020440020490020204D35
:101E00003330312050002044002049002050002071
:101E1000204D33303120450050494420736574749F
:101E2000696E67733A0A0020204D34323020530027
:101E30004175746F20426564204C6576656C696EEF
:101E4000673A0A0020590020580020204D323138CE
:101E5000205400486F74656E64206F666673657405
:101E6000733A0A00205A0020590020204D323036A3
:101E7000205800486F6D65206F66667365743A0A76
:101E800000204500205A0020590020580020420020
:101E900020540020204D32303520530041647661BB
:101EA0006E6365643A20533C6D696E5F6665656478
:101EB000726174653E20543C6D696E5F7472617628
:101EC000656C5F66656564726174653E20423C6D59
:101ED000696E5F7365676D656E745F74696D655F6C
:101EE0006D733E20583C6D61785F78795F6A6572EA
:101EF0006B3E205A3C6D61785F7A5F6A65726B3E1B
:101F000020453C6D61785F655F6A65726B3E0A00D3
:101F100020540020520020204D3230342050004107
:101F20006363656C65726174696F6E2028756E6994
:101F300074732F7332293A20503C7072696E745F4B
:101F4000616363656C3E20523C72657472616374B8
:101F50005F616363656C3E20543C74726176656CAE
:101F60005F616363656C3E0A0020450020204D32AE
:101F70003031205400205A0020590020204D3230AA
:101F8000312058004D6178696D756D20416363653E
:101F90006C65726174696F6E2028756E6974732F39
:101FA0007332293A0A0020450020204D3230332078
:101FB0005400205A0020590020204D323033205840
:101FC000004D6178696D756D206665656472617438
:101FD00065732028756E6974732F73293A0A00207F
:101FE000450020204D3932205400205A002059004D
:101FF00020204D393220580053746570732070656D
:102000007220756E69743A0A0020204D32303020FB
:1020100044300A0020204D3230302054312044001A
:1020200020204D3230302044002044697361626CBE
:1020300065640A0046696C616D656E742073657431
:1020400074696E67733A00202047323120202020C7
:102050003B20556E69747320696E206D6D0A0029EE
:102060000A002062797465733B2063726320005319
:10207000657474696E67732053746F726564202889
:1020800000202863616C63756C6174656429210AA2
:102090000020213D2000454550524F4D20435243E2
:1020A000206D69736D61746368202D202873746FCF
:1020B000726564292000290A002062797465733BE7
:1020C0002063726320002073746F726564207365EF
:1020D0007474696E6773207265747269657665647D
:1020E000202800204D61726C696E3D563431290AFA
:1020F0000028454550524F4D3D00454550524F4DEB
:102100002076657273696F6E206D69736D6174639B
:1021100068200070012C0190012701B0012201C04C
:10212000011D01F00118011002130130020E0160BF
:1021300002090190020401C002FF000003FA0040FE
:1021400003F5008003F000D003EB002004E60070EC
:1021500004E100E004DC004005D700C005D20040E7
:1021600006CD00D006C8008007C3003008BE00F0CE
:1021700008B900C009B400B00AAF00B00BAA00D083
:102180000CA500000EA000500F9B00C01096005040
:1021900012910000148C00C0158700B0178200B0A7
:1021A000197D00D01B7800001E730040206E009047
:1021B000226900F024640040275F0090295A00E063
:1021C0002B5500102E500020304B0010324600E0FE
:1021D00033410090353C001037370070383200A092
:1021E000392D00B03A2800A03B2300603C1E0010AF
:1021F0003D1900903D1400103E0F00703E0A00C0D3
:102200003E0500003F0000403FFBFF803FF6FFC05F
:102210003FF1FF0B0BFFFFFF00000202026265644B
:102220000A002C2073797374656D2073746F70705D
:10223000656421204865617465725F49443A2000F5
:1022400048656174696E67206661696C6564004801
:10225000656174696E67206661696C6564004865D4
:102260006174696E67206661696C656400486561C8
:1022700074696E67206661696C6564003002B40041
:10228000300D8C00900E87005010820020127D00CF
:1022900080147800A016730060196E00E01B6900BE
:1022A000001F6400B0215F0090245A0050275500A1
:1022B000302A5000E02C4B00602F46009031410046
:1022C00060333C0090343700B036320030382D0097
:1022D000E0392800203B2300203C1E00103D19005F
:1022E000B03D1400303E0F00903E0A00203F000039
:1022F000F03FD8FF544845524D414C2052554E4175
:1023000057415900546865726D616C2052756E6159
:10231000776179004572723A204D494E54454D50CF
:1023200020424544004572723A204D494E54454D75
:1023300050004D494E54454D502074726967676591
:10234000726564004572723A204D415854454D50B3
:1023500020424544004572723A204D415854454D43
:1023600050004D415854454D50207472696767655F
:102370007265640020746F6F206C6F6E67206578E3
:1023800074727573696F6E2070726576656E7465B0
:10239000640A0020636F6C642065787472757369D9
:1023A0006F6E2070726576656E7465640A00000059
:1023B0002100240027002A002D00300033000101F5
:1023C0000000040107010A01000022002500280086
:1023D0002B002E003100340002010000050108012D
:1023E0000B01000020002300260029002C002F00F4
:1023F0003200000100000301060109010505050581
:10240000070508080808020202020A0A080804046C
:10241000040401010101010101010303030303039A
:102420000303040707070C0C0C0C0C0C0C0C020229
:10243000020206060606060606060B0B0B0B0B0B26
:102440000B0B0102102020080810204010204080B3
:102450000201020108040201010204081020408068
:1024600080402010080402018004020180402010F6
:10247000080402010804020101020408102040803F
:10248000010204081020408000000A0B02090C0D14
:102490000E08070304010000000000000000000017
:1024A000000000000000000000000000000000002C
:1024B00000000000121110000000000000000000E9
:1024C00000000000000000000000000000002044A8
:1024D000697363726570616E63793A00326E64206D
:1024E00050726F6265205A3A00203A203C3C3C20F2
:1024F00072756E5F7A5F70726F62650A002020638A
:10250000757272656E745F706F736974696F6E3D1A
:10251000003173742050726F6265205A3A00203A7D
:10252000203E3E3E2072756E5F7A5F70726F62650C
:102530000A00202063757272656E745F706F736934
:1025400074696F6E3D0050726F62696E67206661DC
:10255000696C65640A004572726F723A003C3C3CDB
:102560002070726F62655F70740A00205A3A200012
:1025700020593A200042656420583A2000203A2031
:102580000A00202063757272656E745F706F7369E4
:1025900074696F6E3D0073746F77290A002C2000F8
:1025A0002C20003E3E3E2070726F62655F70742882
:1025B000002066697273740A005A00590058004876
:1025C0006F6D6520006563686F3A00526573656ED4
:1025D000643A20006F6B0020746F6F206C6F6E6721
:1025E00020657874727573696F6E20707265766598
:1025F0006E7465640A0020636F6C64206578747281
:102600007573696F6E2070726576656E7465640AA5
:10261000004E414E494E495459494E46CDCCCC3DD1
:102620000AD7233C17B7D13877CC2B329595E624BF
:102630001FB14F0A000020410000C84200401C4664
:1026400020BCBE4CCA1B0E5AAEC59D74C8B5112421
:102650001FBECFEFD1E2DEBFCDBF00E00CBF13E065
:10266000A0E0B2E0E0E1F5E801E00BBF02C00790B6
:102670000D92AC36B107D9F723E1ACE6B3E001C067
:102680001D92AA3EB207E1F713E1C7E2D3E100E0F1
:1026900006C021970109802FFE010E9443B6C63271
:1026A000D10780E00807A9F70E94B1B00C9486C258
:1026B0000C9400002F923F924F925F926F927F9204
:1026C0008F929F92AF92BF92CF92DF92EF92FF9242
:1026D0000F931F93CF93DF93CDB7DEB7CC57D109BC
:1026E0000FB6F894DEBF0FBECDBF0091690A20E699
:1026F000029F800111240F561C4F80912D1280FFE4
:102700001AC0E5ECF5E284917F013FEFE31AF30A8A
:10271000811102C0780104C00E94D131F701F3CFCA
:10272000D7018D917D01882319F00E94D131F8CF16
:102730008AE00E94D13181E090E090936C0A80930E
:102740006B0A10929209109291098FE38093950978
:1027500010929409109293091092860310928703A5
:102760001092880310928903F80180810F5F1F4F38
:102770008032D1F38E34B1F4818190ED980F9A308C
:1027800020F08D3211F08B3269F43296DF013196F0
:102790002C9120532A30D0F3CD01FC0101962081E9
:1027A0002032D9F3F093730AE093720A7F01BFEFEE
:1027B000EB1AFB0A10816AE270E0C7010E946AB955
:1027C000009731F0FC01319780818032E1F3118272
:1027D0001D3429F0143519F0173409F0CFC0F70172
:1027E00080812FEFE21AF20A8032C9F380538A30D7
:1027F00008F0C4C010939509209193093091940971
:102800004AE03196429FC001439F900D1124DF01A1
:1028100011972C91022E000C330B20533109280FF5
:10282000391F808180538A3060F33093940920935C
:102830009309DF0131968C918032D9F31D3449F030
:102840000091720A409191095091920961E070E003
:1028500058C02E31310591F03CF42731310571F02B
:102860002C31310569F70AC0253731054CF327377C
:10287000310524F0203A43E0340711F7B093920970
:10288000A09391097BC0813209F445C09FEBB92E1A
:10289000B80E89E1A82EAB1408F45EC0DF01FD017B
:1028A000908111969032D9F3A0EDA90FAA3008F0CB
:1028B00047C04F01EB2CF12C670183E0D594C794FE
:1028C0008A95E1F7C6018A579C4F6C018B2D877062
:1028D000DB0102C0AA0FBB1F8A95E2F7CD01D6012A
:1028E0009C91892B8C9381149104A1F1801AC701CA
:1028F00084599C4FDC018C92808181548A3188F507
:10290000DF01FD0131968C918111BDCF5093920969
:102910004093910933C01D3409F0B8CF20323105FE
:1029200009F0B4CFF0939209E093910963E270E06B
:10293000CF010E946AB9009709F1DC011C921EC008
:10294000A3EDA90FA23008F4B4CF9B3211F00C9480
:10295000BF2AAFCF812CCBCF4115510569F6AD0110
:10296000CBCFDF0131969C9190539A30D0F3CD01BB
:10297000FC010196A081A032D9F3C2CF80919509C4
:102980008D3411F40C94E71D843511F40C94432A12
:10299000873411F00C949E2A8091930990919409A8
:1029A0008D31910509F4D2C6D4F48430910544F4F4
:1029B000823091050CF043C097FF35C00C94B82AC3
:1029C0008530910509F440C20CF401C24C9711F016
:1029D0000C94B82A80E00E94705A0C94B82A8A326B
:1029E000910511F40C94FC1C6CF48332910509F4EC
:1029F00039C78432910509F439C74E9711F00C9408
:102A0000B82AA8C68B35910509F439C78C359105CC
:102A100009F43AC78A35910511F00C94B82A10923E
:102A200090030C94B82A80912B02882311F40C9403
:102A3000B82A0E9452310E94D4A80C94B82A20913E
:102A40002B02222311F40C94B82A11E0029709F00A
:102A500010E00E94523119821A821B821C821D8250
:102A60001E821F82188682E50E944531882309F460
:102A70002CC10E94E3306B017C0120911D1230912A
:102A80001E1240911F12509120122AA33BA34CA367
:102A90005DA38090211290902212A0902312B090FA
:102AA00024128091880A9091890AA0918A0AB09193
:102AB0008B0A8EA39FA3A8A7B9A720918C0A309157
:102AC0008D0A40918E0A50918F0A2AA73BA74CA7E6
:102AD0005DA720E030E0A901C701B6010E942FBE2A
:102AE000882309F408C12AA13BA14CA15DA16EA1D4
:102AF0007FA188A599A50E942FBE81110BC0A501B9
:102B000094016AA57BA58CA59DA50E942FBE882354
:102B100009F4F1C020E030E0A901C701B6010E942C
:102B20002FBE881F8827881F181309C080E090E0F7
:102B3000A0E8BFE38AAF9BAFACAFBDAF08C020E059
:102B400030E040E85FEB2AAF3BAF4CAF5DAF2AA16E
:102B50003BA14CA15DA16EA17FA188A599A50E9472
:102B600052B66AAB7BAB8CAB9DABA50194016AA559
:102B70007BA58CA59DA50E9452B66EAB7FAB88AF9E
:102B800099AF2AA93BA94CA95DA9CA01B9010E9424
:102B900095BE2B013C012EA93FA948AD59ADCA01F4
:102BA000B9010E9495BE9B01AC01C301B2010E9414
:102BB00053B60E9401B96EA77FA788AB99AB20E0FE
:102BC00030E040E05FE30E9495BE2B013C01A7018D
:102BD0009601C701B6010E9495BE6B017C01A3015D
:102BE0009201C301B2010E9495BE9B01AC01C701D5
:102BF000B6010E9452B60E9401B99B01AC016AADB8
:102C00007BAD8CAD9DAD0E9495BE6B017C012EA16C
:102C10003FA148A559A56AA17BA18CA19DA10E94B5
:102C200053B620E030E040E05FE30E9495BE2B0108
:102C30003C016EA97FA988AD99AD90582EA53FA5FE
:102C400048A959A90E944DB79B01AC01C701B60123
:102C50000E9495BE9B01AC01C301B2010E9453B614
:102C60002AA13BA14CA15DA10E9452B669837A833F
:102C70008B839C832AA53BA54CA55DA5C501B4010A
:102C80000E9453B620E030E040E05FE30E9495BE32
:102C90002B013C012EA53FA548A959A96AA97BA9EA
:102CA0008CA99DA90E944DB79B01AC01C701B6013B
:102CB0000E9495BE9B01AC01C301B2010E9453B6B4
:102CC000A50194010E9452B612C089E40E944531C8
:102CD000882331F00E94E33069837A838B839C835D
:102CE0008AE40E944531882331F00E94E3306D83ED
:102CF0007E838F83988720E030E0A90169817A8103
:102D00008B819C810E942FBE81110CC020E030E09D
:102D1000A9016D817E818F8198850E942FBE8823B5
:102D200009F43BC080E50E944531882341F00E94B0
:102D3000BF30082F8536E8F0E6E5F5E202C000E096
:102D400018C084917F013FEFE31AF30A882321F032
:102D50000E94D131F701F5CFE3EDF2E084917F01DC
:102D60004FEFE41AF40A882321F00E94D131F701D1
:102D7000F5CF412FBE016F5F7F4F002331F08DE112
:102D800092E10E9407430150F4CF88E89AE00E9444
:102D900007430E94C6310C94B82AE6E5F5E2849117
:102DA0008F010F5F1F4F882321F00E94D131F8015E
:102DB000F6CFEDEBF2E084918F010F5F1F4F882378
:102DC00011F40C94B82A0E94D131F801F4CF80E5B7
:102DD0000E944531882329F00E949F306B017C01BD
:102DE00003C0C12CD12C760183E50E944531882394
:102DF00061F00E94E33020E030E04AE754E40E94B2
:102E000095BE0E94C6B76B017C010E94C7890E94D3
:102E1000C6318091740A9091750AA091760AB0919A
:102E2000770AC80ED91EEA1EFB1E0E94DFADDC0128
:102E3000CB018C199D09AE09BF09B7FD02C00C94E6
:102E4000B82A0E94273FF1CF80912B02882311F4EA
:102E50000C94B82A0E94523189E40E94453188239B
:102E600029F00E94E3302B013C0103C0412C512C7E
:102E700032018AE40E944531882329F00E94E33020
:102E80004B015C0103C0812C912C540180E50E9410
:102E90004531882329F00E94E3306B017C0103C097
:102EA000C12CD12C760181E50E944531882339F06F
:102EB0000E94E3306AA37BA38CA39DA304C01AA243
:102EC0001BA21CA21DA250917511E5965FAFE5975C
:102ED00060910F0270911002072E000C880B990B65
:102EE0000E9436BE20913B0230913C0240913D024F
:102EF00050913E020E9495BE2AE037ED43E25CE32A
:102F00000E9495BEE9966CAF7DAF8EAF9FAFE997FB
:102F100080911D1290911E12A0911F12B09120124B
:102F20008EA39FA3A8A7B9A7A3019201BC01CD01BD
:102F30000E9453B62B966CAF7DAF8EAF9FAF2B9791
:102F4000409021125090221260902312709024120F
:102F5000A5019401C301B2010E9453B62F966CAF34
:102F60007DAF8EAF9FAF2F972091880A3091890A4D
:102F700040918A0A50918B0AC701B6010E9453B64C
:102F800063966CAF7DAF8EAF9FAF639720918C0A35
:102F900030918D0A40918E0A50918F0A6AA17BA1CF
:102FA0008CA19DA10E9453B667966CAF7DAF8EAF8A
:102FB0009FAF6797AEA0BFA0C8A4D9A4A982BA82C8
:102FC000CB82DC824D825E826F8278860E94DFAD8A
:102FD0009B01AC0128533F4F4F4F5F4FE3962CAFFF
:102FE0003DAF4EAF5FAFE397BDEC8B2EBCEC9B2E9D
:102FF000A92CBDE3BB2E1AA21EA21AA61EA60E94D1
:1030000079870E94DFAD8B019C01E396CCACDDACEF
:10301000EEACFFACE3970C191D092E093F0937FDF3
:103020000EC09B01AC0128533F4F4F4F5F4FE396BB
:103030002CAF3DAF4EAF5FAFE3970E94273FA50196
:103040009401BAA1AEA1FAA5EEA56B2F7A2F8F2F0E
:103050009E2F0E9453B62B011C0120E030E040E877
:103060005FE30E94B3B8181634F4412C512CF0E8F9
:103070002F2EAFE33A2E8091880A9091890AA09171
:103080008A0AB0918B0A6B968CAF9DAFAEAFBFAF83
:103090006B97A0901D12B0901E12C0901F12D0907E
:1030A00020126F96ACAEBDAECEAEDFAE6F973F9244
:1030B0002F925F924F926B96ACACBDACCEACDFACB6
:1030C0006B976396ECACFDAC0EAD1FAD63972B9682
:1030D0002CAD3DAD4EAD5FAD2B976F966CAD7DAD1C
:1030E0008EAD9FAD6F970E94B5500F900F900F90CF
:1030F0000F906AAB7EAB8AAF9EAFC0908C0AD09027
:103100008D0AE0908E0AF0908F0AA396CCAEDDAEC9
:10311000EEAEFFAEA3972091211230912212409182
:10312000231250912412A7962CAF3DAF4EAF5FAF44
:10313000A7973F922F925F924F92A396ACACBDACF3
:10314000CEACDFACA3976796ECACFDAC0EAD1FAD7B
:1031500067972F962CAD3DAD4EAD5FAD2F97A796DF
:103160006CAD7DAD8EAD9FADA7970E94B5500F9011
:103170000F900F900F906FAF21967FAF21972296FF
:103180008FAF229723969FAF239789819A81AB8136
:10319000BC81AB968CAF9DAFAEAFBFAFAB97AD80F0
:1031A000BE80CF80D884AF96ACAEBDAECEAEDFAE23
:1031B000AF9724961FAE24977AA16EA19AA58EA5EB
:1031C000272F362F492F582F642D752D822D932DA3
:1031D0000E9452B62FE632E143E05BE30E942FBE2D
:1031E00087FF06C02496BFAC2497B110DEC1C4C1CE
:1031F000242D352D422D532DBAA1AEA1FAA5EEA551
:103200006B2F7A2F8F2F9E2F0E9453B620E030E035
:1032100040E05FE30E9495BE3B014C019F928F937B
:103220007F926F936B96ACACBDACCEACDFAC6B97C2
:103230006396ECACFDAC0EAD1FAD63972B962CAD39
:103240003DAD4EAD5FAD2B976F966CAD7DAD8EAD48
:103250009FAD6F970E94B5500F900F900F900F90F9
:1032600025966FAF259726967FAF269727968FAF27
:103270002797E4969FAFE4979F928F927F926F92E9
:10328000A396ACACBDACCEACDFACA3976796ECAC70
:10329000FDAC0EAD1FAD67972F962CAD3DAD4EAD7D
:1032A0005FAD2F97A7966CAD7DAD8EAD9FADA79707
:1032B0000E94B5500F900F900F900F905B018C0102
:1032C0002AA93EA94AAD5EADAB966CAD7DAD8EAD83
:1032D0009FADAB970E9453B620E030E040E05FE343
:1032E0000E9495BE9B01AC0125966FAD2597269651
:1032F0007FAD269727968FAD2797E4969FADE497ED
:103300000E9452B66B017C01E894F7F82FAD21962C
:103310003FAD219722964FAD229723965FAD23971D
:10332000AF966CAD7DAD8EAD9FADAF970E9453B69D
:1033300020E030E040E05FE30E9495BE9B01AC01DD
:10334000B501C8010E9452B69B01AC015F77C7016D
:10335000B6010E9453B62DEC3CEC4CEC5DE30E94B0
:103360002FBE18160CF03ECFAFAE2196BFAE219700
:1033700022960FAF229723961FAF23972596CFACA7
:103380002597CAAA2696DFAC2697DEAA2796EFAC29
:103390002797EAAEE496FFACE497FEAE2301140152
:1033A00021E024962FAF249707CFA7019601C701EC
:1033B000B6010E9453B69B01AC01BAA1AEA1FAA519
:1033C000EEA56B2F7A2F8F2F9E2F0E9453B6962E2D
:1033D000872E782E692E20E030E040E85FE3D401AC
:1033E000F3016B2F7A2F8F2F9E2F0E94B3B887FF88
:1033F000DCC06F927F928F929F926B96ACACBDAC0B
:10340000CEACDFAC6B976396ECACFDAC0EAD1FADF4
:1034100063972B962CAD3DAD4EAD5FAD2B976F9660
:103420006CAD7DAD8EAD9FAD6F970E94B5500F9086
:103430000F900F900F9024966FAF249725967FAF33
:10344000259726968FAF269727969FAF27976F923F
:103450007F928F929F92A396ACACBDACCEACDFAC0A
:10346000A3976796ECACFDAC0EAD1FAD67972F969A
:103470002CAD3DAD4EAD5FAD2F97A7966CAD7DAD3C
:103480008EAD9FADA7970E94B5500F900F900F90F3
:103490000F905B018C0124962FAD249725963FADAC
:1034A000259726964FAD269727965FAD2797AB9623
:1034B0006CAD7DAD8EAD9FADAB970E9453B620E055
:1034C00030E040E05FE30E9495BE9B01AC016AA939
:1034D0007EA98AAD9EAD0E9452B66B017C01E89434
:1034E000F7F89501A801AF966CAD7DAD8EAD9FAD9F
:1034F000AF970E9453B620E030E040E05FE30E94C7
:1035000095BE9B01AC016FAD21967FAD21972296B0
:103510008FAD229723969FAD23970E9452B69B01B1
:10352000AC015F77C701B6010E9453B62DEC3CECAD
:103530004CEC5DE30E94B3B81816BCF1AFAE219617
:10354000BFAE219722960FAF229723961FAF2397E6
:1035500024963FAD24973AAB25964FAD25974EABB9
:1035600026965FAD26975AAF27968FAD27978EAFD9
:10357000492C582C272C362C7AA16EA19AA58EA501
:10358000272F362F492F582F642D752D822D932DDF
:103590000E9452B66B017C012DEC3CEC4CEC5DE3DF
:1035A0000E94B3B818160CF000CF7AA16EA19AA5AC
:1035B0008EA5272F362F492F582F642D752D822D3C
:1035C000932D0E9452B64B015C018AA99EA9AAAD17
:1035D000BEAD89839A83AB83BC838FAD21969FADAB
:1035E00021972296AFAD22972396BFAD23978D8367
:1035F0009E83AF83B887242D352D422D532D60E057
:1036000070E080E89FE30E9452B66B017C0120913C
:1036100025123091261240912712509128120E94B3
:1036200095BE6AA37BA38CA39DA32091900A3091A1
:10363000910A4091920A5091930A642D752D822D22
:10364000932D0E9495BE9B01AC016AA17BA18CA128
:103650009DA10E9453B669877A878B879C872091AA
:10366000291230912A1240912B1250912C12C7012D
:10367000B6010E9495BE6B017C012091940A3091A5
:10368000950A4091960A5091970A642D752D822DC6
:10369000932D0E9495BE9B01AC01C701B6010E940B
:1036A00053B66D877E878F87988BCE0101960E94D7
:1036B0003DA889819A81AB81BC818E8B9F8BA88F1D
:1036C000B98F8D819E81AF81B8858A8F9B8FAC8F9A
:1036D000BD8F89859A85AB85BC858E8F9F8FA8A36A
:1036E000B9A3AE01425E5F4FBE01665E7F4FCE0161
:1036F00046960E945F9AE596CFACE597E996ECACCA
:10370000FDAC0EAD1FADE9979E01235F3F4FAE01AB
:10371000425E5F4FBE01665E7F4FCE0146960E94BD
:10372000588B20E030E040E85FE3642D752D822D5A
:10373000932D0E942FBE87FF05C04AA25EA22AA633
:103740003EA65DCC0E94E32F0C94B82A0E947454CC
:103750000C94B82A20E030E040E050E460911D1263
:1037600070911E1280911F12909120120E9453B6E8
:103770006B017C0188E50E944531882321F00E947D
:10378000E3306B017C01CE8ADF8AE88EF98E20E07F
:1037900030E040EF51E4609121127091221280914B
:1037A0002312909124120E9453B66B017C0189E58B
:1037B0000E944531882321F00E94E3306B017C0197
:1037C000C982DA82EB82FC82409015125090161268
:1037D00060901712709018122091111230911212ED
:1037E00040911312509114126E897F89888D998DA2
:1037F0000E9452B64B015C012BE33FED4FEF5FE3BC
:103800000E94B3B887FF02C00C94B82A22E430E0CB
:1038100045E453E4C501B4010E942FBE181614F408
:103820000C94B82AA3019201C701B6010E9452B6B6
:103830006B017C0124EF3DEF4FEE51E40E94B3B8E1
:1038400087FF02C00C94B82A22E430E045E453E438
:10385000C701B6010E942FBE181614F40C94B82AA2
:103860000C94C92A0E94EA520C94B82A81E00E9462
:10387000705A0E94EA520E9474540C94B82A81E053
:10388000809390030C94B82A85E40E944531B82EA9
:10389000811102C00E94C7896FE6862E62E0962ED3
:1038A0007DE1C72E72E1D72EE8E9EE2EEAE0FE2E8A
:1038B00000E010E0A12CD4018D914D010E94453112
:1038C0008823F1F1F6012081318142815381EA960A
:1038D0002FAFEA97EB963FAFEB97EC964FAFEC9795
:1038E000ED965FAFED970E94E330D6016D937D9327
:1038F0008D939C931397EA962FADEA97EB963FAD85
:10390000EB97EC964FADEC97ED965FADED970330EE
:103910001105B1F00E9452B69B01AC01F701608124
:103920007181828193810E9453B6D7016D937D93FB
:103930008D939C931397C8010E944B32AA24A394A1
:103940000F5F1F4FB4E0CB0ED11CE4E0EE0EF11C74
:103950000430110509F0AFCFAA2019F00E94BD383C
:1039600047C0BB2009F444C0E0917511E093741185
:10397000C0902912D0902A12E0902B12F0902C12B5
:10398000ED5F24E0E29FF0011124E654F54F208121
:10399000318142815381C701B6010E9495BE0E94C8
:1039A000C0B86093E0127093E1128093E21290939A
:1039B000E312C092D012D092D112E092D212F092C1
:1039C000D312C701B6010E94BFB72FB7F894609316
:1039D00058107093591080935A1090935B102FBF1A
:1039E0001092C0121092C1121092C2121092C31201
:1039F0000E945F5C0C94B82A80912B02882311F4FA
:103A00000C94B82A89E40E944531182F882321F0AC
:103A10000E94AF30F62E01C0F12C8AE40E9445319D
:103A2000082F882331F00E94AF30E62E111104C018
:103A30000BC0E12C1123C1F032E03F1510F00C94C3
:103A40003E2EEBEFF2E004C042E04E15D0F30CC086
:103A500084918F010F5F1F4F882311F40C94B82AB3
:103A60000E94D131F801F4CF0E94D92F112341F1E6
:103A700020914210309143105F2D5203B001539FAB
:103A8000700D112480913E1090913F10680F791FA6
:103A9000072E000C880B990B0E9436BE2091111244
:103AA0003091121240911312509114120E9453B689
:103AB0006093880A7093890A80938A0A90938B0A8C
:103AC000002341F120914410309145104E2D4203C6
:103AD000B001439F700D112420914010309141108E
:103AE000620F731F072E000C880B990B0E9436BEC5
:103AF0002091151230911612409117125091181200
:103B00000E9453B660938C0A70938D0A80938E0A3C
:103B100090938F0A80E50E9416318823A1F10E94BC
:103B2000D330882381F11123B1F020E030E040E070
:103B300050E46091880A7091890A80918A0A909174
:103B40008B0A0E9452B66093880A7093890A809308
:103B50008A0A90938B0A0023B1F020E030E040EF16
:103B600051E460918C0A70918D0A80918E0A909137
:103B70008F0A0E9452B660938C0A70938D0A8093CC
:103B80008E0A90938F0A86E40E9445318823D9F0EB
:103B90000E94E3306B017C0120E030E0A9010E942B
:103BA000B3B8181684F420E030E040E752E4C701CF
:103BB000B6010E944DB760933B0270933C02809324
:103BC0003D0290933E020E94D4A80C94B82A8091A2
:103BD000930990919409883C910509F47AC70CF0F7
:103BE000B3C08836910509F450C30CF05EC08B3425
:103BF000910509F428C364F58231910509F430C5B3
:103C0000D4F497FF02C00C94B82A823091050CF4CA
:103C10007FC1419711F00C94B82A5F988A989FB79A
:103C2000F894809108018E7F809308019FBF1298BD
:103C300047980C94B82A8A32910509F4C0C280339F
:103C4000910509F4FCC24F9711F00C94B82AE5C114
:103C50008235910509F4FCC4C4F48D34910509F44E
:103C600010C30CF4F4C28135910511F00C94B82AFC
:103C70000E945A820E94C7890E94E53E10926B11F1
:103C800010926A1100E010E0CCC48435910509F46B
:103C9000E7C40CF4E1C48535910509F416C58C35EB
:103CA000910509F42BC50C94B82A8237910509F4C3
:103CB000BBC5ECF48D36910509F451C464F48A3621
:103CC000910509F47DC40CF402C48B36910509F406
:103CD00096C40C94B82A8F36910509F420C30CF4CD
:103CE0000BC38137910509F4A8C30C94B82A88370F
:103CF000910509F4E8C674F48637910509F428C6DD
:103D00000CF05DC68337910511F00C94B82AE6E7F4
:103D1000F4E08FC58C38910509F4BBC35CF4893796
:103D2000910511F00C94B82A1092140A10921B10ED
:103D30000C94B82A8B39910509F4E6C38E3B9105A2
:103D400009F429C40C94B82A833651E0950711F47C
:103D50000C94F3290CF068C08C3D910511F40C947F
:103D6000DA278CF58D3C910511F40C94922664F4BD
:103D70008B3C910509F443C70CF06AC7893C910557
:103D800009F40CC70C94B82A833D910511F40C94E6
:103D900036278A3D910511F40C94CE278E3C91056F
:103DA00011F00C94B82AAFE6AA2EA2E0BA2EBDE11B
:103DB000CB2EB2E1DB2E1CE2E12E1AE0F12E00E068
:103DC00010E00C94FD268C32B1E09B0711F40C94AA
:103DD000292894F4823E910511F40C9400288E3029
:103DE000F1E09F0711F40C9455288D3D910511F0D9
:103DF0000C94B82A0C94E7278E3221E0920711F434
:103E00000C94582814F40C9452288F3241E09407F3
:103E100011F40C945B288033914011F00C94B82A73
:103E20000E942C6C0C94B82A863FA1E09A0711F4EA
:103E30000C94C428DCF5843AE1E09E0711F40C945C
:103E40006628ACF4813921E0920711F40C945E28C5
:103E5000823931E0930711F40C9462288039914043
:103E600011F00C94B82A0E94C7890C94B82A8C3A95
:103E700051E0950711F40C94BE284CF4853A91401A
:103E800011F00C94B82A0E94AD660C94B82A843FB5
:103E9000E1E09E0711F40C94C128853F914011F098
:103EA0000C94B82A0E9431740C94B82A8B3823E001
:103EB000920711F40C94CD28ACF4833543E09407B9
:103EC00011F40C94C728843853E0950711F40C942E
:103ED000CA28873F914011F00C94B82A0E949A6535
:103EE0000C94B82A8D38B3E09B0711F40C942A295E
:103EF00014F40C94F9288E38F3E09F0711F40C9415
:103F0000EB29873E934011F40C94332A0C94B82A81
:103F1000E0909109F090920980E50E944531882354
:103F200059F00E949F304B015C0111E0672B682B18
:103F3000692B31F410E004C010E0812C912C540165
:103F400083E50E944531882399F00E94E33020E008
:103F500030E04AE754E40E9495BE0E94C6B74B0188
:103F60005C0111110CC0672B682B692B41F43CC01C
:103F7000111105C0E114F10411F00C941F2B83E022
:103F800090E090936C0A80936B0A81E080938A039F
:103F90000E94C7890E94C63181149104A104B10412
:103FA000A9F18091740A9091750AA091760AB09156
:103FB000770A75016401C80ED91EEA1EFB1E0E9415
:103FC000DFADDC01CB018C199D09AE09BF09B7FD3E
:103FD00004C010928A030C94B82A80918A03882323
:103FE000C1F30E94273FEBCFE114F10411F00C94D0
:103FF0001F2B83E090E090936C0A80936B0A81E022
:1040000080938A030E94C7890E94C63180918A03E7
:104010008823F9F20E94273FF9CF809104139091F1
:104020000513019719F40E94DFAD08C060910E13CB
:1040300070910F13809110139091111300910A1336
:1040400010910B1320910C1330910D13601B710B09
:10405000820B930B28EE33E040E050E00E9423C235
:104060008091061390910713A0910813B091091342
:10407000BC01CD01620F731F841F951F5CE3C52E29
:10408000D12CE12CF12CA70196010E9423C2762E9F
:10409000672ECA01B901A70196010E9423C26B01D4
:1040A0007C01CA01B90128E130E040E050E00E9403
:1040B00023C24B015C01C9016DE671E00E941BB691
:1040C0008E010F5F1F4F6115710599F06F927F92FE
:1040D000DF92CF929F928F929F938F937F936F9354
:1040E00082E493E09F938F931F930F930E94FFBDF1
:1040F00026C0009789F06F927F92DF92CF929F92B5
:104100008F929F938F9382E393E09F938F931F935C
:104110000F930E94FFBD13C081149104A104B10448
:10412000B1F06F927F92DF92CF929F928F9286E250
:1041300093E09F938F931F930F930E94FFBD0FB641
:10414000F894DEBF0FBECDBFE5ECF5E223C0C1148D
:10415000D104E104F10469F06F927F92DF92CF9273
:104160008EE193E09F938F931F930F930E94FFBD67
:10417000E6CF6F927F928AE193E09F938F931F9394
:104180000F930E94FFBD0F900F900F900F900F9014
:104190000F90DACF84917F01BFEFEB1AFB0A8823DF
:1041A00021F00E94D131F701F5CFB80186E593E007
:1041B0000E948D508AE00E94D1310C94B82A83E588
:1041C0000E944531882311F40C94B82A0E94BF3014
:1041D000E82E80E50E944531882311F40C94B82A1A
:1041E0000E94AF30162FC62ED72ED7FE02C00C94D9
:1041F000B82AE2E5F6E080E38E0F9491191729F0D2
:1042000031968E13FACF0C943E2BE6E5F5E28491BD
:104210008F010F5F1F4F882321F00E94D131F801D9
:10422000F6CFE3E6F3E084918F010F5F1F4F882301
:1042300011F40C94B82A0E94D131F801F4CF0E94F5
:10424000105E0C94B82A0E94859F0C94B82A809125
:10425000041390910513019711F00C94B82A82E091
:1042600090E090930513809304130E94DFAD609358
:104270000E1370930F1380931013909311130C94DB
:10428000B82A0E94F49E0C94B82A88E690E00E9416
:104290005D3381110C94B82A80912D1283FF02C0E6
:1042A0000C94B82A83E50E944531882309F10E94C5
:1042B000E330F0908B032F2D30E0220F331F890164
:1042C00009571F4E0E94BFB7F801718360838F2D7D
:1042D0000E9402820E94E33020E030E04AEA52E489
:1042E0000E942FBE181614F00E94F49E0E94E33024
:1042F0000E9498B50C94B82A8EE40E944531882318
:1043000011F40C94B82A0E94AF3060939D137093FF
:104310009E1380939F139093A0130C94B82A83E567
:104320000E941631882359F083E50E944531882385
:1043300019F00E94BF3001C080E080932D12E5EC9F
:10434000F5E284918F010F5F1F4F882321F00E94B7
:10435000D131F801F6CFE2E8F3E084918F010F5FED
:104360001F4F882321F00E94D131F801F6CF8091B0
:104370002D128823A1F102E7C02E03E0D02EE12CFC
:10438000F12C20E080912D1290E00E2C02C095952A
:1043900087950A94E2F780FF17C0BB24B394B20E4E
:1043A000222319F08CE20E94D131F601259134913B
:1043B000F901849189010F5F1F4F882321F00E942A
:1043C000D1319801F5CF2B2DFFEFEF1AFF0A32E024
:1043D000C30ED11C46E0E416F104A1F629C0EEE7B5
:1043E000F3E084918F010F5F1F4F882309F10E9432
:1043F000D131F801F6CF0CE110E180E20E94D13119
:10440000D8016D917D918D919D918D0142E00E9429
:104410007E358CE20E94D131F801648175818681FC
:10442000978142E00E947E35F0E104321F0729F7B0
:104430008AE00E94D1310C94B82A83E50E9445316C
:10444000882369F00E94BF30809311028D3310F4ED
:104450000C94B82A8CE3809311020C94B82AE5ECF2
:10446000F5E284918F010F5F1F4F882321F00E9496
:10447000D131F801F6CF4091110250E060E070E0D8
:1044800089E893E00E9401508AE00E94D1310C94A7
:10449000B82A80912D1283FF02C00C94B82A83E5BC
:1044A0000E944531882311F40C94B82A0E94E3300D
:1044B0000E94BFB76E37710514F06DE770E070931E
:1044C0008610609385100E94B7810C94B82A89E603
:1044D00090E00E945D33811111C0E0E9F3E0849126
:1044E0008F010F5F1F4F882321F00E94D131F80107
:1044F000F6CF0E941E5D8AE00E94D13110926C0AB4
:1045000010926B0A0C946C2E83E50E94453188232F
:1045100011F40C94B82A0E94BF308093710A8D3335
:1045200018F08CE38093710A0E94DFAD6B017C016F
:104530002091710A30E0A8EEB3E00E9477C2DC015E
:10454000CB018C0D9D1DAE1DBF1D80936D0A9093F8
:104550006E0AA0936F0AB093700A0C94B82A8DE685
:1045600090E00E945D3381110C94B82A80912D1245
:1045700083FF02C00C94B82A83E50E9445318AA7C4
:1045800081110C94552B82E50E94453181110C94C8
:10459000552B0C94B82A80912D1283FF02C00C94E5
:1045A000B82A83E50E9445318AA781110C949D2C7D
:1045B00082E50E94453181110C949D2C0C94B82AFF
:1045C00083E50E944531882339F00E94AF308B018A
:1045D0006F3F710519F010F00FEF10E080E50E94B9
:1045E0004531811106C010936B1100936A110C9430
:1045F000B82A0E94BF3081110C94B82AF4CF80E50C
:104600000E944531811106C010926B1110926A11FF
:104610000C94B82A0E94AF30672B11F00C94B82A82
:10462000F3CF62E370E080E090E00E94BA9E0E94C7
:1046300079870F5F1F4F0331110599F762E370E02F
:1046400080E090E00E94BA9E0E9479870C94B82A7C
:1046500010928F030C94B82A81E080938F0388C74F
:1046600083E50E944531882399F00E94E33020E0E1
:1046700030E04AE754E40E9495BE0E94C6B76093BA
:10468000120270931302809314029093150270C764
:1046900088E50E94163181110C94D42D89E50E9481
:1046A000163181110C94D42D8AE50E9416318111A6
:1046B0000C94D42D85E40E94163181110C94D42DD4
:1046C0000E94C7890E94E53E53C783E50E941631C8
:1046D000882309F44DC70E94E33020E030E04AE728
:1046E00054E40E9495BE0E94C6B76093780A709306
:1046F000790A80937A0A90937B0A3AC78CE590E016
:104700000E945D33811134C7AFE6B2E0BBA3AAA318
:104710004AEBC42E4AE0D42EF12CEAA1FBA18191F0
:10472000FBA3EAA30E941631882309F473C0F3E0C7
:10473000FF1268C00E94E3302B013C0120E030E012
:1047400040EA51E40E942FBEE0908B0387FF4FC0E8
:104750000E2D10E00D5F1F4F000F111F000F111FD6
:10476000F801E654F54FA3019201608171818281C5
:1047700093810E944DB74B015C019B01AC0160919C
:104780003A1170913B1180913C1190913D110E9422
:1047900095BE60933A1170933B1180933C119093B6
:1047A0003D119801265B3E4E1901A5019401D101EE
:1047B0006D917D918D919C910E9495BEF1016083D8
:1047C0007183828393830A581E4ED8016D917D9127
:1047D0008D919C910E9434BEA50194010E9495BECA
:1047E0000E94C6B7F801608371838283938324E0BB
:1047F000E29EF0011124EA53F54F40825182628219
:10480000738208C00E94E330D6016D937D938D932F
:104810009C931397F394B4E0CB0ED11CE4E0FE120A
:104820007CCF0E948C51A4C60E94C7890E945F5C05
:104830009FC684918F010F5F1F4F882321F00E9434
:10484000D131F801F6CFE8E6F4E084918F010F5FF3
:104850001F4F882321F00E94D131F801F6CFE1E506
:10486000F4E084918F010F5F1F4F882321F00E9495
:10487000D131F801F6CFE1E4F4E084918F010F5FCC
:104880001F4F882321F00E94D131F801F6CFE0E3D9
:10489000F4E084918F010F5F1F4F882321F00E9465
:1048A000D131F801F6CFEFE1F4E084918F010F5F91
:1048B0001F4F882321F00E94D131F801F6CFE0E1AB
:1048C000F4E084918F010F5F1F4F882321F00E9435
:1048D000D131F801F6CFEBEFF3E084918F010F5F58
:1048E0001F4F882321F00E94D131F801F6CFE5EE69
:1048F000F3E084918F010F5F1F4F882321F00E9406
:10490000D131F801F6CFE0EDF3E084918F010F5F34
:104910001F4F882321F00E94D131F801F6CFE3EB3D
:10492000F3E084918F010F5F1F4F882321F00E94D5
:10493000D131F801F6CFEBE9F3E084918F010F5FFD
:104940001F4F882309F414C60E94D131F801F5CF16
:1049500085E40E941631882381F00E94D330882399
:1049600061F0E5ECF5E284918F010F5F1F4F882322
:1049700021F00E94D131F801F6CF81E40E94163176
:10498000882381F00E94D330882361F0EAE4F5E0C7
:1049900084918F010F5F1F4F882321F00E94D13136
:1049A000F801F6CF0091910910919209D8018D91EB
:1049B0008D01882309F43CCD0E94D131F7CFEEE67A
:1049C000F5E084918F010F5F1F4F882321F00E9433
:1049D000D131F801F6CFE6E6F5E084918F010F5F63
:1049E0001F4F882321F00E94D131F801F6CF65993D
:1049F00003C005ED12E002C00AED12E0F80181915A
:104A00008F01882319F00E94D131F8CF8AE00E94EB
:104A1000D131EEE5F5E084918F010F5F1F4F8823C0
:104A200021F00E94D131F801F6CF8091030181FD80
:104A300003C005ED12E002C00AED12E0D8018D912D
:104A40008D01882319F00E94D131F8CF8AE00E94AD
:104A5000D131E6E5F5E084918F010F5F1F4F882388
:104A600021F00E94D131F801F6CF4A9903C005ED3B
:104A700012E002C00AED12E0F80181918F01882353
:104A800019F00E94D131F8CF8AE00E94D131EEE4D2
:104A9000F5E084918F010F5F1F4F882321F00E9462
:104AA000D131F801F6CF4B9903C005ED12E002C0F9
:104AB0000AED12E0D8018D918D01882309F4B8CC5C
:104AC0000E94D131F7CF81E08093140A80931B10AC
:104AD0004FC588EC90E00E945D33811149C584E4A4
:104AE0000E941631882309F456C00E94E33011E079
:104AF00020E030E0A9010E942FBE811101C010E02A
:104B000010933C10112309F446C000918B0310E070
:104B10000E94E330000F111F000F111FF801EC5C21
:104B2000FF4E608371838283938320E030E0A9018C
:104B3000609134107091351080913610909137103B
:104B40000E942FBE81110CC080E090E0A0E4B0E490
:104B50008093341090933510A0933610B093371093
:104B600020E030E0A90160913810709139108091F7
:104B70003A1090913B100E942FBE81110CC080E032
:104B800090E0A0E4B0E48093381090933910A093A3
:104B90003A10B0933B100E947042EAC489EC90E056
:104BA0000E945D338111E4C48FE6C82E82E0D82EC6
:104BB00000E0F60181916F010E9416318823C9F04F
:104BC000033019F410918B0301C010E00E94E33010
:104BD000100FF4E01F9F90011124A90146575E4E6B
:104BE0007A010E94C6B7D7016D937D938D939C93F4
:104BF00013970F5F0430E9F60E94D189B9C48BEC9A
:104C000090E00E945D338111B3C40FE6E02E02E014
:104C1000F02E00E0F70181917F010E941631882378
:104C200099F0033019F410918B0301C010E00E9439
:104C3000E330100F24E0129FF0011124E65BFE4EDA
:104C400060837183828393830F5F043019F790C46C
:104C500083E50E9416318823D9F00E94E330AB012E
:104C6000BC014093421150934311609344117093DF
:104C7000451140933E1150933F1160934011709342
:104C8000411182EE95E00E943B508AE00E94D131B2
:104C900080E50E941631882399F00E94E330AB0131
:104CA000BC0140934211509343116093441170939F
:104CB000451185EC95E00E943B508AE00E94D1317D
:104CC00082E50E941631882399F00E94E330AB01FF
:104CD000BC01409346115093471160934811709363
:104CE000491186EA95E00E943B508AE00E94D1314A
:104CF00084E50E941631882309F43AC40E94E33007
:104D0000AB01BC0140933E1150933F1160934011A1
:104D10007093411188E895E00E943B508AE00E9420
:104D2000D13126C483E50E941631882351F00E94B8
:104D3000E3306093661170936711809368119093CC
:104D4000691184E50E941631882351F00E94E330F6
:104D50006093621170936311809364119093651155
:104D600082E40E941631882351F00E949F306093A4
:104D70005E1170935F11809360119093611188E5CB
:104D80000E941631882351F00E94E33060932E1167
:104D900070932F11809330119093311189E50E9407
:104DA0001631882351F00E94E330609332117093E2
:104DB000331180933411909335118AE50E94163196
:104DC000882351F00E94E3306093361170933711BD
:104DD000809338119093391185E40E94163188230D
:104DE00009F4C6C30E94E33060933A1170933B11FB
:104DF00080933C1190933D11BBC3D5018D915D0112
:104E00000E941631882311F10E94E3302B013C01EE
:104E1000F70120813181428153810E9452B69B016A
:104E2000AC01D6016D917D918D919C910E9453B6FC
:104E3000F6016083718382839383D7014D925D92E3
:104E40006D927C921397C8010E944B320F5F1F4FE7
:104E5000B4E0CB0ED11CE4E0EE0EF11C03301105E2
:104E600061F60E94BD380E945F5C82C3E5ECF5E20A
:104E700084918F010F5F1F4F882321F00E94D13151
:104E8000F801F6CF83E50E941631882321F00E94B5
:104E9000D33080933A02E2E3F6E084918F010F5F12
:104EA0001F4F882321F00E94D131F801F6CF809165
:104EB0003A02811103C0EEE2F6E002C0EAE2F6E057
:104EC00084918F010F5F1F4F882321F00E94D13101
:104ED000F801F6CFE2E2F6E084918F010F5F1F4FF9
:104EE000882321F00E94D131F801F6CF4091A1131F
:104EF0005091A2136091A3137091A41380E296E0E5
:104F00000E943B504091A5135091A6136091A713A6
:104F10007091A8138DE196E00E943B504091A91337
:104F20005091AA136091AB137091AC138AE196E093
:104F30000E943B50E2E1F6E084918F010F5F1F4F2A
:104F4000882321F00E94D131F801F6CF409143022D
:104F500050914402609145027091460280E196E0D2
:104F60000E943B5040914702509148026091490293
:104F700070914A028DE096E00E943B5040914B02B6
:104F800050914C0260914D0270914E028AE096E081
:104F90000E943B508AE00E94D131EAC28AED90E043
:104FA0000E945D338111E4C210918B03112309F437
:104FB000DFC224C683E50E944531882309F4D8C2A4
:104FC0000E94AF307093100260930F02D1C28DED3A
:104FD00090E00E945D338111CBC283E50E94453190
:104FE000882309F4C5C200918B0310E00E94AF3002
:104FF000000F111FF801EE5CFD4F71836083B8C292
:1050000080E50E941631882309F4B2C20E94AF30B5
:10501000F62EC62ED72E83E50E944531882321F037
:105020000E94AF308B0102C00FEF1FEFC801019645
:10503000039708F09DC2D7FC9BC2E2E5F6E080E34F
:105040008E0F9491F91609F493C231968E13F9CF0D
:105050001CC683E50E944531882319F00E94AF30B9
:1050600002C064E071E07F8B6E8B80E50E94453169
:10507000882339F00E94AF30693823E1720730F499
:1050800002C068EE73E07A83698304C088E893E124
:105090009A838983BE016A5E7F4FCE0101960E948A
:1050A000F69B66C20E94AB6C63C20E94486D60C2F0
:1050B0000E94D66B5DC20E9444675AC281E00E9482
:1050C000B13756C280E00E94B13752C286E50E94D5
:1050D0001631882341F08091421090914310892B22
:1050E00011F00E941EB083E50E941631182F88230C
:1050F00019F00E94D330182F83E50E9416318823BF
:1051000019F0812F0E948B2FF0902411111103C0F0
:10511000E5ECF5E21AC0F110FBCFE6E5F5E284918B
:105120008F010F5F1F4F882321F00E94D131F801BA
:10513000F6CFE0E9F6E084918F010F5F1F4F8823DF
:1051400039F30E94D131F801F6CF84918F010F5FBE
:105150001F4F882321F00E94D131F801F6CFF110C2
:1051600003C068EE72E002C064EE72E082E896E08E
:105170000E948D508AE00E94D131FAC10E94A76539
:10518000F7C10E946979F4C10E94A472F1C10E9422
:105190002D65EEC10E94F463EBC183E50E941631D8
:1051A000811106C06FE6E62E62E0F62E10E012C016
:1051B0000E94E3306B017C0110E0B701A601812F52
:1051C0000E943B891F5F1530C1F7ECCF1F5F143081
:1051D00009F4CEC1D7018D917D010E94163188233B
:1051E000A9F30E94E330AB01BC01812F0E943B89EF
:1051F000EDCF83E50E944531882321F00E94AF3036
:105200008B0102C000E010E080E50E944531882358
:1052100019F00E94BF3001C08FEF9091280A9923A6
:1052200009F4A6C1E82FF0E0ED54FD4FE081F0E075
:10523000EE0FFF1FE05EF54FC8010130104110F086
:1052400080E090E1918380830E9444AD88E00E94D9
:1052500033AD8EC18091280A882309F489C1E5EC19
:10526000F5E284918F010F5F1F4F882321F00E9488
:10527000D131F801F6CFEEECF6E084918F010F5FAB
:105280001F4F882321F00E94D131F801F6CFE5ECC1
:10529000F5E284918F010F5F1F4F882321F00E9458
:1052A000D131F801F6CF6091240A7091250A80E08F
:1052B00090E00E9434BE20E030E048EC52E40E94CE
:1052C00095BE20E030E040E859E30E9495BEAB0176
:1052D000BC018AEC96E00E943B5080E00E941A8953
:1052E000AB01BC0187EC96E00E943B506091260A1E
:1052F0007091270A80E090E00E9434BE20E030E008
:1053000048EC52E40E9495BE20E030E040E859E3CA
:105310000E9495BEAB01BC0182EC96E00E943B501E
:1053200081E00E941A89AB01BC018FEB96E00E94DC
:105330003B506091200A7091210A80E090E00E9429
:1053400034BE20E030E048EC52E40E9495BE20E0FC
:1053500030E040E859E30E9495BEAB01BC018AEB06
:1053600096E00E943B5082E00E941A89AB01BC018A
:1053700087EB96E00E943B506091220A7091230ACD
:1053800080E090E00E9434BE20E030E048EC52E43F
:105390000E9495BE20E030E040E859E30E9495BEAF
:1053A000AB01BC0182EB96E00E943B5083E00E947F
:1053B0001A89AB01BC018FEA96E00E943B500CEECB
:1053C00012E0F80181918F01882311F40C941822C6
:1053D0000E94D131F6CF8091280A882309F4C8C0F1
:1053E0000E948EADC5C080E50E944531882331F012
:1053F0000E94BF3080932A0A11E001C010E083E5CB
:105400000E944531882329F00E94D33080932B0AD3
:1054100001C011110E94E463E5ECF5E284918F0173
:105420000F5F1F4F882321F00E94D131F801F6CF82
:1054300080912B0A81110CC00EEE12E0D8018D91E3
:105440008D01882311F40C9418220E94D131F6CFDB
:1054500060912A0A70E083EF96E00E9458508AE03B
:105460000E94D13185C081E080932B0283E50E94A8
:105470001631811103C00E94F7A97AC00E94D3306F
:10548000811176C0F8CFE0909309F09094091E2D19
:1054900080912D1285FF14C0B70177278AE497E029
:1054A0000E94585089E20E94D1318AE00E94D13195
:1054B0004DE152E16BE277E086E397E00E9491379D
:1054C00080917511181751F083E50E941631182F3D
:1054D000882329F00E94D330182F01C011E086E400
:1054E0000E944531882319F00E94E33003C060E038
:1054F00070E0CB0120E030E040E752E40E944DB77D
:10550000AB01BC01212F8E2D0E94AF6380912D1223
:1055100085FF2EC04DE152E16DE077E087E197E035
:105520000E949137E0E0F7E084918F010F5F1F4FF9
:105530008823F1F00E94D131F801F6CFE5ECF5E2D5
:1055400084918F010F5F1F4F882321F00E94D1317A
:10555000F801F6CF6091720A7091730A87E597E0BF
:105560000E948D5082E20E94D1318AE00E94D131A6
:1055700010926C0A10926B0A0E94D8A9ADC3411513
:10558000510519F4AF0141505109812C912C0C9413
:105590005A1480E00E948B2F0E94913883E50E946C
:1055A0001631882309F449C00E94D33021E0482FE6
:1055B000BE016F5F7F4FCE0146960E94BAA06B017D
:1055C0007C019B01AC010E9445B9811131C02CEADC
:1055D00035EC47E257E36E897F89888D998D0E946B
:1055E00053B6AB01BC0183EF92E00E941E502CEA3F
:1055F00035EC47E257E369817A818B819C810E9477
:1056000053B6AB01BC018EEE92E00E941E502CEA14
:1056100035EC47E257E3C701B6010E9453B6AB0130
:10562000BC0189EE92E00E941E508AE00E94D131B6
:105630000E946B380E945F5C9BCF81E0B7CFD7019F
:105640008C91882311F40C94BF1FE5ECF5E2849152
:105650008F010F5F1F4F882321F00E94D131F80185
:10566000F6CFF70181917F01882319F00E94D13193
:10567000F8CF8AE00E94D1310C94BF1F61E0812FE6
:105680000E94B59D6E2D812F0E94859DF12CB70142
:10569000812F0E94F19DB7E0CB16D10409F068CFAD
:1056A000F0926B11E0926A1163CF0E94E330F090A8
:1056B0008B032F2D30E0220F331F890109571F4E16
:1056C0000E94BFB7F801718360838F2D0E94028210
:1056D0000E94E33020E030E04AEA52E40E942FBE0C
:1056E00018161CF00E94F49E02C00E94859F0E9422
:1056F00098B581E0809300021EA21FA218A619A6E9
:105700001EA61FA618AA19AA1AA21AAA5CE35EABC3
:105710008CE18AAF96E49EAFC12CD12CB0E8EB2E81
:105720001FEBF12E812C912C540100918B0310E082
:10573000F801EE0FFF1FE957FF4E60817181072EC0
:10574000000C880B990B0E9436BE762E672E582EC1
:10575000492E262F372F482F592FB601C7010E94F7
:105760002FBE8823E9F0000F111F000F111FF80151
:10577000E858FF4E2081318142815381672D762D7B
:10578000852D942D0E942FBE881F8827881F8AA3ED
:10579000CAA4CC2049F0882339F080910002E8CED9
:1057A0007C2C6D2C5E2C4F2C0E94DFAD6B017C019C
:1057B000DC01CB012EA53FA548A959A9821B930B5B
:1057C000A40BB50BB7FD3AC0D701C60188519C4F59
:1057D000AF4FBF4F8EA79FA7A8ABB9AB0E941E5D6E
:1057E000E3E9F3E084918F010F5F1F4F882321F0DD
:1057F0000E94D131F801F6CF81149104A104B104C3
:10580000B9F0D501C401805F984DAF4FBF4FBC01C7
:10581000CD016C197D098E099F0928EE33E040E027
:1058200050E00E9423C2CA01B9010E949F3303C005
:105830008FE30E94D1318AE00E94D1310E94273F3C
:105840000E94C631E0918B0394E0E99FF00111249E
:10585000E858FF4E20803180028113819101A80118
:10586000672D762D852D942D0E9452B69F77811439
:105870009104A104B10449F420E030E040E85FE382
:105880000E942FBE87FF0BC008C020E030E040E43C
:1058900050E40E94B3B8181614F446015701AAA1A7
:1058A000AA2379F12EA13FA148A559A521153105BB
:1058B0004105510541F0D701C601821B930BA40B92
:1058C000B50BB7FD1EC09101A8016AA97EA98AADDA
:1058D0009EAD0E9452B620E030E040EC5FE30E94B3
:1058E0002FBE87FD5ACFD701C601805A9541AF4FD1
:1058F000BF4F8EA39FA3A8A7B9A72AAA3EAA0AAF03
:105900001EAF80910002882309F447CF81149104CF
:10591000A104B10429F4C72CD62CE52CF42C05CF16
:1059200090E1C91A97E2D90AE108F108C818D90824
:10593000EA08FB08F7FE31CFEECF0E94E3300E9469
:10594000BFB76E37710514F06DE770E07093861085
:10595000609385100E94B7810E94E33020E030E020
:1059600040EA50E40E94B3B8181614F40E94859FD0
:1059700081E0809300028091751180938B031EA2B9
:105980001FA218A619A61EA61FA618AA19AA1AA20F
:105990001AAAACE3AEABBCE1BAAFE6E4EEAFC12C01
:1059A000D12C50E8E52E6FEBF62E812C912C540172
:1059B0006091851070918610072E000C880B990B52
:1059C0000E9436BE162F072F782E692E262F372FCE
:1059D000482F592FB601C7010E942FBE8823D1F04E
:1059E000209180103091811040918210509183104D
:1059F000612F702F872D962D0E942FBE881F88271C
:105A0000881F8AA3CAA4CC2049F0882339F080914A
:105A10000002AECD1C2D0D2D7E2C6F2C0E94DFAD13
:105A20006B017C01DC01CB012EA53FA548A959A93A
:105A3000821B930BA40BB50BB7FD3BC0D701C6016E
:105A400088519C4FAF4FBF4F8EA79FA7A8ABB9AB54
:105A50000E941E5DE7E9F3E084912F019FEF491A50
:105A6000590A882321F00E94D131F201F5CF811427
:105A70009104A104B104B9F0D501C401805F984D2F
:105A8000AF4FBF4FBC01CD016C197D098E099F0935
:105A900028EE33E040E050E00E9423C2CA01B90181
:105AA0000E949F3303C08FE30E94D1318AE00E949D
:105AB000D1310E94273F0E94C63120908010309043
:105AC000811040908210509083109101A201612FAB
:105AD000702F872D962D0E9452B69F7781149104C6
