:100000000C9411130C9442130C9442130C9442134D
:100010000C9442130C9442130C9442130C9442130C
:100020000C9442130C9442130C9442130C944213FC
:100030000C9442130C9442130C9442130C944213EC
:100040000C9442130C94924E0C9442130C94421351
:100050000C9442130C9442130C94AC7B0C94D0A9D6
:100060000C9442130C9463480C9438490C9442133A
:100070000C9442130C9442130C9442130C944213AC
:100080000C9442130C9442130C9442130C9442139C
:100090000C9442130C9442130C9442130C948279E6
:1000A0000C9442130C9442130C9442130C9442137C
:1000B0000C9442130C9442130C9442130C9442136C
:1000C0000C9442130C9442130C9442130C9442135C
:1000D0000C9442130C9442130C9442130C9442134C
:1000E0000C94421396489D48B148BE48C848E3481E
:1000F000CD48E348D248D748E348DF487D7C827C3E
:10010000AC7CB17C917C9D7C677C93A796A785A7EE
:1001100089A78FA7CDA79AA79EA7A4A7A8A7ACA792
:10012000B2A7B6A7BAA7CDA7C0A7C4A7C8A7EAA871
:10013000EFA8F4A8FEA808A981A912A91AA922A9C2
:100140002CA936A940A94FA959A981A963A96DA9CC
:1001500077A9084AD73B3BCE016E84BCBFFDC12FB7
:100160003D6C74319ABD56833DDA3D00C77F11BEA8
:10017000D9E4BB4C3E916BAAAABE000000803F05AB
:10018000A84CCDB2D44EB93836A9020C50B99186DC
:1001900088083CA6AAAA2ABE000000803F000C9452
:1001A00036A90C94ACA70C94C4A70C9496480C9454
:1001B00008A90C9485A70C94B6A70C94BE480C947F
:1001C000B1480C94CD780C9459790C9459A90C949D
:1001D000827C0C94F4A80C94A4A70C94CDA70C9446
:1001E0002CA90C94917C0C94D7410C947D7C0C949C
:1001F000C0A70C94C8A70C941AA90C9493A70C94AC
:10020000F1780C94DF480C94BAA70C9422A90C94B2
:100210009D7C0C944FA90C94E3480C94DD780C94CD
:100220009EA70C9496A70C949D480C94D2480C94CD
:1002300089A70C94A8A70C94C8480C94D7480C9490
:10024000CD480C94AC7C0C94A4B10C94EAA80C940A
:10025000B17C0C9481A90C948FA70C9477A90C9471
:100260006DA90C94FEA80C94B2A70C949AA70C94B8
:10027000677C0C9440A90C94EFA80C9412A90C94E0
:1002800029790C94CE780C9463A90C94F9784E419A
:100290004E494E495459494E46CDCCCC3D0AD72300
:1002A0003C17B7D13877CC2B329595E6241FB14F48
:1002B0000A000020410000C84200401C4620BCBE8D
:1002C0004CCA1B0E5AAEC59D744C4556454C494E02
:1002D0004700434F4D4D554E49434154494F4E0001
:1002E00044525952554E004552524F525300494EB6
:1002F000464F004543484F0047322F473320626145
:100300006420706172616D65746572730A004732B2
:100310002F47332062616420706172616D6574657E
:1003200072730A00205A3A200020593A2000426590
:100330006420583A20004D65736820706F696E74B0
:100340002063616E6E6F74206265207265736F6CDE
:100350007665640A002569730025696D2025697337
:10036000002569682025696D202569730025696469
:10037000202569682025696D202569730025697924
:1003800020256964202569682025696D2025697309
:10039000005072696E742074696D653A2000000126
:1003A00036372603FF3C3D38FF0E2E303E1312FF3A
:1003B000FF080706FF061A1C18FFFF24221EFFFF76
:1003C00008440A0B43090B45FFFFFFFFFFFF507274
:1003D0006F7465637465642050696E0A00F302EE01
:1003E00002E702E002D202C9026F6666004445429B
:1003F00055473A004D3131332053006F6B00205781
:100400003A004361703A454D455247454E43595F66
:100410005041525345523A310A004361703A4341C8
:1004200053455F4C494748545F4252494748544EF0
:100430004553533A310A004361703A544F47474C91
:10044000455F4C49474854533A310A004361703A7A
:10045000534F4654574152455F504F5745523A30DB
:100460000A004361703A4C4556454C494E475F443B
:100470004154413A310A004361703A5A5F50524F39
:1004800042453A310A004361703A4155544F4C4558
:1004900056454C3A310A004361703A5052494E5425
:1004A0005F4A4F423A310A004361703A50524F4717
:1004B000524553533A300A004361703A4155544F04
:1004C0005245504F52545F54454D503A310A004303
:1004D00061703A454550524F4D3A310A00464952F3
:1004E0004D574152455F4E414D453A4D61726C69E1
:1004F0006E204D61726C696E5F312E312E365F5207
:100500006F626F56657273696F6E5F312E322E3473
:1005100020526F626F20523220534F555243455F35
:10052000434F44455F55524C3A68747470733A2F88
:100530002F6769746875622E636F6D2F526F626FDB
:1005400033442F4D61726C696E2050524F544F43AB
:100550004F4C5F56455253494F4E3A312E30204D45
:10056000414348494E455F545950453A20526F62C5
:100570006F2052322045585452554445525F434FE4
:10058000554E543A3220555549443A6365646532B4
:100590006132662D343161322D343734382D396271
:1005A00031322D6335356336326633363766660A47
:1005B000002F2F20007A5F6D61783A20007A5F6DFE
:1005C000696E3A2000795F6D61783A2000785F6D3E
:1005D000696E3A20005265706F7274696E672065AB
:1005E0006E6473746F70207374617475730A005352
:1005F000657474696E672054726176656C2041631E
:1006000063656C65726174696F6E3A20005365743E
:1006100074696E672052657472616374204163630C
:10062000656C65726174696F6E3A2000536574740D
:10063000696E67205072696E7420416363656C65F2
:10064000726174696F6E3A200053657474696E67E5
:10065000205072696E7420616E64205472617665F8
:100660006C20416363656C65726174696F6E3A20DA
:100670000020643A0020693A0020703A0043757205
:1006800072656E743A200043290A0061626C6564E9
:1006900020286D696E2074656D702000436F6C6456
:1006A0002065787472756465732061726520004BF3
:1006B00064200023646566696E65202044454641D8
:1006C000554C545F004B69200023646566696E6574
:1006D000202044454641554C545F004B7020002378
:1006E000646566696E65202044454641554C545FFB
:1006F00000504944204175746F74756E65206669B9
:100700006E69736865642120507574207468652073
:100710006C617374204B702C204B6920616E6420D7
:100720004B6420636F6E7374616E74732066726FB6
:100730006D2062656C6F7720696E746F20436F6EF9
:1007400066696775726174696F6E2E680A00504938
:1007500044204175746F74756E65206661696C65BF
:1007600064212074696D656F75740A0050494420D6
:100770004175746F74756E65206661696C6564217E
:100780002054656D706572617475726520746F6F49
:1007900020686967680A00204B643A2000204B6992
:1007A0003A2000204B703A20000A20436C6173739A
:1007B000696320504944200A002054753A200020E3
:1007C0004B753A2000206D61783A2000206D696EEB
:1007D0003A200020643A200020626961733A2000C8
:1007E000426564204C6576656C696E6720004661E1
:1007F000696C656420746F20656E61626C6520426F
:100800006564204C6576656C696E670A004D65739A
:100810006820706F696E742063616E6E6F74206201
:1008200065207265736F6C7665640A004D343231F1
:1008300020696E636F727265637420706172616D9E
:10084000657465722075736167650A003A20007AE5
:100850005F6D696E3A20202D3230207A5F6D6178AD
:100860003A20203230005A204F66667365742000AB
:100870003C3C3C2067636F64655F540A00203A206B
:1008800041465445520A00202063757272656E74A9
:100890005F706F736974696F6E3D00203A20424546
:1008A000464F52450A00202063757272656E745F70
:1008B000706F736974696F6E3D003E3E3E206763E2
:1008C0006F64655F542800556E6B6E6F776E2063A2
:1008D0006F6D6D616E643A2022004B494C4C45446B
:1008E0002E2000202D20496E76616C696420657889
:1008F000747275646572206E756D62657220210A6E
:10090000002020506C616E6E65724275666665727D
:1009100042797465733A20002046726565204D6502
:100920006D6F72793A2000436F6D70696C65643A3F
:100930002041756720313920323031380A00207C5F
:1009400020417574686F723A20526F626F0A0031ED
:100950003420464542203230313800204C617374D7
:1009600020557064617465643A20004D61726C6951
:100970006E5F312E312E365F526F626F5665727325
:10098000696F6E5F312E322E340A004D61726C69D0
:100990006E0020536F6674776172652052657365CF
:1009A000740A00205761746368646F67205265732E
:1009B00065740A002042726F776E206F7574205242
:1009C000657365740A002045787465726E616C20E9
:1009D00052657365740A00506F77657255700A002E
:1009E00073746172740A00205A3A0020593A002048
:1009F000583A00656E6473746F7073206869743A56
:100A0000200020746F6F206C6F6E672065787472A1
:100A10007573696F6E2070726576656E7465640AB1
:100A20000020636F6C6420657874727573696F6EF3
:100A30002070726576656E7465640A004B494C4C93
:100A400045442E20002C20002C2000203A207379D1
:100A50006E635F706C616E5F706F736974696F6EE7
:100A60000A00202063757272656E745F706F73691F
:100A700074696F6E3D00656E7175657565696E6749
:100A80002022004E6F204C696E65204E756D6265A8
:100A900072207769746820636865636B73756D2C69
:100AA000204C617374204C696E653A200050726965
:100AB0006E7465722073746F707065642064756500
:100AC00020746F206572726F72732E2046697820D1
:100AD000746865206572726F7220616E6420757330
:100AE00065204D39393920746F20726573746172D5
:100AF000742E202854656D7065726174757265205E
:100B000069732072657365742E205365742069744F
:100B10002061667465722072657374617274696EA7
:100B200067290A004E6F20436865636B73756D20FB
:100B300077697468206C696E65206E756D62657288
:100B40002C204C617374204C696E653A20006368F8
:100B500065636B73756D206D69736D617463682C6B
:100B6000204C617374204C696E653A20004C696EAC
:100B700065204E756D626572206973206E6F7420FA
:100B80004C617374204C696E65204E756D626572A0
:100B90002B312C204C617374204C696E653A200017
:100BA0004D31313000776169740A0020496E7661F9
:100BB0006C69642065787472756465722000000049
:100BC000000000000000000000000000454300009D
:100BD0004543000082430A20736F66745F656E644C
:100BE00073746F705F6D6178203D20000A20736F11
:100BF00066745F656E6473746F705F6D696E203DBF
:100C000020000A20706F736974696F6E5F73686982
:100C10006674203D200020617869733A0A20686F6D
:100C20006D655F6F6666736574203D2000466F7268
:100C3000200024F4D43050C38E20C2A24017828BEF
:100C40007011127A910D816CD90AA861E108C75818
:100C50006607615143061E4B5D05C145A7041A4155
:100C60001104093D9803713931034036DB026533C5
:100C70009102D4305402802E1D02632CEE01752A9D
:100C8000C501B028A001102781018F2564012B2404
:100C90004B01E0223401AC211F018D200D01801F8A
:100CA000FC00841EED00971DDF00B81CD200E61B7F
:100CB000C600201BBC00641AB200B219A8000A19B1
:100CC000A0006A189900D117910040178B00B51643
:100CD000840031167E00B31579003A157300C714ED
:100CE0006F0058146A00EE13660088136300251322
:100CF0005E00C7125B006C12570015125400C11140
:100D0000510070114F0021114B00D61049008D1079
:100D100047004610440002104200C00F4000800F00
:100D20003E00420F3C00060F3B00CB0E3800930EF6
:100D300037005C0E3500270E3400F30D3200C10D74
:100D40003100900D3000600D2E00320D2D00050D8C
:100D50002C00D90C2B00AE0C2900850C29005C0C52
:100D60002700350C27000E0C2600E80B2400C40BCE
:100D70002400A00B23007D0B23005A0B2100390B0C
:100D80002100180B2000F80A1F00D90A1E00BB0A18
:100D90001E009D0A1D00800A1D00630A1C00470AF0
:100DA0001B002C0A1B00110A1A00F7091A00DD09A2
:100DB0001900C4091900AB091900920917007B0931
:100DC0001800630917004C0916003609160020099F
:100DD00016000A091500F5081500E0081400CC08F3
:100DE0001400B8081400A4081400900813007D082B
:100DF00012006B081300580812004608120034084D
:100E00001100230811001208110001081100F00759
:100E10001000E0071000D0071000C0071000B00756
:100E20000F00A107100091070E0083070F00740741
:100E30000F0065070E0057070E0049070E003B071D
:100E40000D002E070E0020070D0013070D000607EA
:100E50000D00F9060C00ED060D00E0060C00D406AE
:100E60000C00C8060C00BC060C00B0060C00A40662
:100E70000B0099060C008D060B0082060B0077060E
:100E80000B006C060B0061060A0057060B004C06AF
:100E90000A0042060A0038060A002E060A00240646
:100EA0000A001A060A001006090007060A00FD05D6
:100EB0000900F4050900EB050900E2050900D90560
:100EC0000900D0050900C7050900BE050900B505E0
:100ED0000800AD050800A50509009C05080094055B
:100EE00008008C050800840508007C0508007405CE
:100EF00008006C050700650508005D05070056053C
:100F000008004E05070047050700400508003805A2
:100F10000700310507002A050700230507001C0507
:100F20000600160507000F05070008050600020564
:100F30000700FB040600F5040700EE040600E804C1
:100F40000600E2040700DB040600D5040600CF0417
:100F50000600C9040600C3040600BD040600B70469
:100F60000600B1040500AC040600A6040600A004B7
:100F700005009B04060095040500900406008A0401
:100F8000050085040500800406007A040500750448
:100F90000500700405006B0405006604050061048B
:100FA00005005C04050057040500520405004D04CB
:100FB000050048040500430405003E0404003A040B
:100FC000050035040500300404002C040500270446
:100FD0000400230405001E0404001A04040016047F
:100FE0000500110404000D040400090405000404B4
:100FF000040000040400FC030400F8030400F403EC
:101000000400F0030400EC030400E8030400E4031C
:101010000400E0030400DC030400D8030400D4034C
:101020000400D0030400CC030400C8030300C5037C
:10103000030024F404D9201BC40C5C0E9804C409DA
:101040005F0265077101F405F900FB04B300480471
:101050008700C10369005803550003034500BE0221
:101060003A008402310053022A00290225000402BA
:101070002000E4011C00C8011900AF01170098010D
:10108000140084011300710110006101100051016E
:101090000E0043010D0036010B002B010B00200157
:1010A0000B00150109000C01090003010800FB00F9
:1010B0000800F3000800EB000700E4000600DE0073
:1010C0000600D8000600D2000600CC000500C700CC
:1010D0000500C2000500BD000400B9000400B50011
:1010E0000400B1000400AD000400A9000400A50044
:1010F0000300A20003009F0004009B00030098006F
:1011000003009500020093000300900003008D008F
:1011100002008B00030088000200860002008400A9
:101120000300810002007F0002007D0002007B00BE
:1011300002007900020077000100760002007400CE
:10114000020072000100710002006F0002006D00D9
:1011500001006C0002006A000100690002006700E3
:1011600001006600010065000100640002006200E9
:10117000010061000100600001005F0002005D00ED
:1011800001005C0001005B0001005A0001005900F1
:1011900001005800010057000100560001005500F1
:1011A00001005400010053000000530001005200F0
:1011B000010051000100500001004F0001004E00ED
:1011C00000004E0001004D0001004C0001004B00EA
:1011D00000004B0001004A000100490001004800E6
:1011E00000004800010047000100460000004600E2
:1011F00001004500000045000100440001004300DB
:1012000000004300010042000000420001004100D4
:10121000000041000100400001003F0000003F00CD
:1012200001003E0000003E0001003D0000003D00C6
:1012300001003C0000003C0000003C0001003B00BD
:1012400000003B0001003A0000003A0001003900B4
:1012500000003900010038000000380000003800AC
:1012600001003700000037000100360000003600A2
:101270000000360001003500000035000000350098
:10128000010034000000340000003400010033008D
:101290000000330000003300010032000000320083
:1012A0000000320001003100000031000000310078
:1012B00001003000000030000000300001002F006D
:1012C00000002F0000002F0000002F0001002E0062
:1012D00000002E0000002E0001002D0000002D0057
:1012E00000002D0000002D0001002C0000002C004B
:1012F00000002C0000002C0001002B0000002B003F
:1013000000002B0000002B0001002A0000002A0032
:1013100000002A0000002A00010029000000290026
:101320000000290000002900000029000100280019
:10133000000028000000280000002800000028000D
:101340000100270000002700000027000000270000
:1013500000002700010026000000260000002600F3
:1013600000002600000026000100250000002500E6
:1013700000002500000025000000250000002500D9
:1013800001002400000024000000240000002400CC
:1013900000002400010023000000230000002300BF
:1013A00000002300000023000000230000002300B1
:1013B00001002200000022000000220000002200A4
:1013C0000000220000002200010021000000210096
:1013D0000000210000002100000021000000210089
:1013E000000021000100200000002000000020007B
:1013F000000020000000200000002000000020006D
:101400000000200001001F0000001F0000001F005E
:1014100000001F0000001F0000001F0000001F0050
:1014200001001E0000001E0000001E0000001E0043
:1014300000002028002920453A0020280029205AB1
:101440003A002028002920593A0020280020583A44
:1014500000537465707065722063757272656E7486
:101460002076616C75657320696E20252028416D9A
:101470007073293A0A000B0BFFFFFF000002020203
:101480006265640A002C2073797374656D2073742F
:101490006F7070656421204865617465725F4944AE
:1014A0003A2000290A002062797465733B20637238
:1014B00063200053657474696E67732053746F7290
:1014C0006564202800202863616C63756C61746515
:1014D0006429210A0020213D2000454550524F4DEE
:1014E00020435243206D69736D61746368202D2021
:1014F0002873746F726564292000290A00206279BC
:101500007465733B2063726320002073746F72658F
:10151000642073657474696E677320726574726990
:1015200065766564202800204D61726C696E3D56B9
:101530003431290A0028454550524F4D3D0045455C
:1015400050524F4D2076657273696F6E206D6973CE
:101550006D61746368200048617264636F646564E0
:101560002044656661756C742053657474696E6798
:1015700073204C6F616465640A00B80B0000B80BFF
:10158000000064000000E8030000E8030000000021
:10159000964300009643000070410000C8410000DF
:1015A000C8420000A0420000A04200004844008061
:1015B000114300C0B94320573A00205A3A0020593D
:1015C0003A0020436F756E7420583A0020453A0067
:1015D000205A3A0020593A00583A00205A0020591F
:1015E00000580020204D61783A2000205A002059F0
:1015F00000580020204D696E3A20004F6E20004FA9
:10160000666600536F667420656E6473746F7073E2
:101610003A2000486F74656E64206F666673657467
:10162000733A0020643A0020693A0020703A00546E
:101630006F6F206661722066726F6D2072656665DD
:1016400072656E636520706F696E740A0043617322
:1016500065206C696768743A200041424C204164FF
:101660006A7573746D656E74205A002028656E610A
:10167000626C6564290A00202864697361626C6584
:1016800064290A0042494C494E4541520041757453
:101690006F20426564204C6576656C696E673A2000
:1016A00000204E6F7A7A6C65290A0020262041625C
:1016B0006F76650020262053616D65205A20617386
:1016C0000020262042656C6F77002D4261636B001D
:1016D0002028526967687400205A3A0020593A005D
:1016E00050726F6265204F666673657420583A00C9
:1016F0004649585F4D4F554E5445445F50524F42F6
:10170000450A0050726F62653A2000436172746549
:101710007369616E0A004D616368696E6520547972
:1017200070653A20003C3C3C2067636F64655F470E
:1017300032380A00203A203E20686F6D65590A0051
:10174000202063757272656E745F706F736974695F
:101750006F6E3D00203A203E20686F6D65580A008C
:10176000202063757272656E745F706F736974693F
:101770006F6E3D00203A203E20484F4D454158496C
:1017800053285A290A00202063757272656E745FAF
:10179000706F736974696F6E3D003E20656E64738F
:1017A000746F70732E656E61626C652874727565F6
:1017B000290A003E3E3E2067636F64655F4732380A
:1017C0000A0020706F736974696F6E206F757420E2
:1017D0006F662072616E67652E0A003F50726F62FD
:1017E0006520003C3C3C2067636F64655F4732398D
:1017F0000A0020636F72726563746564205A3A0050
:1018000047323920756E636F727265637465642048
:101810005A3A00203A203E2070726F62696E67204B
:10182000636F6D706C6574650A0020206375727259
:10183000656E745F706F736974696F6E3D00527589
:101840006E6E696E6720696E204452592D52554E56
:10185000206D6F64650A00473239204175746F202E
:10186000426564204C6576656C696E670A002842A3
:101870002961636B00284629726F6E740028522913
:101880006967687400284C29656674003F285629EA
:101890006572626F7365206C6576656C2069732074
:1018A000696D706C61757369626C652028302D34C8
:1018B000292E0A00426164205A2076616C75650AFF
:1018C000004E6F2062696C696E6561722067726993
:1018D000640A00203A203E3E3E2067636F64655FE5
:1018E0004732390A00202063757272656E745F702A
:1018F0006F736974696F6E3D0050726F6265204F3F
:101900006666736574206973205A3A2000537461C7
:101910006E6461726420446576696174696F6E3AC1
:1019200020002052616E67653A2000204D61783AB0
:101930002000204D696E3A20004D65616E3A20000E
:1019400046696E6973686564210A002072616E677A
:10195000653A2000206D61783A2000206D696E3A6A
:101960002000207369676D613A2000206D65616E0B
:101970003A20003A207A3A2000206F662000205A50
:1019800000205900205800476F696E6720746F3A35
:1019900000436C6F636B776973650A00436F756E04
:1019A0007465722D0020446972656374696F6E3AC4
:1019B0002000202020616E676C653A20005374611E
:1019C0007274696E67207261646975733A200050A1
:1019D0006F736974696F6E696E67207468652070D3
:1019E000726F62652E2E2E0A003F4E756D62657213
:1019F000206F66206C65677320696E206D6F766559
:101A00006D656E74206E6F7420706C6175736962A1
:101A10006C652028302D3135292E0A0059005800D8
:101A20003F53616D706C652073697A65206E6F74C9
:101A300020706C61757369626C652028342D3530B7
:101A4000292E0A004D3438205A2D50726F626520BD
:101A50005265706561746162696C6974792054655E
:101A600073740A003F2856296572626F7365206C93
:101A70006576656C20697320696D706C617573693A
:101A8000626C652028302D34292E0A00202F00207A
:101A900040002042403A0020403A0070012C019062
:101AA000012701B0012201C0011D01F00118011040
:101AB00002130130020E016002090190020401C00C
:101AC00002FF000003FA004003F5008003F000D09D
:101AD00003EB002004E6007004E100E004DC0040B9
:101AE00005D700C005D2004006CD00D006C8008052
:101AF00007C3003008BE00F008B900C009B400B048
:101B00000AAF00B00BAA00D00CA500000EA0005038
:101B10000F9B00C01096005012910000148C00C062
:101B2000158700B0178200B0197D00D01B78000027
:101B30001E730040206E0090226900F02464004073
:101B4000275F0090295A00E02B5500102E500020EE
:101B5000304B0010324600E033410090353C00101D
:101B600037370070383200A0392D00B03A2800A075
:101B70003B2300603C1E00103D1900903D140010F6
:101B80003E0F00703E0A00C03E0500003F000040CE
:101B90003FFBFF803FF6FFC03FF1FF48656174697E
:101BA0006E67206661696C65640048656174696E82
:101BB00067206661696C65640048656174696E6779
:101BC000206661696C65640048656174696E6720B0
:101BD0006661696C6564003002B400300D8C009061
:101BE0000E87005010820020127D0080147800A023
:101BF00016730060196E00E01B6900001F6400B0DE
:101C0000215F0090245A0050275500302A5000E0F0
:101C10002C4B00602F46009031410060333C009017
:101C2000343700B036320030382D00E0392800203B
:101C30003B2300203C1E00103D1900B03D14003035
:101C40003E0F00903E0A00203F0000F03FD8FF45C5
:101C500072723A204D494E54454D50204245440041
:101C60004572723A204D494E54454D50004D494EF3
:101C700054454D502074726967676572656400450C
:101C800072723A204D415854454D5020424544000F
:101C90004572723A204D415854454D50004D4158BF
:101CA00054454D50207472696767657265640062BF
:101CB0007573793A2070617573656420666F722060
:101CC000696E7075740A00627573793A2070617577
:101CD00073656420666F7220757365720A006275A1
:101CE00073793A2070726F63657373696E670A0067
:101CF0004B494C4C45442E20004B494C4C206361D1
:101D000075736564206279204B494C4C2062757470
:101D1000746F6E2F70696E0A004B494C4C45442E0F
:101D200020004B494C4C20636175736564206279D7
:101D300020746F6F206D75636820696E61637469CC
:101D400076652074696D65202D2063757272656EED
:101D50007420636F6D6D616E643A20005072696E1D
:101D60007465722068616C7465642E206B696C6C9C
:101D700028292063616C6C6564210A000000000062
:101D800000004543000082433C3C3C207365745F87
:101D9000617869735F69735F61745F686F6D6528EF
:101DA00000203A200A00202063757272656E745F0D
:101DB000706F736974696F6E3D005D203D20003E59
:101DC00020686F6D655F6F66667365745B003E3E8D
:101DD0003E207365745F617869735F69735F6174D6
:101DE0005F686F6D65280000005C4200005C420087
:101DF000007041000000005761726E696E673A2002
:101E0000486F6D696E672042756D70204469766910
:101E1000736F72203C20310A000202030000A040D0
:101E20000000A04000000040000045430000454382
:101E3000000082433C3C3C20686F6D6561786973AB
:101E40002800203A203E20414654455220736574B4
:101E50005F617869735F69735F61745F686F6D65F7
:101E60000A00202063757272656E745F706F73690B
:101E700074696F6E3D00486F6D65203220536C6F42
:101E8000773A0A004D6F766520417761793A0A000A
:101E9000486F6D65203120466173743A0A00FF0176
:101EA000013E3E3E20686F6D656178697328004190
:101EB00063746976652045787472756465723A203A
:101EC00000203A204D6F7665206261636B0A002026
:101ED0002064657374696E6174696F6E3D00203AA9
:101EE0002053796E6320416674657220546F6F6C65
:101EF0006368616E67650A00202063757272656EA3
:101F0000745F706F736974696F6E3D00207D0A00A5
:101F10002C20004F666673657420546F6F6C2058D8
:101F200059206279207B20004E6F206D6F766520EE
:101F30006F6E20746F6F6C6368616E67650A004531
:101F400072726F722077726974696E6720746F2085
:101F5000454550524F4D210A0020204D3835312043
:101F60005A005A2D50726F6265204F666673657411
:101F700020286D6D293A0A002044002049002020C5
:101F80004D33303420500020440020490020204DA3
:101F900033303120500020440020490020500020E0
:101FA000204D33303120450050494420736574740E
:101FB000696E67733A0A0020204D34323020530096
:101FC0004175746F20426564204C6576656C696E5E
:101FD000673A0A0020590020580020204D3231383D
:101FE000205400486F74656E64206F666673657474
:101FF000733A0A00205A0020590020204D32303612
:10200000205800486F6D65206F66667365743A0AE4
:1020100000204500205A002059002058002042008E
:1020200020540020204D3230352053004164766129
:102030006E6365643A20533C6D696E5F66656564E6
:10204000726174653E20543C6D696E5F7472617696
:10205000656C5F66656564726174653E20423C6DC7
:10206000696E5F7365676D656E745F74696D655FDA
:102070006D733E20583C6D61785F78795F6A657258
:102080006B3E205A3C6D61785F7A5F6A65726B3E89
:1020900020453C6D61785F655F6A65726B3E0A0042
:1020A00020540020520020204D3230342050004176
:1020B0006363656C65726174696F6E2028756E6903
:1020C00074732F7332293A20503C7072696E745FBA
:1020D000616363656C3E20523C7265747261637427
:1020E0005F616363656C3E20543C74726176656C1D
:1020F0005F616363656C3E0A0020450020204D321D
:102100003031205400205A0020590020204D323018
:10211000312058004D6178696D756D2041636365AC
:102120006C65726174696F6E2028756E6974732FA7
:102130007332293A0A0020450020204D32303320E6
:102140005400205A0020590020204D3230332058AE
:10215000004D6178696D756D2066656564726174A6
:1021600065732028756E6974732F73293A0A0020ED
:10217000450020204D3932205400205A00205900BB
:1021800020204D39322058005374657073207065DB
:102190007220756E69743A0A0020204D323030206A
:1021A00044300A0020204D32303020543120440089
:1021B00020204D3230302044002044697361626C2D
:1021C00065640A0046696C616D656E7420736574A0
:1021D00074696E67733A0020204732312020202036
:1021E0003B20556E69747320696E206D6D0A003C4A
:1021F0003C3C20646F5F626C6F636B696E675F6D00
:102200006F76655F746F0A003E3E3E20646F5F62CA
:102210006C6F636B696E675F6D6F76655F746F007F
:10222000203A2073657475705F666F725F656E64C7
:1022300073746F705F6F725F70726F62655F6D6FE6
:1022400076650A00202063757272656E745F706F28
:10225000736974696F6E3D00203A20636C65616E2E
:102260005F75705F61667465725F656E6473746FCD
:10227000705F6F725F70726F62655F6D6F76650A17
:1022800000202063757272656E745F706F7369747D
:10229000696F6E3D00646F5F70726F62655F72613F
:1022A00069736528006465706C6F793A2000203A84
:1022B000207365745F70726F62655F6465706C6FC8
:1022C0007965640A00202063757272656E745F70B0
:1022D0006F736974696F6E3D00203A203C3C3C206E
:1022E000646F5F70726F62655F6D6F76650A002064
:1022F0002063757272656E745F706F736974696F55
:102300006E3D00203A203E3E3E20646F5F70726F4B
:1023100062655F6D6F76650A002020637572726575
:102320006E745F706F736974696F6E3D0072657370
:1023300065745F6265645F6C6576656C0A00202871
:10234000646F6E65290A004578747261706F6C6104
:102350007465205B0042696C696E656172204C6532
:1023600076656C696E6720477269643A0A003C3C86
:102370003C20646F5F686F6D696E675F6D6F766537
:1023800028002C20002C20003E3E3E20646F5F6819
:102390006F6D696E675F6D6F7665280020446973A5
:1023A00063726570616E63793A00326E64205072B8
:1023B0006F6265205A3A00203A203C3C3C207275FE
:1023C0006E5F7A5F70726F62650A002020637572BB
:1023D00072656E745F706F736974696F6E3D003102
:1023E00073742050726F6265205A3A00203A203E82
:1023F0003E3E2072756E5F7A5F70726F62650A0092
:10240000202063757272656E745F706F7369746992
:102410006F6E3D0050726F62696E67206661696C15
:1024200065640A004572726F723A003C3C3C207051
:10243000726F62655F70740A00205A3A200020595A
:102440003A200042656420583A2000203A200A00D1
:10245000202063757272656E745F706F7369746942
:102460006F6E3D0073746F77290A002C20002C20BA
:10247000003E3E3E2070726F62655F7074280020DF
:1024800066697273740A005A0059005800486F6DEB
:102490006520006563686F3A00544845524D414CD1
:1024A0002052554E4157415900546865726D616C18
:1024B0002052756E6177617900526573656E643A7A
:1024C00020006F6B0020746F6F206C6F6E6720654B
:1024D0007874727573696F6E2070726576656E744C
:1024E00065640A0020636F6C64206578747275738C
:1024F000696F6E2070726576656E7465640A00009F
:10250000002100240027002A002D003000330001A4
:10251000010000040107010A010000220025002833
:10252000002B002E003100340002010000050108DC
:10253000010B01000020002300260029002C002FA1
:102540000032000001000003010601090105050534
:1025500005070508080808020202020A0A0808041A
:102560000404040101010101010101030303030348
:10257000030303040707070C0C0C0C0C0C0C0C02D7
:1025800002020206060606060606060B0B0B0B0BDE
:102590000B0B0B01021020200808102040102040D7
:1025A0008002010201080402010102040810204017
:1025B0008080402010080402018004020180402035
:1025C000100804020108040201010204081020405E
:1025D00080010204081020408000000A0B02090C50
:1025E0000D0E0807030401000000000000000000B9
:1025F00000000000000000000000000000000000DB
:102600000000000000121110000000000000000097
:1026100000000000000000000000000000000000BA
:10262000A4B111241FBECFEFD1E2DEBFCDBF00E0C9
:102630000CBF13E0A0E0B2E0ECEAFCE701E00BBF66
:1026400002C007900D92A236B107D9F72DE1A2E69C
:10265000B3E001C01D92A537B207E1F713E1C1E174
:10266000D3E100E006C021970109802FFE010E94FE
:1026700014BBC031D10780E00807A9F70E941AAA4D
:102680000C9454BE0C9400002F923F924F925F9294
:102690006F927F928F929F92AF92BF92CF92DF9272
:1026A000EF92FF920F931F93CF93DF93CDB7DEB7D7
:1026B000C458D1090FB6F894DEBF0FBECDBF00914C
:1026C0007A0520E6029F8001112409571C4F809152
:1026D000BC1B80FF1AC0E3E9F4E284917F013FEF65
:1026E000E31AF30A811102C0780104C00E94154365
:1026F000F701F3CFD7018D917D01882319F00E9456
:102700001543F8CF8AE00E94154381E090E0909352
:102710002B1B80932A1B10920805109207058FE34C
:1027200080930B0510920A051092090510927C0304
:1027300010927D0310927E0310927F03F801808136
:102740000F5F1F4F8032D1F38E34B1F4818190ED51
:10275000980F9A3020F08D3211F08B3269F4329656
:10276000DF0131962C9120532A30D0F3CD01FC01AA
:10277000019620812032D9F3F093321BE093311B74
:102780007F01BFEFEB1AFB0A10816AE270E0C7011C
:102790000E9434BE009731F0FC0131978081803275
:1027A000E1F311821D3429F0143519F0173409F0C2
:1027B000CFC0F70180812FEFE21AF20A8032C9F30D
:1027C00080538A3008F0C4C010930B05209109058E
:1027D00030910A054AE03196429FC001439F900D17
:1027E0001124DF0111972C91022E000C330B205382
:1027F0003109280F391F808180538A3060F330936C
:102800000A0520930905DF0131968C918032D9F3B6
:102810001D3449F00091311B409107055091080586
:1028200061E070E058C02E31310591F03CF4273161
:10283000310571F02C31310569F70AC025373105B2
:102840004CF32737310524F0203A43E0340711F7E1
:10285000B0930805A09307057BC0813209F445C0F9
:102860009FEBB92EB80E89E1A82EAB1408F45EC018
:10287000DF01FD01908111969032D9F3A0EDA90FEF
:10288000AA3008F047C04F01EB2CF12C6701A3E000
:10289000D594C794AA95E1F7C60184589C4F6C0162
:1028A0008B2D8770DB0102C0AA0FBB1F8A95E2F750
:1028B000CD01D6019C91892B8C9381149104A1F1B7
:1028C000801AC7018E599C4FDC018C928081815403
:1028D0008A3188F5DF01FD0131968C918111BDCFE0
:1028E000509308054093070533C01D3409F0B8CF55
:1028F0002032310509F0B4CFF0930805E0930705C5
:1029000063E270E0CF010E9434BE009709F1DC0160
:102910001C921EC0A3EDA90FA23008F4B4CF9B32C5
:1029200011F00C94262DAFCF812CCBCF4115510542
:1029300069F6AD01CBCFDF0131969C9190539A306F
:10294000D0F3CD01FC010196A081A032D9F3C2CF12
:1029500080910B058D3411F40C94DD1D843511F438
:102960000C94AA2C873411F00C94052D8091090544
:1029700090910A058D31910509F4D6C6D4F48430BE
:10298000910544F4823091050CF043C097FF35C0A7
:102990000C941F2D8530910509F440C20CF401C23E
:1029A0004C9711F00C941F2D80E00E949F6E0C94A8
:1029B0001F2D8A32910511F40C94F21C6CF48332B1
:1029C000910509F43DC78432910509F43DC74E973E
:1029D00011F00C941F2DACC68B35910509F43DC741
:1029E0008C35910509F43EC78A35910511F00C9498
:1029F0001F2D109286030C941F2D80912602882390
:102A000011F40C941F2D0E944D8D0E9444A20C9431
:102A10001F2D20912602222311F40C941F2D11E06A
:102A2000029709F010E00E944D8D19821A821B82D4
:102A30001C821D821E821F82188682E50E94FD4232
:102A4000882309F42CC10E949B426B017C012091D8
:102A5000AC1B3091AD1B4091AE1B5091AF1B2AA314
:102A60003BA34CA35DA38090B01B9090B11BA090A2
:102A7000B21BB090B31B8091471B9091481BA09153
:102A8000491BB0914A1B8EA39FA3A8A7B9A7209169
:102A90004B1B30914C1B40914D1B50914E1B2AA754
:102AA0003BA74CA75DA720E030E0A901C701B60114
:102AB0000E9495B6882309F408C12AA13BA14CA124
:102AC0005DA16EA17FA188A599A50E9495B68111EF
:102AD0000BC0A50194016AA57BA58CA59DA50E94AC
:102AE00095B6882309F4F1C020E030E0A901C701C0
:102AF000B6010E9495B6881F8827881F181309C041
:102B000080E090E0A0E8BFE38AAF9BAFACAFBDAF81
:102B100008C020E030E040E85FEB2AAF3BAF4CAFAD
:102B20005DAF2AA13BA14CA15DA16EA17FA188A5AB
:102B300099A50E941CBB6AAB7BAB8CAB9DABA5017E
:102B400094016AA57BA58CA59DA50E941CBB6EABBC
:102B50007FAB88AF99AF2AA93BA94CA95DA9CA014F
:102B6000B9010E94FBB62B013C012EA93FA948AD3B
:102B700059ADCA01B9010E94FBB69B01AC01C3016A
:102B8000B2010E941DBB0E94CBBD6EA77FA788AB80
:102B900099AB20E030E040E05FE30E94FBB62B0100
:102BA0003C01A7019601C701B6010E94FBB66B016B
:102BB0007C01A3019201C301B2010E94FBB69B01FB
:102BC000AC01C701B6010E941CBB0E94CBBD9B019A
:102BD000AC016AAD7BAD8CAD9DAD0E94FBB66B01C7
:102BE0007C012EA13FA148A559A56AA17BA18CA17A
:102BF0009DA10E941DBB20E030E040E05FE30E9409
:102C0000FBB62B013C016EA97FA988AD99AD905808
:102C10002EA53FA548A959A90E9417BC9B01AC014C
:102C2000C701B6010E94FBB69B01AC01C301B20112
:102C30000E941DBB2AA13BA14CA15DA10E941CBB0F
:102C400069837A838B839C832AA53BA54CA55DA5CC
:102C5000C501B4010E941DBB20E030E040E05FE30D
:102C60000E94FBB62B013C012EA53FA548A959A9FE
:102C70006AA97BA98CA99DA90E9417BC9B01AC01E4
:102C8000C701B6010E94FBB69B01AC01C301B201B2
:102C90000E941DBBA50194010E941CBB12C089E4C7
:102CA0000E94FD42882331F00E949B4269837A830F
:102CB0008B839C838AE40E94FD42882331F00E942A
:102CC0009B426D837E838F83988720E030E0A9014B
:102CD00069817A818B819C810E9495B681110CC09B
:102CE00020E030E0A9016D817E818F8198850E946E
:102CF00095B6882309F43BC080E50E94FD428823F5
:102D000041F00E947742082F8536E8F0E4E2F4E2D1
:102D100002C000E018C084917F013FEFE31AF30A7C
:102D2000882321F00E941543F701F5CFEEE0F3E090
:102D300084917F014FEFE41AF40A882321F00E9466
:102D40001543F701F5CF412FBE016F5F7F4F002381
:102D500031F08CEA9BE10E945F9E0150F4CF87E442
:102D60009BE10E945F9E0E940A430C941F2DE4E2A7
:102D7000F4E284918F010F5F1F4F882321F00E949E
:102D80001543F801F6CFE8EFF2E084918F010F5F71
:102D90001F4F882311F40C941F2D0E941543F80136
:102DA000F4CF80E50E94FD42882329F00E9457421B
:102DB0006B017C0103C0C12CD12C760183E50E94FC
:102DC000FD42882361F00E949B4220E030E04AE708
:102DD00054E40E94FBB60E9490BC6B017C010E94EF
:102DE000884E0E940A438091331B9091341BA0911E
:102DF000351BB091361BC80ED91EEA1EFB1E0E9461
:102E0000C4A9DC01CB018C199D09AE09BF09B7FD2E
:102E100002C00C941F2D0E941B85F1CF80912602C9
:102E2000882311F40C941F2D0E944D8D89E40E947B
:102E3000FD42882329F00E949B422B013C0103C0E4
:102E4000412C512C32018AE40E94FD42882329F052
:102E50000E949B424B015C0103C0812C912C5401C8
:102E600080E50E94FD42882329F00E949B426B016D
:102E70007C0103C0C12CD12C760181E50E94FD426A
:102E8000882339F00E949B426AA37BA38CA39DA355
:102E900004C01AA21BA21CA21DA25091C505ED964A
:102EA0005FAFED976091530270915402072E000CB2
:102EB000880B990B0E949CB6209135023091360206
:102EC00040913702509138020E94FBB62AE037ED5C
:102ED00043E25CE30E94FBB6C358DF4F688379830B
:102EE0008A839B83CD57D0408091AC1B9091AD1BC2
:102EF000A091AE1BB091AF1B8EA39FA3A8A7B9A7AB
:102F0000A3019201BC01CD010E941DBB27966CAFAD
:102F10007DAF8EAF9FAF27974090B01B5090B11BF5
:102F20006090B21B7090B31BA5019401C301B20164
:102F30000E941DBB2B966CAF7DAF8EAF9FAF2B97C2
:102F40002091471B3091481B4091491B50914A1BCF
:102F5000C701B6010E941DBB2F966CAF7DAF8EAF2F
:102F60009FAF2F9720914B1B30914C1B40914D1BD5
:102F700050914E1B6AA17BA18CA19DA10E941DBBFB
:102F800063966CAF7DAF8EAF9FAF6397AEA0BFA0CF
:102F9000C8A4D9A4A982BA82CB82DC824D825E8287
:102FA0006F8278860E94C4A99B01AC0128533F4FD1
:102FB0004F4F5F4FEB962CAF3DAF4EAF5FAFEB97F0
:102FC0003DEC832E3CEC932EA92C3DE3B32E1AA2AC
:102FD0001EA21AA61EA60E949F7F0E94C4A98B0152
:102FE0009C01EB96CCACDDACEEACFFACEB970C19D6
:102FF0001D092E093F0937FD0EC09B01AC01285366
:103000003F4F4F4F5F4FEB962CAF3DAF4EAF5FAF93
:10301000EB970E941B85A5019401BAA1AEA1FAA568
:10302000EEA56B2F7A2F8F2F9E2F0E941DBB2B0199
:103030001C0120E030E040E85FE30E947DBD1816EF
:1030400034F4412C512C90E8292E2FE3322E80911C
:10305000471B9091481BA091491BB0914A1B679652
:103060008CAF9DAFAEAFBFAF6797A090AC1BB090D9
:10307000AD1BC090AE1BD090AF1B6B96ACAEBDAE7F
:10308000CEAEDFAE6B973F922F925F924F926796D4
:10309000ACACBDACCEACDFAC67972F96ECACFDAC66
:1030A0000EAD1FAD2F9727962CAD3DAD4EAD5FAD4C
:1030B00027976B966CAD7DAD8EAD9FAD6B970E94E3
:1030C00004320F900F900F900F906AAB7EAB8AAFD7
:1030D0009EAFC0904B1BD0904C1BE0904D1BF090CE
:1030E0004E1B6F96CCAEDDAEEEAEFFAE6F9720916D
:1030F000B01B3091B11B4091B21B5091B31BA796EE
:103100002CAF3DAF4EAF5FAFA7973F922F925F922C
:103110004F926F96ACACBDACCEACDFAC6F97639604
:10312000ECACFDAC0EAD1FAD63972B962CAD3DAD59
:103130004EAD5FAD2B97A7966CAD7DAD8EAD9FADBF
:10314000A7970E9404320F900F900F900F906FAFCF
:1031500021967FAF219722968FAF229723969FAF1C
:10316000239789819A81AB81BC81E3968CAF9DAF17
:10317000AEAFBFAFE397AD80BE80CF80D884E79677
:10318000ACAEBDAECEAEDFAEE797A0961FAEA097B9
:103190007AA16EA19AA58EA5272F362F492F582FD9
:1031A000642D752D822D932D0E941CBB2FE632E1DC
:1031B00043E05BE30E9495B687FF06C0A096BFACD4
:1031C000A097B110DEC1C4C1242D352D422D532D41
:1031D000BAA1AEA1FAA5EEA56B2F7A2F8F2F9E2F45
:1031E0000E941DBB20E030E040E05FE30E94FBB6A0
:1031F0003B014C019F928F937F926F936796ACAC8B
:10320000BDACCEACDFAC67972F96ECACFDAC0EAD91
:103210001FAD2F9727962CAD3DAD4EAD5FAD2797D7
:103220006B966CAD7DAD8EAD9FAD6B970E940432F9
:103230000F900F900F900F90A8966FAFA897AA9637
:103240007FAFAA97AE968FAFAE97EC969FAFEC97F5
:103250009F928F927F926F926F96ACACBDACCEACCA
:10326000DFAC6F976396ECACFDAC0EAD1FAD639712
:103270002B962CAD3DAD4EAD5FAD2B97A7966CADAB
:103280007DAD8EAD9FADA7970E9404320F900F9039
:103290000F900F905B018C012AA93EA94AAD5EAD4B
:1032A000E3966CAD7DAD8EAD9FADE3970E941DBBE7
:1032B00020E030E040E05FE30E94FBB69B01AC0100
:1032C000A8966FADA897AA967FADAA97AE968FAD38
:1032D000AE97EC969FADEC970E941CBB6B017C01F6
:1032E000E894F7F82FAD21963FAD219722964FAD88
:1032F000229723965FAD2397E7966CAD7DAD8EAD9B
:103300009FADE7970E941DBB20E030E040E05FE307
:103310000E94FBB69B01AC01B501C8010E941CBB19
:103320009B01AC015F77C701B6010E941DBB2DEC6C
:103330003CEC4CEC5DE30E9495B618160CF03ECFC9
:10334000AFAE2196BFAE219722960FAF229723965C
:103350001FAF2397A896CFACA897CAAAAA96DFACAE
:10336000AA97DEAAAE96EFACAE97EAAEEC96FFACAB
:10337000EC97FEAE2301140121E0A0962FAFA09799
:1033800007CFA7019601C701B6010E941DBB9B0193
:10339000AC01BAA1AEA1FAA5EEA56B2F7A2F8F2FA3
:1033A0009E2F0E941DBB962E872E782E692E20E020
:1033B00030E040E85FE3D401F3016B2F7A2F8F2FC9
:1033C0009E2F0E947DBD87FFDCC06F927F928F92FF
:1033D0009F926796ACACBDACCEACDFAC67972F9636
:1033E000ECACFDAC0EAD1FAD2F9727962CAD3DADCF
:1033F0004EAD5FAD27976B966CAD7DAD8EAD9FAD3D
:103400006B970E9404320F900F900F900F90A09630
:103410006FAFA097A8967FAFA897AA968FAFAA97ED
:10342000AE969FAFAE976F927F928F929F926F965C
:10343000ACACBDACCEACDFAC6F976396ECACFDAC86
:103440000EAD1FAD63972B962CAD3DAD4EAD5FAD70
:103450002B97A7966CAD7DAD8EAD9FADA7970E94C3
:1034600004320F900F900F900F905B018C01A0968B
:103470002FADA097A8963FADA897AA964FADAA9753
:10348000AE965FADAE97E3966CAD7DAD8EAD9FAD64
:10349000E3970E941DBB20E030E040E05FE30E9424
:1034A000FBB69B01AC016AA97EA98AAD9EAD0E94C4
:1034B0001CBB6B017C01E894F7F89501A801E79625
:1034C0006CAD7DAD8EAD9FADE7970E941DBB20E03A
:1034D00030E040E05FE30E94FBB69B01AC016FADC2
:1034E00021967FAD219722968FAD229723969FAD8F
:1034F00023970E941CBB9B01AC015F77C701B601FB
:103500000E941DBB2DEC3CEC4CEC5DE30E947DBDAC
:103510001816BCF1AFAE2196BFAE219722960FAF21
:10352000229723961FAF2397A0963FADA0973AAB63
:10353000A8964FADA8974EABAA965FADAA975AAF83
:10354000AE968FADAE978EAF492C582C272C362CCB
:103550007AA16EA19AA58EA5272F362F492F582F15
:10356000642D752D822D932D0E941CBB6B017C0157
:103570002DEC3CEC4CEC5DE30E947DBD18160CF08C
:1035800000CF7AA16EA19AA58EA5272F362F492F9D
:10359000582F642D752D822D932D0E941CBB4B013D
:1035A0005C018AA99EA9AAADBEAD89839A83AB832B
:1035B000BC838FAD21969FAD21972296AFAD229708
:1035C0002396BFAD23978D839E83AF83B887242D29
:1035D000352D422D532D60E070E080E89FE30E947E
:1035E0001CBB6B017C012091B41B3091B51B409139
:1035F000B61B5091B71B0E94FBB66AA37BA38CA39A
:103600009DA320914F1B3091501B4091511B509115
:10361000521B642D752D822D932D0E94FBB69B01AC
:10362000AC016AA17BA18CA19DA10E941DBB6987F1
:103630007A878B879C872091B81B3091B91B40916A
:10364000BA1B5091BB1BC701B6010E94FBB66B01B0
:103650007C012091531B3091541B4091551B50917C
:10366000561B642D752D822D932D0E94FBB69B0158
:10367000AC01C701B6010E941DBB6D877E878F8795
:10368000988BCE0101960E94C89D89819A81AB8159
:10369000BC818E8B9F8BA88FB98F8D819E81AF81CE
:1036A000B8858A8F9B8FAC8FBD8F89859A85AB85B6
:1036B000BC858E8F9F8FA8A3B9A3AE01425E5F4FDA
:1036C000BE01665E7F4FCE0146960E9492A3ED96A4
:1036D000CFACED97C358DF4FE880F9800A811B819A
:1036E000CD57D0409E01235F3F4FAE01425E5F4FFA
:1036F000BE01665E7F4FCE0146960E949E3420E05A
:1037000030E040E85FE3642D752D822D932D0E94FB
:1037100095B687FF05C04AA25EA22AA63EA65BCC4C
:103720000E9423900C941F2D0E94A3680C941F2DBF
:1037300020E030E040E050E46091AC1B7091AD1BA4
:103740008091AE1B9091AF1B0E941DBB6B017C0151
:1037500088E50E94FD42882321F00E949B426B0174
:103760007C01CE8ADF8AE88EF98E20E030E040EFDF
:1037700051E46091B01B7091B11B8091B21B90918C
:10378000B31B0E941DBB6B017C0189E50E94FD42B9
:10379000882321F00E949B426B017C01C982DA825E
:1037A000EB82FC824090A41B5090A51B6090A61B4E
:1037B0007090A71B2091A01B3091A11B4091A21BD0
:1037C0005091A31B6E897F89888D998D0E941CBBA7
:1037D0004B015C012BE33FED4FEF5FE30E947DBDAA
:1037E00087FF02C00C941F2D22E430E045E453E42F
:1037F000C501B4010E9495B6181614F40C941F2D3F
:10380000A3019201C701B6010E941CBB6B017C01A0
:1038100024EF3DEF4FEE51E40E947DBD87FF02C0D3
:103820000C941F2D22E430E045E453E4C701B601B7
:103830000E9495B6181614F40C941F2D0C94302D7C
:103840000E941F770C941F2D81E00E949F6E0E94A2
:103850001F770E94A3680C941F2D81E0809386033C
:103860000C941F2D85E40E94FD42B82E811102C0E8
:103870000E94884E13EA812E12E0912E0CEAC02E8F
:103880000BE1D02E87E5E82E8BE1F82E00E010E06A
:10389000A12CD4018D914D010E94FD42882309F491
:1038A0004EC0F6012081318142815381CD57DF4FD7
:1038B0002883C358D040CC57DF4F3883C458D040FA
:1038C000CF57DF4F4883C158D040CE57DF4F588382
:1038D000C258D0400E949B42D6016D937D938D9338
:1038E0009C931397CD57DF4F2881C358D040CC57B6
:1038F000DF4F3881C458D040CF57DF4F4881C1587F
:10390000D040CE57DF4F5881C258D0400330110508
:10391000B1F00E941CBB9B01AC01F7016081718179
:10392000828193810E941DBBD7016D937D938D93FE
:103930009C931397C8010E946E43AA24A3940F5F1F
:103940001F4FB4E0CB0ED11CE4E0EE0EF11C0430AE
:10395000110509F09ECFAA2019F00E9406483EC02A
:10396000BB20E1F1E091C505E093C405C090B81B10
:10397000D090B91BE090BA1BF090BB1BED5F24E028
:10398000E29FF0011124E251FA4F208131814281FE
:103990005381C701B6010E94FBB60E948ABD6093A5
:1039A0005F1C7093601C8093611C9093621CC70124
:1039B000B6010E9489BC2FB7F8946093F1197093F7
:1039C000F2198093F3199093F4192FBF10924F1CA2
:1039D0001092501C1092511C1092521C0E94ED63C8
:1039E0000C941F2D80912602882311F40C941F2D16
:1039F00089E40E94FD42182F882321F00E9467422B
:103A0000F62E01C0F12C8AE40E94FD42082F882383
:103A100031F00E946742E62E111104C00BC0E12C68
:103A20001123C1F032E03F1510F00C94DA30E6E3D8
:103A3000F3E004C042E04E15D0F30CC084918F0136
:103A40000F5F1F4F882311F40C941F2D0E94154304
:103A5000F801F4CF0E941990112341F12091831AAB
:103A60003091841A5F2D5203B001539F700D1124C1
:103A700080917F1A9091801A680F791F072E000C91
:103A8000880B990B0E949CB62091A01B3091A11B22
:103A90004091A21B5091A31B0E941DBB6093471B2A
:103AA0007093481B8093491B90934A1B002341F15C
:103AB0002091851A3091861A4E2D4203B001439F02
:103AC000700D11242091811A3091821A620F731F98
:103AD000072E000C880B990B0E949CB62091A41B0A
:103AE0003091A51B4091A61B5091A71B0E941DBBA6
:103AF00060934B1B70934C1B80934D1B90934E1BFC
:103B000080E50E94CE428823A1F10E948B42882347
:103B100081F11123B1F020E030E040E050E4609109
:103B2000471B7091481B8091491B90914A1B0E9432
:103B30001CBB6093471B7093481B8093491B909359
:103B40004A1B0023B1F020E030E040EF51E46091E7
:103B50004B1B70914C1B80914D1B90914E1B0E94F2
:103B60001CBB60934B1B70934C1B80934D1B90931D
:103B70004E1B86E40E94FD428823D9F00E949B429E
:103B80006B017C0120E030E0A9010E947DBD181688
:103B900084F420E030E040E752E4C701B6010E941F
:103BA00017BC60933502709336028093370290936E
:103BB00038020E9444A20C941F2D80910905909117
:103BC0000A05883C910509F45EC70CF0BBC0883635
:103BD000910509F43DC30CF063C08B34910509F4E1
:103BE00015C364F58231910509F40BC5D4F497FF30
:103BF00002C00C941F2D823091050CF46CC14197CA
:103C000011F00C941F2D5F988A989FB7F8948091BB
:103C100008018E7F809308019FBF129847980C94EB
:103C20001F2D8A32910509F4ADC28033910509F444
:103C3000E9C24F9711F00C941F2DD2C18235910526
:103C400009F4D6C4ECF48D34910509F4FDC20CF4EA
:103C5000E1C28135910511F00C941F2D0E94897EDF
:103C60000E94884E0E94D9841092BB051092BA051A
:103C700068EE73E080E090E00E9428810C941F2D94
:103C80008435910509F4BDC40CF4B6C4853591059D
:103C900009F4EEC48C35910509F405C50C941F2D6B
:103CA0008237910509F497C5ECF48D36910509F436
:103CB00052C464F48A36910509F469C40CF403C44F
:103CC0008B36910509F482C40C941F2D8F36910513
:103CD00009F408C30CF4F3C28137910509F4A9C3B0
:103CE0000C941F2D8837910509F4C6C674F48637E5
:103CF000910509F406C60CF03BC68337910511F017
:103D00000C941F2DEDEDF4E06CC58C38910509F491
:103D1000BCC35CF48937910511F00C941F2D1092EF
:103D200017051092871A0C941F2D8B39910509F4F1
:103D3000E7C38E3B910511F00C941F2D0E940B667A
:103D40000C941F2D833651E0950711F40C94972C99
:103D50000CF05CC08C3D910511F40C94DE262CF522
:103D60008D3C910511F40C946D2664F48B3C910507
:103D700009F420C70CF047C7893C910509F4E9C64E
:103D80000C941F2D833D910511F40C94D8268A3D87
:103D9000910511F40C94DB268E3C910511F00C94E6
:103DA0001F2D0E94B2650C941F2D8C32B1E09B0731
:103DB00011F40C94EE26A4F4823E910511F40C94B7
:103DC000EB268E30F1E09F0711F40C9471278D3DA6
:103DD000910511F00C941F2D0E94CF620C941F2DA1
:103DE0008E3221E0920711F40C94A42714F40C9461
:103DF000F1268F3241E0940711F40C94F8278033B8
:103E0000914011F40C94F4260C941F2D853FA1E0F1
:103E10009A0711F40C943E2C7CF5843AE1E09E075D
:103E200011F40C944C2BACF4813921E0920711F47D
:103E30000C94442B823931E0930711F40C94482BF5
:103E40008039914011F00C941F2D0E94884E0C94E3
:103E50001F2D8C3A51E0950711F40C94382C843FB7
:103E6000A1E09A0711F40C943B2C853A914011F093
:103E70000C941F2D0C94A42B8B38E3E09E0711F4B7
:103E80000C94862C94F4873F21E0920711F40C9453
:103E9000442C14F40C94412C8335934011F00C9471
:103EA0001F2DE3E9F4E20C94522C8D3853E0950772
:103EB00011F40C948C2C14F40C94892C8E38B3E0EF
:103EC0009B0711F40C948F2C873E934011F40C94B3
:103ED0009A2C0C941F2DE0900705F090080580E5C2
:103EE0000E94FD42882359F00E9457424B015C0119
:103EF00011E0672B682B692B31F410E004C010E04F
:103F0000812C912C540183E50E94FD42882399F075
:103F10000E949B4220E030E04AE754E40E94FBB656
:103F20000E9490BC4B015C0111110CC0672B682BE7
:103F3000692B41F43CC0111105C0E114F10411F0EA
:103F40000C94862D83E090E090932B1B80932A1B8A
:103F500081E0809380030E94884E0E940A4381146E
:103F60009104A104B104A9F18091331B9091341BF9
:103F7000A091351BB091361B75016401C80ED91E86
:103F8000EA1EFB1E0E94C4A9DC01CB018C199D090D
:103F9000AE09BF09B7FD04C0109280030C941F2D19
:103FA000809180038823C1F30E941B85EBCFE1142D
:103FB000F10411F00C94862D83E090E090932B1B7C
:103FC00080932A1B81E0809380030E94884E0E9488
:103FD0000A43809180038823F9F20E941B85F9CF60
:103FE0008091831C9091841C019719F40E94C4A9AC
:103FF00008C060918D1C70918E1C80918F1C9091D7
:10400000901C0091891C10918A1C20918B1C30916E
:104010008C1C601B710B820B930B28EE33E040E08D
:1040200050E00E9489BA8091851C9091861CA091D5
:10403000871CB091881CBC01CD01620F731F841FC7
:10404000951FBCE3CB2ED12CE12CF12CA7019601BE
:104050000E9489BA762E672ECA01B901A70196017E
:104060000E9489BA6B017C01CA01B90128E130E0E4
:1040700040E050E00E9489BA4B015C01C9016DE645
:1040800071E00E94ECBA8E010F5F1F4F6115710540
:1040900099F06F927F92DF92CF929F928F929F932F
:1040A0008F937F936F938DE793E09F938F931F93ED
:1040B0000F930E9465B626C0009789F06F927F9299
:1040C000DF92CF929F928F929F938F938DE693E092
:1040D0009F938F931F930F930E9465B613C0811413
:1040E0009104A104B104B1F06F927F92DF92CF925C
:1040F0009F928F9281E693E09F938F931F930F93EC
:104100000E9465B60FB6F894DEBF0FBECDBFE3E9DF
:10411000F4E223C0C114D104E104F10469F06F9208
:104120007F92DF92CF9289E593E09F938F931F93C5
:104130000F930E9465B6E6CF6F927F9285E593E07C
:104140009F938F931F930F930E9465B60F900F90CC
:104150000F900F900F900F90DACF84917F01BFEFF7
:10416000EB1AFB0A882321F00E941543F701F5CFD3
:10417000B80181E993E00E94DC318AE00E94154396
:104180000C941F2D83E50E94FD42882311F40C94AA
:104190001F2D0E947742E82E80E50E94FD42882371
:1041A00011F40C941F2D0E946742162FC62ED72E95
:1041B000D7FE02C00C941F2DEEE9F3E080E38E0FD2
:1041C0009491191729F031968E13FACF0C94A52DDE
:1041D000E4E2F4E284918F010F5F1F4F882321F006
:1041E0000E941543F801F6CFEEECF3E084918F01C5
:1041F0000F5F1F4F882311F40C941F2D0E9415434D
:10420000F801F4CF0E9480710C941F2D0E948C94B1
:104210000C941F2D8091831C9091841C019711F0A8
:104220000C941F2D82E090E09093841C8093831C5B
:104230000E94C4A960938D1C70938E1C80938F1C68
:104240009093901C0C941F2D0E9437930C941F2D5B
:1042500088E690E00E94804481110C941F2D80918B
:10426000BC1B83FF02C00C941F2D83E50E94FD42FE
:10427000882309F10E949B42F09081032F2D30E0AA
:10428000220F331F89010556154E0E9489BCF80183
:10429000718360838F2D0E94317E0E949B4220E0BB
:1042A00030E04AEA52E40E9495B6181614F00E94D3
:1042B00037930E949B420E94F8AE0C941F2D8EE40F
:1042C0000E94FD42882311F40C941F2D0E94674226
:1042D0006093281D7093291D80932A1D90932B1D98
:1042E0000C941F2D83E50E94CE42882359F083E56C
:1042F0000E94FD42882319F00E94774201C080E0AD
:104300008093BC1BE3E9F4E284918F010F5F1F4FA0
:10431000882321F00E941543F801F6CFEDEEF3E07B
:1043200084918F010F5F1F4F882321F00E94154356
:10433000F801F6CF8091BC1B8823A1F1FDEDCF2EB3
:10434000F3E0DF2EE12CF12C20E08091BC1B90E00B
:104350000E2C02C0959587950A94E2F780FF17C04E
:10436000BB24B394B20E222319F08CE20E941543B1
:10437000F60125913491F901849189010F5F1F4F56
:10438000882321F00E9415439801F5CF2B2DFFEFD4
:10439000EF1AFF0A32E0C30ED11C46E0E416F10426
:1043A000A1F642C0E9EEF3E084918F010F5F1F4F49
:1043B0008823D1F10E941543F801F6CF8AE50E94C7
:1043C000CE42882311F40C94782C0E949B426B01FE
:1043D0007C0120E030E040EA51EC0E947DBD87FF87
:1043E00002C00C946A2C20E030E040EA51E4C7019E
:1043F000B6010E9495B6181614F40C946A2CC0925B
:104400002C1CD0922D1CE0922E1CF0922F1C0E948E
:10441000F79460912C1C70912D1C80912E1C909112
:104420002F1C42E00E94F8468AE00E9415430C943B
:104430001F2D83E50E94FD42882369F00E94774288
:1044400080932B028D3310F40C941F2D8CE38093FA
:104450002B020C941F2DE3E9F4E284918F010F5F8E
:104460001F4F882321F00E941543F801F6CF409199
:104470002B0250E060E070E084EF93E00E94503146
:104480008AE00E9415430C941F2D8091BC1B83FF72
:1044900002C00C941F2D83E50E94FD42882311F475
:1044A0000C941F2D0E949B420E9489BC6E3771059F
:1044B00014F06DE770E070939A1A6093991A0E9455
:1044C000E67D0C941F2D89E690E00E9480448111C6
:1044D00011C0EBEFF3E084918F010F5F1F4F882332
:1044E00021F00E941543F801F6CF0E948E708AE0F9
:1044F0000E94154310922B1B10922A1B0C94E13042
:1045000083E50E94FD42882311F40C941F2D0E9424
:1045100077428093301B8D3318F08CE38093301BEF
:104520000E94C4A96B017C012091301B30E0A8EEF1
:10453000B3E00E94DDBADC01CB018C0D9D1DAE1DE8
:10454000BF1D80932C1B90932D1BA0932E1BB0930B
:104550002F1B0C941F2D8DE690E00E94804481114A
:104560000C941F2D8091BC1B83FF02C00C941F2D47
:1045700083E50E94FD428AA781110C94BC2D82E53F
:104580000E94FD4281110C94BC2D0C941F2D83E5DB
:104590000E94FD42882339F00E9467428B016F3FE1
:1045A000710519F010F00FEF10E080E50E94FD4258
:1045B000811106C01093BB050093BA050C941F2D02
:1045C0000E94774281110C941F2DF4CF80E50E9448
:1045D000FD42811106C01092BB051092BA050C94E1
:1045E0001F2D0E946742672B11F00C941F2DF3CFF3
:1045F000109285030C941F2D81E0809385030C9409
:104600001F2D83E50E94FD428823A1F00E949B425A
:1046100020E030E04AE754E40E94FBB60E9490BCE0
:1046200060932C0270932D0280932E0290932F02A0
:104630000C941F2D88E50E94CE4281110C94042F0A
:1046400089E50E94CE4281110C94042F8AE50E94D4
:10465000CE4281110C94042F85E40E94CE42811138
:104660000C94042F0E94884E0E94D9840C941F2D14
:1046700083E50E94CE42882311F40C941F2D0E94E2
:104680009B4220E030E04AE754E40E94FBB60E94DF
:1046900090BC6093371B7093381B8093391B9093A9
:1046A0003A1B0C941F2D8CE590E00E9480448111F0
:1046B0000C941F2DA3EAB2E0BBA3AAA34EEEC42E16
:1046C00045E0D42EF12CEAA1FBA18191FBA3EAA342
:1046D0000E94CE42882309F473C0F3E0FF1268C041
:1046E0000E949B422B013C0120E030E040EA51E473
:1046F0000E9495B6E090810387FF4FC00E2D10E019
:104700000D5F1F4F000F111F000F111FF801E25125
:10471000FA4FA301920160817181828193810E948D
:1047200017BC4B015C019B01AC0160918A05709143
:104730008B0580918C0590918D050E94FBB660934E
:104740008A0570938B0580938C0590938D05980155
:1047500026563A4F1901A5019401D1016D917D9121
:104760008D919C910E94FBB6F101608371838283DD
:1047700093830A531A4FD8016D917D918D919C912D
:104780000E949AB6A50194010E94FBB60E9490BCBB
:10479000F801608371838283938324E0E29EF001B9
:1047A0001124E650FA4F408251826282738208C01F
:1047B0000E949B42D6016D937D938D939C9313979A
:1047C000F394B4E0CB0ED11CE4E0FE127CCF0E9447
:1047D0002B340C941F2D0E94884E0E94ED630C9484
:1047E0001F2D84918F010F5F1F4F882321F00E949E
:1047F0001543F801F6CFEFECF4E084918F010F5FE1
:104800001F4F882321F00E941543F801F6CFE8EBF3
:10481000F4E084918F010F5F1F4F882321F00E94E5
:104820001543F801F6CFE8EAF4E084918F010F5FB9
:104830001F4F882321F00E941543F801F6CFE7E9C6
:10484000F4E084918F010F5F1F4F882321F00E94B5
:104850001543F801F6CFE6E8F4E084918F010F5F8D
:104860001F4F882321F00E941543F801F6CFE7E798
:10487000F4E084918F010F5F1F4F882321F00E9485
:104880001543F801F6CFE2E6F4E084918F010F5F63
:104890001F4F882321F00E941543F801F6CFECE466
:1048A000F4E084918F010F5F1F4F882321F00E9455
:1048B0001543F801F6CFE7E3F4E084918F010F5F31
:1048C0001F4F882321F00E941543F801F6CFEAE13B
:1048D000F4E084918F010F5F1F4F882321F00E9425
:1048E0001543F801F6CFE2E0F4E084918F010F5F09
:1048F0001F4F882311F40C941F2D0E941543F801BB
:10490000F4CF85E40E94CE42882381F00E948B423E
:10491000882361F0E3E9F4E284918F010F5F1F4F78
:10492000882321F00E941543F801F6CF81E40E940C
:10493000CE42882381F00E948B42882361F0E1EB14
:10494000F5E084918F010F5F1F4F882321F00E94B3
:104950001543F801F6CF0091070510910805D8011D
:104960008D918D01882309F45FCD0E941543F7CF07
:10497000E5EDF5E084918F010F5F1F4F882321F053
:104980000E941543F801F6CFEDECF5E084918F011C
:104990000F5F1F4F882321F00E941543F801F6CFC7
:1049A000659903C00BEC12E002C000ED12E0F801C3
:1049B00081918F01882319F00E941543F8CF8AE076
:1049C0000E941543E5ECF5E084918F010F5F1F4FC6
:1049D000882321F00E941543F801F6CF809103014E
:1049E00081FD03C00BEC12E002C000ED12E0D80123
:1049F0008D918D01882319F00E941543F8CF8AE02C
:104A00000E941543EDEBF5E084918F010F5F1F4F7E
:104A1000882321F00E941543F801F6CF4A9903C07C
:104A20000BEC12E002C000ED12E0F80181918F0161
:104A3000882319F00E941543F8CF8AE00E9415439D
:104A4000E5EBF5E084918F010F5F1F4F882321F084
:104A50000E941543F801F6CF4B9903C00BEC12E00E
:104A600002C000ED12E0D8018D918D01882309F478
:104A7000DBCC0E941543F7CF81E08093170580932C
:104A8000871A0C941F2D88EC90E00E9480448111BD
:104A90000C941F2D84E40E94CE42882309F456C052
:104AA0000E949B4211E020E030E0A9010E9495B6EF
:104AB000811101C010E01093991B112309F446C025
:104AC0000091810310E00E949B42000F111F000F14
:104AD000111FF801EF56F44E608371838283938334
:104AE00020E030E0A9016091911B7091921B8091B0
:104AF000931B9091941B0E9495B681110CC080E08D
:104B000090E0A0EEBFE38093911B9093921BA09343
:104B1000931BB093941B20E030E0A9016091951B9A
:104B20007091961B8091971B9091981B0E9495B64F
:104B300081110CC080E090E0A0EEBFE38093951B54
:104B40009093961BA093971BB093981B0E941A9B5F
:104B500076C789EC90E00E948044811170C783EA97
:104B6000C82E82E0D82E00E0F60181916F010E94EC
:104B7000CE428823C9F0033019F41091810301C09B
:104B800010E00E949B42100FF4E01F9F900111243F
:104B9000A90146525A4F7A010E9490BCD7016D93E9
:104BA0007D938D939C9313970F5F0430E9F60E94D9
:104BB000DB3245C78BEC90E00E94804481113FC7F7
:104BC00003EAE02E02E0F02E00E0F70181917F0180
:104BD0000E94CE42882399F0033019F4109181038A
:104BE00001C010E00E949B42100F24E0129FF001D0
:104BF0001124E656FA4F60837183828393830F5F9B
:104C0000043019F71CC783E50E94CE428823D9F0EF
:104C10000E949B42AB01BC014093920550939305C7
:104C2000609394057093950540938E0550938F057E
:104C3000609390057093910589E496E00E948A3113
:104C40008AE00E94154380E50E94CE42882399F0B5
:104C50000E949B42AB01BC01409392055093930587
:104C600060939405709395058CE296E00E948A31DA
:104C70008AE00E94154382E50E94CE42882399F083
:104C80000E949B42AB01BC0140939605509397054F
:104C900060939805709399058DE096E00E948A31A3
:104CA0008AE00E94154384E50E94CE42882309F4DD
:104CB000C6C60E949B42AB01BC0140938E05509337
:104CC0008F0560939005709391058FEE95E00E949B
:104CD0008A318AE00E941543B2C683E50E94CE4223
:104CE000882351F00E949B426093B6057093B705EC
:104CF0008093B8059093B90584E50E94CE4288233D
:104D000051F00E949B426093B2057093B30580936B
:104D1000B4059093B50582E40E94CE42882351F0F9
:104D20000E9457426093AE057093AF058093B00523
:104D30009093B10588E50E94CE42882351F00E94ED
:104D40009B4260937E0570937F05809380059093CE
:104D5000810589E50E94CE42882351F00E949B4242
:104D600060938205709383058093840590938505F5
:104D70008AE50E94CE42882351F00E949B426093B4
:104D8000860570938705809388059093890585E44F
:104D90000E94CE42882309F452C60E949B4260932F
:104DA0008A0570938B0580938C0590938D0547C67B
:104DB0000E94576344C60E94EA6241C683E50E948E
:104DC000FD42882309F43BC60E9467427093540257
:104DD0006093530234C60E94746231C60E943F62DF
:104DE0002EC60E94A2612BC680E50E94CE42882377
:104DF00051F00E949B426093091A70930A1A8093A3
:104E00000B1A90930C1A89E40E94CE42882381F0F9
:104E10000E949B422CEA35EC47E25EE30E94FBB61F
:104E20006093051A7093061A8093071A9093081AD4
:104E300084E40E94CE42882381F00E949B422CEAA7
:104E400035EC47E25EE30E9417BC6093011A709351
:104E5000021A8093031A9093041AE3E9F4E284910E
:104E60008F010F5F1F4F882321F00E941543F80127
:104E7000F6CF4091091A50910A1A60910B1A70915D
:104E80000C1A89E796E00E948A312CEA35EC47E259
:104E90005EE36091051A7091061A8091071A90914D
:104EA000081A0E9417BCAB01BC0185E796E00E947E
:104EB0006D312CEA35EC47E25EE36091011A7091A6
:104EC000021A8091031A9091041A0E94FBB6AB015A
:104ED000BC0181E796E00E946D318AE00E94154393
:104EE000AEC580917B00886080937B0081E48093D5
:104EF0007C0080917A00806480937A0080917A00AF
:104F000086FDFCCF609178008091790070E0782B6D
:104F1000072E000C880B990B0E949CB622EC35EFF3
:104F200048E25FE30E9417BC2CEA35EC47E257E306
:104F30000E941DBBAB01BC018DE796E00E946D3164
:104F40008AE00E9415437BC583E50E94CE42182F5C
:104F5000882371F00E949B420E9489BC70931002CA
:104F600060930F0221E0672B09F020E020937D057C
:104F700080E50E94CE42882359F020910F023091A3
:104F80001002232B11F00E948B4280937D0557C5A0
:104F9000111155C5E3E9F4E284918F010F5F1F4FB2
:104FA000882321F00E941543F801F6CF80917D05FA
:104FB000811103C06AED72E002C06DEC72E08CE911
:104FC00096E00E94DC3160910F02709110028BE834
:104FD00096E00E94A731E7E8F6E084918F010F5F29
:104FE0001F4F882309F42BC50E941543F801F5CF04
:104FF00085E40E94FD42882321F00E9467421B0144
:1050000002C0212C312C83E40E94FD42882339F018
:105010000E946742A9967FAF6EAFA99706C045E090
:1050200050E0A9965FAF4EAFA99785E50E94CE42AA
:10503000E0968FAFE097882329F00E948B42E0969C
:105040008FAFE09737FC07C0C12CD12C16E1E12EC1
:1050500013E4F12E06C0C12CD12CBCE8EB2EB2E437
:10506000FB2E83E50E94FD42882321F00E949B4293
:105070006B017C01C701B6010E9489BC52E0251674
:10508000310410F420928103072E000C880B990B39
:105090000E949CB66EAF7FAF21968FAF219722966C
:1050A0009FAF22970E94C4A92B013C01DC01CB01D8
:1050B0008C53964FAF4FBF4F8093881A9093891AA5
:1050C000A0938A1AB0938B1AC1010196039718F422
:1050D0000AEE12E00BC00DEF12E0D8018D918D01A8
:1050E000882309F4A1C90E941543F7CFF8018191E3
:1050F0008F01882319F00E941543F8CF8AE00E949F
:1051000015430E94897E8FE7FFEF2F163F0619F4A3
:105110008093A11A04C0F101EE55F54E808381E021
:1051200080930002A3964CAE5DAE6EAE7FAEA397A9
:10513000AD964CAE5DAE6EAE7FAEAD9723961FAE14
:10514000239720E424962FAF24973CE128963FAF85
:10515000289746E42C964FAF2C9760961FAE609729
:1051600064961FAE649768961FAE68976C961FAEE4
:105170006C971AAE1BAE1CAE1DAE1EAA1FAA18AEAF
:1051800019AEC12CD12C7601FFE78F2E912CA12CCA
:10519000B12C8FE790E0A0E0B0E08EA79FA7A8AB6E
:1051A000B9ABEB961CAE1DAE1EAE1FAEEB9791E0F9
:1051B000E4969FAFE4971BAA1AAA1EA21AA600E0C3
:1051C00010E0D101AE55B54EAF96BFAFAEAFAF97C1
:1051D000C101880F991F880F991FFC01E457F54EF4
:1051E000A596FFAFEEAFA59780910002882309F442
:1051F00044C20E94C4A96AA37BA38CA39DA38091EF
:105200009F1A882309F416C10E946A7FFFEF2F16A8
:105210003F0659F42091941A2EA33091951A3AA77B
:105220000091961A1091971A15C0A596AEADBFAD14
:10523000A597BC91BEA3A596EEADFFADA597F18154
:10524000FAA7A596AEADBFADA59712960C91129791
:1052500013961C912EA13AA5A80160966FAD609798
:1052600064967FAD649768968FAD68976C969FAD96
:105270006C970E9495B687FF0EC0BEA16096BFAF27
:105280006097EAA56496EFAF649768960FAF68974A
:105290006C961FAF6C972EA13AA5A80123966FAD0F
:1052A000239724967FAD249728968FAD28972C9628
:1052B0009FAD2C970E947DBD181674F4FEA1239615
:1052C000FFAF23972AA524962FAF249728960FAFD8
:1052D00028972C961FAF2C978091881A9091891A45
:1052E000A0918A1AB0918B1A2AA13BA14CA15DA171
:1052F000281B390B4A0B5B0B57FD12C00E949E4CBA
:105300008AA19BA1ACA1BDA18C53964FAF4FBF4FBB
:105310008093881A9093891AA0938A1AB0938B1A53
:10532000E4963FADE4972EAD332309F45FC03FAD63
:1053300021964FAD219722965FAD22976EA17AA557
:10534000C8010E947DBD18160CF074C04AA15BA173
:105350006CA17DA14419550966097709DB01CA01D1
:1053600088589341A109B109B7FD64C08EA59FA5D6
:10537000A8A9B9A988199909AA09BB09B595A7953A
:1053800097958795EFEF2E163E0619F48093A11A94
:1053900005C0AF96EEADFFADAF978083EB964CAFF7
:1053A0005DAF6EAF7FAFEB97FEAD6096FFAF6097DE
:1053B0002FAD64962FAF649721963FAD21976896E5
:1053C0003FAF689722964FAD22976C964FAF6C9780
:1053D0008AA19BA1ACA1BDA1A3968CAF9DAFAEAF9E
:1053E000BFAFA397E4961FAEE49724C03FAD2196CC
:1053F0004FAD219722965FAD22976EA17AA5C80185
:105400000E9495B687FF16C08AA19BA1ACA1BDA141
:10541000A3962CAD3DAD4EAD5FADA397821B930B14
:10542000A40BB50BAC01BD0148585341610971098A
:1054300077FF14C520E030E040EA51E46EAD7FAD67
:1054400021968FAD219722969FAD22970E941DBB7A
:105450009B01AC016EA17AA5C8010E947DBD181602
:105460006CF4ECE6F7E084918F010F5F1F4F882307
:1054700009F4E5C20E941543F801F5CF80E398EFE7
:10548000AFEFBFEFAD962CAD3DAD4EAD5FADAD977F
:10549000821B930BA40BB50B2AA13BA14CA15DA1D0
:1054A000820F931FA41FB51FB7FD0FC00E948E70FF
:1054B0008AE00E9415438AA19BA1ACA1BDA1AD9633
:1054C0008CAF9DAFAEAFBFAFAD978AA19BA1ACA192
:1054D000BDA1880F991FAA1FBB1FA3962CAD3DAD80
:1054E0004EAD5FADA397821B930BA40BB50B841934
:1054F0009509A609B70981389F44A241B10568F012
:10550000EEE4F7E084918F010F5F1F4F882309F4C9
:1055100096C20E941543F801F5CF4AA95BA9A99646
:105520008EAD9FADA997841795070CF05DCEE1EF86
:10553000F6E084918F010F5F1F4F882321F00E94B6
:105540001543F801F6CF9FEF2916390619F00BE342
:1055500013E002C00EED12E0B8018FED96E00E945C
:10556000DC31B701A6018BED96E00E948A318AE01A
:105570000E941543B80189EC96E00E94DC314EA9E7
:105580005FA968AD79AD85EC96E00E948A318AE02A
:105590000E941543B80183EB96E00E94DC314AADCE
:1055A0005BAD6CAD7DAD8FEA96E00E948A318AE0FA
:1055B0000E941543E096AFACE097AA2009F43FC2E1
:1055C0002320209469F5C092091AD0920A1AE09219
:1055D0000B1AF0920C1A2CEA35EC47E25EE36EA946
:1055E0007FA988AD99AD0E94FBB66093051A7093B0
:1055F000061A8093071A9093081A2CEA35EC47E2B2
:105600005EE36AAD7BAD8CAD9DAD0E9417BC60932F
:10561000011A7093021A8093031A9093041A0FC20E
:10562000C092F919D092FA19E092FB19F092FC1984
:105630002CEA35EC47E25EE36EA97FA988AD99AD0F
:105640000E94FBB66093F5197093F6198093F719D1
:105650009093F8192CEA35EC47E25EE36AAD7BAD36
:105660008CAD9DAD0E9417BC6093FD197093FE191F
:105670008093FF199093001AE2C18091000281117A
:10568000DEC10E94897EDBC181E00E947D92D7C18C
:1056900080E00E947D92D3C186E50E94CE4288239D
:1056A00041F08091831A9091841A892B11F00E9405
:1056B00028AF83E50E94CE42182F882319F00E945C
:1056C0008B42182F83E50E94CE42882319F0812F48
:1056D0000E94068FF0907C05111103C0E3E9F4E20B
:1056E0001AC0F110FBCFE4E2F4E284918F010F5F66
:1056F0001F4F882321F00E941543F801F6CFEEEEEC
:10570000F7E084918F010F5F1F4F882339F30E94C8
:105710001543F801F6CF84918F010F5F1F4F882347
:1057200021F00E941543F801F6CFF11003C066EE98
:1057300072E002C062EE72E080EE97E00E94DC311F
:105740008AE00E9415437BC189E40E94FD428823C0
:1057500021F00E946742062F01C00FEF8AE40E94E9
:10576000FD42882321F00E946742162F01C01FEFDF
:105770008AE50E94CE42F82E811105C081E50E9483
:10578000CE42D82E01C0D12C07FD02C017FF03C0A6
:10579000E4E2F4E205C0F1101AC0D11018C0F8CF4D
:1057A00084918F010F5F1F4F882321F00E941543C2
:1057B000F801F6CFECE2F8E084918F010F5F1F4F04
:1057C000882309F43CC10E941543F801F5CF03304A
:1057D00018F0E4E2F4E206C01330D8F716C00E94D5
:1057E0001543F80184918F010F5F1F4F8111F7CF8F
:1057F000EDE0F8E084918F010F5F1F4F882309F4DB
:105800001EC10E941543F801F5CFE02E000FFF08DE
:10581000012F110F110B0E949B42D701AA0FBB1F32
:10582000DD2081F0FD01EE0DFF1DE00FF11FEE0FF9
:10583000FF1FEE0FFF1FE85FF34E20813181428191
:10584000538103C020E030E0A901EA0EFB1E0E0DDB
:105850001F1D000F111F000F111F085F134E0E9424
:105860001DBBD8016D937D938D939C931397E7C0D7
:105870000E94AC64E4C00E942F5CE1C00E94F55617
:10588000DEC00E947855DBC083E50E94CE428823AB
:1058900019F00E948B4201C081E091E089270E94AB
:1058A0006488CDC084918F010F5F1F4F882321F042
:1058B0000E941543F801F6CFE6E6F8E084918F01E7
:1058C0000F5F1F4F882311F40C94DE210E941543B3
:1058D000F801F4CFEFE4F8E084918F010F5F1F4FE0
:1058E000882311F40C9414220E941543F801F4CF7C
:1058F00040912C1C50912D1C60912E1C70912F1CDE
:105900008CE498E00E948A310C9414220E946B610E
:1059100096C00E94326193C00E94384D90C0809121
:105920004505882309F48BC00E944CA788C00E94BB
:10593000F46085C081E08093260283E50E94CE4218
:10594000811103C00E9467A37AC00E948B4281111B
:1059500076C0F8CFE0900905F0900A051E2D8091E1
:10596000BC1B85FF14C0B70177278AEB98E00E9423
:10597000A73189E20E9415438AE00E9415434CEA50
:105980005BE16BE978E086EA98E00E94E647809167
:10599000C505181751F083E50E94CE42182F8823C1
:1059A00029F00E948B42182F01C011E086E40E946A
:1059B000FD42882319F00E949B4203C060E070E022
:1059C000CB0120E030E040E752E40E9417BCAB017D
:1059D000BC01212F8E2D0E94AF608091BC1B85FFE2
:1059E0002EC04CEA5BE16DE778E087E898E00E9422
:1059F000E647E0E7F8E084918F010F5F1F4F8823AF
:105A0000F1F00E941543F801F6CFE3E9F4E2849146
:105A10008F010F5F1F4F882321F00E941543F8016B
:105A2000F6CF6091311B7091321B87EC98E00E9499
:105A3000DC3182E20E9415438AE00E9415431092F5
:105A40002B1B10922A1B0E9448A3BBC34115510572
:105A500019F4AF0141505109812C912C0C9444143C
:105A600080E00E94068F0E94ED8F83E50E94CE4267
:105A7000882309F449C00E948B4221E0482FBE01CF
:105A80006F5F7F4FCE0146960E94C1956B017C01EE
:105A90009B01AC010E940FBE811131C02CEA35EC94
:105AA00047E257E36E897F89888D998D0E941DBBDF
:105AB000AB01BC018EE293E00E946D312CEA35EC23
:105AC00047E257E369817A818B819C810E941DBBEB
:105AD000AB01BC0189E293E00E946D312CEA35EC08
