:100000000C94DE100C940F110C940F110C940F1122
:100010000C940F110C940F110C940F110C940F11E0
:100020000C940F110C940F110C940F110C940F11D0
:100030000C940F110C940F110C940F110C940F11C0
:100040000C940F110C94CD3C0C940F110C940F11C7
:100050000C940F110C940F110C946D800C949AA4B5
:100060000C940F110C943E340C9413350C940F1116
:100070000C940F110C940F110C940F110C940F1180
:100080000C940F110C940F110C940F110C940F1170
:100090000C940F110C940F110C940F110C941F7EE3
:1000A0000C940F110C940F110C940F110C940F1150
:1000B0000C940F110C940F110C940F110C940F1140
:1000C0000C940F110C940F110C940F110C940F1130
:1000D0000C940F110C940F110C940F110C940F1120
:1000E0000C940F11713478348C349934A334BE34A9
:1000F000A834BE34AD34B234BE34BA343E81438108
:100100006D81728152815E812881E4A2E7A2D6A22C
:10011000DAA2E0A21EA3EBA2EFA2F5A2F9A2FDA231
:1001200003A307A30BA31EA311A315A319A3B4A391
:10013000B9A3BEA3C8A3D2A34BA4DCA3E4A3ECA39E
:10014000F6A300A40AA419A423A44BA42DA437A4A5
:1001500041A4084AD73B3BCE016E84BCBFFDC12FF2
:100160003D6C74319ABD56833DDA3D00C77F11BEA8
:10017000D9E4BB4C3E916BAAAABE000000803F05AB
:10018000A84CCDB2D44EB93836A9020C50B99186DC
:1001900088083CA6AAAA2ABE000000803F000C9452
:1001A000B4A30C94ECA30C9407A30C94B2340C9459
:1001B0006D810C94DAA20C9441A40C9400A40C94CC
:1001C000EBA20C941EA30C942DA40C9443810C94CC
:1001D0003E810C94DCA30C94E0A20C9437A40C9404
:1001E000F5A20C948C340C941CAC0C9472810C947D
:1001F00099340C948E7D0C94C8A30C94E7A20C94B3
:100200000BA30C9452810C941A7E0C94A3340C947E
:1002100019A40C94FDA20C94A8340C94BA340C9438
:100220008F7D0C94BA7D0C9423A40C94F6A30C94AB
:100230004BA40C940AA40C9478340C9428810C944C
:10024000EFA20C949E7D0C941B2C0C94F9A20C94A0
:10025000BE340C94AD340C94B27D0C9415A30C9464
:10026000D2A30C945E810C94B9A30C9411A30C94AA
:1002700019A30C94E4A20C94BEA30C94EA7D0C94F4
:1002800071340C9403A30C94D6A20C94E4A3434FB2
:100290004D4D554E49434154494F4E0044525952D9
:1002A000554E004552524F525300494E464F00455D
:1002B00043484F0047322F4733206261642070610A
:1002C00072616D65746572730A0047322F4733207F
:1002D00062616420706172616D65746572730A0099
:1002E000205A3A200020593A200042656420583AAA
:1002F00020004D65736820706F696E742063616EB5
:100300006E6F74206265207265736F6C7665640A27
:1003100000000136372603FF3C3D38FF0E2E303EED
:100320001312FFFF080706FF061A1C18FFFF2422FE
:100330001EFFFF08440A0B43090B45FFFFFFFFFFA9
:10034000FF50726F7465637465642050696E0A00B3
:100350003D003F2061646472657373203A20002081
:100360006279746573206F66206D656D6F72792098
:10037000696E697469616C697A65642E0A0A005550
:100380006E61626C6520746F20696E697469616C5E
:10039000697A652E0A0A00496E697469616C697A26
:1003A000696E672066726565206D656D6F72792074
:1003B000626C6F636B2E0A0A0A00747275650A001C
:1003C0002072657475726E3D000A4D656D6F7279AD
:1003D00020436F7272757074696F6E206465746506
:1003E0006374656420696E2066726565206D656D55
:1003F0006F727920617265612E0A002020626C6F35
:10040000636B5F666F756E643D00202020002920BD
:10041000666F756E643D00202800207370203C20BC
:100420004865617020002073703D000A5F5F627351
:10043000735F656E643A20003D000A265F5F62725A
:100440006B76616C3A20000A666D632829206E3D48
:1004500000636865636B5F666F725F667265655F98
:100460006D656D6F72795F636F7272757074696FAD
:100470006E2829203D200020627974657320617404
:1004800020000A4C6172676573742066726565208E
:10049000626C6F636B20697320000A4D656D6F722B
:1004A0007920436F7272757074696F6E2064657421
:1004B000656374656420696E2066726565206D658C
:1004C0006D6F727920617265612E0A002062797405
:1004D000657320667265652061742000466F756ED5
:1004E0006420000A436F7272757074696E672061D0
:1004F0006464726573733A2000436F72727570742E
:10050000696E672066726565206D656D6F72792012
:10051000626C6F636B2E0A0A000A537461636B206E
:10052000506F696E746572203A20000A73746172AC
:1005300074206F6620667265652073706163652044
:100540003A20000A5F5F6273735F656E64203A2031
:10055000000A5F5F62726B76616C203A2000AF0226
:10056000AA02A3029C028E026F66660044454255B1
:10057000473A004D3131332053006F6B0020573A1A
:100580000020573A004361703A454D455247454E69
:1005900043595F5041525345523A310A004361700A
:1005A0003A434153455F4C494748545F425249479B
:1005B00048544E4553533A310A004361703A544F00
:1005C00047474C455F4C49474854533A310A00432A
:1005D00061703A534F4654574152455F504F57450B
:1005E000523A300A004361703A4C4556454C494EE8
:1005F000475F444154413A310A004361703A5A5FBF
:1006000050524F42453A310A004361703A415554C5
:100610004F4C4556454C3A310A004361703A5052AE
:10062000494E545F4A4F423A310A004361703A5092
:10063000524F47524553533A300A004361703A4192
:1006400055544F5245504F52545F54454D503A31D6
:100650000A004361703A454550524F4D3A310A0005
:100660004649524D574152455F4E414D453A4D61C5
:10067000726C696E204D61726C696E5F312E312E25
:10068000365F526F626F56657273696F6E5F312E9F
:10069000322E3620526F626F20523220534F555205
:1006A00043455F434F44455F55524C3A68747470FC
:1006B000733A2F2F6769746875622E636F6D2F52BE
:1006C0006F626F33442F4D61726C696E2050524FD0
:1006D000544F434F4C5F56455253494F4E3A312E7B
:1006E00030204D414348494E455F545950453A20CA
:1006F000526F626F20523220455854525544455231
:100700005F434F554E543A3220555549443A63653C
:100710006465326132662D343161322D34373438BC
:100720002D396231322D63353563363266333637D3
:1007300066660A002F2F20007A5F6D61783A2000EC
:100740007A5F6D696E3A2000795F6D61783A2000BA
:10075000785F6D696E3A20005265706F7274696ED1
:100760006720656E6473746F702073746174757341
:100770000A0053657474696E672054726176656C03
:1007800020416363656C65726174696F6E3A200025
:1007900053657474696E6720526574726163742066
:1007A000416363656C65726174696F6E3A200053D2
:1007B000657474696E67205072696E74204163635A
:1007C000656C65726174696F6E3A2000536574746C
:1007D000696E67205072696E7420616E6420547275
:1007E0006176656C20416363656C65726174696FE5
:1007F0006E3A200020643A0020693A0020703A00E6
:10080000426564204C6576656C696E6720004661C0
:10081000696C656420746F20656E61626C6520424E
:100820006564204C6576656C696E670A004D65737A
:100830006820706F696E742063616E6E6F742062E1
:1008400065207265736F6C7665640A004D343231D1
:1008500020696E636F727265637420706172616D7E
:10086000657465722075736167650A00546F6F2047
:100870006661722066726F6D207265666572656E64
:10088000636520706F696E740A003A20007A5F6DAC
:10089000696E3A20202D3230207A5F6D61783A20DF
:1008A000203230005A204F6666736574200020287D
:1008B000002920453A0020280029205A3A00202803
:1008C000002920593A0020280020583A0053746526
:1008D000707065722063757272656E742076616CDB
:1008E00075657320696E20252028416D7073293A43
:1008F0000A0043617365206C696768743A2000558B
:100900006E6B6E6F776E20636F6D6D616E643A20F3
:100910002200736C6F743A004B494C4C45442E20B6
:1009200000656E7175657565696E672022004E6F92
:10093000204C696E65204E756D6265722077697412
:100940006820636865636B73756D2C204C617374EC
:10095000204C696E653A20005072696E7465722091
:1009600073746F707065642064756520746F2065A2
:1009700072726F72732E20466978207468652065E4
:1009800072726F7220616E6420757365204D393903
:100990003920746F20726573746172742E2028542C
:1009A000656D70657261747572652069732072651A
:1009B0007365742E205365742069742061667465B4
:1009C000722072657374617274696E67290A004ED1
:1009D0006F20436865636B73756D20776974682059
:1009E0006C696E65206E756D6265722C204C61734A
:1009F00074204C696E653A2000636865636B73759B
:100A00006D206D69736D617463682C204C61737423
:100A1000204C696E653A20004C696E65204E756DFC
:100A2000626572206973206E6F74204C617374204C
:100A30004C696E65204E756D6265722B312C204CB1
:100A4000617374204C696E653A20004D313130007D
:100A5000776169740A0020496E76616C696420656B
:100A60007874727564657220000000000000000058
:100A700000000000000000454300004543000082E4
:100A8000434B494C4C45442E2000202D20496E7686
:100A9000616C6964206578747275646572206E7526
:100AA0006D62657220210A002020506C616E6E65B7
:100AB0007242756666657242797465733A200020E9
:100AC00046726565204D656D6F72793A2000436FFF
:100AD0006D70696C65643A20536570202036203251
:100AE0003031380A00207C20417574686F723A20DA
:100AF000526F626F0A003035205345505420323017
:100B0000313800204C6173742055706461746564E1
:100B10003A20004D61726C696E5F312E312E365F66
:100B2000526F626F56657273696F6E5F312E322E2F
:100B3000360A004D61726C696E0020536F667477DF
:100B40006172652052657365740A00205761746391
:100B500068646F672052657365740A002042726F83
:100B6000776E206F75742052657365740A00204596
:100B7000787465726E616C2052657365740A0050FA
:100B80006F77657255700A0073746172740A002081
:100B90005A3A0020593A0020583A00656E6473743E
:100BA0006F7073206869743A200024F4D43050C305
:100BB0008E20C2A24017828B7011127A910D816C27
:100BC000D90AA861E108C7586607615143061E4B60
:100BD0005D05C145A7041A411104093D9803713907
:100BE00031034036DB0265339102D4305402802E4B
:100BF0001D02632CEE01752AC501B028A001102743
:100C000081018F2564012B244B01E0223401AC21AA
:100C10001F018D200D01801FFC00841EED00971D1B
:100C2000DF00B81CD200E61BC600201BBC00641A03
:100C3000B200B219A8000A19A0006A189900D117C9
:100C4000910040178B00B516840031167E00B31555
:100C500079003A157300C7146F0058146A00EE1338
:100C600066008813630025135E00C7125B006C12D8
:100C7000570015125400C111510070114F0021117D
:100C80004B00D61049008D1047004610440002105A
:100C90004200C00F4000800F3E00420F3C00060F94
:100CA0003B00CB0E3800930E37005C0E3500270E4C
:100CB0003400F30D3200C10D3100900D3000600D95
:100CC0002E00320D2D00050D2C00D90C2B00AE0C82
:100CD0002900850C29005C0C2700350C27000E0C20
:100CE0002600E80B2400C40B2400A00B23007D0B7E
:100CF00023005A0B2100390B2100180B2000F80AA1
:100D00001F00D90A1E00BB0A1E009D0A1D00800A92
:100D10001D00630A1C00470A1B002C0A1B00110A55
:100D20001A00F7091A00DD091900C4091900AB09F6
:100D30001900920917007B091800630917004C0974
:100D4000160036091600200916000A091500F508D4
:100D50001500E0081400CC081400B8081400A4081A
:100D60001400900813007D0812006B081300580847
:100D7000120046081200340811002308110012085E
:100D8000110001081100F0071000E0071000D00763
:100D90001000C0071000B0070F00A1071000910756
:100DA0000E0083070F0074070F0065070E0057073A
:100DB0000E0049070E003B070D002E070E0020070E
:100DC0000D0013070D0006070D00F9060C00ED06D7
:100DD0000D00E0060C00D4060C00C8060C00BC0692
:100DE0000C00B0060C00A4060B0099060C008D0642
:100DF0000B0082060B0077060B006C060B006106E9
:100E00000A0057060B004C060A0042060A00380684
:100E10000A002E060A0024060A001A060A00100616
:100E2000090007060A00FD050900F4050900EB05A5
:100E30000900E2050900D9050900D0050900C70528
:100E40000900BE050900B5050800AD050800A505A7
:100E500009009C050800940508008C05080084051D
:100E600008007C050800740508006C05070065058E
:100E700008005D050700560508004E0507004705F8
:100E800007004005080038050700310507002A055E
:100E90000700230507001C050600160507000F05BF
:100EA00007000805060002050700FB040600F5041C
:100EB0000700EE040600E8040600E2040700DB0475
:100EC0000600D5040600CF040600C9040600C304CA
:100ED0000600BD040600B7040600B1040500AC041A
:100EE0000600A6040600A00405009B040600950465
:100EF0000500900406008A040500850405008004AE
:100F000006007A04050075040500700405006B04F2
:100F1000050066040500610405005C040500570433
:100F20000500520405004D04050048040500430473
:100F300005003E0404003A040500350405003004B1
:100F400004002C04050027040400230405001E04EB
:100F500004001A04040016040500110404000D0422
:100F60000400090405000404040000040400FC0358
:100F70000400F8030400F4030400F0030400EC038D
:100F80000400E8030400E4030400E0030400DC03BD
:100F90000400D8030400D4030400D0030400CC03ED
:100FA0000400C8030300C503030024F404D9201B74
:100FB000C40C5C0E9804C4095F0265077101F40556
:100FC000F900FB04B30048048700C103690058031B
:100FD000550003034500BE023A008402310053026B
:100FE0002A002902250004022000E4011C00C80197
:100FF0001900AF011700980114008401130071015A
:1010000010006101100051010E0043010D00360176
:101010000B002B010B0020010B00150109000C0136
:10102000090003010800FB000800F3000800EB00C2
:101030000700E4000600DE000600D8000600D2002B
:101040000600CC000500C7000500C2000500BD0079
:101050000400B9000400B5000400B1000400AD00B4
:101060000400A9000400A5000300A20003009F00E3
:1010700004009B0003009800030095000200930009
:101080000300900003008D0002008B000300880025
:1010900002008600020084000300810002007F003D
:1010A00002007D0002007B00020079000200770050
:1010B000010076000200740002007200010071005D
:1010C00002006F0002006D0001006C0002006A0067
:1010D0000100690002006700010066000100650070
:1010E0000100640002006200010061000100600074
:1010F00001005F0002005D0001005C0001005B0078
:1011000001005A0001005900010058000100570079
:101110000100560001005500010054000100530079
:101120000000530001005200010051000100500076
:1011300001004F0001004E0000004E0001004D0074
:1011400001004C0001004B0000004B0001004A0070
:10115000010049000100480000004800010047006C
:101160000100460000004600010045000000450067
:101170000100440001004300000043000100420060
:101180000000420001004100000041000100400059
:1011900001003F0000003F0001003E0000003E0053
:1011A00001003D0000003D0001003C0000003C004B
:1011B00000003C0001003B0000003B0001003A0041
:1011C00000003A0001003900000039000100380039
:1011D0000000380000003800010037000000370030
:1011E0000100360000003600000036000100350026
:1011F000000035000000350001003400000034001C
:101200000000340001003300000033000000330010
:101210000100320000003200000032000100310005
:1012200000003100000031000100300000003000FB
:101230000000300001002F0000002F0000002F00F0
:1012400000002F0001002E0000002E0000002E00E4
:1012500001002D0000002D0000002D0000002D00D9
:1012600001002C0000002C0000002C0000002C00CD
:1012700001002B0000002B0000002B0000002B00C1
:1012800001002A0000002A0000002A0000002A00B5
:1012900001002900000029000000290000002900A9
:1012A000000029000100280000002800000028009C
:1012B000000028000000280001002700000027008F
:1012C0000000270000002700000027000100260082
:1012D0000000260000002600000026000000260076
:1012E0000100250000002500000025000000250069
:1012F000000025000000250001002400000024005B
:10130000000024000000240000002400010023004D
:101310000000230000002300000023000000230041
:101320000000230000002300010022000000220032
:101330000000220000002200000022000000220025
:101340000100210000002100000021000000210018
:101350000000210000002100000021000100200009
:1013600000002000000020000000200000002000FD
:1013700000002000000020000000200001001F00ED
:1013800000001F0000001F0000001F0000001F00E1
:1013900000001F0000001F0001001E0000001E00D2
:1013A00000001E0000001E0000000B0BFFFFFF00EE
:1013B000000202026265640A002C2073797374656E
:1013C0006D2073746F707065642120486561746569
:1013D000725F49443A200048656174696E6720660F
:1013E00061696C65640048656174696E6720666157
:1013F000696C65640048656174696E67206661693F
:101400006C65640048656174696E67206661696C2B
:101410006564004572726F722077726974696E67D5
:1014200020746F20454550524F4D210A00290A0073
:101430002062797465733B20637263200053657486
:1014400074696E67732053746F726564202800207E
:101450002863616C63756C6174656429210A0020DE
:10146000213D2000454550524F4D20435243206DB1
:1014700069736D61746368202D202873746F7265C1
:1014800064292000290A002062797465733B206377
:10149000726320002073746F7265642073657474C6
:1014A000696E677320726574726965766564202859
:1014B00000204D61726C696E3D563431290A002856
:1014C000454550524F4D3D00454550524F4D2076B9
:1014D000657273696F6E206D69736D6174636820E6
:1014E0000048617264636F64656420446566617579
:1014F0006C742053657474696E6773204C6F6164FB
:1015000065640A00B80B0000B80B0000640000001E
:10151000E8030000E8030000000096430000964343
:101520000000C8410000C8410000C8420000A042BD
:101530000000A042000048440080114300C0B943AD
:1015400042696C696E656172204C6576656C696E86
:101550006720477269643A0A0020706F7369746982
:101560006F6E206F7574206F662072616E67652ED6
:101570000A003F50726F6265200052756E6E696E90
:101580006720696E204452592D52554E206D6F646C
:10159000650A00473239204175746F204265642026
:1015A0004C6576656C696E670A0028422961636B39
:1015B00000284629726F6E74002852296967687482
:1015C00000284C29656674003F2856296572626FB1
:1015D0007365206C6576656C20697320696D706C2D
:1015E00061757369626C652028302D34292E0A00DC
:1015F000426164205A2076616C75650A004E6F2046
:1016000062696C696E65617220677269640A005074
:10161000726F6265204F6666736574206973205A25
:101620003A20002569730025696D2025697300251E
:1016300069682025696D2025697300256964202566
:1016400069682025696D2025697300256979202541
:101650006964202569682025696D2025697300501B
:1016600072696E742074696D653A20005374616EFE
:101670006461726420446576696174696F6E3A20B2
:10168000002052616E67653A2000204D61783A2053
:1016900000204D696E3A20004D65616E3A2000468B
:1016A000696E6973686564210A002072616E6765FE
:1016B0003A2000206D61783A2000206D696E3A2052
:1016C00000207369676D613A2000206D65616E3A94
:1016D00020003A207A3A2000206F662000205A002D
:1016E000205900205800476F696E6720746F3A00D8
:1016F000436C6F636B776973650A00436F756E7433
:1017000065722D0020446972656374696F6E3A20BA
:1017100000202020616E676C653A2000537461726E
:1017200074696E67207261646975733A2000506F46
:10173000736974696F6E696E672074686520707272
:101740006F62652E2E2E0A003F4E756D6265722007
:101750006F66206C65677320696E206D6F76656DAE
:10176000656E74206E6F7420706C61757369626C45
:10177000652028302D3135292E0A00590058003FA8
:1017800053616D706C652073697A65206E6F74208B
:10179000706C61757369626C652028342D35302951
:1017A0002E0A004D3438205A2D50726F6265205237
:1017B00065706561746162696C69747920546573E0
:1017C000740A003F2856296572626F7365206C6544
:1017D00076656C20697320696D706C6175736962E0
:1017E0006C652028302D34292E0A00202F0020403F
:1017F000002042403A0020403A0020746F6F206C75
:101800006F6E6720657874727573696F6E20707281
:101810006576656E7465640A0020636F6C6420658C
:101820007874727573696F6E2070726576656E7408
:1018300065640A0020746F6F206C6F6E6720657896
:1018400074727573696F6E2070726576656E7465FB
:10185000640A0020636F6C64206578747275736924
:101860006F6E2070726576656E7465640A006275CD
:1018700073793A2070617573656420666F722069B0
:101880006E7075740A00627573793A2070617573B1
:10189000656420666F7220757365720A00627573E5
:1018A000793A2070726F63657373696E670A004BD3
:1018B000494C4C45442E20004B494C4C20636175EB
:1018C000736564206279204B494C4C2062757474B6
:1018D0006F6E2F70696E0A004B494C4C45442E20A8
:1018E000004B494C4C20636175736564206279201C
:1018F000746F6F206D75636820696E6163746976BB
:10190000652074696D65202D2063757272656E7433
:1019100020636F6D6D616E643A20005072696E7461
:1019200065722068616C7465642E206B696C6C282C
:10193000292063616C6C6564210A000000000000CE
:101940000045430000824300005C4200005C42000E
:10195000007041000000005761726E696E673A20A6
:10196000486F6D696E672042756D702044697669B5
:10197000736F72203C20310A000202040000A04074
:101980000000A04000000040000045430000454327
:1019900000008243FF010141637469766520457848
:1019A0007472756465723A200070012C01900127F1
:1019B00001B0012201C0011D01F001180110021344
:1019C0000130020E016002090190020401C002FF11
:1019D000000003FA004003F5008003F000D003EBA1
:1019E000002004E6007004E100E004DC004005D7BC
:1019F00000C005D2004006CD00D006C8008007C355
:101A0000003008BE00F008B900C009B400B00AAF49
:101A100000B00BAA00D00CA500000EA000500F9B38
:101A200000C01096005012910000148C00C0158761
:101A300000B0178200B0197D00D01B7800001E7323
:101A40000040206E0090226900F024640040275F6F
:101A50000090295A00E02B5500102E500020304BEA
:101A60000010324600E033410090353C001037371B
:101A70000070383200A0392D00B03A2800A03B2376
:101A800000603C1E00103D1900903D1400103E0FF8
:101A900000703E0A00C03E0500003F0000403FFBD2
:101AA000FF803FF6FFC03FF1FF3002B400300D8CE5
:101AB00000900E87005010820020127D0080147864
:101AC00000A016730060196E00E01B6900001F641F
:101AD00000B0215F0090245A0050275500302A5052
:101AE00000E02C4B00602F46009031410060333CF9
:101AF0000090343700B036320030382D00E03928FD
:101B000000203B2300203C1E00103D1900B03D1476
:101B100000303E0F00903E0A00203F0000F03FD80A
:101B2000FF4572723A204D494E54454D5020424572
:101B300044004572723A204D494E54454D50004D77
:101B4000494E54454D5020747269676765726564EB
:101B5000004572723A204D415854454D502042453F
:101B600044004572723A204D415854454D50004D45
:101B7000415854454D5020747269676765726564B9
:101B80000020204D383531205A005A2D50726F6296
:101B900065204F666673657420286D6D293A0A00CA
:101BA00020440020490020204D33303420500020B4
:101BB000440020490020204D333031205000204483
:101BC0000020490020500020204D333031204500B6
:101BD0005049442073657474696E67733A0A002033
:101BE000204D3432302053004175746F20426564BB
:101BF000204C6576656C696E673A0A0020590020B2
:101C0000580020204D323138205400486F74656EE2
:101C100064206F6666736574733A0A00205A002068
:101C2000590020204D323036205800486F6D652015
:101C30006F66667365743A0A00204500205A0020DA
:101C4000590020580020420020540020204D3230FE
:101C500035205300416476616E6365643A20533CDD
:101C60006D696E5F66656564726174653E20543CA3
:101C70006D696E5F74726176656C5F6665656472CE
:101C80006174653E20423C6D696E5F7365676D658A
:101C90006E745F74696D655F6D733E20583C6D6155
:101CA000785F78795F6A65726B3E205A3C6D617827
:101CB0005F7A5F6A65726B3E20453C6D61785F6557
:101CC0005F6A65726B3E0A0020540020520020209B
:101CD0004D323034205000416363656C657261742D
:101CE000696F6E2028756E6974732F7332293A20DC
:101CF000503C7072696E745F616363656C3E205224
:101D00003C726574726163745F616363656C3E20ED
:101D1000543C74726176656C5F616363656C3E0A06
:101D20000020450020204D323031205400205A0040
:101D300020590020204D3230312058004D61786903
:101D40006D756D20416363656C65726174696F6E5A
:101D50002028756E6974732F7332293A0A00204562
:101D60000020204D323033205400205A00205900EA
:101D700020204D3230332058004D6178696D756DEB
:101D8000206665656472617465732028756E697478
:101D9000732F73293A0A0020450020204D39322044
:101DA0005400205A0020590020204D39322058007C
:101DB00053746570732070657220756E69743A0A89
:101DC0000020204D3230302044300A0020204D3297
:101DD000303020543120440020204D323030204417
:101DE000002044697361626C65640A0046696C6135
:101DF0006D656E742073657474696E67733A002044
:101E000020473231202020203B20556E69747320FA
:101E1000696E206D6D0A00486F74656E64206F6690
:101E200066736574733A0043757272656E743A2016
:101E30000020643A0020693A0020703A0043290AE1
:101E40000061626C656420286D696E2074656D7038
:101E50002000436F6C64206578747275646573202C
:101E600061726520004B64200023646566696E65BD
:101E7000202044454641554C545F004B69200023C7
:101E8000646566696E65202044454641554C545F43
:101E9000004B70200023646566696E652020444510
:101EA0004641554C545F00504944204175746F744D
:101EB000756E652066696E6973686564212050756A
:101EC0007420746865206C617374204B702C204BF7
:101ED0006920616E64204B6420636F6E7374616E61
:101EE00074732066726F6D2062656C6F7720696E07
:101EF000746F20436F6E66696775726174696F6E87
:101F00002E680A00504944204175746F74756E65DF
:101F1000206661696C6564212074696D656F7574F4
:101F20000A00504944204175746F74756E652066CF
:101F300061696C6564212054656D706572617475AA
:101F4000726520746F6F20686967680A00204B64AF
:101F50003A2000204B693A2000204B703A20000ABA
:101F600020436C617373696320504944200A002048
:101F700054753A2000204B753A2000206D61783A64
:101F80002000206D696E3A200020643A2000206213
:101F90006961733A20000000200023002600290018
:101FA0002C002F003200000100000301060109018E
:101FB00005050505070508080808020202020A0AC5
:101FC00008080404040401010101010101010303E3
:101FD000030303030303040707070C0C0C0C0C0C8E
:101FE0000C0C0202020206060606060606060B0B8B
:101FF0000B0B0B0B0B0B01021020200808102040CC
:1020000010204080020102010804020101020408BC
:10201000102040808040201008040201800402014A
:102020008040201008040201080402010102040893
:1020300010204080010204081020408000000A0B9C
:1020400002090C0D0E080703040100000000000047
:102050000000000000000000000000000000000080
:10206000000000000000000012111000000000003D
:102070000000000000000000000000000000000060
:10208000000050726F62696E67206661696C6564FA
:102090000A004572726F723A00205A3A20002059A5
:1020A0003A200042656420583A2000206669727325
:1020B000740A005A0059005800486F6D6520006589
:1020C00063686F3A00544845524D414C2052554E7A
:1020D0004157415900546865726D616C2052756EAC
:1020E0006177617900205A3A0020593A0020436F05
:1020F000756E7420583A0020453A00205A3A002064
:10210000593A00583A00205A00205900580020201F
:102110004D61783A2000205A0020590058002020B4
:102120004D696E3A20004F6E20004F666600536F77
:10213000667420656E6473746F70733A2000526524
:1021400073656E643A20006F6B000000210024006C
:1021500027002A002D003000330001010000040197
:1021600007010A0100002200250028002B002E0094
:102170003100340002010000050108010B014E414D
:102180004E494E495459494E46CDCCCC3D0AD723F1
:102190003C17B7D13877CC2B329595E6241FB14F39
:1021A0000A000020410000C84200401C4620BCBE7E
:1021B0004CCA1B0E5AAEC59D74001CAC11241FBE28
:1021C000CFEFD1E2DEBFCDBF00E00CBF13E0A0E057
:1021D000B2E0EAEAF1E701E00BBF02C007900D921E
:1021E000A23BB107D9F724E1A2EBB3E001C01D92F5
:1021F000A832B207E1F710E1CEEDD0E100E006C071
:1022000021970109802FFE010E9490ACCD3DD1079E
:1022100080E00807A9F70E94E4A40C94D3B80C94BA
:1022200000002F923F924F925F926F927F928F9217
:102230009F92AF92BF92CF92DF92EF92FF920F9355
:102240001F93CF93DF93CDB7DEB7C857D1090FB631
:10225000F894DEBF0FBECDBF0091640620E6029F5A
:102260008001112409521C4F80910C1180FF38C04D
:10227000EFEBF0E284917F013FEFE31AF30A811163
:1022800002C0780104C00E94D230F701F3CFD70119
:102290008D917D01882319F00E94D230F8CF8AE019
:1022A0000E94D2306091640670E082E199E00E9461
:1022B000BC6190EFE92E92E0F92EF70181917F0148
:1022C000882319F00E94D230F8CF8AE00E94D230E1
:1022D00067ED73E96F6087ED93E0807F0E9446357C
:1022E00081E090E09093561180935511109258051B
:1022F000109257058FE380935B0510925A05109258
:1023000059051092CC031092CD031092CE03109277
:10231000CF03F80180810F5F1F4F8032D1F38E34DD
:10232000B1F4818190ED980F9A3020F08D3211F048
:102330008B3269F43296DF0131962C9120532A308A
:10234000D0F3CD01FC01019620812032D9F3F09326
:102350005D11E0935C117F012FEFE21AF20A108108
:102360006AE270E0C7010E94B7AF009731F0FC014C
:10237000319780818032E1F311821D3429F01435C8
:1023800019F0173409F0CFC0F70180813FEFE31A4D
:10239000F30A8032C9F380538A3008F0C4C0109326
:1023A0005B052091590530915A054AE03196429FCC
:1023B000C001439F900D1124DF0111972C91022E33
:1023C000000C330B20533109280F391F80818053B3
:1023D0008A3060F330935A0520935905DF01319616
:1023E0008C918032D9F31D3449F000915C114091F9
:1023F00057055091580561E070E058C02E31310505
:1024000091F03CF42731310571F02C31310569F739
:102410000AC0253731054CF32737310524F0203A1F
:1024200043E0340711F7B0935805A09357057BC0DC
:10243000813209F445C09FEBB92EB80E89E1A82E70
:10244000AB1408F45EC0DF01FD019081119690325B
:10245000D9F3A0EDA90FAA3008F047C04F01EB2C2B
:10246000F12C6701A3E0D594C794AA95E1F7C601C2
:1024700084539C4F6C018B2D8770DB0102C0AA0F27
:10248000BB1F8A95E2F7CD01D6019C91892B8C93D5
:1024900081149104A1F1801AC7018E549C4FDC0174
:1024A0008C92808181548A3188F5DF01FD0131965B
:1024B0008C918111BDCF509358054093570533C07F
:1024C0001D3409F0B8CF2032310509F0B4CFF093B4
:1024D0005805E093570563E270E0CF010E94B7AF63
:1024E000009709F1DC011C921EC0A3EDA90FA230D8
:1024F00008F4B4CF9B3211F00C946528AFCF812C37
:10250000CBCF4115510569F6AD01CBCFDF01319637
:102510009C9190539A30D0F3CD01FC010196A0819B
:10252000A032D9F3C2CF80915B058D3411F40C94A5
:10253000821B843511F40C941528873411F00C9407
:1025400044288091590590915A058D31910509F4DF
:10255000A1C6D4F48430910544F4823091050CF086
:1025600042C097FF34C00C945E288530910509F471
:102570003FC20CF400C24C9711F00C945E2880E02E
:102580000E94E1500C945E288A32910509F4CFC76D
:102590006CF48332910509F409C78432910509F47A
:1025A00009C74E9711F00C945E2878C68B359105BB
:1025B00009F409C78C35910509F40AC78A359105D4
:1025C00011F00C945E281092D6030C945E28809132
:1025D0001502882311F40C945E280E9453520E9425
:1025E0000A7B0C945E2820911502222311F40C948E
:1025F0005E2811E0029709F010E00E945352198200
:102600001A821B821C821D821E821F82188682E50E
:102610000E942836882309F42CC10E945A306B018D
:102620007C012091511230915212409153125091DD
:1026300054122E8F3F8F48A359A38090551290902B
:102640005612A0905712B090581280916611909136
:102650006711A0916811B09169118AA39BA3ACA3E3
:10266000BDA320916A1130916B1140916C11509172
:102670006D112EA33FA348A759A720E030E0A90180
:10268000C701B6010E947CB4882309F408C12E8DCD
:102690003F8D48A159A16AA17BA18CA19DA10E9457
:1026A0007CB481110BC0A50194016EA17FA188A506
:1026B00099A50E947CB4882309F4F1C020E030E0A1
:1026C000A901C701B6010E947CB4881F8827881F12
:1026D000181309C080E090E0A0E8BFE38EAB9FAB89
:1026E000A8AFB9AF08C020E030E040E85FEB2EAB08
:1026F0003FAB48AF59AF2E8D3F8D48A159A16AA17C
:102700007BA18CA19DA10E9498AC6EA77FA788ABEE
:1027100099ABA50194016EA17FA188A599A50E94FE
:1027200098AC6AAB7BAB8CAB9DAB2EA53FA548A903
:1027300059A9CA01B9010E94E2B42B013C012AA99E
:102740003BA94CA95DA9CA01B9010E94E2B49B0151
:10275000AC01C301B2010E9499AC0E9447AF6AA7C5
:102760007BA78CA79DA720E030E040E05FE30E94BC
:10277000E2B42B013C01A7019601C701B6010E94FA
:10278000E2B46B017C01A3019201C301B2010E947A
:10279000E2B49B01AC01C701B6010E9498AC0E9453
:1027A00047AF9B01AC016EA97FA988AD99AD0E948E
:1027B000E2B46B017C012AA13BA14CA15DA16E8D0D
:1027C0007F8D88A199A10E9499AC20E030E040E083
:1027D0005FE30E94E2B42B013C016AA97BA98CA9AA
:1027E0009DA990582AA53BA54CA55DA50E9493AD37
:1027F0009B01AC01C701B6010E94E2B49B01AC0190
:10280000C301B2010E9499AC2E8D3F8D48A159A100
:102810000E9498AC69837A838B839C832EA13FA10D
:1028200048A559A5C501B4010E9499AC20E030E04B
:1028300040E05FE30E94E2B42B013C012AA53BA5E6
:102840004CA55DA56EA57FA588A999A90E9493AD09
:102850009B01AC01C701B6010E94E2B49B01AC012F
:10286000C301B2010E9499ACA50194010E9498ACE9
:1028700012C089E40E942836882331F00E945A3021
:1028800069837A838B839C838AE40E942836882319
:1028900031F00E945A306D837E838F83988720E0C9
:1028A00030E0A90169817A818B819C810E947CB48E
:1028B00081110CC020E030E0A9016D817E818F8103
:1028C00098850E947CB4882309F43BC080E50E946F
:1028D0002836882341F00E94D535082F8536E8F048
:1028E000E2E9F0E202C000E018C084917F013FEF0E
:1028F000E31AF30A882321F00E94D230F701F5CFC2
:10290000EAECF2E084917F014FEFE41AF40A8823A5
:1029100021F00E94D230F701F5CF412FBE016F5F49
:102920007F4F002331F081E592E10E94257701502D
:10293000F4CF86E691E10E9425770E948D300C94B9
:102940005E28E2E9F0E284918F010F5F1F4F882338
:1029500021F00E94D230F801F6CFE4EBF2E084914E
:102960008F010F5F1F4F882311F40C945E280E9483
:10297000D230F801F4CF80E50E942836882329F070
:102980000E944A306B017C0103C0C12CD12C76011E
:1029900083E50E942836882361F00E945A3020E0A7
:1029A00030E04AE754E40E94E2B40E940CAE6B01AE
:1029B0007C010E947B3C0E948D3080915E11909141
:1029C0005F11A0916011B0916111C80ED91EEA1E6D
:1029D000FB1E0E948EA4DC01CB018C199D09AE095F
:1029E000BF09B7FD02C00C945E280E943873F1CF76
:1029F00080911502882311F40C945E280E94535292
:102A000089E40E942836882329F00E945A302B013D
:102A10003C0103C0412C512C32018AE40E9428362B
:102A2000882329F00E945A304B015C0103C0812C9D
:102A3000912C540180E50E942836882329F00E94B9
:102A40005A306B017C0103C0C12CD12C760181E589
:102A50000E942836882339F00E945A306E8F7F8F6B
:102A600088A399A304C01E8E1F8E18A219A250918C
:102A70000E11E1965FAFE1976091280270912902F3
:102A8000072E000C880B990B0E9483B4209138020A
:102A90003091390240913A0250913B020E94E2B4D7
:102AA0002AE037ED43E25CE30E94E2B4E5966CAFC6
:102AB0007DAF8EAF9FAFE5978091511290915212EA
:102AC000A0915312B09154128AA39BA3ACA3BDA3AF
:102AD000A3019201BC01CD010E9499AC27966CAF75
:102AE0007DAF8EAF9FAF27974090551250905612F2
:102AF0006090571270905812A5019401C301B20161
:102B00000E9499AC2B966CAF7DAF8EAF9FAF2B9789
:102B100020916611309167114091681150916911AF
:102B2000C701B6010E9499AC2F966CAF7DAF8EAFF6
:102B30009FAF2F9720916A1130916B1140916C11CA
:102B400050916D116E8D7F8D88A199A10E9499ACD5
:102B500063966CAF7DAF8EAF9FAF6397AAA0BBA00B
:102B6000CCA0DDA0A982BA82CB82DC824D825E82BB
:102B70006F8278860E948EA49B01AC0128533F4F40
:102B80004F4F5F4FAF962CAF3DAF4EAF5FAFAF979C
:102B90009DEC892E9CEC992EA92C9DE3B92E1E8EBE
:102BA0001AA21EA21AA60E94233A0E948EA48B018A
:102BB0009C01AF96CCACDDACEEACFFACAF970C1982
:102BC0001D092E093F0937FD0EC09B01AC0128539A
:102BD0003F4F4F4F5F4FAF962CAF3DAF4EAF5FAF04
:102BE000AF970E943873A5019401BE8DAAA1FEA1E2
:102BF000EAA56B2F7A2F8F2F9E2F0E9499AC2B0165
:102C00001C0120E030E040E85FE30E94F9AE1816B6
:102C100034F4412C512C00E8202E8FE3382E809183
:102C2000661190916711A0916811B0916911679632
:102C30008CAF9DAFAEAFBFAF6797A0905112B09071
:102C40005212C0905312D09054126B96ACAEBDAEDF
:102C5000CEAEDFAE6B973F922F925F924F92679608
:102C6000ACACBDACCEACDFAC67972F96ECACFDAC9A
:102C70000EAD1FAD2F9727962CAD3DAD4EAD5FAD80
:102C800027976B966CAD7DAD8EAD9FAD6B970E9417
:102C9000FD610F900F900F900F906EA77AAB8EABE7
:102CA0009AAFC0906A11D0906B11E0906C11F090C7
:102CB0006D116F96CCAEDDAEEEAEFFAE6F9720918C
:102CC0005512309156124091571250915812A396B6
:102CD0002CAF3DAF4EAF5FAFA3973F922F925F9265
:102CE0004F926F96ACACBDACCEACDFAC6F97639639
:102CF000ECACFDAC0EAD1FAD63972B962CAD3DAD8E
:102D00004EAD5FAD2B97A3966CAD7DAD8EAD9FADF7
:102D1000A3970E94FD610F900F900F900F906BAFE3
:102D20007CAF8DAF9EAF89819A81AB81BC81A79624
:102D30008CAF9DAFAEAFBFAFA797AD80BE80CF8049
:102D4000D884AB96ACAEBDAECEAEDFAEAB971FAE09
:102D50007E8D6AA19EA18AA5272F362F492F582F35
:102D6000642D752D822D932D0E9498AC2FE632E1B3
:102D700043E05BE30E947CB487FF04C0BFACB110AA
:102D8000BEC1A4C1242D352D422D532DBE8DAAA127
:102D9000FEA1EAA56B2F7A2F8F2F9E2F0E9499AC50
:102DA00020E030E040E05FE30E94E2B43B014C01F0
:102DB0009F928F937F926F936796ACACBDACCEAC75
:102DC000DFAC67972F96ECACFDAC0EAD1FAD2F9727
:102DD00027962CAD3DAD4EAD5FAD27976B966CAD94
:102DE0007DAD8EAD9FAD6B970E94FD610F900F90F2
:102DF0000F900F9021966FAF219722967FAF229769
:102E000023968FAF2397E0969FAFE0979F928F9284
:102E10007F926F926F96ACACBDACCEACDFAC6F97CF
:102E20006396ECACFDAC0EAD1FAD63972B962CAD4D
:102E30003DAD4EAD5FAD2B97A3966CAD7DAD8EAD28
:102E40009FADA3970E94FD610F900F900F900F9080
:102E50005B018C012EA53AA94EA95AADA7966CAD7F
:102E60007DAD8EAD9FADA7970E9499AC20E030E07C
:102E700040E05FE30E94E2B49B01AC0121966FAD9C
:102E8000219722967FAD229723968FAD2397E096C8
:102E90009FADE0970E9498AC6B017C01E894F7F835
:102EA0002BAD3CAD4DAD5EADAB966CAD7DAD8EAD9D
:102EB0009FADAB970E9499AC20E030E040E05FE32B
:102EC0000E94E2B49B01AC01B501C8010E9498AC1C
:102ED0009B01AC015F77C701B6010E9499AC2DEC54
:102EE0003CEC4CEC5DE30E947CB418160CF046CF31
:102EF000ABAEBCAE0DAF1EAF2196CFAC2197CEA628
:102F00002296DFAC2297DAAA2396EFAC2397EEAA9B
:102F1000E096FFACE097FAAE2301140121E02FAF59
:102F200017CFA7019601C701B6010E9499AC9B017A
:102F3000AC01BE8DAAA1FEA1EAA56B2F7A2F8F2F1F
:102F40009E2F0E9499AC962E872E782E692E20E017
:102F500030E040E85FE3D401F3016B2F7A2F8F2F2D
:102F60009E2F0E94F9AE87FFCAC06F927F928F9208
:102F70009F926796ACACBDACCEACDFAC67972F969A
:102F8000ECACFDAC0EAD1FAD2F9727962CAD3DAD33
:102F90004EAD5FAD27976B966CAD7DAD8EAD9FADA1
:102FA0006B970E94FD610F900F900F900F906FAF85
:102FB00021967FAF219722968FAF229723969FAFBE
:102FC00023976F927F928F929F926F96ACACBDAC1D
:102FD000CEACDFAC6F976396ECACFDAC0EAD1FAD25
:102FE00063972B962CAD3DAD4EAD5FAD2B97A39661
:102FF0006CAD7DAD8EAD9FADA3970E94FD610F902E
:103000000F900F900F905B018C012FAD21963FAD7B
:10301000219722964FAD229723965FAD2397A796CF
:103020006CAD7DAD8EAD9FADA7970E9499AC20E0B1
:1030300030E040E05FE30E94E2B49B01AC016EA58A
:103040007AA98EA99AAD0E9498AC6B017C01E89494
:10305000F7F89501A801AB966CAD7DAD8EAD9FAD37
:10306000AB970E9499AC20E030E040E05FE30E9423
:10307000E2B49B01AC016BAD7CAD8DAD9EAD0E9409
:1030800098AC9B01AC015F77C701B6010E9499AC77
:103090002DEC3CEC4CEC5DE30E94F9AE18167CF193
:1030A000ABAEBCAE0DAF1EAF3FAD3EA721964FAD50
:1030B00021974AAB22965FAD22975EAB23968FADE8
:1030C00023978AAF492C582C272C362C7E8D6AA149
:1030D0009EA18AA5272F362F492F582F642D752D95
:1030E000822D932D0E9498AC6B017C012DEC3CEC61
:1030F0004CEC5DE30E94F9AE18160CF012CF7E8DF9
:103100006AA19EA18AA5272F362F492F582F642DFB
:10311000752D822D932D0E9498AC4B015C018EA5DC
:103120009AA9AEA9BAAD89839A83AB83BC838BADD0
:103130009CADADADBEAD8D839E83AF83B887242D8E
:10314000352D422D532D60E070E080E89FE30E9412
:1031500098AC6B017C012091591230915A12409128
:103160005B1250915C120E94E2B46E8F7F8F88A335
:1031700099A320916E1130916F114091701150916F
:103180007111642D752D822D932D0E94E2B49B0147
:10319000AC016E8D7F8D88A199A10E9499AC698741
:1031A0007A878B879C8720915D1230915E124091C7
:1031B0005F1250916012C701B6010E94E2B46B0128
:1031C0007C012091721130917311409174115091D2
:1031D0007511642D752D822D932D0E94E2B49B01F3
:1031E000AC01C701B6010E9499AC6D877E878F87BD
:1031F000988BCE0101960E94C3A189819A81AB81EF
:10320000BC81898B9A8BAB8BBC8B8D819E81AF816E
:10321000B8858D8B9E8BAF8BB88F89859A85AB8552
:10322000BC85898F9A8FAB8FBC8FAE01475E5F4F95
:10323000BE016B5E7F4FCE0141960E944571E196C3
:10324000CFACE197E596ECACFDAC0EAD1FADE597CC
:103250009E01235F3F4FAE01475E5F4FBE016B5E35
:103260007F4FCE0141960E94246420E030E040E888
:103270005FE3642D752D822D932D0E947CB487FF12
:1032800005C04E8E5AA22EA23AA68DCC0E94112DB8
:103290000C945E280E9420540C945E2820E030E0BC
:1032A00040E050E46091511270915212809153129B
:1032B000909154120E9499AC6B017C0188E50E94A8
:1032C0002836882321F00E945A306B017C01C98A7C
:1032D000DA8AEB8AFC8A20E030E040EF51E460912A
:1032E00055127091561280915712909158120E9467
:1032F00099AC6B017C0189E50E942836882321F076
:103300000E945A306B017C01C982DA82EB82FC8216
:10331000409065125090661260906712709068122B
:1033200020916112309162124091631250916412A7
:1033300069897A898B899C890E9498AC4B015C01D0
:103340002BE33FED4FEF5FE30E94F9AE87FF02C032
:103350000C945E2822E430E045E453E4C501B40156
:103360000E947CB4181614F40C945E28A3019201F8
:10337000C701B6010E9498AC6B017C0124EF3DEFC0
:103380004FEE51E40E94F9AE87FF02C00C945E2814
:1033900022E430E045E453E4C701B6010E947CB466
:1033A000181614F40C945E280C946F280E94574F42
:1033B0000C945E2881E00E94E1500E94574F0E94C9
:1033C00020540C945E2881E08093D6030C945E28F0
:1033D00085E40E942836B82E811102C00E947B3CF1
:1033E000A7E68A2EA2E09A2EB1E5CB2EB2E1DB2E23
:1033F00012E8E12E11E1F12E00E010E0A12CD40141
:103400008D914D010E9428368823F1F1F60120812B
:10341000318142815381E6962FAFE697E7963FAF21
:10342000E797E8964FAFE897E9965FAFE9970E9474
:103430005A30D6016D937D938D939C931397E696A6
:103440002FADE697E7963FADE797E8964FADE89743
:10345000E9965FADE99703301105B1F00E9498AC91
:103460009B01AC01F70160817181828193810E948F
:1034700099ACD7016D937D938D939C931397C8015D
:103480000E94452FAA24A3940F5F1F4FB4E0CB0ED8
:10349000D11CE4E0EE0EF11C0430110509F0AFCFB1
:1034A000AA2019F00E949D2F3EC0BB20E1F1E091BF
:1034B0000E11E0930D11C0905D12D0905E12E0905D
:1034C0005F12F0906012ED5F24E0E29FF0011124A2
:1034D000E95CFE4E2081318142815381C701B601F2
:1034E0000E94E2B40E9406AF60930F137093101312
:1034F0008093111390931213C701B6010E9405AE79
:103500002FB7F894609317107093181080931910C8
:1035100090931A102FBF1092FF1210920013109266
:103520000113109202130E9475960C945E288091EC
:103530001502882311F40C945E2889E40E94283631
:10354000182F882321F00E94C535E62E01C0E12CFA
:103550008AE40E942836082F882331F00E94C5355E
:10356000F62E111104C00BC0F12C1123C1F032E072
:103570003E1510F00C94E22BE2EFF2E004C042E0C2
:103580004F15D0F30CC084918F010F5F1F4F88231C
:1035900011F40C945E280E94D230F801F4CF0E94FE
:1035A000072D112341F12091BE103091BF105E2DE7
:1035B0005203B001539F700D11248091BA10909165
:1035C000BB10680F791F072E000C880B990B0E9407
:1035D00083B4209161123091621240916312509134
:1035E00064120E9499AC6093661170936711809386
:1035F000681190936911002341F12091C01030911E
:10360000C1104F2D4203B001439F700D1124209132
:10361000BC103091BD10620F731F072E000C880B79
:10362000990B0E9483B420916512309166124091EB
:103630006712509168120E9499AC60936A1170935E
:103640006B1180936C1190936D1180E50E94F93598
:103650008823A1F10E94E935882381F11123B1F07B
:1036600020E030E040E050E4609166117091671115
:1036700080916811909169110E9498AC60936611D5
:103680007093671180936811909369110023B1F0D2
:1036900020E030E040EF51E460916A1170916B11CD
:1036A00080916C1190916D110E9498AC60936A1199
:1036B00070936B1180936C1190936D1186E40E944E
:1036C00028368823D9F00E945A306B017C0120E013
:1036D00030E0A9010E94F9AE181684F420E030E031
:1036E00040E752E4C701B6010E9493AD60933802EF
:1036F0007093390280933A0290933B020E940A7BB6
:103700000C945E288091590590915A058E3B910545
:1037100009F4B8C50CF09CC08436910509F456C272
:103720000CF051C08B34910509F42EC22CF5823176
:10373000910509F4C6C584F497FF02C00C945E2875
:10374000823091050CF459C1419711F00C945E2818
:103750000E9481760C945E288A32910509F4D0C1CA
:103760008033910509F40CC24F9711F00C945E2838
:103770000E945D600C945E288235910509F49AC51B
:103780007CF48D34910509F41DC20CF401C281351D
:10379000910511F00C945E280E94A8980C945E2864
:1037A0008435910509F48DC50CF487C585359105DF
:1037B00009F48AC58C35910511F00C945E280E949D
:1037C0008D970C945E288137910509F4B4C4FCF4FC
:1037D0008B36910509F46BC564F48936910509F4BB
:1037E000F3C40CF061C58836910509F40DC40C943E
:1037F0005E288E36910509F43DC48F36910509F493
:103800004CC48D36910511F00C945E2823C5873782
:10381000910509F43FC664F48337910509F472C534
:103820000CF46BC58637910509F4FDC50C945E2830
:103830008937910509F4B8C60CF4B0C68C389105E7
:1038400009F4A5C48B39910509F4DBC40C945E28F6
:10385000803351E0950711F40C9414240CF063C0EC
:103860008A3D910511F40C94082424F58C3C9105B3
:1038700009F45EC774F4893C910509F4FFC68B3CDA
:10388000910509F42CC7883C910511F00C945E2831
:1038900090C68E3C910511F40C94052414F40C94FC
:1038A0000224833D910511F00C945E280E947595C9
:1038B0000C945E288E30B1E09B0711F40C94912497
:1038C0009CF48D3D910511F40C940B24823E9105DE
:1038D00011F40C940E248C3D910511F00C945E288B
:1038E0000E94E58F0C945E288D32F1E09F0711F461
:1038F0000C9411244CF48C32914011F00C945E28FD
:103900000E94088F0C945E288E3241E0940711F4D7
:103910000C9494248F32914011F00C945E280E94F4
:1039200083890C945E28853FA1E09A0711F40C94DA
:103930006E26A4F58239E1E09E0711F40C949E24D2
:1039400084F4803921E0920711F40C94972414F048
:103950000C949A248336914011F40C94C5270C944E
:103960005E28853A51E0950711F40C94FA243CF452
:10397000843A914011F40C94A2240C945E288C3A61
:10398000E1E09E0711F40C948E25843F914011F0E4
:103990000C945E280E94D74A0C945E288B3823E052
:1039A000920711F40C94E32694F4873F41E09407C6
:1039B00011F40C94742614F40C94712683359340FE
:1039C00011F00C945E28EFEBF0E20C9482268D3817
:1039D000B3E09B0711F40C94402714F40C940F27C8
:1039E0008E38F3E09F0711F40C94BD27873E934077
:1039F00011F40C9405280C945E28A0905705B09003
:103A0000580580E50E942836882359F00E944A30E4
:103A10006B017C0111E0672B682B692B31F410E0FE
:103A200004C010E0C12CD12C760183E50E94283619
:103A3000882399F00E945A3020E030E04AE754E4AD
:103A40000E94E2B40E940CAE6B017C0111110CC00B
:103A5000672B682B692B41F43AC0111105C0A114E2
:103A6000B10411F00C94C52883E090E090935611B6
:103A70008093551181E08093D0030E947B3C0E948B
:103A80008D30C114D104E104F10499F180915E11EB
:103A900090915F11A0916011B0916111C80ED91E73
:103AA000EA1EFB1E0E948EA4DC01CB018C199D092D
:103AB000AE09BF09B7FD04C01092D0030C945E2874
:103AC0008091D0038823C1F30E943873EBCFA114F7
:103AD000B10411F00C94C52883E090E09093561146
:103AE0008093551181E08093D0030E947B3C0E941B
:103AF0008D308091D0038823F9F20E943873F9CF7A
:103B000083E50E942836882311F40C945E280E94D5
:103B1000D535E82E80E50E942836882311F40C94D0
:103B20005E280E94C535162FC62ED72ED7FE02C09E
:103B30000C945E28E1E1F3E080E38E0F9491191775
:103B400029F031968E13FACF0C94E428E2E9F0E2E2
:103B500084918F010F5F1F4F882321F00E94D23084
:103B6000F801F6CFE1E4F3E084918F010F5F1F4F7E
:103B7000882311F40C945E280E94D230F801F4CF0F
:103B80000E94B65A0C945E280E94B3910C945E2851
:103B90008091331390913413019711F00C945E28A7
:103BA00082E090E090933413809333130E948EA4AC
:103BB00060933D1370933E1380933F139093401393
:103BC0000C945E280E945E900C945E2880912214D2
:103BD000909123140E94389B60E472E081E595E0A7
:103BE0000E94D56188E294E10E94389B60E472E013
:103BF00083E495E00E94D561E0902214F0902314B4
:103C0000E114F10421F4F8E2EF2EF4E1FF2EC701F4
:103C10000E94389B60E472E08BE295E00E94D561DF
:103C20006E01FEE1CF0ED11CC6010E94389B60E4FC
:103C300072E089E195E00E94D5618AE00E94D2306D
:103C40008091000281110C94FB2889E40E94F935CF
:103C500081110C94FB2884E40E94F935882331F00B
:103C6000B601C7010E9446350C945E2886E40E9486
:103C7000F935882309F465C1CE18DF08A12CB12CD1
:103C8000212C312C412C512C66246A94762CAC14B6
:103C9000BD04CCF547018A0C9B1CD4018C91853E58
:103CA00071F5F40100E010E08191853E31F00150A2
:103CB0001109093011051CF107C00F5F1F4F0115D5
:103CC000BDE71B0789F71BC0B8018CED94E00E948B
:103CD000BC61C4010E94389B60E472E08CEC94E00B
:103CE0000E94D5618AE00E94D2306016710614F4F9
:103CF00014013801A00EB11EEFEF4E1A5E0AFFEF5D
:103D0000AF1ABF0AC4CF22E042165104ECF0EAE930
:103D1000F4E084918F010F5F1F4F882321F00E94F0
:103D2000D230F801F6CFB30182E894E00E94BC6182
:103D3000C1010E94389B60E472E087E794E00E9432
:103D4000D5618AE00E94D23002E013E0D8018D9163
:103D50008D01882319F00E94D230F8CFC090221430
:103D6000D0902314C114D10421F478E2C72E74E159
:103D7000D72E8E010E5E1F4F5801AC18BD08B5013D
:103D800087E494E00E94BC6182E294E10E94389B47
:103D900060E472E08AE394E00E94D561809122148D
:103DA000909123140E94389B60E472E088E394E0D1
:103DB0000E94D56188E294E10E94389B60E472E041
:103DC0008BE294E00E94D561C8010E94389B60E4B8
:103DD00072E086E294E00E94D5610C151D0528F57D
:103DE000EAE1F4E084918F010F5F1F4F882321F0F7
:103DF0000E94D230F801F6CF64E170E080E090E0FC
:103E00000E94517F0AE013E0F80181918F0188231D
:103E100019F00E94D230F8CF8AE00E94D2306FEFC2
:103E200071E280E89BE10E944635812C912CE12CC7
:103E3000F12C8A149B04BCF5F601E80DF91D808174
:103E4000853E69F580E090E02191253EC1F08C012E
:103E5000015011090930110514F1800E911E3FEF38
:103E6000E31AF30AB70187E194E00E94BC61B8014C
:103E70008EE094E00E94BC61EAE0F4E006C00196A6
:103E800081152DE7920701F70AC084918F010F5F1A
:103E90001F4F882321F00E94D230F801F6CF4FEF58
:103EA000841A940AC6CF6701B7018BEF93E00E9492
:103EB000BC6151E0E516F10431F480912214909137
:103EC0002314892B81F009EC13E0F80184918823F5
:103ED00029F00F5F1F4F0E94D230F7CFEF2819F45F
:103EE000CC24CA94DC2C00EC13E0F80184918823E4
:103EF00029F00F5F1F4F0E94D230F7CFF1E0CF16AD
:103F0000D10449F480E30E94D2308AE00E94D2308A
:103F100060E070E00DC0EAEBF3E084918F010F5F89
:103F20001F4F882321F00E94D230F801F6CFB6014E
:103F300081E594E00E94BC618AE00E94D2300C943A
:103F40005E2883E40E94F935882311F40C945E28DE
:103F50000E94C5356B019E012E193F093A956F5F8E
:103F60007F4FC9010E9468AC8B01E9EFF4E08491B6
:103F70005F012FEFA21AB20A811108C0C80108968A
:103F8000E80EF91EAA24A394B12C04C00E94D230DA
:103F9000F501EDCFCA14DB0490F1D701AC92C70153
:103FA0000E94389B60E472E083EE94E00E94D56149
:103FB000BFEFAB1ABB0AE00EF11EECCF80910C11E3
:103FC000882309F4ABC03EE5C32E35E0D32EE12CA7
:103FD000F12C20E080910C1190E00E2C02C0959500
:103FE00087950A94E2F780FD81C0FFEFEF1AFF0A80
:103FF00032E0C30ED11C45E0E416F10459F78AE023
:104000000E94D2300C945E2888E690E00E943536FB
:1040100081110C945E2880910C1183FF02C00C94D6
:104020005E2883E50E942836882301F10E945A30D9
:10403000F090D1030F2D10E0000F111F0B531E4EF7
:104040000E9405AEF801718360838F2D0E94F28279
:104050000E945A3020E030E04AEA52E40E947CB4E8
:10406000181614F00E945E900E945A300E94ECAB29
:104070000C945E288EE40E942836882311F40C9458
:104080005E280E94C5356093DD137093DE13809324
:10409000DF139093E0130C945E2883E50E94F935BA
:1040A000882359F083E50E942836882319F00E945E
:1040B000D53501C080E080930C11EFEBF0E28491E4
:1040C0008F010F5F1F4F882321F00E94D230F8012B
:1040D000F6CFECE6F5E084918F010F5F1F4F882348
:1040E00009F46CCF0E94D230F801F5CFBB24B39411
:1040F000B20E222319F08CE20E94D230F6012591F3
:104100003491F901849189010F5F1F4F882321F0B9
:104110000E94D2309801F5CF2B2D67CFE8E6F5E06D
:1041200084918F010F5F1F4F882309F468CF0E948D
:10413000D230F801F5CF83E50E942836882369F054
:104140000E94D53580932A028D3310F40C945E289A
:104150008CE380932A020C945E28EFEBF0E28491CA
:104160008F010F5F1F4F882321F00E94D230F8018A
:10417000F6CF40912A0250E060E070E083E795E0DE
:104180000E9465618AE00E94D2300C945E28809182
:104190000C1183FF02C00C945E2883E50E94283630
:1041A000882311F40C945E280E945A300E9405AEB8
:1041B0006E37710514F06DE770E07093C411609371
:1041C000C3110E94A7827AC789E690E00E94353623
:1041D000811111C0EAE7F5E084918F010F5F1F4F55
:1041E000882321F00E94D230F801F6CF0E94C459F2
:1041F0008AE00E94D23010925611109255110C9400
:10420000E92B83E50E942836882309F457C70E94CA
:10421000D53580935B118D3318F08CE380935B115F
:104220000E948EA46B017C0120915B1130E0A8EE0E
:10423000B3E00E94C4B8DC01CB018C0D9D1DAE1D06
:10424000BF1D8093571190935811A0935911B093AB
:104250005A1134C78DE690E00E94353681112EC781
:1042600080910C1183FD2AC783E50E9428368EA316
:1042700081110C94642982E50E94283681110C94E6
:1042800064291CC780910C1183FD18C783E50E9427
:1042900028368EA381110C94AB2A82E50E94283621
:1042A00081110C94AB2A0AC70E94CD9807C70E94BF
:1042B000BE9804C71092D50301C781E08093D5034F
:1042C000FDC60E945098FAC683E50E94F9358823FE
:1042D00009F4F4C60E945A3020E030E04AE754E482
:1042E0000E94E2B40E940CAE60936211709363115D
:1042F0008093641190936511E1C60E947B3C0E94FB
:104300007596DCC6E0E6F6E084918F010F5F1F4FE3
:10431000882321F00E94D230F801F6CFE2E5F6E0E2
:1043200084918F010F5F1F4F882321F00E94D230AC
:10433000F801F6CFEBE3F6E084918F010F5F1F4F9A
:10434000882321F00E94D230F801F6CFEBE2F6E0AC
:1043500084918F010F5F1F4F882321F00E94D2307C
:10436000F801F6CFEAE1F6E084918F010F5F1F4F6D
:10437000882321F00E94D230F801F6CFE9E0F6E080
:1043800084918F010F5F1F4F882321F00E94D2304C
:10439000F801F6CFEAEFF5E084918F010F5F1F4F30
:1043A000882321F00E94D230F801F6CFE5EEF5E047
:1043B00084918F010F5F1F4F882321F00E94D2301C
:1043C000F801F6CFEFECF5E084918F010F5F1F4FFE
:1043D000882321F00E94D230F801F6CFEAEBF5E015
:1043E00084918F010F5F1F4F882321F00E94D230EC
:1043F000F801F6CFEDE9F5E084918F010F5F1F4FD3
:10440000882321F00E94D230F801F6CFE5E8F5E0EC
:1044100084918F010F5F1F4F882309F44FC60E94BC
:10442000D230F801F5CF85E40E94F935882381F078
:104430000E94E935882361F0EFEBF0E284918F016F
:104440000F5F1F4F882321F00E94D230F801F6CF72
:1044500081E40E94F935882381F00E94E9358823A0
:1044600061F0E4E3F7E084918F010F5F1F4F882331
:1044700021F00E94D230F801F6CF0091570510913B
:104480005805D8018D918D01882309F4B8CD0E947B
:10449000D230F7CFE8E5F7E084918F010F5F1F4F2F
:1044A000882321F00E94D230F801F6CFE0E5F7E052
:1044B00084918F010F5F1F4F882321F00E94D2301B
:1044C000F801F6CF659903C009ED12E002C00EEDC8
:1044D00012E0F80181918F01882319F00E94D230F7
:1044E000F8CF8AE00E94D230E8E4F7E084918F01AF
:1044F0000F5F1F4F882321F00E94D230F801F6CFC2
:104500008091030181FD03C009ED12E002C00EEDB0
:1045100012E0D8018D918D01882319F00E94D230CC
:10452000F8CF8AE00E94D230E0E4F7E084918F0176
:104530000F5F1F4F882321F00E94D230F801F6CF81
:104540004A9903C009ED12E002C00EED12E0F80135
:1045500081918F01882319F00E94D230F8CF8AE030
:104560000E94D230E8E3F7E084918F010F5F1F4F84
:10457000882321F00E94D230F801F6CF4B9903C076
:1045800009ED12E002C00EED12E0D8018D918D010F
:10459000882309F434CD0E94D230F7CF81E0809394
:1045A00001068093C2108AC5109201061092C210B3
:1045B00085C588EC90E00E94353681117FC584E482
:1045C0000E94F935882309F456C00E945A3011E040
:1045D00020E030E0A9010E947CB4811101C010E00C
:1045E00010935012112309F446C00091D10310E03A
:1045F0000E945A30000F111F000F111FF801E85BD5
:10460000FD4E608371838283938320E030E0A901B3
:10461000609148127091491280914A1290914B1208
:104620000E947CB481110CC080E090E0A0EEBFE35A
:104630008093481290934912A0934A12B0934B1260
:1046400020E030E0A90160914C1270914D128091F0
:104650004E1290914F120E947CB481110CC080E0E8
:1046600090E0A0EEBFE380934C1290934D12A09384
:104670004E12B0934F120E948E7620C589EC90E0C6
:104680000E94353681111AC557E6C52E52E0D52E47
:10469000F12CF60181916F010E94F9358823C1F058
:1046A000F3E0FF1203C00091D10301C000E00E94BB
:1046B0005A300F0D24E0029F800111240D5D1E4E23
:1046C0000E940CAED8016D937D938D939C931397AC
:1046D000F394B4E0FB12DDCF0E94D462EFC48BEC04
:1046E00090E00E9435368111E9C447E6E42E42E0AD
:1046F000F42E00E0F70181917F010E94F9358823B3
:1047000099F0033019F41091D10301C010E00E9418
:104710005A30100F24E0129FF0011124EE51FF4E89
:1047200060837183828393830F5F043019F7C6C45B
:1047300083E50E94F9358823D9F00E945A30AB01F5
:10474000BC014093DA105093DB106093DC1070933F
:10475000DD104093D6105093D7106093D81070930B
:10476000D9108CEC97E00E949F618AE00E94D230C1
:1047700080E50E94F935882399F00E945A30AB01F8
:10478000BC014093DA105093DB106093DC107093FF
:10479000DD108FEA97E00E949F618AE00E94D2308C
:1047A00082E50E94F935882399F00E945A30AB01C6
:1047B000BC014093DE105093DF106093E0107093C3
:1047C000E11080E997E00E949F618AE00E94D23068
:1047D00084E50E94F935882309F470C40E945A3098
:1047E000AB01BC014093D6105093D7106093D81002
:1047F0007093D91082E797E00E949F618AE00E943F
:10480000D2305CC40E940B9659C40E94349756C49F
:104810000E94F18F53C40E94CA8F50C40E946F8FB0
:104820004DC40E946B8E4AC480E50E94F9358823EE
:1048300051F00E945A3060932F1070933010809383
:1048400031109093321089E40E94F935882381F069
:104850000E945A302CEA35EC47E25EE30E94E2B453
:1048600060932B1070932C1080932D1090932E102A
:1048700084E40E94F935882381F00E945A302CEAA2
:1048800035EC47E25EE30E9493AD6093271070938E
:1048900028108093291090932A10EFEBF0E2849176
:1048A0008F010F5F1F4F882321F00E94D230F80143
:1048B000F6CF40912F1050913010609131107091CF
:1048C00032108CEF97E00E949F612CEA35EC47E2B2
:1048D0005EE360912B1070912C1080912D109091BF
:1048E0002E100E9493ADAB01BC0188EF97E00E94AF
:1048F00082612CEA35EC47E25EE36091271070910B
:1049000028108091291090912A100E94E2B4AB01E6
:10491000BC0184EF97E00E9482618AE00E94D2305D
:10492000CDC30E943D8FCAC30E94158EC7C30E948B
:104930007B3CC4C381E00E94B22EC0C380E00E94D1
:10494000B22EBCC386E50E94F935882341F08091E0
:10495000BE109091BF10892B11F00E9459AB83E5D6
:104960000E94F935182F882319F00E94E935182F75
:1049700083E50E94F935882319F0812F0E949B2C32
:10498000F090C410111103C0EFEBF0E21AC0F11067
:10499000FBCFE2E9F0E284918F010F5F1F4F882384
:1049A00021F00E94D230F801F6CFEEE0F8E08491D9
:1049B0008F010F5F1F4F882339F30E94D230F80117
:1049C000F6CF84918F010F5F1F4F882321F00E9443
:1049D000D230F801F6CFF11003C06CEE72E002C0E5
:1049E00068EE72E080E098E00E94D5618AE00E9463
:1049F000D23064C389E40E942836882321F00E94C3
:104A0000C535062F01C00FEF8AE40E94283688239F
:104A100021F00E94C535162F01C01FEF8AE50E94C4
:104A2000F935F82E811105C081E50E94F935D82E9F
:104A300001C0D12C07FD02C017FF03C0E2E9F0E27C
:104A400005C0F1101AC0D11018C0F8CF84918F01A1
:104A50000F5F1F4F882321F00E94D230F801F6CF5C
:104A6000ECE4F8E084918F010F5F1F4F882309F475
:104A700025C30E94D230F801F5CF033018F0E2E9E7
:104A8000F0E206C01330D8F716C00E94D230F80109
:104A900084918F010F5F1F4F8111F7CFEDE2F8E096
:104AA00084918F010F5F1F4F882309F407C30E9471
:104AB000D230F801F5CFE02E000FFF08012F110FC3
:104AC000110B0E945A30D701AA0FBB1FDD2081F0C5
:104AD000FD01EE0DFF1DE00FF11FEE0FFF1FEE0FAA
:104AE000FF1FE854FD4E208131814281538103C074
:104AF00020E030E0A901EA0EFB1E0E0D1F1D000F85
:104B0000111F000F111F08541D4E0E9499ACD801AF
:104B10006D937D938D939C931397D0C253E3C52ED1
:104B200056E0D52E61E5E62E62E1F62E70EE272ED8
:104B300072E1372E00E010E0F101E05EF241FF8FFC
:104B4000EE8FD1018D911D01882309F49AC0F701E0
:104B50004080518062807380F801E95BFD4F2081C5
:104B6000318142815381F801EF51FC4E60817181A6
:104B7000828193810E9499AC20E030E040E05FE3C5
:104B80000E94E2B49B01AC01C301B2010E94F9AEE4
:104B9000181644F4F801E55CF64E85909590A590C2
:104BA000B49003C0812C912C5401F801EF59FD4EB3
:104BB0002081318142815381C301B2010E9498ACAE
:104BC0009B01AC01C501B4010E9498AC4B015C0192
:104BD00020E030E040EA51EC0E94F9AE87FD29C0A8
:104BE00020E030E040EA51E4C501B4010E947CB409
:104BF0001816FCF0D6012D913D914D915C91C501A7
:104C0000B4010E9498AC9B01AC01C301B2010E94A7
:104C100099ACF7016083718382839383D6018D926F
:104C20009D92AD92BC9213978E8D9F8D0E94452FC1
:104C300028C0E2E9F0E284918F010F5F1F4F8823C3
:104C400021F00E94D230F801F6CFECE6F8E0849132
:104C50008F010F5F1F4F882321F00E94D230F8018F
:104C6000F6CF88E290E09A83898388EC90E09A8B73
:104C7000898BBE016F5F7F4FCE0141960E941895D0
:104C80001DC2B4E0CB0ED11C0C5F1F4FE4E0EE0E52
:104C9000F11C0C30110509F04FCF0E949D2F0E948E
:104CA000759683E992E09A8B898B04E610E01A836B
:104CB0000983BE016F5E7F4FCE0101960E94189559
:104CC0008AEB92E09A8B898B1A830983BE016F5E0F
:104CD0007F4FCE0101960E941895F0C10E949D451C
:104CE000EDC10E942044EAC183E50E94F935882382
:104CF00019F00E94E93501C081E091E089270E9406
:104D00006084DCC184918F010F5F1F4F882321F0E5
:104D10000E94D230F801F6CFE4EAF8E084918F01E6
:104D20000F5F1F4F882321F00E94D230F801F6CF89
:104D30008AE50E94F9358823C9F10E945A306B0137
:104D40007C0120E030E040EA51EC0E94F9AE87FDA2
:104D500020C020E030E040EA51E4C701B6010E94E3
:104D60007CB41816B4F0C092DC12D092DD12E0923E
:104D7000DE12F092DF120E941E926091DC1270919E
:104D8000DD128091DE129091DF1242E00E94C93361
:104D900036C9EDE8F8E084918F010F5F1F4F88233B
:104DA00009F42DC90E94D230F801F5CF4091DC12F0
:104DB0005091DD126091DE127091DF128AE898E066
:104DC0000E949F611CC983E50E94F935811106C0CC
:104DD00047E6E42E42E0F42E10E012C00E945A3062
:104DE0006B017C0110E0B701A601812F0E94EF3B0F
:104DF0001F5F1530C1F7ECCF1F5F143009F45EC19F
:104E0000D7018D917D010E94F9358823A9F30E9475
:104E10005A30AB01BC01812F0E94EF3BEDCF83E5FF
:104E20000E942836882321F00E94C5358B0102C0DC
:104E300000E010E080E50E942836882319F00E94E7
:104E4000D53501C08FEF90912F06992309F436C113
:104E5000E82FF0E0E958FD4FE081F0E0EE0FFF1F92
:104E6000E95DF94FC8010130104110F080E090E198
:104E7000918380830E945C9C88E00E944B9C1EC1B1
:104E800080912F06882309F419C1EFEBF0E2849199
:104E90008F010F5F1F4F882321F00E94D230F8014D
:104EA000F6CFEDECF8E084918F010F5F1F4F882360
:104EB00021F00E94D230F801F6CFEFEBF0E28491BE
:104EC0008F010F5F1F4F882321F00E94D230F8011D
:104ED000F6CF80E00E94D13BAB01BC0189EC98E0A9
:104EE0000E949F6180E00E94B03BAB01BC0186EC58
:104EF00098E00E949F6181E00E94D13BAB01BC0120
:104F000081EC98E00E949F6181E00E94B03BAB0180
:104F1000BC018EEB98E00E949F6182E00E94D13B31
:104F2000AB01BC0189EB98E00E949F6182E00E9486
:104F3000B03BAB01BC0186EB98E00E949F6183E02F
:104F40000E94D13BAB01BC0181EB98E00E949F61C4
:104F500083E00E94B03BAB01BC018EEA98E00E9466
:104F60009F6106E313E0F80181918F01882311F41A
:104F70000C94FF1F0E94D230F6CF80912F06882319
:104F800009F49CC00E94A69C99C080E50E94283626
:104F9000882331F00E94D5358093310611E001C09D
:104FA00010E083E50E942836882329F00E94E93525
:104FB0008093320601C011110E947389EFEBF0E279
:104FC00084918F010F5F1F4F882321F00E94D23000
:104FD000F801F6CF8091320681110CC008E313E08E
:104FE000D8018D918D01882311F40C94FF1F0E942C
:104FF000D230F6CF6091310670E082EF98E00E94E7
:10500000BC618AE00E94D23059C081E080931502D1
:1050100083E50E94F935811103C00E9479A24EC038
:105020000E94E93581114AC0F8CF1091590580914D
:105030000E11181751F083E50E94F935082F8823C7
:1050400029F00E94E935082F01C001E086E40E94A2
:105050002836882319F00E945A3003C060E070E0BF
:10506000CB01123020F0812F0E94498927C020E017
:1050700030E040E752E40E9493ADAB01BC01202F29
:10508000812F0E940E7C1AC0EFEBF0E284918F0119
:105090000F5F1F4F882321F00E94D230F801F6CF16
:1050A00060915C1170915D118FEF98E00E94D56165
:1050B00082E20E94D2308AE00E94D23010925611D1
:1050C000109255110E945AA284C34115510519F43A
:1050D000AF0141505109812C912C0C942F1280E08A
:1050E0000E949B2C0E94B23083E50E94F9358823F0
:1050F00009F449C00E94E93521E0482FBE016F5FE5
:105100007F4FCE0141960E94E8926B017C019B018A
:10511000AC010E948BAF811131C02CEA35EC47E223
:1051200057E369897A898B899C890E9499ACAB0184
:10513000BC018AEE92E00E9482612CEA35EC47E2E3
:1051400057E369817A818B819C810E9499ACAB0184
:10515000BC0185EE92E00E9482612CEA35EC47E2C8
:1051600057E3C701B6010E9499ACAB01BC0180EEC8
:1051700092E00E9482618AE00E94D2300E949830C0
:105180000E9475969BCF81E0B7CFD5018C91882383
:1051900011F40C94341DEFEBF0E284918F010F5F5A
:1051A0001F4F882321F00E94D230F801F6CFF5017D
:1051B00081915F01882319F00E94D230F8CF8AE0F4
:1051C0000E94D2300C94341D61E0812F0E944FA3C5
:1051D0006E2D812F0E941FA3F12CB701812F0E94F9
:1051E0008BA3B7E0CB16D10409F068CFF09203117E
:1051F000E092021163CF10920002E7E9F3E084919C
:105200008F010F5F1F4F882321F00E94D230F801D9
:10521000F6CF5601AE18BF082AEFA21AB108B7FEA2
:105220000DC00FE713E0F8018491882311F40C946A
:105230002B1E0F5F1F4F0E94D230F5CF8701085FF2
:105240001F4FA50165EE7FEFC8010E94B0AFB50109
:105250000B2C000C880B990B0E949331EFE5F3E0C7
:1052600084914F012FEF821A920A811103C0812C81
:10527000912C25C00E94D230F401F2CFD8018C913C
:10528000853EC1F0C8010E94389B60E472E082E56F
:1052900093E00E94D561F80180810E94689BBC0167
:1052A00080E593E00E94D5618AE00E94D2308AE0D6
:1052B0000E94D230FFEF8F1A9F0A0F5F1F4F8A1490
:1052C0009B04E4F20C942B1E0E945A30F090D10300
:1052D0000F2D10E0000F111F0B531E4E0E9405AE44
:1052E000F801718360838F2D0E94F2820E945A30F0
:1052F00020E030E04AEA52E40E947CB418161CF028
:105300000E945E9002C00E94B3910E94ECAB81E0CB
:10531000809301021AA21BA21CA21DA21AA61BA600
:105320001CA61DA61E8E1EA65CE35AAB8CE18EAB9E
:1053300096E49AAFC12CD12C90E8E92E2FEBF22EF7
:10534000812C912C54010091D10310E0F801EE0F53
:10535000FF1FEB53FE4E60817181072E000C880BFE
:10536000990B0E9483B4762E672E582E492E262F35
:10537000372F482F592FB601C7010E947CB48823CC
:10538000E9F0000F111F000F111FF801E055FE4E4C
:105390002081318142815381672D762D852D942D79
:1053A0000E947CB4881F8827881F8E8FCEA0CC20B7
:1053B00049F0882339F08091010280CE7C2C6D2C3D
:1053C0005E2C4F2C0E948EA46B017C01DC01CB0172
:1053D0002AA53BA54CA55DA5821B930BA40BB50B81
:1053E000B7FD3AC0D701C60188519C4FAF4FBF4FA0
:1053F0008AA79BA7ACA7BDA70E94C459EDE7F5E01B
:1054000084918F010F5F1F4F882321F00E94D230BB
:10541000F801F6CF81149104A104B104B9F0D501CB
:10542000C401805F984DAF4FBF4FBC01CD016C19D7
:105430007D098E099F0928EE33E040E050E00E948C
:1054400070B8CA01B9010E94933103C08FE30E9472
:10545000D2308AE00E94D2300E9438730E948D3090
:10546000E091D10394E0E99FF0011124E055FE4E54
:1054700020803180028113819101A801672D762D52
:10548000852D942D0E9498AC9F7781149104A104DE
:10549000B10449F420E030E040E85FE30E947CB4CE
:1054A00087FF0BC008C020E030E040E450E40E94D9
:1054B000F9AE181614F446015701AE8DAA2379F1FE
:1054C0002AA13BA14CA15DA1211531054105510542
:1054D00041F0D701C601821B930BA40BB50BB7FD9E
:1054E0001EC09101A8016EA57AA98EA99AAD0E944D
:1054F00098AC20E030E040EC5FE30E947CB487FD94
:105500005ACFD701C601805A9541AF4FBF4F8AA3EA
:105510009BA3ACA3BDA32EA63AAA0EAB1AAF809153
:105520000102882309F447CF81149104A104B10436
:1055300029F4C72CD62CE52CF42C05CF90E1C91A00
:1055400097E2D90AE108F108C818D908EA08FB0867
:10555000F7FE31CFEECF0E945A300E9405AE6E3773
:10556000710514F06DE770E07093C4116093C3117E
:105570000E94A7820E945A3020E030E040EA50E4C6
:105580000E94F9AE181614F40E94B39181E0809342
:10559000010280910E118093D1031AA21BA21CA2BA
:1055A0001DA21AA61BA61CA61DA61E8E1EA6ACE337
:1055B000AAABBCE1BEABE6E4EAAFC12CD12CF0E86B
:1055C000EF2EAFEBFA2E812C912C54016091C31178
:1055D0007091C411072E000C880B990B0E9483B4A4
:1055E000162F072F782E692E262F372F482F592F49
:1055F000B601C7010E947CB48823D1F02091BE116E
:105600003091BF114091C0115091C111612F702F85
:10561000872D962D0E947CB4881F8827881F8E8F27
:10562000CEA0CC2049F0882339F08091010246CDEC
:105630001C2D0D2D7E2C6F2C0E948EA46B017C01E5
:10564000DC01CB012AA53BA54CA55DA5821B930BD4
:10565000A40BB50BB7FD3BC0D701C60188519C4FC9
:10566000AF4FBF4F8AA79BA7ACA7BDA70E94C45945
:10567000E1E8F5E084912F019FEF491A590A882348
:1056800021F00E94D230F201F5CF81149104A104DF
:10569000B104B9F0D501C401805F984DAF4FBF4F41
:1056A000BC01CD016C197D098E099F0928EE33E0FC
:1056B00040E050E00E9470B8CA01B9010E949331E5
:1056C00003C08FE30E94D2308AE00E94D2300E9451
:1056D00038730E948D302090BE113090BF114090E1
:1056E000C0115090C1119101A201612F702F872D1F
:1056F000962D0E9498AC9F7781149104A104B10467
:1057000049F420E030E040E85FE30E947CB487FF8A
:105710000BC008C020E030E040E450E40E94F9AE45
:10572000181614F446015701AE8DAA2379F12AA167
:105730003BA14CA15DA1211531054105510541F069
:10574000D701C601821B930BA40BB50BB7FD1EC07E
:105750009101A2016EA57AA98EA99AAD0E9498AC7A
:1057600020E030E040EC5FE30E947CB487FD5DCF39
:10577000D701C601805A9541AF4FBF4F8AA39BA363
:10578000ACA3BDA32EA63AAA4EAA5AAE809101029E
:10579000882309F44ACF81149104A104B10429F4A7
:1057A000C12ED02EE72CF62C11CF90E1C91A97E22A
:1057B000D90AE108F108C818D908EA08FB08F7FE79
:1057C00034CFEECF01110C94BF1A0E94072D0C9418
:1057D000D31AC858DF4F0FB6F894DEBF0FBECDBF47
:1057E000DF91CF911F910F91FF90EF90DF90CF90BD
:1057F000BF90AF909F908F907F906F905F904F90F1
:105800003F902F9008958FB7F8949091DC132091DA
:10581000DB13291759F0E92FF0E0E55AFC4E2081FF
:1058200030E09F5F9F779093DC1302C02FEF3FEF34
:105830008FBFC90108950F931F93CF93DF93EC019E
:105840000E948EA40E811F812885398501151105BE
:105850002105310559F52C852223A9F13A852150DE
:105860002C8721E0230F2A874D85241301C01A8637
:10587000FE0124E0329FE00DF11D112406851785FD
:10588000208931890A831B832C833D83DC01CB0172
:10589000800F911FA11DB11D8E839F83A887B9879B
:1058A0008C819D81892B79F0409A0DC0DC01CB0160
:1058B000801B910BA20BB30BB7FD05C040981E8255
:1058C0001F8218861986DF91CF911F910F9108953D
:1058D000FF920F931F93CF93DF93FC0120812B3313
:1058E00019F1D0916506D430F8F4F62EBC01C091C0
:1058F00082050C2F10E0F0E6CF9FC00111248952E1
:105900009C4F0E94C2AFF801E15CF94FF082CF5F7B
:10591000C43018F4C093820502C010928205DF5F84
:10592000D093650681E001C080E0DF91CF911F91A7
:105930000F91FF9008951F93CF93DF93CDB7DEB7FC
:105940002C970FB6F894DEBF0FBECDBF882331F081
:105950002091BE103091BF10232B89F19091C4107B
:10596000891769F1182F8CE0EBE6F2E0DE01119661
:1059700001900D928A95E1F7CE0101960E94B59FA4
:105980001093C410111117C00E94969F86E791E1F1
:105990000E942D7180917E1190917F11A0918011B4
:1059A000B09181118093591290935A12A0935B1277
:1059B000B0935C1204C081E592E10E942D712C9697
:1059C0000FB6F894DEBF0FBECDBFDF91CF911F9110
:1059D0000895909158138917C9F08093581388231C
:1059E00069F0809102119091031190935713809365
:1059F00056131092031110920211089580915613BC
:105A0000909157139093031180930211089580E1B0
:105A1000E1E5F2E1A6E6B1E101900D928A95E1F7A8
:105A2000089580E1E6E6F1E1A1E5B2E101900D9291
:105A30008A95E1F708958F929F92AF92BF92CF928D
:105A4000EF92FF920F931F93CF93DF93CDB7DEB703
:105A50002C970FB6F894DEBF0FBECDBF4B015C0193
:105A6000C0900E11E6E6F1E180859185A285B385AF
:105A70004481558166817781008111812281338142
:105A800009831A832B833C834D835E836F837887DE
:105A900089879A87AB87BC87AE01475F5F4FBE019E
:105AA0006B5F7F4FCE0101960E94457185017401A5
:105AB00022E731E1AE01475F5F4FBE016B5F7F4F71
:105AC000CE0101960E9424642C960FB6F894DEBF96
:105AD0000FBECDBFDF91CF911F910F91FF90EF903F
