:100000000C9427130C9458130C9458130C945813F5
:100010000C9458130C9458130C9458130C945813B4
:100020000C9458130C9458130C9458130C945813A4
:100030000C9458130C9458130C9458130C94581394
:100040000C9458130C9453660C9458130C94581336
:100050000C9458130C9458130C94798B0C942DAE6B
:100060000C9458130C94563D0C9458130C9458133C
:100070000C9458130C9458130C9458130C94581354
:100080000C9458130C9458130C9458130C94581344
:100090000C9458130C9458130C9458130C944F89C7
:1000A0000C9458130C9458130C9458130C94581324
:1000B0000C9458130C9458130C9458130C94581314
:1000C0000C9458130C9458130C9458130C94581304
:1000D0000C9458130C9458130C9458130C945813F4
:1000E0000C945813893D903DA43DB13DBB3DD63D98
:1000F000C03DD63DC53DCA3DD63DD23D4A8C4F8C14
:10010000798C7E8C5E8C6A8C348CF0ABF3ABE2AB7A
:10011000E6ABECAB2AACF7ABFBAB01AC05AC09AC86
:100120000FAC13AC17AC2AAC1DAC21AC25AC47AD61
:100130004CAD51AD5BAD65ADDEAD6FAD77AD7FADB7
:1001400089AD93AD9DADACADB6ADDEADC0ADCAADC4
:10015000D4AD084AD73B3BCE016E84BCBFFDC12F56
:100160003D6C74319ABD56833DDA3D00C77F11BEA8
:10017000D9E4BB4C3E916BAAAABE000000803F05AB
:10018000A84CCDB2D44EB93836A9020C50B99186DC
:1001900088083CA6AAAA2ABE000000803F000C9452
:1001A000FBAB0C94C0AD0C9405AC0C94903D0C943E
:1001B00030B60C944CAD0C9451AD0C94893D0C941C
:1001C00013AC0C9465AD0C9477AD0C94AA880C9488
:1001D000F3AB0C94CAAD0C94B13D0C94D63D0C9489
:1001E0001DAC0C94BB3D0C947E8C0C940FAC0C9409
:1001F00047AD0C94B6AD0C9409AC0C94C53D0C9471
:100200006FAD0C94F7AB0C9417AC0C94E2AB0C9460
:10021000D23D0C9401AC0C94BE880C947FAD0C9430
:10022000CA3D0C94348C0C9489AD0C944F8C0C9476
:10023000F0AB0C94DEAD0C94C6880C94ACAD0C9471
:100240004A8C0C94ECAB0C9493AD0C943F320C9410
:100250009B880C949DAD0C945E8C0C942AAC0C94F1
:1002600025AC0C9426890C9421AC0C94F6880C9443
:10027000E6AB0C94A43D0C94798C0C94D4AD0C9406
:100280009A880C945BAD0C94C03D0C946A8C4E41E2
:100290004E494E495459494E46CDCCCC3D0AD72300
:1002A0003C17B7D13877CC2B329595E6241FB14F48
:1002B0000A000020410000C84200401C4620BCBE8D
:1002C0004CCA1B0E5AAEC59D744C4556454C494E02
:1002D0004700434F4D4D554E49434154494F4E0001
:1002E00044525952554E004552524F525300494EB6
:1002F000464F004543484F0047322F473320626145
:100300006420706172616D65746572730A004732B2
:100310002F47332062616420706172616D6574657E
:1003200072730A00205A3A200020593A2000426590
:100330006420583A20004D65736820706F696E74B0
:100340002063616E6E6F74206265207265736F6CDE
:100350007665640A002569730025696D2025697337
:10036000002569682025696D202569730025696469
:10037000202569682025696D202569730025697924
:1003800020256964202569682025696D2025697309
:10039000005072696E742074696D653A2000000126
:1003A00036372603FF3C3D38FF0E2E303E1312FF3A
:1003B000FF080706FF061A1C18FFFF24221EFFFF76
:1003C00008440A0B43090B45FFFFFFFFFFFF507274
:1003D0006F7465637465642050696E0A00F302EE01
:1003E00002E702E002D202C9026F6666004445429B
:1003F00055473A004D3131332053006F6B00205781
:100400003A0020573A004361703A454D45524745FE
:100410004E43595F5041525345523A310A004361AD
:10042000703A434153455F4C494748545F425249F3
:100430004748544E4553533A310A004361703A5489
:100440004F47474C455F4C49474854533A310A009F
:100450004361703A534F4654574152455F504F578E
:1004600045523A300A004361703A4C4556454C4972
:100470004E475F444154413A310A004361703A5A51
:100480005F50524F42453A310A004361703A41553C
:10049000544F4C4556454C3A310A004361703A502E
:1004A00052494E545F4A4F423A310A004361703A12
:1004B00050524F47524553533A300A004361703A05
:1004C0004155544F5245504F52545F54454D503A48
:1004D000310A004361703A454550524F4D3A310A56
:1004E000004649524D574152455F4E414D453A4DA8
:1004F00061726C696E204D61726C696E5F312E3174
:100500002E365F526F626F56657273696F6E5F3120
:100510002E322E3420526F626F20523220534F55AC
:100520005243455F434F44455F55524C3A6874749B
:1005300070733A2F2F6769746875622E636F6D2F21
:10054000526F626F33442F4D61726C696E2050524E
:100550004F544F434F4C5F56455253494F4E3A31DB
:100560002E30204D414348494E455F545950453A3D
:1005700020526F626F2052322045585452554445E4
:10058000525F434F554E543A3220555549443A63D1
:10059000656465326132662D343161322D34373411
:1005A000382D396231322D63353563363266333654
:1005B0003766660A004B64200023646566696E65D1
:1005C000202044454641554C545F004B6920002390
:1005D000646566696E65202044454641554C545F0C
:1005E000004B70200023646566696E6520204445D9
:1005F0004641554C545F00504944204175746F7416
:10060000756E652066696E69736865642120507532
:100610007420746865206C617374204B702C204BBF
:100620006920616E64204B6420636F6E7374616E29
:1006300074732066726F6D2062656C6F7720696ECF
:10064000746F20436F6E66696775726174696F6E4F
:100650002E680A00504944204175746F74756E65A8
:10066000206661696C6564212074696D656F7574BD
:100670000A00504944204175746F74756E65206698
:1006800061696C6564212054656D70657261747573
:10069000726520746F6F20686967680A00204B6478
:1006A0003A2000204B693A2000204B703A20000A83
:1006B00020436C617373696320504944200A002011
:1006C00054753A2000204B753A2000206D61783A2D
:1006D0002000206D696E3A200020643A20002062DC
:1006E0006961733A2000426564204C6576656C69E7
:1006F0006E6720004661696C656420746F20656ECA
:1007000061626C6520426564204C6576656C696E3B
:10071000670A004D65736820706F696E74206361AD
:100720006E6E6F74206265207265736F6C7665649F
:100730000A004D34323120696E636F7272656374E2
:1007400020706172616D6574657220757361676593
:100750000A00546F6F206661722066726F6D20729E
:1007600065666572656E636520706F696E740A00F8
:100770003A20007A5F6D696E3A20202D3230207A5F
:100780005F6D61783A20203230005A204F666673E0
:10079000657420004175746F0020452F443D004171
:1007A0006476616E6365204B3D002028002920455A
:1007B0003A0020280029205A3A00202800292059F0
:1007C0003A0020280020583A005374657070657212
:1007D0002063757272656E742076616C7565732026
:1007E000696E20252028416D7073293A0A00436103
:1007F0007365206C696768743A20003C3C3C206754
:10080000636F64655F540A00203A204146544552A4
:100810000A00202063757272656E745F706F736971
:1008200074696F6E3D00203A204245464F52450A9A
:1008300000202063757272656E745F706F736974E7
:10084000696F6E3D003E3E3E2067636F64655F5496
:100850002800556E6B6E6F776E20636F6D6D616EE5
:10086000643A2022004B494C4C45442E20002C2059
:10087000002C2000203A2073796E635F706C616EEB
:100880005F706F736974696F6E0A00202063757200
:1008900072656E745F706F736974696F6E3D006529
:1008A0006E7175657565696E672022004E6F204C0C
:1008B000696E65204E756D62657220776974682077
:1008C000636865636B73756D2C204C617374204C89
:1008D000696E653A20005072696E74657220737497
:1008E0006F707065642064756520746F2065727226
:1008F0006F72732E20466978207468652065727265
:100900006F7220616E6420757365204D393939200E
:10091000746F20726573746172742E202854656D33
:100920007065726174757265206973207265736594
:10093000742E20536574206974206166746572207A
:1009400072657374617274696E67290A004E6F2054
:10095000436865636B73756D2077697468206C6993
:100960006E65206E756D6265722C204C617374200B
:100970004C696E653A2000636865636B73756D2022
:100980006D69736D617463682C204C617374204CC5
:10099000696E653A20004C696E65204E756D626522
:1009A00072206973206E6F74204C617374204C69DF
:1009B0006E65204E756D6265722B312C204C617313
:1009C00074204C696E653A20004D31313000204969
:1009D0006E76616C696420657874727564657220E6
:1009E00000000000000000000000000000000045C2
:1009F0004300004543000082430A20736F66745F22
:100A0000656E6473746F705F6D6178203D20000ABD
:100A100020736F66745F656E6473746F705F6D6969
:100A20006E203D20000A20706F736974696F6E5FDD
:100A30007368696674203D200020617869733A0A02
:100A400020686F6D655F6F6666736574203D20007A
:100A5000466F7220003C3C3C20646F5F626C6F63A9
:100A60006B696E675F6D6F76655F746F0A003E3EFF
:100A70003E20646F5F626C6F636B696E675F6D6F62
:100A800076655F746F00203A2073657475705F66D9
:100A90006F725F656E6473746F705F6F725F707298
:100AA0006F62655F6D6F76650A00202063757272F4
:100AB000656E745F706F736974696F6E3D00203A84
:100AC00020636C65616E5F75705F61667465725FEF
:100AD000656E6473746F705F6F725F70726F626562
:100AE0005F6D6F76650A00202063757272656E74A3
:100AF0005F706F736974696F6E3D00646F5F7072D1
:100B00006F62655F726169736528006465706C6F00
:100B1000793A2000203A207365745F70726F6265C5
:100B20005F6465706C6F7965640A0020206375727C
:100B300072656E745F706F736974696F6E3D0020CB
:100B40003A203C3C3C20646F5F70726F62655F6D61
:100B50006F76650A00202063757272656E745F702F
:100B60006F736974696F6E3D00203A203E3E3E20EF
:100B7000646F5F70726F62655F6D6F76650A0020EB
:100B80002063757272656E745F706F736974696FDC
:100B90006E3D0072657365745F6265645F6C657657
:100BA000656C0A002028646F6E65290A0045787418
:100BB0007261706F6C617465205B0042696C696E74
:100BC000656172204C6576656C696E672047726955
:100BD000643A0A003C3C3C20646F5F686F6D696E4C
:100BE000675F6D6F766528002C20002C20003E3E4C
:100BF0003E20646F5F686F6D696E675F6D6F7665CD
:100C000028004B494C4C45442E2000202D20496E95
:100C100076616C6964206578747275646572206EA3
:100C2000756D62657220210A002020506C616E6E25
:100C3000657242756666657242797465733A200022
:100C40002046726565204D656D6F72793A200043CC
:100C50006F6D70696C65643A20417567202039209A
:100C6000323031380A00207C20417574686F723A46
:100C700020526F626F0A00313420464542203230E4
:100C8000313800204C617374205570646174656460
:100C90003A20004D61726C696E5F312E312E365FE5
:100CA000526F626F56657273696F6E5F312E322EAE
:100CB000340A004D61726C696E0020536F66747760
:100CC0006172652052657365740A00205761746310
:100CD00068646F672052657365740A002042726F02
:100CE000776E206F75742052657365740A00204515
:100CF000787465726E616C2052657365740A005079
:100D00006F77657255700A0073746172740A0020FF
:100D10005A3A0020593A0020583A00656E647374BC
:100D20006F7073206869743A20004572726F722088
:100D300077726974696E6720746F20454550524F11
:100D40004D210A00290A002062797465733B2063F3
:100D50007263200053657474696E67732053746FF7
:100D6000726564202800202863616C63756C61746F
:100D7000656429210A0020213D2000454550524F3D
:100D80004D20435243206D69736D61746368202D5B
:100D9000202873746F726564292000290A0020627C
:100DA000797465733B2063726320002073746F72E3
:100DB00065642073657474696E67732072657472FC
:100DC0006965766564202800204D61726C696E3D0E
:100DD000563431290A0028454550524F4D3D0045B3
:100DE0004550524F4D2076657273696F6E206D6964
:100DF000736D61746368200048617264636F646539
:100E0000642044656661756C742053657474696E02
:100E10006773204C6F616465640A00B80B0000B80A
:100E20000B000064000000E8030000E8030000007D
:100E300000964300009643000070410000C8410046
:100E400000C8420000A0420000A042000048440048
:100E500080114300C0B94320746F6F206C6F6E67C0
:100E600020657874727573696F6E2070726576652F
:100E70006E7465640A0020636F6C64206578747218
:100E80007573696F6E2070726576656E7465640A3D
:100E90000041424C2041646A7573746D656E742024
:100EA0005A002028656E61626C6564290A0020285A
:100EB00064697361626C6564290A0042494C494E59
:100EC000454152004175746F20426564204C65763F
:100ED000656C696E673A2000204E6F7A7A6C6529DE
:100EE0000A0020262041626F76650020262053618B
:100EF0006D65205A2061730020262042656C6F7753
:100F0000002D4261636B00202852696768740020DD
:100F10005A3A0020593A0050726F6265204F666657
:100F200073657420583A004649585F4D4F554E54EA
:100F300045445F50524F42450A0050726F62653A15
:100F4000200043617274657369616E0A004D6163CC
:100F500068696E6520547970653A20003C3C3C20FD
:100F600067636F64655F4732380A00203A203E208D
:100F7000686F6D65590A00202063757272656E7422
:100F80005F706F736974696F6E3D00203A203E2078
:100F9000686F6D65580A00202063757272656E7403
:100FA0005F706F736974696F6E3D00203A203E2058
:100FB000484F4D4541584953285A290A002020637B
:100FC000757272656E745F706F736974696F6E3D70
:100FD000003E20656E6473746F70732E656E61627F
:100FE0006C652874727565290A003E3E3E20676371
:100FF0006F64655F4732380A0020706F73697469E7
:101000006F6E206F7574206F662072616E67652E3B
:101010000A003F50726F626520003C3C3C206763D1
:101020006F64655F4732390A0020636F72726563CF
:10103000746564205A3A0047323920756E636F72C6
:10104000726563746564205A3A00203A203E20702D
:10105000726F62696E6720636F6D706C6574650A8C
:1010600000202063757272656E745F706F736974AF
:10107000696F6E3D0052756E6E696E6720696E20F5
:101080004452592D52554E206D6F64650A00473207
:1010900039204175746F20426564204C6576656C1B
:1010A000696E670A0028422961636B00284629722D
:1010B0006F6E74002852296967687400284C29658E
:1010C0006674003F2856296572626F7365206C65EF
:1010D00076656C20697320696D706C6175736962E7
:1010E0006C652028302D34292E0A00426164205A74
:1010F0002076616C75650A004E6F2062696C696EBE
:1011000065617220677269640A00203A203E3E3EA3
:101110002067636F64655F4732390A00202063757A
:101120007272656E745F706F736974696F6E3D0083
:1011300024F4D43050C38E20C2A24017828B701189
:10114000127A910D816CD90AA861E108C758660727
:10115000615143061E4B5D05C145A7041A411104A8
:10116000093D9803713931034036DB026533910242
:10117000D4305402802E1D02632CEE01752AC50165
:10118000B028A001102781018F2564012B244B0179
:10119000E0223401AC211F018D200D01801FFC00D5
:1011A000841EED00971DDF00B81CD200E61BC600B0
:1011B000201BBC00641AB200B219A8000A19A000D2
:1011C0006A189900D117910040178B00B51684005A
:1011D00031167E00B31579003A157300C7146F00FD
:1011E00058146A00EE1366008813630025135E002E
:1011F000C7125B006C12570015125400C111510048
:1012000070114F0021114B00D61049008D1047007E
:101210004610440002104200C00F4000800F3E0004
:10122000420F3C00060F3B00CB0E3800930E3700F8
:101230005C0E3500270E3400F30D3200C10D310075
:10124000900D3000600D2E00320D2D00050D2C008C
:10125000D90C2B00AE0C2900850C29005C0C270052
:10126000350C27000E0C2600E80B2400C40B2400CC
:10127000A00B23007D0B23005A0B2100390B21000A
:10128000180B2000F80A1F00D90A1E00BB0A1E0016
:101290009D0A1D00800A1D00630A1C00470A1B00EE
:1012A0002C0A1B00110A1A00F7091A00DD0919009F
:1012B000C4091900AB091900920917007B0918002D
:1012C000630917004C09160036091600200916009C
:1012D0000A091500F5081500E0081400CC081400F0
:1012E000B8081400A4081400900813007D08120028
:1012F0006B08130058081200460812003408110049
:10130000230811001208110001081100F007100055
:10131000E0071000D0071000C0071000B0070F0052
:10132000A107100091070E0083070F0074070F003C
:1013300065070E0057070E0049070E003B070D001A
:101340002E070E0020070D0013070D0006070D00E5
:10135000F9060C00ED060D00E0060C00D4060C00AA
:10136000C8060C00BC060C00B0060C00A4060B005E
:1013700099060C008D060B0082060B0077060B0009
:101380006C060B0061060A0057060B004C060A00AB
:1013900042060A0038060A002E060A0024060A0041
:1013A0001A060A001006090007060A00FD050900D2
:1013B000F4050900EB050900E2050900D90509005B
:1013C000D0050900C7050900BE050900B5050800DC
:1013D000AD050800A50509009C0508009405080056
:1013E0008C050800840508007C05080074050800C9
:1013F0006C050700650508005D0507005605080037
:101400004E0507004705070040050800380507009E
:10141000310507002A050700230507001C05060003
:10142000160507000F05070008050600020507005E
:10143000FB040600F5040700EE040600E8040600BD
:10144000E2040700DB040600D5040600CF04060012
:10145000C9040600C3040600BD040600B704060064
:10146000B1040500AC040600A6040600A0040500B3
:101470009B04060095040500900406008A040500FC
:1014800085040500800406007A0405007504050043
:10149000700405006B040500660405006104050086
:1014A0005C04050057040500520405004D040500C6
:1014B00048040500430405003E0404003A04050006
:1014C00035040500300404002C0405002704040042
:1014D000230405001E0404001A0404001604050079
:1014E000110404000D0404000904050004040400B0
:1014F00000040400FC030400F8030400F4030400E7
:10150000F0030400EC030400E8030400E403040017
:10151000E0030400DC030400D8030400D403040047
:10152000D0030400CC030400C8030300C503030078
:1015300024F404D9201BC40C5C0E9804C4095F0277
:1015400065077101F405F900FB04B3004804870046
:10155000C10369005803550003034500BE023A0069
:101560008402310053022A002902250004022000CF
:10157000E4011C00C8011900AF0117009801140014
:1015800084011300710110006101100051010E006F
:1015900043010D0036010B002B010B0020010B0055
:1015A000150109000C01090003010800FB000800F7
:1015B000F3000800EB000700E4000600DE00060070
:1015C000D8000600D2000600CC000500C7000500C8
:1015D000C2000500BD000400B9000400B50004000D
:1015E000B1000400AD000400A9000400A500030040
:1015F000A20003009F0004009B000300980003006A
:101600009500020093000300900003008D0002008B
:101610008B000300880002008600020084000300A3
:10162000810002007F0002007D0002007B000200BA
:1016300079000200770001007600020074000200C9
:1016400072000100710002006F0002006D000100D5
:101650006C0002006A0001006900020067000100DE
:1016600066000100650001006400020062000100E4
:1016700061000100600001005F0002005D000100E8
:101680005C0001005B0001005A00010059000100EC
:1016900058000100570001005600010055000100EC
:1016A00054000100530000005300010052000100EB
:1016B00051000100500001004F0001004E000000E9
:1016C0004E0001004D0001004C0001004B000000E5
:1016D0004B0001004A0001004900010048000000E1
:1016E00048000100470001004600000046000100DC
:1016F00045000000450001004400010043000000D7
:1017000043000100420000004200010041000000CF
:1017100041000100400001003F0000003F000100C7
:101720003E0000003E0001003D0000003D000100C1
:101730003C0000003C0000003C0001003B000000B9
:101740003B0001003A0000003A00010039000000AF
:1017500039000100380000003800000038000100A6
:10176000370000003700010036000000360000009E
:101770003600010035000000350000003500010092
:101780003400000034000000340001003300000089
:10179000330000003300010032000000320000007E
:1017A0003200010031000000310000003100010072
:1017B0003000000030000000300001002F00000069
:1017C0002F0000002F0000002F0001002E0000005D
:1017D0002E0000002E0001002D0000002D00000052
:1017E0002D0000002D0001002C0000002C00000046
:1017F0002C0000002C0001002B0000002B0000003A
:101800002B0000002B0001002A0000002A0000002D
:101810002A0000002A000100290000002900000021
:101820002900000029000000290001002800000014
:101830002800000028000000280000002800010007
:1018400027000000270000002700000027000000FC
:1018500027000100260000002600000026000000EE
:1018600026000000260001002500000025000000E1
:1018700025000000250000002500000025000100D3
:1018800024000000240000002400000024000000C8
:1018900024000100230000002300000023000000BA
:1018A00023000000230000002300000023000100AB
:1018B00022000000220000002200000022000000A0
:1018C0002200000022000100210000002100000091
:1018D0002100000021000000210000002100000084
:1018E0002100010020000000200000002000000076
:1018F0002000000020000000200000002000000068
:10190000200001001F0000001F0000001F00000059
:101910001F0000001F0000001F0000001F0001004A
:101920001E0000001E0000001E0000001E0000003F
:1019300020520020204D393030204B004C696E651C
:10194000617220416476616E63653A0A0020204D21
:10195000383531205A005A2D50726F6265204F661B
:101960006673657420286D6D293A0A0020440020B2
:10197000490020204D3330342050002044002049BD
:101980000020204D333031205000204400204900F9
:1019900020500020204D3330312045005049442054
:1019A00073657474696E67733A0A0020204D34328F
:1019B000302053004175746F20426564204C657679
:1019C000656C696E673A0A00205900205800202093
:1019D0004D323138205400486F74656E64206F6654
:1019E00066736574733A0A00205A0020590020205B
:1019F0004D323036205800486F6D65206F66667333
:101A000065743A0A00204500205A002059002058E9
:101A10000020420020540020204D32303520530059
:101A2000416476616E6365643A20533C6D696E5F14
:101A300066656564726174653E20543C6D696E5FD5
:101A400074726176656C5F66656564726174653E2B
:101A500020423C6D696E5F7365676D656E745F747F
:101A6000696D655F6D733E20583C6D61785F787974
:101A70005F6A65726B3E205A3C6D61785F7A5F6A7F
:101A800065726B3E20453C6D61785F655F6A65728B
:101A90006B3E0A0020540020520020204D3230348A
:101AA000205000416363656C65726174696F6E20DC
:101AB00028756E6974732F7332293A20503C707206
:101AC000696E745F616363656C3E20523C7265743D
:101AD000726163745F616363656C3E20543C747231
:101AE0006176656C5F616363656C3E0A002045004A
:101AF00020204D323031205400205A00205900203F
:101B0000204D3230312058004D6178696D756D205F
:101B1000416363656C65726174696F6E2028756ED0
:101B20006974732F7332293A0A0020450020204D32
:101B3000323033205400205A0020590020204D32EA
:101B400030332058004D6178696D756D206665658C
:101B50006472617465732028756E6974732F7329BC
:101B60003A0A0020450020204D3932205400205AE6
:101B70000020590020204D393220580053746570E0
:101B8000732070657220756E69743A0A0020204DCA
:101B90003230302044300A0020204D323030205482
:101BA0003120440020204D32303020440020446950
:101BB0007361626C65640A0046696C616D656E7480
:101BC0002073657474696E67733A00202047323160
:101BD000202020203B20556E69747320696E206D93
:101BE0006D0A0053657474696E672054726176657E
:101BF0006C20416363656C65726174696F6E3A2035
:101C00000053657474696E67205265747261637401
:101C100020416363656C65726174696F6E3A200080
:101C200053657474696E67205072696E74204163E5
:101C300063656C65726174696F6E3A2000536574F8
:101C400074696E67205072696E7420616E642054EE
:101C5000726176656C20416363656C65726174695D
:101C60006F6E3A2000205A00205900580020204D65
:101C700061783A2000205A00205900580020204D59
:101C8000696E3A20004F6E20004F666600536F6603
:101C90007420656E6473746F70733A2000486F74BB
:101CA000656E64206F6666736574733A004375727F
:101CB00072656E743A200020643A0020693A002070
:101CC000703A0020643A0020693A0020703A0043DC
:101CD000290A0061626C656420286D696E20746554
:101CE0006D702000436F6C64206578747275646554
:101CF00073206172652000627573793A2070617596
:101D000073656420666F7220696E7075740A006274
:101D10007573793A2070617573656420666F7220FF
:101D2000757365720A00627573793A2070726F6319
:101D3000657373696E670A004B494C4C45442E200D
:101D4000004B494C4C2063617573656420627920B7
:101D50004B494C4C20627574746F6E2F70696E0A1B
:101D6000004B494C4C45442E20004B494C4C2063C1
:101D7000617573656420627920746F6F206D75637F
:101D80006820696E6163746976652074696D652089
:101D90002D2063757272656E7420636F6D6D616E58
:101DA000643A20005072696E7465722068616C74C8
:101DB00065642E206B696C6C28292063616C6C65EE
:101DC00064210A0000000000000045430000824337
:101DD0003C3C3C207365745F617869735F69735F35
:101DE00061745F686F6D652800203A200A0020202A
:101DF00063757272656E745F706F736974696F6E0C
:101E00003D005D203D20003E20686F6D655F6F6680
:101E1000667365745B003E3E3E207365745F617857
:101E200069735F69735F61745F686F6D6528000037
:101E3000005C4200005C420000404100000000578E
:101E400061726E696E673A20486F6D696E672042F5
:101E5000756D702044697669736F72203C20310A79
:101E6000000202040000A0400000A040000000406A
:101E70000000454300004543000082433C3C3C20B9
:101E8000686F6D65617869732800203A203E2041B3
:101E900046544552207365745F617869735F697356
:101EA0005F61745F686F6D650A00202063757272F0
:101EB000656E745F706F736974696F6E3D00486F13
:101EC0006D65203220536C6F773A0A004D6F76654E
:101ED00020417761793A0A00486F6D6520312046CC
:101EE0006173743A0A00FF01013E3E3E20686F6D47
:101EF0006561786973280041637469766520457867
:101F00007472756465723A2000203A204D6F7665D0
:101F1000206261636B0A00202064657374696E61DE
:101F200074696F6E3D00203A2053796E63204166DC
:101F300074657220546F6F6C6368616E67650A0028
:101F4000202063757272656E745F706F7369746957
:101F50006F6E3D00207D0A002C20004F6666736581
:101F60007420546F6F6C205859206279207B2000B8
:101F70004E6F206D6F7665206F6E20746F6F6C638F
:101F800068616E67650A0050726F6265204F666611
:101F9000736574206973205A3A20005374616E642B
:101FA00061726420446576696174696F6E3A2000DD
:101FB0002052616E67653A2000204D61783A20001A
:101FC000204D696E3A20004D65616E3A20004669E9
:101FD0006E6973686564210A002072616E67653AF4
:101FE0002000206D61783A2000206D696E3A200053
:101FF000207369676D613A2000206D65616E3A203B
:10200000003A207A3A2000206F662000205A0020F3
:102010005900205800476F696E6720746F3A00437B
:102020006C6F636B776973650A00436F756E7465D7
:10203000722D0020446972656374696F6E3A2000E6
:10204000202020616E676C653A20005374617274C1
:10205000696E67207261646975733A2000506F730E
:102060006974696F6E696E67207468652070726F3D
:1020700062652E2E2E0A003F4E756D626572206FCE
:1020800066206C65677320696E206D6F76656D657F
:102090006E74206E6F7420706C61757369626C650C
:1020A0002028302D3135292E0A00590058003F5381
:1020B000616D706C652073697A65206E6F74207035
:1020C0006C61757369626C652028342D3530292E5A
:1020D0000A004D3438205A2D50726F6265205265C7
:1020E000706561746162696C697479205465737498
:1020F0000A003F2856296572626F7365206C657609
:10210000656C20697320696D706C61757369626CB0
:10211000652028302D34292E0A0070012C019001F1
:102120002701B0012201C0011D01F00118011002B8
:10213000130130020E016002090190020401C00285
:10214000FF000003FA004003F5008003F000D00315
:10215000EB002004E6007004E100E004DC00400530
:10216000D700C005D2004006CD00D006C8008007C9
:10217000C3003008BE00F008B900C009B400B00ABE
:10218000AF00B00BAA00D00CA500000EA000500FAD
:102190009B00C01096005012910000148C00C015D6
:1021A0008700B0178200B0197D00D01B7800001E98
:1021B000730040206E0090226900F02464004027E4
:1021C0005F0090295A00E02B5500102E500020305F
:1021D0004B0010324600E033410090353C00103790
:1021E000370070383200A0392D00B03A2800A03BEB
:1021F0002300603C1E00103D1900903D1400103E6D
:102200000F00703E0A00C03E0500003F0000403F46
:10221000FBFF803FF6FFC03FF1FF544845524D4160
:102220004C2052554E4157415900546865726D61BA
:102230006C2052756E61776179004572723A204D5B
:10224000494E54454D5020424544004572723A2053
:102250004D494E54454D50004D494E54454D50202A
:10226000747269676765726564004572723A204DE1
:10227000415854454D5020424544004572723A2021
:102280004D415854454D50004D415854454D5020F6
:10229000747269676765726564002044697363726C
:1022A0006570616E63793A00326E642050726F62BD
:1022B00065205A3A00203A203C3C3C2072756E5F03
:1022C0007A5F70726F62650A0020206375727265B2
:1022D0006E745F706F736974696F6E3D00317374F3
:1022E0002050726F6265205A3A00203A203E3E3EEE
:1022F0002072756E5F7A5F70726F62650A002020CF
:1023000063757272656E745F706F736974696F6EF6
:102310003D0050726F62696E67206661696C65642A
:102320000A004572726F723A003C3C3C2070726F3A
:1023300062655F70740A00205A3A200020593A20E2
:102340000042656420583A2000203A200A002020EC
:1023500063757272656E745F706F736974696F6EA6
:102360003D0073746F77290A002C20002C20003E5A
:102370003E3E2070726F62655F707428002066694F
:102380007273740A005A0059005800486F6D652036
:10239000006563686F3A00526573656E643A2000A9
:1023A0006F6B0020746F6F206C6F6E6720657874A0
:1023B000727573696F6E2070726576656E74656490
:1023C0000A0020636F6C6420657874727573696F9E
:1023D0006E2070726576656E7465640A000B0BFF83
:1023E000FFFF00000202026265640A002C2073797C
:1023F0007374656D2073746F707065642120486517
:10240000617465725F49443A200048656174696E81
:1024100067206661696C65640048656174696E6710
:10242000206661696C65640048656174696E672047
:102430006661696C65640048656174696E672066F1
:1024400061696C6564003002B400300D8C00900E40
:1024500087005010820020127D0080147800A016A2
:10246000730060196E00E01B6900001F6400B0215A
:102470005F0090245A0050275500302A5000E02C6D
:102480004B00602F46009031410060333C00903497
:102490003700B036320030382D00E0392800203BBC
:1024A0002300203C1E00103D1900B03D1400303EBA
:1024B0000F00903E0A00203F0000F03FD8FF7A5FF7
:1024C0006D61783A20007A5F6D696E3A2000795F1D
:1024D0006D61783A2000785F6D696E3A2000526530
:1024E000706F7274696E6720656E6473746F7020AC
:1024F0007374617475730A00202F0020400020421D
:10250000403A0020403A00205A3A0020593A002030
:10251000436F756E7420583A0020453A00205A3AAD
:102520000020593A00583A002F2F200000002100C7
:10253000240027002A002D00300033000101000094
:10254000040107010A0100002200250028002B00D9
:102550002E003100340002010000050108010B01CA
:10256000000020002300260029002C002F0032004C
:102570000001000003010601090105050505070525
:1025800008080808020202020A0A080804040404EF
:10259000010101010101010103030303030303031B
:1025A000040707070C0C0C0C0C0C0C0C02020202AA
:1025B00006060606060606060B0B0B0B0B0B0B0B93
:1025C0000102102020080810204010204080020145
:1025D000020108040201010204081020408080402A
:1025E0002010080402018004020180402010080429
:1025F00002010804020101020408102040800102C7
:1026000004081020408000000A0B02090C0D0E087F
:1026100007030401000000000000000000000000AB
:1026200000000000000000000000000000000000AA
:102630000000121110000000000000000000000067
:1026400000000000000000000000000030B611246F
:102650001FBECFEFD1E2DEBFCDBF00E00CBF13E065
:10266000A0E0B2E0E0EEF5E801E00BBF02C00790A9
:102670000D92A636B107D9F723E1A6E6B3E001C073
:102680001D92A63EB207E1F713E1C7E2D3E100E0F5
:1026900006C021970109802FFE010E94A7BFC63204
:1026A000D10780E00807A9F70E94F3B00C94EEC2AE
:1026B0000C9400002F923F924F925F926F927F9204
:1026C0008F929F92AF92BF92CF92DF92EF92FF9242
:1026D0000F931F93CF93DF93CDB7DEB7C458D109C3
:1026E0000FB6F894DEBF0FBECDBF0091850A20E67D
:1026F000029F8001112403571C4F80917C1180FFA1
:102700001AC0E1E9F3E284917F013FEFE31AF30A93
:10271000811102C0780104C00E94CB34F701F3CFCD
:10272000D7018D917D01882319F00E94CB34F8CF19
:102730008AE00E94CB3481E090E0909398108093DF
:10274000971010928603109285038FE380938F0970
:1027500010928E0910928D091092800310928103BD
:102760001092820310928303F80180810F5F1F4F44
:102770008032D1F38E34B1F4818190ED980F9A308C
:1027800020F08D3211F08B3269F43296DF013196F0
:102790002C9120532A30D0F3CD01FC0101962081E9
:1027A0002032D9F3F0939F10E0939E107F01BFEF8A
:1027B000EB1AFB0A10816AE270E0C7010E94CEC2E8
:1027C000009731F0FC01319780818032E1F3118272
:1027D0001D3429F0143519F0173409F0CDC0F70174
:1027E00080812FEFE21AF20A8032C9F380538A30D7
:1027F00008F0C2C010938F0920918D0930918E0985
:102800004AE03196429FC001439F900D1124DF01A1
:1028100011972C91022E000C330B20533109280FF5
:10282000391F808180538A3060F330938E09209362
:102830008D09DF0131968C918032D9F31D34D1F4AA
:102840002E31310591F03CF42731310571F02C31F6
:10285000310581F40AC02537310564F02737310589
:1028600024F0203A43E0340729F4B0938603A09380
:10287000850382C0109286031092850300919E10FA
:1028800061E070E0CD0101964C91442309F474C0DD
:10289000413299F41D3489F42032310571F490935A
:1028A00086038093850363E270E00E94CEC20097A6
:1028B00009F462C0DC011C925FC05FEBD52ED40E20
:1028C000E9E1ED15C0F1FC01BE2FAF2F519150325F
:1028D000D9F38B2F9A2FE0EDE50FEA3040F0E3EDCE
:1028E000E50FE23020F05B3211F00C941A2DDC0180
:1028F000AD2CB12C750143E0F594E7944A95E1F7CE
:10290000A70140585C4F7A014D2D4770FB0102C072
:10291000EE0FFF1F4A95E2F7AF01F7015081452BFB
:102920004083109711F0A01B01C0A0E0F501EA5907
:10293000FC4FA0830AC04091850350918603452B2C
:1029400021F4B0938603A0938503DC014C9141549C
:102950004A3110F4DC0196CFFC01DF0131969C91E5
:1029600090539A30D0F3AD01CA014F5F5F4FDC0145
:10297000EC91E032C9F3EECF80918F098D3411F4E0
:102980000C94FA1D843511F40C949E2C873411F0AC
:102990000C94F92C80918D0990918E098D319105BF
:1029A00009F4D6C6D4F48430910544F482309105FC
:1029B0000CF043C097FF35C00C94132D8530910562
:1029C00009F440C20CF401C24C9711F00C94132D81
:1029D00080E00E94E5630C94132D8A32910511F476
:1029E0000C940F1D6CF48332910509F43DC78432B9
:1029F000910509F43DC74E9711F00C94132DACC608
:102A00008B35910509F43DC78C35910509F43EC716
:102A10008A35910511F00C94132D10928C030C94AF
:102A2000132D80915802882311F40C94132D0E94C9
:102A3000A3650E94A79C0C94132D20915802222379
:102A400011F40C94132D11E0029709F010E00E948C
:102A5000A36519821A821B821C821D821E821F821C
:102A6000188682E50E94B334882309F42CC10E94A1
:102A700051346B017C0120916C1130916D114091AA
:102A80006E1150916F112AA33BA34CA35DA38090BC
:102A9000701190907111A0907211B090731180918B
:102AA000B4109091B510A091B610B091B7108EA34C
:102AB0009FA3A8A7B9A72091B8103091B910409151
:102AC000BA105091BB102AA73BA74CA75DA720E0E6
:102AD00030E0A901C701B6010E9428BB882309F490
:102AE00008C12AA13BA14CA15DA16EA17FA188A52F
:102AF00099A50E9428BB81110BC0A50194016AA56C
:102B00007BA58CA59DA50E9428BB882309F4F1C054
:102B100020E030E0A901C701B6010E9428BB881F50
:102B20008827881F181309C080E090E0A0E8BFE361
:102B30008AAF9BAFACAFBDAF08C020E030E040E84B
:102B40005FEB2AAF3BAF4CAF5DAF2AA13BA14CA1DD
:102B50005DA16EA17FA188A599A50E94B6BF6AABB1
:102B60007BAB8CAB9DABA50194016AA57BA58CA525
:102B70009DA50E94B6BF6EAB7FAB88AF99AF2AA967
:102B80003BA94CA95DA9CA01B9010E948EBB2B01CA
:102B90003C012EA93FA948AD59ADCA01B9010E9417
:102BA0008EBB9B01AC01C301B2010E94B7BF0E9462
:102BB00065C26EA77FA788AB99AB20E030E040E00C
:102BC0005FE30E948EBB2B013C01A7019601C70168
:102BD000B6010E948EBB6B017C01A3019201C3016F
:102BE000B2010E948EBB9B01AC01C701B6010E94DD
:102BF000B6BF0E9465C29B01AC016AAD7BAD8CADD6
:102C00009DAD0E948EBB6B017C012EA13FA148A50A
:102C100059A56AA17BA18CA19DA10E94B7BF20E00C
:102C200030E040E05FE30E948EBB2B013C016EA9C7
:102C30007FA988AD99AD90582EA53FA548A959A95F
:102C40000E94B1C09B01AC01C701B6010E948EBBBE
:102C50009B01AC01C301B2010E94B7BF2AA13BA1F5
:102C60004CA15DA10E94B6BF69837A838B839C834C
:102C70002AA53BA54CA55DA5C501B4010E94B7BF1F
:102C800020E030E040E05FE30E948EBB2B013C017E
:102C90002EA53FA548A959A96AA97BA98CA99DA9D8
:102CA0000E94B1C09B01AC01C701B6010E948EBB5E
:102CB0009B01AC01C301B2010E94B7BFA501940101
:102CC0000E94B6BF12C089E40E94B334882331F059
:102CD0000E94513469837A838B839C838AE40E94A7
:102CE000B334882331F00E9451346D837E838F8307
:102CF000988720E030E0A90169817A818B819C81ED
:102D00000E9428BB81110CC020E030E0A9016D8138
:102D10007E818F8198850E9428BB882309F43BC05F
:102D200080E50E94B334882341F00E942D34082F9F
:102D30008536E8F0E2E2F3E202C000E018C08491D8
:102D40007F013FEFE31AF30A882321F00E94CB347E
:102D5000F701F5CFEEE0F3E084917F014FEFE41A45
:102D6000F40A882321F00E94CB34F701F5CF412FDC
:102D7000BE016F5F7F4F002331F08CE691E10E942E
:102D8000C2980150F4CF84EB90E10E94C2980E9457
:102D9000C0340C94132DE2E2F3E284918F010F5FB3
:102DA0001F4F882321F00E94CB34F801F6CFE8EFC3
:102DB000F2E084918F010F5F1F4F882311F40C9470
:102DC000132D0E94CB34F801F4CF80E50E94B33478
:102DD000882329F00E940D346B017C0103C0C12CB3
:102DE000D12C760183E50E94B334882361F00E94E0
:102DF000513420E030E04AE754E40E948EBB0E9448
:102E00002AC16B017C010E9484A50E94C03480917C
:102E1000A0109091A110A091A210B091A310C80E83
:102E2000D91EEA1EFB1E0E9421AEDC01CB018C19CB
:102E30009D09AE09BF09B7FD02C00C94132D0E9475
:102E4000837DF1CF80915802882311F40C94132DC7
:102E50000E94A36589E40E94B334882329F00E946C
:102E600051342B013C0103C0412C512C32018AE426
:102E70000E94B334882329F00E9451344B015C0135
:102E800003C0812C912C540180E50E94B334882327
:102E900029F00E9451346B017C0103C0C12CD12C5C
:102EA000760181E50E94B334882339F00E945134C1
:102EB0006AA37BA38CA39DA304C01AA21BA21CA27D
:102EC0001DA25091E20AED965FAFED976091560218
:102ED00070915702072E000C880B990B0E942FBB94
:102EE000209138023091390240913A0250913B02D0
:102EF0000E948EBB2AE037ED43E25CE30E948EBB6A
:102F0000C358DF4F688379838A839B83CD57D04032
:102F100080916C1190916D11A0916E11B0916F1113
:102F20008EA39FA3A8A7B9A7A3019201BC01CD01BD
:102F30000E94B7BF27966CAF7DAF8EAF9FAF27972C
:102F400040907011509071116090721170907311D7
:102F5000A5019401C301B2010E94B7BF2B966CAFCB
:102F60007DAF8EAF9FAF2B972091B4103091B510ED
:102F70004091B6105091B710C701B6010E94B7BF7B
:102F80002F966CAF7DAF8EAF9FAF2F972091B8106B
:102F90003091B9104091BA105091BB106AA17BA139
:102FA0008CA19DA10E94B7BF63966CAF7DAF8EAF21
:102FB0009FAF6397CEA0DFA0E8A4F9A4C982DA820C
:102FC000EB82FC824D825E826F8278860E9421AE07
:102FD0009B01AC0128533F4F4F4F5F4FEB962CAFF7
:102FE0003DAF4EAF5FAFEB972DEC822E2CEC922EC7
:102FF000A92C2DE3B22E1AA21EA21AA61EA60E946A
:1030000018A30E9421AE8B019C01EB96CCACDDACE9
:10301000EEACFFACEB970C191D092E093F0937FDEB
:103020000EC09B01AC0128533F4F4F4F5F4FEB96B3
:103030002CAF3DAF4EAF5FAFEB970E94837DA501F4
:103040009401BAA1AEA1FAA5EEA56B2F7A2F8F2F0E
:103050009E2F0E94B7BF2B011C0120E030E040E80A
:103060005FE30E9417C2181634F4412C512C80E8FB
:10307000282E9FE3392E8091B4109091B510A09125
:10308000B610B091B71067968CAF9DAFAEAFBFAF23
:103090006797C0906C11D0906D11E0906E11F09018
:1030A0006F116B96CCAEDDAEEEAEFFAE6B973F927E
:1030B0002F925F924F926796ACACBDACCEACDFACBA
:1030C00067972F96ECACFDAC0EAD1FAD2F972796F2
:1030D0002CAD3DAD4EAD5FAD27976B966CAD7DAD24
:1030E0008EAD9FAD6B970E949F4A0F900F900F90EF
:1030F0000F906AAB7EAB8AAF9EAF2091B810309133
:10310000B9104091BA105091BB106F962CAF3DAFE3
:103110004EAF5FAF6F978091701190917111A09138
:103120007211B0917311A7968CAF9DAFAEAFBFAFC8
:10313000A7973F922F925F924F926F96ACACBDAC27
:10314000CEACDFAC6F976396ECACFDAC0EAD1FADB3
:1031500063972B962CAD3DAD4EAD5FAD2B97A796EB
:103160006CAD7DAD8EAD9FADA7970E949F4A0F902D
:103170000F900F900F906FAF21967FAF21972296FF
:103180008FAF229723969FAF2397C980DA80EB8079
:10319000FC80E396CCAEDDAEEEAEFFAEE3972D81C4
:1031A0003E814F815885E7962CAF3DAF4EAF5FAF64
:1031B000E797A0961FAEA0977AA16EA19AA58EA5BB
:1031C000272F362F492F582F642D752D822D932DA3
:1031D0000E94B6BF2FE632E143E05BE30E9428BBCA
:1031E00087FF06C0A0963FADA0973111DEC1C4C1D4
:1031F000242D352D422D532DBAA1AEA1FAA5EEA551
:103200006B2F7A2F8F2F9E2F0E94B7BF20E030E0C8
:1032100040E05FE30E948EBB3B014C019F928F9385
:103220007F926F936796ACACBDACCEACDFAC6797CA
:103230002F96ECACFDAC0EAD1FAD2F9727962CADA5
:103240003DAD4EAD5FAD27976B966CAD7DAD8EAD50
:103250009FAD6B970E949F4A0F900F900F900F9019
:10326000A8966FAFA897AA967FAFAA97AE968FAF92
:10327000AE97EC969FAFEC979F928F927F926F9252
:103280006F96ACACBDACCEACDFAC6F976396ECACDC
:10329000FDAC0EAD1FAD63972B962CAD3DAD4EAD85
:1032A0005FAD2B97A7966CAD7DAD8EAD9FADA7970B
:1032B0000E949F4A0F900F900F900F905B018C011E
:1032C0002AA93EA94AAD5EADE3966CAD7DAD8EAD4B
:1032D0009FADE3970E94B7BF20E030E040E05FE39E
:1032E0000E948EBB9B01AC01A8966FADA897AA96D1
:1032F0007FADAA97AE968FADAE97EC969FADEC974B
:103300000E94B6BF6B017C01E894F7F82FAD2196BF
:103310003FAD219722964FAD229723965FAD23971D
:10332000E7966CAD7DAD8EAD9FADE7970E94B7BFC0
:1033300020E030E040E05FE30E948EBB9B01AC01E7
:10334000B501C8010E94B6BF9B01AC015F77C70100
:10335000B6010E94B7BF2DEC3CEC4CEC5DE30E9443
:1033600028BB18160CF03ECFAFAE2196BFAE21970A
:1033700022960FAF229723961FAF2397A8964FADA3
:10338000A8974AABAA965FADAA975EABAE968FADF3
:10339000AE978AAFEC969FADEC979EAF23011401D8
:1033A000A1E0A096AFAFA09707CFA7019601C701F4
:1033B000B6010E94B7BF9B01AC01BAA1AEA1FAA5AC
:1033C000EEA56B2F7A2F8F2F9E2F0E94B7BF962EC0
:1033D000872E782E692E20E030E040E85FE3D401AC
:1033E000F3016B2F7A2F8F2F9E2F0E9417C287FF1A
:1033F000DCC06F927F928F929F926796ACACBDAC0F
:10340000CEACDFAC67972F96ECACFDAC0EAD1FAD2C
:103410002F9727962CAD3DAD4EAD5FAD27976B96A0
:103420006CAD7DAD8EAD9FAD6B970E949F4A0F90A6
:103430000F900F900F90A0966FAFA097A8967FAFB8
:10344000A897AA968FAFAA97AE969FAFAE976F92A6
:103450007F928F929F926F96ACACBDACCEACDFAC3E
:103460006F976396ECACFDAC0EAD1FAD63972B96DA
:103470002CAD3DAD4EAD5FAD2B97A7966CAD7DAD40
:103480008EAD9FADA7970E949F4A0F900F900F900F
:103490000F905B018C01A0962FADA097A8963FAD31
:1034A000A897AA964FADAA97AE965FADAE97E39652
:1034B0006CAD7DAD8EAD9FADE3970E94B7BF20E0B0
:1034C00030E040E05FE30E948EBB9B01AC016AA943
:1034D0007EA98AAD9EAD0E94B6BF6B017C01E894C7
:1034E000F7F89501A801E7966CAD7DAD8EAD9FAD67
:1034F000E7970E94B7BF20E030E040E05FE30E9422
:103500008EBB9B01AC016FAD21967FAD21972296BA
:103510008FAD229723969FAD23970E94B6BF9B0144
:10352000AC015F77C701B6010E94B7BF2DEC3CEC40
:103530004CEC5DE30E9417C21816BCF1AFAE2196A9
:10354000BFAE219722960FAF229723961FAF2397E6
:10355000A096BFADA097BAABA896EFADA897EEAB7B
:10356000AA96FFADAA97FAAFAE96CFACAE97CEAE05
:10357000492C582C272C362C7AA16EA19AA58EA501
:10358000272F362F492F582F642D752D822D932DDF
:103590000E94B6BF6B017C012DEC3CEC4CEC5DE372
:1035A0000E9417C218160CF000CF7AA16EA19AA53E
:1035B0008EA5272F362F492F582F642D752D822D3C
:1035C000932D0E94B6BF4B015C018AA99EA9AAADAA
:1035D000BEAD89839A83AB83BC838FAD21969FADAB
:1035E00021972296AFAD22972396BFAD23978D8367
:1035F0009E83AF83B887242D352D422D532D60E057
:1036000070E080E89FE30E94B6BF6B017C012091CF
:1036100074113091751140917611509177110E947B
:103620008EBB6AA37BA38CA39DA32091BC10309179
:10363000BD104091BE105091BF10642D752D822D8C
:10364000932D0E948EBB9B01AC016AA17BA18CA132
:103650009DA10E94B7BF69877A878B879C8720913D
:1036600078113091791140917A1150917B11C701F5
:10367000B6010E948EBB6B017C012091C01030917D
:10368000C1104091C2105091C310642D752D822D30
:10369000932D0E948EBB9B01AC01C701B6010E9415
:1036A000B7BF6D877E878F87988BCE0101960E946A
:1036B0002B9889819A81AB81BC818E8B9F8BA88F3F
:1036C000B98F8D819E81AF81B8858A8F9B8FAC8F9A
:1036D000BD8F89859A85AB85BC858E8F9F8FA8A36A
:1036E000B9A3AE01425E5F4FBE01665E7F4FCE0161
:1036F00046960E94045CED96CFACED97C358DF4F21
:10370000E880F9800A811B81CD57D0409E01235F5C
:103710003F4FAE01425E5F4FBE01665E7F4FCE01FE
:1037200046960E94FD4C20E030E040E85FE3642DC7
:10373000752D822D932D0E9428BB87FF05C04AA2BC
:103740005EA22AA63EA65BCC0E9451330C94132D98
:103750000E94E95D0C94132D20E030E040E050E43D
:1037600060916C1170916D1180916E1190916F113B
:103770000E94B7BF6B017C0188E50E94B3348823A7
:1037800021F00E9451346B017C01CE8ADF8AE88EE1
:10379000F98E20E030E040EF51E4609170117091BB
:1037A000711180917211909173110E94B7BF6B01DA
:1037B0007C0189E50E94B334882321F00E945134B2
:1037C0006B017C01C982DA82EB82FC824090641139
:1037D0005090651160906611709067112091601192
:1037E0003091611140916211509163116E897F890E
:1037F000888D998D0E94B6BF4B015C012BE33FED94
:103800004FEF5FE30E9417C287FF02C00C94132D95
:1038100022E430E045E453E4C501B4010E9428BB32
:10382000181614F40C94132DA3019201C701B601CC
:103830000E94B6BF6B017C0124EF3DEF4FEE51E4D7
:103840000E9417C287FF02C00C94132D22E430E0BF
:1038500045E453E4C701B6010E9428BB181614F4CE
:103860000C94132D0C942A2D0E94EC860C94132D8D
:1038700081E00E94E5630E94EC860E94E95D0C9461
:10388000132D81E080938C030C94132D85E40E940A
:10389000B334982E811102C00E9484A5B9EAAB2EE0
:1038A000B2E0BB2E1CE6C12E11E1D12E04ECE02EBD
:1038B00000E1F02E00E010E0812CD5018D915D013A
:1038C0000E94B334882309F44EC0F601208131816F
:1038D00042815381CF57DF4F2883C158D040CE5704
:1038E000DF4F3883C258D040CD57DF4F4883C3588D
:1038F000D040CC57DF4F5883C458D0400E94513439
:10390000D6016D937D938D939C931397CF57DF4F83
:103910002881C158D040CE57DF4F3881C258D0409F
:10392000CD57DF4F4881C358D040CC57DF4F588127
:10393000C458D04003301105B1F00E94B6BF9B01BE
:10394000AC01F70160817181828193810E94B7BFD0
:10395000D7016D937D938D939C931397C8010E941B
:103960004535882483940F5F1F4FB4E0CB0ED11CE4
:10397000E4E0EE0EF11C0430110509F09ECF882022
:1039800019F00E94B73B47C0992009F444C0E09168
:10399000E20AE093E10AC0907811D0907911E090AA
:1039A0007A11F0907B11ED5F24E0E29FF001112489
:1039B000E55FF44F2081318142815381C701B60117
:1039C0000E948EBB0E9424C260932F12709330120B
:1039D0008093311290933212C0921F12D092201213
:1039E000E0922112F0922212C701B6010E9423C177
:1039F0002FB7F89460933A1370933B1380933C1362
:103A000090933D132FBF10920F121092101210922C
:103A10001112109212120E940DAA0C94132D809173
:103A20005802882311F40C94132D89E40E94B334B6
:103A3000182F882321F00E941D34F62E01C0F12C8E
:103A40008AE40E94B334082F882331F00E941D3489
:103A5000E62E111104C00BC0E12C1123C1F032E09D
:103A60003F1510F00C94D331E6E3F3E004C042E0DC
:103A70004E15D0F30CC084918F010F5F1F4F882328
:103A800011F40C94132D0E94CB34F801F4CF0E9452
:103A90004733112341F120918B0A30918C0A5F2D1D
:103AA0005203B001539F700D11248091870A9091A9
:103AB000880A680F791F072E000C880B990B0E944B
:103AC0002FBB209160113091611140916211509192
:103AD00063110E94B7BF6093B4107093B5108093C8
:103AE000B6109093B710002341F120918D0A3091C8
:103AF0008E0A4E2D4203B001439F700D1124209178
:103B0000890A30918A0A620F731F072E000C880BF6
:103B1000990B0E942FBB2091641130916511409147
:103B20006611509167110E94B7BF6093B8107093EF
:103B3000B9108093BA109093BB1080E50E94843432
:103B40008823A1F10E944134882381F11123B1F02F
:103B500020E030E040E050E46091B4107091B51086
:103B60008091B6109091B7100E94B6BF6093B410C8
:103B70007093B5108093B6109093B7100023B1F0F6
:103B800020E030E040EF51E46091B8107091B9103E
:103B90008091BA109091BB100E94B6BF6093B8108C
:103BA0007093B9108093BA109093BB1086E40E9472
:103BB000B3348823D9F00E9451346B017C0120E09A
:103BC00030E0A9010E9417C2181684F420E030E00A
:103BD00040E752E4C701B6010E94B1C060933802C9
:103BE0007093390280933A0290933B020E94A79C03
:103BF0000C94132D80918D0990918E09883C91052C
:103C000009F49CC60CF0B3C08836910509F425C3AD
:103C10000CF05EC08B34910509F413C364F5823156
:103C2000910509F4FCC4D4F497FF02C00C94132D41
:103C3000823091050CF46AC1419711F00C94132D58
:103C40005F988A989FB7F894809108018E7F80933F
:103C500008019FBF129847980C94132D8A32910542
:103C600009F4ABC28033910509F4E7C24F9711F014
:103C70000C94132DD0C18235910509F4C7C4C4F446
:103C80008D34910509F4E5C20CF4DFC2813591054C
:103C900011F00C94132D0E94B38D0E9484A50E94F4
:103CA000417D1092D80A1092D70A00E010E097C424
:103CB0008435910509F4B3C40CF4ACC48535910581
:103CC00009F4E4C48C35910509F4FBC40C94132D5C
:103CD0008237910509F48DC5ECF48D36910509F410
:103CE0001CC464F48A36910509F448C40CF4CDC3AD
:103CF0008B36910509F461C40C94132D8F36910510
:103D000009F4F6C20CF4E1C28137910509F473C3DA
:103D10000C94132D8837910509F409C674F486377D
:103D2000910509F4FCC50CF0FEC58337910511F02F
:103D30000C94132DE1EEF4E062C58C38910509F482
:103D400086C35CF48937910511F00C94132D109201
:103D50000E0A10928F0A0C94132D8B39910509F4D9
:103D6000B1C38E3B910509F4F4C30C94132D833633
:103D700051E0950711F40C944E2C0CF057C08C3D7B
:103D8000910509F4F3C52CF58D3C910509F4E2C5C4
:103D90007CF48B3C910509F4D5C50CF0D7C5893C62
:103DA000910511F00C94132D0E948E790C94132D13
:103DB000833D910509F4D2C58A3D910509F4D2C528
:103DC0008E3C910511F00C94132D0E9433780C94C5
:103DD000132D8C32B1E09B0709F4D0C594F4823ED8
:103DE000910509F4C7C58E30F1E09F0709F4CEC5EF
:103DF0008D3D910511F00C94132D0E9409770C94C0
:103E0000132D8E3221E0920709F4C4C50CF4BAC513
:103E10008F3241E0940709F4C1C58033914011F01D
:103E20000C94132D0E942B750C94132D863FA1E04A
:103E30009A0711F40C94F429CCF5843AE1E09E073A
:103E400011F40C942428ACF4813921E0920711F488
:103E50000C941C28823931E0930711F40C9420282B
:103E60008039914011F00C94132D0E9484A50C947C
:103E7000132D8C3A51E0950711F40C9411293CF460
:103E8000853A914011F40C947C280C94132D843FB6
:103E9000E1E09E0711F40C94F129853F914011F067
:103EA0000C94132D0E9475400C94132D8B3823E035
:103EB000920711F40C94692B9CF4833543E094072A
:103EC00011F40C94052A843853E0950711F40C94EE
:103ED000572A873F914011F00C94132D0C94F72929
:103EE0008D38B3E09B0711F40C94C92B14F40C9497
:103EF000952B8E38F3E09F0711F40C94462C873EE7
:103F0000934011F40C948E2C0C94132DE0908503A7
:103F1000F090860380E50E94B334882359F00E9414
:103F20000D344B015C0111E0672B682B692B31F4D8
:103F300010E004C010E0812C912C540183E50E9414
:103F4000B334882399F00E94513420E030E04AE7EE
:103F500054E40E948EBB0E942AC14B015C011111E6
:103F60000CC0672B682B692B41F43CC0111105C0B4
:103F7000E114F10411F00C94802D83E090E0909313
:103F800098108093971081E0809384030E9484A509
:103F90000E94C03481149104A104B104A9F180915C
:103FA000A0109091A110A091A210B091A310750142
:103FB0006401C80ED91EEA1EFB1E0E9421AEDC0160
:103FC000CB018C199D09AE09BF09B7FD04C0109241
:103FD00084030C94132D809184038823C1F30E94E1
:103FE000837DEBCFE114F10411F00C94802D83E07C
:103FF00090E0909398108093971081E080938403D1
:104000000E9484A50E94C034809184038823F9F221
:104010000E94837DF9CF80915312909154120197A1
:1040200019F40E9421AE08C060915D1270915E1279
:1040300080915F12909160120091591210915A1262
:1040400020915B1230915C12601B710B820B930B01
:1040500028EE33E040E050E00E941CBF80915512F2
:1040600090915612A0915712B0915812BC01CD01F7
:10407000620F731F841F951FACE3CA2ED12CE12C55
:10408000F12CA70196010E941CBF162F072FCA0111
:10409000B901A70196010E941CBF4B015C01CA0136
:1040A000B90128E130E040E050E00E941CBF2B0144
:1040B0003C01C9016DE671E00E947FBF9E012F5F48
:1040C0003F4F79016115710599F00F931F939F92EE
:1040D0008F925F924F929F938F937F936F938DE711
:1040E00093E09F938F933F932F930E94F8BA26C03B
:1040F000009789F00F931F939F928F925F924F9238
:104100009F938F938DE693E09F938F933F932F938D
:104110000E94F8BA13C04114510461047104B1F053
:104120000F931F939F928F925F924F9281E693E03D
:104130009F938F933F932F930E94F8BA0FB6F894F2
:10414000DEBF0FBECDBFE1E9F3E223C081149104CD
:10415000A104B10469F00F931F939F928F9289E598
:1041600093E09F938F933F932F930E94F8BAE6CFEB
:104170000F931F9385E593E09F938F933F932F9326
:104180000E94F8BA0F900F900F900F900F900F9021
:10419000DACF84918F010F5F1F4F882321F00E9497
:1041A000CB34F801F6CFB70181E993E00E94774A5A
:1041B0008AE00E94CB340C94132D83E50E94B33423
:1041C000882311F40C94132D0E942D34E82E80E5E1
:1041D0000E94B334882311F40C94132D0E941D34D3
:1041E000162FC62ED72ED7FE02C00C94132DEEE943
:1041F000F3E080E38E0F9491191729F031968E1316
:10420000FACF0C949F2DE2E2F3E284918F010F5FCD
:104210001F4F882321F00E94CB34F801F6CFEEEC3B
:10422000F3E084918F010F5F1F4F882311F40C94EA
:10423000132D0E94CB34F801F4CF0E944D810C94D1
:10424000132D0E94738F0C94132D0E94BEAB0C94FF
:10425000132D0E94E28E0C94132D88E690E00E94AC
:10426000573681110C94132D80917C1183FF02C06D
:104270000C94132D83E50E94B334882311F10E941E
:10428000513410918703212F30E0220F331FA901F1
:1042900045515F4E7A010E9423C1D7016D937C93F3
:1042A000812F0E94FAA00E94513420E030E04AEAB7
:1042B00052E40E9428BB181614F00E94E28E0E945D
:1042C00051340E9400B60C94132D8EE40E94B33436
:1042D000882311F40C94132D0E941D346093EC126A
:1042E0007093ED128093EE129093EF120C94132DB5
:1042F00083E50E948434882359F083E50E94B33417
:10430000882319F00E942D3401C080E080937C1135
:10431000E1E9F3E284918F010F5F1F4F882321F0C1
:104320000E94CB34F801F6CFEDEEF3E084918F01DB
:104330000F5F1F4F882321F00E94CB34F801F6CF86
:1043400080917C118823A1F1EDEDCE2EE3E0DE2EED
:10435000E12CF12C20E080917C1190E00E2C02C029
:10436000959587950A94E2F780FF17C0BB24B39414
:10437000B20E222319F08CE20E94CB34F601259173
:104380003491F901849189010F5F1F4F882321F037
:104390000E94CB349801F5CF2B2DFFEFEF1AFF0AC7
:1043A00032E0C30ED11C46E0E416F104A1F61EC0B3
:1043B000E9EEF3E084918F010F5F1F4F8823B1F086
:1043C0000E94CB34F801F6CF8AE50E948434811133
:1043D0000C941F2A4091EC115091ED116091EE1157
:1043E0007091EF1180E797E00E94254A8AE00E94D1
:1043F000CB340C94132D83E50E94B334882369F0E9
:104400000E942D3480932A028D3310F40C94132DC6
:104410008CE380932A020C94132DE1E9F3E284915A
:104420008F010F5F1F4F882321F00E94CB34F801CA
:10443000F6CF40912A0250E060E070E084EF93E014
:104440000E942C6F8AE00E94CB340C94132D809133
:104450007C1183FF02C00C94132D83E50E94B334BA
:10446000882311F40C94132D0E9451340E9423C10F
:104470006E37710514F06DE770E07093E81060938B
:10448000E7100E94AFA00C94132D89E690E00E94E3
:104490005736811111C0EBEFF3E084918F010F5F6C
:1044A0001F4F882321F00E94CB34F801F6CF0E94E1
:1044B000CCAA8AE00E94CB341092981010929710E8
:1044C0000C94DA3183E50E94B334882311F40C9400
:1044D000132D0E942D3480939D108D3318F08CE3A2
:1044E00080939D100E9421AE6B017C0120919D1054
:1044F00030E0A8EEB3E00E9470BFDC01CB018C0D70
:104500009D1DAE1DBF1D8093991090939A10A0938E
:104510009B10B0939C100C94132D8DE690E00E949C
:10452000573681110C94132D80917C1183FF02C0AA
:104530000C94132D83E50E94B3348AA781110C9447
:10454000B62D82E50E94B33481110C94B62D0C94E3
:10455000132D80917C1183FF02C00C94132D83E5F1
:104560000E94B3348AA781110C94FF2E82E50E9429
:10457000B33481110C94FF2E0C94132D83E50E940B
:10458000B334882339F00E941D348B016F3F7105CD
:1045900019F010F00FEF10E080E50E94B3348111A4
:1045A00006C01093D80A0093D70A0C94132D0E94CA
:1045B0002D3481110C94132DF4CF80E50E94B33477
:1045C000811106C01092D80A1092D70A0C94132DAC
:1045D0000E941D34672B11F00C94132DF3CF62E36E
:1045E00070E080E090E00E94E7AD0E9418A30F5FAA
:1045F0001F4F0331110599F762E370E080E090E00E
:104600000E94E7AD0E9418A30C94132D10928B0307
:104610000C94132D81E080938B030C94132D83E570
:104620000E94B3348823A1F00E94513420E030E08E
:104630004AE754E40E948EBB0E942AC160932B0279
:1046400070932C0280932D0290932E020C94132DC4
:1046500088E50E94843481110C94363089E50E94EB
:10466000843481110C9436308AE50E94843481119F
:104670000C94363085E40E94843481110C943630D9
:104680000E9484A50E94417D0C94132D83E50E9415
:104690008434882311F40C94132D0E94513420E0AB
:1046A00030E04AE754E40E948EBB0E942AC1609326
:1046B000A4107093A5108093A6109093A7100C944B
:1046C000132D8CE590E00E94573681110C94132D28
:1046D000A9EAB2E0BBA3AAA39BE0C92E9BE0D92E16
:1046E000F12CEAA1FBA18191FBA3EAA30E948434EF
:1046F000882309F473C0F3E0FF1268C00E945134AC
:104700002B013C0120E030E040EA51E40E9428BB4C
:10471000E090870387FF4FC00E2D10E00D5F1F4F05
:10472000000F111F000F111FF801E55FF44FA301E7
:10473000920160817181828193810E94B1C04B019D
:104740005C019B01AC016091A70A7091A80A80915D
:10475000A90A9091AA0A0E948EBB6093A70A70933F
:10476000A80A8093A90A9093AA0A98012954354F60
:104770001901A5019401D1016D917D918D919C91BB
:104780000E948EBBF10160837183828393830D51FC
:10479000154FD8016D917D918D919C910E942DBBFB
:1047A000A50194010E948EBB0E942AC1F80160837A
:1047B00071838283938324E0E29EF0011124E95EF9
:1047C000F44F408251826282738208C00E94513449
:1047D000D6016D937D938D939C931397F394B4E0DE
:1047E000CB0ED11CE4E0FE127CCF0E94525C0C94F4
:1047F000132D0E9484A50E940DAA0C94132D849160
:104800008F010F5F1F4F882321F00E94CB34F801E6
:10481000F6CFE3EDF4E084918F010F5F1F4F882303
:1048200021F00E94CB34F801F6CFECEBF4E0849158
:104830008F010F5F1F4F882321F00E94CB34F801B6
:10484000F6CFECEAF4E084918F010F5F1F4F8823CD
:1048500021F00E94CB34F801F6CFEBE9F4E084912B
:104860008F010F5F1F4F882321F00E94CB34F80186
:10487000F6CFEAE8F4E084918F010F5F1F4F8823A1
:1048800021F00E94CB34F801F6CFEBE7F4E08491FD
:104890008F010F5F1F4F882321F00E94CB34F80156
:1048A000F6CFE6E6F4E084918F010F5F1F4F882377
:1048B00021F00E94CB34F801F6CFE0E5F4E08491DA
:1048C0008F010F5F1F4F882321F00E94CB34F80126
:1048D000F6CFEBE3F4E084918F010F5F1F4F882345
:1048E00021F00E94CB34F801F6CFEEE1F4E08491A0
:1048F0008F010F5F1F4F882321F00E94CB34F801F6
:10490000F6CFE6E0F4E084918F010F5F1F4F88231C
:1049100011F40C94132D0E94CB34F801F4CF0E94B3
:10492000D4A90C94132D0E949FA80C94132D81E000
:1049300080930E0A80938F0A0C94132D0E94CA79DB
:104940000C94132D0E945F790C94132D0E94F6781D
:104950000C94132D0E948C780C94132D0E949D773B
:104960000C94132D0E9430770C94132D0E94247701
:104970000C94132D0E94AE760C94132D0E94477652
:104980000C94132D0E94AA750C94132D0E947C7612
:104990000C94132D0E94D5740C94132D85E40E9461
:1049A000B334882321F00E941D341B0102C0212C46
:1049B000312C83E40E94B334882339F00E941D34E3
:1049C000A9967FAF6EAFA99706C025E030E0A99603
:1049D0003FAF2EAFA99785E50E948434E0968FAF54
:1049E000E097882329F00E944134E0968FAFE0974A
:1049F00037FC07C0C12CD12C16E1E12E13E4F12EB7
:104A000006C0C12CD12CBCE8EB2EB2E4FB2E83E512
:104A10000E94B334882321F00E9451346B017C0141
:104A2000C701B6010E9423C132E02316310410F4FD
:104A300020928703072E000C880B990B0E942FBB36
:104A40006EAF7FAF21968FAF219722969FAF2297AF
:104A50000E9421AE2B013C01DC01CB018C53964F0F
:104A6000AF4FBF4F8093561390935713A093581393
:104A7000B0935913C1010196039718F40BED12E09E
:104A80000BC00EEE12E0D8018D918D01882309F440
:104A9000ADCC0E94CB34F7CFF80181918F018823F0
:104AA00019F00E94CB34F8CF8AE00E94CB340E94E8
:104AB000B38D8FE7FFEF2F163F0619F48093F510A3
:104AC00004C0F101EA50FF4E808381E08093000230
:104AD000A3964CAE5DAE6EAE7FAEA397AD964CAED8
:104AE0005DAE6EAE7FAEAD9723961FAE239720E4EA
:104AF00024962FAF24973CE128963FAF289746E4B1
:104B00002C964FAF2C9760961FAE609764961FAEA1
:104B1000649768961FAE68976C961FAE6C971AAE36
:104B20001BAE1CAE1DAE1EAA1FAA18AE19AEC12C1C
:104B3000D12C7601FFE78F2E912CA12CB12C8FE781
:104B400090E0A0E0B0E08EA79FA7A8ABB9ABEB9632
:104B50001CAE1DAE1EAE1FAEEB9791E0E4969FAF6C
:104B6000E4971BAA1AAA1EA21AA600E010E0D1011F
:104B7000AA50BF4EAF96BFAFAEAFAF97C101880F7F
:104B8000991F880F991FFC01E65AFC4EA596FFAFAE
:104B9000EEAFA59780910002882309F446C20E94D7
:104BA00021AE6AA37BA38CA39DA38091F3108823DD
:104BB00009F418C10E94F1A1FFEF2F163F0659F426
:104BC000209162132EA3309163133AA700916413CE
:104BD0001091651315C0A596AEADBFADA597BC915C
:104BE000BEA3A596EEADFFADA597F181FAA7A59658
:104BF000AEADBFADA59712960C91129713961C916E
:104C00002EA13AA5A80160966FAD609764967FAD1E
:104C1000649768968FAD68976C969FAD6C970E946D
:104C200028BB87FF0EC0BEA16096BFAF6097EAA504
:104C30006496EFAF649768960FAF68976C961FAF56
:104C40006C972EA13AA5A80123966FAD23972496C1
:104C50007FAD249728968FAD28972C969FAD2C97E3
:104C60000E9417C2181674F4FEA12396FFAF239773
:104C70002AA524962FAF249728960FAF28972C9615
:104C80001FAF2C978091561390915713A0915813F2
:104C9000B09159132AA13BA14CA15DA1281B390B4E
:104CA0004A0B5B0B57FD12C00E9493A28AA19BA1E5
:104CB000ACA1BDA18C53964FAF4FBF4F80935613FD
:104CC00090935713A0935813B0935913E4963FADA4
:104CD000E4972EAD332309F45FC03FAD21964FAD6D
:104CE000219722965FAD22976EA17AA5C8010E94F6
:104CF00017C218160CF076C04AA15BA16CA17DA169
:104D00004419550966097709DB01CA01885893419E
:104D1000A109B109B7FD66C08EA59FA5A8A9B9A92B
:104D200088199909AA09BB09B595A79597958795FB
:104D3000EFEF2E163E0619F48093F51005C0AF96DE
:104D4000EEADFFADAF978083EB964CAF5DAF6EAF2E
:104D50007FAFEB97FEAD6096FFAF60972FAD649687
:104D60002FAF649721963FAD219768963FAF689724
:104D700022964FAD22976C964FAF6C978AA19BA15C
:104D8000ACA1BDA1A3968CAF9DAFAEAFBFAFA397B3
:104D9000E4961FAEE49726C03FAD21964FAD219714
:104DA00022965FAD22976EA17AA5C8010E9428BB0A
:104DB00087FF18C08AA19BA1ACA1BDA1A3962CAD71
:104DC0003DAD4EAD5FADA397821B930BA40BB50B0E
:104DD000AC01BD01485853416109710977FD02C01A
:104DE0000C94603020E030E040EA51E46EAD7FADDD
:104DF00021968FAD219722969FAD22970E94B7BF33
:104E00009B01AC016EA17AA5C8010E9417C21816B9
:104E10006CF4E2E7F6E084918F010F5F1F4F882367
:104E200009F401C60E94CB34F801F5CF80E398EF76
:104E3000AFEFBFEFAD962CAD3DAD4EAD5FADAD97D5
:104E4000821B930BA40BB50B2AA13BA14CA15DA126
:104E5000820F931FA41FB51FB7FD0FC00E94CCAADD
:104E60008AE00E94CB348AA19BA1ACA1BDA1AD96E2
:104E70008CAF9DAFAEAFBFAFAD978AA19BA1ACA1E8
:104E8000BDA1880F991FAA1FBB1FA3962CAD3DADD6
:104E90004EAD5FADA397821B930BA40BB50B84198A
:104EA0009509A609B70981389F44A241B10568F068
:104EB000E4E5F6E084918F010F5F1F4F882309F42A
:104EC000B2C50E94CB34F801F5CF4AA95BA9A996D7
:104ED0008EAD9FADA997841795070CF05BCEE7EFD9
:104EE000F5E084918F010F5F1F4F882321F00E940E
:104EF000CB34F801F6CF9FEF2916390619F00CE3F1
:104F000013E002C00FEC12E0B80185EE95E00E94BC
:104F1000774AB701A60181EE95E00E94254A8AE012
:104F20000E94CB34B8018FEC95E00E94774A4EA9DD
:104F30005FA968AD79AD8BEC95E00E94254A8AE0C7
:104F40000E94CB34B80189EB95E00E94774A4AADC4
:104F50005BAD6CAD7DAD85EB95E00E94254A8AE0A6
:104F60000E94CB34E096AFADE097AA2309F45BC56D
:104F70002320209469F5C0925213D0925313E092EB
:104F80005413F09255132CEA35EC47E25EE36EA918
:104F90007FA988AD99AD0E948EBB60934E1370932C
:104FA0004F1380935013909351132CEA35EC47E242
:104FB0005EE36AAD7BAD8CAD9DAD0E94B1C06093E8
:104FC0004A1370934B1380934C1390934D132BC53E
:104FD000C0924213D0924313E0924413F0924513CF
:104FE0002CEA35EC47E25EE36EA97FA988AD99AD66
:104FF0000E948EBB60933E1370933F1380934013C7
:10500000909341132CEA35EC47E25EE36AAD7BAD49
:105010008CAD9DAD0E94B1C0609346137093471351
:105020008093481390934913FEC48091000281112C
:10503000FAC40E94B38DF7C481E00E94AB3AF3C476
:1050400080E00E94AB3AEFC486E50E948434882356
:1050500041F080918B0A90918C0A892B11F00E946B
:1050600060B083E50E948434182F882319F00E94D1
:105070004134182F83E50E948434882319F0812F4E
:105080000E94F932F090910A111103C0E1E9F3E2B4
:105090001AC0F110FBCFE2E2F3E284918F010F5FBF
:1050A0001F4F882321F00E94CB34F801F6CFE4EFA4
:1050B000F6E084918F010F5F1F4F882339F30E9420
:1050C000CB34F801F6CF84918F010F5F1F4F8823F7
:1050D00021F00E94CB34F801F6CFF11003C067ED48
:1050E00072E002C063ED72E086EE96E00E94774ABD
:1050F0008AE00E94CB3497C489E40E94B3348823A9
:1051000021F00E941D34062F01C00FEF8AE40E9497
:10511000B334882321F00E941D34162F01C01FEFE5
:105120008AE50E948434F82E811105C081E50E9431
:105130008434782E01C0712C07FD02C017FF03C014
:10514000E2E2F3E205C0F1101AC0711018C0F8CF06
:1051500084918F010F5F1F4F882321F00E94CB3471
:10516000F801F6CFE2E3F7E084918F010F5F1F4F64
:10517000882309F458C40E94CB34F801F5CF0330DA
:1051800018F0E2E2F3E206C01330D8F716C00E942E
:10519000CB34F80184918F010F5F1F4F8111F7CF3E
:1051A000E3E1F7E084918F010F5F1F4F882309F43B
:1051B0003AC40E94CB34F801F5CFC02E000FDD08B1
:1051C000E12E110FFF080E9451348601000F111FBC
:1051D000772081F0F801EC0DFD1DEE0DFF1DEE0FA7
:1051E000FF1FEE0FFF1FE853FE4E208131814281E9
:1051F000538103C020E030E0A9010C0D1D1DF80112
:10520000EE0DFF1DEE0FFF1FEE0FFF1F8F01085366
:105210001E4E0E94B7BFF80160837183828393831F
:1052200002C4A8E4CA2EAAE0DA2EBCE6EB2EB1E155
:10523000FB2E10EF212E11E1312E00E010E0910144
:10524000205F31413BA32AA3D1018D911D01882309
:1052500009F49AC0F7014080518062807380F801A0
:10526000E05CFD4F2081318142815381F801E051A2
:10527000FD4E60817181828193810E94B7BF20E0E1
:1052800030E040E05FE30E948EBB9B01AC01C301B4
:10529000B2010E9417C2181644F4F801EC53F24E02
:1052A00085909590A590B49003C0812C912C5401C9
:1052B000F801E05AFE4E2081318142815381C301C1
:1052C000B2010E94B6BF9B01AC01C501B4010E94AE
:1052D000B6BF4B015C0120E030E040EA51EC0E9497
:1052E00017C287FD29C020E030E040EA51E4C50143
:1052F000B4010E9428BB1816FCF0D6012D913D91F7
:105300004D915C91C501B4010E94B6BF9B01AC01F7
:10531000C301B2010E94B7BFF7016083718382832A
:105320009383D6018D929D92AD92BC9213978AA1E0
:105330009BA10E94453528C0E2E2F3E284918F01EF
:105340000F5F1F4F882321F00E94CB34F801F6CF66
:10535000E2E5F7E084918F010F5F1F4F882321F072
:105360000E94CB34F801F6CF88E290E09A838983DB
:1053700088EC90E09F8B8E8BBE016F5F7F4FCE01DC
:1053800046960E9455AC4FC3B4E0CB0ED11C0C5FC7
:105390001F4FE4E0EE0EF11C0C30110509F04FCF69
:1053A0000E94B73B0E940DAA83E992E09F8B8E8BEF
:1053B00004E610E01A830983BE016A5E7F4FCE01C6
:1053C00001960E9455AC8AEB92E09F8B8E8B1A83DC
:1053D0000983BE016A5E7F4FCE0101960E9455ACE3
:1053E00022C30E94AD451FC30E94E83E1CC383E553
:1053F0000E948434882319F00E94413401C081E066
:1054000091E089270E94666F0EC3E1E9F3E284917F
:105410008F010F5F1F4F882321F00E94CB34F801CA
:10542000F6CFEAE8F7E084918F010F5F1F4F8823E2
:1054300011F40C94E4210E94CB34F801F4CF0E94C3
:1054400051346B017C0120E030E040EA51EC0E94D5
:1054500017C287FD1EC020E030E040EA51E4C701DA
:10546000B6010E9428BB1816A4F0C092EC11D0928D
:10547000ED11E092EE11F092EF110E94DE8F60913B
:10548000EC117091ED118091EE119091EF1142E0CD
:105490000EC1E3E7F7E084918F010F5F1F4F882370
:1054A00011F40C94F6210E94CB34F801F4CF0E9441
:1054B00084A58BE40E94B334882399F00E94513470
:1054C0006B017C0120E030E0A9010E9417C287FD3A
:1054D00008C0C092970AD092980AE092990AF09276
:1054E0009A0A82E50E94B334882361F00E94513405
:1054F0006B017C0120E030E0A9010E9428BB87FFFE
:1055000089C006C0C12CD12CF0E8EF2EFFEBFF2E96
:1055100084E40E94B334882329F00E9451344B0163
:105520005C0106C0812C912CE0E8AE2EEFEBBE2E84
:1055300087E50E94B334882329F00E9451342B015F
:105540003C0106C0412C512C70E8672E7FEB772E72
:1055500088E40E94B334882339F00E9451346AA34E
:105560007BA38CA39DA308C020E030E040E85FEB64
:105570002AA33BA34CA35DA320E030E0A901C50111
:10558000B4010E9417C287FD45C020E030E0A901A8
:10559000C301B2010E9417C287FD3CC020E030E089
:1055A000A9016AA17BA18CA19DA10E9417C287FDC0
:1055B00031C020E030E0A901C501B4010E9428BB40
:1055C000882391F120E030E040E05FE3C501B401C1
:1055D0000E948EBB6B017C012AA13BA14CA15DA165
:1055E000C301B2010E948EBB4B015C01A701960171
:1055F000C701B6010E948EBB2BED3FE049E450E4A9
:105600000E948EBB9B01AC01C501B4010E94B1C0D8
:105610006B017C0120E030E0A901C701B6010E94C6
:1056200017C287FF04C00BC0C12CD12C7601C092D9
:10563000930AD092940AE092950AF092960AE1E9D0
:10564000F3E284918F010F5F1F4F882321F00E94A6
:10565000CB34F801F6CF4091970A5091980A6091A7
:10566000990A70919A0A8FE997E00E94254AE9E920
:10567000F7E084918F010F5F1F4F882321F00E9474
:10568000CB34F801F6CFC090930AD090940AE09002
:10569000950AF090960A20E030E0A901C701B60112
:1056A0000E9428BB882339F042E0C701B6010E945E
:1056B00078380C94F621E4E9F7E084918F010F5FCC
:1056C0001F4F882311F40C94F6210E94CB34F8016B
:1056D000F4CF83E50E948434811106C069EAE62E86
:1056E00062E0F62E10E012C00E9451346B017C0182
:1056F00010E0B701A601812F0E94F8A41F5F1530AA
:10570000C1F7ECCF1F5F143009F48DC1D7018D9123
:105710007D010E9484348823A9F30E945134AB0197
:10572000BC01812F0E94F8A4EDCF83E50E94B33421
:10573000882329F00E941D34162F072F02C010E085
:1057400000E080E50E94B334882319F00E942D34D4
:1057500001C08FEF9091440A992309F464C1E82FA6
:10576000F0E0E553FD4FE081F0E0EE0FFF1FE45C59
:10577000F54F812F902F8130B0E19B0710F080E032
:1057800090E1918380830E942DA988E00E941CA94A
:105790004AC18091440A882309F445C1E1E9F3E252
:1057A00084918F010F5F1F4F882321F00E94CB341B
:1057B000F801F6CFE9ECF7E084918F010F5F1F4FFE
:1057C000882321F00E94CB34F801F6CFE1E9F3E21F
:1057D00084918F010F5F1F4F882321F00E94CB34EB
:1057E000F801F6CF80E00E94DAA4AB01BC0185ECA1
:1057F00097E00E94254A80E00E94B9A4AB01BC0159
:1058000082EC97E00E94254A81E00E94DAA4AB0175
:10581000BC018DEB97E00E94254A81E00E94B9A46B
:10582000AB01BC018AEB97E00E94254A82E00E940E
:10583000DAA4AB01BC0185EB97E00E94254A82E027
:105840000E94B9A4AB01BC0182EB97E00E94254AFB
:1058500083E00E94DAA4AB01BC018DEA97E00E94CC
:10586000254A83E00E94B9A4AB01BC018AEA97E013
:105870000E94254A07E113E0F80181918F018823F6
:1058800011F40C94F6210E94CB34F6CF8091440A97
:10589000882309F4C8C00E9477A9C5C080E50E948A
:1058A000B334882331F00E942D348093460A11E0EE
:1058B00001C010E083E50E94B334882329F00E94E0
:1058C00041348093470A01C011110E94C574E1E977
:1058D000F3E284918F010F5F1F4F882321F00E9414
:1058E000CB34F801F6CF8091470A81110CC009E151
:1058F00013E0D8018D918D01882311F40C94F621C9
:105900000E94CB34F6CF6091460A70E08EEE97E0AD
:105910000E94424A8AE00E94CB3485C081E0809395
:10592000580283E50E948434811103C00E94CA9DFD
:105930007AC00E944134811176C0F8CFE0908D0981
:10594000F0908E091E2D80917C1185FF14C0B70147
:10595000772785E498E00E94424A89E20E94CB348E
:105960008AE00E94CB344CE651E166E278E081E3C4
:1059700098E00E948B3A8091E20A181751F083E573
:105980000E948434182F882329F00E944134182F54
:1059900001C011E086E40E94B334882319F00E940C
:1059A000513403C060E070E0CB0120E030E040E71C
:1059B00052E40E94B1C0AB01BC01212F8E2D0E9488
:1059C000907480917C1185FF2EC04CE651E168E017
:1059D00078E082E198E00E948B3AEBEFF7E0849167
:1059E0008F010F5F1F4F8823F1F00E94CB34F80125
:1059F000F6CFE1E9F3E284918F010F5F1F4F882317
:105A000021F00E94CB34F801F6CF60919E10709186
:105A10009F1082E598E00E94774A82E20E94CB3490
:105A20008AE00E94CB3410929810109297100E9436
:105A3000AB9DC0C4E0918503F0918603EF2B31F458
:105A4000FC013197F0938603E0938503A0E0B0E07A
:105A50000C94781480E00E94F9320E948B3B83E51D
:105A60000E948434882309F449C00E94413421E013
:105A7000482FBE016F5F7F4FCE0146960E94A890CF
:105A80006B017C019B01AC010E94A9C2811131C054
:105A90002CEA35EC47E257E36E897F89888D998D32
:105AA0000E94B7BFAB01BC018EE293E00E94496F38
:105AB0002CEA35EC47E257E369817A818B819C813E
:105AC0000E94B7BFAB01BC0189E293E00E94496F1D
:105AD0002CEA35EC47E257E3C701B6010E94B7BF95
