:100000000C9429100C945A100C945A100C945A10F9
:100010000C945A100C945A100C945A100C945A10B8
:100020000C945A100C945A100C945A100C945A10A8
:100030000C945A100C945A100C945A100C945A1098
:100040000C945A100C9437760C945A100C945A1045
:100050000C945A100C945A100C946F720C948F9547
:100060000C945A100C9466310C943B320C945A1038
:100070000C945A100C945A100C945A100C945A1058
:100080000C945A100C945A100C945A100C945A1048
:100090000C945A100C945A100C945A100C94B26F81
:1000A0000C945A100C945A100C945A100C945A1028
:1000B0000C945A100C945A100C945A100C945A1018
:1000C0000C945A100C945A100C945A100C945A1008
:1000D0000C945A100C945A100C945A100C945A10F8
:1000E0000C945A109931A031B431C131CB31E63181
:1000F000D031E631D531DA31E631E23157935A93D6
:1001000049934D93539391935E93629368936C9349
:10011000709376937A937E939193849388938C9340
:10012000A994AE94B394BD94C7944095D194D994B6
:10013000E194EB94F594FF940E95189540952295D3
:100140002C953695084AD73B3BCE016E84BCBFFD4B
:10015000C12F3D6C74319ABD56833DDA3D00C77F97
:1001600011BED9E4BB4C3E916BAAAABE0000008030
:100170003F05A84CCDB2D44EB93836A9020C50B9BF
:10018000918688083CA6AAAA2ABE000000803F00EB
:100190000C9484930C94EB940C94EC9E0C94F59436
:1001A0000C94D9940C9436950C9488930C940E95D9
:1001B0000C9491930C94A9940C94C46D0C944D934D
:1001C0000C94F06D0C9449930C9440950C94CB31A5
:1001D0000C94E86D0C94D1940C945A930C94229541
:1001E0000C948C930C94C7940C94C56D0C94206E55
:1001F0000C94D0310C9418950C94E2310C94506E00
:100200000C947E930C9457930C94A0310C94FF940F
:100210000C94D46D0C942C950C94B3940C9453932F
:100220000C945E930C9462930C94E6310C94B4316C
:100230000C94E1940C947A930C9476930C94E22AA7
:100240000C94D5310C94C1310C9499310C94AE942A
:100250000C94BD940C946C930C94DA310C946893C8
:100260000C947093434F4D4D554E49434154494F63
:100270004E0044525952554E004552524F5253006F
:10028000494E464F004543484F0047322F473320E1
:1002900062616420706172616D65746572730A00D9
:1002A00047322F47332062616420706172616D654F
:1002B000746572730A00205A3A200020593A2000CF
:1002C00042656420583A20004D65736820706F695C
:1002D0006E742063616E6E6F742062652072657348
:1002E0006F6C7665640A002569730025696D2025A9
:1002F0006973002569682025696D202569730025CB
:100300006964202569682025696D202569730025A9
:10031000697920256964202569682025696D202573
:100320006973005072696E742074696D653A2000BB
:1003300050726F7465637465642050696E0A003D85
:10034000003F2061646472657373203A200020626C
:1003500079746573206F66206D656D6F72792069A1
:100360006E697469616C697A65642E0A0A00556E5B
:1003700061626C6520746F20696E697469616C6973
:100380007A652E0A0A00496E697469616C697A6936
:100390006E672066726565206D656D6F727920628B
:1003A0006C6F636B2E0A0A0A00747275650A00206E
:1003B00072657475726E3D000A4D656D6F727920BD
:1003C000436F7272757074696F6E206465746563D3
:1003D00074656420696E2066726565206D656D6F59
:1003E000727920617265612E0A002020626C6F6351
:1003F0006B5F666F756E643D0020202000292066CB
:100400006F756E643D00202800207370203C2048EA
:1004100065617020002073703D000A5F5F62737336
:100420005F656E643A20003D000A265F5F62726B72
:1004300076616C3A20000A666D632829206E3D00C3
:10044000636865636B5F666F725F667265655F6D3B
:10045000656D6F72795F636F7272757074696F6EBC
:100460002829203D20002062797465732061742062
:10047000000A4C617267657374206672656520625C
:100480006C6F636B20697320000A4D656D6F727924
:1004900020436F7272757074696F6E206465746545
:1004A0006374656420696E2066726565206D656D94
:1004B0006F727920617265612E0A0020627974651D
:1004C0007320667265652061742000466F756E64E6
:1004D00020000A436F7272757074696E67206164E0
:1004E00064726573733A2000436F72727570746939
:1004F0006E672066726565206D656D6F727920622A
:100500006C6F636B2E0A0A000A537461636B205090
:100510006F696E746572203A20000A737461727498
:10052000206F662066726565207370616365203A8E
:1005300020000A5F5F6273735F656E64203A20007B
:100540000A5F5F62726B76616C203A2000850280E0
:10055000027902720264026F6666004445425547A2
:100560003A004D3131332053006F6B0020573A0071
:100570004361703A454D455247454E43595F50419E
:10058000525345523A310A004361703A4341534550
:100590005F4C494748545F4252494748544E45537F
:1005A000533A310A004361703A544F47474C455F14
:1005B0004C49474854533A310A004361703A534F0B
:1005C0004654574152455F504F5745523A300A0002
:1005D0004361703A4C4556454C494E475F4441543F
:1005E000413A310A004361703A5A5F50524F4245D6
:1005F0003A310A004361703A4155544F4C455645D3
:100600004C3A310A004361703A5052494E545F4AA5
:100610004F423A310A004361703A50524F475245B7
:1006200053533A300A004361703A4155544F524592
:10063000504F52545F54454D503A310A0043617057
:100640003A454550524F4D3A310A004649524D57AE
:100650004152455F4E414D453A4D61726C696E2085
:100660004D61726C696E5F312E312E365F526F6252
:100670006F56657273696F6E5F312E322E3620525F
:100680006F626F20523220534F555243455F434FA4
:1006900044455F55524C3A68747470733A2F2F6713
:1006A00069746875622E636F6D2F526F626F334489
:1006B0002F4D61726C696E2050524F544F434F4C16
:1006C0005F56455253494F4E3A312E30204D4143EB
:1006D00048494E455F545950453A20526F626F2049
:1006E00052322045585452554445525F434F554E5F
:1006F000543A3120555549443A6365646532613254
:10070000662D343161322D343734382D396231322F
:100710002D6335356336326633363766660A002F09
:100720002F20007A5F6D61783A20007A5F6D696EE4
:100730003A2000795F6D61783A2000785F6D696ECC
:100740003A20005265706F7274696E6720656E643E
:1007500073746F70207374617475730A00536574D9
:1007600074696E672054726176656C2041636365BD
:100770006C65726174696F6E3A20005365747469B8
:100780006E67205265747261637420416363656CA7
:1007900065726174696F6E3A200053657474696E96
:1007A00067205072696E7420416363656C65726185
:1007B00074696F6E3A200053657474696E672050D7
:1007C00072696E7420616E642054726176656C206B
:1007D000416363656C65726174696F6E3A200020D5
:1007E0005A00205900580020204D61783A200020FE
:1007F0005A00205900580020204D696E3A20004FC1
:100800006E20004F666600536F667420656E6473D9
:10081000746F70733A2000000136372603FF3C3DA9
:1008200038FF0E2E303E1312FFFF080706FF061A90
:100830001C18FFFF08440A0B43FFFFFFFFFFFF3AAE
:1008400020007A5F6D696E3A20202D3230207A5F69
:100850006D61783A20203230005A204F6666736509
:100860007420002028002920453A00202800292053
:100870005A3A002028002920593A00202800205800
:100880003A00537465707065722063757272656E9C
:10089000742076616C75657320696E20252028416F
:1008A0006D7073293A0A0043617365206C6967684B
:1008B000743A2000416374697665204578747275D6
:1008C0006465723A2000556E6B6E6F776E20636FB1
:1008D0006D6D616E643A202200736C6F743A004B48
:1008E000494C4C45442E2000656E717565756569EF
:1008F0006E672022004E6F204C696E65204E756D2C
:10090000626572207769746820636865636B7375CC
:100910006D2C204C617374204C696E653A20005038
:1009200072696E7465722073746F70706564206490
:10093000756520746F206572726F72732E20466920
:100940007820746865206572726F7220616E642011
:10095000757365204D39393920746F207265737451
:100960006172742E202854656D70657261747572A1
:10097000652069732072657365742E205365742039
:100980006974206166746572207265737461727433
:10099000696E67290A004E6F20436865636B737543
:1009A0006D2077697468206C696E65206E756D6264
:1009B00065722C204C617374204C696E653A20007E
:1009C000636865636B73756D206D69736D617463C6
:1009D000682C204C617374204C696E653A20004C81
:1009E000696E65204E756D626572206973206E6F49
:1009F00074204C617374204C696E65204E756D6275
:100A000065722B312C204C617374204C696E653AF1
:100A100020004D31313000776169740A0020496E41
:100A200076616C6964206578747275646572200003
:100A30000000000000000000000000000000FE4276
:100A40000000FE420000204342696C696E656172DD
:100A5000204C6576656C696E6720477269643A0A56
:100A60000020706F736974696F6E206F7574206FEA
:100A7000662072616E67652E0A003F50726F626574
:100A8000200052756E6E696E6720696E204452595F
:100A90002D52554E206D6F64650A00473239204152
:100AA00075746F20426564204C6576656C696E676D
:100AB0000A0028422961636B00284629726F6E7410
:100AC000002852296967687400284C2965667400FB
:100AD0003F2856296572626F7365206C6576656C78
:100AE00020697320696D706C61757369626C652033
:100AF00028302D34292E0A00426164205A20766164
:100B00006C75650A004E6F2062696C696E65617272
:100B100020677269640A0020746F6F206C6F6E67C3
:100B200020657874727573696F6E20707265766572
:100B30006E7465640A0020636F6C6420657874725B
:100B40007573696F6E2070726576656E7465640A80
:100B50000050726F6265204F66667365742069731A
:100B6000205A3A20005374616E64617264204465B7
:100B700076696174696F6E3A20002052616E676514
:100B80003A2000204D61783A2000204D696E3A20CD
:100B9000004D65616E3A200046696E697368656450
:100BA000210A002072616E67653A2000206D61782D
:100BB0003A2000206D696E3A2000207369676D61EC
:100BC0003A2000206D65616E3A20003A207A3A2082
:100BD00000206F662000205A00205900205800474E
:100BE0006F696E6720746F3A00436C6F636B77694F
:100BF00073650A00436F756E7465722D0020446939
:100C000072656374696F6E3A2000202020616E6700
:100C10006C653A20005374617274696E672072616A
:100C2000646975733A2000506F736974696F6E69F7
:100C30006E67207468652070726F62652E2E2E0AB2
:100C4000003F4E756D626572206F66206C6567733C
:100C500020696E206D6F76656D656E74206E6F74A1
:100C600020706C61757369626C652028302D313598
:100C7000292E0A00590058003F53616D706C6520A1
:100C800073697A65206E6F7420706C617573696228
:100C90006C652028342D3530292E0A004D3438203B
:100CA0005A2D50726F626520526570656174616281
:100CB000696C69747920546573740A003F28562959
:100CC0006572626F7365206C6576656C2069732050
:100CD000696D706C61757369626C652028302D34A4
:100CE000292E0A00202F0020403A00205A3A0020E6
:100CF000593A0020436F756E7420583A0020453AE7
:100D000000205A3A0020593A00583A0020746F6F78
:100D1000206C6F6E6720657874727573696F6E20D2
:100D200070726576656E7465640A0020636F6C642A
:100D300020657874727573696F6E20707265766560
:100D40006E7465640A00627573793A207061757318
:100D5000656420666F7220696E7075740A00627532
:100D600073793A2070617573656420666F722075BF
:100D70007365720A00627573793A2070726F6365E9
:100D80007373696E670A004B494C4C45442E200032
:100D90004B494C4C20636175736564206279204B2C
:100DA000494C4C20627574746F6E2F70696E0A0026
:100DB0004B494C4C45442E20004B494C4C20636120
:100DC0007573656420627920746F6F206D75636838
:100DD00020696E6163746976652074696D65202D84
:100DE0002063757272656E7420636F6D6D616E64E1
:100DF0003A20005072696E7465722068616C746587
:100E0000642E206B696C6C28292063616C6C6564AE
:100E1000210A00000000000000FE42000020430004
:100E200000484200004842000040410000000057D6
:100E300061726E696E673A20486F6D696E67204215
:100E4000756D702044697669736F72203C20310A99
:100E5000000202040000A0400000A040000000408A
:100E60000000FE420000FE4200002043FF01014559
:100E700072726F722077726974696E6720746F2066
:100E8000454550524F4D210A004B494C4C45442E8C
:100E90002000202D20496E76616C6964206578748D
:100EA0007275646572206E756D62657220210A002C
:100EB0002020506C616E6E65724275666665724286
:100EC000797465733A20002046726565204D656D22
:100ED0006F72793A2000436F6D70696C65643A20D7
:100EE00053657020323720323031380A00207C20A0
:100EF000417574686F723A20526F626F0A00323720
:100F00002053455054203230313800204C617374E6
:100F100020557064617465643A20004D61726C699B
:100F20006E5F312E312E365F526F626F566572736F
:100F3000696F6E5F312E322E360A004D61726C6918
:100F40006E0020536F667477617265205265736519
:100F5000740A00205761746368646F672052657378
:100F600065740A002042726F776E206F757420528C
:100F7000657365740A002045787465726E616C2033
:100F800052657365740A00506F77657255700A0078
:100F900073746172740A00205A3A0020593A002092
:100FA000583A00656E6473746F7073206869743AA0
:100FB000200043757272656E743A200020643A0016
:100FC00020693A0020703A0020643A0020693A0013
:100FD00020703A0043290A0061626C656420286D24
:100FE000696E2074656D702000436F6C64206578B5
:100FF0007472756465732061726520004B64200013
:1010000023646566696E65202044454641554C540D
:101010005F004B69200023646566696E652020448B
:10102000454641554C545F004B7020002364656673
:10103000696E65202044454641554C545F00504937
:1010400044204175746F74756E652066696E6973AE
:10105000686564212050757420746865206C617324
:1010600074204B702C204B6920616E64204B6420EF
:10107000636F6E7374616E74732066726F6D20623D
:10108000656C6F7720696E746F20436F6E66696759
:1010900075726174696F6E2E680A00504944204170
:1010A00075746F74756E65206661696C6564212066
:1010B00074696D656F75740A0050494420417574F8
:1010C0006F74756E65206661696C65642120546576
:1010D0006D706572617475726520746F6F206869D8
:1010E00067680A00204B643A2000204B693A2000D0
:1010F000204B703A20000A20436C617373696320AF
:10110000504944200A002054753A2000204B753A7B
:101110002000206D61783A2000206D696E3A200031
:1011200020643A200020626961733A2000426564BD
:10113000204C6576656C696E6720004661696C6558
:101140006420746F20656E61626C65204265642066
:101150004C6576656C696E670A004D657368207032
:101160006F696E742063616E6E6F742062652072A9
:1011700065736F6C7665640A004D34323120696E98
:10118000636F727265637420706172616D657465FE
:10119000722075736167650A00546F6F2066617213
:1011A0002066726F6D207265666572656E6365207C
:1011B000706F696E740A0070012C0190012701B0F4
:1011C000012201C0011D01F00118011002130130BC
:1011D000020E016002090190020401C002FF00003A
:1011E00003FA004003F5008003F000D003EB002079
:1011F00004E6007004E100E004DC004005D700C014
:1012000005D2004006CD00D006C8008007C30030DC
:1012100008BE00F008B900C009B400B00AAF00B0C1
:101220000BAA00D00CA500000EA000500F9B00C020
:101230001096005012910000148C00C0158700B069
:10124000178200B0197D00D01B7800001E7300408B
:10125000206E0090226900F024640040275F009017
:10126000295A00E02B5500102E500020304B001062
:10127000324600E033410090353C001037370070B3
:10128000383200A0392D00B03A2800A03B2300607E
:101290003C1E00103D1900903D1400103E0F0070E0
:1012A0003E0A00C03E0500003F0000403FFBFF80BB
:1012B0003FF6FFC03FF1FF0B0BFFFFFF00000202F4
:1012C000026265640A002C2073797374656D207363
:1012D000746F7070656421204865617465725F4940
:1012E000443A200048656174696E67206661696CE4
:1012F00065640048656174696E67206661696C6544
:1013000064004572723A204D494E54454D50004D8F
:10131000494E54454D502074726967676572656423
:10132000004572723A204D415854454D50004D4190
:101330005854454D50207472696767657265640042
:1013400024F4D43050C38E20C2A24017828B701177
:10135000127A910D816CD90AA861E108C758660715
:10136000615143061E4B5D05C145A7041A41110496
:10137000093D9803713931034036DB026533910230
:10138000D4305402802E1D02632CEE01752AC50153
:10139000B028A001102781018F2564012B244B0167
:1013A000E0223401AC211F018D200D01801FFC00C3
:1013B000841EED00971DDF00B81CD200E61BC6009E
:1013C000201BBC00641AB200B219A8000A19A000C0
:1013D0006A189900D117910040178B00B516840048
:1013E00031167E00B31579003A157300C7146F00EB
:1013F00058146A00EE1366008813630025135E001C
:10140000C7125B006C12570015125400C111510035
:1014100070114F0021114B00D61049008D1047006C
:101420004610440002104200C00F4000800F3E00F2
:10143000420F3C00060F3B00CB0E3800930E3700E6
:101440005C0E3500270E3400F30D3200C10D310063
:10145000900D3000600D2E00320D2D00050D2C007A
:10146000D90C2B00AE0C2900850C29005C0C270040
:10147000350C27000E0C2600E80B2400C40B2400BA
:10148000A00B23007D0B23005A0B2100390B2100F8
:10149000180B2000F80A1F00D90A1E00BB0A1E0004
:1014A0009D0A1D00800A1D00630A1C00470A1B00DC
:1014B0002C0A1B00110A1A00F7091A00DD0919008D
:1014C000C4091900AB091900920917007B0918001B
:1014D000630917004C09160036091600200916008A
:1014E0000A091500F5081500E0081400CC081400DE
:1014F000B8081400A4081400900813007D08120016
:101500006B08130058081200460812003408110036
:10151000230811001208110001081100F007100043
:10152000E0071000D0071000C0071000B0070F0040
:10153000A107100091070E0083070F0074070F002A
:1015400065070E0057070E0049070E003B070D0008
:101550002E070E0020070D0013070D0006070D00D3
:10156000F9060C00ED060D00E0060C00D4060C0098
:10157000C8060C00BC060C00B0060C00A4060B004C
:1015800099060C008D060B0082060B0077060B00F7
:101590006C060B0061060A0057060B004C060A0099
:1015A00042060A0038060A002E060A0024060A002F
:1015B0001A060A001006090007060A00FD050900C0
:1015C000F4050900EB050900E2050900D905090049
:1015D000D0050900C7050900BE050900B5050800CA
:1015E000AD050800A50509009C0508009405080044
:1015F0008C050800840508007C05080074050800B7
:101600006C050700650508005D0507005605080024
:101610004E0507004705070040050800380507008C
:10162000310507002A050700230507001C050600F1
:10163000160507000F05070008050600020507004C
:10164000FB040600F5040700EE040600E8040600AB
:10165000E2040700DB040600D5040600CF04060000
:10166000C9040600C3040600BD040600B704060052
:10167000B1040500AC040600A6040600A0040500A1
:101680009B04060095040500900406008A040500EA
:1016900085040500800406007A0405007504050031
:1016A000700405006B040500660405006104050074
:1016B0005C04050057040500520405004D040500B4
:1016C00048040500430405003E0404003A040500F4
:1016D00035040500300404002C0405002704040030
:1016E000230405001E0404001A0404001604050067
:1016F000110404000D04040009040500040404009E
:1017000000040400FC030400F8030400F4030400D4
:10171000F0030400EC030400E8030400E403040005
:10172000E0030400DC030400D8030400D403040035
:10173000D0030400CC030400C8030300C503030066
:1017400024F404D9201BC40C5C0E9804C4095F0265
:1017500065077101F405F900FB04B3004804870034
:10176000C10369005803550003034500BE023A0057
:101770008402310053022A002902250004022000BD
:10178000E4011C00C8011900AF0117009801140002
:1017900084011300710110006101100051010E005D
:1017A00043010D0036010B002B010B0020010B0043
:1017B000150109000C01090003010800FB000800E5
:1017C000F3000800EB000700E4000600DE0006005E
:1017D000D8000600D2000600CC000500C7000500B6
:1017E000C2000500BD000400B9000400B5000400FB
:1017F000B1000400AD000400A9000400A50003002E
:10180000A20003009F0004009B0003009800030057
:101810009500020093000300900003008D00020079
:101820008B00030088000200860002008400030091
:10183000810002007F0002007D0002007B000200A8
:1018400079000200770001007600020074000200B7
:1018500072000100710002006F0002006D000100C3
:101860006C0002006A0001006900020067000100CC
:1018700066000100650001006400020062000100D2
:1018800061000100600001005F0002005D000100D6
:101890005C0001005B0001005A00010059000100DA
:1018A00058000100570001005600010055000100DA
:1018B00054000100530000005300010052000100D9
:1018C00051000100500001004F0001004E000000D7
:1018D0004E0001004D0001004C0001004B000000D3
:1018E0004B0001004A0001004900010048000000CF
:1018F00048000100470001004600000046000100CA
:1019000045000000450001004400010043000000C4
:1019100043000100420000004200010041000000BD
:1019200041000100400001003F0000003F000100B5
:101930003E0000003E0001003D0000003D000100AF
:101940003C0000003C0000003C0001003B000000A7
:101950003B0001003A0000003A000100390000009D
:101960003900010038000000380000003800010094
:10197000370000003700010036000000360000008C
:101980003600010035000000350000003500010080
:101990003400000034000000340001003300000077
:1019A000330000003300010032000000320000006C
:1019B0003200010031000000310000003100010060
:1019C0003000000030000000300001002F00000057
:1019D0002F0000002F0000002F0001002E0000004B
:1019E0002E0000002E0001002D0000002D00000040
:1019F0002D0000002D0001002C0000002C00000034
:101A00002C0000002C0001002B0000002B00000027
:101A10002B0000002B0001002A0000002A0000001B
:101A20002A0000002A00010029000000290000000F
:101A30002900000029000000290001002800000002
:101A400028000000280000002800000028000100F5
:101A500027000000270000002700000027000000EA
:101A600027000100260000002600000026000000DC
:101A700026000000260001002500000025000000CF
:101A800025000000250000002500000025000100C1
:101A900024000000240000002400000024000000B6
:101AA00024000100230000002300000023000000A8
:101AB0002300000023000000230000002300010099
:101AC000220000002200000022000000220000008E
:101AD000220000002200010021000000210000007F
:101AE0002100000021000000210000002100000072
:101AF0002100010020000000200000002000000064
:101B00002000000020000000200000002000000055
:101B1000200001001F0000001F0000001F00000047
:101B20001F0000001F0000001F0000001F00010038
:101B30001E0000001E0000001E0000001E0000002D
:101B4000290A002062797465733B20637263200068
:101B500053657474696E67732053746F7265642083
:101B60002800202863616C63756C617465642921A9
:101B70000A0020213D2000454550524F4D20435240
:101B800043206D69736D61746368202D2028737420
:101B90006F726564292000290A00206279746573D8
:101BA0003B2063726320002073746F72656420733E
:101BB000657474696E6773207265747269657665A1
:101BC00064202800204D61726C696E3D56343129C5
:101BD0000A0028454550524F4D3D00454550524F53
:101BE0004D2076657273696F6E206D69736D6174D7
:101BF0006368200048617264636F646564204465B3
:101C00006661756C742053657474696E6773204CDB
:101C10006F616465640A00B80B0000B80B000064D3
:101C2000000000E803000000009643000096430017
:101C300000A0410000C8410000A0420000A04200F6
:101C40000048440080114320204D383531205A008F
:101C50005A2D50726F6265204F6666736574202836
:101C60006D6D293A0A0020440020490020204D33A0
:101C7000303420500020440020490020204D3330D3
:101C8000312050005049442073657474696E677345
:101C90003A0A0020204D3432302053004175746FD1
:101CA00020426564204C6576656C696E673A0A006F
:101CB000205A0020590020204D323036205800484C
:101CC0006F6D65206F66667365743A0A0020450083
:101CD000205A0020590020580020420020540020A3
:101CE000204D323035205300416476616E63656467
:101CF0003A20533C6D696E5F666565647261746518
:101D00003E20543C6D696E5F74726176656C5F66EF
:101D1000656564726174653E20423C6D696E5F73F7
:101D200065676D656E745F74696D655F6D733E2088
:101D3000583C6D61785F78795F6A65726B3E205AB6
:101D40003C6D61785F7A5F6A65726B3E20453C6DE1
:101D500061785F655F6A65726B3E0A0020540020FF
:101D6000520020204D323034205000416363656CB6
:101D700065726174696F6E2028756E6974732F7354
:101D800032293A20503C7072696E745F61636365FA
:101D90006C3E20523C726574726163745F61636370
:101DA000656C3E20543C74726176656C5F61636360
:101DB000656C3E0A00204500205A00205900202072
:101DC0004D3230312058004D6178696D756D20417C
:101DD0006363656C65726174696F6E2028756E69E6
:101DE00074732F7332293A0A00204500205A0020CC
:101DF000590020204D3230332058004D6178696DF4
:101E0000756D206665656472617465732028756EF2
:101E10006974732F73293A0A00204500205A002064
:101E2000590020204D3932205800537465707320BA
:101E300070657220756E69743A0A0020204D323048
:101E4000302044300A0020204D3230302044002021
:101E500044697361626C65640A0046696C616D6512
:101E60006E742073657474696E67733A002020473E
:101E70003231202020203B20556E69747320696E1A
:101E8000206D6D0A0050726F62696E67206661692D
:101E90006C65640A004572726F723A00205A3A20EB
:101EA0000020593A200042656420583A20002066FC
:101EB000697273740A005A0059005800486F6D65C2
:101EC00020006563686F3A00544845524D414C20EC
:101ED00052554E4157415900546865726D616C20EE
:101EE00052756E617761790000002100240027009F
:101EF0002A002D0030003300010100000401070119
:101F00000A0100002200250028002B002E003100CD
:101F1000340002010000050108010B01000020004F
:101F20002300260029002C002F00320000010000B1
:101F3000030106010901050505050705080808084C
:101F4000020202020A0A0808040404040101010151
:101F5000010101010303030303030303040707074C
:101F60000C0C0C0C0C0C0C0C0202020206060606F1
:101F7000060606060B0B0B0B0B0B0B0B01021020BE
:101F800020080810204010204080020102010804AF
:101F90000201010204081020408080402010080443
:101FA000020180040201804020100804020108049C
:101FB00002010102040810204080010204081020E0
:101FC000408000000A0B02090C0D0E0807030401F3
:101FD0000000000000000000000000000000000001
:101FE00000000000000000000000000000001211CE
:101FF00010000000000000000000000000000000D1
:102000000000000000000000526573656E643A2015
:10201000006F6B004E414E494E495459494E46CDD2
:10202000CCCC3D0AD7233C17B7D13877CC2B32958F
:1020300095E6241FB14F0A000020410000C842006D
:10204000401C4620BCBE4CCA1B0E5AAEC59D740037
:10205000EC9E11241FBECFEFD1E2DEBFCDBF00E06A
:102060000CBF13E0A0E0B2E0E0E4F7E501E00BBF55
:1020700002C007900D92A839B107D9F723E1A8E96A
:10208000B3E001C01D92A737B207E1F710E1C9E242
:10209000D0E100E006C021970109802FFE010E94D7
:1020A000609FC832D10780E00807A9F70E945F9AB5
:1020B0000C949EAB0C9400002F923F924F925F9233
:1020C0006F927F928F929F92AF92BF92CF92DF9248
:1020D000EF92FF920F931F93CF93DF93CDB7DEB7AD
:1020E000CD57D1090FB6F894DEBF0FBECDBF00911A
:1020F000E00620E6029F8001112403541C4F8091CA
:102100001C0680FF38C0E2ECFEE184917F013FEFC6
:10211000E31AF30A811102C0780104C00E94FA2D6B
:10212000F701F3CFD7018D917D01882319F00E942B
:10213000FA2DF8CF8AE00E94FA2D6091E00670E057
:1021400089ED98E00E94327D9EECE92E92E0F92E16
:10215000F70181917F01882319F00E94FA2DF8CFB1
:102160008AE00E94FA2D6DEB73E96F608DEB93E0CE
:10217000807F0E946E3281E090E090932E068093E3
:102180002D0610923E0510923D058FE38093410588
:102190001092400510923F051092B2031092B303C3
:1021A0001092B4031092B503F80180810F5F1F4FA6
:1021B0008032D1F38E34B1F4818190ED980F9A3052
:1021C00020F08D3211F08B3269F43296DF013196B6
:1021D0002C9120532A30D0F3CD01FC0101962081AF
:1021E0002032D9F3F0933506E09334067F012FEFC8
:1021F000E21AF20A10816AE270E0C7010E9482A22C
:10220000009731F0FC01319780818032E1F3118237
:102210001D3429F0143519F0173409F0CFC0F70137
:1022200080813FEFE31AF30A8032C9F380538A308A
:1022300008F0C4C01093410520913F05309140053E
:102240004AE03196429FC001439F900D1124DF0167
:1022500011972C91022E000C330B20533109280FBB
:10226000391F808180538A3060F33093400520937A
:102270003F05DF0131968C918032D9F31D3449F04E
:102280000091340640913D0550913E0561E070E0BB
:1022900058C02E31310591F03CF42731310571F0F1
:1022A0002C31310569F70AC0253731054CF3273742
:1022B000310524F0203A43E0340711F7B0933E058E
:1022C000A0933D057BC0813209F445C09FEBB92E38
:1022D000B80E89E1A82EAB1408F45EC0DF01FD0141
:1022E000908111969032D9F3A0EDA90FAA3008F091
:1022F00047C04F01EB2CF12C670183E0D594C794C4
:102300008A95E1F7C6018E549C4F6C018B2D877026
:10231000DB0102C0AA0FBB1F8A95E2F7CD01D601EF
:102320009C91892B8C9381149104A1F1801AC7018F
:1023300088569C4FDC018C92808181548A3188F5CB
:10234000DF01FD0131968C918111BDCF50933E0587
:1023500040933D0533C01D3409F0B8CF203231051C
:1023600009F0B4CFF0933E05E0933D0563E270E0E1
:10237000CF010E9482A2009709F1DC011C921EC0CD
:10238000A3EDA90FA23008F4B4CF9B3211F00C9446
:102390002228AFCF812CCBCF4115510569F6AD0175
:1023A000CBCFDF0131969C9190539A30D0F3CD0181
:1023B000FC010196A081A032D9F3C2CF80914105E2
:1023C0008D3411F40C94041B843511F40C94BF2744
:1023D000873411F00C94012880913F0590914005BD
:1023E0008D31910509F4DEC6D4F48430910544F4AE
:1023F000823091050CF043C097FF35C00C941B2828
:102400008530910509F440C20CF401C24C9711F0DB
:102410000C941B2880E00E941D3D0C941B288A32DE
:10242000910511F40C94181A6CF48332910509F497
:1024300045C78432910509F445C74E9711F00C94B5
:102440001B28B4C68B35910509F445C78C35910519
:1024500009F446C78A35910511F00C941B28109297
:10246000BC030C941B2880911C02882311F40C944B
:102470001B280E94D8330E9475630C941B2820915E
:102480001C02222311F40C941B2811E0029709F07E
:1024900010E00E94D83319821A821B821C821D828E
:1024A0001E821F82188682E50E945033882309F419
:1024B0002CC10E94BC2D6B017C012091B111309187
:1024C000B2114091B3115091B4112BA33CA34DA371
:1024D0005EA38090B5119090B611A090B711B09006
:1024E000B81180914A0690914B06A0914C06B0918C
:1024F0004D068FA398A7A9A7BAA720914E063091A1
:102500004F0640915006509151062BA73CA74DA76E
:102510005EA720E030E0A901C701B6010E9447A7ED
:10252000882309F408C12BA13CA14DA15EA16FA194
:1025300078A589A59AA50E9447A781110BC0A5017E
:1025400094016BA57CA58DA59EA50E9447A7882315
:1025500009F4F1C020E030E0A901C701B6010E94F2
:1025600047A7881F8827881F181309C080E090E0BC
:10257000A0E8BFE38BAF9CAFADAFBEAF08C020E01B
:1025800030E040E85FEB2BAF3CAF4DAF5EAF2BA12F
:102590003CA14DA15EA16FA178A589A59AA50E9435
:1025A000689F6BAB7CAB8DAB9EABA50194016BA51B
:1025B0007CA58DA59EA50E94689F6FAB78AF89AF63
:1025C0009AAF2BA93CA94DA95EA9CA01B9010E94E5
:1025D000ADA72B013C012FA938AD49AD5AADCA01B9
:1025E000B9010E94ADA79B01AC01C301B2010E94D9
:1025F000699F0E9417A26FA778AB89AB9AAB20E0C6
:1026000030E040E05FE30E94ADA72B013C01A70151
:102610009601C701B6010E94ADA76B017C01A30121
:102620009201C301B2010E94ADA79B01AC01C70199
:10263000B6010E94689F0E9417A29B01AC016BAD7E
:102640007CAD8DAD9EAD0E94ADA76B017C012FA12D
:1026500038A549A55AA56BA17CA18DA19EA10E9478
:10266000699F20E030E040E05FE30E94ADA72B01CE
:102670003C016FA978AD89AD9AAD90582FA538A9C6
:1026800049A95AA90E9463A09B01AC01C701B601E8
:102690000E94ADA79B01AC01C301B2010E94699FDA
:1026A0002BA13CA14DA15EA10E94689F69837A8302
:1026B0008B839C832BA53CA54DA55EA5C501B401CC
:1026C0000E94699F20E030E040E05FE30E94ADA7F8
:1026D0002B013C012FA538A949A95AA96BA97CA9AE
:1026E0008DA99EA90E9463A09B01AC01C701B60100
:1026F0000E94ADA79B01AC01C301B2010E94699F7A
:10270000A50194010E94689F12C089E40E94503381
:10271000882331F00E94BC2D69837A838B839C834C
:102720008AE40E945033882331F00E94BC2D6D83CF
:102730007E838F83988720E030E0A90169817A81C8
:102740008B819C810E9447A781110CC020E030E062
:10275000A9016D817E818F8198850E9447A788237A
:1027600009F43BC080E50E945033882341F00E9469
:10277000FD32082F8536E8F0E5E9FEE102C000E011
:1027800018C084917F013FEFE31AF30A882321F0F8
:102790000E94FA2DF701F5CFE0EAF2E084917F0183
:1027A0004FEFE41AF40A882321F00E94FA2DF70172
:1027B000F5CF412FBE016F5F7F4F002331F081EBDA
:1027C00091E10E94905F0150F4CF8AE496E00E946C
:1027D000905F0E94EF2D0C941B28E5E9FEE18491A7
:1027E0008F010F5F1F4F882321F00E94FA2DF801FF
:1027F000F6CFEAE8F2E084918F010F5F1F4F882344
:1028000011F40C941B280E94FA2DF801F4CF80E5F6
:102810000E945033882329F00E94AC2D6B017C016B
:1028200003C0C12CD12C760183E50E94503388234C
:1028300061F00E94BC2D20E030E04AE754E40E94A1
:10284000ADA70E94DCA06B017C010E94E6750E948E
:10285000EF2D8091360690913706A0913806B09101
:102860003906C80ED91EEA1EFB1E0E948395DC01A4
:10287000CB018C199D09AE09BF09B7FD02C00C94AC
:102880001B280E94EF5BF1CF80911C02882311F47A
:102890000C941B280E94D83389E40E94503388236B
:1028A00029F00E94BC2D2B013C0103C0412C512C6E
:1028B00032018AE40E945033882329F00E94BC2D03
:1028C0004B015C0103C0812C912C540180E50E94D6
:1028D0005033882329F00E94BC2D6B017C0103C07A
:1028E000C12CD12C760181E50E945033882339F028
:1028F0000E94BC2D6BA37CA38DA39EA304C01BA22E
:102900001CA21DA21EA250912C06E6965FAFE69770
:1029100060910D0270910E02072E000C880B990B2E
:102920000E944EA72091370230913802409139021F
:1029300050913A020E94ADA72AE037ED43E25CE3F2
:102940000E94ADA7EA966CAF7DAF8EAF9FAFEA97BE
:102950008091B1119091B211A091B311B091B411C5
:102960008FA398A7A9A7BAA7A3019201BC01CD0183
:102970000E94699F2C966CAF7DAF8EAF9FAF2C9756
:102980004090B5115090B6116090B7117090B81189
:10299000A5019401C301B2010E94699F60966CAFCA
:1029A0007DAF8EAF9FAF609720914A0630914B0666
:1029B00040914C0650914D06C701B6010E94699F97
:1029C00064966CAF7DAF8EAF9FAF649720914E063B
:1029D00030914F0640915006509151066BA17CA159
:1029E0008DA19EA10E94699F68966CAF7DAF8EAF4E
:1029F0009FAF6897AFA0B8A4C9A4DAA4A982BA828D
:102A0000CB82DC824D825E826F8278860E948395C3
:102A10009B01AC0128533F4F4F4F5F4FE4962CAFC3
:102A20003DAF4EAF5FAFE4971DEC812E1CEC912EB5
:102A3000A92C1DE3B12E1BA21FA21BA61FA60E943C
:102A40002E740E9483958B019C01E496CCACDDAC86
:102A5000EEACFFACE4970C191D092E093F0937FDB8
:102A60000EC09B01AC0128533F4F4F4F5F4FE49680
:102A70002CAF3DAF4EAF5FAFE4970E94EF5BA50177
:102A80009401BBA1AFA1FBA5EFA56B2F7A2F8F2FD0
:102A90009E2F0E94699F2B011C0120E030E040E83E
:102AA0005FE30E94C9A1181634F4412C512CA0E810
:102AB0002A2EBFE33B2E80914A0690914B06A091AF
:102AC0004C06B0914D066C968CAF9DAFAEAFBFAFCC
:102AD0006C97A090B111B090B211C090B311D0908A
:102AE000B411A096ACAEBDAECEAEDFAEA0973F9215
:102AF0002F925F924F926C96ACACBDACCEACDFAC7B
:102B00006C976496ECACFDAC0EAD1FAD64972C9643
:102B10002CAD3DAD4EAD5FAD2C97A0966CAD7DADAF
:102B20008EAD9FADA0970E94737D0F900F900F9078
:102B30000F906BAB7FAB8BAF9FAFC0904E06D0902A
:102B40004F06E0905006F0905106A496CCAEDDAE54
:102B5000EEAEFFAEA4972091B5113091B611409121
:102B6000B7115091B811A8962CAF3DAF4EAF5FAFE3
:102B7000A8973F922F925F924F92A496ACACBDACB7
:102B8000CEACDFACA4976896ECACFDAC0EAD1FAD3F
:102B9000689760962CAD3DAD4EAD5FAD6097A89641
:102BA0006CAD7DAD8EAD9FADA8970E94737D0F90EB
:102BB0000F900F900F9021966FAF219722967FAFC5
:102BC000229723968FAF239724969FAF24978981CE
:102BD0009A81AB81BC81AC968CAF9DAFAEAFBFAFDD
:102BE000AC97AD80BE80CF80D884E096ACAEBDAE51
:102BF000CEAEDFAEE09725961FAE25977BA16FA1E5
:102C00009BA58FA5272F362F492F582F642D752D63
:102C1000822D932D0E94689F2FE632E143E05BE313
:102C20000E9447A787FF06C02596BFAC2597B11025
:102C3000E6C1CCC1242D352D422D532DBBA1AFA112
:102C4000FBA5EFA56B2F7A2F8F2F9E2F0E94699FD8
:102C500020E030E040E05FE30E94ADA73B014C0183
:102C60009F928F937F926F936C96ACACBDACCEACC1
:102C7000DFAC6C976496ECACFDAC0EAD1FAD649709
:102C80002C962CAD3DAD4EAD5FAD2C97A0966CADA6
:102C90007DAD8EAD9FADA0970E94737D0F900F907C
:102CA0000F900F9026966FAF269727967FAF2797A6
:102CB00028968FAF2897E5969FAFE5979F928F92C2
:102CC0007F926F92A496ACACBDACCEACDFACA497B7
:102CD0006896ECACFDAC0EAD1FAD689760962CAD60
:102CE0003DAD4EAD5FAD6097A8966CAD7DAD8EAD40
:102CF0009FADA8970E94737D0F900F900F900F903B
:102D00005B018C012BA93FA94BAD5FADAC966CADBF
:102D10007DAD8EAD9FADAC970E94699F20E030E005
:102D200040E05FE30E94ADA79B01AC0126966FAD2A
:102D3000269727967FAD279728968FAD2897E596FB
:102D40009FADE5970E94689F6B017C01E894F7F8BE
:102D500021962FAD219722963FAD229723964FAD16
:102D6000239724965FAD2497E0966CAD7DAD8EAD34
:102D70009FADE0970E94699F20E030E040E05FE374
:102D80000E94ADA79B01AC01B501C8010E94689FDC
:102D90009B01AC015F77C701B6010E94699F2DECD2
:102DA0003CEC4CEC5DE30E9447A718160CF03CCFBE
:102DB0002196AFAE21972296BFAE229723960FAFF2
:102DC000239724961FAF24972696CFAC2697CBAA9D
:102DD0002796DFAC2797DFAA2896EFAC2897EBAEB3
:102DE000E596FFACE597FFAE2301140121E025969F
:102DF0002FAF259703CFA7019601C701B6010E9407
:102E0000699F9B01AC01BBA1AFA1FBA5EFA56B2FF7
:102E10007A2F8F2F9E2F0E94699F962E872E782EB5
:102E2000692E20E030E040E85FE3D401F3016B2F2E
:102E30007A2F8F2F9E2F0E94C9A187FFE0C06F922B
:102E40007F928F929F926C96ACACBDACCEACDFAC57
:102E50006C976496ECACFDAC0EAD1FAD64972C96F0
:102E60002CAD3DAD4EAD5FAD2C97A0966CAD7DAD5C
:102E70008EAD9FADA0970E94737D0F900F900F9025
:102E80000F9025966FAF259726967FAF26972796AA
:102E90008FAF279728969FAF28976F927F928F9238
:102EA0009F92A496ACACBDACCEACDFACA4976896B8
:102EB000ECACFDAC0EAD1FAD689760962CAD3DAD92
:102EC0004EAD5FAD6097A8966CAD7DAD8EAD9FADFC
:102ED000A8970E94737D0F900F900F900F905B0149
:102EE0008C0125962FAD259726963FAD26972796E0
:102EF0004FAD279728965FAD2897AC966CAD7DAD0A
:102F00008EAD9FADAC970E94699F20E030E040E01D
:102F10005FE30E94ADA79B01AC016BA97FA98BADBC
:102F20009FAD0E94689F6B017C01E894F7F89501C2
:102F3000A801E0966CAD7DAD8EAD9FADE0970E948F
:102F4000699F20E030E040E05FE30E94ADA79B0175
:102F5000AC0121966FAD219722967FAD22972396E3
:102F60008FAD239724969FAD24970E94689F9B0165
:102F7000AC015F77C701B6010E94699F2DEC3CEC64
:102F80004CEC5DE30E94C9A11816CCF12196AFAEBE
:102F900021972296BFAE229723960FAF23972496B0
:102FA0001FAF249725963FAD25973BAB26964FAD97
:102FB00026974FAB27965FAD27975BAF28968FADCF
:102FC00028978FAF492C582C272C362C7BA16FA12A
:102FD0009BA58FA5272F362F492F582F642D752D90
:102FE000822D932D0E94689F6B017C012DEC3CEC9F
:102FF0004CEC5DE30E94C9A118160CF0FCCE7BA13D
:103000006FA19BA58FA5272F362F492F582F642DF1
:10301000752D822D932D0E94689F4B015C018BA919
:103020009FA9ABADBFAD89839A83AB83BC83219647
:103030008FAD219722969FAD22972396AFAD239710
:103040002496BFAD24978D839E83AF83B887242DAC
:10305000352D422D532D60E070E080E89FE30E9403
:10306000689F6B017C012091B9113091BA11409198
:10307000BB115091BC110E94ADA76BA37CA38DA383
:103080009EA32091520630915306409154065091D0
:103090005506642D752D822D932D0E94ADA79B01A1
:1030A000AC016BA17CA18DA19EA10E94699F698743
:1030B0007A878B879C872091BD113091BE114091FA
:1030C000BF115091C011C701B6010E94ADA76B019D
:1030D0007C01209156063091570640915806509138
:1030E0005906642D752D822D932D0E94ADA79B014D
:1030F000AC01C701B6010E94699F6D877E878F87EB
:10310000988BCE0101960E94E79789819A81AB81C5
:10311000BC818E8B9F8BA88FB98F8D819E81AF8153
:10312000B8858A8F9B8FAC8FBD8F89859A85AB853B
:10313000BC858E8F9F8FA8A3B9A3AE01425E5F4F5F
:10314000BE01665E7F4FCE0146960E94744DE696A4
:10315000CFACE697EA96ECACFDAC0EAD1FADEA97AE
:103160009E01235F3F4FAE01425E5F4FBE01665E30
:103170007F4FCE0146960E94BC4020E030E040E800
:103180005FE3642D752D822D932D0E9447A787FF45
:1031900005C04BA25FA22BA63FA651CC0E946C2B70
:1031A0000C941B280E94AA370C941B2820E030E0C6
:1031B00040E050E46091B1117091B2118091B3116F
:1031C0009091B4110E94699F6B017C0188E50E9477
:1031D0005033882321F00E94BC2D6B017C01CE8AE4
:1031E000DF8AE88EF98E20E030E040EF51E4609114
:1031F000B5117091B6118091B7119091B8110E94DC
:10320000699F6B017C0189E50E945033882321F07E
:103210000E94BC2D6B017C01C982DA82EB82FC82A8
:103220004090C5115090C6116090C7117090C811A0
:103230002091C1113091C2114091C3115091C4111C
:103240006E897F89888D998D0E94689F4B015C01F2
:103250002BE33FED4FEF5FE30E94C9A187FF02C060
:103260000C941B2823E830E04EEF52E4C501B40172
:103270000E9447A7181614F40C941B28A30192016E
:10328000C701B6010E94689F6B017C0124EF3DEFEE
:103290004FEE51E40E94C9A187FF02C00C941B2885
:1032A00023E830E04EEF52E4C701B6010E9447A781
:1032B000181614F40C941B280C942C280E94E85522
:1032C0000C941B2881E00E941D3D0E94E8550E943D
:1032D000AA370C941B2881E08093BC030C941B2814
:1032E00085E40E945033B82E811102C00E94E67519
:1032F0007FE5872E72E0972EE1EBCE2EE1E1DE2E08
:10330000FEE3EF2EF6E0FF2E00E010E0A12CD4014A
:103310008D914D010E9450338823F1F1F6012081F7
:10332000318142815381EB962FAFEB97EC963FAF03
:10333000EC97ED964FAFED97EE965FAFEE970E944C
:10334000BC2DD6016D937D938D939C931397EB9633
:103350002FADEB97EC963FADEC97ED964FADED971B
:10336000EE965FADEE9703301105B1F00E94689FB5
:103370009B01AC01F70160817181828193810E9480
:10338000699FD7016D937D938D939C931397C8018B
:103390000E940D2DAA24A3940F5F1F4FB4E0CB0E03
:1033A000D11CE4E0EE0EF11C0430110509F0AFCFA2
:1033B000AA2019F00E94652D37C0BB20A9F1C0904A
:1033C000BD11D090BE11E090BF11F090C0112091BE
:1033D000CD073091CE074091CF075091D007C7015C
:1033E000B6010E94ADA70E94D6A160936F127093A0
:1033F00070128093711290937212C701B6010E94ED
:10340000D5A02FB7F8946093F4067093F5068093D7
:10341000F6069093F7062FBF10925F12109260127B
:1034200010926112109262120E94304F0C941B286D
:1034300080911C02882311F40C941B2889E40E94BB
:103440005033182F882321F00E94ED32E62E01C060
:10345000E12C8AE40E945033082F882331F00E9427
:10346000ED32F62E111104C00BC0F12C1123C9F05E
:10347000F2E0FE1510F00C94822AE8ECF2E005C0B0
:1034800062E0A62EAF14C8F30CC084918F010F5FC9
:103490001F4F882311F40C941B280E94FA2DF80169
:1034A000F4CF0E94622B112341F120919B113091A6
:1034B0009C114E2D4203B001439F700D1124809149
:1034C000971190919811680F791F072E000C880BA7
:1034D000990B0E944EA72091C1113091C2114091C9
:1034E000C3115091C4110E94699F60934A06709362
:1034F0004B0680934C0690934D06002341F120919A
:103500009D1130919E115F2D5203B001539F700D9C
:1035100011242091991130919A11620F731F072E77
:10352000000C880B990B0E944EA72091C511309179
:10353000C6114091C7115091C8110E94699F6093B4
:103540004E0670934F06809350069093510680E587
:103550000E9421338823A1F10E941133882381F135
:103560001123B1F020E030E040E050E460914A06E1
:1035700070914B0680914C0690914D060E94689F79
:1035800060934A0670934B0680934C0690934D06C9
:103590000023B1F020E030E040EF51E460914E06AE
:1035A00070914F0680915006909151060E94689F3D
:1035B00060934E0670934F06809350069093510689
:1035C00086E40E9450338823D9F00E94BC2D6B0101
:1035D0007C0120E030E0A9010E94C9A1181684F402
:1035E00020E030E040E752E4C701B6010E9463A04A
:1035F00060933702709338028093390290933A02B5
:103600000E9475630C941B2880913F0590914005A2
:103610008B39910509F43FC60CF0ACC08C3591058F
:1036200009F4FCC60CF05EC08B34910509F409C3A3
:103630005CF58231910509F4A3C6CCF497FF02C072
:103640000C941B28823091050CF462C1419711F053
:103650000C941B285F988A989FB7F8948091080172
:103660008E7F809308019FBF12980C941B288A328A
:10367000910509F4A2C28033910509F4DEC24F9787
:1036800011F00C941B28C7C18235910509F471C64D
:10369000ECF48D34910509F4F2C20CF4D6C28135F4
:1036A000910511F00C941B280E94CE710E94E675C2
:1036B0000E94AD5B109217061092160668EE73E03A
:1036C00080E090E00E94F7740C941B2884359105EB
:1036D00009F456C60CF450C68535910509F485C623
:1036E0000C941B288F36910509F42EC5ECF48A360C
:1036F000910509F411C664F48836910509F4E2C411
:103700000CF0ACC58436910509F4BDC20C941B289D
:103710008D36910509F4E8C50CF003C58B3691058B
:1037200009F417C60C941B288637910509F494C731
:1037300074F48237910509F4F9C68337910509F4C9
:10374000FAC68137910511F00C941B284BC58837B8
:10375000910511F40C94E72314F40C946323893736
:10376000910511F40C94ED238C38910509F463C58F
:103770000C941B288336A1E09A0711F40C9470274F
:103780000CF05FC08C3D910511F40C940D2644F5AE
:103790008C3C910511F40C945B248CF4893C9105CC
:1037A00011F40C943A248B3C910511F40C943D24B3
:1037B000883C910511F00C941B280C94F2238E3C4C
:1037C000910511F40C94302514F40C94C524833D18
:1037D000910511F00C941B28E2ECFEE10C94772586
:1037E0008C32E1E09E0711F40C945C2694F4823E46
:1037F000910511F40C9433268E3021E0920711F4D8
:103800000C9462268D3D910511F00C941B280C94AC
:103810001A268E3231E0930711F40C94652614F4C5
:103820000C945F268F3251E0950711F40C946826B2
:103830008033914011F00C941B280E94EA6B0C9489
:103840001B28853FB1E09B0711F40C947C268CF576
:10385000843AF1E09F0711F40C947326ACF481399B
:1038600031E0930711F40C946B26823941E0940700
:1038700011F40C946F268039914011F00C941B28A0
:103880000E94E6750C941B288C3AA1E09A0711F46B
:103890000C947626843FB1E09B0711F40C947926B2
:1038A000853A914011F00C941B280E9427660C94D5
:1038B0001B288B38F3E09F0711F40C94E62694F450
:1038C000873F31E0930711F40C94822614F40C9492
:1038D0007F268335934011F00C941B28E2ECFEE127
:1038E0000C9485268D38A3E09A0711F40C94EC26ED
:1038F00014F40C94E9268E38E3E09E0711F40C943E
:103900006827873E934011F40C94AF270C941B2832
:10391000A0903D05B0903E0580E50E94503388237D
:1039200059F00E94AC2D6B017C0111E0672B682BD4
:10393000692B31F410E004C010E0C12CD12C7601C9
:1039400083E50E945033882399F00E94BC2D20E02B
:1039500030E04AE754E40E94ADA70E94DCA06B016E
:103960007C0111110CC0672B682B692B41F43AC004
:10397000111105C0A114B10411F00C94822883E048
:1039800090E090932E0680932D0681E08093B603FD
:103990000E94E6750E94EF2DC114D104E104F104E8
:1039A00099F18091360690913706A0913806B09132
:1039B0003906C80ED91EEA1EFB1E0E948395DC0143
:1039C000CB018C199D09AE09BF09B7FD04C0109247
:1039D000B6030C941B288091B6038823C1F30E9480
:1039E000EF5BEBCFA114B10411F00C94822883E0BB
:1039F00090E090932E0680932D0681E08093B6038D
:103A00000E94E6750E94EF2D8091B6038823F9F29B
:103A10000E94EF5BF9CF80919312909194120197DD
:103A200019F40E94839508C060919D1270919E12B6
:103A300080919F129091A0120091991210919A1268
:103A400020919B1230919C12601B710B820B930B87
:103A500028EE33E040E050E00E943BAB80919512AD
:103A600090919612A0919712B0919812BC01CD013D
:103A7000620F731F841F951F5CE3C52ED12CE12CB0
:103A8000F12CA70196010E943BAB762E672ECA014E
:103A9000B901A70196010E943BAB6B017C01CA01F1
:103AA000B90128E130E040E050E00E943BAB4B011F
:103AB0005C01C9016DE671E00E94389F8E010F5FC5
:103AC0001F4F6115710599F06F927F92DF92CF922F
:103AD0009F928F929F938F937F936F938FE093E04A
:103AE0009F938F931F930F930E9417A726C0009751
:103AF00089F06F927F92DF92CF929F928F929F93E5
:103B00008F938FEF92E09F938F931F930F930E9459
:103B100017A713C081149104A104B104B1F06F92EE
:103B20007F92DF92CF929F928F9283EF92E09F934A
:103B30008F931F930F930E9417A70FB6F894DEBFC1
:103B40000FBECDBFE2ECFEE123C0C114D104E104FD
:103B5000F10469F06F927F92DF92CF928BEE92E048
:103B60009F938F931F930F930E9417A7E6CF6F9297
:103B70007F9287EE92E09F938F931F930F930E9403
:103B800017A70F900F900F900F900F900F90DACF14
:103B900084917F01BFEFEB1AFB0A882321F00E947A
:103BA000FA2DF701F5CFB80183E293E00E944B7D37
:103BB0008AE00E94FA2D0C941B2883E50E94503362
:103BC000882311F40C941B280E94FD32E82E80E516
:103BD0000E945033882311F40C941B280E94ED326C
:103BE000162FC62ED72ED7FE02C00C941B28E7E155
:103BF000F8E088E28E0F9491191729F031968E1310
:103C0000FACF0C94A128E5E9FEE184918F010F5FC2
:103C10001F4F882321F00E94FA2DF801F6CFE0E330
:103C2000F3E084918F010F5F1F4F882311F40C94F0
:103C30001B280E94FA2DF801F4CF0E9441500C94E9
:103C40001B280E94D78F0C941B288091931290916F
:103C50009412019711F00C941B2882E090E090934D
:103C60009412809393120E94839560939D12709397
:103C70009E1280939F129093A0120C941B280E9476
:103C8000828E0C941B2880917113909172130E9464
:103C9000C24D62E072E080E495E00E944B7D87E7D0
:103CA00093E10E94C24D62E072E082E395E00E94DF
:103CB0004B7D00917113109172130115110511F4D0
:103CC00007E713E1C8010E94C24D62E072E08AE199
:103CD00095E00E944B7D6E01E3E2CE0ED11CC60141
:103CE0000E94C24D62E072E088E095E00E944B7D48
:103CF0008AE00E94FA2D8091000281110C94B8286C
:103D000089E40E94213381110C94B82884E40E9434
:103D10002133882331F0B601C8010E946E320C9421
:103D20001B2886E40E942133882309F468C1C01A45
:103D3000D10AA12CB12C212C312C412C512C6624E0
:103D40006A94762CAC14BD04E4F548018A0C9B1CE3
:103D5000D4018C91853E89F5F401E12CF12C8191FF
:103D6000853E41F0B1E0EB1AF108E9E0EE16F1040E
:103D700024F108C02FEFE21AF20AE1143DE7F3063E
:103D800071F71BC0B7018BEC94E00E94327DC40137
:103D90000E94C24D62E072E08BEB94E00E944B7D8A
:103DA0008AE00E94FA2D6E147F0414F41401370186
:103DB000AE0CBF1C4FEF441A540A5FEFA51AB50AA8
:103DC000C1CF82E048165104ECF0E9E8F4E08491B8
:103DD0008F010F5F1F4F882321F00E94FA2DF801F9
:103DE000F6CFB30181E794E00E94327DC1010E94C9
:103DF000C24D62E072E086E694E00E944B7D8AE06C
:103E00000E94FA2D00EE12E0D8018D918D018823D9
:103E100019F00E94FA2DF8CFC0907113D090721350
:103E2000C114D10421F427E7C22E23E1D22E8E0142
:103E3000095E1F4F5801AC18BD08B50186E394E038
:103E40000E94327D81E793E10E94C24D62E072E000
:103E500089E294E00E944B7D8091711390917213DE
:103E60000E94C24D62E072E087E294E00E944B7DC6
:103E700087E793E10E94C24D62E072E08AE194E03C
:103E80000E944B7DC8010E94C24D62E072E085E154
:103E900094E00E944B7D0C151D0528F5E9E0F4E047
:103EA00084918F010F5F1F4F882321F00E94FA2D0C
:103EB000F801F6CF64E170E080E090E00E94F774D2
:103EC00008EE12E0F80181918F01882319F00E9419
:103ED000FA2DF8CF8AE00E94FA2D6FEF71E280E8A8
:103EE0009BE10E946E32812C912CE12CF12C8A14E2
:103EF0009B04BCF5F601E80DF91D8081853E69F54E
:103F000080E090E02191253EC1F08C010150110923
:103F10000930110514F1800E911E3FEFE31AF30AE8
:103F2000B70186E094E00E94327DB8018DEF93E006
:103F30000E94327DE9EFF3E006C0019681152DE77E
:103F4000920701F70AC084918F010F5F1F4F8823EA
:103F500021F00E94FA2DF801F6CF4FEF841A940A4F
:103F6000C6CF6701B7018AEE93E00E94327D51E02F
:103F7000E516F10431F48091711390917213892B3D
:103F800081F008EB13E0F8018491882329F00F5F9A
:103F90001F4F0E94FA2DF7CFEF2819F4CC24CA94B2
:103FA000DC2CEFEAF3E084918F010F5F1F4F882331
:103FB00021F00E94FA2DF801F6CFF1E0CF16D104DE
:103FC00049F480E30E94FA2D8AE00E94FA2D60E015
:103FD00070E00CC009EA13E0F8018491882329F00D
:103FE0000F5F1F4F0E94FA2DF7CFB60180E494E0D7
:103FF0000E94327D8AE00E94FA2D0C941B2883E4F3
:104000000E942133882311F40C941B280E94ED3266
:104010006B019E01201B310B3A956F5F7F4FC901E9
:104020000E94389F7B01E8EEF4E084915F012FEF5E
:10403000A21AB20A811108C0C7010896080F191FF9
:10404000AA24A394B12C04C00E94FA2DF501EDCF4F
:10405000CA14DB0490F1D801AC92C8010E94C24D91
:1040600062E072E082ED94E00E944B7DBFEFAB1AFC
:10407000BB0A0E0D1F1DECCF80911C06882309F48E
:10408000A4C0BDE4CB2EB5E0DB2EE12CF12C20E06A
:1040900080911C0690E00E2C02C0959587950A949D
:1040A000E2F780FD7AC0FFEFEF1AFF0A32E0C30E9D
:1040B000D11C45E0E416F10459F78AE00E94FA2D7C
:1040C0000C941B2888E690E00E945D3381110C94CB
:1040D0001B2880911C0683FF02C00C941B2883E5DB
:1040E0000E9450338823C9F00E94BC2D0E94D5A0A5
:1040F0007093100760930F0780E00E9483710E9405
:10410000BC2D20E030E04AEA52E40E9447A718168E
:1041100014F00E94828E0E94BC2D0E94BC9E0C94C2
:104120001B288EE40E945033882311F40C941B2822
:104130000E94ED3260933D1370933E1380933F13C2
:10414000909340130C941B2883E50E94213388230D
:1041500059F083E50E945033882319F00E94FD3204
:1041600001C080E080931C06E2ECFEE184918F01A7
:104170000F5F1F4F882321F00E94FA2DF801F6CF20
:10418000EBE5F5E084918F010F5F1F4F882309F461
:1041900073CF0E94FA2DF801F5CFBB24B394B20E71
:1041A000222319F08CE20E94FA2DF6012591349118
:1041B000F901849189010F5F1F4F882321F00E942C
:1041C000FA2D9801F5CF2B2D6ECFE7E5F5E0849120
:1041D0008F010F5F1F4F882309F46FCF0E94FA2DC4
:1041E000F801F5CF83E50E945033882359F00E94EF
:1041F000FD3280930F028D3308F41DC78CE380934A
:104200000F0219C7E2ECFEE184918F010F5F1F4F8F
:10421000882321F00E94FA2DF801F6CF40910F0279
:1042200050E060E070E082E695E00E94DB7C8AE08E
:104230000E94FA2D00C780911C0683FDFCC683E511
:104240000E945033882309F4F6C60E94BC2D0E94B8
:10425000D5A070930D0760930C07EDC689E690E03A
:104260000E945D33811111C0E9E6F5E084918F0170
:104270000F5F1F4F882321F00E94FA2DF801F6CF1F
:104280000E94EF4F8AE00E94FA2D10922E061092A3
:104290002D060C94B02A83E50E945033882309F43C
:1042A000CAC60E94FD32809333068D3318F08CE32A
:1042B000809333060E9483956B017C012091330625
:1042C00030E0A8EEB3E00E948FABDC01CB018C0D97
:1042D0009D1DAE1DBF1D80932F0690933006A093A9
:1042E0003106B0933206A7C68DE690E00E945D339A
:1042F0008111A1C680911C0683FD9DC683E50E94A5
:1043000050338BA781110C94272982E50E945033EA
:1043100081110C9427298FC683E50E94503388238E
:1043200039F00E94ED328B016F3F710519F010F0EA
:104330000FEF10E080E50E945033811105C010930B
:1043400017060093160677C60E94FD32811173C6C8
:10435000F6CF80E50E945033811105C010921706F8
:104360001092160668C60E94ED32672B09F063C6EC
:10437000F5CF1092BB035FC681E08093BB035BC6A1
:1043800083E50E945033882399F00E94BC2D20E0E1
:1043900030E04AE754E40E94ADA70E94DCA060939D
:1043A000100270931102809312029093130243C67D
:1043B00088E50E94213381110C94582A89E50E94D6
:1043C000213381110C94582A8AE50E9421338111EE
:1043D0000C94582A85E40E94213381110C94582AA8
:1043E0000E94E6750E94AD5B26C683E50E942133DC
:1043F000882309F420C60E94BC2D20E030E04AE763
:1044000054E40E94ADA70E94DCA060933A0670932A
:104410003B0680933C0690933D060DC6FFE5CF2EEC
:10442000F2E0DF2EA1ECEA2EA7E0FA2E10E0D60192
:104430008D916D010E942133882309F46DC01330E2
:1044400009F063C00E94BC2D4B015C0120E030E00C
:1044500040EA51E40E9447A787FF4EC0A50194019E
:104460006091CD077091CE078091CF079091D007D2
:104470000E9463A02B013C019B01AC016091EA0505
:104480007091EB058091EC059091ED050E94ADA730
:104490006093EA057093EB058093EC059093ED052E
:1044A000A3019201609106067091070680910806AB
:1044B000909109060E94ADA76093060670930706C7
:1044C00080930806909309066091AD077091AE073E
:1044D0008091AF079091B0070E944CA7A301920171
:1044E0000E94ADA70E94DCA06093AD077093AE0759
:1044F0008093AF079093B0078092CD079092CE073C
:10450000A092CF07B092D00707C00E94BC2DF70140
:1045100060837183828393831F5FF4E0EF0EF11C4D
:10452000143009F084CF0E94777F85C50E94E6751C
:104530000E94304F80C5EBE4F6E084918F010F5F5D
:104540001F4F882321F00E94FA2DF801F6CFEDE3EA
:10455000F6E084918F010F5F1F4F882321F00E94A6
:10456000FA2DF801F6CFE6E2F6E084918F010F5FB5
:104570001F4F882321F00E94FA2DF801F6CFE6E1C3
:10458000F6E084918F010F5F1F4F882321F00E9476
:10459000FA2DF801F6CFE5E0F6E084918F010F5F88
:1045A0001F4F882321F00E94FA2DF801F6CFE4EF87
:1045B000F5E084918F010F5F1F4F882321F00E9447
:1045C000FA2DF801F6CFE5EEF5E084918F010F5F4B
:1045D0001F4F882321F00E94FA2DF801F6CFE0ED5D
:1045E000F5E084918F010F5F1F4F882321F00E9417
:1045F000FA2DF801F6CFEAEBF5E084918F010F5F19
:104600001F4F882321F00E94FA2DF801F6CFE5EA2A
:10461000F5E084918F010F5F1F4F882321F00E94E6
:10462000FA2DF801F6CFE8E8F5E084918F010F5FED
:104630001F4F882321F00E94FA2DF801F6CFE0E702
:10464000F5E084918F010F5F1F4F882309F4F3C4B5
:104650000E94FA2DF801F5CF85E40E9421338823CA
:1046600081F00E941133882361F0E2ECFEE1849135
:104670008F010F5F1F4F882321F00E94FA2DF80150
:10468000F6CF81E40E942133882381F00E94113308
:10469000882361F0EFE1F7E084918F010F5F1F4FF6
:1046A000882321F00E94FA2DF801F6CF00913D05F4
:1046B00010913E05D8018D918D01882309F4FDCC20
:1046C0000E94FA2DF7CFE3E4F7E084918F010F5FAA
:1046D0001F4F882321F00E94FA2DF801F6CFEBE35B
:1046E000F7E084918F010F5F1F4F882321F00E9414
:1046F000FA2DF801F6CF659903C00FEB12E002C066
:1047000004EC12E0F80181918F01882319F00E94D6
:10471000FA2DF8CF8AE00E94FA2DE3E3F7E08491C6
:104720008F010F5F1F4F882321F00E94FA2DF8019F
:10473000F6CF8091030181FD03C00FEB12E002C0B0
:1047400004EC12E0D8018D918D01882319F00E94AC
:10475000FA2DF8CF8AE00E94FA2DEBE2F7E084917F
:104760008F010F5F1F4F882321F00E94FA2DF8015F
:10477000F6CF4A9903C00FEB12E002C004EC12E03E
:10478000F80181918F01882319F00E94FA2DF8CF4A
:104790008AE00E94FA2DE3E2F7E084918F010F5F37
:1047A0001F4F882321F00E94FA2DF801F6CF4B9974
:1047B00003C00FEB12E002C004EC12E0D8018D91AF
:1047C0008D01882309F479CC0E94FA2DF7CF81E07E
:1047D0008093810680939F112EC4109281061092BF
:1047E0009F1129C488EC90E00E945D33811123C49D
:1047F00084E40E9421338823D1F10E94BC2D11E072
:1048000020E030E0A9010E9447A7811101C010E01B
:104810001093B011112359F10091B70310E00E94D9
:10482000BC2D000F111F000F111FF801E455FE4EA3
:10483000608371838283938320E030E0A9016091DB
:10484000AC117091AD118091AE119091AF110E9499
:1048500047A781110CC080E090E0A0EEBFE38093F9
:10486000AC119093AD11A093AE11B093AF110E9413
:10487000355FE1C30E946D6DDEC34AEFE42E45E073
:10488000F42E0FE512E054E0D52ED00EF801819100
:104890008F010E942133882341F00E94BC2DD70153
:1048A0006D937D938D939C931397B4E0EB0EF11C65
:1048B000D012ECCFC0C383E50E9421338823D9F006
:1048C0000E94BC2DAB01BC014093F2055093F3054F
:1048D0006093F4057093F5054093EE055093EF0552
:1048E0006093F0057093F10587EB97E00E94157DCA
:1048F0008AE00E94FA2D80E50E942133882399F0F6
:104900000E94BC2DAB01BC014093F2055093F3050E
:104910006093F4057093F5058AE997E00E94157D90
:104920008AE00E94FA2D82E50E942133882399F0C3
:104930000E94BC2DAB01BC014093F6055093F705D6
:104940006093F8057093F9058BE797E00E94157D59
:104950008AE00E94FA2D84E50E942133882309F41D
:104960006AC30E94BC2DAB01BC014093EE0550937D
:10497000EF056093F0057093F1058DE597E00E94D7
:10498000157D8AE00E94FA2D56C383E50E942133EB
:10499000882351F00E94BC2D609312067093130679
:1049A000809314069093150684E50E942133882392
:1049B00051F00E94BC2D60930E0670930F068093F9
:1049C00010069093110682E40E942133882351F04F
:1049D0000E94AC2D60930A0670930B0680930C0620
:1049E00090930D0688E50E942133882351F00E94A0
:1049F000BC2D6093DE057093DF058093E0059093F6
:104A0000E10589E50E942133882351F00E94BC2DE5
:104A10006093E2057093E3058093E4059093E505C8
:104A20008AE50E942133882351F00E94BC2D6093B7
:104A3000E6057093E7058093E8059093E90585E422
:104A40000E942133882309F4F6C20E94BC2D609392
:104A5000EA057093EB058093EC059093ED05EBC2AE
:104A60009FE5A92E92E0B92E21EBC22E21E1D22E94
:104A700033EBE32E36E0F32E00E010E0F5018191F8
:104A80005F010E942133882311F10E94BC2D2B016C
:104A90003C01D7012D913D914D915C910E94689F01
:104AA0009B01AC01F60160817181828193810E943A
:104AB000699FD6016D937D938D939C931397F70116
:104AC0004082518262827382C8010E940D2D0F5F65
:104AD0001F4FF4E0CF0ED11C24E0E20EF11C033096
:104AE000110561F60E94652D0E94304FA4C2849189
:104AF0008F010F5F1F4F882321F00E94FA2DF801CC
:104B0000F6CF83E50E942133882321F00E941133E0
:104B100080933602E7E0F8E084918F010F5F1F4F2A
:104B2000882321F00E94FA2DF801F6CF80913602F9
:104B3000811103C0E3E0F8E002C0EFEFF7E08491F9
:104B40008F010F5F1F4F882321F00E94FA2DF8017B
:104B5000F6CFE7EFF7E084918F010F5F1F4F8823B7
:104B600021F00E94FA2DF801F6CF409141135091A7
:104B70004213609143137091441385EF97E00E94B4
:104B8000157D4091451350914613609147137091E4
:104B9000481382EF97E00E94157D40914913509190
:104BA0004A1360914B1370914C138FEE97E00E9463
:104BB000157DE7EEF7E084918F010F5F1F4F88238B
:104BC00021F00E94FA2DF801F6CF40913F0250915A
:104BD0004002609141027091420285EE97E00E948E
:104BE000157D4091430250914402609145027091BD
:104BF000460282EE97E00E94157D40914702509157
:104C000048026091490270914A028FED97E00E943C
:104C1000157D8AE00E94FA2D0EC283E50E94503372
:104C2000882309F408C20E94ED3270930E0260934B
:104C30000D0201C28DED90E00E945D338111FBC138
:104C400083E50E945033882309F4F5C10091B7032E
:104C500010E00E94ED32000F111FF801E55FFD4FDB
:104C600071836083E8C180E50E942133882309F4C1
:104C7000E2C10E94ED32F62EC62ED72E83E50E94A9
:104C80005033882321F00E94ED328B0102C00FEFD8
:104C90001FEFC8010196039708F0CDC1D7FCCBC127
:104CA000E7E1F8E088E28E0F9491F91609F4C3C1A8
:104CB00031968E13F9CF2DC40E94066DBCC10E949F
:104CC000696CB9C10E943B6DB6C10E94946BB3C1BF
:104CD0000E941867B0C181E00E94DD36ACC180E05F
:104CE0000E94DD36A8C10E94BE66A5C10E94216552
:104CF000A2C10E940C859FC10E94EA7F9CC10E94B4
:104D0000568D99C10E94146596C184918F010F5FE1
:104D10001F4F882321F00E94FA2DF801F6CFE9E514
:104D2000F8E084918F010F5F1F4F882321F00E94CC
:104D3000FA2DF801F6CF8AE50E9421338823C9F1C4
:104D40000E94BC2D6B017C0120E030E040EA51EC78
:104D50000E94C9A187FD20C020E030E040EA51E474
:104D6000C701B6010E9447A71816B4F0C0923C12C2
:104D7000D0923D12E0923E12F0923F120E94429079
:104D800060913C1270913D1280913E1290913F12C1
:104D900042E00E94F13091C9E2E4F8E084918F0191
:104DA0000F5F1F4F882309F488C90E94FA2DF8016C
:104DB000F5CF40913C1250913D1260913E1270919E
:104DC0003F128FE398E00E94157D77C90E94DD6451
:104DD00032C10E94A4642FC18091AF06882309F4D8
:104DE0002AC1E2ECFEE184918F010F5F1F4F8823FF
:104DF00021F00E94FA2DF801F6CFE2E8F8E0849164
:104E00008F010F5F1F4F882321F00E94FA2DF801B8
:104E1000F6CFE2ECFEE184918F010F5F1F4F8823F4
:104E200021F00E94FA2DF801F6CF80E00E943C7537
:104E3000AB01BC018EE798E00E94157D80E00E94E6
:104E40001B75AB01BC018BE798E00E94157D81E0EA
:104E50000E943C75AB01BC0186E798E00E94157D7D
:104E600081E00E941B75AB01BC0183E798E00E94C2
:104E7000157D82E00E943C75AB01BC018EE698E096
:104E80000E94157D82E00E941B75AB01BC018BE680
:104E900098E00E94157D83E00E943C75AB01BC0147
:104EA00086E698E00E94157D83E00E941B75AB01A9
:104EB000BC0183E698E00E94157D04E113E0D8016F
:104EC0008D918D01882309F4F8C80E94FA2DF7CF3F
:104ED0008091AF06882309F4AEC00E947489ABC0EC
:104EE00080E50E945033882331F00E94FD32809388
:104EF000B10611E001C010E083E50E945033882321
:104F000029F00E9411338093B20601C011110E9452
:104F10009464E2ECFEE184918F010F5F1F4F8823C0
:104F200021F00E94FA2DF801F6CF8091B20681118E
:104F30000BC006E113E0F80181918F01882309F489
:104F4000BCC80E94FA2DF7CF6091B10670E087EAE5
:104F500098E00E94327D8AE00E94FA2D6CC081E0C8
:104F600080931C0283E50E942133811103C00E94BB
:104F70009D9861C00E94113381115DC0F8CFF090FF
:104F80003F05FF2029F1E2ECFEE184918F010F5FE4
:104F90001F4F882321F00E94FA2DF801F6CF84E5F7
:104FA0000E94FA2D6F2D70E080E090E04AE00E94B0
:104FB000532E80E20E94FA2D06E213E0D8018D9173
:104FC0008D01882311F40C945D200E94FA2DF6CFF8
:104FD00010922C06E2ECFEE184918F010F5F1F4FCF
:104FE000882321F00E94FA2DF801F6CF60912C065B
:104FF00070E084EB98E00E94327D8AE00E94FA2DF6
:105000001AC0E2ECFEE184918F010F5F1F4F8823ED
:1050100021F00E94FA2DF801F6CF609134067091CC
:10502000350686EC98E00E944B7D82E20E94FA2DC4
:105030008AE00E94FA2D10922E0610922D060E94F0
:105040007E988EC24115510519F4AF0141505109A6
:10505000812C912C0C947A1180E00E94F5350E94ED
:105060008A3783E50E942133882309F449C00E94CE
:10507000113321E0482FBE016F5F7F4FCE0146966E
:105080000E940C916B017C019B01AC010E945BA210
:10509000811131C02CEA35EC47E257E36E897F89F4
:1050A000888D998D0E94699FAB01BC0180EC92E0D4
:1050B0000E94F87C2CEA35EC47E257E369817A815B
:1050C0008B819C810E94699FAB01BC018BEB92E0BC
:1050D0000E94F87C2CEA35EC47E257E3C701B601A1
:1050E0000E94699FAB01BC0186EB92E00E94F87CB4
:1050F0008AE00E94FA2D0E9470370E94304F9BCFA9
:1051000081E0B7CFD5018C91882311F40C94BF1C9A
:10511000E2ECFEE184918F010F5F1F4F882321F0A5
:105120000E94FA2DF801F6CFF50181915F018823E5
:1051300019F00E94FA2DF8CF8AE00E94FA2D0C9403
:10514000BF1C61E0812F0E9444946E2D812F0E942C
:105150001494F12CB701812F0E948094B7E0CB16F4
:10516000D10409F068CFF0921706E092160663CFDB
:1051700010920002E6E8F3E084917F012FEFE21A3B
:10518000F20A882321F00E94FA2DF701F5CF56018B
:10519000A01AB10A3AEFA31AB108B7FE10C04EE642
:1051A000E42E43E0F42EF7018491882311F40C944B
:1051B000861EFFEFEF1AFF0A0E94FA2DF4CF780146
:1051C00028E0E20EF11CA50165EE7FEFC7010E9409
:1051D0007BA2B5010B2C000C880B990B0E94BB2EF7
:1051E000EEE4F3E084914F013FEF831A930A8111BB
:1051F00003C0812C912C26C00E94FA2DF401F2CF1D
:10520000D7018C91853EC1F0C7010E94C24D62E07A
:1052100072E081E493E00E944B7DF70180810E945F
:10522000F24DBC018FE393E00E944B7D8AE00E9427
:10523000FA2D8AE00E94FA2DFFEF8F1A9F0A2FEFB6
:10524000E21AF20A8A149B04DCF20C94861E0E9475
:10525000BC2D0E94D5A07093100760930F0780E0CB
:105260000E9483710E94BC2D20E030E04AEA52E4A3
:105270000E9447A718161CF00E94828E02C00E944E
:10528000D78F0E94BC9E81E0809301021FA218A6C6
:1052900019A61AA61FA618AA19AA1AAA1BA21BAAFF
:1052A0005CE35FAB8CE18BAF96E49FAFE12CF12C1C
:1052B00000E81FEB812C912C540160910F07709135
:1052C0001007072E000C880B990B0E944EA7762E14
:1052D000672E582E492E262F372F482F592FB701CA
:1052E000C8010E9447A78823D1F02091160730916A
:1052F00017074091180750911907672D762D852DB6
:10530000942D0E9447A7881F8827881F8BA3CBA4B2
:10531000CC2049F0882339F0809101028CCE7E2C7C
:105320006F2C502E412E0E9483956B017C01DC0175
:10533000CB012FA538A949A95AA9821B930BA40B0D
:10534000B50BB7FD3AC0D701C60188519C4FAF4F8E
:10535000BF4F8FA798ABA9ABBAAB0E94EF4FECE65B
:10536000F5E084918F010F5F1F4F882321F00E9489
:10537000FA2DF801F6CF81149104A104B104B9F01B
:10538000D501C401805F984DAF4FBF4FBC01CD0127
:105390006C197D098E099F0928EE33E040E050E04A
:1053A0000E943BABCA01B9010E94BB2E03C08FE330
:1053B0000E94FA2D8AE00E94FA2D0E94EF5B0E9463
:1053C000EF2D2090160730901707009118071091C5
:1053D00019079101A801672D762D852D942D0E9426
:1053E000689F9F7781149104A104B10449F420E0DF
:1053F00030E040E85FE30E9447A787FF0BC008C08A
:1054000020E030E040E450E40E94C9A1181614F4F2
:10541000460157019BA1992379F12FA138A549A5F0
:105420005AA5211531054105510541F0D701C601A5
:10543000821B930BA40BB50BB7FD1EC09101A801F5
:105440006BA97FA98BAD9FAD0E94689F20E030E0E3
:1054500040EC5FE30E9447A787FD5ECFD701C601FE
:10546000805A9541AF4FBF4F8FA398A7A9A7BAA75E
:105470002BAA3FAA0BAF1FAF80910102882309F42A
:105480004BCF81149104A104B10429F4E72CF62C2C
:10549000052D142D12CF90E1C91A97E2D90AE1081F
:1054A000F108C818D908EA08FB08F7FE35CFEECF97
:1054B0000E94E67588E50E942133882319F05F9ADF
:1054C0001092820689E50E942133882319F08A9A76
:1054D000109283068AE50E942133882351F09FB7FA
:1054E000F894809108018160809308019FBF109219
:1054F000840685E40E942133882309F49CCD0E9410
:10550000AB5B99CD01110C94401A0E94622B0C9454
:10551000551A0E94E67560E08F2D0E9444940F3F5B
:10552000EFEF1E0759F48F2D0E94EB9331E020E03E
:10553000892B09F030E0032F122F05C0013011052F
:1055400061F000E010E08F2D0E94EB93801791072F
:1055500009F471CD0E94EF5BF6CF01E010E0F3CFCC
:10556000C358DF4F0FB6F894DEBF0FBECDBFDF913B
:10557000CF911F910F91FF90EF90DF90CF90BF9050
:10558000AF909F908F907F906F905F904F903F90E3
:105590002F9008958FB7F89490913C1320913B136E
:1055A000291759F0E92FF0E0E554FD4E208130E055
:1055B0009F5F9F7790933C1302C02FEF3FEF8FBF09
:1055C000C90108950F931F93CF93DF93EC010E94BD
:1055D00083950E811F8128853985011511052105C7
:1055E000310559F52C852223A9F13A8521502C87C4
:1055F00021E0230F2A874D85241301C01A86FE015E
:1056000024E0329FE00DF11D1124068517852089C5
:1056100031890A831B832C833D83DC01CB01800FFE
:10562000911FA11DB11D8E839F83A887B9878C818F
:105630009D81892B79F0409A0DC0DC01CB01801B44
:10564000910BA20BB30BB7FD05C040981E821F82C1
:1056500018861986DF91CF911F910F910895FF92BF
:105660000F931F93CF93DF93FC0120812B3319F10C
:10567000D091E106D430F8F4F62EBC01C091680553
:105680000C2F10E0F0E6CF9FC001112483549C4FF3
:105690000E948DA2F801E154F94FF082CF5FC4302F
:1056A00018F4C093680502C010926805DF5FD093BC
:1056B000E10681E001C080E0DF91CF911F910F9161
:1056C000FF90089580E1E1EBF1E1AAE4B6E00190FA
:1056D0000D928A95E1F7089580E1EAE4F6E0A1EB06
:1056E000B1E101900D928A95E1F708958F929F9212
:1056F000AF92BF92CF92EF92FF920F931F93CF93EF
:10570000DF93CDB7DEB72C970FB6F894DEBF0FBE90
:10571000CDBF4B015C01C0902C06EAE4F6E0808529
:105720009185A285B3854481558166817781008109
:1057300011812281338109831A832B833C834D831A
:105740005E836F83788789879A87AB87BC87AE0132
:10575000475F5F4FBE016B5F7F4FCE0101960E9496
:10576000744D8501740126E536E0AE01475F5F4F59
:10577000BE016B5F7F4FCE0101960E94BC402C960C
:105780000FB6F894DEBF0FBECDBFDF91CF911F9152
:105790000F91FF90EF90CF90BF90AF909F908F9020
:1057A0000895CF92EF92FF920F931F93CF93DF93C1
:1057B000CDB7DEB72C970FB6F894DEBF0FBECDBFC6
:1057C000C0902C06E1EBF1E180859185A285B3853F
:1057D00044815581668177810081118122813381E5
:1057E00009831A832B833C834D835E836F83788781
:1057F00089879A87AB87BC87AE01475F5F4FBE0141
:105800006B5F7F4FCE0101960E94744DE09037028E
:10581000F09038020091390210913A022DEB31E1FB
:10582000AE01475F5F4FBE016B5F7F4FCE010196B8
:105830000E94BC402C960FB6F894DEBF0FBECDBFC1
:10584000DF91CF911F910F91FF90EF90CF9008952E
:105850004F925F926F927F928F929F92AF92BF9280
:10586000CF92DF92EF92FF920F931F93CF93DF932C
:105870005C014B01EA0189014090370250903802E7
:105880006090390270903A02288139814A815B81A7
:105890006091B9117091BA118091BB119091BC11B6
:1058A0000E9447A787FF2AC0F801C080D180E2800C
:1058B000F38020E030E0A901C701B6010E9447A7AC
:1058C000811106C0E7E2FEE0C590D590E590F49026
:1058D000C0923702D0923802E0923902F0923A0236
:1058E00088819981AA81BB818093B9119093BA1163
:1058F000A093BB11B093BC110E94D12BF801C080C2
:10590000D180E280F38020E030E0A901C701B60138
:105910000E9447A7811108C0C0903202D090330284
:10592000E0903402F0903502C0923702D0923802F3
:10593000E0923902F0923A02F50180819181A281D0
:10594000B3818093B1119093B211A093B311B0932E
:10595000B411F40180819181A281B3818093B5114A
:105960009093B611A093B711B093B8110E94D12BA8
:10597000288139814A815B816091B9117091BA1196
:105980008091BB119091BC110E94C9A1181654F5C9
:10599000F801C080D180E280F38020E030E0A901EE
:1059A000C701B6010E9447A7811106C0E7E2FEE0E9
:1059B000C590D590E590F490C0923702D09238020D
:1059C000E0923902F0923A0288819981AA81BB81E2
:1059D0008093B9119093BA11A093BB11B093BC11ED
:1059E0000E94D12B0E94E6754092370250923802F5
:1059F0006092390270923A02DF91CF911F910F911C
:105A0000FF90EF90DF90CF90BF90AF909F908F90DE
:105A10007F906F905F904F900895CF92DF92EF92BA
:105A2000FF920F931F93CF93DF93EC01CC0FDD1FF9
:105A3000CC0FDD1FFE01ED54F94F20E030E0A9014D
:105A400060817181828193810E94699FFE01E25C85
:105A5000F94F20813181428153810E94699F6B01FE
:105A60007C01FE01EF53FE4E60837183828393833A
:105A7000FE01E05DF54F65917591859194918E01E0
:105A80000F5B1C4EA70196010E94699FF80160837D
:105A9000718382839383FE01E45CF54F6591759178
:105AA00085919491C15CDD4FA70196010E94699F89
:105AB000688379838A839B83DF91CF911F910F91B4
:105AC000FF90EF90DF90CF9008950F931F93CF93A7
:105AD000DF93CDB7DEB72C970FB6F894DEBF0FBEBD
