:100000000C9429100C945A100C945A100C945A10F9
:100010000C945A100C945A100C945A100C945A10B8
:100020000C945A100C945A100C945A100C945A10A8
:100030000C945A100C945A100C945A100C945A1098
:100040000C945A100C94C5420C945A100C945A10EB
:100050000C945A100C945A100C9437310C94F5945B
:100060000C945A100C94B5590C948A5A0C945A104A
:100070000C945A100C945A100C945A100C945A1058
:100080000C945A100C945A100C945A100C945A1048
:100090000C945A100C945A100C945A100C947A2EFA
:1000A0000C945A100C945A100C945A100C945A1028
:1000B0000C945A100C945A100C945A100C945A1018
:1000C0000C945A100C945A100C945A100C945A1008
:1000D0000C945A100C945A100C945A100C945A10F8
:1000E0000C945A10E859EF59035A105A1A5A355AB3
:1000F0001F5A355A245A295A355A315ABD92C0923C
:10010000AF92B392B992F792C492C892CE92D29221
:10011000D692DC92E092E492F792EA92EE92F29218
:100120000F941494199423942D94A69437943F9487
:10013000479451945B94659474947E94A6948894A7
:1001400092949C94084AD73B3BCE016E84BCBFFD81
:10015000C12F3D6C74319ABD56833DDA3D00C77F97
:1001600011BED9E4BB4C3E916BAAAABE0000008030
:100170003F05A84CCDB2D44EB93836A9020C50B9BF
:10018000918688083CA6AAAA2ABE000000803F00EB
:100190000C94D6920C94CE920C94A6940C946C2C45
:1001A0000C94E0920C94F7920C9451940C94149447
:1001B0000C9423940C9437940C941A5A0C94105A5F
:1001C0000C9447940C94EE920C94245A0C94AF9295
:1001D0000C948F2C0C9488940C947B2C0C94F72CFE
:1001E0000C9419940C945B940C94972C0C94C092DE
:1001F0000C9474940C949C940C94B3920C94D2929E
:100200000C94EF590C94E8590C94035A0C94EA920C
:100210000C942D940C94BD920C94355A0C946594C6
:100220000C94F2920C94E4920C940F940C94C89257
:100230000C94C72C0C94295A0C9492940C947E9490
:100240000C94DC920C9434550C946B2C0C941F5A27
:100250000C94B9920C943F940C94C4920C940C9FFF
:100260000C94315A434F4D4D554E49434154494FDB
:100270004E0044525952554E004552524F5253006F
:10028000494E464F004543484F0025697300256994
:100290006D20256973002569682025696D20256911
:1002A0007300256964202569682025696D2025690A
:1002B00073002569792025696420256968202569EE
:1002C0006D20256973005072696E742074696D65C4
:1002D0003A2000000136372603FF3C3D38FF0E2E42
:1002E000303E1312FFFF080706FF061A1C18FFFF17
:1002F00008440A0B43FFFFFFFFFFFF50726F746556
:10030000637465642050696E0A003D003F2061649B
:100310006472657373203A200020627974657320DB
:100320006F66206D656D6F727920696E69746961A1
:100330006C697A65642E0A0A00556E61626C6520EC
:10034000746F20696E697469616C697A652E0A0A36
:1003500000496E697469616C697A696E67206672BA
:100360006565206D656D6F727920626C6F636B2EB1
:100370000A0A0A00747275650A0020726574757243
:100380006E3D000A4D656D6F727920436F72727514
:100390007074696F6E206465746563746564206948
:1003A0006E2066726565206D656D6F727920617271
:1003B00065612E0A002020626C6F636B5F666F754B
:1003C0006E643D00202020002920666F756E643D1C
:1003D00000202800207370203C20486561702000B8
:1003E0002073703D000A5F5F6273735F656E643AED
:1003F00020003D000A265F5F62726B76616C3A20D6
:10040000000A666D632829206E3D00636865636B92
:100410005F666F725F667265655F6D656D6F72793D
:100420005F636F7272757074696F6E2829203D204A
:100430000020627974657320617420000A4C617237
:1004400067657374206672656520626C6F636B20EC
:10045000697320000A4D656D6F727920436F727267
:10046000757074696F6E206465746563746564206B
:10047000696E2066726565206D656D6F72792061A9
:100480007265612E0A002062797465732066726558
:10049000652061742000466F756E6420000A436F0A
:1004A0007272757074696E672061646472657373CB
:1004B0003A2000436F7272757074696E67206672BD
:1004C0006565206D656D6F727920626C6F636B2E50
:1004D0000A0A000A537461636B20506F696E746579
:1004E00072203A20000A7374617274206F6620666D
:1004F000726565207370616365203A20000A5F5F52
:100500006273735F656E64203A20000A5F5F6272F7
:100510006B76616C203A20008502800279027202BB
:1005200064026F66660044454255473A004D3131DA
:10053000332053006F6B0020573A004361703A45F7
:100540004D455247454E43595F5041525345523AEB
:10055000310A004361703A434153455F4C49474873
:10056000545F4252494748544E4553533A310A006A
:100570004361703A544F47474C455F4C4947485494
:10058000533A310A004361703A534F46545741522F
:10059000455F504F5745523A300A004361703A4C1C
:1005A0004556454C494E475F444154413A310A0053
:1005B0004361703A5A5F50524F42453A310A004304
:1005C00061703A4155544F4C4556454C3A310A00FA
:1005D0004361703A5052494E545F4A4F423A310A91
:1005E000004361703A50524F47524553533A300AD4
:1005F000004361703A4155544F5245504F52545F39
:1006000054454D503A310A004361703A45455052C5
:100610004F4D3A310A004649524D574152455F4EBF
:10062000414D453A4D61726C696E204D61726C6945
:100630006E5F312E312E365F526F626F5665727368
:10064000696F6E5F312E322E3520526F626F2052ED
:100650003220534F555243455F434F44455F5552F7
:100660004C3A68747470733A2F2F676974687562B6
:100670002E636F6D2F526F626F33442F4D61726C1A
:10068000696E2050524F544F434F4C5F5645525362
:10069000494F4E3A312E30204D414348494E455F37
:1006A000545950453A20526F626F205232204558BB
:1006B0005452554445525F434F554E543A3120559C
:1006C0005549443A63656465326132662D3431615F
:1006D000322D343734382D396231322D633535635C
:1006E00036326633363766660A002F2F20007A5F6F
:1006F0006D61783A20007A5F6D696E3A2000795F0B
:100700006D61783A2000785F6D696E3A200052651D
:10071000706F7274696E6720656E6473746F702099
:100720007374617475730A0020643A0020693A009A
:1007300020703A0020643A0020693A0020703A00A4
:1007400043757272656E743A200043290A00616233
:100750006C656420286D696E2074656D702000439F
:100760006F6C64206578747275646573206172655E
:1007700020004B64200023646566696E6520204478
:10078000454641554C545F004B6920002364656623
:10079000696E65202044454641554C545F004B70BE
:1007A000200023646566696E6520204445464155F6
:1007B0004C545F00504944204175746F74756E65E8
:1007C0002066696E697368656421205075742074B1
:1007D0006865206C617374204B702C204B6920611C
:1007E0006E64204B6420636F6E7374616E7473204B
:1007F00066726F6D2062656C6F7720696E746F2012
:10080000436F6E66696775726174696F6E2E680AF0
:1008100000504944204175746F74756E652066619F
:10082000696C6564212074696D656F75740A005088
:100830004944204175746F74756E65206661696CFA
:100840006564212054656D706572617475726520F0
:10085000746F6F20686967680A00204B643A200053
:10086000204B693A2000204B703A20000A20436C4C
:10087000617373696320504944200A002054753A1B
:100880002000204B753A2000206D61783A2000202E
:100890006D696E3A200020643A200020626961731D
:1008A0003A2000426564204C6576656C696E67206D
:1008B000004661696C656420746F20656E61626CCE
:1008C0006520426564204C6576656C696E670A0038
:1008D0004D65736820706F696E742063616E6E6F12
:1008E00074206265207265736F6C7665640A004DD2
:1008F00034323120696E636F727265637420706187
:1009000072616D657465722075736167650A005464
:100910006F6F206661722066726F6D20726566650A
:1009200072656E636520706F696E740A003A20000C
:100930007A5F6D696E3A20202D3230207A5F6D61CA
:10094000783A20203230005A204F66667365742052
:1009500000416374697665204578747275646572C8
:100960003A2000556E6B6E6F776E20636F6D6D6110
:100970006E643A202200736C6F743A0070012C018F
:1009800090012701B0012201C0011D01F0011801F1
:100990001002130130020E016002090190020401ED
:1009A000C002FF000003FA004003F5008003F000DE
:1009B000D003EB002004E6007004E100E004DC005A
:1009C0004005D700C005D2004006CD00D006C800C3
:1009D0008007C3003008BE00F008B900C009B400A9
:1009E000B00AAF00B00BAA00D00CA500000EA0000A
:1009F000500F9B00C01096005012910000148C0004
:100A0000C0158700B0178200B0197D00D01B780098
:100A1000001E730040206E0090226900F0246400E4
:100A200040275F0090295A00E02B5500102E5000FF
:100A300020304B0010324600E033410090353C003E
:100A40001037370070383200A0392D00B03A280036
:100A5000A03B2300603C1E00103D1900903D140097
:100A6000103E0F00703E0A00C03E0500003F00002F
:100A7000403FFBFF803FF6FFC03FF1FF20280029E9
:100A800020453A0020280029205A3A002028002931
:100A900020593A0020280020583A0053746570709D
:100AA00065722063757272656E742076616C75650F
:100AB0007320696E20252028416D7073293A0A0041
:100AC0000B0BFFFFFF00000202026265640A002CAC
:100AD0002073797374656D2073746F707065642111
:100AE000204865617465725F49443A200048656139
:100AF00074696E67206661696C656400486561743D
:100B0000696E67206661696C6564004572723A209F
:100B10004D494E54454D50004D494E54454D502081
:100B2000747269676765726564004572723A204D38
:100B3000415854454D50004D415854454D50207436
:100B400072696767657265640020746F6F206C6FEF
:100B50006E6720657874727573696F6E2070726548
:100B600076656E7465640A0020636F6C6420657836
:100B700074727573696F6E2070726576656E7465D8
:100B8000640A00627573793A207061757365642038
:100B9000666F7220696E7075740A00627573793AB7
:100BA0002070617573656420666F7220757365725D
:100BB0000A00627573793A2070726F6365737369A6
:100BC0006E670A004B494C4C45442E20004B494C63
:100BD0004C20636175736564206279204B494C4CED
:100BE00020627574746F6E2F70696E0A004B494CE9
:100BF0004C45442E20004B494C4C20636175736575
:100C00006420627920746F6F206D75636820696E4F
:100C10006163746976652074696D65202D20637544
:100C20007272656E7420636F6D6D616E643A200040
:100C30005072696E7465722068616C7465642E20F0
:100C40006B696C6C28292063616C6C6564210A00F7
:100C5000000000000000FE420000204300005C4253
:100C600000005C4200002042000000005761726EEC
:100C7000696E673A20486F6D696E672042756D70C6
:100C80002044697669736F72203C20310A000202A9
:100C9000040000A0400000A040000000400000FE52
:100CA000420000FE4200002043FF01014572726FC6
:100CB000722077726974696E6720746F20454550A1
:100CC000524F4D210A004B494C4C45442E200020E8
:100CD0002D20496E76616C69642065787472756444
:100CE0006572206E756D62657220210A00202050A9
:100CF0006C616E6E65724275666665724279746586
:100D0000733A20002046726565204D656D6F7279DB
:100D10003A2000436F6D70696C65643A20536570CA
:100D200020203520323031380A00207C2041757473
:100D3000686F723A20526F626F0A00303520534557
:100D40005054203230313800204C6173742055707B
:100D500064617465643A20004D61726C696E5F3144
:100D60002E312E365F526F626F56657273696F6EE9
:100D70005F312E322E350A004D61726C696E002093
:100D8000536F6674776172652052657365740A00EB
:100D9000205761746368646F672052657365740AD5
:100DA000002042726F776E206F75742052657365F4
:100DB000740A002045787465726E616C2052657308
:100DC00065740A00506F77657255700A007374611C
:100DD00072740A00205A3A0020593A0020583A000A
:100DE000656E6473746F7073206869743A200024B0
:100DF000F4D43050C38E20C2A24017828B701112DF
:100E00007A910D816CD90AA861E108C7586607611B
:100E10005143061E4B5D05C145A7041A4111040943
:100E20003D9803713931034036DB0265339102D4BA
:100E3000305402802E1D02632CEE01752AC501B0CC
:100E400028A001102781018F2564012B244B01E08C
:100E5000223401AC211F018D200D01801FFC008474
:100E60001EED00971DDF00B81CD200E61BC6002057
:100E70001BBC00641AB200B219A8000A19A0006ACB
:100E8000189900D117910040178B00B516840031D6
:100E9000167E00B31579003A157300C7146F005819
:100EA000146A00EE1366008813630025135E00C702
:100EB000125B006C12570015125400C111510070E2
:100EC000114F0021114B00D61049008D10470046EC
:100ED00010440002104200C00F4000800F3E00424C
:100EE0000F3C00060F3B00CB0E3800930E37005C22
:100EF0000E3500270E3400F30D3200C10D31009085
:100F00000D3000600D2E00320D2D00050D2C00D986
:100F10000C2B00AE0C2900850C29005C0C27003539
:100F20000C27000E0C2600E80B2400C40B2400A0A4
:100F30000B23007D0B23005A0B2100390B210018D5
:100F40000B2000F80A1F00D90A1E00BB0A1E009DD4
:100F50000A1D00800A1D00630A1C00470A1B002CA2
:100F60000A1B00110A1A00F7091A00DD091900C44A
:100F7000091900AB091900920917007B09180063D1
:100F80000917004C09160036091600200916000A38
:100F9000091500F5081500E0081400CC081400B885
:100FA000081400A4081400900813007D0812006BB8
:100FB00008130058081200460812003408110023D4
:100FC0000811001208110001081100F0071000E0DC
:100FD000071000D0071000C0071000B0070F00A1D5
:100FE00007100091070E0083070F0074070F0065BC
:100FF000070E0057070E0049070E003B070D002E95
:10100000070E0020070D0013070D0006070D00F95D
:10101000060C00ED060D00E0060C00D4060C00C81E
:10102000060C00BC060C00B0060C00A4060B0099D0
:10103000060C008D060B0082060B0077060B006C79
:10104000060B0061060A0057060B004C060A004218
:10105000060A0038060A002E060A0024060A001AAC
:10106000060A001006090007060A00FD050900F43B
:10107000050900EB050900E2050900D9050900D0C2
:10108000050900C7050900BE050900B5050800AD42
:10109000050800A50509009C050800940508008CBA
:1010A000050800840508007C050800740508006C2C
:1010B000050700650508005D050700560508004E98
:1010C00005070047050700400508003805070031FF
:1010D0000507002A050700230507001C0506001662
:1010E0000507000F0507000805060002050700FBBD
:1010F000040600F5040700EE040600E8040600E21A
:10110000040700DB040600D5040600CF040600C96E
:10111000040600C3040600BD040600B7040600B1BF
:10112000040500AC040600A6040600A00405009B0C
:1011300004060095040500900406008A0405008555
:10114000040500800406007A04050075040500709B
:101150000405006B04050066040500610405005CDD
:1011600004050057040500520405004D040500481D
:10117000040500430405003E0404003A040500355C
:10118000040500300404002C040500270404002397
:101190000405001E0404001A0404001604050011CE
:1011A0000404000D04040009040500040404000004
:1011B000040400FC030400F8030400F4030400F03A
:1011C000030400EC030400E8030400E4030400E06B
:1011D000030400DC030400D8030400D4030400D09B
:1011E000030400CC030400C8030300C50303002468
:1011F000F404D9201BC40C5C0E9804C4095F02657A
:10120000077101F405F900FB04B30048048700C12D
:101210000369005803550003034500BE023A0084E9
:1012200002310053022A002902250004022000E4B2
:10123000011C00C8011900AF0117009801140084B7
:10124000011300710110006101100051010E0043F3
:10125000010D0036010B002B010B0020010B0015C6
:101260000109000C01090003010800FB000800F35C
:10127000000800EB000700E4000600DE000600D8CE
:10128000000600D2000600CC000500C7000500C221
:10129000000500BD000400B9000400B5000400B161
:1012A000000400AD000400A9000400A5000300A292
:1012B0000003009F0004009B0003009800030095BA
:1012C00000020093000300900003008D0002008BD9
:1012D00000030088000200860002008400030081F1
:1012E0000002007F0002007D0002007B0002007906
:1012F0000002007700010076000200740002007214
:10130000000100710002006F0002006D0001006C1E
:101310000002006A00010069000200670001006627
:10132000000100650001006400020062000100612C
:10133000000100600001005F0002005D0001005C30
:101340000001005B0001005A000100590001005833
:101350000001005700010056000100550001005433
:101360000001005300000053000100520001005131
:10137000000100500001004F0001004E0000004E2F
:101380000001004D0001004C0001004B0000004B2B
:101390000001004A00010049000100480000004827
:1013A0000001004700010046000000460001004522
:1013B000000000450001004400010043000000431C
:1013C0000001004200000042000100410000004115
:1013D000000100400001003F0000003F0001003E0E
:1013E0000000003E0001003D0000003D0001003C07
:1013F0000000003C0000003C0001003B0000003BFE
:101400000001003A0000003A0001003900000039F4
:1014100000010038000000380000003800010037EB
:1014200000000037000100360000003600000036E2
:1014300000010035000000350000003500010034D7
:1014400000000034000000340001003300000033CD
:1014500000000033000100320000003200000032C2
:1014600000010031000000310000003100010030B7
:1014700000000030000000300001002F0000002FAD
:101480000000002F0000002F0001002E0000002EA1
:101490000000002E0001002D0000002D0000002D96
:1014A0000000002D0001002C0000002C0000002C8A
:1014B0000000002C0001002B0000002B0000002B7E
:1014C0000000002B0001002A0000002A0000002A72
:1014D0000000002A00010029000000290000002966
:1014E0000000002900000029000100280000002859
:1014F000000000280000002800000028000100274C
:10150000000000270000002700000027000000273F
:101510000001002600000026000000260000002632
:101520000000002600010025000000250000002525
:101530000000002500000025000000250001002417
:10154000000000240000002400000024000000240B
:1015500000010023000000230000002300000023FE
:1015600000000023000000230000002300010022EF
:1015700000000022000000220000002200000022E3
:1015800000000022000100210000002100000021D5
:1015900000000021000000210000002100000021C7
:1015A00000010020000000200000002000000020BA
:1015B00000000020000000200000002000000020AB
:1015C0000001001F0000001F0000001F0000001F9E
:1015D0000000001F0000001F0000001F0001001E8F
:1015E0000000001E0000001E0000001E0000005051
:1015F000726F6265204F6666736574206973205A46
:101600003A20004D65736820706F696E74206361C5
:101610006E6E6F74206265207265736F6C766564A0
:101620000A005374616E6461726420446576696176
:1016300074696F6E3A20002052616E67653A20002F
:10164000204D61783A2000204D696E3A20004D65AA
:10165000616E3A200046696E6973686564210A000C
:101660002072616E67653A2000206D61783A200033
:10167000206D696E3A2000207369676D613A200021
:10168000206D65616E3A20003A207A3A2000206F82
:10169000662000205A00205900205800476F696ECC
:1016A0006720746F3A00436C6F636B776973650AE8
:1016B00000436F756E7465722D0020446972656316
:1016C00074696F6E3A2000202020616E676C653A65
:1016D00020005374617274696E6720726164697569
:1016E000733A2000506F736974696F6E696E67207A
:1016F0007468652070726F62652E2E2E0A003F4E50
:10170000756D626572206F66206C65677320696E07
:10171000206D6F76656D656E74206E6F7420706CD1
:1017200061757369626C652028302D3135292E0A68
:1017300000590058003F53616D706C652073697AE1
:1017400065206E6F7420706C61757369626C6520C2
:1017500028342D3530292E0A004D3438205A2D508A
:10176000726F6265205265706561746162696C694F
:10177000747920546573740A003F28562965726293
:101780006F7365206C6576656C20697320696D7078
:101790006C61757369626C652028302D34292E0ABE
:1017A000004B494C4C45442E2000656E71756575A3
:1017B00065696E672022004E6F204C696E65204E71
:1017C000756D626572207769746820636865636B04
:1017D00073756D2C204C617374204C696E653A20D2
:1017E000005072696E7465722073746F70706564F6
:1017F0002064756520746F206572726F72732E207D
:1018000046697820746865206572726F7220616E17
:101810006420757365204D39393920746F207265E5
:1018200073746172742E202854656D7065726174D2
:101830007572652069732072657365742E20536517
:1018400074206974206166746572207265737461B6
:101850007274696E67290A004E6F20436865636B76
:1018600073756D2077697468206C696E65206E757C
:101870006D6265722C204C617374204C696E653A00
:101880002000636865636B73756D206D69736D61AE
:101890007463682C204C617374204C696E653A2027
:1018A000004C696E65204E756D626572206973200B
:1018B0006E6F74204C617374204C696E65204E7598
:1018C0006D6265722B312C204C617374204C696EF3
:1018D000653A20004D31313000776169740A002982
:1018E0000A002062797465733B20637263200053A1
:1018F000657474696E67732053746F726564202811
:1019000000202863616C63756C6174656429210A29
:101910000020213D2000454550524F4D2043524369
:10192000206D69736D61746368202D202873746F56
:10193000726564292000290A002062797465733B6E
:101940002063726320002073746F72656420736576
:101950007474696E67732072657472696576656404
:10196000202800204D61726C696E3D563431290A81
:101970000028454550524F4D3D00454550524F4D72
:101980002076657273696F6E206D69736D61746323
:1019900068200048617264636F6465642044656612
:1019A00061756C742053657474696E6773204C6F35
:1019B000616465640A00B80B0000B80B00006400A5
:1019C0000000E8030000000096430000964300007A
:1019D00040410000C8410000A0420000A0420000B9
:1019E00048440080114320496E76616C696420652B
:1019F00078747275646572200000000000000000B9
:101A000000000000000000FE420000FE4200002036
:101A10004342696C696E656172204C6576656C69DC
:101A20006E6720477269643A0A0047322F473320B5
:101A300062616420706172616D65746572730A0021
:101A400047322F47332062616420706172616D6597
:101A5000746572730A0020204D383531205A005ABF
:101A60002D50726F6265204F666673657420286D15
:101A70006D293A0A0020440020490020204D3330CF
:101A80003420500020440020490020204D333031C4
:101A90002050005049442073657474696E67733A2E
:101AA0000A0020204D3432302053004175746F20DD
:101AB000426564204C6576656C696E673A0A002061
:101AC0005A0020590020204D323036205800486FEF
:101AD0006D65206F66667365743A0A0020450020C4
:101AE0005A00205900205800204200205400202095
:101AF0004D323035205300416476616E6365643A3F
:101B000020533C6D696E5F66656564726174653E05
:101B100020543C6D696E5F74726176656C5F6665BA
:101B20006564726174653E20423C6D696E5F7365E9
:101B3000676D656E745F74696D655F6D733E205887
:101B40003C6D61785F78795F6A65726B3E205A3CC4
:101B50006D61785F7A5F6A65726B3E20453C6D61AE
:101B6000785F655F6A65726B3E0A00205400205200
:101B70000020204D323034205000416363656C6595
:101B8000726174696F6E2028756E6974732F733279
:101B9000293A20503C7072696E745F616363656CB2
:101BA0003E20523C726574726163745F6163636569
:101BB0006C3E20543C74726176656C5F6163636552
:101BC0006C3E0A00204500205A0020590020204D7C
:101BD0003230312058004D6178696D756D20416358
:101BE00063656C65726174696F6E2028756E6974C7
:101BF000732F7332293A0A00204500205A002059D9
:101C00000020204D3230332058004D6178696D75C9
:101C10006D206665656472617465732028756E69F0
:101C200074732F73293A0A00204500205A00205966
:101C30000020204D39322058005374657073207095
:101C4000657220756E69743A0A0020204D3230307A
:101C50002044300A0020204D3230302044002044FF
:101C6000697361626C65640A0046696C616D656EDA
:101C7000742073657474696E67733A00202047326C
:101C800031202020203B20556E69747320696E201E
:101C90006D6D0A0020746F6F206C6F6E6720657821
:101CA00074727573696F6E2070726576656E746597
:101CB000640A0020636F6C642065787472757369C0
:101CC0006F6E2070726576656E7465640A00202FF1
:101CD0000020403A00205A3A0020593A0020436F31
:101CE000756E7420583A0020453A00205A3A002078
:101CF000593A00583A0053657474696E67205472FB
:101D00006176656C20416363656C65726174696FAF
:101D10006E3A200053657474696E67205265747260
:101D200061637420416363656C65726174696F6E91
:101D30003A200053657474696E67205072696E743E
:101D400020416363656C65726174696F6E3A20004F
:101D500053657474696E67205072696E7420616E89
:101D6000642054726176656C20416363656C6572B2
:101D70006174696F6E3A2000205A002059005800A3
:101D800020204D61783A2000205A00205900580048
:101D900020204D696E3A20004F6E20004F6666008D
:101DA000536F667420656E6473746F70733A2000AD
:101DB00043617365206C696768743A200050726FE4
:101DC00062696E67206661696C65640A00457272BB
:101DD0006F723A00205A3A200020593A200042659A
:101DE0006420583A20002066697273740A005A0011
:101DF00059005800486F6D6520006563686F3A00B0
:101E0000544845524D414C2052554E41574159007E
:101E1000546865726D616C2052756E6177617900EE
:101E200020706F736974696F6E206F7574206F66B0
:101E30002072616E67652E0A003F50726F626520E6
:101E40000052756E6E696E6720696E204452592D7E
:101E500052554E206D6F64650A0047323920417536
:101E6000746F20426564204C6576656C696E670A04
:101E70000028422961636B00284629726F6E740046
:101E80002852296967687400284C29656674003FE8
:101E90002856296572626F7365206C6576656C20C3
:101EA000697320696D706C61757369626C65202857
:101EB000302D34292E0A00426164205A2076616C4C
:101EC00075650A004E6F2062696C696E65617220EB
:101ED000677269640A00205A3A200020593A2000AB
:101EE00042656420583A20000000210024002700A9
:101EF0002A002D0030003300010100000401070119
:101F00000A0100002200250028002B002E003100CD
:101F1000340002010000050108010B01000020004F
:101F20002300260029002C002F00320000010000B1
:101F3000030106010901050505050705080808084C
:101F4000020202020A0A0808040404040101010151
:101F5000010101010303030303030303040707074C
:101F60000C0C0C0C0C0C0C0C0202020206060606F1
:101F7000060606060B0B0B0B0B0B0B0B01021020BE
:101F800020080810204010204080020102010804AF
:101F90000201010204081020408080402010080443
:101FA000020180040201804020100804020108049C
:101FB00002010102040810204080010204081020E0
:101FC000408000000A0B02090C0D0E0807030401F3
:101FD0000000000000000000000000000000000001
:101FE00000000000000000000000000000001211CE
:101FF00010000000000000000000000000000000D1
:102000000000000000000000526573656E643A2015
:10201000006F6B004E414E494E495459494E46CDD2
:10202000CCCC3D0AD7233C17B7D13877CC2B32958F
:1020300095E6241FB14F0A000020410000C842006D
:10204000401C4620BCBE4CCA1B0E5AAEC59D740037
:102050000C9F11241FBECFEFD1E2DEBFCDBF00E049
:102060000CBF13E0A0E0B2E0E0E8F7E501E00BBF51
:1020700002C007900D92A839B107D9F723E1A8E96A
:10208000B3E001C01D92A737B207E1F710E1C9E242
:10209000D0E100E006C021970109802FFE010E94D7
:1020A000809FC832D10780E00807A9F70E942E98C8
:1020B0000C94BEAB0C9400002F923F924F925F9213
:1020C0006F927F928F929F92AF92BF92CF92DF9248
:1020D000EF92FF920F931F93CF93DF93CDB7DEB7AD
:1020E000CE57D1090FB6F894DEBF0FBECDBF009119
:1020F000B80620E6029F8001112402541C4F8091F3
:10210000AB1180FF38C0EAEFFDE184917F013FEF22
:10211000E31AF30A811102C0780104C00E944956F3
:10212000F701F3CFD7018D917D01882319F00E942B
:102130004956F8CF8AE00E9449566091B80670E08F
:1021400086E799E00E94C0495EEDE52E52E0F52E4B
:10215000F70181917F01882319F00E944956F8CF39
:102160008AE00E9449566EEB73E96F608EEB93E054
:10217000807F0E94BD5A81E090E090930606809394
:1021800005061092B7031092B6038FE380934005C3
:1021900010923F0510923E051092B2031092B303C5
:1021A0001092B4031092B503F80180810F5F1F4FA6
:1021B0008032D1F38E34B1F4818190ED980F9A3052
:1021C00020F08D3211F08B3269F43296DF013196B6
:1021D0002C9120532A30D0F3CD01FC0101962081AF
:1021E0002032D9F3F0930D06E0930C067F012FEF18
:1021F000E21AF20A10816AE270E0C7010E94A2A20C
:10220000009731F0FC01319780818032E1F3118237
:102210001D3429F0143519F0173409F0CBC0F7013B
:1022200080813FEFE31AF30A8032C9F380538A308A
:1022300008F0C0C01093400520913E0530913F0545
:102240004AE03196429FC001439F900D1124DF0167
:1022500011972C91022E000C330B20533109280FBB
:10226000391F808180538A3060F330933F0520937B
:102270003E05DF0131968C918032D9F31D34D1F4C3
:102280002E31310591F03CF42731310571F02C31BC
:10229000310581F40AC02537310564F0273731054F
:1022A00024F0203A43E0340729F4B093B703A09315
:1022B000B60380C01092B7031092B60300910C06CB
:1022C00061E070E0FD0131968C91882309F472C0C1
:1022D0008132A1F41D3491F42032310579F4F09368
:1022E000B703E093B60363E270E0CF010E94A2A2BD
:1022F000009709F45FC0DC011C925CC09FEBD92EF3
:10230000D80E49E1C42ECD14C0F1AF01FA0190817D
:102310004F5F5F4F9032D1F340ED490F4A3040F0AC
:1023200043ED490F423020F09B3211F00C94D2283B
:10233000AF01AD2CB12C750183E0F594E7948A953B
:10234000E1F7C7018E549C4F7C018D2D8770DB0116
:1023500002C0AA0FBB1F8A95E2F7CD01D7019C915D
:10236000892B8C934115510511F0401B01C040E0B1
:10237000D501A856BC4F4C930AC08091B6039091EA
:10238000B703892B21F4B093B703A093B6038081E0
:1023900081548A3110F4DF0195CFDF0131969C9191
:1023A00090539A30D0F3CD01FC0101964081403228
:1023B000D9F3F1CF809140058D3409F4C7C5843538
:1023C00011F40C946F28873411F00C94B1282091EB
:1023D0003E0530913F052D31310509F4F5C4DCF49B
:1023E0002430310544F4223031050CF047C037FF6A
:1023F00039C00C94CB282530310509F485C00CF484
:1024000046C02C31310511F00C94CB2880E00E949D
:10241000486C0C94CB282A32310509F493C58CF40E
:102420002332310509F4D4C42432310509F4D4C46B
:102430002E31310511F00C94CB280E94F58B0C94B1
:10244000CB282B35310509F4D0C42C35310509F4DE
:10245000D1C42A35310511F00C94CB281092BD035C
:102460000C94CB2880910202882311F40C94CB2881
:102470000E9462660E9437410C94CB2881E0223092
:10248000310509F080E00E94D6660C94CB2880E5E7
:102490000E949F5B882329F00E94FB556B017C0101
:1024A00003C0C12CD12C760183E50E949F5B882359
:1024B00061F00E940B5620E030E04AE754E40E94AD
:1024C000CDA70E94FCA06B017C010E9474420E9477
:1024D0003E5680910E0690910F06A0911006B09185
:1024E0001106C80ED91EEA1EFB1E0E94E994DC01EB
:1024F000CB018C199D09AE09BF09B7FD02C00C9430
:10250000CB280E94B139F1CF80910202882311F4C7
:102510000C94CB280E94626689E40E949F5B88230A
:1025200029F00E940B562B013C0103C0412C512C79
:1025300032018AE40E949F5B882329F00E940B5697
:102540004B015C0103C0812C912C540180E50E9459
:102550009F5B882329F00E940B566B017C0103C00E
:10256000C12CD12C760181E50E949F5B882339F034
:102570000E940B566BA37CA38DA39EA304C01BA239
:102580001CA21DA21EA2B0910406E796BFAFE7975A
:102590006091070270910802072E000C880B990BBE
:1025A0000E946EA720913702309138024091390283
:1025B00050913A020E94CDA72AE037ED43E25CE356
:1025C0000E94CDA7EB966CAF7DAF8EAF9FAFEB9720
:1025D0002091B1113091B2114091B3115091B411C9
:1025E0002FA338A749A75AA7A30192016FA178A5E5
:1025F00089A59AA50E94899F23966CAF7DAF8EAF67
:102600009FAF23974090B5115090B6116090B711CD
:102610007090B811A5019401C301B2010E94899F75
:1026200027966CAF7DAF8EAF9FAF27972091220684
:10263000309123064091240650912506C701B6012A
:102640000E94899F2B966CAF7DAF8EAF9FAF2B976B
:1026500020912606309127064091280650912906A0
:102660006BA17CA18DA19EA10E94899F2F966CAF2A
:102670007DAF8EAF9FAF2F97CFA0D8A4E9A4FAA4C7
:10268000C982DA82EB82FC824D825E826F8278861A
:102690000E94E9949B01AC0128533F4F4F4F5F4F7D
:1026A000E3962CAF3DAF4EAF5FAFE397BDEC8B2E03
:1026B000BCEC9B2EA92CBDE3BB2E1BA21FA21BA60C
:1026C0001CA60E94F6320E94E9948B019C01E396BD
:1026D000CCACDDACEEACFFACE3970C191D092E09B8
:1026E0003F0937FD0EC09B01AC0128533F4F4F4FB0
:1026F0005F4FE3962CAF3DAF4EAF5FAFE3970E94C5
:10270000B139A5019401BBA1AFA1FBA5ECA56B2F2D
:102710007A2F8F2F9E2F0E94899F2B011C0120E072
:1027200030E040E85FE30E94E9A1181634F4412C40
:10273000512CF0E82F2EAFE33A2E80912206909193
:102740002306A0912406B091250663968CAF9DAF19
:10275000AEAFBFAF6397C090B111D090B211E0900F
:10276000B311F090B4116796CCAEDDAEEEAEFFAE15
:1027700067973F922F925F924F926396ACACBDAC3D
:10278000CEACDFAC63972B96ECACFDAC0EAD1FADC1
:102790002B9723962CAD3DAD4EAD5FAD239767963D
:1027A0006CAD7DAD8EAD9FAD67970E94014A0F90D5
:1027B0000F900F900F9068AB7AAB8EAB9AAF2091D1
:1027C00026063091270640912806509129066B96DF
:1027D0002CAF3DAF4EAF5FAF6B978091B51190912D
:1027E000B611A091B711B091B811A7968CAF9DAF5B
:1027F000AEAFBFAFA7973F922F925F924F926B966B
:10280000ACACBDACCEACDFAC6B972F96ECACFDACFA
:102810000EAD1FAD2F9727962CAD3DAD4EAD5FADE4
:102820002797A7966CAD7DAD8EAD9FADA7970E9403
:10283000014A0F900F900F900F906BAF7CAF8DAF50
:102840009EAFC980DA80EB80FC80AB96CCAEDDAE6B
:10285000EEAEFFAEAB972D813E814F815885AF968E
:102860002CAF3DAF4EAF5FAFAF976C961FAE6C977E
:102870007BA16FA19BA58CA5272F362F492F582F01
:10288000642D752D822D932D0E94889F2FE632E1B5
:1028900043E05BE30E9467A787FF06C06C963FADED
:1028A0006C973111C6C1ACC1242D352D422D532D4D
:1028B000BBA1AFA1FBA5ECA56B2F7A2F8F2F9E2F6D
:1028C0000E94899F20E030E040E05FE30E94CDA7B6
:1028D0003B014C019F928F937F926F936396ACACB8
:1028E000BDACCEACDFAC63972B96ECACFDAC0EADC3
:1028F0001FAD2B9723962CAD3DAD4EAD5FAD23970D
:1029000067966CAD7DAD8EAD9FAD67970E94014A15
:102910000F900F900F900F90A0966FAFA097E49636
:102920007FAFE497E5968FAFE597E6969FAFE69782
:102930009F928F927F926F926B96ACACBDACCEACF7
:10294000DFAC6B972F96ECACFDAC0EAD1FAD2F97A7
:1029500027962CAD3DAD4EAD5FAD2797A7966CADDC
:102960007DAD8EAD9FADA7970E94014A0F900F904D
:102970000F900F905B018C0128A93AA94EA95AAD7E
:10298000AB966CAD7DAD8EAD9FADAB970E94899F30
:1029900020E030E040E05FE30E94CDA79B01AC0166
:1029A000A0966FADA097E4967FADE497E5968FADC6
:1029B000E597E6969FADE6970E94889F6B017C01A4
:1029C000E894F7F82BAD3CAD4DAD5EADAF966CAD78
:1029D0007DAD8EAD9FADAF970E94899F20E030E026
:1029E00040E05FE30E94CDA79B01AC01B501C801A7
:1029F0000E94889F9B01AC015F77C701B6010E94CE
:102A0000899F2DEC3CEC4CEC5DE30E9467A7181607
:102A10000CF044CFABAEBCAE0DAF1EAFA0964FAD29
:102A2000A09748ABE4965FADE4975AABE5968FADBF
:102A3000E5978EABE6969FADE6979AAF230114011A
:102A4000A1E06C96AFAF6C9713CFA7019601C701B9
:102A5000B6010E94899F9B01AC01BBA1AFA1FBA560
:102A6000ECA56B2F7A2F8F2F9E2F0E94899F962E79
:102A7000872E782E692E20E030E040E85FE3D40115
:102A8000F3016B2F7A2F8F2F9E2F0E94E9A187FFD2
:102A9000D0C06F927F928F929F926396ACACBDAC88
:102AA000CEACDFAC63972B96ECACFDAC0EAD1FAD9E
:102AB0002B9723962CAD3DAD4EAD5FAD239767961A
:102AC0006CAD7DAD8EAD9FAD67970E94014A0F90B2
:102AD0000F900F900F906C966FAF6C97A0967FAF92
:102AE000A097E4968FAFE497E5969FAFE5976F9236
:102AF0007F928F929F926B96ACACBDACCEACDFACAC
:102B00006B972F96ECACFDAC0EAD1FAD2F972796B3
:102B10002CAD3DAD4EAD5FAD2797A7966CAD7DADAD
:102B20008EAD9FADA7970E94014A0F900F900F9016
:102B30000F905B018C016C962FAD6C97A0963FAD0A
:102B4000A097E4964FADE497E5965FADE597AB9619
:102B50006CAD7DAD8EAD9FADAB970E94899F20E09F
:102B600030E040E05FE30E94CDA79B01AC0168A983
:102B70007AA98EA99AAD0E94889F6B017C01E89486
:102B8000F7F89501A801AF966CAD7DAD8EAD9FAD08
:102B9000AF970E94899F20E030E040E05FE30E9411
:102BA000CDA79B01AC016BAD7CAD8DAD9EAD0E9400
:102BB000889F9B01AC015F77C701B6010E94899F86
:102BC0002DEC3CEC4CEC5DE30E94E9A118168CF175
:102BD000ABAEBCAE0DAF1EAF6C96BFAD6C97B8ABD5
:102BE000A096EFADA097EAABE496FFADE497FEABFD
:102BF000E596CFACE597CAAE492C582C272C362C3D
:102C00007BA16FA19BA58CA5272F362F492F582F6D
:102C1000642D752D822D932D0E94889F6B017C0160
:102C20002DEC3CEC4CEC5DE30E94E9A118160CF095
:102C30000CCF7BA16FA19BA58CA5272F362F492FE9
:102C4000582F642D752D822D932D0E94889F4B0146
:102C50005C0188A99AA9AEA9BAAD89839A83AB838E
:102C6000BC838BAD9CADADADBEAD8D839E83AF837C
:102C7000B887242D352D422D532D60E070E080E87B
:102C80009FE30E94889F6B017C012091B9113091D4
:102C9000BA114091BB115091BC110E94CDA76BA3FA
:102CA0007CA38DA39EA320912A0630912B064091F0
:102CB0002C0650912D06642D752D822D932D0E948A
:102CC000CDA79B01AC016BA17CA18DA19EA10E940F
:102CD000899F69877A878B879C872091BD11309166
:102CE000BE114091BF115091C011C701B6010E94A1
:102CF000CDA76B017C0120912E0630912F064091CB
:102D0000300650913106642D752D822D932D0E9431
:102D1000CDA79B01AC01C701B6010E94899F6D87B9
:102D20007E878F87988BCE0101960E944D9789816F
:102D30009A81AB81BC818E8B9F8BA88FB98F8D813F
:102D40009E81AF81B8858A8F9B8FAC8FBD8F89851F
:102D50009A85AB85BC858E8F9F8FA8A3B9A3AE0142
:102D6000425E5F4FBE01665E7F4FCE0146960E9477
:102D70004C83E796CFACE797EB96ECACFDAC0EAD91
:102D80001FADEB979E01235F3F4FAE01425E5F4F49
:102D9000BE01665E7F4FCE0146960E94947620E08B
:102DA00030E040E85FE3642D752D822D932D0E9465
:102DB00067A787FF05C04BA25FA22BA63CA681CCCC
:102DC0000E94A76A0C94CB280E942F8D0C94CB28CC
:102DD0000E94CB530C94CB2881E00E94486C0E9447
:102DE000CB530E942F8D0C94CB2881E08093BD03A0
:102DF0000C94CB2885E40E949F5BB82E811102C001
:102E00000E9474426FE5862E62E0962E71EBC72E0B
:102E100071E1D72EE6E1EE2EE6E0FE2E00E010E0B6
:102E2000A12CD4018D914D010E949F5B8823F1F16B
:102E3000F6012081318142815381EC962FAFEC97CE
:102E4000ED963FAFED97EE964FAFEE97EF965FAFF3
:102E5000EF970E940B56D6016D937D938D939C93B3
:102E60001397EC962FADEC97ED963FADED97EE9660
:102E70004FADEE97EF965FADEF9703301105B1F0D0
:102E80000E94889F9B01AC01F70160817181828162
:102E900093810E94899FD7016D937D938D939C931D
:102EA0001397C8010E94906EAA24A3940F5F1F4F2E
:102EB000B4E0CB0ED11CE4E0EE0EF11C04301105A1
:102EC00009F0AFCFAA2019F00E94B45537C0BB203B
:102ED000A9F1C090BD11D090BE11E090BF11F0904B
:102EE000C0112091EA063091EB064091EC0650911A
:102EF000ED06C701B6010E94CDA70E94F6A160931E
:102F00006F12709370128093711290937212C701B6
:102F1000B6010E94F5A02FB7F89460935305709303
:102F2000540580935505909356052FBF10925F125C
:102F30001092601210926112109262120E945886D2
:102F40000C94CB280E94CC520C94CB2880913E0547
:102F500090913F058B39910509F4C1C50CF0ABC0C8
:102F60008C35910509F48EC60CF05EC08B3491054A
:102F700009F485C25CF58231910509F431C6CCF4BF
:102F800097FF02C00C94CB28823091050CF45DC1F0
:102F9000419711F00C94CB285F988A989FB7F894CA
:102FA000809108018E7F809308019FBF12980C9436
:102FB000CB288A32910509F41EC28033910509F4A9
:102FC0005AC24F9711F00C94CB2843C1823591051A
:102FD00009F4FDC5ECF48D34910509F46EC20CF4CE
:102FE00052C28135910511F00C94CB280E94963085
:102FF0000E9474420E946F391092A6111092A5117E
:1030000068EE73E080E090E00E94BF330C94CB2820
:103010008435910509F4E4C50CF4DDC585359105C9
:1030200009F415C60C94CB288F36910509F4A9C470
:10303000ECF48A36910509F499C564F48836910553
:1030400009F45DC40CF02EC58436910509F439C22B
:103050000C94CB288D36910509F46CC50CF07EC418
:103060008B36910509F4A1C50C94CB2886379105C0
:1030700009F429C774F48237910509F48CC68337A3
:10308000910509F48EC68137910511F00C94CB2877
:10309000C6C48837910511F40C941E200CF44AC75D
:1030A0008937910511F40C9425208C38910509F489
:1030B000E2C40C94CB288336F1E09F0711F40C9402
:1030C0005C280CF05DC08C3D910511F40C94072137
:1030D00044F58C3C910511F40C94B7208CF4893C98
:1030E000910511F40C9475208B3C910511F40C940E
:1030F0009820883C910511F00C94CB280C942B203F
:103100008E3C910511F40C94BF2014F40C94BB2058
:10311000833D910511F00C94CB280E94EF840C9410
:10312000CB288C3231E0930711F40C94292194F4CC
:10313000823E910511F40C9426218E3051E09507C2
:1031400011F40C946D228D3D910511F00C94CB2857
:103150000C940B218E32A1E09A0711F40C94A0225A
:1031600014F40C9452218F32E1E09E0711F40C9478
:10317000F4228033914011F40C94F0210C94CB286C
:10318000853F21E0920711F40C94D2277CF5843A14
:1031900041E0940711F40C940426ACF48139A1E0C9
:1031A0009A0711F40C94FC258239B1E09B0711F4C5
:1031B0000C9400268039914011F00C94CB280E9489
:1031C00074420C94CB288C3AF1E09F0711F40C94D4
:1031D000EF26843F21E0920711F40C94CF27853A23
:1031E000914011F00C94CB280C945C268B3843E072
:1031F000940711F40C944B2894F4873FA1E09A07AC
:1032000011F40C94D82714F40C94D52783359340EB
:1032100011F00C94CB28EAEFFDE10C94E6278D38F1
:10322000F3E09F0711F40C94512814F40C944E28E9
:103230008E3833E0930711F40C945428873E934062
:1032400011F40C945F280C94CB280E941F520C940C
:10325000CB288091931290919412019719F40E94B7
:10326000E99408C060919D1270919E1280919F1206
:103270009091A0120091991210919A1220919B1294
:1032800030919C12601B710B820B930B28EE33E084
:1032900040E050E00E945BAB8091951290919612B5
:1032A000A0919712B0919812BC01CD01620F731FCB
:1032B000841F951F5CE3C52ED12CE12CF12CA701B6
:1032C00096010E945BAB762E672ECA01B901A70159
:1032D00096010E945BAB6B017C01CA01B90128E138
:1032E00030E040E050E00E945BAB4B015C01C90163
:1032F0006DE671E00E94589F8E010F5F1F4F6115B0
:10330000710599F06F927F92DF92CF929F928F9288
:103310009F938F937F936F9382EB92E09F938F9312
:103320001F930F930E9437A726C0009789F06F92D2
:103330007F92DF92CF929F928F929F938F9382EA98
:1033400092E09F938F931F930F930E9437A713C010
:1033500081149104A104B104B1F06F927F92DF92C5
:10336000CF929F928F9286E992E09F938F931F93C3
:103370000F930E9437A70FB6F894DEBF0FBECDBFE4
:10338000EAEFFDE123C0C114D104E104F10469F0C6
:103390006F927F92DF92CF928EE892E09F938F930D
:1033A0001F930F930E9437A7E6CF6F927F928AE810
:1033B00092E09F938F931F930F930E9437A70F90D4
:1033C0000F900F900F900F900F90DACF84917F01A4
:1033D0003FEFE31AF30A882321F00E944956F701D0
:1033E000F5CFB80186EC92E00E94D9498AE00E94AC
:1033F00049560C94CB2883E50E949F5B882311F4E7
:103400000C94CB280E944C5BE82E80E50E949F5BC9
:10341000882311F40C94CB280E943C5B162FC62EF7
:10342000D72ED7FE02C00C94CB28E3EDF2E088E261
:103430008E0F9491191729F031968E13FACF0C94B0
:10344000E328EDECFDE184918F010F5F1F4F88238E
:1034500021F00E944956F801F6CFEBEFF2E084919B
:103460008F010F5F1F4F882311F40C94CB280E940B
:103470004956F801F4CF0E94784C0C94CB280E9456
:10348000BE880C94CB28809193129091941201974E
:1034900011F00C94CB2882E090E0909394128093EA
:1034A00093120E94E99460939D1270939E128093F0
:1034B0009F129093A0120C94CB280E9469870C94C1
:1034C000CB2880917113909172130E949A8367E2C6
:1034D00072E08BE095E00E94D94987E793E10E9472
:1034E0009A8367E272E08DEF94E00E94D949C09020
:1034F0007113D0907213C114D10421F447E7C42E84
:1035000043E1D42EC6010E949A8367E272E085EE01
:1035100094E00E94D9497E0143E2E40EF11CC70108
:103520000E949A8367E272E083ED94E00E94D94999
:103530008AE00E9449568091000281110C94F9287A
:1035400089E40E94705B81110C94F92884E40E9444
:10355000705B882331F0B701C6010E94BD5A0C94FC
:10356000CB2886E40E94705B882309F465C1EC18BF
:10357000FD08A12CB12C212C312C412C512C66247E
:103580006A94762CAE14BF04CCF546018A0C9B1CC1
:10359000D4018C91853E71F5F40100E010E0819139
:1035A000853E31F001501109093011051CF107C0A9
:1035B0000F5F1F4F0115BDE71B0789F71BC0B8013F
:1035C00086E994E00E94C049C4010E949A8367E2A0
:1035D00072E086E894E00E94D9498AE00E94495648
:1035E0006016710614F414013801A00EB11EEFEF3D
:1035F0004E1A5E0AFFEFAF1ABF0AC4CF22E042168E
:103600005104ECF0E4E5F4E084918F010F5F1F4F6B
:10361000882321F00E944956F801F6CFB3018CE3CC
:1036200094E00E94C049C1010E949A8367E272E05F
:1036300081E394E00E94D9498AE00E94495600EF54
:1036400012E0D8018D918D01882319F00E9449560E
:10365000F8CFC0907113D0907213C114D10421F42B
:1036600027E7C22E23E1D22E8E01095E1F4F58019B
:10367000AC18BD08B50181E094E00E94C04981E723
:1036800093E10E949A8367E272E084EF93E00E94E4
:10369000D94980917113909172130E949A8367E2C5
:1036A00072E082EF93E00E94D94987E793E10E949C
:1036B0009A8367E272E085EE93E00E94D949C801DF
:1036C0000E949A8367E272E080EE93E00E94D949FB
:1036D0000C151D0528F5E4EDF3E084918F010F5FD3
:1036E0001F4F882321F00E944956F801F6CF64E16C
:1036F00070E080E090E00E94BF3308EF12E0F80134
:1037000081918F01882319F00E944956F8CF8AE0F1
:103710000E9449566FEF71E280E89BE10E94BD5A1A
:10372000812C912CE12CF12C8A149B04BCF5F60120
:10373000E80DF91D8081853E69F580E090E02191DA
:10374000253EC1F08C01015011090930110514F119
:10375000800E911E3FEFE31AF30AB70181ED93E06B
:103760000E94C049B80188EC93E00E94C049E4EC93
:10377000F3E006C0019681152DE7920701F70AC014
:1037800084918F010F5F1F4F882321F00E944956BB
:10379000F801F6CF4FEF841A940AC6CF6701B7013C
:1037A00085EB93E00E94C04951E0E516F10431F445
:1037B0008091711390917213892B81F003E813E0CB
:1037C000F8018491882329F00F5F1F4F0E9449560A
:1037D000F7CFEF2819F4CC24CA94DC2CEAE7F3E005
:1037E00084918F010F5F1F4F882321F00E9449565B
:1037F000F801F6CFF1E0CF16D10449F480E30E943E
:1038000049568AE00E94495660E070E00CC004E727
:1038100013E0F8018491882329F00F5F1F4F0E9465
:103820004956F7CFB6018BE094E00E94C0498AE088
:103830000E9449560C94CB2883E40E94705B882335
:1038400011F40C94CB280E943C5B7B019E012C1947
:103850003D093A956F5F7F4FC9010E94589F8B01C8
:10386000E3EBF4E084915F012FEFA21AB20A811119
:1038700008C0C8010896C80ED91EAA24A394B12C6A
:1038800004C00E944956F501EDCFEA14FB0490F103
:10389000D601AC92C6010E949A8367E272E08DE97C
:1038A00094E00E94D949BFEFAB1ABB0AC00ED11EEB
:1038B000ECCF8091AB11882309F4A4C008E1C02E9D
:1038C00005E0D02EE12CF12C20E08091AB1190E0AE
:1038D0000E2C02C0959587950A94E2F780FD7AC078
:1038E000FFEFEF1AFF0A32E0C30ED11C45E0E416E9
:1038F000F10459F78AE00E9449560C94CB2888E6D7
:1039000090E00E94E86E81110C94CB288091AB115D
:1039100083FF02C00C94CB2883E50E949F5B882321
:10392000C9F00E940B560E94F5A070936F0560933A
:103930006E0580E00E944B300E940B5620E030E084
:103940004AEA52E40E9467A7181614F00E94698799
:103950000E940B560E94B29C0C94CB288EE40E94CD
:103960009F5B882311F40C94CB280E943C5B6093EE
:103970003D1370933E1380933F13909340130C9428
:10398000CB2883E50E94705B882359F083E50E9471
:103990009F5B882319F00E944C5B01C080E08093FC
:1039A000AB11EAEFFDE184918F010F5F1F4F882378
:1039B00021F00E944956F801F6CFE6E2F5E0849145
:1039C0008F010F5F1F4F882309F473CF0E94495660
:1039D000F801F5CFBB24B394B20E222319F08CE288
:1039E0000E944956F60125913491F901849189018B
:1039F0000F5F1F4F882321F00E9449569801F5CF91
:103A00002B2D6ECFE2E2F5E084918F010F5F1F4F07
:103A1000882309F46FCF0E944956F801F5CF83E55A
:103A20000E949F5B882369F00E944C5B809309028F
:103A30008D3310F40C94CB288CE3809309020C9402
:103A4000CB28EAEFFDE184918F010F5F1F4F8823A0
:103A500021F00E944956F801F6CF4091090250E04A
:103A600060E070E08DE295E00E9469498AE00E9482
:103A700049560C94CB288091AB1183FF02C00C9463
:103A8000CB2883E50E949F5B882311F40C94CB28FC
:103A90000E940B560E94F5A070936C0560936B0515
:103AA0000C94CB2889E690E00E94E86E811111C049
:103AB000E4E3F5E084918F010F5F1F4F882321F02D
:103AC0000E944956F801F6CF0E9417878AE00E94AB
:103AD000495610920606109205060C941F2C83E599
:103AE0000E949F5B882311F40C94CB280E944C5BAE
:103AF00080930B068D3318F08CE380930B060E94A5
:103B0000E9946B017C0120910B0630E0A8EEB3E054
:103B10000E94AFABDC01CB018C0D9D1DAE1DBF1D06
:103B20008093070690930806A0930906B0930A06AF
:103B30000C94CB288DE690E00E94E86E81110C94E5
:103B4000CB288091AB1183FF02C00C94CB2883E576
:103B50000E949F5B8BA781110C94622982E50E94D1
:103B60009F5B81110C9462290C94CB2883E50E9401
:103B70009F5B882339F00E943C5B8B016F3F71058E
:103B800019F010F00FEF10E080E50E949F5B8111AB
:103B900006C01093A6110093A5110C94CB280E9487
:103BA0004C5B81110C94CB28F4CF80E50E949F5B85
:103BB000811106C01092A6111092A5110C94CB2869
:103BC0000E943C5B672B11F00C94CB28F3CF109232
:103BD000BC030C94CB2881E08093BC030C94CB28CD
:103BE00083E50E949F5B8823A1F00E940B5620E092
:103BF00030E04AE754E40E94CDA70E94FCA0609305
:103C00000A0270930B0280930C0290930D020C94A5
:103C1000CB2888E50E94705B81110C94962A89E577
:103C20000E94705B81110C94962A8AE50E94705B59
:103C300081110C94962A85E40E94705B81110C948A
:103C4000962A0E9474420E946F390C94CB2883E517
:103C50000E94705B882311F40C94CB280E940B56B1
:103C600020E030E04AE754E40E94CDA70E94FCA087
:103C700060931206709313068093140690931506B2
:103C80000C94CB28FFE5CF2EF2E0DF2EAEEDEA2E2E
:103C9000A6E0FA2E10E0D6018D916D010E94705BB6
:103CA000882309F46DC0133009F063C00E940B56DD
:103CB0004B015C0120E030E040EA51E40E9467A73C
:103CC00087FF4EC0A50194016091EA067091EB0652
:103CD0008091EC069091ED060E9483A02B013C019F
:103CE0009B01AC016091791170917A1180917B11E7
:103CF00090917C110E94CDA76093791170937A11F5
:103D000080937B1190937C11A30192016091951196
:103D10007091961180919711909198110E94CDA762
:103D200060939511709396118093971190939811C9
:103D30006091CA067091CB068091CC069091CD0619
:103D40000E946CA7A30192010E94CDA70E94FCA033
:103D50006093CA067093CB068093CC069093CD06F1
:103D60008092EA069092EB06A092EC06B092ED06E5
:103D700007C00E940B56F70160837183828393838F
:103D80001F5FF4E0EF0EF11C143009F084CF0E94A5
:103D9000054C0C94CB280E9474420E9458860C94C7
:103DA000CB28E6E1F6E084918F010F5F1F4F882357
:103DB00021F00E944956F801F6CFE8E0F6E0849140
:103DC0008F010F5F1F4F882321F00E944956F80191
:103DD000F6CFE1EFF5E084918F010F5F1F4F88234D
:103DE00021F00E944956F801F6CFE1EEF5E084910A
:103DF0008F010F5F1F4F882321F00E944956F80161
:103E0000F6CFE0EDF5E084918F010F5F1F4F88231F
:103E100021F00E944956F801F6CFEFEBF5E08491CE
:103E20008F010F5F1F4F882321F00E944956F80130
:103E3000F6CFE0EBF5E084918F010F5F1F4F8823F1
:103E400021F00E944956F801F6CFEBE9F5E08491A4
:103E50008F010F5F1F4F882321F00E944956F80100
:103E6000F6CFE5E8F5E084918F010F5F1F4F8823BF
:103E700021F00E944956F801F6CFE0E7F5E0849181
:103E80008F010F5F1F4F882321F00E944956F801D0
:103E9000F6CFE3E5F5E084918F010F5F1F4F882394
:103EA00021F00E944956F801F6CFEBE3F5E084914A
:103EB0008F010F5F1F4F882311F40C94CB280E94B1
:103EC0004956F801F4CF85E40E94705B882381F0A5
:103ED0000E94605B882361F0EAEFFDE184918F012D
:103EE0000F5F1F4F882321F00E944956F801F6CF3B
:103EF00081E40E94705B882381F00E94605B8823CC
:103F000061F0EAEEF6E084918F010F5F1F4F882386
:103F100021F00E944956F801F6CF0091B6031091A6
:103F2000B703D8018D918D01882309F4E3CC0E9459
:103F30004956F7CFEEE0F7E084918F010F5F1F4FF6
:103F4000882321F00E944956F801F6CFE6E0F7E019
:103F500084918F010F5F1F4F882321F00E944956E3
:103F6000F801F6CF659903C00FEB12E002C004EC34
:103F700012E0F80181918F01882319F00E944956BF
:103F8000F8CF8AE00E944956EEEFF6E084918F0167
:103F90000F5F1F4F882321F00E944956F801F6CF8A
:103FA0008091030181FD03C00FEB12E002C004EC1D
:103FB00012E0D8018D918D01882319F00E94495695
:103FC000F8CF8AE00E944956E6EFF6E084918F012F
:103FD0000F5F1F4F882321F00E944956F801F6CF4A
:103FE0004A9903C00FEB12E002C004EC12E0F801A2
:103FF00081918F01882319F00E944956F8CF8AE0F9
:104000000E944956EEEEF6E084918F010F5F1F4F3C
:10401000882321F00E944956F801F6CF4B9903C03E
:104020000FEB12E002C004EC12E0D8018D918D017B
:10403000882309F45FCC0E944956F7CF81E0809332
:104040005906809351110C94CB2810925906109266
:1040500051110C94CB2888EC90E00E94E86E8111FD
:104060000C94CB2884E40E94705B8823D1F10E94D9
:104070000B5611E020E030E0A9010E9467A78111F2
:1040800001C010E010936811112359F10091B80399
:1040900010E00E940B56000F111F000F111FF801B6
:1040A000EC59FE4E608371838283938320E030E07D
:1040B000A9016091641170916511809166119091D0
:1040C00067110E9467A781110CC080E090E0A0EE0C
:1040D000BFE38093641190936511A0936611B09330
:1040E00067110E94F73C0C94CB286EECE62E66E03C
:1040F000F62E0FE512E074E0D72ED00EF801819174
:104100008F010E94705B882351F00E940B560E9421
:10411000FCA0D7016D937D938D939C931397B4E08E
:10412000EB0EF11CD012EACF0E94D84A0C94CB2897
:1041300049E8E42E41E1F42E0FE512E054E0D52EDB
:10414000D00EF80181918F010E94705B882341F0AD
:104150000E940B56D7016D937D938D939C9313977B
:10416000B4E0EB0EF11CD012ECCF0C94CB280E94E3
:10417000EF850C94CB280E9485850C94CB289FE575
:10418000A92E92E0B92E21EBC22E21E1D22E3BE8DE
:10419000E32E36E0F32E00E010E0F50181915F019F
:1041A0000E94705B882311F10E940B562B013C0189
:1041B000D7012D913D914D915C910E94889F9B016B
:1041C000AC01F60160817181828193810E94899F97
:1041D000D6016D937D938D939C931397F701408245
:1041E000518262827382C8010E94906E0F5F1F4FDE
:1041F000F4E0CF0ED11C24E0E20EF11C03301105D7
:1042000061F60E94B4550E9458860C94CB280E94F7
:10421000E3840C94CB288DED90E00E94E86E811130
:104220000C94CB2883E50E949F5B882311F40C94A7
:10423000CB280091B80310E00E943C5B000F111FD7
:10424000F801E05DFD4F71836083A5C70E948884FB
:10425000A2C783E50E949F5B882319F00E943C5B04
:1042600002C064E071E07F8B6E8B80E50E949F5BF3
:10427000882339F00E943C5B693833E1730730F4DE
:1042800002C068EE73E07A83698304C088E893E132
:104290009A838983BE016A5E7F4FCE0101960E9498
:1042A0001D9379C785E40E949F5B811110C080E552
:1042B0000E94705B882391F00E940B5660935B050F
:1042C00070935C0580935D0590935E0507C00E9426
:1042D0004C5B882361F3EDECFDE171C089E40E9441
:1042E000705B882381F00E940B562CEA35EC47E284
:1042F0005EE30E94CDA760935705709358058093A5
:10430000590590935A0584E40E94705B882381F0DC
:104310000E940B562CEA35EC47E25EE30E9483A034
:1043200060935F05709360058093610590936205CB
:10433000EAEFFDE184918F010F5F1F4F882321F089
:104340000E944956F801F6CF40915B0550915C05FB
:1043500060915D0570915E0580E397E00E94A3493E
:104360002CEA35EC47E25EE3609157057091580501
:104370008091590590915A050E9483A0AB01BC0120
:104380008CE297E00E9486492CEA35EC47E25EE336
:1043900060915F0570916005809161059091620563
:1043A0000E94CDA7AB01BC0188E297E00E9486493C
:1043B0008AE00E944956EFC60E944956F80184914E
:1043C0008F010F5F1F4F8111F7CF04E213E0D80177
:1043D0008D918D01882309F48DCA0E944956F7CF2B
:1043E00080E50E94705B882351F00E940B56609319
:1043F000601170936111809362119093631189E44D
:104400000E94705B882381F00E940B562CEA35ECE9
:1044100047E25EE30E94CDA760935C1170935D114B
:1044200080935E1190935F1184E40E94705B8823F7
:1044300081F00E940B562CEA35EC47E25EE30E94C5
:1044400083A0609358117093591180935A119093DF
:104450005B11EAEFFDE184918F010F5F1F4F88230D
:1044600021F00E944956F801F6CF40916011509119
:10447000611160916211709163118CE397E00E9469
:10448000A3492CEA35EC47E25EE360915C11709140
:104490005D1180915E1190915F110E9483A0AB012C
:1044A000BC0188E397E00E9486492CEA35EC47E29C
:1044B0005EE3609158117091591180915A11909159
:1044C0005B110E94CDA7AB01BC0184E397E00E9481
:1044D00086498AE00E9449565EC680917B008860CA
:1044E00080937B0081E480937C0080917A008064DB
:1044F00080937A0080917A0086FDFCCF60917800ED
:104500008091790070E0782B072E000C880B990BB6
:104510000E946EA722EC35EF48E25FE30E9483A081
:104520002CEA35EC47E257E30E94899FAB01BC01BE
:1045300080E497E00E9486498AE00E9449562BC693
:1045400083E50E94705B182F882371F00E940B5640
:104550000E94F5A070932F0260932E0221E0672B3A
:1045600009F020E020936C1180E50E94705B8823A5
:1045700059F020912E0230912F02232B11F00E942E
:10458000605B80936C1107C6111105C6EAEFFDE16F
:1045900084918F010F5F1F4F882321F00E9449569D
:1045A000F801F6CF80916C11811103C06EEC72E0BE
:1045B00002C061EC72E08FE597E00E94D9496091FA
:1045C0002E0270912F028EE497E00E94C049EAE427
:1045D000F7E084918F010F5F1F4F882309F4DBC53B
:1045E0000E944956F801F5CF85E40E949F5B88231D
:1045F00021F00E943C5B1B0102C0212C312C83E482
:104600000E949F5B882339F00E943C5BE1967FAF5C
:104610006EAFE19706C0E5E0F0E0E196FFAFEEAFE8
:10462000E19785E50E94705BA4968FAFA4978823DD
:1046300029F00E94605BA4968FAFA49737FC07C057
:10464000C12CD12CB6E1EB2EB3E4FB2E06C0C12C5D
:10465000D12CACE8EA2EA2E4FA2E83E50E949F5BFF
:10466000882321F00E940B566B017C012114310438
:1046700011F41092B8030E94E9942B013C01DC0173
:10468000CB018C53964FAF4FBF4F809363059093F0
:104690006405A0936505B0936605C1010196029774
:1046A00018F405E313E00BC008E413E0D8018D9182
:1046B0008D01882309F41EC90E944956F7CFF801DD
:1046C00081918F01882319F00E944956F8CF8AE022
:1046D0000E9449560E9496308FE7FFEF2F163F0643
:1046E00019F48093720502C080937305C701B60167
:1046F0000E94F5A0072E000C880B990B0E946EA754
:104700006AAF7BAF8CAF9DAF81E080930102AF9623
:104710004CAE5DAE6EAE7FAEAF97A3964CAE5DAEC7
:104720006EAE7FAEA3971EAE20E42FAF3CE1249681
:104730003FAF249746E428964FAF28972C961FAE9C
:104740002C9760961FAE609764961FAE649768962C
:104750001FAE68971EAA1FAA18AE19AE1AAA1BAAE6
:104760001CAA1DAAC12CD12C7601FFE78F2E912CFB
:10477000A12CB12C8FE790E0A0E0B0E08CA79DA722
:10478000AEA7BFA76F961CAE1DAE1EAE1FAE6F9735
:1047900091E0A8969FAFA89719AA18AA1FA21BA6D6
:1047A00000E010E080910102882309F41EC20E94FB
:1047B000E9946BA37CA38DA39EA3809170058823AD
:1047C00009F4F4C00E94AC30AFEF2A163A0659F44F
:1047D000B0916705BFA3E0916805EBA7009169055B
:1047E00010916A050AC0F0917505FFA32091760526
:1047F0002BA700917705109178052FA13BA5A80163
:104800002C966FAD2C9760967FAD609764968FADB8
:10481000649768969FAD68970E9467A787FF0EC050
:104820003FA12C963FAF2C974BA560964FAF60975A
:1048300064960FAF649768961FAF68972FA13BA54A
:10484000A8016EAD7FAD24968FAD249728969FADBD
:1048500028970E94E9A1181654F45FA15EAF8BA5BA
:104860008FAF24960FAF249728961FAF289780917B
:10487000630590916405A0916505B09166052BA133
:104880003CA14DA15EA1281B390B4A0B5B0B57FDC8
:1048900012C00E948B328BA19CA1ADA1BEA18C53F2
:1048A000964FAF4FBF4F8093630590936405A093DD
:1048B0006505B0936605A8963FADA8972AAD33234A
:1048C00009F454C03BAD4CAD5DAD6FA17BA5C801F3
:1048D0000E94E9A118160CF069C04BA15CA16DA162
:1048E0007EA14419550966097709DB01CA01885878
:1048F0009341A109B109B7FD59C08CA59DA5AEA5ED
:10490000BFA588199909AA09BB09B595A7959795D7
:104910008795EFEF2E163E0619F48093720502C0BC
:10492000809373056F964CAF5DAF6EAF7FAF6F979F
:10493000FAAD2C96FFAF2C972BAD60962FAF6097FA
:104940003CAD64963FAF64974DAD68964FAF6897A6
:104950008BA19CA1ADA1BEA1AF968CAF9DAFAEAF18
:10496000BFAFAF97A8961FAEA89720C03BAD4CAD88
:104970005DAD6FA17BA5C8010E9467A787FF16C028
:104980008BA19CA1ADA1BEA1AF962CAD3DAD4EAD0E
:104990005FADAF97821B930BA40BB50BAC01BD01B0
:1049A000485853416109710977FFEAC520E030E0BA
:1049B00040EA51E46AAD7BAD8CAD9DAD0E94899F0C
:1049C0009B01AC016FA17BA5C8010E94E9A118164B
:1049D0006CF4EFE2F8E084918F010F5F1F4F8823A2
:1049E00009F4D9C30E944956F801F5CF80E398EF46
:1049F000AFEFBFEFA3962CAD3DAD4EAD5FADA3972E
:104A0000821B930BA40BB50B2BA13CA14DA15EA166
:104A1000820F931FA41FB51FB7FD0FC00E941787F9
:104A20008AE00E9449568BA19CA1ADA1BEA1A3968C
:104A30008CAF9DAFAEAFBFAFA3978BA19CA1ADA133
:104A4000BEA1880F991FAA1FBB1FAF962CAD3DAD0D
:104A50004EAD5FADAF97821B930BA40BB50B8419C2
:104A60009509A609B70981389F44A241B10568F0AC
:104A7000E1E1F8E084918F010F5F1F4F882309F473
:104A80008AC30E944956F801F5CF48A959A9E19671
:104A90008EAD9FADE197841795070CF083CEE4EBC4
:104AA000F7E084918F010F5F1F4F882321F00E9450
:104AB0004956F801F6CF9FEF2916390619F003E29F
:104AC00013E002C002ED12E0B80182EA97E00E9412
:104AD000D949B701A6018EE997E00E94A3498AE06F
:104AE0000E944956B8018CE897E00E94D9494AA92A
:104AF0005BA96CA97DA988E897E00E94A3498AE098
:104B00000E944956B80186E797E00E94D9494EA90C
:104B10005FA968AD79AD82E797E00E94A3498AE07A
:104B20000E944956A496AFADA497AA2309F433C3B3
:104B30002320209469F5C0926011D0926111E09217
:104B40006211F09263112CEA35EC47E25EE36AA948
:104B50007BA98CA99DA90E94CDA760935C1170933D
:104B60005D1180935E1190935F112CEA35EC47E262
:104B70005EE36EA97FA988AD99AD0E9483A0609382
:104B800058117093591180935A1190935B1103C37C
:104B9000C0925B05D0925C05E0925D05F0925E05E7
:104BA0002CEA35EC47E25EE36AA97BA98CA99DA9B2
:104BB0000E94CDA7609357057093580580935905BF
:104BC00090935A052CEA35EC47E25EE36EA97FA983
:104BD00088AD99AD0E9483A060935F0570936005D6
:104BE0008093610590936205D6C280910102811184
:104BF000D2C20E949630CFC281E00E94FD6DCBC22E
:104C000080E00E94FD6DC7C286E50E94705B88232C
:104C100041F080914D1190914E11892B11F00E941D
:104C2000E29C83E50E94705B182F882319F00E9494
:104C3000605B182F83E50E94705B882319F0812F39
:104C40000E94DB69F0906B11111103C0EAEFFDE1E6
:104C50001AC0F110FBCFEDECFDE184918F010F5FE5
:104C60001F4F882321F00E944956F801F6CFE1EB4F
:104C7000F8E084918F010F5F1F4F882339F30E9462
:104C80004956F801F6CF84918F010F5F1F4F88239B
:104C900021F00E944956F801F6CFF11003C06AEDE9
:104CA00072E002C066ED72E083EA98E00E94D949A2
:104CB0008AE00E9449566FC289E40E949F5B882364
:104CC00021F00E943C5B062F01C00FEF8AE40E9496
:104CD0009F5B882321F00E943C5B162F01C01FEFD1
:104CE0008AE50E94705BF82E811105C081E50E9463
:104CF000705BD82E01C0D12C07FD02C017FF03C086
:104D0000EDECFDE105C0F1101AC0D11018C0F8CFCC
:104D100084918F010F5F1F4F882321F00E94495615
:104D2000F801F6CFEFEEF8E084918F010F5F1F4F8F
:104D3000882309F430C20E944956F801F5CF0330A8
:104D400018F0EDECFDE106C01330D8F716C00E9454
:104D50004956F80184918F010F5F1F4F8111F7CFE2
:104D6000E0EDF8E084918F010F5F1F4F882309F475
:104D700012C20E944956F801F5CFE02E000FFF083D
:104D8000012F110F110B0E940B56D701AA0FBB1F49
:104D9000DD2081F0FD01EE0DFF1DE00FF11FEE0F94
:104DA000FF1FEE0FFF1FE85EFD4E20813181428123
:104DB000538103C020E030E0A901EA0EFB1E0E0D76
:104DC0001F1D000F111F000F111F085E1D4E0E94B6
:104DD000899FF8016083718382839383DCC18BE8B0
:104DE000C82E86E0D82E91EBE92E91E1F92E20E431
:104DF000222E22E1322E00E010E0910120543241B7
:104E00003CA32BA3D1018D911D01882309F49AC0E5
:104E1000F7014080518062807380F801E15CFD4FB2
:104E20002081318142815381F801EF5BFC4E60812A
:104E30007181828193810E94899F20E030E040E06F
:104E40005FE30E94CDA79B01AC01C301B2010E94A8
:104E5000E9A1181644F4F801E05BF34F85909590B2
:104E6000A590B49003C0812C912C5401F801EF530C
:104E7000FE4E2081318142815381C301B2010E94E3
:104E8000889F9B01AC01C501B4010E94889F4B0122
:104E90005C0120E030E040EA51EC0E94E9A187FD8E
:104EA00029C020E030E040EA51E4C501B4010E948D
:104EB00067A71816FCF0D6012D913D914D915C919C
:104EC000C501B4010E94889F9B01AC01C301B201DE
:104ED0000E94899FF7016083718382839383D60147
:104EE0008D929D92AD92BC9213978BA19CA10E9432
:104EF000906E28C0EDECFDE184918F010F5F1F4F94
:104F0000882321F00E944956F801F6CFEFE0F9E03E
:104F100084918F010F5F1F4F882321F00E94495613
:104F2000F801F6CF88E290E09A83898388EC90E0DC
:104F30009F8B8E8BBE016F5F7F4FCE0146960E9486
:104F40001D9329C1B4E0CB0ED11C0C5F1F4FE4E0D0
:104F5000EE0EF11C0C30110509F04FCF0E94B45534
:104F60000E94588683E992E09F8B8E8B04E610E0C6
:104F70001A830983BE016A5E7F4FCE0101960E94AB
:104F80001D938AEB92E09F8B8E8B1A830983BE015F
:104F90006A5E7F4FCE0101960E941D93FCC00E9465
:104FA000FA61F9C00E94D85CF6C00E94AC5BF3C005
:104FB00083E50E94705B882319F00E94605B01C04A
:104FC00081E091E089270E949470E5C084918F016F
:104FD0000F5F1F4F882321F00E944956F801F6CF3A
:104FE000E7E4F9E084918F010F5F1F4F882321F0E0
:104FF0000E944956F801F6CF8AE50E94705B88232B
:1050000009F43BC00E940B566B017C0120E030E0AC
:1050100040EA51EC0E94E9A187FD21C020E030E088
:1050200040EA51E4C701B6010E9467A71816BCF018
:10503000C0923C12D0923D12E0923E12F0923F128A
:105040000E94298960913C1270913D1280913E121C
:1050500090913F1242E00E9440590C947A1CE0E388
:10506000F9E084918F010F5F1F4F882311F40C9496
:105070007A1C0E944956F801F4CF40913C1250919D
:105080003D1260913E1270913F128DE299E00E94B4
:10509000A3490C947A1C0E9451847DC00E941884FC
:1050A0007AC00E94E33377C080918706882309F491
:1050B00072C00E9468706FC00E94DA836CC081E089
:1050C0008093020283E50E94705B811103C00E94FD
:1050D000039861C00E94605B81115DC0F8CFF090C1
:1050E0003E05FF2029F1EAEFFDE184918F010F5F7A
:1050F0001F4F882321F00E944956F801F6CF84E51E
:105100000E9449566F2D70E080E090E04AE00E94D6
:10511000A25680E20E94495604E213E0D8018D9124
:105120008D01882311F40C947A1C0E944956F6CF05
:1051300010920406EAEFFDE184918F010F5F1F4F8B
:10514000882321F00E944956F801F6CF60910406A9
:1051500070E081E599E00E94C0498AE00E944956CA
:105160001AC0EAEFFDE184918F010F5F1F4F882382
:1051700021F00E944956F801F6CF60910C0670911B
:105180000D0683E699E00E94D94982E20E944956C1
:105190008AE00E94495610920606109205060E9467
:1051A000E4974DC34091B6035091B703452B39F4B2
:1051B000AF01415051095093B7034093B60340E00B
:1051C00050E00C94991161E0812F0E94AA936E2DFA
:1051D000812F0E947A93F12CB701812F0E94E693D0
:1051E000B7E0CB16D104B9F6F092A611E092A51162
:1051F000D2CF10920002E1E5F3E084918F010F5FBE
:105200001F4F882321F00E944956F801F6CF57011D
:10521000AC18BD085AEFA51AB108B7FE0DC009E3D6
:1052200013E0F8018491882311F40C94A61A0F5FFF
:105230001F4F0E944956F5CF8601085F1F4FA501F9
:1052400065EE7FEFC8010E949BA2B5010B2C000CFC
:10525000880B990B0E940A57E9E1F3E084914F0112
:105260002FEF821A920A811103C0812C912C25C044
:105270000E944956F401F2CFD8018C91853EC1F0CD
:10528000C8010E949A8367E272E08CE093E00E947A
:10529000D949F80180810E942A6FBC018AE093E01D
:1052A0000E94D9498AE00E9449568AE00E944956E4
:1052B000FFEF8F1A9F0A0F5F1F4F8A149B04E4F2BF
:1052C0000C94A61A0E940B560E94F5A070936F05CD
:1052D00060936E0580E00E944B300E940B5620E0E8
:1052E00030E04AEA52E40E9467A718161CF00E94B8
:1052F000698702C00E94BE880E94B29C81E08093B0
:1053000001021FA218A619A61AA61CA61DA61EA653
:105310001FA61BA218AA5CE35AAB8CE18EAB96E4E5
:105320009AAFC12CD12CB0E8EB2E1FEBF12E812CC3
:10533000912C540160916E0570916F05072E000C41
:10534000880B990B0E946EA7162F072F782E692EB7
:10535000262F372F482F592FB601C7010E9467A764
:105360008823D1F02091750530917605409177051D
:1053700050917805612F702F872D962D0E9467A779
:10538000881F8827881F8BA3CBA4CC2049F08823B3
:1053900039F080910102FFCE1C2D0D2D7E2C6F2C3B
:1053A0000E94E9946B017C01DC01CB012CA53DA599
:1053B0004EA55FA5821B930BA40BB50BB7FD3BC09D
:1053C000D701C60188519C4FAF4FBF4F8CA79DA7F7
:1053D000AEA7BFA70E941787E7E3F5E084912F01EE
:1053E0009FEF491A590A882321F00E944956F20179
:1053F000F5CF81149104A104B104B9F0D501C40121
:10540000805F984DAF4FBF4FBC01CD016C197D0936
:105410008E099F0928EE33E040E050E00E945BAB2C
:10542000CA01B9010E940A5703C08FE30E9449567E
:105430008AE00E9449560E94B1390E943E5620904F
:10544000750530907605409077055090780591016C
:10545000A201612F702F872D962D0E94889F9F7724
:1054600081149104A104B10449F420E030E040E843
:105470005FE30E9467A787FF0BC008C020E030E011
:1054800040E450E40E94E9A1181614F446015701C3
:10549000ABA1AA2379F12FA138A549A55AA52115B9
:1054A00031054105510541F0D701C601821B930B1F
:1054B000A40BB50BB7FD1EC09101A20168A97AA982
:1054C0008EA99AAD0E94889F20E030E040EC5FE317
:1054D0000E9467A787FD5DCFD701C601805A95411D
:1054E000AF4FBF4F8FA398A7A9A7BAA728AA3AAAD8
:1054F0004EAA5AAE80910102882309F44ACF811442
:105500009104A104B10429F4C12ED02EE72CF62C6D
:1055100011CF90E1C91A97E2D90AE108F108C81839
:10552000D908EA08FB08F7FE34CFEECF0E94744298
:1055300088E50E94705B882319F05F9A10925A06E2
:1055400089E50E94705B882319F08A9A10925B06A5
:105550008AE50E94705B882351F09FB7F894809190
:1055600008018160809308019FBF10925C0685E46A
:105570000E94705B882309F40ECE0E946D390BCE19
:1055800048A959A9141615060CF029C16F964CAC00
:105590005DAC6EAC7FAC6F97480E591E6A1E7B1EC9
:1055A0006F962CAD3DAD4EAD5FAD6F97281B390B9F
:1055B0004A0B5B0BCA01B901A50194010E944BABD8
:1055C000A30192010E947DAB8CA49DA4AEA4BFA4B4
:1055D000820E931EA41EB51E34E183169104A1040D
:1055E000B1040CF14CEE84169104A104B1043CF416
:1055F00050E885169104A104B1041CF105C07BEEAE
:10560000872E912CA12CB12C8CA69DA6AEA6BFA650
:105610008EEF90E0A0E0B0E088199909AA09BB09D3
:105620004C015D0112C024E130E040E050E02CA7C5
:105630003DA74EA75FA764E1862E912CA12CB12C2B
:1056400004C08CA69DA6AEA6BFA64CA55DA56EA562
:105650007FA58BE998E00E948B9CB501A40186E9A7
:1056600098E00E948B9C4EAD5FAD24966FAD249761
:1056700028967FAD28978FE898E00E94A3492C9642
:105680004FAD2C9760965FAD609764966FAD649751
:1056900068967FAD689788E898E00E94A34948A97A
:1056A00059A9433051050CF49AC0C501B4010E94B8
:1056B0006EA720E030E040E850E40E94CDA76B01E7
:1056C0007C012EAD3FAD24964FAD249728965FAD5B
:1056D00028972C966FAD2C9760967FAD6097649657
:1056E0008FAD649768969FAD68970E94889F2BED59
:1056F0003FE049E450E40E94CDA720E030E040E0E4
:105700005FE30E94CDA79B01AC01C701B6010E94D7
:1057100083A06B017C01C301B2010E946EA72FE63A
:1057200032E143E85AE30E94CDA72B013C01B701C7
:10573000A60182E898E00E94A349B301A2018CE788
:1057400098E00E94A3492AE939E949E15FE3C701EA
:10575000B6010E94CDA76B017C019B01AC010E94A8
:10576000899FA30192010E9483A06AAB7BAB8CABA3
:105770009DABA3019201C701B6010E94CDA720E015
:1057800030E040E05EE30E94CDA76EAB7FAB88AF18
:1057900099AFECE6F8E084913F015FEF651A750A76
:1057A000882321F00E944956F301F5CFB701A601E5
:1057B00086E698E00E94A3494AA95BA96CA97DA945
:1057C00080E698E00E94A3494EA95FA968AD79AD33
:1057D0008AE598E00E94A3498AE00E9449568CA578
:1057E0009DA5AEA5BFA5880D991DAA1DBB1DB5958C
:1057F000A79597958795EFEF2E163E0619F480939F
:10580000720502C08093730528A939A92F5F3F4F05
:1058100039AB28AB3AAD3EAF4BAD4FAF5CAD249644
:105820005FAF24978DAD28968FAF28974BA05CA0D3
:105830006DA07EA091E0A8969FAFA897B7C8C25868
:10584000DF4F0FB6F894DEBF0FBECDBFDF91CF9113
:105850001F910F91FF90EF90DF90CF90BF90AF908E
:105860009F908F907F906F905F904F903F902F9080
:10587000089585ED8093BC008091BC0084FDFCCF31
:105880001092F31108954091D705262F30E0240F90
:10589000311D21323105DCF42091F3112430C9F49B
:1058A000FC0180E090E0861758F43091D7052191F3
:1058B000DC01AB54BA4FA30FB11D2C930196F3CF6B
:1058C0008091D705680F6093D70580E0089581E047
:1058D000089582E008950895E0917D0680917E0606
:1058E000E81730F4F0E0E35AF94F808190E0089532
:1058F0008FEF9FEF089590917D0680917E06981717
:1059000050F4E92FF0E0E35AF94F208130E09F5F37
:1059100090937D0602C02FEF3FEFC901089580915B
:105920007E0690E020917D06821B91090895CF921A
:10593000DF92EF92FF920F931F93CF93DF937C013F
:10594000262F972F8A018091F411882391F0C62F7A
:10595000D72F6E01C40ED51ECC15DD0571F06991EF
:10596000D701ED91FC910190F081E02DC7011995CF
:10597000F3CF642F822F0E94432CC801DF91CF9177
:105980001F910F91FF90EF90DF90CF900895CF93EC
:10599000DF931F92CDB7DEB769832091F4112223E4
:1059A000D1F020911712203240F021E030E0FC01CC
:1059B0003383228380E090E015C08091F511E82FB9
:1059C000F0E0EA50FE4E998190838F5F8093F5114D
:1059D0008093171205C061E0CE0101960E94432C0E
:1059E00081E090E00F90DF91CF910895089580E0DD
:1059F00090E0089560917505709176058091770526
:105A00009091780508952F923F924F925F926F92F6
:105A10007F928F929F92AF92BF92CF92DF92EF923E
:105A2000FF92CF93DF9300D01F92CDB7DEB7609087
:105A30006E0570906F058090750590907605A0902A
:105A40007705B0907805B301072C000C880B990BF3
:105A50000E946EA7A50194010E94889F6B017C01A2
:105A600060938F05709390058093910590939205B4
:105A700020ED3CEC4CE45DE360915F0570916005C6
:105A800080916105909162050E94CDA71B012C01B8
:105A900020918B0530918C0540918D0550918E059C
:105AA000C501B4010E94889F9B01AC01C201B101F4
:105AB0000E94CDA71B012C0123E333E343E75FE3FF
:105AC00060918705709188058091890590918A057C
:105AD0000E94CDA79B01AC01C201B1010E94899F28
