:100000000C9433120C9464120C9464120C946412C9
:100010000C9464120C9464120C9464120C94641288
:100020000C9464120C9464120C9464120C94641278
:100030000C9464120C9464120C9464120C94641268
:100040000C9464120C94896D0C9464120C946412D8
:100050000C9464120C9464120C948E600C9428A07E
:100060000C9464120C9497350C9464120C946412E2
:100070000C9464120C9464120C9464120C94641228
:100080000C9464120C9464120C9464120C94641218
:100090000C9464120C9464120C9464120C94D15D50
:1000A0000C9464120C9464120C9464120C946412F8
:1000B0000C9464120C9464120C9464120C946412E8
:1000C0000C9464120C9464120C9464120C946412D8
:1000D0000C9464120C9464120C9464120C946412C8
:1000E0000C946412CA35D135E535F235FC35173636
:1000F0000136173606360B36173613364A8F4D8FB4
:100100003C8F408F468F848F518F558F5B8F5F8FD1
:10011000638F698F6D8F718F848F778F7B8F7F8FC8
:1001200008930D9312931C9326939F9330933893C7
:1001300040934A9354935E936D9377939F938193E7
:100140008B939593084AD73B3BCE016E84BCBFFD91
:10015000C12F3D6C74319ABD56833DDA3D00C77F97
:1001600011BED9E4BB4C3E916BAAAABE0000008030
:100170003F05A84CCDB2D44EB93836A9020C50B9BF
:10018000918688083CA6AAAA2ABE000000803F00EB
:100190000C94E35B0C9438930C945E930C94408F16
:1001A0000C943C8F0C9413360C947B8F0C9481939D
:1001B0000C94718F0C945B8F0C9430930C94F35BC4
:1001C0000C940F5C0C94F2350C940B360C940D933C
:1001D0000C9440930C94638F0C947F8F0C94E535B2
:1001E0000C946D8F0C94778F0C94FC350C94549375
:1001F0000C94558F0C949F930C94468F0C94E45B55
:100200000C945F8F0C94075C0C9401360C9408934B
:100210000C944A930C9406360C943F5C0C94959382
:100220000C948B930C944A8F0C94518F0C9417362A
:100230000C94698F0C94D1350C941C930C941293EC
:100240000C9426930C947BA70C944D8F0C94848F64
:100250000C946D930C946F5C0C941E2E0C947793FD
:100260000C94CA354E414E494E495459494E46CDDB
:10027000CCCC3D0AD7233C17B7D13877CC2B32955D
:1002800095E6241FB14F0A000020410000C842003B
:10029000401C4620BCBE4CCA1B0E5AAEC59D744CB9
:1002A0004556454C494E4700434F4D4D554E4943E9
:1002B0004154494F4E0044525952554E00455252F6
:1002C0004F525300494E464F004543484F00473276
:1002D0002F47332062616420706172616D657465BF
:1002E00072730A0047322F473320626164207061C5
:1002F00072616D65746572730A00205A3A2000209D
:10030000593A200042656420583A20004D657368D0
:1003100020706F696E742063616E6E6F7420626509
:10032000207265736F6C7665640A00256973002519
:10033000696D20256973002569682025696D202570
:10034000697300256964202569682025696D202569
:10035000697300256979202569642025696820254D
:10036000696D20256973005072696E742074696D1F
:10037000653A2000000136372603FF3C3D38FF0E6A
:100380002E303E1312FFFF080706FF061A1C18FF47
:10039000FF08440A0B43FFFFFFFFFFFF50726F741B
:1003A00065637465642050696E0A00C902C402BDA9
:1003B00002B602A8029F026F666600444542554796
:1003C0003A004D3131332053006F6B0020573A0013
:1003D0004361703A454D455247454E43595F504140
:1003E000525345523A310A004361703A43415345F2
:1003F0005F4C494748545F4252494748544E455321
:10040000533A310A004361703A544F47474C455FB5
:100410004C49474854533A310A004361703A534FAC
:100420004654574152455F504F5745523A300A00A3
:100430004361703A4C4556454C494E475F444154E0
:10044000413A310A004361703A5A5F50524F424577
:100450003A310A004361703A4155544F4C45564574
:100460004C3A310A004361703A5052494E545F4A47
:100470004F423A310A004361703A50524F47524559
:1004800053533A300A004361703A4155544F524534
:10049000504F52545F54454D503A310A00436170F9
:1004A0003A454550524F4D3A310A004649524D5750
:1004B0004152455F4E414D453A4D61726C696E2027
:1004C0004D61726C696E5F312E312E365F526F62F4
:1004D0006F56657273696F6E5F312E322E34205203
:1004E0006F626F20523220534F555243455F434F46
:1004F00044455F55524C3A68747470733A2F2F67B5
:1005000069746875622E636F6D2F526F626F33442A
:100510002F4D61726C696E2050524F544F434F4CB7
:100520005F56455253494F4E3A312E30204D41438C
:1005300048494E455F545950453A20526F626F20EA
:1005400052322045585452554445525F434F554E00
:10055000543A3120555549443A63656465326132F5
:10056000662D343161322D343734382D39623132D1
:100570002D6335356336326633363766660A002FAB
:100580002F20007A5F6D61783A20007A5F6D696E86
:100590003A2000795F6D61783A2000785F6D696E6E
:1005A0003A20005265706F7274696E6720656E64E0
:1005B00073746F70207374617475730A0020643AE9
:1005C0000020693A0020703A0020643A0020693A1D
:1005D0000020703A0043290A0061626C656420289B
:1005E0006D696E2074656D702000436F6C642065CA
:1005F0007874727564657320617265200042656469
:10060000204C6576656C696E6720004661696C6593
:100610006420746F20656E61626C652042656420A1
:100620004C6576656C696E670A004D65736820706D
:100630006F696E742063616E6E6F742062652072E4
:1006400065736F6C7665640A004D34323120696ED3
:10065000636F727265637420706172616D65746539
:10066000722075736167650A00546F6F206661724E
:100670002066726F6D207265666572656E636520B7
:10068000706F696E740A003A20007A5F6D696E3A85
:1006900020202D3230207A5F6D61783A2020323070
:1006A000005A204F666673657420004175746F00B0
:1006B00020452F443D00416476616E6365204B3DCB
:1006C000002028002920453A0020280029205A3AF5
:1006D000002028002920593A0020280020583A00FC
:1006E000537465707065722063757272656E7420E4
:1006F00076616C75657320696E20252028416D70C8
:1007000073293A0A0043617365206C696768743A1B
:10071000200041637469766520457874727564655C
:10072000723A20003C3C3C2067636F64655F540A6A
:1007300000203A2041465445520A00202063757239
:1007400072656E745F706F736974696F6E3D0020BF
:100750003A204245464F52450A0020206375727286
:10076000656E745F706F736974696F6E3D003E3EB5
:100770003E2067636F64655F542800556E6B6E6F33
:10078000776E20636F6D6D616E643A2022004B4975
:100790004C4C45442E20002C20002C2000203A20D8
:1007A00073796E635F706C616E5F706F736974698B
:1007B0006F6E0A00202063757272656E745F706FD1
:1007C000736974696F6E3D00656E717565756569F5
:1007D0006E672022004E6F204C696E65204E756D4D
:1007E000626572207769746820636865636B7375EE
:1007F0006D2C204C617374204C696E653A2000505A
:1008000072696E7465722073746F707065642064B1
:10081000756520746F206572726F72732E20466941
:100820007820746865206572726F7220616E642032
:10083000757365204D39393920746F207265737472
:100840006172742E202854656D70657261747572C2
:10085000652069732072657365742E20536574205A
:100860006974206166746572207265737461727454
:10087000696E67290A004E6F20436865636B737564
:100880006D2077697468206C696E65206E756D6285
:1008900065722C204C617374204C696E653A20009F
:1008A000636865636B73756D206D69736D617463E7
:1008B000682C204C617374204C696E653A20004CA2
:1008C000696E65204E756D626572206973206E6F6A
:1008D00074204C617374204C696E65204E756D6296
:1008E00065722B312C204C617374204C696E653A13
:1008F00020004D3131300020496E76616C696420F2
:100900006578747275646572200000000000000054
:100910000000000000000000FE420000FE42000057
:1009200020430A20736F66745F656E6473746F7022
:100930005F6D6178203D20000A20736F66745F65EB
:100940006E6473746F705F6D696E203D20000A20C5
:10095000706F736974696F6E5F7368696674203D48
:10096000200020617869733A0A20686F6D655F6FB7
:100970006666736574203D2000466F7220003C3C23
:100980003C20646F5F626C6F636B696E675F6D6F55
:1009900076655F746F0A003E3E3E20646F5F626C56
:1009A0006F636B696E675F6D6F76655F746F002054
:1009B000746F6F206C6F6E672065787472757369E1
:1009C0006F6E2070726576656E7465640A002063D0
:1009D0006F6C6420657874727573696F6E207072C5
:1009E0006576656E7465640A00627573793A207085
:1009F000617573656420666F7220696E7075740A24
:100A000000627573793A2070617573656420666F52
:100A10007220757365720A00627573793A2070727C
:100A20006F63657373696E670A004B494C4C4544AC
:100A30002E20004B494C4C20636175736564206225
:100A400079204B494C4C20627574746F6E2F70691D
:100A50006E0A004B494C4C45442E20004B494C4CEF
:100A60002063617573656420627920746F6F206DF7
:100A700075636820696E6163746976652074696D59
:100A800065202D2063757272656E7420636F6D6DC5
:100A9000616E643A20005072696E746572206861FC
:100AA0006C7465642E206B696C6C28292063616C02
:100AB0006C6564210A00000000000000FE42000096
:100AC00020433C3C3C207365745F617869735F69C7
:100AD000735F61745F686F6D652800203A200A00BB
:100AE000202063757272656E745F706F73697469CC
:100AF0006F6E3D005D203D20003E20686F6D655F9C
:100B00006F66667365745B003E3E3E207365745F7E
:100B1000617869735F69735F61745F686F6D652881
:100B20000000005C4200005C420000404100000008
:100B3000005761726E696E673A20486F6D696E6723
:100B40002042756D702044697669736F72203C2075
:100B5000310A000202040000A0400000A040000092
:100B600000400000FE420000FE42000020433C3CEA
:100B70003C20686F6D65617869732800203A203EDB
:100B8000204146544552207365745F617869735FF4
:100B900069735F61745F686F6D650A00202063751B
:100BA0007272656E745F706F736974696F6E3D0009
:100BB000486F6D65203220536C6F773A0A004D6F95
:100BC000766520417761793A0A00486F6D6520317A
:100BD00020466173743A0A00FF01013E3E3E2068E0
:100BE0006F6D656178697328004572726F72207746
:100BF000726974696E6720746F20454550524F4D7D
:100C0000210A004B494C4C45442E2000202D204900
:100C10006E76616C696420657874727564657220A3
:100C20006E756D62657220210A002020506C616E25
:100C30006E657242756666657242797465733A20B4
:100C4000002046726565204D656D6F72793A20000F
:100C5000436F6D70696C65643A2041756720203977
:100C600020323031380A00207C20417574686F7260
:100C70003A20526F626F0A003134204645422032DA
:100C800030313800204C6173742055706461746594
:100C9000643A20004D61726C696E5F312E312E36E0
:100CA0005F526F626F56657273696F6E5F312E327D
:100CB0002E340A004D61726C696E0020536F6674A9
:100CC000776172652052657365740A0020576174FC
:100CD0006368646F672052657365740A002042720E
:100CE0006F776E206F75742052657365740A0020EB
:100CF00045787465726E616C2052657365740A0084
:100D0000506F77657255700A0073746172740A00CF
:100D1000205A3A0020593A0020583A00656E647310
:100D2000746F7073206869743A200020746F6F20AC
:100D30006C6F6E6720657874727573696F6E207062
:100D4000726576656E7465640A0020636F6C64205A
:100D5000657874727573696F6E2070726576656EF2
:100D60007465640A00202F0020403A00205A3A009F
:100D700020593A0020436F756E7420583A00204580
:100D80003A00205A3A0020593A00583A0053657404
:100D900074696E672054726176656C204163636587
:100DA0006C65726174696F6E3A2000536574746982
:100DB0006E67205265747261637420416363656C71
:100DC00065726174696F6E3A200053657474696E60
:100DD00067205072696E7420416363656C6572614F
:100DE00074696F6E3A200053657474696E672050A1
:100DF00072696E7420616E642054726176656C2035
:100E0000416363656C65726174696F6E3A2000209E
:100E10005A00205900580020204D61783A200020C7
:100E20005A00205900580020204D696E3A20004F8A
:100E30006E20004F666600536F667420656E6473A3
:100E4000746F70733A200043757272656E743A2045
:100E5000004B64200023646566696E65202044456C
:100E60004641554C545F004B692000236465666918
:100E70006E65202044454641554C545F004B702020
:100E80000023646566696E65202044454641554CE3
:100E9000545F00504944204175746F74756E65202D
:100EA00066696E6973686564212050757420746882
:100EB00065206C617374204B702C204B6920616E2F
:100EC00064204B6420636F6E7374616E747320666C
:100ED000726F6D2062656C6F7720696E746F20434E
:100EE0006F6E66696775726174696F6E2E680A004D
:100EF000504944204175746F74756E652066616950
:100F00006C6564212074696D656F75740A005049C1
:100F100044204175746F74756E65206661696C65F7
:100F200064212054656D70657261747572652074FA
:100F30006F6F20686967680A00204B643A200020C0
:100F40004B693A2000204B703A20000A20436C6124
:100F50007373696320504944200A002054753A2075
:100F600000204B753A2000206D61783A2000206DFA
:100F7000696E3A200020643A200020626961733A69
:100F8000200070012C0190012701B0012201C00155
:100F90001D01F00118011002130130020E01600260
:100FA000090190020401C002FF000003FA0040039F
:100FB000F5008003F000D003EB002004E60070048D
:100FC000E100E004DC004005D700C005D200400687
:100FD000CD00D006C8008007C3003008BE00F0086E
:100FE000B900C009B400B00AAF00B00BAA00D00C21
:100FF000A500000EA000500F9B00C01096005012DC
:10100000910000148C00C0158700B0178200B01941
:101010007D00D01B7800001E730040206E009022DF
:101020006900F024640040275F0090295A00E02BFB
:101030005500102E500020304B0010324600E03397
:10104000410090353C001037370070383200A0392D
:101050002D00B03A2800A03B2300603C1E00103D4C
:101060001900903D1400103E0F00703E0A00C03E73
:101070000500003F0000403FFBFF803FF6FFC03F00
:10108000F1FF0B0BFFFFFF00000202026265640A22
:10109000002C2073797374656D2073746F707065A4
:1010A0006421204865617465725F49443A200048B4
:1010B000656174696E67206661696C656400486586
:1010C0006174696E67206661696C6564004572725F
:1010D0003A204D494E54454D50004D494E54454DD2
:1010E0005020747269676765726564004572723A70
:1010F000204D415854454D50004D415854454D5098
:101100002074726967676572656400290A0020624D
:10111000797465733B20637263200053657474694E
:101120006E67732053746F726564202800202863F3
:10113000616C63756C6174656429210A0020213D2E
:101140002000454550524F4D20435243206D697356
:101150006D61746368202D202873746F7265642933
:101160002000290A002062797465733B2063726352
:1011700020002073746F7265642073657474696EE7
:101180006773207265747269657665642028002033
:101190004D61726C696E3D563431290A002845450F
:1011A00050524F4D3D00454550524F4D207665728F
:1011B00073696F6E206D69736D61746368200024BC
:1011C000F4D43050C38E20C2A24017828B7011120B
:1011D0007A910D816CD90AA861E108C75866076148
:1011E0005143061E4B5D05C145A7041A4111040970
:1011F0003D9803713931034036DB0265339102D4E7
:10120000305402802E1D02632CEE01752AC501B0F8
:1012100028A001102781018F2564012B244B01E0B8
:10122000223401AC211F018D200D01801FFC0084A0
:101230001EED00971DDF00B81CD200E61BC6002083
:101240001BBC00641AB200B219A8000A19A0006AF7
:10125000189900D117910040178B00B51684003102
:10126000167E00B31579003A157300C7146F005845
:10127000146A00EE1366008813630025135E00C72E
:10128000125B006C12570015125400C1115100700E
:10129000114F0021114B00D61049008D1047004618
:1012A00010440002104200C00F4000800F3E004278
:1012B0000F3C00060F3B00CB0E3800930E37005C4E
:1012C0000E3500270E3400F30D3200C10D310090B1
:1012D0000D3000600D2E00320D2D00050D2C00D9B3
:1012E0000C2B00AE0C2900850C29005C0C27003566
:1012F0000C27000E0C2600E80B2400C40B2400A0D1
:101300000B23007D0B23005A0B2100390B21001801
:101310000B2000F80A1F00D90A1E00BB0A1E009D00
:101320000A1D00800A1D00630A1C00470A1B002CCE
:101330000A1B00110A1A00F7091A00DD091900C476
:10134000091900AB091900920917007B09180063FD
:101350000917004C09160036091600200916000A64
:10136000091500F5081500E0081400CC081400B8B1
:10137000081400A4081400900813007D0812006BE4
:101380000813005808120046081200340811002300
:101390000811001208110001081100F0071000E008
:1013A000071000D0071000C0071000B0070F00A101
:1013B00007100091070E0083070F0074070F0065E8
:1013C000070E0057070E0049070E003B070D002EC1
:1013D000070E0020070D0013070D0006070D00F98A
:1013E000060C00ED060D00E0060C00D4060C00C84B
:1013F000060C00BC060C00B0060C00A4060B0099FD
:10140000060C008D060B0082060B0077060B006CA5
:10141000060B0061060A0057060B004C060A004244
:10142000060A0038060A002E060A0024060A001AD8
:10143000060A001006090007060A00FD050900F467
:10144000050900EB050900E2050900D9050900D0EE
:10145000050900C7050900BE050900B5050800AD6E
:10146000050800A50509009C050800940508008CE6
:10147000050800840508007C050800740508006C58
:10148000050700650508005D050700560508004EC4
:10149000050700470507004005080038050700312B
:1014A0000507002A050700230507001C050600168E
:1014B0000507000F0507000805060002050700FBE9
:1014C000040600F5040700EE040600E8040600E246
:1014D000040700DB040600D5040600CF040600C99B
:1014E000040600C3040600BD040600B7040600B1EC
:1014F000040500AC040600A6040600A00405009B39
:1015000004060095040500900406008A0405008581
:10151000040500800406007A0405007504050070C7
:101520000405006B04050066040500610405005C09
:1015300004050057040500520405004D0405004849
:10154000040500430405003E0404003A0405003588
:10155000040500300404002C0405002704040023C3
:101560000405001E0404001A0404001604050011FA
:101570000404000D04040009040500040404000030
:10158000040400FC030400F8030400F4030400F066
:10159000030400EC030400E8030400E4030400E097
:1015A000030400DC030400D8030400D4030400D0C7
:1015B000030400CC030400C8030300C50303002494
:1015C000F404D9201BC40C5C0E9804C4095F0265A6
:1015D000077101F405F900FB04B30048048700C15A
:1015E0000369005803550003034500BE023A008416
:1015F00002310053022A002902250004022000E4DF
:10160000011C00C8011900AF0117009801140084E3
:10161000011300710110006101100051010E00431F
:10162000010D0036010B002B010B0020010B0015F2
:101630000109000C01090003010800FB000800F388
:10164000000800EB000700E4000600DE000600D8FA
:10165000000600D2000600CC000500C7000500C24D
:10166000000500BD000400B9000400B5000400B18D
:10167000000400AD000400A9000400A5000300A2BE
:101680000003009F0004009B0003009800030095E6
:1016900000020093000300900003008D0002008B05
:1016A000000300880002008600020084000300811D
:1016B0000002007F0002007D0002007B0002007932
:1016C0000002007700010076000200740002007240
:1016D000000100710002006F0002006D0001006C4B
:1016E0000002006A00010069000200670001006654
:1016F0000001006500010064000200620001006159
:10170000000100600001005F0002005D0001005C5C
:101710000001005B0001005A00010059000100585F
:10172000000100570001005600010055000100545F
:10173000000100530000005300010052000100515D
:10174000000100500001004F0001004E0000004E5B
:101750000001004D0001004C0001004B0000004B57
:101760000001004A00010049000100480000004853
:10177000000100470001004600000046000100454E
:101780000000004500010044000100430000004348
:101790000001004200000042000100410000004141
:1017A000000100400001003F0000003F0001003E3A
:1017B0000000003E0001003D0000003D0001003C33
:1017C0000000003C0000003C0001003B0000003B2A
:1017D0000001003A0000003A000100390000003921
:1017E0000001003800000038000000380001003718
:1017F000000000370001003600000036000000360F
:101800000001003500000035000000350001003403
:1018100000000034000000340001003300000033F9
:1018200000000033000100320000003200000032EE
:1018300000010031000000310000003100010030E3
:1018400000000030000000300001002F0000002FD9
:101850000000002F0000002F0001002E0000002ECD
:101860000000002E0001002D0000002D0000002DC2
:101870000000002D0001002C0000002C0000002CB6
:101880000000002C0001002B0000002B0000002BAA
:101890000000002B0001002A0000002A0000002A9E
:1018A0000000002A00010029000000290000002992
:1018B0000000002900000029000100280000002885
:1018C0000000002800000028000000280001002778
:1018D000000000270000002700000027000000276C
:1018E000000100260000002600000026000000265F
:1018F0000000002600010025000000250000002552
:101900000000002500000025000000250001002443
:101910000000002400000024000000240000002437
:10192000000100230000002300000023000000232A
:10193000000000230000002300000023000100221B
:10194000000000220000002200000022000000220F
:101950000000002200010021000000210000002101
:1019600000000021000000210000002100000021F3
:1019700000010020000000200000002000000020E6
:1019800000000020000000200000002000000020D7
:101990000001001F0000001F0000001F0000001FCA
:1019A0000000001F0000001F0000001F0001001EBB
:1019B0000000001E0000001E0000001E00000020AD
:1019C0003A2073657475705F666F725F656E6473DD
:1019D000746F705F6F725F70726F62655F6D6F764C
:1019E000650A00202063757272656E745F706F7394
:1019F0006974696F6E3D00203A20636C65616E5FAB
:101A000075705F61667465725F656E6473746F7024
:101A10005F6F725F70726F62655F6D6F76650A00EF
:101A2000202063757272656E745F706F736974697C
:101A30006F6E3D00646F5F70726F62655F726169A7
:101A4000736528006465706C6F793A2000203A2035
:101A50007365745F70726F62655F6465706C6F79D7
:101A600065640A00202063757272656E745F706F22
:101A7000736974696F6E3D00203A203C3C3C2064E1
:101A80006F5F70726F62655F6D6F76650A00202010
:101A900063757272656E745F706F736974696F6E6F
:101AA0003D00203A203E3E3E20646F5F70726F62C0
:101AB000655F6D6F76650A00202063757272656ED2
:101AC000745F706F736974696F6E3D0072657365E2
:101AD000745F6265645F6C6576656C0A00202864DB
:101AE0006F6E65290A004578747261706F6C61745D
:101AF00065205B0042696C696E656172204C657699
:101B0000656C696E6720477269643A0A003C3C3C28
:101B100020646F5F686F6D696E675F6D6F766528B3
:101B2000002C20002C20003E3E3E20646F5F686F3A
:101B30006D696E675F6D6F7665280041424C20418C
:101B4000646A7573746D656E74205A002028656E22
:101B500061626C6564290A00202864697361626CA3
:101B60006564290A0042494C494E4541520041757D
:101B7000746F20426564204C6576656C696E673AC7
:101B80002000204E6F7A7A6C65290A0020262041B9
:101B9000626F76650020262053616D65205A2061B2
:101BA000730020262042656C6F77002D4261636BC5
:101BB000002028526967687400205A3A0020593A78
:101BC0000050726F6265204F666673657420583AE4
:101BD000004649585F4D4F554E5445445F50524F53
:101BE00042450A0050726F62653A20004361727488
:101BF000657369616E0A004D616368696E652054A2
:101C00007970653A20003C3C3C2067636F64655FF7
:101C10004732380A00203A203E20686F6D65590A25
:101C200000202063757272656E745F706F736974E3
:101C3000696F6E3D00203A203E20686F6D65580A3E
:101C400000202063757272656E745F706F736974C3
:101C5000696F6E3D00203A203E20484F4D45415867
:101C60004953285A290A00202063757272656E74E0
:101C70005F706F736974696F6E3D003E20656E64BE
:101C800073746F70732E656E61626C652874727503
:101C900065290A003E3E3E2067636F64655F4732F8
:101CA000380A0020706F736974696F6E206F7574E5
:101CB000206F662072616E67652E0A003F50726F5A
:101CC000626520003C3C3C2067636F64655F47327F
:101CD000390A0020636F72726563746564205A3A32
:101CE0000047323920756E636F7272656374656484
:101CF000205A3A00203A203E2070726F62696E6767
:101D000020636F6D706C6574650A002020637572C6
:101D100072656E745F706F736974696F6E3D0052A7
:101D2000756E6E696E6720696E204452592D52554A
:101D30004E206D6F64650A00473239204175746F1B
:101D400020426564204C6576656C696E670A0028E0
:101D5000422961636B00284629726F6E7400285215
:101D6000296967687400284C29656674003F285605
:101D7000296572626F7365206C6576656C20697386
:101D800020696D706C61757369626C652028302DF7
:101D900034292E0A00426164205A2076616C7565F0
:101DA0000A004E6F2062696C696E6561722067720D
:101DB00069640A00203A203E3E3E2067636F6465F6
:101DC0005F4732390A00202063757272656E745F56
:101DD000706F736974696F6E3D0050726F62652039
:101DE0004F6666736574206973205A3A20005374F5
:101DF000616E6461726420446576696174696F6EB6
:101E00003A20002052616E67653A2000204D6178CB
:101E10003A2000204D696E3A20004D65616E3A20EF
:101E20000046696E6973686564210A002072616EFC
:101E300067653A2000206D61783A2000206D696E58
:101E40003A2000207369676D613A2000206D65615A
:101E50006E3A20003A207A3A2000206F6620002057
:101E60005A00205900205800476F696E6720746F30
:101E70003A00436C6F636B776973650A00436F7553
:101E80006E7465722D0020446972656374696F6EAB
:101E90003A2000202020616E676C653A2000537460
:101EA000617274696E67207261646975733A2000AB
:101EB000506F736974696F6E696E6720746865200E
:101EC00070726F62652E2E2E0A003F4E756D626530
:101ED00072206F66206C65677320696E206D6F7667
:101EE000656D656E74206E6F7420706C61757369BA
:101EF000626C652028302D3135292E0A0059005892
:101F0000003F53616D706C652073697A65206E6F58
:101F10007420706C61757369626C652028342D358E
:101F200030292E0A004D3438205A2D50726F6265C8
:101F3000205265706561746162696C6974792054BE
:101F40006573740A003F2856296572626F736520B5
:101F50006C6576656C20697320696D706C61757352
:101F600069626C652028302D34292E0A0048617280
:101F700064636F6465642044656661756C742053A6
:101F8000657474696E6773204C6F616465640A00E0
:101F9000B80B0000B80B000064000000E80300006C
:101FA0000000964300009643000040410000C841F5
:101FB0000000A0420000A0420000484400801143FD
:101FC00020520020204D393030204B004C696E6586
:101FD000617220416476616E63653A0A0020204D8B
:101FE000383531205A005A2D50726F6265204F6685
:101FF0006673657420286D6D293A0A00204400201C
:10200000490020204D333034205000204400204926
:102010000020204D3330312050005049442073655A
:102020007474696E67733A0A0020204D3432302090
:1020300053004175746F20426564204C6576656C71
:10204000696E673A0A00205A0020590020204D325C
:102050003036205800486F6D65206F666673657472
:102060003A0A00204500205A00205900205800203C
:10207000420020540020204D32303520530041646E
:1020800076616E6365643A20533C6D696E5F666588
:102090006564726174653E20543C6D696E5F747254
:1020A0006176656C5F66656564726174653E204249
:1020B0003C6D696E5F7365676D656E745F74696DA5
:1020C000655F6D733E20583C6D61785F78795F6A1B
:1020D00065726B3E205A3C6D61785F7A5F6A65720B
:1020E0006B3E20453C6D61785F655F6A65726B3E53
:1020F0000A0020540020520020204D32303420505D
:1021000000416363656C65726174696F6E20287548
:102110006E6974732F7332293A20503C7072696E65
:10212000745F616363656C3E20523C7265747261DA
:1021300063745F616363656C3E20543C74726176C6
:10214000656C5F616363656C3E0A00204500205A40
:102150000020590020204D3230312058004D617848
:10216000696D756D20416363656C65726174696F3B
:102170006E2028756E6974732F7332293A0A002015
:102180004500205A0020590020204D32303320587D
:10219000004D6178696D756D206665656472617466
:1021A00065732028756E6974732F73293A0A0020AD
:1021B0004500205A0020590020204D393220580077
:1021C00053746570732070657220756E69743A0A75
:1021D0000020204D3230302044300A0020204D3283
:1021E00030302044002044697361626C65640A00E9
:1021F00046696C616D656E742073657474696E6791
:10220000733A002020473231202020203B20556E99
:1022100069747320696E206D6D0A0000002100242E
:102220000027002A002D00300033000101000004C7
:102230000107010A0100002200250028002B002EC2
:10224000003100340002010000050108010B01000B
:102250000020002300260029002C002F003200005F
:102260000100000301060109010505050507050830
:10227000080808020202020A0A0808040404040109
:10228000010101010101010303030303030303042B
:102290000707070C0C0C0C0C0C0C0C0202020206BB
:1022A000060606060606060B0B0B0B0B0B0B0B01AB
:1022B0000210202008081020401020408002010257
:1022C000010804020101020408102040808040201F
:1022D000100804020180040201804020100804025A
:1022E00001080402010102040810204080010204D8
:1022F000081020408000000A0B02090C0D0E080790
:1023000003040100000000000000000000000000C5
:1023100000000000000000000000000000000000BD
:10232000001211100000000000000000000000007A
:1023300000000000000000000000002044697363FA
:10234000726570616E63793A00326E642050726F0C
:102350006265205A3A00203A203C3C3C2072756E5F
:102360005F7A5F70726F62650A0020206375727217
:10237000656E745F706F736974696F6E3D00317361
:10238000742050726F6265205A3A00203A203E3E17
:102390003E2072756E5F7A5F70726F62650A002010
:1023A0002063757272656E745F706F736974696FA4
:1023B0006E3D0050726F62696E67206661696C6580
:1023C000640A004572726F723A003C3C3C207072A5
:1023D0006F62655F70740A00205A3A200020593AF3
:1023E000200042656420583A2000203A200A00204C
:1023F0002063757272656E745F706F736974696F54
:102400006E3D0073746F77290A002C20002C200089
:102410003E3E3E2070726F62655F707428002066D9
:10242000697273740A005A0059005800486F6D654C
:1024300020006563686F3A00544845524D414C2076
:1024400052554E4157415900546865726D616C2078
:1024500052756E6177617900526573656E643A20DA
:10246000006F6B007BA711241FBECFEFD1E2DEBF50
:10247000CDBF00E00CBF13E0A0E0B2E0E8E6F8E674
:1024800001E00BBF02C007900D92AC34B107D9F741
:1024900023E1ACE4B3E001C01D92A233B207E1F73F
:1024A00012E1C3E3D2E100E006C021970109802FC9
:1024B000FE010E94F2B0C233D10780E00807A9F7FD
:1024C0000E9472A00C9432B40C9400002F923F92A0
:1024D0004F925F926F927F928F929F92AF92BF9234
:1024E000CF92DF92EF92FF920F931F93CF93DF93E0
:1024F000CDB7DEB7CC57D1090FB6F894DEBF0FBE0B
:10250000CDBF0091A70A20E6029F800111240F5839
:102510001C4F80915D1180FF1AC0E2E3F4E28491C8
:102520007F013FEFE31AF30A811102C0780104C072
:102530000E944A30F701F3CFD7018D917D018823A6
:1025400019F00E944A30F8CF8AE00E944A3081E0B8
:1025500090E09093E6098093E50910927209109239
:1025600071098FE3809375091092740910927309B1
:102570001092660310926703109268031092690329
:10258000F80180810F5F1F4F8032D1F38E34B1F498
:10259000818190ED980F9A3020F08D3211F08B32BE
:1025A00069F43296DF0131962C9120532A30D0F312
:1025B000CD01FC01019620812032D9F3F093ED0981
:1025C000E093EC097F01BFEFEB1AFB0A10816AE28E
:1025D00070E0C7010E9412B4009731F0FC013197FE
:1025E00080818032E1F311821D3429F0143519F015
:1025F000173409F0CFC0F70180812FEFE21AF20AF9
:102600008032C9F380538A3008F0C4C01093750932
:1026100020917309309174094AE03196429FC001BC
:10262000439F900D1124DF0111972C91022E000C75
:10263000330B20533109280F391F808180538A3092
:1026400060F33093740920937309DF0131968C9104
:102650008032D9F31D3449F00091EC0940917109A1
:102660005091720961E070E058C02E31310591F04F
:102670003CF42731310571F02C31310569F70AC07E
:10268000253731054CF32737310524F0203A43E054
:10269000340711F7B0937209A09371097BC081329E
:1026A00009F445C09FEBB92EB80E89E1A82EAB14F2
:1026B00008F45EC0DF01FD01908111969032D9F3DC
:1026C000A0EDA90FAA3008F047C04F01EB2CF12C68
:1026D0006701A3E0D594C794AA95E1F7C6018A598A
:1026E0009C4F6C018B2D8770DB0102C0AA0FBB1FB2
:1026F0008A95E2F7CD01D6019C91892B8C938114A8
:102700009104A1F1801AC701845B9C4FDC018C927B
:10271000808181548A3188F5DF01FD0131968C91E9
:102720008111BDCF509372094093710933C01D349C
:1027300009F0B8CF2032310509F0B4CFF093720917
:10274000E093710963E270E0CF010E9412B4009738
:1027500009F1DC011C921EC0A3EDA90FA23008F400
:10276000B4CF9B3211F00C94B92BAFCF812CCBCFCF
:102770004115510569F6AD01CBCFDF0131969C9132
:1027800090539A30D0F3CD01FC010196A081A03284
:10279000D9F3C2CF809175098D3411F40C94EC1CDF
:1027A000843511F40C942B2B873411F00C94982B56
:1027B00080917309909174098D31910509F4D2C605
:1027C000D4F48430910544F4823091050CF043C078
:1027D00097FF35C00C94B22B8530910509F440C2A7
:1027E0000CF401C24C9711F00C94B22B80E00E94C3
:1027F0006A810C94B22B8A32910511F40C94001C5E
:102800006CF48332910509F439C78432910509F4D7
:1028100039C74E9711F00C94B22BA8C68B35910591
:1028200009F439C78C35910509F43AC78A35910501
:1028300011F00C94B22B109270030C94B22B809177
:102840002002882311F40C94B22B0E9453770E942B
:102850007A400C94B22B20912002222311F40C9484
:10286000B22B11E0029709F010E00E945377198211
:102870001A821B821C821D821E821F82188682E59C
:102880000E943230882309F42CC10E94D02F6B01A2
:102890007C012091DD113091DE114091DF115091CA
:1028A000E0112AA33BA34CA35DA38090E11190907B
:1028B000E211A090E311B090E4118091020A90918E
:1028C000030AA091040AB091050A8EA39FA3A8A7AA
:1028D000B9A72091060A3091070A4091080A509141
:1028E000090A2AA73BA74CA75DA720E030E0A90171
:1028F000C701B6010E9473AC882309F408C12AA15C
:102900003BA14CA15DA16EA17FA188A599A50E94C4
:1029100073AC81110BC0A50194016AA57BA58CA5A0
:102920009DA50E9473AC882309F4F1C020E030E03B
:10293000A901C701B6010E9473AC881F8827881FB0
:10294000181309C080E090E0A0E8BFE38AAF9BAF16
:10295000ACAFBDAF08C020E030E040E85FEB2AAF8D
:102960003BAF4CAF5DAF2AA13BA14CA15DA16EA1D5
:102970007FA188A599A50E94FAB06AAB7BAB8CAB0E
:102980009DABA50194016AA57BA58CA59DA50E9480
:10299000FAB06EAB7FAB88AF99AF2AA93BA94CA91F
:1029A0005DA9CA01B9010E94D9AC2B013C012EA935
:1029B0003FA948AD59ADCA01B9010E94D9AC9B01EC
:1029C000AC01C301B2010E94FBB00E94A9B36EA783
:1029D0007FA788AB99AB20E030E040E05FE30E9446
:1029E000D9AC2B013C01A7019601C701B6010E9499
:1029F000D9AC6B017C01A3019201C301B2010E9419
:102A0000D9AC9B01AC01C701B6010E94FAB00E948B
:102A1000A9B39B01AC016AAD7BAD8CAD9DAD0E94AD
:102A2000D9AC6B017C012EA13FA148A559A56AA193
:102A30007BA18CA19DA10E94FBB020E030E040E092
:102A40005FE30E94D9AC2B013C016EA97FA988AD40
:102A500099AD90582EA53FA548A959A90E94F5B156
:102A60009B01AC01C701B6010E94D9AC9B01AC012E
:102A7000C301B2010E94FBB02AA13BA14CA15DA100
:102A80000E94FAB069837A838B839C832AA53BA535
:102A90004CA55DA5C501B4010E94FBB020E030E06B
:102AA00040E05FE30E94D9AC2B013C012EA53FA57D
:102AB00048A959A96AA97BA98CA99DA90E94F5B129
:102AC0009B01AC01C701B6010E94D9AC9B01AC01CE
:102AD000C301B2010E94FBB0A50194010E94FAB0AB
:102AE00012C089E40E943230882331F00E94D02F36
:102AF00069837A838B839C838AE40E9432308823A3
:102B000031F00E94D02F6D837E838F83988720E0E1
:102B100030E0A90169817A818B819C810E9473AC2C
:102B200081110CC020E030E0A9016D817E818F8190
:102B300098850E9473AC882309F43BC080E50E940D
:102B40003230882341F00E94AC2F082F8536E8F000
:102B5000E3ECF3E202C000E018C084917F013FEF94
:102B6000E31AF30A882321F00E944A30F701F5CFD7
:102B7000E4EEF2E084917F014FEFE41AF40A882337
:102B800021F00E944A30F701F5CF412FBE016F5F5F
:102B90007F4F002331F08DED91E10E94953C015073
:102BA000F4CF82E09AE00E94953C0E943F300C9462
:102BB000B22BE3ECF3E284918F010F5F1F4F882368
:102BC00021F00E944A30F801F6CFEEECF2E0849159
:102BD0008F010F5F1F4F882311F40C94B22B0E94BA
:102BE0004A30F801F4CF80E50E943230882329F082
:102BF0000E948C2F6B017C0103C0C12CD12C76016B
:102C000083E50E943230882361F00E94D02F20E0BB
:102C100030E04AE754E40E94D9AC0E946EB26B01E6
:102C20007C010E94C3630E943F308091EE09909125
:102C3000EF09A091F009B091F109C80ED91EEA1E62
:102C4000FB1E0E941CA0DC01CB018C199D09AE0962
:102C5000BF09B7FD02C00C94B22B0E94F438F1CF2B
:102C600080912002882311F40C94B22B0E94537798
:102C700089E40E943230882329F00E94D02F2B0152
:102C80003C0103C0412C512C32018AE40E943230B5
:102C9000882329F00E94D02F4B015C0103C0812CB6
:102CA000912C540180E50E943230882329F00E9443
:102CB000D02F6B017C0103C0C12CD12C760181E5A2
:102CC0000E943230882339F00E94D02F6AA37BA360
:102CD0008CA39DA304C01AA21BA21CA21DA25091EA
:102CE000E409E5965FAFE5976091010270910202F9
:102CF000072E000C880B990B0E947AAC20913302AE
:102D00003091340240913502509136020E94D9AC84
:102D10002AE037ED43E25CE30E94D9ACE9966CAF60
:102D20007DAF8EAF9FAFE9978091DD119091DE115D
:102D3000A091DF11B091E0118EA39FA3A8A7B9A71E
:102D4000A3019201BC01CD010E94FBB02B966CAF98
:102D50007DAF8EAF9FAF2B974090E1115090E21165
:102D60006090E3117090E411A5019401C301B201D8
:102D70000E94FBB02F966CAF7DAF8EAF9FAF2F97A9
:102D80002091020A3091030A4091040A5091050AE9
:102D9000C701B6010E94FBB063966CAF7DAF8EAFEA
:102DA0009FAF63972091060A3091070A4091080A65
:102DB0005091090A6AA17BA18CA19DA10E94FBB040
:102DC00067966CAF7DAF8EAF9FAF6797AEA0BFA089
:102DD000C8A4D9A4A982BA82CB82DC824D825E8249
:102DE0006F8278860E941CA09B01AC0128533F4F44
:102DF0004F4F5F4FE3962CAF3DAF4EAF5FAFE397C2
:102E0000FDEC8F2EFCEC9F2EA92CFDE3BF2E1AA209
:102E10001EA21AA61EA60E944D620E941CA08B0133
:102E20009C01E396CCACDDACEEACFFACE3970C19A7
:102E30001D092E093F0937FD0EC09B01AC01285327
:102E40003F4F4F4F5F4FE3962CAF3DAF4EAF5FAF5D
:102E5000E3970E94F438A5019401BAA1AEA1FAA5A6
:102E6000EEA56B2F7A2F8F2F9E2F0E94FBB02B0188
:102E70001C0120E030E040E85FE30E945BB31816DD
:102E800034F4412C512C70E8272EEFE33E2E809134
:102E9000020A9091030AA091040AB091050A6B9668
:102EA0008CAF9DAFAEAFBFAF6B97A090DD11B09070
:102EB000DE11C090DF11D090E0116F96ACAEBDAEC8
:102EC000CEAEDFAE6F973F922F925F924F926B968E
:102ED000ACACBDACCEACDFAC6B976396ECACFDACF0
:102EE0000EAD1FAD63972B962CAD3DAD4EAD5FADD6
:102EF0002B976F966CAD7DAD8EAD9FAD6F970E9499
:102F000045420F900F900F900F906AAB7EAB8AAF47
:102F10009EAFC090060AD090070AE090080AF09091
:102F2000090AA396CCAEDDAEEEAEFFAEA39720911C
:102F3000E1113091E2114091E3115091E411A79613
:102F40002CAF3DAF4EAF5FAFA7973F922F925F92EE
:102F50004F92A396ACACBDACCEACDFACA39767965A
:102F6000ECACFDAC0EAD1FAD67972F962CAD3DAD13
:102F70004EAD5FAD2F97A7966CAD7DAD8EAD9FAD7D
:102F8000A7970E9445420F900F900F900F906FAF40
:102F900021967FAF219722968FAF229723969FAFDE
:102FA000239789819A81AB81BC81AB968CAF9DAF11
:102FB000AEAFBFAFAB97AD80BE80CF80D884AF96A9
:102FC000ACAEBDAECEAEDFAEAF9724961FAE2497AB
:102FD0007AA16EA19AA58EA5272F362F492F582F9B
:102FE000642D752D822D932D0E94FAB02FE632E1CB
:102FF00043E05BE30E9473AC87FF06C02496BFAC3E
:103000002497B110DEC1C4C1242D352D422D532D7E
:10301000BAA1AEA1FAA5EEA56B2F7A2F8F2F9E2F06
:103020000E94FBB020E030E040E05FE30E94D9ACBA
:103030003B014C019F928F937F926F936B96ACAC48
:10304000BDACCEACDFAC6B976396ECACFDAC0EAD1B
:103050001FAD63972B962CAD3DAD4EAD5FAD2B975D
:103060006F966CAD7DAD8EAD9FAD6F970E94454262
:103070000F900F900F900F9025966FAF2597269683
:103080007FAF269727968FAF2797E4969FAFE49759
:103090009F928F927F926F92A396ACACBDACCEAC58
:1030A000DFACA3976796ECACFDAC0EAD1FAD679798
:1030B0002F962CAD3DAD4EAD5FAD2F97A7966CAD65
:1030C0007DAD8EAD9FADA7970E9445420F900F90AA
:1030D0000F900F905B018C012AA93EA94AAD5EAD0D
:1030E000AB966CAD7DAD8EAD9FADAB970E94FBB046
:1030F00020E030E040E05FE30E94D9AC9B01AC01EE
:1031000025966FAD259726967FAD269727968FAD8E
:103110002797E4969FADE4970E94FAB06B017C017B
:10312000E894F7F82FAD21963FAD219722964FAD49
:10313000229723965FAD2397AF966CAD7DAD8EAD94
:103140009FADAF970E94FBB020E030E040E05FE32E
:103150000E94D9AC9B01AC01B501C8010E94FAB034
:103160009B01AC015F77C701B6010E94FBB02DEC5B
:103170003CEC4CEC5DE30E9473AC18160CF03ECFB7
:10318000AFAE2196BFAE219722960FAF229723961E
:103190001FAF23972596CFAC2597CAAA2696DFACFA
:1031A0002697DEAA2796EFAC2797EAAEE496FFAC07
:1031B000E497FEAE2301140121E024962FAF24975B
:1031C00007CFA7019601C701B6010E94FBB09B0182
:1031D000AC01BAA1AEA1FAA5EEA56B2F7A2F8F2F65
:1031E0009E2F0E94FBB0962E872E782E692E20E00F
:1031F00030E040E85FE3D401F3016B2F7A2F8F2F8B
:103200009E2F0E945BB387FFDCC06F927F928F92EC
:103210009F926B96ACACBDACCEACDFAC6B976396BB
:10322000ECACFDAC0EAD1FAD63972B962CAD3DAD58
:103230004EAD5FAD2B976F966CAD7DAD8EAD9FADF6
:103240006F970E9445420F900F900F900F90249619
:103250006FAF249725967FAF259726968FAF269739
:1032600027969FAF27976F927F928F929F92A396F8
:10327000ACACBDACCEACDFACA3976796ECACFDAC10
:103280000EAD1FAD67972F962CAD3DAD4EAD5FAD2A
:103290002F97A7966CAD7DAD8EAD9FADA7970E9481
:1032A00045420F900F900F900F905B018C01249678
:1032B0002FAD249725963FAD259726964FAD26979F
:1032C00027965FAD2797AB966CAD7DAD8EAD9FAD6C
:1032D000AB970E94FBB020E030E040E05FE30E944B
:1032E000D9AC9B01AC016AA97EA98AAD9EAD0E94B2
:1032F000FAB06B017C01E894F7F89501A801AF964C
:103300006CAD7DAD8EAD9FADAF970E94FBB020E060
:1033100030E040E05FE30E94D9AC9B01AC016FADAF
:1033200021967FAD219722968FAD229723969FAD50
:1033300023970E94FAB09B01AC015F77C701B601E9
:103340000E94FBB02DEC3CEC4CEC5DE30E945BB3C7
:103350001816BCF1AFAE2196BFAE219722960FAFE3
:10336000229723961FAF239724963FAD24973AAB1D
:1033700025964FAD25974EAB26965FAD26975AAF53
:1033800027968FAD27978EAF492C582C272C362C9B
:103390007AA16EA19AA58EA5272F362F492F582FD7
:1033A000642D752D822D932D0E94FAB06B017C0146
:1033B0002DEC3CEC4CEC5DE30E945BB318160CF07A
:1033C00000CF7AA16EA19AA58EA5272F362F492F5F
:1033D000582F642D752D822D932D0E94FAB04B012C
:1033E0005C018AA99EA9AAADBEAD89839A83AB83ED
:1033F000BC838FAD21969FAD21972296AFAD2297CA
:103400002396BFAD23978D839E83AF83B887242DEA
:10341000352D422D532D60E070E080E89FE30E943F
:10342000FAB06B017C012091E5113091E6114091D9
:10343000E7115091E8110E94D9AC6AA37BA38CA339
:103440009DA320910A0A30910B0A40910C0A5091D9
:103450000D0A642D752D822D932D0E94D9AC9B01F0
:10346000AC016AA17BA18CA19DA10E94FBB06987E0
:103470007A878B879C872091E9113091EA114091DE
:10348000EB115091EC11C701B6010E94D9AC6B0150
:103490007C0120910E0A30910F0A4091100A509140
:1034A000110A642D752D822D932D0E94D9AC9B019C
:1034B000AC01C701B6010E94FBB06D877E878F8784
:1034C000988BCE0101960E94169F89819A81AB81CB
:1034D000BC818E8B9F8BA88FB98F8D819E81AF8190
:1034E000B8858A8F9B8FAC8FBD8F89859A85AB8578
:1034F000BC858E8F9F8FA8A3B9A3AE01425E5F4F9C
:10350000BE01665E7F4FCE0146960E941453E5963B
:10351000CFACE597E996ECACFDAC0EAD1FADE997ED
:103520009E01235F3F4FAE01425E5F4FBE01665E6C
:103530007F4FCE0146960E94824420E030E040E872
:103540005FE3642D752D822D932D0E9473AC87FF50
:1035500005C04AA25EA22AA63EA65DCC0E94752E98
:103560000C94B22B0E94727B0C94B22B20E030E0C2
:1035700040E050E46091DD117091DE118091DF1127
:103580009091E0110E94FBB06B017C0188E50E94E4
:103590003230882321F00E94D02F6B017C01CE8A2B
:1035A000DF8AE88EF98E20E030E040EF51E4609150
:1035B000E1117091E2118091E3119091E4110E9468
:1035C000FBB06B017C0189E50E943230882321F039
:1035D0000E94D02F6B017C01C982DA82EB82FC82CF
:1035E000409055115090561160905711709058119D
:1035F0002091511130915211409153115091541119
:103600006E897F89888D998D0E94FAB04B015C018B
:103610002BE33FED4FEF5FE30E945BB387FF02C0F8
:103620000C94B22B23E830E04EEF52E4C501B40114
:103630000E9473AC181614F40C94B22BA3019201DF
:10364000C701B6010E94FAB06B017C0124EF3DEF87
:103650004FEE51E40E945BB387FF02C00C94B22B83
:1036600023E830E04EEF52E4C701B6010E9473AC8C
:10367000181614F40C94B22B0C94C32B0E94AB8834
:103680000C94B22B81E00E946A810E94AB880E9458
:10369000727B0C94B22B81E0809370030C94B22B5C
:1036A00085E40E943230B82E811102C00E94C363AB
:1036B00045E5842E42E0942E5DEDC52E51E1D52ED8
:1036C00066EFE62E69E0F62E00E010E0A12CD401B2
:1036D0008D914D010E9432308823F1F1F601208155
:1036E000318142815381EA962FAFEA97EB963FAF43
:1036F000EB97EC964FAFEC97ED965FAFED970E948E
:10370000D02FD6016D937D938D939C931397EA965A
:103710002FADEA97EB963FADEB97EC964FADEC975C
:10372000ED965FADED9703301105B1F00E94FAB050
:103730009B01AC01F70160817181828193810E94BC
:10374000FBB0D7016D937D938D939C931397C80124
:103750000E945130AA24A3940F5F1F4FB4E0CB0EF8
:10376000D11CE4E0EE0EF11C0430110509F0AFCFDE
:10377000AA2019F00E94312F3FC0BB20E9F1C09070
:10378000E911D090EA11E090EB11F090EC1120914A
:103790001D0B30911E0B40911F0B5091200BC70148
:1037A000B6010E94D9AC0E9468B36093291270934D
:1037B0002A1280932B1290932C12C0921912D0923D
:1037C0001A12E0921B12F0921C12C701B6010E945D
:1037D00067B22FB7F89460933C0B70933D0B8093C6
:1037E0003E0B90933F0B2FBF1092091210920A12BA
:1037F00010920B1210920C120E9424560C94B22BB1
:1038000080912002882311F40C94B22B89E40E9449
:103810003230182F882321F00E949C2FF62E01C0F1
:10382000F12C8AE40E943230082F882331F00E9464
:103830009C2FE62E111104C00BC0E12C1123C9F0FE
:10384000F2E0FF1510F00C94B22DECE0F3E005C0AF
:1038500032E0A32EAE14C8F30CC084918F010F5F29
:103860001F4F882311F40C94B22B0E944A30F801A8
:10387000F4CF0E946B2E112341F12091EA0B30917D
:10388000EB0B4F2D4203B001439F700D112480912B
:10389000E60B9091E70B680F791F072E000C880B41
:1038A000990B0E947AAC20915111309152114091A4
:1038B0005311509154110E94FBB06093020A70930F
:1038C000030A8093040A9093050A002341F1209192
:1038D000EC0B3091ED0B5E2D5203B001539F700D38
:1038E00011242091E80B3091E90B620F731F072E12
:1038F000000C880B990B0E947AAC209155113091E5
:10390000561140915711509158110E94FBB060938D
:10391000060A7093070A8093080A9093090A80E5C3
:103920000E9403308823A1F10E94C02F882381F1D7
:103930001123B1F020E030E040E050E46091020A51
:103940007091030A8091040A9091050A0E94FAB0CE
:103950006093020A7093030A8093040A9093050A05
:103960000023B1F020E030E040EF51E46091060A1E
:103970007091070A8091080A9091090A0E94FAB092
:103980006093060A7093070A8093080A9093090AC5
:1039900086E40E9432308823D9F00E94D02F6B0138
:1039A0007C0120E030E0A9010E945BB3181684F48A
:1039B00020E030E040E752E4C701B6010E94F5B1D3
:1039C00060933302709334028093350290933602F1
:1039D0000E947A400C94B22B8091730990917409E3
:1039E000883C910509F434C70CF0A4C08C359105CE
:1039F00009F447C50CF059C08B34910509F414C380
:103A00005CF58231910509F4EEC4CCF497FF02C055
:103A10000C94B22B823091050CF46BC1419711F0DC
:103A20000C94B22B5F988A989FB7F8948091080104
:103A30008E7F809308019FBF12980C94B22B8A321C
:103A4000910509F4ADC28033910509F4E9C24F979D
:103A500011F00C94B22BD2C18235910509F4BAC48D
:103A6000C4F48D34910509F4FDC20CF4E1C2813532
:103A7000910511F00C94B22B0E94ED5F0E94C3637C
:103A80000E94B2381092EC0A1092EB0A00E010E0AB
:103A90008AC48435910509F4A6C40CF49FC4853505
:103AA000910509F4D3C40C94B22B8137910509F424
:103AB000A2C3FCF48B36910509F463C464F489361F
:103AC000910509F4DBC30CF03DC48836910509F477
:103AD000CDC20C94B22B8E36910509F4F6C28F3606
:103AE000910509F405C38D36910511F00C94B22BA4
:103AF0000DC48737910509F41CC664F4833791051A
:103B000009F44EC50CF446C58637910509F4DAC5AB
:103B10000C94B22B8937910509F495C60CF48DC627
:103B20008C38910509F493C38B39910509F4C3C30B
:103B30000C94B22B8039A1E09A0711F40C947226F0
:103B40000CF06BC08D3D910509F42BC7B4F58D3C8D
:103B5000910509F4E4C6ACF48B3C910509F4D9C68F
:103B60000CF0DAC6893C910511F00C94B22B71E08F
:103B7000E72E7BE0F72E05E512E0E4E0DE2ED00E26
:103B8000AFC6833D910509F406C78C3D910509F444
:103B900005C78E3C910511F00C94B22B45E5A42E7F
:103BA00042E0B42E5DEDC52E51E1D52E6EE6E62E37
:103BB0006AE0F62E00E010E0B5C68D32E1E09E0727
:103BC00009F41BC7A4F48E3021E0920711F40C9481
:103BD00018268C3231E0930709F4E6C6823E91053F
:103BE00011F00C94B22B0E9417540C94B22B8F320C
:103BF00041E0940711F40C946F2614F40C941B26E6
:103C00008033A1E09A0711F40C949B2583369140F0
:103C100011F40C94DB2A0C94B22B863FE1E09E0752
:103C200011F40C944028ACF5853A21E0920711F488
:103C30000C94D52684F4823941E0940711F40C9455
:103C4000792614F40C947526843A914011F40C945E
:103C50007D260C94B22B843FB1E09B0711F40C94A9
:103C60003A2814F00C943D288C3A914011F00C94B1
:103C7000B22B5EE6C52E5AE0D52E6DEDE62E61E143
:103C8000F62E7AED272E71E1372E00E010E00C942D
:103C900068278B3823E0920711F40C94B5299CF423
:103CA000833543E0940711F40C945128843853E091
:103CB000950711F40C94A328873F914011F00C94C0
:103CC000B22B0C9443288D38B3E09B0711F40C946D
:103CD000122A14F40C94E1298E38F3E09F0711F4B2
:103CE0000C94D32A873E934011F40C941B2B0C9414
:103CF000B22BE0907109F090720980E50E94323099
:103D0000882359F00E948C2F4B015C0111E0672B36
:103D1000682B692B31F410E004C010E0812C912C49
:103D2000540183E50E943230882399F00E94D02FFD
:103D300020E030E04AE754E40E94D9AC0E946EB221
:103D40004B015C0111110CC0672B682B692B41F4EE
:103D50003CC0111105C0E114F10411F00C94192CB0
:103D600083E090E09093E6098093E50981E08093F9
:103D70006A030E94C3630E943F3081149104A1042E
:103D8000B104A9F18091EE099091EF09A091F00999
:103D9000B091F10975016401C80ED91EEA1EFB1E1F
:103DA0000E941CA0DC01CB018C199D09AE09BF0942
:103DB000B7FD04C010926A030C94B22B80916A0381
:103DC0008823C1F30E94F438EBCFE114F10411F021
:103DD0000C94192C83E090E09093E6098093E50918
:103DE00081E080936A030E94C3630E943F30809108
:103DF0006A038823F9F20E94F438F9CF80914D12BA
:103E000090914E12019719F40E941CA008C0609175
:103E10005712709158128091591290915A12009134
:103E20005312109154122091551230915612601B6A
:103E3000710B820B930B28EE33E040E050E00E94C0
:103E400067B080914F1290915012A0915112B09191
:103E50005212BC01CD01620F731F841F951F2CE30A
:103E6000C22ED12CE12CF12CA70196010E9467B043
:103E7000762E672ECA01B901A70196010E9467B08C
:103E80006B017C01CA01B90128E130E040E050E05B
:103E90000E9467B04B015C01C9016DE671E00E94B0
:103EA000CAB08E010F5F1F4F6115710599F06F92B7
:103EB0007F92DF92CF929F928F929F938F937F9367
:103EC0006F9383E593E09F938F931F930F930E94CB
:103ED00043AC26C0009789F06F927F92DF92CF9219
:103EE0009F928F929F938F9383E493E09F938F93FE
:103EF0001F930F930E9443AC13C081149104A1043B
:103F0000B104B1F06F927F92DF92CF929F928F9225
:103F100087E393E09F938F931F930F930E9443AC8B
:103F20000FB6F894DEBF0FBECDBFE2E3F4E223C0CC
:103F3000C114D104E104F10469F06F927F92DF9221
:103F4000CF928FE293E09F938F931F930F930E94E2
:103F500043ACE6CF6F927F928BE293E09F938F9377
:103F60001F930F930E9443AC0F900F900F900F90F0
:103F70000F900F90DACF84917F01BFEFEB1AFB0A0D
:103F8000882321F00E944A30F701F5CFB80187E677
:103F900093E00E941D428AE00E944A300C94B22BAA
:103FA00083E50E943230882311F40C94B22B0E94D6
:103FB000AC2FE82E80E50E943230882311F40C9457
:103FC000B22B0E949C2F162FC62ED72ED7FE02C0D2
:103FD0000C94B22BE4E7F3E088E28E0F949119176A
:103FE00029F031968E13FACF0C94382CE3ECF3E2DF
:103FF00084918F010F5F1F4F882321F00E944A3068
:10400000F801F6CFECE9F3E084918F010F5F1F4FC9
:10401000882311F40C94B22B0E944A30F801F4CF9B
:104020000E940C830C94B22B0E9458950C94B22BD6
:1040300080914D1290914E12019711F00C94B22B79
:1040400082E090E090934E1280934D120E941CA04B
:1040500060935712709358128093591290935A128A
:104060000C94B22B0E94E2930C94B22B88E690E061
:104070000E94633181110C94B22B80915D1183FFFA
:1040800002C00C94B22B83E50E9432308823C9F021
:104090000E94D02F0E9467B27093580B6093570B09
:1040A00080E00E94A25F0E94D02F20E030E04AEA28
:1040B00052E40E9473AC181614F00E94E2930E941E
:1040C000D02F0E94CFA40C94B22B8EE40E943230E9
:1040D000882311F40C94B22B0E949C2F6093E7125A
:1040E0007093E8128093E9129093EA120C94B22B29
:1040F00083E50E940330882359F083E50E94323023
:10410000882319F00E94AC2F01C080E080935D11DC
:10411000E2E3F4E284918F010F5F1F4F882321F0C7
:104120000E944A30F801F6CFEBEBF3E084918F0167
:104130000F5F1F4F882321F00E944A30F801F6CF0D
:1041400080915D118823A1F18BEAC82E83E0D82EDF
:10415000E12CF12C20E080915D1190E00E2C02C04A
:10416000959587950A94E2F780FF17C0BB24B39416
:10417000B20E222319F08CE20E944A30F6012591FA
:104180003491F901849189010F5F1F4F882321F039
:104190000E944A309801F5CF2B2DFFEFEF1AFF0A4E
:1041A00032E0C30ED11C46E0E416F104A1F61EC0B5
:1041B000E7EBF3E084918F010F5F1F4F8823B1F08D
:1041C0000E944A30F801F6CF8AE50E94033081113F
:1041D0000C946B284091D6115091D7116091D81151
:1041E0007091D91187E896E00E94CB418AE00E9445
:1041F0004A300C94B22B83E50E943230882369F058
:104200000E94AC2F809303028D3310F40C94B22BD8
:104210008CE3809303020C94B22BE2E3F4E28491EA
:104220008F010F5F1F4F882321F00E944A30F80151
:10423000F6CF4091030250E060E070E082EC93E042
:104240000E942E768AE00E944A300C94B22B809114
:104250005D1183FF02C00C94B22B83E50E943230C3
:10426000882311F40C94B22B0E94D02F0E9467B2C5
:104270007093550B6093540B0C94B22B89E690E02D
:104280000E946331811111C0E9ECF3E084918F0148
:104290000F5F1F4F882321F00E944A30F801F6CFAC
:1042A0000E94E3568AE00E944A301092E60910927A
:1042B000E5090C94B92D83E50E943230882311F46E
:1042C0000C94B22B0E94AC2F8093EB098D3318F025
:1042D0008CE38093EB090E941CA06B017C01209170
:1042E000EB0930E0A8EEB3E00E94BBB0DC01CB01EB
:1042F0008C0D9D1DAE1DBF1D8093E7099093E809AD
:10430000A093E909B093EA090C94B22B8DE690E0F2
:104310000E94633181110C94B22B80915D1183FF57
:1043200002C00C94B22B83E50E9432308AA781111F
:104330000C944F2C82E50E94323081110C944F2C4A
:104340000C94B22B83E50E943230882339F00E940E
:104350009C2F8B016F3F710519F010F00FEF10E0EB
:1043600080E50E943230811106C01093EC0A009360
:10437000EB0A0C94B22B0E94AC2F81110C94B22B3F
:10438000F4CF80E50E943230811106C01092EC0A11
:104390001092EB0A0C94B22B0E949C2F672B11F009
:1043A0000C94B22BF3CF62E370E080E090E00E94C7
:1043B000A8930E944D620F5F1F4F0331110599F7BB
:1043C00062E370E080E090E00E94A8930E944D625A
:1043D0000C94B22B10926F030C94B22B81E080935B
:1043E0006F030C94B22B83E50E9432308823A1F036
:1043F0000E94D02F20E030E04AE754E40E94D9AC7C
:104400000E946EB2609304027093050280930602CC
:10441000909307020C94B22B88E50E94033081111F
:104420000C94832D89E50E94033081110C94832D17
:104430008AE50E94033081110C94832D85E40E944B
:10444000033081110C94832D0C94AD2D83E50E94D3
:104450000330882311F40C94B22B0E94D02F20E05B
:1044600030E04AE754E40E94D9AC0E946EB26093F7
:10447000F2097093F3098093F4099093F5090C9471
:10448000B22BA5E5CA2EA2E0DA2EB1E1EB2EBBE0FD
:10449000FB2E10E0D6018D916D010E940330882320
:1044A00009F46DC0133009F063C00E94D02F4B0196
:1044B0005C0120E030E040EA51E40E9473AC87FFE9
:1044C0004EC0A501940160911D0B70911E0B80914F
:1044D0001F0B9091200B0E94F5B12B013C019B0119
:1044E000AC016091BF0A7091C00A8091C10A90919D
:1044F000C20A0E94D9AC6093BF0A7093C00A80932D
:10450000C10A9093C20AA30192016091DB0A7091E3
:10451000DC0A8091DD0A9091DE0A0E94D9AC60939A
:10452000DB0A7093DC0A8093DD0A9093DE0A6091C7
:10453000FD0A7091FE0A8091FF0A9091000B0E9483
:1045400078ACA30192010E94D9AC0E946EB2609334
:10455000FD0A7093FE0A8093FF0A9093000B8092ED
:104560001D0B90921E0BA0921F0BB092200B07C048
:104570000E94D02FF70160837183828393831F5F32
:10458000F4E0EF0EF11C143009F084CF0E94625366
:104590000C94B22B0E94C3630E9424560C94B22B3D
:1045A000EBEAF4E084918F010F5F1F4F882321F025
:1045B0000E944A30F801F6CFEDE9F4E084918F01D2
:1045C0000F5F1F4F882321F00E944A30F801F6CF79
:1045D000E6E8F4E084918F010F5F1F4F882321F0FC
:1045E0000E944A30F801F6CFE6E7F4E084918F01AB
:1045F0000F5F1F4F882321F00E944A30F801F6CF49
:10460000E5E6F4E084918F010F5F1F4F882321F0CE
:104610000E944A30F801F6CFE4E5F4E084918F017E
:104620000F5F1F4F882321F00E944A30F801F6CF18
:10463000E5E4F4E084918F010F5F1F4F882321F0A0
:104640000E944A30F801F6CFE0E3F4E084918F0154
:104650000F5F1F4F882321F00E944A30F801F6CFE8
:10466000EAE1F4E084918F010F5F1F4F882321F06E
:104670000E944A30F801F6CFE5E0F4E084918F0122
:104680000F5F1F4F882321F00E944A30F801F6CFB8
:10469000E8EEF3E084918F010F5F1F4F882321F034
:1046A0000E944A30F801F6CFE0EDF3E084918F01EB
:1046B0000F5F1F4F882311F40C94B22B0E944A30D5
:1046C000F801F4CF85E40E940330882381F00E9432
:1046D000C02F882361F0E2E3F4E284918F010F5F41
:1046E0001F4F882321F00E944A30F801F6CF81E461
:1046F0000E940330882381F00E94C02F882361F03C
:10470000EFE7F5E084918F010F5F1F4F882321F0C1
:104710000E944A30F801F6CF009171091091720998
:10472000D8018D918D01882309F460CD0E944A3013
:10473000F7CFE3EAF5E084918F010F5F1F4F8823E5
:1047400021F00E944A30F801F6CFEBE9F5E08491C0
:104750008F010F5F1F4F882321F00E944A30F8011C
:10476000F6CF659903C005EB12E002C00AEB12E038
:10477000F80181918F01882319F00E944A30F8CF07
:104780008AE00E944A30E3E9F5E084918F010F5FEF
:104790001F4F882321F00E944A30F801F6CF809104
:1047A000030181FD03C005EB12E002C00AEB12E039
:1047B000D8018D918D01882319F00E944A30F8CFDD
:1047C0008AE00E944A30EBE8F5E084918F010F5FA8
:1047D0001F4F882321F00E944A30F801F6CF4A99F2
:1047E00003C005EB12E002C00AEB12E0F801819170
:1047F0008F01882319F00E944A30F8CF8AE00E9486
:104800004A30E3E8F5E084918F010F5F1F4F882362
:1048100021F00E944A30F801F6CF4B9903C005EB16
:1048200012E002C00AEB12E0D8018D918D018823BD
:1048300009F4DCCC0E944A30F7CF81E08093380A3B
:1048400080933F118FC71092380A10923F118AC788
:1048500088EC90E00E946331811184C784E40E9457
:1048600003308823D1F10E94D02F11E020E030E006
:10487000A9010E9473AC811101C010E01093501186
:10488000112359F100916B0310E00E94D02F000F0B
:10489000111F000F111FF801E45BFE4E608371834E
:1048A0008283938320E030E0A90160914C117091E4
:1048B0004D1180914E1190914F110E9473AC811156
:1048C0000CC080E090E0A0E4B0E480934C119093A1
:1048D0004D11A0934E11B0934F110E943A3C42C724
:1048E000F80181918F010E940330882351F00E94CA
:1048F000D02F0E946EB2D7016D937D938D939C93C0
:104900001397B4E0EB0EF11CD012EACF0E941C43C7
:1049100029C70E94025626C70E94995523C70E94A4
:104920002F5520C7F50181915F010E940330882334
:1049300011F10E94D02F2B013C01D7012D913D9107
:104940004D915C910E94FAB09B01AC01F60160812F
:104950007181828193810E94FBB0D6016D937D931A
:104960008D939C931397F7014082518262827382E8
:10497000C8010E9451300F5F1F4FF4E0CF0ED11CD1
:1049800024E0E20EF11C0330110561F60E94312F84
:104990000E942456E7C60E949954E4C60E948D5492
:1049A000E1C60E947254DEC683E50E94323088233D
:1049B00019F00E949C2F02C064E071E07F8B6E8B27
:1049C00080E50E943230882339F00E949C2F69389C
:1049D00033E1730730F402C068EE73E07A836983D1
:1049E00004C088E893E19A838983BE016A5E7F4FA1
:1049F000CE0101960E941692B5C685E40E9432301F
:104A0000811110C080E50E940330882391F00E943C
:104A1000D02F6093440B7093450B8093460B90937B
:104A2000470B07C00E94AC2F882361F3E3ECF3E24D
:104A300071C089E40E940330882381F00E94D02F46
:104A40002CEA35EC47E25EE30E94D9AC6093400B60
:104A50007093410B8093420B9093430B84E40E942C
:104A60000330882381F00E94D02F2CEA35EC47E2F6
:104A70005EE30E94F5B16093480B7093490B8093FD
:104A80004A0B90934B0BE2E3F4E284918F010F5FAA
:104A90001F4F882321F00E944A30F801F6CF409141
:104AA000440B5091450B6091460B7091470B85EC80
:104AB00095E00E94CB412CEA35EC47E25EE3609141
:104AC000400B7091410B8091420B9091430B0E94DF
:104AD000F5B1AB01BC0181EC95E00E944B762CEA6C
:104AE00035EC47E25EE36091480B7091490B809191
:104AF0004A0B90914B0B0E94D9ACAB01BC018DEBE2
:104B000095E00E944B768AE00E944A302BC60E94B4
:104B10004A30F80184918F010F5F1F4F8111F7CF49
:104B200000ED12E0D8018D918D01882309F45ECB50
:104B30000E944A30F7CF80E50E940330882351F06D
:104B40000E94D02F609348117093491180934A11AD
:104B500090934B1189E40E940330882381F00E94D6
:104B6000D02F2CEA35EC47E25EE30E94D9AC60938B
:104B7000441170934511809346119093471184E43A
:104B80000E940330882381F00E94D02F2CEA35EC5C
:104B900047E25EE30E94F5B16093401170934111CA
:104BA0008093421190934311E2E3F4E284918F01E8
:104BB0000F5F1F4F882321F00E944A30F801F6CF83
:104BC000409148115091491160914A1170914B11D7
:104BD00081ED95E00E94CB412CEA35EC47E25EE3A3
:104BE0006091441170914511809146119091471147
:104BF0000E94F5B1AB01BC018DEC95E00E944B76B3
:104C00002CEA35EC47E25EE360914011709141116E
:104C100080914211909143110E94D9ACAB01BC012B
:104C200089EC95E00E944B768AE00E944A309AC552
:104C30000E94E55397C583E50E940330182F88230F
:104C400071F00E94D02F0E9467B27093110260939E
:104C5000100221E0672B09F020E02093AA0A80E5EA
:104C60000E940330882359F02091100230911102E4
:104C7000232B11F00E94C02F8093AA0A73C5111133
:104C800071C5E2E3F4E284918F010F5F1F4F882327
:104C900021F00E944A30F801F6CF8091AA0A8111D2
:104CA00003C064EC72E002C067EB72E08AEE95E04C
:104CB0000E941D42609110027091110289ED95E0F1
:104CC0000E94E841E5EDF5E084918F010F5F1F4FF1
:104CD000882309F447C50E944A30F801F5CF0E94A5
:104CE000355740C50E94C3633DC581E00E94337AB9
:104CF00039C580E00E94337A35C586E50E940330CD
:104D0000882341F08091EA0B9091EB0B892B11F0F5
:104D10000E94FFA483E50E940330182F882319F016
:104D20000E94C02F182F83E50E940330882319F0BA
:104D3000812F0E940379F090A90A111103C0E2E3C8
:104D4000F4E21AC0F110FBCFE3ECF3E284918F019F
:104D50000F5F1F4F882321F00E944A30F801F6CFE1
:104D6000EBE0F6E084918F010F5F1F4F882339F34A
:104D70000E944A30F801F6CF84918F010F5F1F4FD8
:104D8000882321F00E944A30F801F6CFF11003C0C9
:104D90006CEC72E002C068EC72E08DEF95E00E946E
:104DA0001D428AE00E944A30DDC489E40E9432300C
:104DB000882321F00E949C2F062F01C00FEF8AE468
:104DC0000E943230882321F00E949C2F162F01C0B0
:104DD0001FEF8AE50E940330F82E811105C081E59E
:104DE0000E940330D82E01C0D12C07FD02C017FF4E
:104DF00003C0E3ECF3E205C0F1101AC0D11018C0F3
:104E0000F8CF84918F010F5F1F4F882321F00E94FC
:104E10004A30F801F6CFE9E4F6E084918F010F5FA4
:104E20001F4F882309F49EC40E944A30F801F5CF31
:104E3000033018F0E3ECF3E206C01330D8F716C0E5
:104E40000E944A30F80184918F010F5F1F4F81113A
:104E5000F7CFEAE2F6E084918F010F5F1F4F8823BE
:104E600009F480C40E944A30F801F5CFE02E000F0B
:104E7000FF08012F110F110B0E94D02FD701AA0F8D
:104E8000BB1FDD2081F0FD01EE0DFF1DE00FF11FC6
:104E9000EE0FFF1FEE0FFF1FEE54FE4E20813181FB
:104EA0004281538103C020E030E0A901EA0EFB1EDD
:104EB0000E0D1F1D000F111F000F111F0E541E4E4F
:104EC0000E94FBB0F80160837183828393834AC49C
:104ED00091012A5D31413BA32AA3D1018D911D018E
:104EE000882309F49AC0F701408051806280738062
:104EF000F801E55CFD4F2081318142815381F80149
:104F0000E551FD4E60817181828193810E94FBB0E9
:104F100020E030E040E05FE30E94D9AC9B01AC01AF
:104F2000C301B2010E945BB3181644F4F801EA54BD
:104F3000F54F85909590A590B49003C0812C912C4D
:104F40005401F801EF5AFE4E208131814281538194
:104F5000C301B2010E94FAB09B01AC01C501B401CA
:104F60000E94FAB04B015C0120E030E040EA51ECD5
:104F70000E945BB387FD29C020E030E040EA51E4A5
:104F8000C501B4010E9473AC1816FCF0D6012D9136
:104F90003D914D915C91C501B4010E94FAB09B0115
:104FA000AC01C301B2010E94FBB0F70160837183C1
:104FB00082839383D6018D929D92AD92BC9213977A
:104FC0008AA19BA10E94513028C0E3ECF3E28491B6
:104FD0008F010F5F1F4F882321F00E944A30F80194
:104FE000F6CFE9E6F6E084918F010F5F1F4F88232B
:104FF00021F00E944A30F801F6CF88E290E09A83CF
:10500000898388EC90E09F8B8E8BBE016F5F7F4F12
:10501000CE0146960E941692A5C3B4E0CB0ED11CD9
:105020000C5F1F4FE4E0EE0EF11C0C30110509F08F
:105030004FCF0E94312F0E94245683E992E09F8B2C
:105040008E8B04E610E01A830983BE016A5E7F4FEF
:10505000CE0101960E9416928AEB92E09F8B8E8B76
:105060001A830983BE016A5E7F4FCE0101960E94BA
:10507000169278C30E94ED6875C30E94CD6372C317
:105080000E94F38D6FC383E50E940330882319F0DB
:105090000E94C02F01C081E091E089270E94FC8915
:1050A00061C3E2E3F4E284918F010F5F1F4F882315
:1050B00021F00E944A30F801F6CFE1EAF6E084914F
:1050C0008F010F5F1F4F882311F40C94E4200E947E
:1050D0004A30F801F4CF0E94D02F6B017C0120E010
:1050E00030E040EA51EC0E945BB387FD1EC020E037
:1050F00030E040EA51E4C701B6010E9473AC1816D3
:10510000A4F0C092D611D092D711E092D811F092AB
:10511000D9110E94C3956091D6117091D7118091D9
:10512000D8119091D91142E00EC1EAE8F6E08491DD
:105130008F010F5F1F4F882311F40C94F6200E94FB
:105140004A30F801F4CF0E94C3638BE40E943230EE
:10515000882399F00E94D02F6B017C0120E030E081
:10516000A9010E945BB387FD08C0C092AF0AD0922C
:10517000B00AE092B10AF092B20A82E50E9432309F
:10518000882361F00E94D02F6B017C0120E030E089
:10519000A9010E9473AC87FF89C006C0C12CD12C25
:1051A00040E8E42E4FEBF42E84E40E943230882352
:1051B00029F00E94D02F4B015C0106C0812C912C5C
:1051C00030E8A32E3FEBB32E87E50E9432308823D0
:1051D00029F00E94D02F2B013C0106C0412C512CFC
:1051E00020E8622E2FEB722E88E40E943230882352
:1051F00039F00E94D02F6AA37BA38CA39DA308C083
:1052000020E030E040E85FEB2AA33BA34CA35DA382
:1052100020E030E0A901C501B4010E945BB387FD25
:1052200045C020E030E0A901C301B2010E945BB398
:1052300087FD3CC020E030E0A9016AA17BA18CA1E0
:105240009DA10E945BB387FD31C020E030E0A90141
:10525000C501B4010E9473AC882391F120E030E0D5
:1052600040E05FE3C501B4010E94D9AC6B017C0151
:105270002AA13BA14CA15DA1C301B2010E94D9ACFE
:105280004B015C01A7019601C701B6010E94D9AC90
:105290002BED3FE049E450E40E94D9AC9B01AC0106
:1052A000C501B4010E94F5B16B017C0120E030E042
:1052B000A901C701B6010E945BB387FF04C00BC000
:1052C000C12CD12C7601C092AB0AD092AC0AE092EC
:1052D000AD0AF092AE0AE2E3F4E284918F010F5F2F
:1052E0001F4F882321F00E944A30F801F6CF4091E9
:1052F000AF0A5091B00A6091B10A7091B20A86EB80
:1053000096E00E94CB41E0EBF6E084918F010F5FC5
:105310001F4F882321F00E944A30F801F6CFC09039
:10532000AB0AD090AC0AE090AD0AF090AE0A20E053
:1053300030E0A901C701B6010E9473AC882339F09F
:1053400042E0C701B6010E9484330C94F620EBEAD8
:10535000F6E084918F010F5F1F4F882311F40C94A6
:10536000F6200E944A30F801F4CF83E50E94033012
:10537000811106C095E5E92E92E0F92E10E012C0E9
:105380000E94D02F6B017C0110E0B701A601812F94
:105390000E9437631F5F1530C1F7ECCF1F5F1430D9
:1053A00009F4E0C1D7018D917D010E94033088236B
:1053B000A9F30E94D02FAB01BC01812F0E9437635B
:1053C000EDCF83E50E943230882321F00E949C2F8C
:1053D0008B0102C000E010E080E50E94323088239B
:1053E00019F00E94AC2F01C08FEF90916A0A9923A7
:1053F00009F4B8C1E82FF0E0E75AFD4FE081F0E092
:10540000EE0FFF1FEE59F54FC8010130104110F0AB
:1054100080E090E1918380830E94AF9988E00E94B0
:105420009E99A0C180916A0A882309F49BC1E2E396
:10543000F4E284918F010F5F1F4F882321F00E94B7
:105440004A30F801F6CFE0EEF6E084918F010F5F6D
:105450001F4F882321F00E944A30F801F6CFE2E383
:10546000F4E284918F010F5F1F4F882321F00E9487
:105470004A30F801F6CF6091660A7091670A80E0C1
:1054800090E00E9478AC20E030E048EC52E40E94CA
:10549000D9AC20E030E040E859E30E94D9ACAB0140
:1054A000BC018CED96E00E94CB4180E00E94166327
:1054B000AB01BC0189ED96E00E94CB416091680A86
:1054C0007091690A80E090E00E9478AC20E030E0C2
:1054D00048EC52E40E94D9AC20E030E040E859E3C7
:1054E0000E94D9ACAB01BC0184ED96E00E94CB4197
:1054F00081E00E941663AB01BC0181ED96E00E9441
:10550000CB416091620A7091630A80E090E00E9452
:1055100078AC20E030E048EC52E40E94D9AC20E0C6
:1055200030E040E859E30E94D9ACAB01BC018CECFF
:1055300096E00E94CB4182E00E941663AB01BC0161
:1055400089EC96E00E94CB416091640A7091650AF3
:1055500080E090E00E9478AC20E030E048EC52E43B
:105560000E94D9AC20E030E040E859E30E94D9AC79
:10557000AB01BC0184EC96E00E94CB4183E00E9429
:105580001663AB01BC0181EC96E00E94CB4101EEB9
:1055900012E0F80181918F01882311F40C94F62018
:1055A0000E944A30F6CF80916A0A882309F4DAC053
:1055B0000E94F999D7C080E50E943230882331F0EB
:1055C0000E94AC2F80936C0A11E001C010E083E5CB
:1055D0000E943230882329F00E94C02F80936D0AE8
:1055E00001C011110E94D553E2E3F4E284918F01CE
:1055F0000F5F1F4F882321F00E944A30F801F6CF39
:1056000080916D0A81110CC003EE12E0D8018D91DA
:105610008D01882311F40C94F6200E944A30F6CFB5
:1056200060916C0A70E085E097E00E94E8418AE0B2
:105630000E944A3097C081E08093200283E50E9457
:105640000330811103C00E94CC9F8CC00E94C02FE8
:10565000811188C0F8CF6091730970917409F62E9A
:1056600080915D1185FF11C077278EE697E00E943B
:10567000E84189E20E944A308AE00E944A306FE4A1
:1056800077E08AE597E00E94BF94FF2019F1E2E3FA
:10569000F4E284918F010F5F1F4F882321F00E9455
:1056A0004A30F801F6CF84E50E944A306F2D70E051
:1056B00080E090E04AE00E94FB3080E20E944A30A5
:1056C00000ED12E0F80181918F018823C1F00E9462
:1056D0004A30F8CF1092E409E2E3F4E284918F01BA
:1056E0000F5F1F4F882321F00E944A30F801F6CF48
:1056F0006091E40970E082E197E00E94E8418AE06D
:105700000E944A3080915D1185FF2CC061E377E0F3
:105710008BE397E00E94BF94E4E2F7E084918F016D
:105720000F5F1F4F8823F1F00E944A30F801F6CF37
:10573000E2E3F4E284918F010F5F1F4F882321F091
:105740000E944A30F801F6CF6091EC097091ED09A2
:105750008BE797E00E941D4282E20E944A308AE075
:105760000E944A301092E6091092E5090E94AD9F0E
:1057700000C24115510519F4AF0141505109812C66
:10578000912C0C94661380E00E9403790E940F7B99
:1057900083E50E940330882309F449C00E94C02F8A
:1057A00021E0482FBE016F5F7F4FCE0146960E94D9
:1057B000858F6B017C019B01AC010E94EDB38111CF
:1057C00031C02CEA35EC47E257E36E897F89888D3A
:1057D000998D0E94FBB0AB01BC0184E093E00E9474
:1057E0004B762CEA35EC47E257E369817A818B816D
:1057F0009C810E94FBB0AB01BC018FEF92E00E9444
:105800004B762CEA35EC47E257E3C701B6010E941C
:10581000FBB0AB01BC018AEF92E00E944B768AE0BC
:105820000E944A300E94EB7A0E9424569BCF81E06E
:10583000B7CFD7018C91882311F40C94B01EE2E30A
:10584000F4E284918F010F5F1F4F882321F00E94A3
:105850004A30F801F6CFF70181917F01882319F0D2
:105860000E944A30F8CF8AE00E944A300C94B01E61
:1058700061E0812F0E94A3926E2D812F0E9473926E
:10588000F12CB701812F0E94DF92F7E0CF16D104EF
:1058900009F068CFF092EC0AE092EB0A63CF0E9425
:1058A000D02F0E9467B27093580B6093570B80E023
:1058B0000E94A25F0E94D02F20E030E04AEA52E42A
:1058C0000E9473AC18161CF00E94E29302C00E9462
:1058D00058950E94CFA481E0809300021EA21FA2CF
:1058E00018A619A61EA61FA618AA19AA1AA21AAAAD
:1058F0005CE35EAB8CE18AAF96E49EAFC12CD12C09
:1059000010E8E12E0FEBF02E812C912C54016091C8
:10591000570B7091580B072E000C880B990B0E94A7
:105920007AAC162F072F782E692E262F372F482F67
:10593000592FB601C7010E9473AC8823D1F0209182
:105940005E0B30915F0B4091600B5091610B612FAA
:10595000702F872D962D0E9473AC881F8827881F73
:105960008AA3CAA4CC2049F0882339F08091000290
:10597000F9CE1C2D0D2D7E2C6F2C0E941CA06B01CE
:105980007C01DC01CB012EA53FA548A959A9821BAA
:10599000930BA40BB50BB7FD3BC0D701C6018851D3
:1059A0009C4FAF4FBF4F8EA79FA7A8ABB9AB0E942C
:1059B000E356ECECF3E084912F019FEF491A590A6A
:1059C000882321F00E944A30F201F5CF811491041E
:1059D000A104B104B9F0D501C401805F984DAF4F67
:1059E000BF4FBC01CD016C197D098E099F0928EEBE
:1059F00033E040E050E00E9467B0CA01B9010E9464
:105A0000A53103C08FE30E944A308AE00E944A30E9
:105A10000E94F4380E943F3020905E0B30905F0B64
:105A20004090600B5090610B9101A201612F702F8B
:105A3000872D962D0E94FAB09F7781149104A104BE
:105A4000B10449F420E030E040E85FE30E9473AC29
:105A500087FF0BC008C020E030E040E450E40E9423
:105A60005BB3181614F446015701AAA1AA2379F1D1
:105A70002EA13FA148A559A5211531054105510584
:105A800041F0D701C601821B930BA40BB50BB7FDE8
:105A90001EC09101A2016AA97EA98AAD9EAD0E9495
:105AA000FAB020E030E040EC5FE30E9473AC87FD89
:105AB0005DCFD701C601805A9541AF4FBF4F8EA32E
:105AC0009FA3A8A7B9A72AAA3EAA4AAE5EAE809114
:105AD0000002882309F44ACF81149104A104B1047F
