:100000000C9428100C9459100C9459100C945910FD
:100010000C9459100C9459100C9459100C945910BC
:100020000C9459100C9459100C9459100C945910AC
:100030000C9459100C9459100C9459100C9459109C
:100040000C9459100C94C4420C9459100C945910EF
:100050000C9459100C9459100C9436310C94F4945F
:100060000C9459100C94B4590C94895A0C9459104E
:100070000C9459100C9459100C9459100C9459105C
:100080000C9459100C9459100C9459100C9459104C
:100090000C9459100C9459100C9459100C94792EFE
:1000A0000C9459100C9459100C9459100C9459102C
:1000B0000C9459100C9459100C9459100C9459101C
:1000C0000C9459100C9459100C9459100C9459100C
:1000D0000C9459100C9459100C9459100C945910FC
:1000E0000C945910E759EE59025A0F5A195A345ABA
:1000F0001E5A345A235A285A345A305ABC92BF9244
:10010000AE92B292B892F692C392C792CD92D19229
:10011000D592DB92DF92E392F692E992ED92F19220
:100120000E941394189422942C94A59436943E948F
:10013000469450945A94649473947D94A5948794AF
:1001400091949B94084AD73B3BCE016E84BCBFFD83
:10015000C12F3D6C74319ABD56833DDA3D00C77F97
:1001600011BED9E4BB4C3E916BAAAABE0000008030
:100170003F05A84CCDB2D44EB93836A9020C50B9BF
:10018000918688083CA6AAAA2ABE000000803F00EB
:100190000C9446940C94B8920C945A940C94229417
:1001A0000C94BC920C94AE920C94B2920C94D59296
:1001B0000C9491940C94C62C0C94BF920C94DF92E6
:1001C0000C9418940C94CD920C94195A0C94F692A9
:1001D0000C94235A0C9413940C94285A0C94962C37
:1001E0000C946B2C0C9436940C94F1920C94C39256
:1001F0000C94DB920C9487940C940E940C943355CD
:100200000C94A5940C94345A0C94EE590C947A2CBA
:100210000C947D940C94C7920C94305A0C942C94AA
:100220000C94ED920C946A2C0C9450940C948E2C9B
:100230000C940F5A0C94E3920C941E5A0C947394E1
:100240000C94D1920C940B9F0C949B940C94F62CD0
:100250000C943E940C94E9920C94E7590C94649499
:100260000C94025A4E414E494E495459494E46CD7E
:10027000CCCC3D0AD7233C17B7D13877CC2B32955D
:1002800095E6241FB14F0A000020410000C842003B
:10029000401C4620BCBE4CCA1B0E5AAEC59D7443C2
:1002A0004F4D4D554E49434154494F4E00445259CC
:1002B00052554E004552524F525300494E464F0040
:1002C0004543484F002569730025696D20256973F2
:1002D000002569682025696D2025697300256964FA
:1002E000202569682025696D2025697300256979B5
:1002F00020256964202569682025696D202569739A
:10030000005072696E742074696D653A20000001B6
:1003100036372603FF3C3D38FF0E2E303E1312FFCA
:10032000FF080706FF061A1C18FFFF08440A0B43C4
:10033000FFFFFFFFFFFF50726F74656374656420F9
:1003400050696E0A003D003F2061646472657373FA
:10035000203A2000206279746573206F66206D65F5
:100360006D6F727920696E697469616C697A656410
:100370002E0A0A00556E61626C6520746F20696EEA
:10038000697469616C697A652E0A0A00496E69743C
:1003900069616C697A696E672066726565206D6552
:1003A0006D6F727920626C6F636B2E0A0A0A00749B
:1003B0007275650A002072657475726E3D000A4D93
:1003C000656D6F727920436F7272757074696F6EAC
:1003D00020646574656374656420696E2066726567
:1003E00065206D656D6F727920617265612E0A00FE
:1003F0002020626C6F636B5F666F756E643D0020DA
:100400002020002920666F756E643D0020280020A2
:100410007370203C204865617020002073703D009F
:100420000A5F5F6273735F656E643A20003D000A85
:10043000265F5F62726B76616C3A20000A666D63BC
:100440002829206E3D00636865636B5F666F725F8D
:10045000667265655F6D656D6F72795F636F7272ED
:10046000757074696F6E2829203D200020627974B0
:10047000657320617420000A4C6172676573742093
:100480006672656520626C6F636B20697320000A79
:100490004D656D6F727920436F7272757074696FFC
:1004A0006E20646574656374656420696E2066728D
:1004B0006565206D656D6F727920617265612E0AC8
:1004C000002062797465732066726565206174200E
:1004D00000466F756E6420000A436F727275707407
:1004E000696E6720616464726573733A2000436FBC
:1004F0007272757074696E672066726565206D65CD
:100500006D6F727920626C6F636B2E0A0A000A535A
:100510007461636B20506F696E746572203A2000BD
:100520000A7374617274206F662066726565207349
:1005300070616365203A20000A5F5F6273735F65D4
:100540006E64203A20000A5F5F62726B76616C20F5
:100550003A2000C002BB02B402AD029F026F666681
:100560000044454255473A004D3131332053006F26
:100570006B0020573A004361703A454D455247455C
:100580004E43595F5041525345523A310A0043613C
:10059000703A434153455F4C494748545F42524982
:1005A0004748544E4553533A310A004361703A5418
:1005B0004F47474C455F4C49474854533A310A002E
:1005C0004361703A534F4654574152455F504F571D
:1005D00045523A300A004361703A4C4556454C4901
:1005E0004E475F444154413A310A004361703A5AE0
:1005F0005F50524F42453A310A004361703A4155CB
:10060000544F4C4556454C3A310A004361703A50BC
:1006100052494E545F4A4F423A310A004361703AA0
:1006200050524F47524553533A300A004361703A93
:100630004155544F5245504F52545F54454D503AD6
:10064000310A004361703A454550524F4D3A310AE4
:10065000004649524D574152455F4E414D453A4D36
:1006600061726C696E204D61726C696E5F312E3102
:100670002E365F526F626F56657273696F6E5F31AF
:100680002E322E3420526F626F20523220534F553B
:100690005243455F434F44455F55524C3A6874742A
:1006A00070733A2F2F6769746875622E636F6D2FB0
:1006B000526F626F33442F4D61726C696E205052DD
:1006C0004F544F434F4C5F56455253494F4E3A316A
:1006D0002E30204D414348494E455F545950453ACC
:1006E00020526F626F205232204558545255444573
:1006F000525F434F554E543A3120555549443A6361
:10070000656465326132662D343161322D3437349F
:10071000382D396231322D633535633632663336E2
:100720003766660A002F2F20007A5F6D61783A20C5
:10073000007A5F6D696E3A2000795F6D61783A20CA
:1007400000785F6D696E3A20005265706F7274694F
:100750006E6720656E6473746F7020737461747556
:10076000730A0020643A0020693A0020703A0020A1
:10077000643A0020693A0020703A0043757272654D
:100780006E743A200043290A0061626C6564202877
:100790006D696E2074656D702000436F6C64206518
:1007A000787472756465732061726520004B6420F3
:1007B0000023646566696E65202044454641554CBA
:1007C000545F004B69200023646566696E652020D4
:1007D00044454641554C545F004B702000236465EE
:1007E00066696E65202044454641554C545F005073
:1007F0004944204175746F74756E652066696E6931
:1008000073686564212050757420746865206C617C
:100810007374204B702C204B6920616E64204B64F4
:1008200020636F6E7374616E74732066726F6D20D7
:1008300062656C6F7720696E746F20436F6E6669B6
:100840006775726174696F6E2E680A0050494420A2
:100850004175746F74756E65206661696C6564219D
:100860002074696D656F75740A00504944204175A4
:10087000746F74756E65206661696C6564212054BF
:10088000656D706572617475726520746F6F206834
:100890006967680A00204B643A2000204B693A20BF
:1008A00000204B703A20000A20436C617373696327
:1008B00020504944200A002054753A2000204B75EE
:1008C0003A2000206D61783A2000206D696E3A2050
:1008D0000020643A200020626961733A200042657A
:1008E00064204C6576656C696E6720004661696CB2
:1008F000656420746F20656E61626C65204265647A
:10090000204C6576656C696E670A004D65736820DA
:10091000706F696E742063616E6E6F742062652003
:100920007265736F6C7665640A004D3432312069EC
:100930006E636F727265637420706172616D65744D
:1009400065722075736167650A00546F6F20666178
:10095000722066726F6D207265666572656E636582
:1009600020706F696E740A003A20007A5F6D696EBC
:100970003A20202D3230207A5F6D61783A20203283
:1009800030005A204F6666736574200041637469B5
:1009900076652045787472756465723A2000556EEC
:1009A0006B6E6F776E20636F6D6D616E643A20229F
:1009B00000736C6F743A0070012C0190012701B034
:1009C000012201C0011D01F00118011002130130C4
:1009D000020E016002090190020401C002FF000042
:1009E00003FA004003F5008003F000D003EB002081
:1009F00004E6007004E100E004DC004005D700C01C
:100A000005D2004006CD00D006C8008007C30030E4
:100A100008BE00F008B900C009B400B00AAF00B0C9
:100A20000BAA00D00CA500000EA000500F9B00C028
:100A30001096005012910000148C00C0158700B071
:100A4000178200B0197D00D01B7800001E73004093
:100A5000206E0090226900F024640040275F00901F
:100A6000295A00E02B5500102E500020304B00106A
:100A7000324600E033410090353C001037370070BB
:100A8000383200A0392D00B03A2800A03B23006086
:100A90003C1E00103D1900903D1400103E0F0070E8
:100AA0003E0A00C03E0500003F0000403FFBFF80C3
:100AB0003FF6FFC03FF1FF2028002920453A0020E3
:100AC000280029205A3A002028002920593A0020DD
:100AD000280020583A005374657070657220637561
:100AE0007272656E742076616C75657320696E2014
:100AF000252028416D7073293A0A000B0BFFFFFF78
:100B000000000202026265640A002C20737973748B
:100B1000656D2073746F7070656421204865617421
:100B200065725F49443A200048656174696E6720C8
:100B30006661696C65640048656174696E6720660A
:100B400061696C6564004572723A204D494E5445A6
:100B50004D50004D494E54454D50207472696767A1
:100B600065726564004572723A204D415854454D96
:100B700050004D415854454D502074726967676567
:100B80007265640020746F6F206C6F6E67206578EB
:100B900074727573696F6E2070726576656E7465B8
:100BA000640A0020636F6C642065787472757369E1
:100BB0006F6E2070726576656E7465640A0062758A
:100BC00073793A2070617573656420666F7220696D
:100BD0006E7075740A00627573793A20706175736E
:100BE000656420666F7220757365720A00627573A2
:100BF000793A2070726F63657373696E670A004B90
:100C0000494C4C45442E20004B494C4C20636175A7
:100C1000736564206279204B494C4C206275747472
:100C20006F6E2F70696E0A004B494C4C45442E2064
:100C3000004B494C4C2063617573656420627920D8
:100C4000746F6F206D75636820696E616374697677
:100C5000652074696D65202D2063757272656E74F0
:100C600020636F6D6D616E643A20005072696E741E
:100C700065722068616C7465642E206B696C6C28E9
:100C8000292063616C6C6564210A0000000000008B
:100C900000FE420000204300005C4200005C420075
:100CA000007041000000005761726E696E673A2063
:100CB000486F6D696E672042756D70204469766972
:100CC000736F72203C20310A000202030000A04032
:100CD0000000A040000000400000FE420000FE4274
:100CE00000002043FF01014572726F722077726924
:100CF00074696E6720746F20454550524F4D210A2C
:100D0000004B494C4C45442E2000202D20496E7646
:100D1000616C6964206578747275646572206E75A3
:100D20006D62657220210A002020506C616E6E6534
:100D30007242756666657242797465733A20002066
:100D400046726565204D656D6F72793A2000436F7C
:100D50006D70696C65643A204175672031392032C5
:100D60003031380A00207C20417574686F723A2057
:100D7000526F626F0A0031342046454220323031D2
:100D80003800204C61737420557064617465643A56
:100D900020004D61726C696E5F312E312E365F52CC
:100DA0006F626F56657273696F6E5F312E322E34CB
:100DB0000A004D61726C696E0020536F6674776132
:100DC00072652052657365740A0020576174636808
:100DD000646F672052657365740A002042726F77F2
:100DE0006E206F75742052657365740A0020457813
:100DF0007465726E616C2052657365740A00506F81
:100E000077657255700A0073746172740A00205A13
:100E10003A0020593A0020583A00656E6473746FA6
:100E20007073206869743A200024F4D43050C38E63
:100E300020C2A24017828B7011127A910D816CD959
:100E40000AA861E108C7586607615143061E4B5D59
:100E500005C145A7041A411104093D9803713931B0
:100E6000034036DB0265339102D4305402802E1DDC
:100E700002632CEE01752AC501B028A0011027815C
:100E8000018F2564012B244B01E0223401AC211F8A
:100E9000018D200D01801FFC00841EED00971DDFD9
:100EA00000B81CD200E61BC600201BBC00641AB2AE
:100EB00000B219A8000A19A0006A189900D1179168
:100EC0000040178B00B516840031167E00B31579EB
:100ED000003A157300C7146F0058146A00EE1366C9
:100EE000008813630025135E00C7125B006C125765
:100EF0000015125400C111510070114F0021114B07
:100F000000D61049008D10470046104400021042E0
:100F100000C00F4000800F3E00420F3C00060F3B18
:100F200000CB0E3800930E37005C0E3500270E34D0
:100F300000F30D3200C10D3100900D3000600D2E18
:100F400000320D2D00050D2C00D90C2B00AE0C2904
:100F500000850C29005C0C2700350C27000E0C26A0
:100F600000E80B2400C40B2400A00B23007D0B23FE
:100F7000005A0B2100390B2100180B2000F80A1F22
:100F800000D90A1E00BB0A1E009D0A1D00800A1D12
:100F900000630A1C00470A1B002C0A1B00110A1AD6
:100FA00000F7091A00DD091900C4091900AB091975
:100FB00000920917007B091800630917004C0916F5
:100FC0000036091600200916000A091500F5081553
:100FD00000E0081400CC081400B8081400A4081499
:100FE00000900813007D0812006B081300580812C7
:100FF00000460812003408110023081100120811DD
:101000000001081100F0071000E0071000D00710E1
:1010100000C0071000B0070F00A107100091070ED5
:101020000083070F0074070F0065070E0057070EB7
:101030000049070E003B070D002E070E0020070D8C
:101040000013070D0006070D00F9060C00ED060D54
:1010500000E0060C00D4060C00C8060C00BC060C10
:1010600000B0060C00A4060B0099060C008D060BC0
:101070000082060B0077060B006C060B0061060A67
:101080000057060B004C060A0042060A0038060A02
:10109000002E060A0024060A001A060A0010060995
:1010A0000007060A00FD050900F4050900EB050923
:1010B00000E2050900D9050900D0050900C70509A6
:1010C00000BE050900B5050800AD050800A5050925
:1010D000009C050800940508008C0508008405089C
:1010E000007C050800740508006C0507006505080C
:1010F000005D050700560508004E05070047050777
:10110000004005080038050700310507002A0507DB
:1011100000230507001C050600160507000F05073C
:10112000000805060002050700FB040600F5040799
:1011300000EE040600E8040600E2040700DB0406F3
:1011400000D5040600CF040600C9040600C3040647
:1011500000BD040600B7040600B1040500AC040697
:1011600000A6040600A00405009B040600950405E3
:1011700000900406008A040500850405008004062A
:10118000007A04050075040500700405006B040571
:101190000066040500610405005C040500570405B1
:1011A00000520405004D04050048040500430405F1
:1011B000003E0404003A0405003504050030040430
:1011C000002C04050027040400230405001E040469
:1011D000001A04040016040500110404000D0404A0
:1011E00000090405000404040000040400FC0304D6
:1011F00000F8030400F4030400F0030400EC03040B
:1012000000E8030400E4030400E0030400DC03043A
:1012100000D8030400D4030400D0030400CC03046A
:1012200000C8030300C503030024F404D9201BC431
:101230000C5C0E9804C4095F0265077101F405F99E
:1012400000FB04B30048048700C10369005803553C
:101250000003034500BE023A008402310053022A13
:10126000002902250004022000E4011C00C8011925
:1012700000AF0117009801140084011300710110E0
:10128000006101100051010E0043010D0036010BF9
:10129000002B010B0020010B00150109000C0109B6
:1012A0000003010800FB000800F3000800EB000742
:1012B00000E4000600DE000600D8000600D20006AA
:1012C00000CC000500C7000500C2000500BD0004F9
:1012D00000B9000400B5000400B1000400AD000432
:1012E00000A9000400A5000300A20003009F000461
:1012F000009B000300980003009500020093000388
:1013000000900003008D0002008B000300880002A3
:10131000008600020084000300810002007F0002BA
:10132000007D0002007B00020079000200770001CE
:1013300000760002007400020072000100710002D9
:10134000006F0002006D0001006C0002006A0001E5
:1013500000690002006700010066000100650001ED
:1013600000640002006200010061000100600001F1
:10137000005F0002005D0001005C0001005B0001F5
:10138000005A0001005900010058000100570001F7
:1013900000560001005500010054000100530000F8
:1013A00000530001005200010051000100500001F3
:1013B000004F0001004E0000004E0001004D0001F2
:1013C000004C0001004B0000004B0001004A0001EE
:1013D00000490001004800000048000100470001EA
:1013E00000460000004600010045000000450001E5
:1013F00000440001004300000043000100420000DF
:1014000000420001004100000041000100400001D5
:10141000003F0000003F0001003E0000003E0001D0
:10142000003D0000003D0001003C0000003C0000C9
:10143000003C0001003B0000003B0001003A0000BE
:10144000003A0001003900000039000100380000B6
:1014500000380000003800010037000000370001AC
:1014600000360000003600000036000100350000A4
:101470000035000000350001003400000034000099
:10148000003400010033000000330000003300018D
:101490000032000000320000003200010031000084
:1014A0000031000000310001003000000030000079
:1014B00000300001002F0000002F0000002F00006E
:1014C000002F0001002E0000002E0000002E000161
:1014D000002D0000002D0000002D0000002D000157
:1014E000002C0000002C0000002C0000002C00014B
:1014F000002B0000002B0000002B0000002B00013F
:10150000002A0000002A0000002A0000002A000132
:101510000029000000290000002900000029000027
:101520000029000100280000002800000028000019
:10153000002800000028000100270000002700000C
:1015400000270000002700000027000100260000FF
:1015500000260000002600000026000000260001F2
:1015600000250000002500000025000000250000E7
:1015700000250000002500010024000000240000D8
:1015800000240000002400000024000100230000CB
:1015900000230000002300000023000000230000BF
:1015A00000230000002300010022000000220000B0
:1015B00000220000002200000022000000220001A2
:1015C0000021000000210000002100000021000097
:1015D0000021000000210000002100010020000087
:1015E000002000000020000000200000002000007B
:1015F000002000000020000000200001001F00006B
:10160000001F0000001F0000001F0000001F00005E
:10161000001F0000001F0001001E0000001E00004F
:10162000001E0000001E00000050726F6265204F17
:101630006666736574206973205A3A20004D65739D
:101640006820706F696E742063616E6E6F742062C3
:1016500065207265736F6C7665640A005374616E01
:101660006461726420446576696174696F6E3A20C2
:10167000002052616E67653A2000204D61783A2063
:1016800000204D696E3A20004D65616E3A2000469B
:10169000696E6973686564210A002072616E67650E
:1016A0003A2000206D61783A2000206D696E3A2062
:1016B00000207369676D613A2000206D65616E3AA4
:1016C00020003A207A3A2000206F662000205A003D
:1016D000205900205800476F696E6720746F3A00E8
:1016E000436C6F636B776973650A00436F756E7443
:1016F00065722D0020446972656374696F6E3A20CB
:1017000000202020616E676C653A2000537461727E
:1017100074696E67207261646975733A2000506F56
:10172000736974696F6E696E672074686520707282
:101730006F62652E2E2E0A003F4E756D6265722017
:101740006F66206C65677320696E206D6F76656DBE
:10175000656E74206E6F7420706C61757369626C55
:10176000652028302D3135292E0A00590058003FB8
:1017700053616D706C652073697A65206E6F74209B
:10178000706C61757369626C652028342D35302961
:101790002E0A004D3438205A2D50726F6265205247
:1017A00065706561746162696C69747920546573F0
:1017B000740A003F2856296572626F7365206C6554
:1017C00076656C20697320696D706C6175736962F0
:1017D0006C652028302D34292E0A004B494C4C458D
:1017E000442E2000656E7175657565696E672022EF
:1017F000004E6F204C696E65204E756D62657220DB
:101800007769746820636865636B73756D2C204C11
:10181000617374204C696E653A20005072696E7471
:1018200065722073746F70706564206475652074D0
:101830006F206572726F72732E204669782074680B
:1018400065206572726F7220616E64207573652009
:101850004D39393920746F20726573746172742E3A
:10186000202854656D7065726174757265206973A6
:101870002072657365742E2053657420697420612D
:10188000667465722072657374617274696E67291B
:101890000A004E6F20436865636B73756D2077692E
:1018A0007468206C696E65206E756D6265722C209F
:1018B0004C617374204C696E653A200063686563FF
:1018C0006B73756D206D69736D617463682C204C4A
:1018D000617374204C696E653A20004C696E652016
:1018E0004E756D626572206973206E6F74204C6155
:1018F0007374204C696E65204E756D6265722B3174
:101900002C204C617374204C696E653A20004D3177
:10191000313000776169740A00290A002062797405
:1019200065733B20637263200053657474696E674E
:10193000732053746F726564202800202863616CE3
:1019400063756C6174656429210A0020213D2000C3
:10195000454550524F4D20435243206D69736D6190
:10196000746368202D202873746F726564292000C9
:10197000290A002062797465733B2063726320003A
:101980002073746F7265642073657474696E677315
:1019900020726574726965766564202800204D6147
:1019A000726C696E3D563431290A00284545505203
:1019B0004F4D3D00454550524F4D2076657273693D
:1019C0006F6E206D69736D61746368200048617289
:1019D00064636F6465642044656661756C7420534C
:1019E000657474696E6773204C6F616465640A0086
:1019F000B80B0000B80B000064000000E803000012
:101A00000000964300009643000040410000C8419A
:101A10000000A0420000A0420000484400801143A2
:101A200020496E76616C69642065787472756465AE
:101A30007220000000000000000000000000000014
:101A400000FE420000FE420000204342696C696EC5
:101A5000656172204C6576656C696E6720477269B6
:101A6000643A0A0047322F47332062616420706174
:101A700072616D65746572730A0047322F473320B7
:101A800062616420706172616D65746572730A00D1
:101A900020204D383531205A005A2D50726F626522
:101AA000204F666673657420286D6D293A0A002000
:101AB000440020490020204D333034205000204481
:101AC0000020490020204D3330312050005049443F
:101AD0002073657474696E67733A0A0020204D3470
:101AE00032302053004175746F20426564204C658C
:101AF00076656C696E673A0A00205A00205900200A
:101B0000204D323036205800486F6D65206F666674
:101B10007365743A0A00204500205A0020590020BD
:101B2000580020420020540020204D3230352053F0
:101B300000416476616E6365643A20533C6D696E62
:101B40005F66656564726174653E20543C6D696EC4
:101B50005F74726176656C5F6665656472617465F9
:101B60003E20423C6D696E5F7365676D656E745FA4
:101B700074696D655F6D733E20583C6D61785F7868
:101B8000795F6A65726B3E205A3C6D61785F7A5F5F
:101B90006A65726B3E20453C6D61785F655F6A6582
:101BA000726B3E0A0020540020520020204D32303B
:101BB00034205000416363656C65726174696F6EB7
:101BC0002028756E6974732F7332293A20503C7047
:101BD00072696E745F616363656C3E20523C72652E
:101BE00074726163745F616363656C3E20543C741E
:101BF000726176656C5F616363656C3E0A002045C7
:101C000000205A0020590020204D32303120580049
:101C10004D6178696D756D20416363656C657261B6
:101C200074696F6E2028756E6974732F7332293A48
:101C30000A00204500205A0020590020204D323053
:101C4000332058004D6178696D756D206665656457
:101C500072617465732028756E6974732F73293AE5
:101C60000A00204500205A0020590020204D39321A
:101C700020580053746570732070657220756E690A
:101C8000743A0A0020204D3230302044300A0020BF
:101C9000204D3230302044002044697361626C650D
:101CA000640A0046696C616D656E742073657474B6
:101CB000696E67733A002020473231202020203B94
:101CC00020556E69747320696E206D6D0A00207452
:101CD0006F6F206C6F6E6720657874727573696FB3
:101CE0006E2070726576656E7465640A0020636F9D
:101CF0006C6420657874727573696F6E207072659C
:101D000076656E7465640A00202F0020403A00203A
:101D10005A3A0020593A0020436F756E7420583AA1
:101D20000020453A00205A3A0020593A00583A001B
:101D300053657474696E672054726176656C2041D6
:101D40006363656C65726174696F6E3A20005365F8
:101D50007474696E672052657472616374204163A4
:101D600063656C65726174696F6E3A2000536574C7
:101D700074696E67205072696E7420416363656C8C
:101D800065726174696F6E3A200053657474696E90
:101D900067205072696E7420616E6420547261769F
:101DA000656C20416363656C65726174696F6E3A3E
:101DB0002000205A00205900580020204D61783A18
:101DC0002000205A00205900580020204D696E3A0A
:101DD00020004F6E20004F666600536F66742065CA
:101DE0006E6473746F70733A200043617365206C86
:101DF000696768743A200050726F62696E67206686
:101E000061696C65640A004572726F723A00205A0B
:101E10003A200020593A200042656420583A2000B8
:101E20002066697273740A005A0059005800486F9E
:101E30006D6520006563686F3A00544845524D4116
:101E40004C2052554E4157415900546865726D619E
:101E50006C2052756E617761790020706F736974C0
:101E6000696F6E206F7574206F662072616E676592
:101E70002E0A003F50726F6265200052756E6E69C7
:101E80006E6720696E204452592D52554E206D6F59
:101E900064650A00473239204175746F20426564D9
:101EA000204C6576656C696E670A0028422961637B
:101EB0006B00284629726F6E740028522969676882
:101EC0007400284C29656674003F285629657262A3
:101ED0006F7365206C6576656C20697320696D7021
:101EE0006C61757369626C652028302D34292E0A67
:101EF00000426164205A2076616C75650A004E6F5D
:101F00002062696C696E65617220677269640A009B
:101F1000205A3A200020593A200042656420583A5D
:101F2000200000002100240027002A002D0030009E
:101F3000330001010000040107010A010000220032
:101F4000250028002B002E00310034000201000083
:101F5000050108010B0100002000230026002900D4
:101F60002C002F00320000010000030106010901CE
:101F700005050505070508080808020202020A0A05
:101F80000808040404040101010101010101030323
:101F9000030303030303040707070C0C0C0C0C0CCE
:101FA0000C0C0202020206060606060606060B0BCB
:101FB0000B0B0B0B0B0B010210202008081020400C
:101FC00010204080020102010804020101020408FD
:101FD000102040808040201008040201800402018B
:101FE00080402010080402010804020101020408D4
:101FF00010204080010204081020408000000A0BDD
:1020000002090C0D0E080703040100000000000087
:1020100000000000000000000000000000000000C0
:10202000000000000000000012111000000000007D
:1020300000000000000000000000000000000000A0
:102040000000526573656E643A20006F6B000B9F51
:1020500011241FBECFEFD1E2DEBFCDBF00E00CBF29
:1020600013E0A0E0B2E0EEE7F7E501E00BBF02C04D
:1020700007900D92A239B107D9F72EE0A2E9B3E09B
:1020800001C01D92A13AB207E1F710E1C8E2D0E128
:1020900000E006C021970109802FFE010E947BA865
:1020A000C732D10780E00807A9F70E942D980C9449
:1020B000BDAB0C9400002F923F924F925F926F92B3
:1020C0007F928F929F92AF92BF92CF92DF92EF92C8
:1020D000FF920F931F93CF93DF93CDB7DEB7CE5709
:1020E000D1090FB6F894DEBF0FBECDBF0091B20686
:1020F00020E6029F8001112408541C4F8091D50CCA
:1021000080FF38C0E4E3FEE184917F013FEFE31AF2
:10211000F30A811102C0780104C00E944856F701F9
:10212000F3CFD7018D917D01882319F00E94485685
:10213000F8CF8AE00E9448566091B20670E081EBC9
:1021400099E00E94BF4958EDE52E52E0F52EF701C7
:1021500081917F01882319F00E944856F8CF8AE0C8
:102160000E94485668EB73E96F6088EB93E0807FCC
:102170000E94BC5A81E090E0909300068093FF0596
:102180001092B1031092B0038FE380933A0510923E
:102190003905109238051092AC031092AD031092DD
:1021A000AE031092AF03F80180810F5F1F4F8032A2
:1021B000D1F38E34B1F4818190ED980F9A3020F0F4
:1021C0008D3211F08B3269F43296DF0131962C9109
:1021D00020532A30D0F3CD01FC010196208120321A
:1021E000D9F3F0930706E09306067F012FEFE21A7A
:1021F000F20A10816AE270E0C7010E949DAB00976D
:1022000031F0FC01319780818032E1F311821D347D
:1022100029F0143519F0173409F0CBC0F70180818B
:102220003FEFE31AF30A8032C9F380538A3008F093
:10223000C0C010933A0520913805309139054AE025
:102240003196429FC001439F900D1124DF011197E9
:102250002C91022E000C330B20533109280F391F0B
:10226000808180538A3060F330933905209338059C
:10227000DF0131968C918032D9F31D34D1F42E31A7
:10228000310591F03CF42731310571F02C313105E5
:1022900081F40AC02537310564F02737310524F071
:1022A000203A43E0340729F4B093B103A093B0037C
:1022B00080C01092B1031092B0030091060661E055
:1022C00070E0FD0131968C91882309F472C081324F
:1022D000A1F41D3491F42032310579F4F093B10367
:1022E000E093B00363E270E0CF010E949DAB0097E2
:1022F00009F45FC0DC011C925CC09FEBD92ED80EA4
:1023000049E1C42ECD14C0F1AF01FA0190814F5FB5
:102310005F4F9032D1F340ED490F4A3040F043ED2A
:10232000490F423020F09B3211F00C94D128AF01BC
:10233000AD2CB12C750183E0F594E7948A95E1F713
:10234000C70184559C4F7C018D2D8770DB0102C035
:10235000AA0FBB1F8A95E2F7CD01D7019C91892B6B
:102360008C934115510511F0401B01C040E0D5018F
:10237000AE56BC4F4C930AC08091B0039091B1030C
:10238000892B21F4B093B103A093B00380818154D1
:102390008A3110F4DF0195CFDF0131969C91905383
:1023A0009A30D0F3CD01FC01019640814032D9F33F
:1023B000F1CF80913A058D3409F4C7C5843511F405
:1023C0000C946E28873411F00C94B02820913805B5
:1023D000309139052D31310509F4F5C4DCF4243090
:1023E000310544F4223031050CF047C037FF39C0C5
:1023F0000C94CA282530310509F485C00CF446C078
:102400002C31310511F00C94CA2880E00E94476CF1
:102410000C94CA282A32310509F493C58CF423326E
:10242000310509F4D4C42432310509F4D4C42E3161
:10243000310511F00C94CA280E94F48B0C94CA2820
:102440002B35310509F4D0C42C35310509F4D1C43C
:102450002A35310511F00C94CA281092B7030C9458
:10246000CA2880910202882311F40C94CA280E9481
:1024700061660E9436410C94CA2881E02230310501
:1024800009F080E00E94D5660C94CA2880E50E947D
:102490009E5B882329F00E94FA556B017C0103C0E2
:1024A000C12CD12C760183E50E949E5B882361F0CC
:1024B0000E940A5620E030E04AE754E40E9462A4F9
:1024C0000E94F7A96B017C010E9473420E943D5655
:1024D0008091080690910906A0910A06B0910B061A
:1024E000C80ED91EEA1EFB1E0E94E894DC01CB0137
:1024F0008C199D09AE09BF09B7FD02C00C94CA280A
:102500000E94B039F1CF80910202882311F40C941B
:10251000CA280E94616689E40E949E5B882329F094
:102520000E940A562B013C0103C0412C512C320160
:102530008AE40E949E5B882329F00E940A564B0180
:102540005C0103C0812C912C540180E50E949E5BAC
:10255000882329F00E940A566B017C0103C0C12C1C
:10256000D12C760181E50E949E5B882339F00E9480
:102570000A566BA37CA38DA39EA304C01BA21CA21E
:102580001DA21EA2B091FE05E796BFAFE79760912E
:10259000070270910802072E000C880B990B0E940D
:1025A00003A42091370230913802409139025091B2
:1025B0003A020E9462A42AE037ED43E25CE30E9403
:1025C00062A4EB966CAF7DAF8EAF9FAFEB9720917F
:1025D000DB0C3091DC0C4091DD0C5091DE0C2FA314
:1025E00038A749A75AA7A30192016FA178A589A589
:1025F0009AA50E9484A823966CAF7DAF8EAF9FAF43
:1026000023974090DF0C5090E00C6090E10C7090AC
:10261000E20CA5019401C301B2010E9484A827968F
:102620006CAF7DAF8EAF9FAF279720911C06309186
:102630001D0640911E0650911F06C701B6010E945B
:1026400084A82B966CAF7DAF8EAF9FAF2B97209158
:1026500020063091210640912206509123066BA15D
:102660007CA18DA19EA10E9484A82F966CAF7DAF06
:102670008EAF9FAF2F97CFA0D8A4E9A4FAA4C982A8
:10268000DA82EB82FC824D825E826F8278860E94C3
:10269000E8949B01AC0128533F4F4F4F5F4FE396A7
:1026A0002CAF3DAF4EAF5FAFE397BDEC8B2EBCECD4
:1026B0009B2EA92CBDE3BB2E1BA21FA21BA61CA6F2
:1026C0000E94F5320E94E8948B019C01E396CCAC09
:1026D000DDACEEACFFACE3970C191D092E093F09E8
:1026E00037FD0EC09B01AC0128533F4F4F4F5F4F4A
:1026F000E3962CAF3DAF4EAF5FAFE3970E94B0398A
:10270000A5019401BBA1AFA1FBA5ECA56B2F7A2F6E
:102710008F2F9E2F0E9484A82B011C0120E030E007
:1027200040E85FE30E94E4AA181634F4412C512CCF
:10273000F0E82F2EAFE33A2E80911C0690911D06F3
:10274000A0911E06B0911F0663968CAF9DAFAEAFF1
:10275000BFAF6397C090DB0CD090DC0CE090DD0C39
:10276000F090DE0C6796CCAEDDAEEEAEFFAE6797B6
:102770003F922F925F924F926396ACACBDACCEACC1
:10278000DFAC63972B96ECACFDAC0EAD1FAD2B9779
:1027900023962CAD3DAD4EAD5FAD239767966CADE6
:1027A0007DAD8EAD9FAD67970E94004A0F900F9050
:1027B0000F900F9068AB7AAB8EAB9AAF209120064A
:1027C0003091210640912206509123066B962CAF42
:1027D0003DAF4EAF5FAF6B978091DF0C9091E00CF7
:1027E000A091E10CB091E20CA7968CAF9DAFAEAF7B
:1027F000BFAFA7973F922F925F924F926B96ACAC70
:10280000BDACCEACDFAC6B972F96ECACFDAC0EAD97
:102810001FAD2F9727962CAD3DAD4EAD5FAD2797E1
:10282000A7966CAD7DAD8EAD9FADA7970E94004A77
:102830000F900F900F900F906BAF7CAF8DAF9EAF4E
:10284000C980DA80EB80FC80AB96CCAEDDAEEEAE1C
:10285000FFAEAB972D813E814F815885AF962CAF4F
:102860003DAF4EAF5FAFAF976C961FAE6C977BA13D
:102870006FA19BA58CA5272F362F492F582F642D8C
:10288000752D822D932D0E9483A82FE632E143E01F
:102890005BE30E94FCA387FF06C06C963FAD6C977C
:1028A0003111C6C1ACC1242D352D422D532DBBA1F4
:1028B000AFA1FBA5ECA56B2F7A2F8F2F9E2F0E9427
:1028C00084A820E030E040E05FE30E9462A43B0186
:1028D0004C019F928F937F926F936396ACACBDAC8B
:1028E000CEACDFAC63972B96ECACFDAC0EAD1FAD60
:1028F0002B9723962CAD3DAD4EAD5FAD23976796DC
:102900006CAD7DAD8EAD9FAD67970E94004A0F9074
:102910000F900F900F90A0966FAFA097E4967FAFA7
:10292000E497E5968FAFE597E6969FAFE6979F927F
:102930008F927F926F926B96ACACBDACCEACDFAC9D
:102940006B972F96ECACFDAC0EAD1FAD2F97279675
:102950002CAD3DAD4EAD5FAD2797A7966CAD7DAD6F
:102960008EAD9FADA7970E94004A0F900F900F90D9
:102970000F905B018C0128A93AA94EA95AADAB96DC
:102980006CAD7DAD8EAD9FADAB970E9484A820E06D
:1029900030E040E05FE30E9462A49B01AC01A0969E
:1029A0006FADA097E4967FADE497E5968FADE59780
:1029B000E6969FADE6970E9483A86B017C01E894A0
:1029C000F7F82BAD3CAD4DAD5EADAF966CAD7DADCA
:1029D0008EAD9FADAF970E9484A820E030E040E02C
:1029E0005FE30E9462A49B01AC01B501C8010E9493
:1029F00083A89B01AC015F77C701B6010E9484A840
:102A00002DEC3CEC4CEC5DE30E94FCA318160CF0A2
:102A100044CFABAEBCAE0DAF1EAFA0964FADA097EE
:102A200048ABE4965FADE4975AABE5968FADE5977A
:102A30008EABE6969FADE6979AAF23011401A1E015
:102A40006C96AFAF6C9713CFA7019601C701B60183
:102A50000E9484A89B01AC01BBA1AFA1FBA5ECA582
:102A60006B2F7A2F8F2F9E2F0E9484A8962E872E51
:102A7000782E692E20E030E040E85FE3D401F301D6
:102A80006B2F7A2F8F2F9E2F0E94E4AA87FFD0C032
:102A90006F927F928F929F926396ACACBDACCEAC9E
:102AA000DFAC63972B96ECACFDAC0EAD1FAD2B9756
:102AB00023962CAD3DAD4EAD5FAD239767966CADC3
:102AC0007DAD8EAD9FAD67970E94004A0F900F902D
:102AD0000F900F906C966FAF6C97A0967FAFA097FA
:102AE000E4968FAFE497E5969FAFE5976F927F925C
:102AF0008F929F926B96ACACBDACCEACDFAC6B97BB
:102B00002F96ECACFDAC0EAD1FAD2F9727962CADDC
:102B10003DAD4EAD5FAD2797A7966CAD7DAD8EAD4B
:102B20009FADA7970E94004A0F900F900F900F90B3
:102B30005B018C016C962FAD6C97A0963FADA09772
:102B4000E4964FADE497E5965FADE597AB966CAD37
:102B50007DAD8EAD9FADAB970E9484A820E030E0A4
:102B600040E05FE30E9462A49B01AC0168A97AA9DE
:102B70008EA99AAD0E9483A86B017C01E894F7F8B6
:102B80009501A801AF966CAD7DAD8EAD9FADAF97B1
:102B90000E9484A820E030E040E05FE30E9462A44D
:102BA0009B01AC016BAD7CAD8DAD9EAD0E9483A849
:102BB0009B01AC015F77C701B6010E9484A82DEC90
:102BC0003CEC4CEC5DE30E94E4AA18168CF1ABAE31
:102BD000BCAE0DAF1EAF6C96BFAD6C97B8ABA096F8
:102BE000EFADA097EAABE496FFADE497FEABE596B8
:102BF000CFACE597CAAE492C582C272C362C7BA19C
:102C00006FA19BA58CA5272F362F492F582F642DF8
:102C1000752D822D932D0E9483A86B017C012DECD4
:102C20003CEC4CEC5DE30E94E4AA18160CF00CCFCF
:102C30007BA16FA19BA58CA5272F362F492F582F3D
:102C4000642D752D822D932D0E9483A84B015C016C
:102C500088A99AA9AEA9BAAD89839A83AB83BC83AC
:102C60008BAD9CADADADBEAD8D839E83AF83B8877C
:102C7000242D352D422D532D60E070E080E89FE338
:102C80000E9483A86B017C012091E30C3091E40C3D
:102C90004091E50C5091E60C0E9462A46BA37CA3CA
:102CA0008DA39EA3209124063091250640912606EF
:102CB00050912706642D752D822D932D0E9462A4BC
:102CC0009B01AC016BA17CA18DA19EA10E9484A857
:102CD00069877A878B879C872091E70C3091E80C75
:102CE0004091E90C5091EA0CC701B6010E9462A420
:102CF0006B017C01209128063091290640912A061B
:102D000050912B06642D752D822D932D0E9462A467
:102D10009B01AC01C701B6010E9484A86D877E8724
:102D20008F87988BCE0101960E944C9789819A815A
:102D3000AB81BC818E8B9F8BA88FB98F8D819E813B
:102D4000AF81B8858A8F9B8FAC8FBD8F89859A851F
:102D5000AB85BC858E8F9F8FA8A3B9A3AE01425EC1
:102D60005F4FBE01665E7F4FCE0146960E944B8349
:102D7000E796CFACE797EB96ECACFDAC0EAD1FAD94
:102D8000EB979E01235F3F4FAE01425E5F4FBE0156
:102D9000665E7F4FCE0146960E94937620E030E03B
:102DA00040E85FE3642D752D822D932D0E94FCA3D6
:102DB00087FF05C04BA25FA22BA63CA681CC0E9438
:102DC000A66A0C94CA280E942E8D0C94CA280E94D0
:102DD000CA530C94CA2881E00E94476C0E94CA53CF
:102DE0000E942E8D0C94CA2881E08093B7030C9426
:102DF000CA2885E40E949E5BB82E811102C00E9401
:102E0000734269E5862E62E0962E7BEDC72E7CE04C
:102E1000D72EE0E1EE2EE6E0FE2E00E010E0A12C41
:102E2000D4018D914D010E949E5B8823F1F1F60142
:102E30002081318142815381EC962FAFEC97ED9642
:102E40003FAFED97EE964FAFEE97EF965FAFEF97F0
:102E50000E940A56D6016D937D938D939C93139790
:102E6000EC962FADEC97ED963FADED97EE964FAD0E
:102E7000EE97EF965FADEF9703301105B1F00E942A
:102E800083A89B01AC01F7016081718182819381EC
:102E90000E9484A8D7016D937D938D939C93139783
:102EA000C8010E948F6EAA24A3940F5F1F4FB4E045
:102EB000CB0ED11CE4E0EE0EF11C0430110509F03C
:102EC000AFCFAA2019F00E94B35537C0BB20A9F19B
:102ED000C090E70CD090E80CE090E90CF090EA0C80
:102EE0002091E4063091E5064091E6065091E70610
:102EF000C701B6010E9462A40E94F1AA6093990DD5
:102F000070939A0D80939B0D90939C0DC701B60111
:102F10000E94F0A92FB7F89460934D0570934E0569
:102F200080934F05909350052FBF1092890D1092FA
:102F30008A0D10928B0D10928C0D0E9457860C9466
:102F4000CA280E94CB520C94CA28809138059091CF
:102F500039058B39910509F4C1C50CF0ABC08C352E
:102F6000910509F48EC60CF05EC08B34910509F40E
:102F700085C25CF58231910509F431C6CCF497FF26
:102F800002C00C94CA28823091050CF45DC14197AF
:102F900011F00C94CA285F988A989FB7F894809192
:102FA00008018E7F809308019FBF12980C94CA2855
:102FB0008A32910509F41EC28033910509F45AC280
:102FC0004F9711F00C94CA2843C18235910509F43A
:102FD000FDC5ECF48D34910509F46EC20CF452C2B7
:102FE0008135910511F00C94CA280E9495300E94F9
:102FF00073420E946E391092D00C1092CF0C68EE82
:1030000073E080E090E00E94BE330C94CA288435BF
:10301000910509F4E4C50CF4DDC58535910509F485
:1030200015C60C94CA288F36910509F4A9C4ECF48E
:103030008A36910509F499C564F48836910509F436
:103040005DC40CF02EC58436910509F439C20C9488
:10305000CA288D36910509F46CC50CF07EC48B36F8
:10306000910509F4A1C50C94CA288637910509F485
:1030700029C774F48237910509F48CC6833791050A
:1030800009F48EC68137910511F00C94CA28C6C484
:103090008837910511F40C941D200CF44AC7893728
:1030A000910511F40C9424208C38910509F4E2C4A4
:1030B0000C94CA288336F1E09F0711F40C945B2826
:1030C0000CF05DC08C3D910511F40C94062144F583
:1030D0008C3C910511F40C94B6208CF4893C91053C
:1030E00011F40C9474208B3C910511F40C949720EE
:1030F000883C910511F00C94CA280C942A208E3C2F
:10310000910511F40C94BE2014F40C94BA20833D64
:10311000910511F00C94CA280E94EE840C94CA28E0
:103120008C3231E0930711F40C94282194F4823E00
:10313000910511F40C9425218E3051E0950711F47E
:103140000C946C228D3D910511F00C94CA280C94BE
:103150000A218E32A1E09A0711F40C949F2214F4F4
:103160000C9451218F32E1E09E0711F40C94F3226C
:103170008033914011F40C94EF210C94CA28853FC0
:1031800021E0920711F40C94D1277CF5843A41E0B8
:10319000940711F40C940326ACF48139A1E09A074A
:1031A00011F40C94FB258239B1E09B0711F40C94C7
:1031B000FF258039914011F00C94CA280E94734277
:1031C0000C94CA288C3AF1E09F0711F40C94EE2677
:1031D000843F21E0920711F40C94CE27853A914068
:1031E00011F00C94CA280C945B268B3843E09407AA
:1031F00011F40C944A2894F4873FA1E09A0711F443
:103200000C94D72714F40C94D4278335934011F0F1
:103210000C94CA28E4E3FEE10C94E5278D38F3E032
:103220009F0711F40C94502814F40C944D288E38F8
:1032300033E0930711F40C945328873E934011F424
:103240000C945E280C94CA280E941E520C94CA2822
:103250008091BD0D9091BE0D019719F40E94E894E4
:1032600008C06091C70D7091C80D8091C90D9091F3
:10327000CA0D0091C30D1091C40D2091C50D309160
:10328000C60D601B710B820B930B28EE33E040E000
:1032900050E00E94F0A78091BF0D9091C00DA091C9
:1032A000C10DB091C20DBC01CD01620F731F841F0F
:1032B000951F5CE3C52ED12CE12CF12CA7019601C2
:1032C0000E94F0A7762E672ECA01B901A7019601C8
:1032D0000E94F0A76B017C01CA01B90128E130E02E
:1032E00040E050E00E94F0A74B015C01C9016DE68F
:1032F00071E00E9453A88E010F5F1F4F6115710589
:1033000099F06F927F92DF92CF929F928F929F93CC
:103310008F937F936F938DEE92E09F938F931F9384
:103320000F930E94CCA326C0009789F06F927F92E2
:10333000DF92CF929F928F929F938F938DED92E029
:103340009F938F931F930F930E94CCA313C081145C
:103350009104A104B104B1F06F927F92DF92CF92F9
:103360009F928F9281ED92E09F938F931F930F9383
:103370000E94CCA30FB6F894DEBF0FBECDBFE4E32E
:10338000FEE123C0C114D104E104F10469F06F929D
:103390007F92DF92CF9289EC92E09F938F931F935D
:1033A0000F930E94CCA3E6CF6F927F9285EC92E0C0
:1033B0009F938F931F930F930E94CCA30F900F9016
:1033C0000F900F900F900F90DACF84917F013FEF15
:1033D000E31AF30A882321F00E944856F701F5CF3B
:1033E000B80181E093E00E94D8498AE00E944856E3
:1033F0000C94CA2883E50E949E5B882311F40C94E8
:10340000CA280E944B5BE82E80E50E949E5B8823C1
:1034100011F40C94CA280E943B5B162FC62ED72E9F
:10342000D7FE02C00C94CA28EEE0F3E088E28E0FCB
:103430009491191729F031968E13FACF0C94E22843
:10344000E7E0FEE184918F010F5F1F4F882321F099
:103450000E944856F801F6CFE6E3F3E084918F012D
:103460000F5F1F4F882311F40C94CA280E944856FE
:10347000F801F4CF0E94774C0C94CA280E94BD88B2
:103480000C94CA288091BD0D9091BE0D019711F04A
:103490000C94CA2882E090E09093BE0D8093BD0DFD
:1034A0000E94E8946093C70D7093C80D8093C90D76
:1034B0009093CA0D0C94CA280E9468870C94CA285D
:1034C00080919B0E90919C0E0E94998367E272E01E
:1034D00086E495E00E94D84981EA9EE00E949983A3
:1034E00067E272E088E395E00E94D849C0909B0EA5
:1034F000D0909C0EC114D10421F441EAC42E4EE0B8
:10350000D42EC6010E94998367E272E080E295E0C2
:103510000E94D8497E0143E2E40EF11CC7010E94DB
:10352000998367E272E08EE095E00E94D8498AE0D4
:103530000E9448568091000281110C94F82889E479
:103540000E946F5B81110C94F82884E40E946F5BE9
:10355000882331F0B701C6010E94BC5A0C94CA28D6
:1035600086E40E946F5B882309F465C1EC18FD08AE
:10357000A12CB12C212C312C412C512C66246A9485
:10358000762CAE14BF04CCF546018A0C9B1CD401EA
:103590008C91853E71F5F40100E010E08191853E4B
:1035A00031F001501109093011051CF107C00F5FFE
:1035B0001F4F0115BDE71B0789F71BC0B80181ED3F
:1035C00094E00E94BF49C4010E94998367E272E0BF
:1035D00081EC94E00E94D8498AE00E944856601627
:1035E000710614F414013801A00EB11EEFEF4E1A4B
:1035F0005E0AFFEFAF1ABF0AC4CF22E042165104A1
:10360000ECF0EFE8F4E084918F010F5F1F4F882307
:1036100021F00E944856F801F6CFB30187E794E005
:103620000E94BF49C1010E94998367E272E08CE663
:1036300094E00E94D8498AE00E9448560AEE12E0BF
:10364000D8018D918D01882319F00E944856F8CF3A
:10365000C0909B0ED0909C0EC114D10421F421EA9D
:10366000C22E2EE0D22E8E01095E1F4F5801AC18DB
:10367000BD08B5018CE394E00E94BF498BE99EE050
:103680000E94998367E272E08FE294E00E94D84939
:1036900080919B0E90919C0E0E94998367E272E04C
:1036A0008DE294E00E94D84981EA9EE00E949983CD
:1036B00067E272E080E294E00E94D849C8010E946B
:1036C000998367E272E08BE194E00E94D8490C157F
:1036D0001D0528F5EFE0F4E084918F010F5F1F4F87
:1036E000882321F00E944856F801F6CF64E170E08B
:1036F00080E090E00E94BE3302EF12E0F801819179
:103700008F01882319F00E944856F8CF8AE00E9462
:1037100048566FEF71E280E89BE10E94BC5A812C11
:10372000912CE12CF12C8A149B04BCF5F601E80DD8
:10373000F91D8081853E69F580E090E02191253E6C
:10374000C1F08C01015011090930110514F1800EEE
:10375000911E3FEFE31AF30AB7018CE094E00E9458
:10376000BF49B80183E094E00E94BF49EFEFF3E066
:1037700006C0019681152DE7920701F70AC08491D2
:103780008F010F5F1F4F882321F00E944856F801D8
:10379000F6CF4FEF841A940AC6CF6701B70180EFC6
:1037A00093E00E94BF4951E0E516F10431F48091A5
:1037B0009B0E90919C0E892B81F00EEB13E0F8018B
:1037C0008491882329F00F5F1F4F0E944856F7CF3E
:1037D000EF2819F4CC24CA94DC2CE5EBF3E08491B7
:1037E0008F010F5F1F4F882321F00E944856F80178
:1037F000F6CFF1E0CF16D10449F480E30E94485699
:103800008AE00E94485660E070E00CC00FEA13E0C6
:10381000F8018491882329F00F5F1F4F0E944856BA
:10382000F7CFB60186E494E00E94BF498AE00E9487
:1038300048560C94CA2883E40E946F5B882311F4D5
:103840000C94CA280E943B5B7B019E012C193D0908
:103850003A956F5F7F4FC9010E9453A88B01EEEE2E
:10386000F4E084915F012FEFA21AB20A811108C01F
:10387000C8010896C80ED91EAA24A394B12C04C06E
:103880000E944856F501EDCFEA14FB0490F1D601F1
:10389000AC92C6010E94998367E272E088ED94E0E1
:1038A0000E94D849BFEFAB1ABB0AC00ED11EECCFA5
:1038B0008091D50C882309F4A4C003E5C02E05E04F
:1038C000D02EE12CF12C20E08091D50C90E00E2C34
:1038D00002C0959587950A94E2F780FD7AC0FFEFC4
:1038E000EF1AFF0A32E0C30ED11C45E0E416F104E2
:1038F00059F78AE00E9448560C94CA2888E690E05E
:103900000E94E76E81110C94CA288091D50C83FF28
:1039100002C00C94CA2883E50E949E5B8823C9F0EC
:103920000E940A560E94F0A9709369056093680589
:1039300080E00E944A300E940A5620E030E04AEAC5
:1039400052E40E94FCA3181614F00E9468870E949B
:103950000A560E94B19C0C94CA288EE40E949E5B79
:10396000882311F40C94CA280E943B5B6093670E75
:103970007093680E8093690E90936A0E0C94CA2817
:1039800083E50E946F5B882359F083E50E949E5B6C
:10399000882319F00E944B5B01C080E08093D50C16
:1039A000E4E3FEE184918F010F5F1F4F882321F034
:1039B0000E944856F801F6CFE1E6F5E084918F01C8
:1039C0000F5F1F4F882309F473CF0E944856F801F8
:1039D000F5CFBB24B394B20E222319F08CE20E94DF
:1039E0004856F60125913491F901849189010F5FC0
:1039F0001F4F882321F00E9448569801F5CF2B2DA8
:103A00006ECFEDE5F5E084918F010F5F1F4F8823A6
:103A100009F46FCF0E944856F801F5CF83E50E9464
:103A20009E5B882369F00E944B5B809309028D3373
:103A300010F40C94CA288CE3809309020C94CA28D1
:103A4000E4E3FEE184918F010F5F1F4F882321F093
:103A50000E944856F801F6CF4091090250E060E01C
:103A600070E088E695E00E9468498AE00E94485626
:103A70000C94CA288091D50C83FF02C00C94CA28EC
:103A800083E50E949E5B882311F40C94CA280E944F
:103A90000A560E94F0A970936605609365050C9420
:103AA000CA2889E690E00E94E76E811111C0EFE616
:103AB000F5E084918F010F5F1F4F882321F00E9452
:103AC0004856F801F6CF0E9416878AE00E944856B1
:103AD000109200061092FF050C941E2C83E50E94A4
:103AE0009E5B882311F40C94CA280E944B5B809340
:103AF00005068D3318F08CE3809305060E94E89448
:103B00006B017C012091050630E0A8EEB3E00E9435
:103B100044A8DC01CB018C0D9D1DAE1DBF1D809303
:103B2000010690930206A0930306B09304060C943A
:103B3000CA288DE690E00E94E76E81110C94CA2895
:103B40008091D50C83FF02C00C94CA2883E50E94A3
:103B50009E5B8BA781110C94612982E50E949E5B7C
:103B600081110C9461290C94CA2883E50E949E5B04
:103B7000882339F00E943B5B8B016F3F710519F080
:103B800010F00FEF10E080E50E949E5B811106C0EF
:103B90001093D00C0093CF0C0C94CA280E944B5B5E
:103BA00081110C94CA28F4CF80E50E949E5B81119C
:103BB00006C01092D00C1092CF0C0C94CA280E9410
:103BC0003B5B672B11F00C94CA28F3CF1092B6031D
:103BD0000C94CA2881E08093B6030C94CA2883E52C
:103BE0000E949E5B8823A1F00E940A5620E030E0EC
:103BF0004AE754E40E9462A40E94F7A960930A0273
:103C000070930B0280930C0290930D020C94CA28BF
:103C100088E50E946F5B81110C94952A89E50E94CA
:103C20006F5B81110C94952A8AE50E946F5B81116C
:103C30000C94952A85E40E946F5B81110C94952A5F
:103C40000E9473420E946E390C94CA2883E50E9438
:103C50006F5B882311F40C94CA280E940A5620E056
:103C600030E04AE754E40E9462A40E94F7A96093FE
:103C70000C0670930D0680930E0690930F060C941D
:103C8000CA28F9E5CF2EF2E0DF2EA8EDEA2EA6E055
:103C9000FA2E10E0D6018D916D010E946F5B882392
:103CA00009F46DC0133009F063C00E940A564B013D
:103CB0005C0120E030E040EA51E40E94FCA387FF71
:103CC0004EC0A50194016091E4067091E5068091D3
:103CD000E6069091E7060E947EA92B013C019B011C
:103CE000AC016091A30C7091A40C8091A50C9091F3
:103CF000A60C0E9462A46093A30C7093A40C809302
:103D0000A50C9093A60CA30192016091BF0C709139
:103D1000C00C8091C10C9091C20C0E9462A460936F
:103D2000BF0C7093C00C8093C10C9093C20C609137
:103D3000C4067091C5068091C6069091C7060E9480
:103D400001A4A30192010E9462A40E94F7A96093BA
:103D5000C4067093C5068093C6069093C7068092EA
:103D6000E4069092E506A092E606B092E70607C048
:103D70000E940A56F70160837183828393831F5FD9
:103D8000F4E0EF0EF11C143009F084CF0E94044CD3
:103D90000C94CA280E9473420E9457860C94CA2829
:103DA000E1E5F6E084918F010F5F1F4F882321F03A
:103DB0000E944856F801F6CFE3E4F6E084918F01C3
:103DC0000F5F1F4F882321F00E944856F801F6CF5D
:103DD000ECE2F6E084918F010F5F1F4F882321F002
:103DE0000E944856F801F6CFECE1F6E084918F018D
:103DF0000F5F1F4F882321F00E944856F801F6CF2D
:103E0000EBE0F6E084918F010F5F1F4F882321F0D4
:103E10000E944856F801F6CFEAEFF5E084918F0151
:103E20000F5F1F4F882321F00E944856F801F6CFFC
:103E3000EBEEF5E084918F010F5F1F4F882321F097
:103E40000E944856F801F6CFE6EDF5E084918F0127
:103E50000F5F1F4F882321F00E944856F801F6CFCC
:103E6000E0ECF5E084918F010F5F1F4F882321F074
:103E70000E944856F801F6CFEBEAF5E084918F01F5
:103E80000F5F1F4F882321F00E944856F801F6CF9C
:103E9000EEE8F5E084918F010F5F1F4F882321F03A
:103EA0000E944856F801F6CFE6E7F5E084918F01CD
:103EB0000F5F1F4F882311F40C94CA280E944856A4
:103EC000F801F4CF85E40E946F5B882381F00E94A3
:103ED0005F5B882361F0E4E3FEE184918F010F5F73
:103EE0001F4F882321F00E944856F801F6CF81E445
:103EF0000E946F5B882381F00E945F5B882361F0E2
:103F0000E5E2F7E084918F010F5F1F4F882321F0D6
:103F10000E944856F801F6CF0091B0031091B1030A
:103F2000D8018D918D01882309F4E3CC0E94485675
:103F3000F7CFE9E4F7E084918F010F5F1F4F8823EB
:103F400021F00E944856F801F6CFE1E4F7E08491B1
:103F50008F010F5F1F4F882321F00E944856F80100
:103F6000F6CF659903C009EB12E002C00EEB12E038
:103F7000F80181918F01882319F00E944856F8CFEB
:103F80008AE00E944856E9E3F7E084918F010F5FD1
:103F90001F4F882321F00E944856F801F6CF8091E8
:103FA000030181FD03C009EB12E002C00EEB12E039
:103FB000D8018D918D01882319F00E944856F8CFC1
:103FC0008AE00E944856E1E3F7E084918F010F5F99
:103FD0001F4F882321F00E944856F801F6CF4A99D6
:103FE00003C009EB12E002C00EEB12E0F801819170
:103FF0008F01882319F00E944856F8CF8AE00E946A
:104000004856E9E2F7E084918F010F5F1F4F882344
:1040100021F00E944856F801F6CF4B9903C009EBF6
:1040200012E002C00EEB12E0D8018D918D018823C1
:1040300009F45FCC0E944856F7CF81E08093530685
:1040400080937B0C0C94CA281092530610927B0C20
:104050000C94CA2888EC90E00E94E76E81110C94C1
:10406000CA2884E40E946F5B8823D1F10E940A561B
:1040700011E020E030E0A9010E94FCA3811101C001
:1040800010E01093920C112359F10091B20310E04B
:104090000E940A56000F111F000F111FF801E2576E
:1040A000F34F608371838283938320E030E0A90122
:1040B00060918E0C70918F0C8091900C9091910C6E
:1040C0000E94FCA381110CC080E090E0A0EEBFE351
:1040D00080938E0C90938F0CA093900CB093910CC6
:1040E0000E94F63C0C94CA2868ECE62E66E0F62E98
:1040F00009E512E074E0D72ED00EF80181918F010E
:104100000E946F5B882351F00E940A560E94F7A913
:10411000D7016D937D938D939C931397B4E0EB0E31
:10412000F11CD012EACF0E94D74A0C94CA2843EB64
:10413000E42E4CE0F42E09E512E054E0D52ED00E2A
:10414000F80181918F010E946F5B882341F00E94EA
:104150000A56D7016D937D938D939C931397B4E08A
:10416000EB0EF11CD012ECCF0C94CA280E94EE8505
:104170000C94CA280E9484850C94CA2899E5A92E1B
:1041800092E0B92E2BEDC22E2CE0D22E35E8E32E94
:1041900036E0F32E00E010E0F50181915F010E940E
:1041A0006F5B882311F10E940A562B013C01D70155
:1041B0002D913D914D915C910E9483A89B01AC0192
:1041C000F60160817181828193810E9484A8D60169
:1041D0006D937D938D939C931397F7014082518249
:1041E00062827382C8010E948F6E0F5F1F4FF4E0DE
:1041F000CF0ED11C24E0E20EF11C0330110561F654
:104200000E94B3550E9457860C94CA280E94E284EB
:104210000C94CA288DED90E00E94E76E81110C94F9
:10422000CA2883E50E949E5B882311F40C94CA2857
:104230000091B20310E00E943B5B000F111FF801D8
:10424000E05DFD4F71836083A5C70E948784A2C78C
:1042500083E50E949E5B882319F00E943B5B02C0AD
:1042600064E071E07F8B6E8B80E50E949E5B88230B
:1042700039F00E943B5B693833E1730730F402C0C8
:1042800068EE73E07A83698304C088E893E19A83D7
:104290008983BE016A5E7F4FCE0101960E941C9306
:1042A00079C785E40E949E5B811110C080E50E9461
:1042B0006F5B882391F00E940A56609355057093B6
:1042C0005605809357059093580507C00E944B5B95
:1042D000882361F3E7E0FEE171C089E40E946F5B2F
:1042E000882381F00E940A562CEA35EC47E25EE30F
:1042F0000E9462A460935105709352058093530508
:104300009093540584E40E946F5B882381F00E949F
:104310000A562CEA35EC47E25EE30E947EA96093E0
:10432000590570935A0580935B0590935C05E4E30F
:10433000FEE184918F010F5F1F4F882321F00E94BF
:104340004856F801F6CF40915505509156056091B9
:104350005705709158058BE697E00E94A2492CEA18
:1043600035EC47E25EE36091510570915205809112
:104370005305909154050E947EA9AB01BC0187E6CC
:1043800097E00E9485492CEA35EC47E25EE36091B4
:10439000590570915A0580915B0590915C050E94CA
:1043A00062A4AB01BC0183E697E00E9485498AE0E4
:1043B0000E944856EFC60E944856F80184918F012A
:1043C0000F5F1F4F8111F7CF0EE113E0D8018D91E0
:1043D0008D01882309F48DCA0E944856F7CF80E5E5
:1043E0000E946F5B882351F00E940A5660938A0CEA
:1043F00070938B0C80938C0C90938D0C89E40E94AD
:104400006F5B882381F00E940A562CEA35EC47E264
:104410005EE30E9462A46093860C7093870C809385
:10442000880C9093890C84E40E946F5B882381F050
:104430000E940A562CEA35EC47E25EE30E947EA910
:104440006093820C7093830C8093840C9093850C02
:10445000E4E3FEE184918F010F5F1F4F882321F079
:104460000E944856F801F6CF40918A0C50918B0C6F
:1044700060918C0C70918D0C87E797E00E94A249A7
:104480002CEA35EC47E25EE36091860C7091870C74
:104490008091880C9091890C0E947EA9AB01BC018F
:1044A00083E797E00E9485492CEA35EC47E25EE31A
:1044B0006091820C7091830C8091840C9091850C9A
:1044C0000E9462A4AB01BC018FE697E00E9485497F
:1044D0008AE00E9448565EC680917B008860809387
:1044E0007B0081E480937C0080917A0080648093DB
:1044F0007A0080917A0086FDFCCF609178008091EF
:10450000790070E0782B072E000C880B990B0E9425
:1045100003A422EC35EF48E25FE30E947EA92CEA77
:1045200035EC47E257E30E9484A8AB01BC018BE75E
:1045300097E00E9485498AE00E9448562BC683E591
:104540000E946F5B182F882371F00E940A560E9408
:10455000F0A970932F0260932E0221E0672B09F0DF
:1045600020E02093960C80E50E946F5B882359F031
:1045700020912E0230912F02232B11F00E945F5BBD
:104580008093960C07C6111105C6E4E3FEE1849101
:104590008F010F5F1F4F882321F00E944856F801BA
:1045A000F6CF8091960C811103C068EC72E002C0D6
:1045B0006BEB72E08AE997E00E94D84960912E0285
:1045C00070912F0289E897E00E94BF49E5E8F7E083
:1045D00084918F010F5F1F4F882309F4DBC50E9470
:1045E0004856F801F5CF85E40E949E5B882321F0B0
:1045F0000E943B5B1B0102C0212C312C83E40E94F2
:104600009E5B882339F00E943B5BE1967FAF6EAFE3
:10461000E19706C0E5E0F0E0E196FFAFEEAFE1978D
:1046200085E50E946F5BA4968FAFA497882329F03D
:104630000E945F5BA4968FAFA49737FC07C0C12C84
:10464000D12CB6E1EB2EB3E4FB2E06C0C12CD12C4D
:10465000ACE8EA2EA2E4FA2E83E50E949E5B882352
:1046600021F00E940A566B017C012114310411F4DF
:104670001092B2030E94E8942B013C01DC01CB01B3
:104680008C53964FAF4FBF4F80935D0590935E055F
:10469000A0935F05B0936005C1010196029718F4DD
:1046A0000FE213E00BC002E413E0D8018D918D01FD
:1046B000882309F41EC90E944856F7CFF80181915A
:1046C0008F01882319F00E944856F8CF8AE00E9493
:1046D00048560E9495308FE7FFEF2F163F0619F4DA
:1046E00080936C0502C080936D05C701B6010E94DE
:1046F000F0A9072E000C880B990B0E9403A46AAF47
:104700007BAF8CAF9DAF81E080930102AF964CAE42
:104710005DAE6EAE7FAEAF97A3964CAE5DAE6EAEA5
:104720007FAEA3971EAE20E42FAF3CE124963FAFAF
:10473000249746E428964FAF28972C961FAE2C97C7
:1047400060961FAE609764961FAE649768961FAE22
:1047500068971EAA1FAA18AE19AE1AAA1BAA1CAAED
:104760001DAAC12CD12C7601FFE78F2E912CA12CF4
:10477000B12C8FE790E0A0E0B0E08CA79DA7AEA79A
:10478000BFA76F961CAE1DAE1EAE1FAE6F9791E019
:10479000A8969FAFA89719AA18AA1FA21BA600E067
:1047A00010E080910102882309F41EC20E94E8945F
:1047B0006BA37CA38DA39EA380916A05882309F433
:1047C000F4C00E94AB30AFEF2A163A0659F4B0910C
:1047D0006105BFA3E0916205EBA70091630510910D
:1047E00064050AC0F0916F05FFA3209170052BA707
:1047F00000917105109172052FA13BA5A8012C967F
:104800006FAD2C9760967FAD609764968FAD64977F
:1048100068969FAD68970E94FCA387FF0EC03FA1DA
:104820002C963FAF2C974BA560964FAF6097649640
:104830000FAF649768961FAF68972FA13BA5A8019B
:104840006EAD7FAD24968FAD249728969FAD2897A7
:104850000E94E4AA181654F45FA15EAF8BA58FAF37
:1048600024960FAF249728961FAF289780915D0557
:1048700090915E05A0915F05B09160052BA13CA1D0
:104880004DA15EA1281B390B4A0B5B0B57FD12C0D3
:104890000E948A328BA19CA1ADA1BEA18C53964FE0
:1048A000AF4FBF4F80935D0590935E05A0935F056A
:1048B000B0936005A8963FADA8972AAD332309F4BD
:1048C00054C03BAD4CAD5DAD6FA17BA5C8010E944E
:1048D000E4AA18160CF069C04BA15CA16DA17EA1E1
:1048E0004419550966097709DB01CA0188589341C3
:1048F000A109B109B7FD59C08CA59DA5AEA5BFA55D
:1049000088199909AA09BB09B595A795979587951F
:10491000EFEF2E163E0619F480936C0502C08093CB
:104920006D056F964CAF5DAF6EAF7FAF6F97FAAD11
:104930002C96FFAF2C972BAD60962FAF60973CADB8
:1049400064963FAF64974DAD68964FAF68978BA163
:104950009CA1ADA1BEA1AF968CAF9DAFAEAFBFAFD6
:10496000AF97A8961FAEA89720C03BAD4CAD5DADEC
:104970006FA17BA5C8010E94FCA387FF16C08BA175
:104980009CA1ADA1BEA1AF962CAD3DAD4EAD5FAD2E
:10499000AF97821B930BA40BB50BAC01BD0148581C
:1049A00053416109710977FFEAC520E030E040EA30
:1049B00051E46AAD7BAD8CAD9DAD0E9484A89B0196
:1049C000AC016FA17BA5C8010E94E4AA18166CF483
:1049D000EAE6F8E084918F010F5F1F4F882309F406
:1049E000D9C30E944856F801F5CF80E398EFAFEFA6
:1049F000BFEFA3962CAD3DAD4EAD5FADA397821B2F
:104A0000930BA40BB50B2BA13CA14DA15EA1820F72
:104A1000931FA41FB51FB7FD0FC00E9416878AE021
:104A20000E9448568BA19CA1ADA1BEA1A3968CAFBC
:104A30009DAFAEAFBFAFA3978BA19CA1ADA1BEA10F
:104A4000880F991FAA1FBB1FAF962CAD3DAD4EAD71
:104A50005FADAF97821B930BA40BB50B841995091F
:104A6000A609B70981389F44A241B10568F0ECE47A
:104A7000F8E084918F010F5F1F4F882309F48AC3E8
:104A80000E944856F801F5CF48A959A9E1968EAD84
:104A90009FADE197841795070CF083CEEFEEF7E01A
:104AA00084918F010F5F1F4F882321F00E94485689
:104AB000F801F6CF9FEF2916390619F00DE113E042
:104AC00002C00CEC12E0B8018DED97E00E94D849CD
:104AD000B701A60189ED97E00E94A2498AE00E94F1
:104AE0004856B80187EC97E00E94D8494AA95BA9CB
:104AF0006CA97DA983EC97E00E94A2498AE00E94FC
:104B00004856B80181EB97E00E94D8494EA95FA9A9
:104B100068AD79AD8DEA97E00E94A2498AE00E94D3
:104B20004856A496AFADA497AA2309F433C3232013
:104B3000209469F5C0928A0CD0928B0CE0928C0C78
:104B4000F0928D0C2CEA35EC47E25EE36AA97BA972
:104B50008CA99DA90E9462A46093860C7093870C17
:104B60008093880C9093890C2CEA35EC47E25EE345
:104B70006EA97FA988AD99AD0E947EA96093820C31
:104B80007093830C8093840C9093850C03C3C09224
:104B90005505D0925605E0925705F09258052CEA3B
:104BA00035EC47E25EE36AA97BA98CA99DA90E9426
:104BB00062A46093510570935205809353059093BE
:104BC00054052CEA35EC47E25EE36EA97FA988AD77
:104BD00099AD0E947EA96093590570935A05809300
:104BE0005B0590935C05D6C2809101028111D2C20F
:104BF0000E949530CFC281E00E94FC6DCBC280E064
:104C00000E94FC6DC7C286E50E946F5B882341F05D
:104C10008091770C9091780C892B11F00E94E19C87
:104C200083E50E946F5B182F882319F00E945F5B59
:104C3000182F83E50E946F5B882319F0812F0E9453
:104C4000DA69F090950C111103C0E4E3FEE11AC09B
:104C5000F110FBCFE7E0FEE184918F010F5F1F4F62
:104C6000882321F00E944856F801F6CFECEEF8E0D8
:104C700084918F010F5F1F4F882339F30E9448569C
:104C8000F801F6CF84918F010F5F1F4F882321F029
:104C90000E944856F801F6CFF11003C064ED72E0AF
:104CA00002C060ED72E08EED98E00E94D8498AE083
:104CB0000E9448566FC289E40E949E5B882321F0BF
:104CC0000E943B5B062F01C00FEF8AE40E949E5BAF
:104CD000882321F00E943B5B162F01C01FEF8AE55D
:104CE0000E946F5BF82E811105C081E50E946F5B09
:104CF000D82E01C0D12C07FD02C017FF03C0E7E08A
:104D0000FEE105C0F1101AC0D11018C0F8CF84918F
:104D10008F010F5F1F4F882321F00E944856F80132
:104D2000F6CFEAE2F9E084918F010F5F1F4F8823ED
:104D300009F430C20E944856F801F5CF033018F04C
:104D4000E7E0FEE106C01330D8F716C00E944856CF
:104D5000F80184918F010F5F1F4F8111F7CFEBE0B6
:104D6000F9E084918F010F5F1F4F882309F412C26D
:104D70000E944856F801F5CFE02E000FFF08012FE2
:104D8000110F110B0E940A56D701AA0FBB1FDD207D
:104D900081F0FD01EE0DFF1DE00FF11FEE0FFF1F73
:104DA000EE0FFF1FEE5BF24F208131814281538174
:104DB00003C020E030E0A901EA0EFB1E0E0D1F1D0E
:104DC000000F111F000F111F0E5B124F0E9484A8CD
:104DD000F8016083718382839383DCC185E8C82EE8
:104DE00086E0D82E9BEDE92E9CE0F92E2AE6222EB5
:104DF0002DE0322E00E010E091012A563D403CA308
:104E00002BA3D1018D911D01882309F49AC0F701CC
:104E10004080518062807380F801E15CFD4F208109
:104E2000318142815381F801E559F14F60817181EF
:104E3000828193810E9484A820E030E040E05FE31B
:104E40000E9462A49B01AC01C301B2010E94E4AACA
:104E5000181644F4F801E557F34F85909590A59006
:104E6000B49003C0812C912C5401F801E551F34F0B
:104E70002081318142815381C301B2010E9483A804
:104E80009B01AC01C501B4010E9483A84B015C01E8
:104E900020E030E040EA51EC0E94E4AA87FD29C0FE
:104EA00020E030E040EA51E4C501B4010E94FCA3D7
:104EB0001816FCF0D6012D913D914D915C91C501E4
:104EC000B4010E9483A89B01AC01C301B2010E94FE
:104ED00084A8F7016083718382839383D6018D92C6
:104EE0009D92AD92BC9213978BA19CA10E948F6E54
:104EF00028C0E7E0FEE184918F010F5F1F4F8823F8
:104F000021F00E944856F801F6CFEAE4F9E08491D6
:104F10008F010F5F1F4F882321F00E944856F80130
:104F2000F6CF88E290E09A83898388EC90E09F8BAB
:104F30008E8BBE016F5F7F4FCE0146960E941C9301
:104F400029C1B4E0CB0ED11C0C5F1F4FE4E0EE0E84
:104F5000F11C0C30110509F04FCF0E94B3550E948F
:104F6000578683E992E09F8B8E8B04E610E01A83CC
:104F70000983BE016A5E7F4FCE0101960E941C9399
:104F80008AEB92E09F8B8E8B1A830983BE016A5E47
:104F90007F4FCE0101960E941C93FCC00E94F961D4
:104FA000F9C00E94D75CF6C00E94AB5BF3C083E5FA
:104FB0000E946F5B882319F00E945F5B01C081E053
:104FC00091E089270E949370E5C084918F010F5F63
:104FD0001F4F882321F00E944856F801F6CFE2E8DF
:104FE000F9E084918F010F5F1F4F882321F00E9409
:104FF0004856F801F6CF8AE50E946F5B882309F4D2
:105000003BC00E940A566B017C0120E030E040EA80
:1050100051EC0E94E4AA87FD21C020E030E040EA84
:1050200051E4C701B6010E94FCA31816BCF0C0925F
:10503000660DD092670DE092680DF092690D0E94A6
:1050400028896091660D7091670D8091680D90912F
:10505000690D42E00E943F590C94791CEBE6F9E09F
:1050600084918F010F5F1F4F882311F40C94791CDA
:105070000E944856F801F4CF4091660D5091670D9B
:105080006091680D7091690D88E699E00E94A249CF
:105090000C94791C0E9450847DC00E9417847AC0B1
:1050A0000E94E23377C080918106882309F472C0A0
:1050B0000E9467706FC00E94D9836CC081E08093AA
:1050C000020283E50E946F5B811103C00E94029877
:1050D00061C00E945F5B81115DC0F8CFF090380520
:1050E000FF2029F1E4E3FEE184918F010F5F1F4F60
:1050F000882321F00E944856F801F6CF84E50E94EB
:1051000048566F2D70E080E090E04AE00E94A15682
:1051100080E20E9448560EE113E0D8018D918D0186
:10512000882311F40C94791C0E944856F6CF1092F3
:10513000FE05E4E3FEE184918F010F5F1F4F88239A
:1051400021F00E944856F801F6CF6091FE0570E00C
:105150008CE899E00E94BF498AE00E9448561AC034
:10516000E4E3FEE184918F010F5F1F4F882321F05C
:105170000E944856F801F6CF609106067091070626
:105180008EE999E00E94D84982E20E9448568AE05E
:105190000E944856109200061092FF050E94E39765
:1051A0004DC34091B0035091B103452B39F4AF0189
:1051B000415051095093B1034093B00340E050E097
:1051C0000C94981161E0812F0E94A9936E2D812F7C
:1051D0000E947993F12CB701812F0E94E593B7E0EB
:1051E000CB16D104B9F6F092D00CE092CF0CD2CF0E
:1051F00010920002ECE8F3E084918F010F5F1F4FE3
:10520000882321F00E944856F801F6CF5701AC18C8
:10521000BD085AEFA51AB108B7FE0DC004E713E0A8
:10522000F8018491882311F40C94A51A0F5F1F4F85
:105230000E944856F5CF8601085F1F4FA50165EE15
:105240007FEFC8010E9496ABB5010B2C000C880BB8
:10525000990B0E940957E4E5F3E084914F012FEF89
:10526000821A920A811103C0812C912C25C00E94C0
:105270004856F401F2CFD8018C91853EC1F0C801A7
:105280000E94998367E272E087E493E00E94D84924
:10529000F80180810E94296FBC0185E493E00E949F
:1052A000D8498AE00E9448568AE00E944856FFEF9B
:1052B0008F1A9F0A0F5F1F4F8A149B04E4F20C940D
:1052C000A51A0E940A560E94F0A97093690560937E
:1052D000680580E00E944A300E940A5620E030E0D3
:1052E0004AEA52E40E94FCA318161CF00E94688748
:1052F00002C00E94BD880E94B19C81E0809301029F
:105300001FA218A619A61AA61CA61DA61EA61FA691
:105310001BA218AA5CE35AAB8CE18EAB96E49AAF61
:10532000C12CD12CB0E8EB2E1FEBF12E812C912C4F
:1053300054016091680570916905072E000C880B77
:10534000990B0E9403A4162F072F782E692E262F63
:10535000372F482F592FB601C7010E94FCA388237D
:10536000D1F020916F0530917005409171055091F9
:105370007205612F702F872D962D0E94FCA3881F28
:105380008827881F8BA3CBA4CC2049F0882339F031
:1053900080910102FFCE1C2D0D2D7E2C6F2C0E94C2
:1053A000E8946B017C01DC01CB012CA53DA54EA549
:1053B0005FA5821B930BA40BB50BB7FD3BC0D701B8
:1053C000C60188519C4FAF4FBF4F8CA79DA7AEA77A
:1053D000BFA70E941687E2E7F5E084912F019FEFB7
:1053E000491A590A882321F00E944856F201F5CF44
:1053F00081149104A104B104B9F0D501C401805F06
:10540000984DAF4FBF4FBC01CD016C197D098E097E
:105410009F0928EE33E040E050E00E94F0A7CA0167
:10542000B9010E94095703C08FE30E9448568AE0E1
:105430000E9448560E94B0390E943D5620906F0548
:105440003090700540907105509072059101A20155
:10545000612F702F872D962D0E9483A89F7781142E
:105460009104A104B10449F420E030E040E85FE396
:105470000E94FCA387FF0BC008C020E030E040E49E
:1054800050E40E94E4AA181614F446015701ABA197
:10549000AA2379F12FA138A549A55AA521153105CF
:1054A0004105510541F0D701C601821B930BA40BA6
:1054B000B50BB7FD1EC09101A20168A97AA98EA9FA
:1054C0009AAD0E9483A820E030E040EC5FE30E94A8
:1054D000FCA387FD5DCFD701C601805A9541AF4F30
:1054E000BF4F8FA398A7A9A7BAA728AA3AAA4EAADE
:1054F0005AAE80910102882309F44ACF81149104A5
:10550000A104B10429F4C12ED02EE72CF62C11CF22
:1055100090E1C91A97E2D90AE108F108C818D90838
:10552000EA08FB08F7FE34CFEECF0E94734288E50D
:105530000E946F5B882319F05F9A1092540689E5E8
:105540000E946F5B882319F08A9A109255068AE5AB
:105550000E946F5B882351F09FB7F89480910801F7
:105560008160809308019FBF1092560685E40E94D7
:105570006F5B882309F40ECE0E946C390BCE48A9CC
:1055800059A9141615060CF029C16F964CAC5DACE8
:105590006EAC7FAC6F97480E591E6A1E7B1E6F96CD
:1055A0002CAD3DAD4EAD5FAD6F97281B390B4A0B4F
:1055B0005B0BCA01B901A50194010E94E0A7A301F8
:1055C00092010E9412A88CA49DA4AEA4BFA4820E36
:1055D000931EA41EB51E34E183169104A104B104E8
:1055E0000CF14CEE84169104A104B1043CF450E893
:1055F00085169104A104B1041CF105C07BEE872E31
:10560000912CA12CB12C8CA69DA6AEA6BFA68EEF88
:1056100090E0A0E0B0E088199909AA09BB094C0103
:105620005D0112C024E130E040E050E02CA73DA72E
:105630004EA75FA764E1862E912CA12CB12C04C04B
:105640008CA69DA6AEA6BFA64CA55DA56EA57FA502
:1056500086ED98E00E948A9CB501A40181ED98E056
:105660000E948A9C4EAD5FAD24966FAD249728961C
:105670007FAD28978AEC98E00E94A2492C964FAD06
:105680002C9760965FAD609764966FAD649768964F
:105690007FAD689783EC98E00E94A24948A959A978
:1056A000433051050CF49AC0C501B4010E9403A413
:1056B00020E030E040E850E40E9462A46B017C01ED
:1056C0002EAD3FAD24964FAD249728965FAD289719
:1056D0002C966FAD2C9760967FAD609764968FADDA
:1056E000649768969FAD68970E9483A82BED3FE072
:1056F00049E450E40E9462A420E030E040E05FE32F
:105700000E9462A49B01AC01C701B6010E947EA960
:105710006B017C01C301B2010E9403A42FE632E1B8
:1057200043E85AE30E9462A42B013C01B701A601A1
:105730008DEB98E00E94A249B301A20187EB98E0AB
:105740000E94A2492AE939E949E15FE3C701B601AC
:105750000E9462A46B017C019B01AC010E9484A8A1
:10576000A30192010E947EA96AAB7BAB8CAB9DAB7F
:10577000A3019201C701B6010E9462A420E030E0BB
:1057800040E05EE30E9462A46EAB7FAB88AF99AF4E
:10579000E7EAF8E084913F015FEF651A750A882314
:1057A00021F00E944856F301F5CFB701A60181EA26
:1057B00098E00E94A2494AA95BA96CA97DA98BE93E
:1057C00098E00E94A2494EA95FA968AD79AD85E92C
:1057D00098E00E94A2498AE00E9448568CA59DA5A7
:1057E000AEA5BFA5880D991DAA1DBB1DB595A79592
:1057F00097958795EFEF2E163E0619F480936C056A
:1058000002C080936D0528A939A92F5F3F4F39AB9E
:1058100028AB3AAD3EAF4BAD4FAF5CAD24965FAF1A
:1058200024978DAD28968FAF28974BA05CA06DA0D4
:105830007EA091E0A8969FAFA897B7C8C258DF4F47
:105840000FB6F894DEBF0FBECDBFDF91CF911F9191
:105850000F91FF90EF90DF90CF90BF90AF909F900F
:105860008F907F906F905F904F903F902F90089512
:1058700085ED8093BC008091BC0084FDFCCF10922C
:105880001D0D08954091D105262F30E0240F311DC4
:1058900021323105DCF420911D0D2430C9F4FC01C6
:1058A00080E090E0861758F43091D1052191DC0119
:1058B000A155BA4FA30FB11D2C930196F3CF809140
:1058C000D105680F6093D10580E0089581E00895C7
:1058D00082E008950895E091770680917806E817B0
:1058E00030F4F0E0E95AF94F808190E008958FEFAD
:1058F0009FEF08959091770680917806981750F45D
:10590000E92FF0E0E95AF94F208130E09F5F909352
:10591000770602C02FEF3FEFC90108958091780606
:1059200090E020917706821B91090895CF92DF9233
:10593000EF92FF920F931F93CF93DF937C01262F5B
:10594000972F8A0180911E0D882391F0C62FD72FA3
:105950006E01C40ED51ECC15DD0571F06991D7011D
:10596000ED91FC910190F081E02DC7011995F3CFE5
:10597000642F822F0E94422CC801DF91CF911F918A
:105980000F91FF90EF90DF90CF900895CF93DF932A
:105990001F92CDB7DEB7698320911E0D2223D1F06F
:1059A0002091410D203240F021E030E0FC013383B2
:1059B000228380E090E015C080911F0DE82FF0E079
:1059C000E05EF24F998190838F5F80931F0D8093EB
:1059D000410D05C061E0CE0101960E94422C81E09C
:1059E00090E00F90DF91CF910895089580E090E0CE
:1059F000089560916F057091700580917105909187
:105A0000720508952F923F924F925F926F927F920C
:105A10008F929F92AF92BF92CF92DF92EF92FF92BE
:105A2000CF93DF9300D01F92CDB7DEB760906805AB
:105A30007090690580906F0590907005A090710539
:105A4000B0907205B301072C000C880B990B0E94D3
:105A500003A4A50194010E9483A86B017C016093BB
:105A6000890570938A0580938B0590938C0520EDB2
:105A70003CEC4CE45DE36091590570915A058091CE
:105A80005B0590915C050E9462A41B012C01209192
:105A90008505309186054091870550918805C5019F
:105AA000B4010E9483A89B01AC01C201B1010E9414
:105AB00062A41B012C0123E333E343E75FE360911E
:105AC00081057091820580918305909184050E94E3
:105AD00062A49B01AC01C201B1010E9484A8698348
