:100000000C9495110C94C6110C94C6110C94C61145
:100010000C94C6110C94C6110C94C6110C94C61104
:100020000C94C6110C94C6110C94C6110C94C611F4
:100030000C94C6110C94C6110C94C6110C94C611E4
:100040000C94C6110C946C5A0C94C6110C94C611E5
:100050000C94C6110C94C6110C9464820C94F6583E
:100060000C94C6110C94AF560C94C6110C94C61186
:100070000C94C6110C94C6110C94C6110C94C611A4
:100080000C94C6110C94C6110C94C6110C94C61194
:100090000C94C6110C94C6110C94C6110C94C61184
:1000A0000C94C6110C94C6110C94C6110C94C61174
:1000B0000C94C6110C94C6110C94C6110C94C61164
:1000C0000C94C6110C94C6110C94C6110C94C61154
:1000D0000C94C6110C94C6110C94C6110C94C61144
:1000E0000C94C611F856FB56EA56EE56F4563257A3
:1000F000FF56035709570D57115717571B571F57CF
:100100003257255729572D57125817581C5826581B
:100110003058A9583A5842584A5854585E58685866
:1001200077588158A9588B5895589F58C882D682BD
:10013000F58203831E832183248327832A832D83CF
:10014000308333833D83084AD73B3BCE016E84BC6A
:10015000BFFDC12F3D6C74319ABD56833DDA3D0021
:10016000C77F11BED9E4BB4C3E916BAAAABE00006A
:1001700000803F05A84CCDB2D44EB93836A9020C48
:1001800050B9918688083CA6AAAA2ABE0000008021
:100190003F004C4556454C494E4700434F4D4D5549
:1001A0004E49434154494F4E0044525952554E0016
:1001B0004552524F525300494E464F004543484F17
:1001C0000020746F6F206C6F6E6720657874727595
:1001D00073696F6E2070726576656E7465640A006F
:1001E00020636F6C6420657874727573696F6E201C
:1001F00070726576656E7465640A0047322F473306
:100200002062616420706172616D65746572730A49
:10021000003C3C3C205A5F534146455F484F4D49A6
:100220004E470A005A2070726F6265206F75742EF7
:10023000206265640A00203A205A5F534146455FB8
:10024000484F4D494E470A00202064657374696E1B
:100250006174696F6E3D005A5F534146455F484F78
:100260004D494E47203E3E3E0A00473238205A2034
:10027000466F7262696464656E0A003C3C3C2067AC
:10028000636F64655F4732380A00203A203E2028B9
:10029000686F6D655F616C6C5F61786973207C7CF1
:1002A00020686F6D655A29203E2066696E616C0A70
:1002B00000202063757272656E745F706F7369746D
:1002C000696F6E3D00203A203E20686F6D65590AC7
:1002D00000202063757272656E745F706F7369744D
:1002E000696F6E3D00203A203E20686F6D65580AA8
:1002F00000202063757272656E745F706F7369742D
:10030000696F6E3D005261697365205A20286265ED
:10031000666F726520686F6D696E672920746F2043
:10032000003E20656E6473746F70732E656E61623B
:100330006C652874727565290A003E3E3E2067632D
:100340006F64655F4732380A00205A3A200020590E
:100350003A200042656420583A2000256973002540
:10036000696D20256973002569682025696D202540
:10037000697300256964202569682025696D202539
:10038000697300256979202569642025696820251D
:10039000696D20256973005072696E742074696DEF
:1003A000653A200050726F7465637465642050690B
:1003B0006E0A00BC01B701B001A9019B0192016F57
:1003C00066660044454255473A004B494C4C45440B
:1003D0002E20004D3131332053006F6B003F0A0057
:1003E00020573A003F0A0020573A004649524D57DD
:1003F0004152455F4E414D453A4D61726C696E20E8
:10040000312E312E302D52433820284769746875BB
:10041000622920534F555243455F434F44455F5532
:10042000524C3A68747470733A2F2F676974687508
:10043000622E636F6D2F526F626F33442F4D617266
:100440006C696E2D43322050524F544F434F4C5FD6
:1004500056455253494F4E3A312E30204D41434874
:10046000494E455F545950453A526F626F433220AE
:1004700045585452554445525F434F554E543A31B6
:1004800020555549443A63656465326132662D34BE
:100490003161322D343734382D396231322D6335A4
:1004A000356336326633363766660A007A5F6D61C9
:1004B000783A20007A5F6D696E3A2000795F6D614D
:1004C000783A2000785F6D696E3A20005265706F4F
:1004D0007274696E6720656E6473746F70207374D4
:1004E000617475730A0053657474696E6720547281
:1004F0006176656C20416363656C65726174696FD8
:100500006E3A200053657474696E67205265747288
:1005100061637420416363656C65726174696F6EB9
:100520003A200053657474696E67205072696E7466
:1005300020416363656C65726174696F6E3A200077
:1005400053657474696E67205072696E7420616EB1
:10055000642054726176656C20416363656C6572DA
:100560006174696F6E3A20004B64200023646566F5
:10057000696E65202044454641554C545F004B69E7
:10058000200023646566696E652020444546415518
:100590004C545F004B70200023646566696E6520D3
:1005A0002044454641554C545F0050494420417514
:1005B000746F74756E652066696E69736865642111
:1005C0002050757420746865206C617374204B70C2
:1005D0002C204B6920616E64204B6420636F6E7326
:1005E00074616E74732066726F6D2062656C6F77D4
:1005F00020696E746F20436F6E66696775726174EF
:10060000696F6E2E680A00504944204175746F74FA
:10061000756E65206661696C6564212074696D651D
:100620006F75740A00504944204175746F74756E7B
:1006300065206661696C6564212054656D70657222
:10064000617475726520746F6F20686967680A004D
:10065000204B643A2000204B693A2000204B703A2E
:1006600020000A20436C6173736963205049442061
:100670000A002054753A2000204B753A2000206D66
:1006800061783A2000206D696E3A200020643A209B
:100690000020626961733A2000546F6F20666172B6
:1006A0002066726F6D207265666572656E63652087
:1006B000706F696E740A00206279746573290A008C
:1006C00053657474696E67732053746F7265642028
:1006D00028003A20007A5F6D61783A20007A5F6DD9
:1006E000696E3A20005A204F666673657400416354
:1006F000746976652045787472756465723A200075
:100700003C3C3C2067636F64655F540A00203A20DC
:1007100041465445520A00202063757272656E741A
:100720005F706F736974696F6E3D00203A204245B7
:10073000464F52450A00202063757272656E745FE1
:10074000706F736974696F6E3D003E3E3E20676353
:100750006F64655F542800556E6B6E6F776E206313
:100760006F6D6D616E643A2022003C3C3C206763F3
:100770006F64655F4732390A00203A2047323920DA
:10078000636F727265637465642058595A0A002059
:100790002063757272656E745F706F736974696FD0
:1007A0006E3D00202044697363726570616E6379E9
:1007B0003A0020204D61747269783A005A206672BE
:1007C0006F6D2050726F62653A00203A20473239CF
:1007D00020756E636F727265637465642058595A30
:1007E0000A00202063757272656E745F706F7369A2
:1007F00074696F6E3D00202B000A436F727265634F
:100800007465642042656420486569676874207671
:10081000732E2042656420546F706F6C6F67793A55
:100820000A00202B000A42656420486569676874E5
:1008300020546F706F6772617068793A0A202020C7
:100840002B2D2D2D204241434B202D2D2B0A2020D6
:10085000207C20202020202020202020207C0A20F6
:100860004C207C20202020282B29202020207C2088
:10087000520A2045207C20202020202020202020DB
:10088000207C20490A2046207C20282D29204E202B
:10089000282B29207C20470A2054207C202020203F
:1008A000202020202020207C20480A2020207C207E
:1008B000202020282D29202020207C20540A2020A0
:1008C000207C20202020202020202020207C0A2086
:1008D00020204F2D2D2046524F4E54202D2D2B0AD7
:1008E0002028302C30290A004D65616E206F66206B
:1008F00073616D706C656420706F696E74733A20FB
:100900000020643A200020623A200045716E206386
:100910006F656666696369656E74733A20613A2033
:1009200000203A203E2070726F62696E6720636F0C
:100930006D706C6574650A00202063757272656E57
:10094000745F706F736974696F6E3D00284229612E
:10095000636B00284629726F6E74002852296967FC
:10096000687400284C29656674003F4E756D626599
:1009700072206F662070726F626520706F696E748E
:100980007320697320696D706C61757369626C6541
:10099000202832206D696E696D756D292E0A00520E
:1009A000756E6E696E6720696E204452592D5255DE
:1009B0004E206D6F64650A00473239204175746FAF
:1009C00020426564204C6576656C696E670A003F5D
:1009D0002856296572626F7365204C6576656C20B8
:1009E000697320696D706C61757369626C6520282C
:1009F000302D34292E0A00203A203E3E3E206763E7
:100A00006F64655F4732390A002020637572726532
:100A10006E745F706F736974696F6E3D0029002C8E
:100A200020002C20002800203A2073796E635F702C
:100A30006C616E5F706F736974696F6E0A0020205D
:100A400063757272656E745F706F736974696F6ECF
:100A50003D00656E7175657565696E672022004E93
:100A60006F204C696E65204E756D626572207769E6
:100A7000746820636865636B73756D2C204C6173BB
:100A800074204C696E653A20004B494C4C45442E0D
:100A900020005072696E7465722073746F70706597
:100AA000642064756520746F206572726F72732E96
:100AB0002046697820746865206572726F722061C3
:100AC0006E6420757365204D39393920746F20723A
:100AD0006573746172742E202854656D706572613F
:100AE000747572652069732072657365742E205366
:100AF0006574206974206166746572207265737410
:100B0000617274696E67290A004E6F2043686563DD
:100B10006B73756D2077697468206C696E65206EE3
:100B2000756D6265722C204C617374204C696E6522
:100B30003A2000636865636B73756D206D69736D32
:100B4000617463682C204C617374204C696E653A43
:100B500020004C696E65204E756D62657220697368
:100B6000206E6F74204C617374204C696E65204E4A
:100B7000756D6265722B312C204C617374204C6949
:100B80006E653A20004D3131300020496E76616C3F
:100B9000696420657874727564657220000A207338
:100BA0006F66745F656E6473746F705F6D617820DB
:100BB0003D20000A20736F66745F656E6473746F06
:100BC000705F6D696E203D20000A20706F7369743C
:100BD000696F6E5F7368696674203D2000206178DC
:100BE00069733A0A20686F6D655F6F666673657436
:100BF000203D2000466F722000000048430000485E
:100C00004300007A430000000000000000000000E4
:100C1000003C3C3C20646F5F626C6F636B696E6785
:100C20005F6D6F76655F746F0A003E3E3E20646FB5
:100C30005F626C6F636B696E675F6D6F76655F7423
:100C40006F00203A2073657475705F666F725F6520
:100C50006E6473746F705F6F725F70726F62655FE6
:100C60006D6F76650A00202063757272656E745F21
:100C7000706F736974696F6E3D00203A20636C6514
:100C8000616E5F75705F61667465725F656E6473D7
:100C9000746F705F6F725F70726F62655F6D6F7699
:100CA000650A00202063757272656E745F706F73E1
:100CB0006974696F6E3D006465706C6F793A2000ED
:100CC000203A207365745F70726F62655F6465704F
:100CD0006C6F7965640A00202063757272656E74AA
:100CE0005F706F736974696F6E3D00204469736350
:100CF000726570616E63793A00326E642050726F73
:100D00006265205A3A00203A203C3C3C2072756EC5
:100D10005F7A5F70726F62650A002020637572727D
:100D2000656E745F706F736974696F6E3D003173C7
:100D3000742050726F6265205A3A00203A203E3E7D
:100D40003E2072756E5F7A5F70726F62650A002076
:100D50002063757272656E745F706F736974696F0A
:100D60006E3D003C3C3C2070726F62655F70740A9F
:100D700000205A3A200020593A2000426564205849
:100D80003A2000203A200A00202063757272656EB6
:100D9000745F706F736974696F6E3D0073746F7701
:100DA000290A002C20002C20003E3E3E2070726F4D
:100DB00062655F7074280072657365745F62656454
:100DC0005F6C6576656C0A003C3C3C20646F5F6834
:100DD0006F6D696E675F6D6F766528002C20002C43
:100DE00020003E3E3E20646F5F686F6D696E675FF6
:100DF0006D6F76652800205A0020590041424C2032
:100E000041646A7573746D656E742058002028659E
:100E10006E61626C6564290A004C494E454152007E
:100E20004175746F20426564204C6576656C696E0F
:100E3000673A2000204E6F7A7A6C65290A002026D6
:100E40002041626F76650020262053616D65205A2F
:100E50002061730020262042656C6F77002D42616F
:100E6000636B0020284D6964646C6500205A3A0069
:100E700020593A0050726F6265204F666673657440
:100E800020583A004649585F4D4F554E5445445FEF
:100E900050524F42450A0050726F62653A2000433B
:100EA000617274657369616E0A004D616368696E91
:100EB0006520547970653A200020706F73697469F9
:100EC0006F6E206F7574206F662072616E67652E7D
:100ED0000A003F50726F626520000000210024006C
:100EE00027002A002D00300033000101000004011A
:100EF00007010A0100002200250028002B002E0017
:100F00003100340002010000050108010B0100005E
:100F100020002300260029002C002F0032000001B1
:100F2000000003010601090105050505070508087C
:100F30000808020202020A0A080804040404010163
:100F40000101010101010303030303030303040778
:100F500007070C0C0C0C0C0C0C0C0202020206060F
:100F60000606060606060B0B0B0B0B0B0B0B010202
:100F700010202008081020401020408002010201AB
:100F80000804020101020408102040808040201063
:100F900008040201800402018040201008040201BC
:100FA0000804020101020408102040800102040824
:100FB0001020408000000A0B02090C0D0E080703E8
:100FC000040100000000000000000000000000001C
:100FD0000000000000000000000000000000000011
:100FE00012111000000000000000000000000000CE
:100FF000000000000000000000004B494C4C45443C
:101000002E2000202D20496E76616C696420657861
:10101000747275646572206E756D62657220210A46
:10102000004572726F723A002020506C616E6E65DE
:101030007242756666657242797465733A20002063
:1010400046726565204D656D6F72793A2000436F79
:101050006D70696C65643A204665622031372032D4
:101060003031370A00207C20417574686F723A2055
:1010700028726F626F2C20523220312E312E31298E
:101080000A00323031362D31322D30362031323AAD
:10109000303000204C617374205570646174656455
:1010A0003A2000312E312E302D5243380A004D6146
:1010B000726C696E0020536F66747761726520529E
:1010C000657365740A00205761746368646F6720F4
:1010D00052657365740A002042726F776E206F75D7
:1010E000742052657365740A002045787465726EC9
:1010F000616C2052657365740A00506F7765725594
:10110000700A0073746172740A00205A3A00205900
:101110003A0020583A00656E6473746F70732068EB
:1011200069743A200024F4D43050C38E20C2A24007
:1011300017828B7011127A910D816CD90AA861E126
:1011400008C7586607615143061E4B5D05C145A798
:10115000041A411104093D9803713931034036DB0B
:101160000265339102D4305402802E1D02632CEEAE
:1011700001752AC501B028A001102781018F2564BF
:10118000012B244B01E0223401AC211F018D200DE5
:1011900001801FFC00841EED00971DDF00B81CD2EB
:1011A00000E61BC600201BBC00641AB200B219A8DE
:1011B000000A19A0006A189900D117910040178BF6
:1011C00000B516840031167E00B31579003A157308
:1011D00000C7146F0058146A00EE1366008813638A
:1011E0000025135E00C7125B006C125700151254E5
:1011F00000C111510070114F0021114B00D6104950
:10120000008D1047004610440002104200C00F40FD
:1012100000800F3E00420F3C00060F3B00CB0E3813
:1012200000930E37005C0E3500270E3400F30D32AC
:1012300000C10D3100900D3000600D2E00320D2DDB
:1012400000050D2C00D90C2B00AE0C2900850C29B3
:10125000005C0C2700350C27000E0C2600E80B2440
:1012600000C40B2400A00B23007D0B23005A0B218C
:1012700000390B2100180B2000F80A1F00D90A1EA4
:1012800000BB0A1E009D0A1D00800A1D00630A1C87
:1012900000470A1B002C0A1B00110A1A00F7091A42
:1012A00000DD091900C4091900AB091900920917DA
:1012B000007B091800630917004C0916003609164F
:1012C00000200916000A091500F5081500E00814A9
:1012D00000CC081400B8081400A4081400900813E7
:1012E000007D0812006B081300580812004608120F
:1012F0000034081100230811001208110001081120
:1013000000F0071000E0071000D0071000C0071021
:1013100000B0070F00A107100091070E0083070F10
:101320000074070F0065070E0057070E0049070EEF
:10133000003B070D002E070E0020070D0013070DC0
:101340000006070D00F9060C00ED060D00E0060C86
:1013500000D4060C00C8060C00BC060C00B0060C3D
:1013600000A4060B0099060C008D060B0082060BEC
:101370000077060B006C060B0061060A0057060B8F
:10138000004C060A0042060A0038060A002E060A29
:101390000024060A001A060A001006090007060AB9
:1013A00000FD050900F4050900EB050900E2050947
:1013B00000D9050900D0050900C7050900BE0509C7
:1013C00000B5050800AD050800A50509009C050845
:1013D00000940508008C050800840508007C0508B9
:1013E00000740508006C050700650508005D050729
:1013F00000560508004E0507004705070040050890
:101400000038050700310507002A050700230507F6
:10141000001C050600160507000F05070008050655
:101420000002050700FB040600F5040700EE0406B1
:1014300000E8040600E2040700DB040600D5040609
:1014400000CF040600C9040600C3040600BD04065C
:1014500000B7040600B1040500AC040600A60406AB
:1014600000A00405009B04060095040500900406F6
:10147000008A04050085040500800406007A04053E
:101480000075040500700405006B04050066040582
:1014900000610405005C04050057040500520405C2
:1014A000004D04050048040500430405003E040403
:1014B000003A04050035040500300404002C04053E
:1014C0000027040400230405001E0404001A040479
:1014D0000016040500110404000D040400090405AD
:1014E000000404040000040400FC030400F80304E6
:1014F00000F4030400F0030400EC030400E8030418
:1015000000E4030400E0030400DC030400D8030447
:1015100000D4030400D0030400CC030400C8030378
:1015200000C503030024F404D9201BC40C5C0E98EE
:1015300004C4095F0265077101F405F900FB04B3F7
:101540000048048700C103690058035500030345A0
:1015500000BE023A008402310053022A002902250B
:101560000004022000E4011C00C8011900AF0117AB
:101570000098011400840113007101100061011032
:101580000051010E0043010D0036010B002B010B31
:101590000020010B00150109000C010900030108DE
:1015A00000FB000800F3000800EB000700E4000661
:1015B00000DE000600D8000600D2000600CC0005C0
:1015C00000C7000500C2000500BD000400B900040A
:1015D00000B5000400B1000400AD000400A900043F
:1015E00000A5000300A20003009F0004009B00036D
:1015F0000098000300950002009300030090000390
:10160000008D0002008B00030088000200860002AB
:101610000084000300810002007F0002007D0002C0
:10162000007B0002007900020077000100760002D2
:10163000007400020072000100710002006F0002DD
:10164000006D0001006C0002006A000100690002E8
:1016500000670001006600010065000100640002EF
:10166000006200010061000100600001005F0002F3
:10167000005D0001005C0001005B0001005A0001F8
:1016800000590001005800010057000100560001F8
:1016900000550001005400010053000000530001F8
:1016A000005200010051000100500001004F0001F4
:1016B000004E0000004E0001004D0001004C0001F2
:1016C000004B0000004B0001004A000100490001EE
:1016D00000480000004800010047000100460000EB
:1016E00000460001004500000045000100440001E3
:1016F00000430000004300010042000000420001DE
:10170000004100000041000100400001003F0000D6
:10171000003F0001003E0000003E0001003D0000CF
:10172000003D0001003C0000003C0000003C0001C6
:10173000003B0000003B0001003A0000003A0001BD
:1017400000390000003900010038000000380000B6
:1017500000380001003700000037000100360000AB
:1017600000360000003600010035000000350000A2
:101770000035000100340000003400000034000196
:10178000003300000033000000330001003200008D
:101790000032000000320001003100000031000082
:1017A0000031000100300000003000000030000176
:1017B000002F0000002F0000002F0000002F00016C
:1017C000002E0000002E0000002E0001002D000061
:1017D000002D0000002D0000002D0001002C000055
:1017E000002C0000002C0000002C0001002B000049
:1017F000002B0000002B0000002B0001002A00003D
:10180000002A0000002A0000002A00010029000030
:101810000029000000290000002900000029000123
:101820000028000000280000002800000028000018
:10183000002800010027000000270000002700000A
:1018400000270000002700010026000000260000FD
:1018500000260000002600000026000100250000F0
:1018600000250000002500000025000000250000E4
:1018700000250001002400000024000000240000D6
:1018800000240000002400010023000000230000C9
:1018900000230000002300000023000000230000BC
:1018A00000230001002200000022000000220000AE
:1018B00000220000002200000022000100210000A0
:1018C0000021000000210000002100000021000094
:1018D0000021000000210001002000000020000085
:1018E0000020000000200000002000000020000078
:1018F0000020000000200001001F0000001F000069
:10190000001F0000001F0000001F0000001F00005B
:10191000001F0001001E0000001E0000001E00004D
:10192000001E000000454550524F4D20636865631E
:101930006B73756D206D69736D617463680A002047
:101940006279746573290A002073746F726564206C
:1019500073657474696E67732072657472696576F5
:10196000656420280048617264636F646564204484
:10197000656661756C742053657474696E67732055
:101980004C6F616465640A0020204D383531205A5F
:10199000005A2D50726F6265204F66667365742021
:1019A000286D6D293A0A0020204D32303020443015
:1019B0000A0020204D3230302044002044697361F9
:1019C000626C65640A0046696C616D656E742073B3
:1019D000657474696E67733A0020440020490020E2
:1019E000204D333034205000204400204900202076
:1019F0004D33303120500050494420736574746970
:101A00006E67733A0A00205A0020590020204D3298
:101A10003036205800486F6D65206F6666736574B8
:101A200020286D6D290A00204500205A0020590009
:101A300020580020420020540020204D3230352014
:101A40005300416476616E636564207661726961FA
:101A5000626C65733A20533D4D696E20666565641E
:101A60007261746520286D6D2F73292C20543D4DB3
:101A7000696E2074726176656C206665656472615A
:101A8000746520286D6D2F73292C20423D6D696E81
:101A9000696D756D207365676D656E742074696D11
:101AA0006520286D73292C20583D6D6178696D750E
:101AB0006D205859206A65726B20286D6D2F73292F
:101AC0002C20205A3D6D6178696D756D205A206A11
:101AD00065726B20286D6D2F73292C2020453D6D7C
:101AE0006178696D756D2045206A65726B20286D7F
:101AF0006D2F73290A0020540020520020204D32FF
:101B00003034205000416363656C65726174696FA5
:101B10006E733A20503D7072696E74696E672C2046
:101B2000523D7265747261637420616E6420543D2D
:101B300074726176656C0A00204500205A002059B5
:101B40000020204D3230312058004D6178696D758C
:101B50006D20416363656C65726174696F6E2028E6
:101B60006D6D2F7332293A0A00204500205A00205B
:101B7000590020204D3230332058004D6178696D76
:101B8000756D2066656564726174657320286D6D7E
:101B90002F73293A0A00204500205A0020590020BE
:101BA000204D39322058005374657073207065726F
:101BB00020756E69743A0A0020746F6F206C6F6E26
:101BC0006720657874727573696F6E2070726576C0
:101BD000656E7465640A0020636F6C6420657874B8
:101BE000727573696F6E2070726576656E74656468
:101BF0000A00526573656E643A20006F6B0062756F
:101C000073793A2070617573656420666F7220691C
:101C10006E7075740A00627573793A20706175731D
:101C2000656420666F7220757365720A0062757351
:101C3000793A2070726F63657373696E670A004B3F
:101C4000494C4C45442E20005072696E74657220D8
:101C500068616C7465642E206B696C6C2829206344
:101C6000616C6C6564210A003C3C3C207365745FC8
:101C7000617869735F69735F61745F686F6D652810
:101C800000203A200A00202063757272656E745F2E
:101C9000706F736974696F6E3D005D203D20003E7A
:101CA00020686F6D655F6F66667365745B003E20CC
:101CB0007A70726F62655F7A6F6666736574203DD5
:101CC00020002A2A2A205A20484F4D4544205749AF
:101CD00054482050524F424520285A5F4D494E5F8C
:101CE00050524F42455F555345535F5A5F4D494EE1
:101CF0005F454E4453544F505F50494E29202A2A85
:101D00002A0A000000000000004843000000003ED6
:101D10003E3E207365745F617869735F69735F61CC
:101D2000745F686F6D6528005761726E696E673AFF
:101D300020486F6D696E672042756D70204469762A
:101D400069736F72203C20310A003C3C3C20686F74
:101D50006D65617869732800203A203E2041465421
:101D60004552207365745F617869735F69735F6161
:101D7000745F686F6D650A00202063757272656E0E
:101D8000745F706F736974696F6E3D00486F6D6545
:101D9000203220536C6F773A0A004D6F76652041F0
:101DA0007761793A0A000000A0400000A0400000DE
:101DB0000040000048430000484300007A43486F59
:101DC0006D65203120466173743A0A00FF01FF3EC1
:101DD0003E3E20686F6D65617869732800457272B8
:101DE0006F722077726974696E6720746F20454541
:101DF00050524F4D210A006265640A002C2073790D
:101E00007374656D2073746F70706564212048650C
:101E1000617465725F49443A20003002B400300DAD
:101E20008C00900E87005010820020127D008014DC
:101E30007800A016730060196E00E01B6900001F97
:101E40006400B0215F0090245A0050275500302ACA
:101E50005000E02C4B00602F460090314100603371
:101E60003C0090343700B036320030382D00E03975
:101E70002800203B2300203C1E00103D1900B03DEF
:101E80001400303E0F00903E0A00203F0000F03F5B
:101E9000D8FF544845524D414C2052554E41574170
:101EA0005900546865726D616C2052756E6177617E
:101EB00079004572723A204D415854454D502042A8
:101EC0004544004572723A204D415854454D5000EA
:101ED0004D415854454D502074726967676572656D
:101EE00064004572723A204D494E54454D5020428F
:101EF0004544004572723A204D494E54454D5000BC
:101F00004D494E54454D502074726967676572653E
:101F1000640048656174696E67206661696C656418
:101F20000048656174696E67206661696C6564006C
:101F300048656174696E67206661696C6564004814
:101F4000656174696E67206661696C656400204232
:101F5000403A0020403A00202F0020423A00202F33
:101F60000020543A00205A3A0020593A0020436F8A
:101F7000756E7420583A200020453A00205A3A00E5
:101F800020593A00583A00205A00205900580020A1
:101F9000204D61783A2000205A0020590058002036
:101FA000204D696E3A20004F6E20004F6666005348
:101FB0006F667420656E6473746F70733A200020CE
:101FC000643A0020693A0020703A0020643A002008
:101FD000693A0020703A0043290A0061626C656426
:101FE00020286D696E2074656D702000436F6C64ED
:101FF0002065787472756465732061726520005382
:1020000074616E6461726420446576696174696F9D
:102010006E3A20002052616E67653A2000204D61C3
:10202000783A2000204D696E3A20004D65616E3A85
:10203000200046696E697368656421002072616ED4
:1020400067653A2000206D61783A2000206D696E46
:102050003A2000207369676D613A2000206D656148
:102060006E3A20003A207A3A2000206F6620002045
:102070005A00205900205800476F696E6720746F1E
:102080003A00436C6F636B776973650A00436F7541
:102090006E7465722D0020446972656374696F6E99
:1020A0003A2000202020616E676C653A200053744E
:1020B000617274696E67207261646975733A200099
:1020C000506F736974696F6E696E672074686520FC
:1020D00070726F62652E2E2E0A003F4E756D62651E
:1020E00072206F66206C65677320696E206D6F7655
:1020F000656D656E74206E6F7420706C61757369A8
:10210000626C652028302D3135292E0A005900587F
:10211000003F53616D706C652073697A65206E6F46
:102120007420706C61757369626C652028342D357C
:1021300030292E0A004D3438205A2D50726F6265B6
:10214000205265706561746162696C6974792054AC
:102150006573740A003F566572626F7365204C6543
:1021600076656C206E6F7420706C61757369626C3B
:10217000652028302D34292E0A0070012C01900191
:102180002701B0012201C0011D01F0011801100258
:10219000130130020E016002090190020401C00225
:1021A000FF000003FA004003F5008003F000D003B5
:1021B000EB002004E6007004E100E004DC004005D0
:1021C000D700C005D2004006CD00D006C800800769
:1021D000C3003008BE00F008B900C009B400B00A5E
:1021E000AF00B00BAA00D00CA500000EA000500F4D
:1021F0009B00C01096005012910000148C00C01576
:102200008700B0178200B0197D00D01B7800001E37
:10221000730040206E0090226900F0246400402783
:102220005F0090295A00E02B5500102E50002030FE
:102230004B0010324600E033410090353C0010372F
:10224000370070383200A0392D00B03A2800A03B8A
:102250002300603C1E00103D1900903D1400103E0C
:102260000F00703E0A00C03E0500003F0000203A0B
:10227000203C3C3C20646F5F70726F62655F6D6FE5
:1022800076650A00202063757272656E745F706FE8
:10229000736974696F6E3D00203A203E3E3E2064B3
:1022A0006F5F70726F62655F6D6F76650A002020E8
:1022B00063757272656E745F706F736974696F6E47
:1022C0003D00646F5F70726F62655F726169736514
:1022D00028002066697273740A005A005900580079
:1022E000486F6D6520006563686F3A004E414E4946
:1022F0004E495459494E46CDCCCC3D0AD7233C17C4
:10230000B7D13877CC2B329595E6241FB14F0A0010
:102310000020410000C84200401C4620BCBE4CCA00
:102320001B0E5AAEC59D74000E9C11241FBECFEF2C
:10233000D1E2DEBFCDBF00E00CBF13E0A0E0B2E011
:10234000EAE1F4E501E00BBF02C007900D92A43B67
:10235000B107D9F72CE0A4EBB3E001C01D92A33F75
:10236000B207E1F711E1C5E9D1E100E006C021972C
:102370000109802FFE010E941D9EC439D10780E013
:102380000807A9F70E94C3960C940BAA0C940000AE
:102390002F923F924F925F926F927F928F929F9275
:1023A000AF92BF92CF92DF92EF92FF920F931F9363
:1023B000CF93DF93CDB7DEB7C958D1090FB6F894E4
:1023C000DEBF0FBECDBF0091DB0520E6029F80017E
:1023D00011240D531C4F1093440500934305809125
:1023E000850C80FF18C0E6EEF2E284917F013FEF9A
:1023F000E31AF30A882321F00E94114BF701F5CF6D
:10240000D8018D918D01882319F00E94114BF8CFCE
:102410008AE00E94114B2091430530914405F90157
:1024200080812F5F3F4F8032D1F3F0934405E093DA
:1024300043058E3469F010914305009144056AE22A
:1024400070E0812F902F0E9418A10097D1F420C036
:10245000818190ED980F9A3010F08D3261F73296AD
:10246000DF0131962C9120532A30D0F3CD01FC01AD
:10247000019620812032D9F3F0934405E09343057F
:10248000DACFFC0131968291803231F08A3221F02C
:10249000A12FB02F9D9102C01082F5CFFD01808148
:1024A00011968032D9F380538A3020F0E6EEF2E2C2
:1024B0000C94072FE12CF12C2AE02E9DB0012F9DCA
:1024C000700D11247B01B0E3EB1AF1088191E80E45
:1024D000F11C87FDFA94808180538A3070F3DF010C
:1024E00031968C918032D9F3B093C203A093C1038B
:1024F00021E030E03093A50B2093A40B9D3411F420
:102500000C94C71D943511F40C94A12E973411F03E
:102510000C94E92EECE1EE16F10409F412C790F4E4
:1025200024E0E216F10438F48091440232E0E3162C
:10253000F10458F11EC144E0E416F10409F4C4C6E4
:102540000C94FE2E5AE5E516F10411F40C94351D99
:1025500070F49DE1E916F10411F40C94591CAEE1FC
:10256000EA16F10411F40C945D1C0C94FE2EBBE5EC
:10257000EB16F10411F40C94391DECE5EE16F104A0
:1025800011F40C94271C0C94FE2E882311F40C9447
:10259000FE2E0E94914A8EEA9BE00E94A8800E9433
:1025A000064B8091850C83FD93C0C090BA0BD090F0
:1025B000BB0BE090BC0BF090BD0B2091650C3091F3
:1025C000660C4091670C5091680CC701B6010E94DF
:1025D000D3A5882309F47CC08091D20A811134C02C
:1025E0002091290230912A0240912B0250912C0215
:1025F00060918E0C70918F0C8091900C9091910C49
:102600000E94D3A587FF20C0C092650CD092660CB3
:10261000E092670CF092680CE6EEF2E284918F0192
:102620000F5F1F4F882321F00E94114BF801F6CF56
:10263000E0EEF1E084918F010F5F1F4F882321F0BE
:102640000E94114BF801F6CFC090BA0BD090BB0B93
:10265000E090BC0BF090BD0B2091650C3091660CA6
:102660004091670C5091680CC701B6010E942C9EE6
:102670000E948A9F97FF07C09095809570956195FD
:102680007F4F8F4F9F4F693C71058105910504F184
:10269000C092650CD092660CE092670CF092680CC8
:1026A000E6EEF2E284918F010F5F1F4F882321F045
:1026B0000E94114BF801F6CFE1ECF1E084918F011B
:1026C0000F5F1F4F882321F00E94114BF801F6CFB6
:1026D0002091AE0B3091AF0B4091B00B5091B10BEC
:1026E0006091590C70915A0C80915B0C90915C0C2C
:1026F0000E94D3A581111DC02091B20B3091B30B64
:102700004091B40B5091B50B60915D0C70915E0CD3
:1027100080915F0C9091600C0E94D3A5811109C03B
:102720006091000270910102809102029091030277
:102730001AC06091050270910602072E000C880BEA
:10274000990B0E94D9A5209100023091010240917D
:102750000202509103020E9438A62AE037ED43E2BC
:102760005CE30E9438A60E947B490E9471490C9448
:10277000FE2E882311F40C94FE2E11E0F2E0EF16E9
:10278000F10409F010E00E94914A82E50E94D649C6
:10279000882309F452C10E94684A6B017C01409071
:1027A000590C50905A0C60905B0C70905C0C20910E
:1027B0005D0C30915E0C40915F0C5091600C29AF24
:1027C0003AAF4BAF5CAF8091AE0B9091AF0BA09145
:1027D000B00BB091B10B21968CAF9DAFAEAFBFAF38
:1027E00021972091B20B3091B30B4091B40B5091D3
:1027F000B50B29962CAF3DAF4EAF5FAF299720E0C8
:1028000030E0A901C701B6010E94D3A5882309F4CD
:1028100041C5A301920121966CAD7DAD8EAD9FADFA
:1028200021970E94D3A581110FC029AD3AAD4BADC0
:102830005CAD29966CAD7DAD8EAD9FAD29970E94A4
:10284000D3A5882309F426C520E030E0A901C701FB
:10285000B6010E94D3A5881F8827881F18130BC0B4
:1028600080E090E0A0E8BFE365968CAF9DAFAEAF8F
:10287000BFAF65970AC020E030E040E85FEB6596A7
:102880002CAF3DAF4EAF5FAF6597A301920121968C
:102890006CAD7DAD8EAD9FAD21970E942C9E2D9687
:1028A0006CAF7DAF8EAF9FAF2D9729AD3AAD4BADDD
:1028B0005CAD29966CAD7DAD8EAD9FAD29970E9424
:1028C0002C9E61966CAF7DAF8EAF9FAF61972D96BA
:1028D0002CAD3DAD4EAD5FAD2D97CA01B9010E9443
:1028E00038A64B015C0161962CAD3DAD4EAD5FADA0
:1028F0006197CA01B9010E9438A69B01AC01C501CC
:10290000B4010E942D9E0E94BEA025966CAF7DAFA3
:102910008EAF9FAF259720E030E040E05FE30E945C
:1029200038A64B015C01A7019601C701B6010E94C0
:1029300038A66B017C01A5019401C501B4010E9478
:1029400038A69B01AC01C701B6010E942C9E0E94D3
:10295000BEA09B01AC0165966CAD7DAD8EAD9FAD0B
:1029600065970E9438A64B015C0121962CAD3DADC8
:102970004EAD5FAD2197C301B2010E942D9E20E0B4
:1029800030E040E05FE30E9438A66B017C01619675
:102990006CAD7DAD8EAD9FAD6197905825962CADF9
:1029A0003DAD4EAD5FAD25970E94199F9B01AC01D7
:1029B000C501B4010E9438A69B01AC01C701B60154
:1029C0000E942D9EA30192010E942C9E6B017C010E
:1029D00029962CAD3DAD4EAD5FAD299769AD7AAD71
:1029E0008BAD9CAD0E942D9E20E030E040E05FE387
:1029F0000E9438A62B013C0125962CAD3DAD4EAD75
:102A00005FAD25972D966CAD7DAD8EAD9FAD2D97AD
:102A10000E94199F9B01AC01C501B4010E9438A618
:102A20009B01AC01C301B2010E942D9E29AD3AADBC
:102A30004BAD5CAD0E942C9E14C089E40E94D64927
:102A4000882329F00E94684A6B017C0103C0C12CD5
:102A5000D12C76018AE40E94D6498823D9F00E94BD
:102A6000684A69AF7AAF8BAF9CAF20E030E0A90134
:102A7000C701B6010E94D3A581111AC020E030E041
:102A8000A90169AD7AAD8BAD9CAD0E94D3A5811132
:102A90000FC000C420E030E0A901C701B6010E94C8
:102AA000D3A5882309F4F6C319AE1AAE1BAE1CAE2B
:102AB000A7019601C701B6010E9438A64B015C012F
:102AC00029AD3AAD4BAD5CADCA01B9010E9438A643
:102AD0009B01AC01C501B4010E942D9E0E94BEA0C5
:102AE000AD966CAF7DAF8EAF9FAFAD978091590C17
:102AF00090915A0CA0915B0CB0915C0C25968CAF18
:102B00009DAFAEAFBFAF2597A7019601BC01CD0128
:102B10000E942D9E65966CAF7DAF8EAF9FAF65977F
:102B200020915D0C30915E0C40915F0C5091600CD7
:102B30002D962CAF3DAF4EAF5FAF2D9729AD3AAD7F
:102B40004BAD5CAD2D966CAD7DAD8EAD9FAD2D9733
:102B50000E942D9E69966CAF7DAF8EAF9FAF699737
:102B60008091610C9091620CA091630CB091640C07
:102B70006D968CAF9DAFAEAFBFAF6D979C01AD01B1
:102B80006091B60B7091B70B8091B80B9091B90B17
:102B90000E942C9E61966CAF7DAF8EAF9FAF619708
:102BA0002091BA0B3091BB0B4091BC0B5091BD0BE7
:102BB000E1962CAF3DAF4EAF5FAFE1978091650CD2
:102BC0009091660CA091670CB091680CA1968CAFA7
:102BD0009DAFAEAFBFAFA197A70196015058219608
:102BE0002CAF3DAF4EAF5FAF219789AD9AADABAD86
:102BF000BCADB05829968CAF9DAFAEAFBFAF299793
:102C00002091AE0B3091AF0B4091B00B5091B10BB6
:102C1000A5962CAF3DAF4EAF5FAFA59765962CAD97
:102C20003DAD4EAD5FAD6597A5966CAD7DAD8EADFE
:102C30009FADA5970E942C9E6B017C018091B20BE9
:102C40009091B30BA091B40BB091B50BA9968CAF3A
:102C50009DAFAEAFBFAFA99769962CAD3DAD4EAD60
:102C60005FAD6997BC01CD010E942C9E4B015C01B8
:102C7000A701960121966CAD7DAD8EAD9FAD2197DC
:102C80000E9438A62B013C01A501940129966CAD48
:102C90007DAD8EAD9FAD29970E9438A69B01AC01FA
:102CA000C301B2010E942D9E2B013C01A50194019C
:102CB00021966CAD7DAD8EAD9FAD21970E9438A65B
:102CC0004B015C01A701960129966CAD7DAD8EADDF
:102CD0009FAD29970E9438A69B01AC01C501B401A4
:102CE0000E942C9EA30192010E94AB9E6B017C016D
:102CF00020E030E0A9010E94D3A587FF0AC02BED98
:102D00003FE049EC50E4C701B6010E942D9E6B01E3
:102D10007C01112351F02BED3FE049EC50E4C70159
:102D2000B6010E942C9E6B017C0120E030E0A901DD
:102D3000C701B6010E94D3A581112AC0A5962CAD6A
:102D40003DAD4EAD5FADA59725966CAD7DAD8EAD1D
:102D50009FAD25970E94D3A581111AC0A9962CADCD
:102D60003DAD4EAD5FADA9972D966CAD7DAD8EADF1
:102D70009FAD2D970E94D3A581110AC02BED3FE096
:102D800049EC50E4C701B6010E942D9E6B017C0105
:102D9000AD962CAD3DAD4EAD5FADAD97C701B60163
:102DA0000E9438A69B01AC010E9438A64B015C0131
:102DB00061962CAD3DAD4EAD5FAD6197CA01B901D5
:102DC0000E9438A69B01AC01C501B4010E942D9E52
:102DD0000E94BEA04B015C012FE632E143E85AE3BA
:102DE0000E94D3A587FD52C2C501B4010E94BF9FB6
:102DF0000E94909F2B967FAF6EAF2B97DB01AB2B82
:102E000031F4E1E0F0E02B96FFAFEEAF2B972B967D
:102E10002EAD3FAD2B97B90180E090E00E94D7A581
:102E20004B015C019B01AC01C701B6010E94199FD7
:102E300025966CAF7DAF8EAF9FAF2597A50194010E
:102E400061966CAD7DAD8EAD9FAD61970E94199F6F
:102E5000A5966CAF7DAF8EAF9FAFA597A1962CAD19
:102E60003DAD4EAD5FADA197E1966CAD7DAD8EAD44
:102E70009FADE1970E942C9EA50194010E94199F8D
:102E8000A9966CAF7DAF8EAF9FAFA99725962CAD5D
:102E90003DAD4EAD5FAD2597CA01B9010E9438A680
:102EA00020E030E040E05FE30E9438A69B01AC01E7
:102EB00060E070E080E89FE30E942C9E61966CAF1A
:102EC0007DAF8EAF9FAF61976D968CAD9DADAEAD72
:102ED000BFAD6D9789879A87AB87BC87A1962CADCC
:102EE0003DAD4EAD5FADA1972D873E874F87588B87
:102EF0006091050270910602072E000C880B990B59
:102F00000E94D9A520910002309101024091020255
:102F1000509103020E9438A62AE037ED43E25CE3B9
:102F20000E9438A66D966CAF7DAF8EAF9FAF6D9748
:102F30000E94EA589B01AC0128533F4F4F4F5F4F0F
:102F4000A1962CAF3DAF4EAF5FAFA1974DAC5EAC3D
:102F50006FAC21967FAC219722242394312CD12C65
:102F60002B968EAD9FAD2B972816390609F44AC1D2
:102F70008091DC0B81110E94C2850E94EA58DC011D
:102F8000CB01A1962CAD3DAD4EAD5FADA197821B9F
:102F9000930BA40BB50BB7FD10C00E94EA589B0120
:102FA000AC0128533F4F4F4F5F4FA1962CAF3DAF21
:102FB0004EAF5FAFA1970E94037ED39438E13D15D9
:102FC0000CF44BC061962CAD3DAD4EAD5FAD61973D
:102FD00029966CAD7DAD8EAD9FAD29970E9438A628
:102FE0004B015C0125962CAD3DAD4EAD5FAD2597F7
:102FF000B201C3010E9438A6A50194010E942D9E32
:103000007B018C0161962CAD3DAD4EAD5FAD6197FE
:10301000B201C3010E9438A64B015C0125962CAD7C
:103020003DAD4EAD5FAD259729966CAD7DAD8EADB6
:103030009FAD29970E9438A69B01AC01C501B40140
:103040000E942C9E2B013C01C701D80129968CAF10
:103050009DAFAEAFBFAF299756C0B10180E090E001
:103060000E94D7A525962CAD3DAD4EAD5FAD259701
:103070000E9438A64B015C010E94169F6B017C01E7
:10308000C501B4010E94B3A04B015C01A7019601E8
:1030900021966CAD7DAD8EAD9FAD21970E9438A677
:1030A0002B013C01A501940169AD7AAD8BAD9CADBE
:1030B0000E9438A69B01AC01C301B2010E942D9E63
:1030C0002B013C01A501940121966CAD7DAD8EAD27
:1030D0009FAD21970E9438A64B015C01A701960184
:1030E00069AD7AAD8BAD9CAD0E9438A69B01AC0159
:1030F000C501B4010E942C9E29966CAF7DAF8EAFA6
:103100009FAF2997D12C9201A30165966CAD7DAD3F
:103110008EAD9FAD65970E942D9E69837A838B83C8
:103120009C8329962CAD3DAD4EAD5FAD2997699638
:103130006CAD7DAD8EAD9FAD69970E942D9E6D8368
:103140007E838F839887A5962CAD3DAD4EAD5FAD48
:10315000A59769857A858B859C850E942D9E6987B8
:103160007A878B879C87A9962CAD3DAD4EAD5FAD20
:10317000A9976D857E858F8598890E942D9E6D8784
:103180007E878F87988BCE0101960E94A880C09081
:10319000BB0389819A81AB81BC818E8B9F8BA88F69
:1031A000B98F8D819E81AF81B8858A8F9B8FAC8FBF
:1031B000BD8F89859A85AB85BC858E8F9F8FA8A38F
:1031C000B9A3AE01425E5F4FBE01665E7F4FCE0186
:1031D00046960E940D7A6D96ECACFDAC0EAD1FAD1F
:1031E0006D979E01235F3F4FAE01425E5F4FBE0170
:1031F000665E7F4FCE0146960E94F56B4FEF241A14
:10320000340AAECEC090BB038091AE0B9091AF0B51
:10321000A091B00BB091B10B8E8B9F8BA88FB98F03
:103220008091B20B9091B30BA091B40BB091B50B00
:103230008A8F9B8FAC8FBD8F8091B60B9091B70B0F
:10324000A091B80BB091B90B8E8F9F8FA8A3B9A393
:10325000AE01425E5F4FBE01665E7F4FCE01469675
:103260000E940D7A6D96ECACFDAC0EAD1FAD6D9766
:103270002AEB3BE0AE01425E5F4FBE01665E7F4FD0
:10328000CE0146960E94F56B0E9471490E94064B42
:103290000C94FE2EE1E2F0E184918F010F5F1F4F4D
:1032A000882321F00E94114BF801F6CFEBEFF1E0FB
:1032B00084918F010F5F1F4F882311F40C94FE2E11
:1032C0000E94114BF801F4CF80E50E94D649882373
:1032D00029F00E945D4A6B017C0103C0C12CD12CF6
:1032E000760183E50E94D649882361F00E94684AEE
:1032F00020E030E04AE754E40E9438A60E94909F04
:103300006B017C010E946A890E94064B8091A60B8A
:103310009091A70BA091A80BB091A90BC80ED91E34
:10332000EA1EFB1E0E94EA58DC01CB018C199D09A4
:10333000AE09BF09B7FD02C00C94FE2E0E94037EA9
:10334000F1CF8091850C85FF0EC0EAE3F3E0849114
:103350008F010F5F1F4F882321F00E94114BF8014E
:10336000F6CF0E94904F0E946A890E944E4B0E94A5
:1033700059558091850C85FF0CC0E1E2F3E0849102
:103380008F010F5F1F4F882321F00E94114BF8011E
:10339000F6CF11E01093120288E50E94D649A82EBC
:1033A00089E50E94D649082F8AE50E94D649982EC1
:1033B000A11005C0011105C0982F912705C001116A
:1033C00002C090E001C0982F9093040280E1E9E5EB
:1033D000FCE0AEEABBE001900D928A95E1F7911115
:1033E00005C0A11003C0002309F44AC020E030E06A
:1033F00040E251E46091810C7091820C8091830CC9
:103400009091840C0E942D9E2091750C3091760C29
:103410004091770C5091780C0E942D9E6B017C019D
:103420006093B60B7093B70B8093B80B9093B90B66
:103430002091610C3091620C4091630C5091640CAE
:103440000E9475A01816E4F48091850C85FF09C0D0
:10345000B701A60185E093E00E94754F8AE00E94C3
:10346000114B19821A821B821C829E012F5F3F4FD3
:1034700046EB5BE06DE57CE089E59CE00E94F25163
:1034800080910402811106C0AA2009F4A4C000237F
:1034900009F4A1C010925D0C10925E0C10925F0CAA
:1034A0001092600C1092590C10925A0C10925B0CF6
:1034B00010925C0C0E948455ECECFDE1149182EBBF
:1034C0009DE10E94004B2B013C0186EB9DE10E9497
:1034D000004B6B017C019B01AC01C301B2010E9456
:1034E00075A018162CF4A3019201C701B60104C0FF
:1034F000A7019601C301B2010E94199F9B01AC0173
:103500000E9438A620E030E040E85FE30E942D9E54
:103510000E94BEA020E030E048E452E40E9438A6B9
:103520006AA37BA38CA39DA3EDECFDE1B49020E006
:1035300030E040EC5FE3C701B6010E9438A66B01A2
:103540007C016B2DBB0C770B880B990B0E94D9A5C6
:103550009B01AC01C701B6010E9438A669837A833A
:103560008B839C8320E030E040EC5FE3C301B20139
:103570000E9438A66B017C01612F110F770B880B1D
:10358000990B0E94D9A59B01AC01C701B6010E940D
:1035900038A66E8B7F8B888F998F9E012E5D3F4F53
:1035A00041E65CE0BE016F5F7F4FCE0146960E9410
:1035B000F2511092580C10925D0C10925E0C109209
:1035C0005F0C1092600C1092590C10925A0C1092D1
:1035D0005B0C10925C0C80910402811102C0AA2045
:1035E00081F080E090E00E94A47B8091850C85FFB3
:1035F00008C049E55CE065EE72E081EF92E00E9470
:10360000155380910402811102C0002381F081E0F2
:1036100090E00E94A47B8091850C85FF08C049E55D
:103620005CE065EC72E081ED92E00E9415538091C0
:103630000402811103C0992009F4F1C08091B705FB
:10364000811103C0E6EEF2E205C08091B805811158
:1036500018C0F8CF84918F010F5F1F4F882321F08E
:103660000E94114BF801F6CFEAE6F2E084918F0157
:103670000F5F1F4F882309F4C6C00E94114BF80149
:10368000F5CF8091850C85FF0CC0E7E5F2E08491D1
:103690008F010F5F1F4F882321F00E94114BF8010B
:1036A000F6CF0E94845520E030E048EC52E460916F
:1036B000790C70917A0C80917B0C90917C0C0E941B
:1036C0002D9E20916D0C30916E0C40916F0C50919D
:1036D000700C0E942D9E6093AE0B7093AF0B809385
:1036E000B00B9093B10B20E030E048EC52E46091D5
:1036F0007D0C70917E0C80917F0C9091800C0E94CB
:103700002D9E2091710C3091720C4091730C509150
:10371000740C0E942D9E6B017C016093B20B709320
:10372000B30B8093B40B9093B50B8091610C909187
:10373000620CA091630CB091640C8093B60B9093D3
:10374000B70BA093B80BB093B90B8EEA9BE00E9425
:10375000EF94882381F120E030E040EF51E4C7018D
:10376000B6010E942C9E6093B20B7093B30B8093B2
:10377000B40B9093B50B8091850C85FF08C04EEA81
:103780005BE066E372E088E492E00E9415531982E0
:103790001A821B821C829E012F5F3F4F41E65CE034
:1037A00062EB7BE08EEA9BE00E94F25182E090E0C7
:1037B0000E94A47B18C0E6EEF2E284918F010F5FB5
:1037C0001F4F882321F00E94114BF801F6CFE4E24D
:1037D000F2E084918F010F5F1F4F882321F00E9438
:1037E000114BF801F6CF8091850C85FF0CC0E1E10B
:1037F000F2E084918F010F5F1F4F882321F00E9418
:10380000114BF801F6CF8091850C85FF08C049E582
:103810005CE06AE872E081EB92E00E9415530E943E
:10382000845580912402809312020E943455809125
:10383000850C85FF3AC0EBE7F2E084918F010F5FC2
:103840001F4F882391F10E94114BF801F6CF85E4B8
:103850000E94D649B82E811102C00E946A8915E0E3
:10386000812E13E0912E09E5C02E0CE0D02E8DE6BE
:10387000E82E8CE0F82E00E010E0A12CD4018D9110
:103880004D010E94D6498111F9C00F5F1F4FB4E06E
:10389000CB0ED11CE4E0EE0EF11C0430110571F7E3
:1038A000AA2009F43BC10E9484550E94358C0C94D7
:1038B000FE2E0E94FD300C94FE2E88E50E94D64913
:1038C000882319F00E94684A0DC020E030E0A90169
:1038D0006091590C70915A0C80915B0C90915C0C2A
:1038E0000E942D9E6AA37BA38CA39DA389E50E94C1
:1038F000D649882319F00E94684A0EC020E030E0C3
:1039000040EF51E460915D0C70915E0C80915F0C12
:103910009091600C0E942D9E6E8B7F8B888F998F6B
:103920000AA11BA12CA13DA109831A832B833C83EF
:103930006D837E838F83988720E030E0A9016091BA
:10394000810C7091820C8091830C9091840C0E9468
:103950002D9E2091750C3091760C4091770C5091F2
:10396000780C0E942D9E69877A878B879C87CE0171
:1039700001960E94EF94882311F40C94FE2E83E5A7
:103980000E94D649882321F00E94184A482F01C07E
:1039900041E080E0C757DF4F4883C958D0400E94BC
:1039A0005C490E94595521E030E0C757DF4F4881FC
:1039B000C958D040BE016A5E7F4FCE0182960E94F8
:1039C0008D536B017C01E3E5F3E084918F010F5F80
:1039D0001F4F882321F00E94114BF801F6CF27E1F9
:1039E00037EB41ED58E36AA17BA18CA19DA10E9418
:1039F0002D9E42E00E94E94EEEE4F3E084918F01B7
:103A00000F5F1F4F882321F00E94114BF801F6CF62
:103A100027E137EB41ED58E36E897F89888D998DD9
:103A20000E942D9E42E00E94E94EE9E4F3E0849179
:103A30008F010F5F1F4F882321F00E94114BF80167
:103A4000F6CF27E137EB41ED58E3C701B6010E94FD
:103A50002D9E42E00E94E94E8AE00E94114B0E9496
:103A600034550E94358C0C94FE2E1092C0030C9499
:103A7000FE2E81E08093C0030C94FF2EF60120817E
:103A8000318142815381CA57DF4F2883C658D040C5
:103A9000C957DF4F3883C758D040C757DF4F4883D7
:103AA000C958D040C857DF4F5883C858D0400E94EB
:103AB000684AD6016D937D938D939C931397CA5753
:103AC000DF4F2881C658D040C957DF4F3881C758CB
:103AD000D040C757DF4F4881C958D040C857DF4F43
:103AE0005881C858D0400330110509F4CECE0E9449
:103AF0002C9E9B01AC01F7016081718182819381D1
:103B00000E942D9ED7016D937D938D939C93139767
:103B1000C8010E94E050AA24A394B7CEBB2009F4A8
:103B2000C4CEC090650CD090660CE090670CF0900D
:103B3000680C209116063091170640911806509196
:103B40001906C701B6010E9438A60E9480A06093A2
:103B5000D90C7093DA0C8093DB0C9093DC0CC701CA
:103B6000B6010E948A9F2FB7F8946093D80B709388
:103B7000D90B8093DA0B9093DB0B2FBF1092C90CFB
:103B80001092CA0C1092CB0C1092CC0C8ECEF9E78E
:103B9000EF16F10411F40C94C42608F0A0C03CE523
:103BA000E316F10409F4CCC708F05AC05CE4E5164A
:103BB000F10409F4C9C218F59FE1E916F10409F40A
:103BC0007DC160F4B1E1EB16F10409F46AC1E2E1F0
:103BD000EE16F10409F462C70C94FE2EF0E3EF1622
:103BE000F10409F4A9C22BE4E216F10409F4A8C215
:103BF0003AE2E316F10411F00C94FE2E57C242E5AE
:103C0000E416F10409F441C7E8F48DE4E816F10480
:103C100009F4B4C291E5E916F10411F00C94FE2EFA
:103C20000E94D3810E946A890E94D17D10920C0B60
:103C300010920B0B68EE73E080E090E00E94B258A7
:103C40000C94FE2EA4E5EA16F10409F427C708F443
:103C500020C7E5E5EE16F10409F457C70C94FE2ED3
:103C6000FEE6EF16F10409F4BBC2D0F43AE6E3161F
:103C7000F10409F4D5C660F458E6E516F10409F438
:103C800081C289E6E816F10409F4B0C30C94FE2E53
:103C90009CE6E916F10409F45CC308F4E4C6C3C366
:103CA000B2E7EB16F10409F4D4C740F4F0E7EF16DD
:103CB000F10409F452C308F4AFC253C337E7E31663
:103CC000F10409F4D6C710F00C94BD2653E7E516AD
:103CD000F10411F00C94FE2EEBEEF3E0BEC78EE281
:103CE000E81681E0F80611F40C94792808F062C017
:103CF000ADECEA16F10411F40C94B42768F5E8EC85
:103D0000EE16F10411F40C94CA2660F42CE8E216C5
:103D1000F10409F452C33EEBE316F10409F405C5BE
:103D20000C94FE2E4BECE416F10411F40C942D27A8
:103D300010F00C944A2789ECE816F10411F00C9469
:103D4000FE2E9AEFE92E95E0F92E05E013E024E02F
:103D5000D22ED00E0C9415279CEDE916F10411F427
:103D60000C94662880F4BEECEB16F10411F40C946C
:103D70001F28E3EDEE16F10411F00C94FE2E0E94C4
:103D80009F8B0C94FE2EF2EEEF16F10411F40C94BE
:103D900073282DE2E21621E0F20611F40C94762845
:103DA0003DEDE316F10411F00C94FE2E0E94848B7D
:103DB0000C94FE2E44EAE41641E0F40611F40C944F
:103DC000C42B78F580E9E81681E0F80611F40C942C
:103DD000B92B90F4AFE2EA16A1E0FA0611F40C94C4
:103DE0007C28B0E3EB16B1E0FB0611F00C94FE2E3C
:103DF0000E940F8A0C94FE2EE2E9EE16E1E0FE0628
:103E000011F40C94C02B10F40C94BC2B2AE9E2168C
:103E100021E0F20611F00C94FE2E0E9474890C949D
:103E2000FE2E36EFE31631E0F30611F40C944B2E20
:103E300008F554EFE51651E0F50611F40C94872CC3
:103E400010F00C94482E9CEAE91691E0F90611F066
:103E50000C94FE2E29E5222E2CE0322EE9E7FCE020
:103E6000FAAFE9AF22E93CE03EAF2DAF00E010E051
:103E70000C945C2CA3E5EA16A3E0FA0611F40C946A
:103E80005A2EB7EEEB16B3E0FB0611F40C94932E0A
:103E9000E7EFEE16E1E0FE0611F00C94FE2E0C9416
:103EA0004E2E5F988A989FB7F894809108018E7F74
:103EB000809308019FBF12980C94FE2E8091DF0C16
:103EC0009091E00C019719F40E94EA5808C06091A3
:103ED000E90C7091EA0C8091EB0C9091EC0C009144
:103EE000E50C1091E60C2091E70C3091E80C601B7A
:103EF000710B820B930B28EE33E040E050E00E9400
:103F0000AEA98091E10C9091E20CA091E30CB091EC
:103F1000E40CBC01CD01620F731F841F951FBCE32D
:103F2000CB2ED12CE12CF12CA70196010E94AEA939
:103F3000762E672ECA01B901A70196010E94AEA98B
:103F40006B017C01CA01B90128E130E040E050E09A
:103F50000E94AEA94B015C01C9016DE671E00E94AF
:103F6000F69D8E010F5F1F4F6115710599F06F92DD
:103F70007F92DF92CF929F928F929F938F937F93A6
:103F80006F9383E893E09F938F931F930F930E9407
:103F9000A4A526C0009789F06F927F92DF92CF92FE
:103FA0009F928F929F938F9383E793E09F938F933A
:103FB0001F930F930E94A4A513C081149104A10420
:103FC000B104B1F06F927F92DF92CF929F928F9265
:103FD00087E693E09F938F931F930F930E94A4A56E
:103FE0000FB6F894DEBF0FBECDBFE6EEF2E223C0FF
:103FF000C114D104E104F10469F06F927F92DF9261
:10400000CF928FE593E09F938F931F930F930E941E
:10401000A4A5E6CF6F927F928BE593E09F938F9359
:104020001F930F930E94A4A50F900F900F900F90D5
:104030000F900F90DACF84917F01BFEFEB1AFB0A4C
:10404000882321F00E94114BF701F5CFB80187E9D1
:1040500093E00E94C94B8AE00E94114B80911A069E
:10406000882311F40C94FE2E10921A0660918C0C89
:1040700070918D0C072E000C880B990B0E94D9A50E
:1040800020911702309118024091190250911A02A2
:104090000E9475A0181614F00C94FE2E10928D0C30
:1040A00010928C0C0E9459930C94FE2E83E50E9472
:1040B000D649882311F40C94FE2E0E94504A7C01AC
:1040C0008F3F910519F010F00C94FE2E80E50E94B0
:1040D000D649882339F00E94504A8C0197FF04C0CA
:1040E0000C94FE2E0DE010E0D02EEBE6F2E0C801BD
:1040F0009927219131912817390731F022E0EB3BC4
:10410000F207B9F70C94EB2E01E210E1F80184916B
:10411000882329F00F5F1F4F0E94114BF7CF04EA4D
:1041200013E0F8018491882311F40C94FE2E0F5FA4
:104130001F4F0E94114BF5CF0E947C8D0C94FE2ED8
:104140000E9458960C94FE2E8091DF0C9091E00C0A
:10415000019711F00C94FE2E82E090E09093E00C19
:104160008093DF0C0E94EA586093E90C7093EA0C8C
:104170008093EB0C9093EC0C0C94FE2E0E944894D0
:104180000C94FE2E88E690E00E94B14E81110C94B2
:10419000FE2E8091850C83FF02C00C94FE2E83E5D9
:1041A0000E94D6498823C1F00E94684A0E948A9FD3
:1041B00070938D0C60938C0C0E9459930E94684AF6
:1041C00020E030E04AEA52E40E94D3A5181614F029
:1041D0000E9448940E94684A0E9406610C94FE2E38
:1041E0008EE40E94D649882311F40C94FE2E80910F
:1041F000B4039091B5034AE050E060E070E00196AE
:104200000E94FFA26093B6037093B7038093B80334
:104210009093B9030C94FE2E83E50E94D64988231F
:1042200019F00E94E94901C080E08093850CE6EE18
:10423000F2E284918F010F5F1F4F882321F00E94CB
:10424000114BF801F6CFE3ECF3E084918F010F5F9F
:104250001F4F882321F00E94114BF801F6CF809167
:10426000850C8823A1F1A3EBCA2EA3E0DA2EE12C62
:10427000F12C20E08091850C90E00E2C02C09595E9
:1042800087950A94E2F780FF17C0BB24B394B20E5F
:10429000222319F08CE20E94114BF60125913491F2
:1042A000F901849189010F5F1F4F882321F00E943B
:1042B000114B9801F5CF2B2DFFEFEF1AFF0A32E0DB
:1042C000C30ED11C46E0E416F104A1F63DC0EFEBAD
:1042D000F3E084918F010F5F1F4F8823A9F10E94A3
:1042E000114BF801F6CF80E20E94114B8AE50E9443
:1042F000D649882311F40C94852E0E94684A6B01DC
:104300007C0120E030E040EA51EC0E9475A087FF7C
:1043100002C00C94742E20E030E040EA51E4C70162
:10432000B6010E94D3A5181614F40C94742EC092F2
:10433000690CD0926A0CE0926B0CF0926C0C42E02B
:10434000C701B6010E94E94E8AE00E94114B0C940D
:10435000FE2E109207020C94FE2E8AEC93E00E942F
:10436000E27D83E50E94D649882369F00E94E949ED
:1043700080933F028D3310F40C94FE2E8CE38093D7
:104380003F020C94FE2EE6EEF2E284918F010F5F65
:104390001F4F882321F00E94114BF801F6CF409166
:1043A0003F0250E060E070E083ED93E00E94554CE6
:1043B0008AE00E94114B0C94FE2E8091850C83FFA5
:1043C00002C00C94FE2E83E50E94D649882311F486
:1043D0000C94FE2E0E94684A0E948A9F7093DF0B05
:1043E0006093DE0B0E9483810C94FE2E89E690E0A0
:1043F0000E94B14E811111C0EAEDF3E084918F016A
:104400000F5F1F4F882321F00E94114BF801F6CF58
:104410000E94F48C8AE00E94114B1092A50B10921E
:10442000A40B0C94E3308DE690E00E94B14E811114
:104430000C94FE2E8091850C83FF02C00C94FE2EFE
:1044400083E50E94D64926968FAF2697811105C035
:1044500082E50E94D6498823C1F00E94684A0E94E2
:104460008A9F70938D0C60938C0C0E9459930E94CC
:10447000684A20E030E04AEA52E40E94D3A51816C8
:1044800014F40C94222F0E9448940E94066181E04B
:10449000809307021092A50B1092A40B21961CAEDC
:1044A0001DAE1EAE1FAE219725961CAE1DAE1EAED4
:1044B0001FAE259719AE2A961FAE2A975CE32E965B
:1044C0005FAF2E978CE162968FAF629796E4669607
:1044D0009FAF6697C12CD12CE0E8EE2EFFEBFF2EAC
:1044E000812C912C540160918C0C70918D0C072EB5
:1044F000000C880B990B0E94D9A5162F072F782E38
:10450000692E262F372F482F592FB601C7010E9439
:10451000D3A58823E9F020918E0C30918F0C409127
:10452000900C5091910C612F702F872D962D0E9429
:10453000D3A5881F8827881F89AF2696AFAD2697F9
:10454000AA2351F0882341F0809107020C94FE2E9B
:104550001C2D0D2D7E2C6F2C0E94EA586B017C01C6
:10456000DC01CB0125962CAD3DAD4EAD5FAD259761
:10457000821B930BA40BB50BB7FD47C0D701C60137
:1045800088519C4FAF4FBF4F25968CAF9DAFAEAFBC
:10459000BFAF25970E94F48CE0EEF3E084912F01E9
:1045A0009FEF491A590A882321F00E94114BF2010A
:1045B000F5CF81149104A104B104D1F0D501C40157
:1045C000805F984DAF4FBF4FBC01CD016C197D0985
:1045D0008E099F0928EE33E040E050E00E94AEA92A
:1045E000CA01B9010E94704C8AE00E94114B0DC0B3
:1045F000EDEDF3E084912F01AFEF4A1A5A0A8823B8
:1046000021F00E94114BF201F5CF0E94037E0E941F
:10461000064B20908E0C30908F0C4090900C509058
:10462000910C9101A201612F702F872D962D0E9470
:104630002C9E9F7781149104A104B10449F420E0D9
:1046400030E040E85FE30E94D3A587FF0BC008C0BD
:1046500020E030E040E450E40E9475A0181614F405
:1046600046015701B9ADBB2309F443C021962CADD7
:104670003DAD4EAD5FAD2197211531054105510589
:1046800041F0D701C601821B930BA40BB50BB7FDFC
:1046900030C09101A2012A966FAD2A972E967FAD68
:1046A0002E9762968FAD629766969FAD66970E9431
:1046B0002C9E20E030E040EC5FE30E94D3A587FD14
:1046C00043CFD701C601805A9541AF4FBF4F2196C6
:1046D0008CAF9DAFAEAFBFAF21972A962FAE2A9772
:1046E0002E963FAE2E9762964FAE629766965FAE5D
:1046F000669780910702882309F426CF81149104DC
:10470000A104B10429F4C12ED02EE72CF62CEBCE57
:1047100090E1C91A97E2D90AE108F108C818D90846
:10472000EA08FB08F7FE10CFEECF8091850C83FFDF
:1047300002C00C94FE2E83E50E94D64926968FAFC8
:104740002697811105C082E50E94D6498823B1F0E1
:104750000E94684A0E948A9F7093DF0B6093DE0B71
:104760000E9483810E94684A20E030E040EA50E4E1
:104770000E9475A0181614F40E94589681E0809348
:1047800007021092A50B1092A40B8091BB0380939B
:10479000BA0321961CAE1DAE1EAE1FAE2197259604
:1047A0001CAE1DAE1EAE1FAE259719AE2A961FAECB
:1047B0002A97ACE32E96AFAF2E97BCE16296BFAFBF
:1047C0006297E6E46696EFAF6697C12CD12C60E85D
:1047D000E62E7FEBF72E812C912C54016091DE0B9D
:1047E0007091DF0B072E000C880B990B0E94D9A546
:1047F000162F072F782E692E262F372F482F592F47
:10480000B601C7010E94D3A58823E9F02091E00BEF
:104810003091E10B4091E20B5091E30B612F702F2F
:10482000872D962D0E94D3A5881F8827881F89AFC2
:104830002696FFAD2697FF2351F0882341F0809103
:1048400007020C94FE2E1C2D0D2D7E2C6F2C0E9429
:10485000EA586B017C01DC01CB0125962CAD3DAD06
:104860004EAD5FAD2597821B930BA40BB50BB7FD27
:1048700047C0D701C60188519C4FAF4FBF4F259607
:104880008CAF9DAFAEAFBFAF25970E94F48CE7EE23
:10489000F3E084912F019FEF491A590A882321F0F0
:1048A0000E94114BF201F5CF81149104A104B104CF
:1048B000D1F0D501C401805F984DAF4FBF4FBC010F
:1048C000CD016C197D098E099F0928EE33E040E087
:1048D00050E00E94AEA9CA01B9010E94704C8AE062
:1048E0000E94114B0DC0E4EEF3E084912F01AFEF75
:1048F0004A1A5A0A882321F00E94114BF201F5CF7F
:104900000E94037E0E94064B2090E00B3090E10B4A
:104910004090E20B5090E30B9101A201612F702FA8
:10492000872D962D0E942C9E9F7781149104A104BF
:10493000B10449F420E030E040E85FE30E94D3A5F1
:1049400087FF0BC008C020E030E040E450E40E9444
:1049500075A0181614F446015701B9ADBB2309F42C
:1049600043C021962CAD3DAD4EAD5FAD21972115D5
:1049700031054105510541F0D701C601821B930B5A
:10498000A40BB50BB7FD30C09101A2012A966FAD03
:104990002A972E967FAD2E9762968FAD6297669678
:1049A0009FAD66970E942C9E20E030E040EC5FE3D4
:1049B0000E94D3A587FD43CFD701C601805A9541F8
:1049C000AF4FBF4F21968CAF9DAFAEAFBFAF21971A
:1049D0002A962FAE2A972E963FAE2E9762964FAE0E
:1049E000629766965FAE669780910702882309F406
:1049F00026CF81149104A104B10429F4C12ED02E34
:104A0000E72CF62CEBCE90E1C91A97E2D90AE1081F
:104A1000F108C818D908EA08FB08F7FE10CFEECF56
:104A200083E50E94D649882321F00E94434A8C01E5
:104A300002C00FEF10E080E50E94D649882331F0D4
:104A40000E94434A892B11F00C94FE2E98010F3FCF
:104A5000110519F010F02FEF30E030930C0B20937C
:104A60000B0B0C94FE2E80E50E94D649811106C0E6
:104A700010920C0B10920B0B0C94FE2E0E94434ACA
:104A8000892B11F00C94FE2EF3CF1092BF030C94DF
:104A9000FE2E81E08093BF030C94FF2E83E50E94DD
:104AA000D6498823A1F00E94684A20E030E04AE716
:104AB00054E40E9438A60E94909F60934002709335
:104AC000410280934202909343020C94FE2E88E5AB
:104AD0000E94D64981110C94262F89E50E94D6495F
:104AE00081110C94262F8AE50E94D64981110C94DD
:104AF000262F85E40E94D64981110C94262F0E940E
:104B00006A890E94D17D0C94FE2E83E50E94D649CD
:104B1000882311F40C94FE2E0E94684A20E030E0B5
:104B20004AE754E40E9438A60E94909F6093AA0B23
:104B30007093AB0B8093AC0B9093AD0B0C94FE2E4B
:104B400045E0C42E43E0D42E5AE0E52E56E0F52E83
:104B500010E0D6018D916D010E94D649882309F499
:104B60006DC0133009F063C00E94684A4B015C01BC
:104B700020E030E040EA51E40E94D3A587FF4EC018
:104B8000A501940160911606709117068091180690
:104B9000909119060E94199F2B013C019B01AC01C9
:104BA0006091DF0A7091E00A8091E10A9091E20A37
:104BB0000E9438A66093DF0A7093E00A8093E10AAE
:104BC0009093E20AA30192016091FB0A7091FC0AA2
:104BD0008091FD0A9091FE0A0E9438A66093FB0A1C
:104BE0007093FC0A8093FD0A9093FE0A6091F6058B
:104BF0007091F7058091F8059091F9050E94D7A56D
:104C0000A30192010E9438A60E94909F6093F6052E
:104C10007093F7058093F8059093F9058092160636
:104C200090921706A0921806B092190607C00E942B
:104C3000684AF70160837183828393831F5FF4E086
:104C4000EF0EF11C143009F084CF0E9463620C94C3
:104C5000FE2E0E94358C0C94FE2E84918F010F5FE6
:104C60001F4F882311F40C94FE2E0E94114BF80163
:104C7000F4CFECECF4E084918F010F5F1F4F882399
:104C800021F00E94114BF801F6CFE4ECF4E084919E
:104C90008F010F5F1F4F882321F00E94114BF801F5
:104CA000F6CF659903C009E013E002C00EE013E0FF
:104CB000D8018D918D01882319F00E94114BF8CFF6
:104CC0008AE00E94114BECEBF4E084918F010F5FBE
:104CD0001F4F882321F00E94114BF801F6CF8091DD
:104CE000030181FD03C009E013E002C00EE013E000
:104CF000F80181918F01882319F00E94114BF8CFA0
:104D00008AE00E94114BE4EBF4E084918F010F5F85
:104D10001F4F882321F00E94114BF801F6CF4A99CA
:104D200003C009E013E002C00EE013E0D8018D914A
:104D30008D01882319F00E94114BF8CF8AE00E9460
:104D4000114BECEAF4E084918F010F5F1F4F882331
:104D500021F00E94114BF801F6CF4B9903C009E0F6
:104D600013E002C00EE013E0F80181918F01882367
:104D700009F4EACA0E94114BF7CF81E08093120236
:104D8000809324020C94FF2E10921202109224029F
:104D90000C94FE2E88EC90E00E94B14E81110C9490
:104DA000FE2E84E40E94D649882311F40C94FE2E32
:104DB0000E94684A11E020E030E0A9010E94D3A5DA
:104DC000811101C010E01093D00A112359F1009114
:104DD000BA0310E00E94684A000F111F000F111F54
:104DE000F801EB5DFD4F608371838283938320E044
:104DF00030E0A9016091250270912602809127027E
:104E0000909128020E94D3A581110CC080E090E00F
:104E1000A0E4B0E48093250290932602A093270299
:104E2000B09328020E943E80E9C7D8018D918D0180
:104E30000E94D649882349F00E94684A0E94909FA8
:104E4000F7016083718382839383F4E0EF0EF11C9A
:104E5000D012EBCF0E943661D1C70FEEE02E0AE0F0
:104E6000F02E05E013E084E0D82ED00ED8018D910D
:104E70008D010E94D649882339F00E94684AF701C3
:104E80006083718382839383F4E0EF0EF11CD01270
:104E9000EDCFB4C783E50E94D6498823D9F00E949C
:104EA000684AAB01BC014093E70A5093E80A60935B
:104EB000E90A7093EA0A4093E30A5093E40A609384
:104EC000E50A7093E60A80E495E00E94754F8AE057
:104ED0000E94114B80E50E94D649882399F00E94D8
:104EE000684AAB01BC014093E70A5093E80A60931B
:104EF000E90A7093EA0A83E295E00E94754F8AE01E
:104F00000E94114B82E50E94D649882399F00E94A5
:104F1000684AAB01BC014093EB0A5093EC0A6093E2
:104F2000ED0A7093EE0A84E095E00E94754F8AE0E6
:104F30000E94114B84E50E94D649882309F45EC77C
:104F40000E94684AAB01BC014093E30A5093E40A13
:104F50006093E50A7093E60A86EE94E00E94754F2E
:104F60008AE00E94114B4AC783E50E94D6498823F4
:104F700051F00E94684A6093070B7093080B80936E
:104F8000090B90930A0B84E50E94D649882351F0BF
:104F90000E94684A6093030B7093040B8093050B87
:104FA0009093060B82E40E94D649882351F00E9418
:104FB0005D4A6093FF0A7093000B8093010B9093FE
:104FC000020B88E50E94D649882351F00E94684A66
:104FD0006093D30A7093D40A8093D50A9093D60A2B
:104FE00089E50E94D649882351F00E94684A60935F
:104FF000D70A7093D80A8093D90A9093DA0A8AE57F
:105000000E94D649882351F00E94684A6093DB0AC7
:105010007093DC0A8093DD0A9093DE0A85E40E9497
:10502000D649882309F4EAC60E94684A6093DF0AD9
:105030007093E00A8093E10A9093E20ADFC6A5E04C
:10504000AA2EA3E0BA2EB9E5CB2EBCE0DB2E19E7E1
:10505000E12E1CE0F12E00E010E0D5018D915D0104
:105060000E94D649882311F10E94684A2B013C0115
:10507000F70120813181428153810E942C9E9B0146
:10508000AC01D6016D917D918D919C910E942D9ED8
:10509000F6016083718382839383D7014D925D9281
:1050A0006D927C921397C8010E94E0500F5F1F4FD2
:1050B000B4E0CB0ED11CE4E0EE0EF11C0330110580
:1050C00061F60E9484550E94358C98C683E50E9443
:1050D000D649882309F492C60E94504A909306024A
:1050E000809305028BC60E942C8B88C60E948E8AF4
:1050F00085C60E949C8982C685E40E94D649882381
:1051000021F00E94504A1C0102C0212C312C83E462
:105110000E94D649882349F00E94504AC158DF4F67
:1051200099838883CF57D04008C025E030E0C1582C
:10513000DF4F39832883CF57D04085E50E94D64979
:10514000882341F00E94184ACF57DF4F8883C15807
:10515000D04005C0CF57DF4F1882C158D04083E5FB
:105160000E94D649882379F00E94684A2A966FAF38
:105170002A972E967FAF2E9762968FAF629766968C
:105180009FAF669710C02A961FAE2A972E961FAE25
:105190002E9737FC0EC036E162963FAF629743E42C
:1051A00066964FAF66972114310459F41092BA03F2
:1051B00008C05CE862965FAF629782E466968FAF44
:1051C00066971092A50B1092A40B0E94EA582B012F
:1051D0003C01C1010196029718F40CE113E00EC0E6
:1051E0000FE213E0D8018D918D01882319F00E9400
:1051F000114BF8CF8AE00E94114B00C6F801819153
:105200008F01882319F00E94114BF8CF8AE00E9489
:10521000114B0E94D3818FE7FFEF2F163F0619F441
:105220008093DD0B02C08093E40B81E08093070242
:10523000EB964CAE5DAE6EAE7FAEEB97CE57DF4FCA
:10524000488259826A827B82C258D040A6961FAE9D
:10525000A69720E4AA962FAFAA973CE1AE963FAF5F
:10526000AE9746E4E2964FAFE297E3961FAEE39720
:10527000E4961FAEE497E5961FAEE597E6961FAE5F
:10528000E697A5961CAE1DAE1EAE1FAEA597A196C5
:105290001CAE1DAE1EAE1FAEA197C12CD12C760147
:1052A000FFE78F2E912CA12CB12C8FE790E0A0E08E
:1052B000B0E025968CAF9DAFAEAFBFAF2597EF9610
:1052C0001CAE1DAE1EAE1FAEEF9791E0E7969FAFEE
:1052D000E7976B961FAE1EAE6B9719AE1DAE00E042
:1052E00010E080910702882309F43CC20E94EA582A
:1052F00029966CAF7DAF8EAF9FAF29978091DC0B65
:10530000882309F4ECC00E94A085AFEF2A163A0664
:1053100059F4B091E00BB9AFE091E10BEDAF009122
:10532000E20B1091E30B0AC0F0918E0CF9AF2091C3
:105330008F0C2DAF0091900C1091910C29AD3DADCB
:10534000A801E3966FADE397E4967FADE497E59609
:105350008FADE597E6969FADE6970E94D3A587FFB0
:105360000EC039ADE3963FAFE3974DADE4964FAF36
:10537000E497E5960FAFE597E6961FAFE69729AD60
:105380003DADA801A6966FADA697AA967FADAA9748
:10539000AE968FADAE97E2969FADE2970E9475A054
:1053A000181674F459ADA6965FAFA6978DADAA9660
:1053B0008FAFAA97AE960FAFAE97E2961FAFE29768
:1053C000E7969FADE7972A962FAD2A972E963FAD89
:1053D0002E9762964FAD629766965FAD669769AD00
:1053E0007DAD802F992309F45DC0912F0E9475A097
:1053F00018160CF074C029964CAD5DAD6EAD7FAD46
:1054000029974419550966097709DB01CA018858AB
:105410009341A109B109B7FD62C025968CAD9DAD40
:10542000AEADBFAD259788199909AA09BB09B595F5
:10543000A79597958795EFEF2E163E0619F4809362
:10544000DD0B02C08093E40BEF964CAF5DAF6EAF07
:105450007FAFEF972A96FFAD2A97E396FFAFE397CA
:105460002E962FAD2E97E4962FAFE49762963FAD20
:105470006297E5963FAFE59766964FAD6697E696DD
:105480004FAFE69729968CAD9DADAEADBFAD2997D8
:10549000EB968CAF9DAFAEAFBFAFEB97E7961FAE6D
:1054A000E7971DC0912F0E94D3A587FF18C02996AA
:1054B0008CAD9DADAEADBFAD2997EB962CAD3DAD9E
:1054C0004EAD5FADEB97821B930BA40BB50BAC01FC
:1054D000BD01485853416109710977FFE0C420E0DC
:1054E00030E040EA51E42A966FAD2A972E967FADC0
:1054F0002E9762968FAD629766969FAD66970E94D3
:105500002D9E9B01AC0169AD7DADC8010E9475A0C7
:1055100018166CF4E5E2F6E084918F010F5F1F4FDF
:10552000882309F46BC40E94114BF801F5CF80E386
:1055300098EFAFEFBFEFCE57DF4F288139814A8117
:105540005B81C258D040821B930BA40BB50B2996EC
:105550002CAD3DAD4EAD5FAD2997820F931FA41FBB
:10556000B51FB7FD13C00E94F48C8AE00E94114B56
:1055700029968CAD9DADAEADBFAD2997CE57DF4F0F
:1055800088839983AA83BB83C258D04029968CAD67
:105590009DADAEADBFAD2997880F991FAA1FBB1F48
:1055A000EB962CAD3DAD4EAD5FADEB97821B930BF3
:1055B000A40BB50B84199509A609B70981389F4436
:1055C000A241B10568F0E7E0F6E084918F010F5F3A
:1055D0001F4F882309F412C40E94114BF801F5CF24
:1055E0006B964EAD5FAD6B97C158DF4F8881998147
:1055F000CF57D040841795070CF073CEEAEAF5E058
:1056000084918F010F5F1F4F882321F00E94114B5F
:10561000F801F6CF9FEF2916390619F00DE913E0CE
:1056200002C008E113E0B80188E995E00E94C94B87
:10563000B701A60184E995E00E94754F8AE00E94B7
:10564000114BB80182E895E00E94C94BA1964CAD80
:105650005DAD6EAD7FADA1978EE795E00E94754F71
:105660008AE00E94114BB8018CE695E00E94C94B7C
:10567000A5964CAD5DAD6EAD7FADA59788E695E086
:105680000E94754F8AE00E94114BCF57DF4FA881CF
:10569000C158D040AA2309F4B1C32320209489F52E
:1056A000C0925002D0925102E0925202F092530204
:1056B0002CE933E549E45EE3A1966CAD7DAD8EAD9A
:1056C0009FADA1970E9438A660934C0270934D0243
:1056D00080934E0290934F022CE933E549E45EE358
:1056E000A5966CAD7DAD8EAD9FADA5970E94199F1F
:1056F000609348027093490280934A0290934B0250
:105700007DC3C0925802D0925902E0925A02F092A0
:105710005B022CE933E549E45EE3A1966CAD7DAD17
:105720008EAD9FADA1970E9438A6609354027093EE
:10573000550280935602909357022CE933E549E4D1
:105740005EE3A5966CAD7DAD8EAD9FADA5970E9435
:10575000199F60935C0270935D0280935E02909348
:105760005F024CC380910702811148C30E94D3811C
:1057700045C30E946A8942C381E00E9434533EC3FC
:1057800080E00E9434533AC383E50E94D6498823BF
:1057900009F434C30E94184A0E945C492FC3F801DF
:1057A000ED5CFD4F2081318142815381F801E85643
:1057B000F44F60817181828193810E942D9E20E04F
:1057C00030E040E05FE30E9438A69B01AC01F101AC
:1057D00060817181828193810E9475A018160CF0FE
:1057E0007BC0C8018D5F924E0E94004BD1014D904D
:1057F0005D906D907C90E9ADFAADC080D180E28083
:10580000F380A70196010E942D9EF801E359F34F02
:1058100020813181428153810E942D9E9B01AC01E8
:10582000C301B2010E942C9E4B015C0120E030E0DC
:1058300040EA51EC0E9475A018160CF051C020E00F
:1058400030E040EA51E4C501B4010E94D3A587FFCE
:1058500047C0A5019401C701B6010E942C9E4B01CF
:105860005C01A70196010E942C9E9B01AC01C30123
:10587000B2010E942D9ED1016D937D938D939C93D7
:105880001397E9ADFAAD80829182A282B382279606
:105890008EAD9FAD27970E94E050F4E02F0E311C93
:1058A0000C5F1F4F29AD3AAD2C5F3F4F3AAF29AF88
:1058B0000C30110509F405CC4DAD5EAD42595C408C
:1058C00027965FAF4EAF2797ADADBEAD8D91BEAF02
:1058D000ADAF882311F363CF60E070E0CB0186CFDA
:1058E00001E210E1F8018491882329F00F5F1F4F36
:1058F0000E94114BF7CF09E916E0F8018491882343
:1059000009F47CC20F5F1F4F0E94114BF6CF1AA6FD
:105910001BA61CA61DA680E390E3A0E3B0E08EA327
:105920009FA3A8A7B9A784E690E09DAB8CAB44E009
:10593000BE016A5D7F4FCE01C4960E94467B8CA952
:105940009DA902969DAB8CAB1092CF0A1092CE0A05
:1059500040E16AE076E0CE01C4960E94467B40E1D9
:105960006FEE7AE0CE01C4960E94467B40E16AEF7A
:1059700075E0CE01C4960E94467B44E067EE7AE073
:10598000CE01C4960E94467B44E06BEE7AE0CE01E5
:10599000C4960E94467B44E063EE7AE0CE01C49652
:1059A0000E94467B44E067E07BE0CE01C4960E9403
:1059B000467B44E063E07BE0CE01C4960E94467BD8
:1059C00044E06FEF7AE0CE01C4960E94467B40E14E
:1059D00063ED7AE0CE01C4960E94467B4CE069E715
:1059E0007CE0CE01C4960E94467B83E088AF8FABFB
:1059F0001EAA1AA61BA61CA61DA641E0BE016A5C33
:105A00007F4FCE01C4960E94467B44E0BE01665D96
:105A10007F4FCE01C4960E94467B41E0BE01685C88
:105A20007F4FCE01C4960E94467B41E0BE01695C77
:105A30007F4FCE01C4960E94467B10E088AD9FA99F
:105A4000212F30E0899FC001112444E02817390735
:105A50004CF4BE01665D7F4FCE01C4960E94467B2A
:105A60001F5FECCF69E67CE0CE01C4960E94467BC6
:105A70001AA61BA61CA61DA61AE0115049F044E068
:105A8000BE01665D7F4FCE01C4960E94467BF5CF76
:105A90008EEB90E09BA38AA380EF90E09DA38CA364
:105AA0001F8A1E8A198E188E1A8219821C821B82E6
:105AB00044E0BE016E5D7F4FCE01C4960E94467BDE
:105AC00044E0BE016A5E7F4FCE01C4960E94467BD1
:105AD00044E0BE016F5F7F4FCE01C4960E94467BBB
